{
  "contractName": "BalanceAucCalculator",
  "abi": [
    {
      "constant": true,
      "inputs": [
        {
          "internalType": "contract BalanceRecordable",
          "name": "balanceRecordable",
          "type": "address"
        },
        {
          "internalType": "address",
          "name": "wallet",
          "type": "address"
        },
        {
          "internalType": "uint256",
          "name": "startBlock",
          "type": "uint256"
        },
        {
          "internalType": "uint256",
          "name": "endBlock",
          "type": "uint256"
        }
      ],
      "name": "calculate",
      "outputs": [
        {
          "internalType": "uint256",
          "name": "",
          "type": "uint256"
        }
      ],
      "payable": false,
      "stateMutability": "view",
      "type": "function"
    }
  ],
  "bytecode": "0x608060405234801561001057600080fd5b50610823806100206000396000f3fe608060405234801561001057600080fd5b506004361061002b5760003560e01c8063dac70dcb14610030575b600080fd5b61006c6004803603608081101561004657600080fd5b506001600160a01b0381358116916020810135909116906040810135906060013561007e565b60408051918252519081900360200190f35b6000828210156100905750600061079e565b6000856001600160a01b0316633d5a18b2866040518263ffffffff1660e01b815260040180826001600160a01b03166001600160a01b0316815260200191505060206040518083038186803b1580156100e857600080fd5b505afa1580156100fc573d6000803e3d6000fd5b505050506040513d602081101561011257600080fd5b505190508061012557600091505061079e565b60408051637319424f60e01b81526001600160a01b038781166004830152602482018690529151600092891691637319424f916044808301926020929190829003018186803b15801561017757600080fd5b505afa15801561018b573d6000803e3d6000fd5b505050506040513d60208110156101a157600080fd5b5051905060008112156101b95760009250505061079e565b6040805163f08c841560e01b81526001600160a01b038881166004830152600060248301529151839273__SafeMathUintLib_______________________9263a682d5ad928a928d169163f08c8415916044808301926020929190829003018186803b15801561022857600080fd5b505afa15801561023c573d6000803e3d6000fd5b505050506040513d602081101561025257600080fd5b5051604080516001600160e01b031960e086901b16815260048101939093526024830191909152516044808301926020929190829003018186803b15801561029957600080fd5b505af41580156102ad573d6000803e3d6000fd5b505050506040513d60208110156102c357600080fd5b505160408051637319424f60e01b81526001600160a01b038a81166004830152602482018490529151929850600092918b1691637319424f91604480820192602092909190829003018186803b15801561031c57600080fd5b505afa158015610330573d6000803e3d6000fd5b505050506040513d602081101561034657600080fd5b505190506000828210156104aa576104a761049a6104048a6001600160a01b038e1663f08c84158e61037f89600163ffffffff6107a616565b6040518363ffffffff1660e01b815260040180836001600160a01b03166001600160a01b031681526020018281526020019250505060206040518083038186803b1580156103cc57600080fd5b505afa1580156103e0573d6000803e3d6000fd5b505050506040513d60208110156103f657600080fd5b50519063ffffffff6107bc16565b8c6001600160a01b03166312c508ba8d876040518363ffffffff1660e01b815260040180836001600160a01b03166001600160a01b031681526020018281526020019250505060206040518083038186803b15801561046257600080fd5b505afa158015610476573d6000803e3d6000fd5b505050506040513d602081101561048c57600080fd5b50519063ffffffff6107ce16565b829063ffffffff6107a616565b90505b60006104bd83600163ffffffff6107a616565b90505b83811015610601576105e76105da61057c8d6001600160a01b031663f08c84158e866040518363ffffffff1660e01b815260040180836001600160a01b03166001600160a01b031681526020018281526020019250505060206040518083038186803b15801561052f57600080fd5b505afa158015610543573d6000803e3d6000fd5b505050506040513d602081101561055957600080fd5b50516001600160a01b038f1663f08c84158f61037f88600163ffffffff6107a616565b8d6001600160a01b03166312c508ba8e866040518363ffffffff1660e01b815260040180836001600160a01b03166001600160a01b031681526020018281526020019250505060206040518083038186803b15801561046257600080fd5b839063ffffffff6107a616565b91506105fa81600163ffffffff6107a616565b90506104c0565b5061079661049a610738600161072c8e6001600160a01b031663f08c84158f8a6040518363ffffffff1660e01b815260040180836001600160a01b03166001600160a01b031681526020018281526020019250505060206040518083038186803b15801561066e57600080fd5b505afa158015610682573d6000803e3d6000fd5b505050506040513d602081101561069857600080fd5b50516040805163a682d5ad60e01b81526004810192909252602482018f90525173__SafeMathUintLib_______________________9163a682d5ad916044808301926020929190829003018186803b1580156106f357600080fd5b505af4158015610707573d6000803e3d6000fd5b505050506040513d602081101561071d57600080fd5b50518c9063ffffffff6107bc16565b9063ffffffff6107a616565b8c6001600160a01b03166312c508ba8d886040518363ffffffff1660e01b815260040180836001600160a01b03166001600160a01b031681526020018281526020019250505060206040518083038186803b15801561046257600080fd5b955050505050505b949350505050565b6000828201838110156107b557fe5b9392505050565b6000828211156107c857fe5b50900390565b60008282028315806107e85750828482816107e557fe5b04145b6107b557fefea265627a7a72315820620e56dc1ade1e54c730187876c430e80ae0ad9b9ee0ae5dfb118f5655244cbd64736f6c634300050d0032",
  "source": "pragma solidity >=0.4.25 <0.6.0;\n\nimport {BalanceRecordable} from \"./BalanceRecordable.sol\";\nimport {SafeMathUintLib} from \"./SafeMathUintLib.sol\";\n\n/**\n * @title BalanceAucCalculator\n * @notice Calculator of area under curve of balance graph as function of block number\n */\ncontract BalanceAucCalculator {\n    using SafeMathUintLib for uint256;\n\n    //\n    // Functions\n    // -----------------------------------------------------------------------------------------------------------------\n    /// @notice Calculate the area under curve for the given wallet's balance in the given range of block numbers\n    /// @param balanceRecordable The address of the concerned balance recordable instance\n    /// (e.g. RevenueToken or RevenueTokenManager)\n    /// @param wallet The concerned wallet\n    /// @param startBlock The lower block number boundary\n    /// @param endBlock The upper block number boundary\n    /// @return The calculated value of area under curve\n    function calculate(BalanceRecordable balanceRecordable, address wallet, uint256 startBlock, uint256 endBlock)\n    public\n    view\n    returns (uint256)\n    {\n        // Return 0 if end boundary is not strictly greater than start boundary\n        if (endBlock < startBlock)\n            return 0;\n\n        // Get the count of balance records\n        uint256 recordsCount = balanceRecordable.balanceRecordsCount(wallet);\n\n        // Return 0 if the balance recordable has no records\n        if (0 == recordsCount)\n            return 0;\n\n        // Obtain the record index of the end block number boundary\n        int256 _endIndex = balanceRecordable.recordIndexByBlockNumber(wallet, endBlock);\n\n        // If the record index is negative the upper boundary is below the first record's block number, hence return 0\n        if (0 > _endIndex)\n            return 0;\n\n        // Cast end record index to unsigned\n        uint256 endIndex = uint256(_endIndex);\n\n        // Clamp the start block number boundary to the first record block number as any contribution\n        // to the calculation below this limit is 0\n        startBlock = startBlock.clampMin(balanceRecordable.recordBlockNumber(wallet, 0));\n\n        // Obtain the record index of the start block number boundary\n        uint256 startIndex = uint256(balanceRecordable.recordIndexByBlockNumber(wallet, startBlock));\n\n        // Initialize the result\n        uint256 result = 0;\n\n        // Add contribution for the record where the lower block number boundary resides\n        if (startIndex < endIndex)\n            result = result.add(\n                balanceRecordable.recordBalance(wallet, startIndex).mul(\n                    balanceRecordable.recordBlockNumber(wallet, startIndex.add(1)).sub(startBlock)\n                )\n            );\n\n        // Add contribution from records at intermediate indices\n        for (uint256 i = startIndex.add(1); i < endIndex; i = i.add(1))\n            result = result.add(\n                balanceRecordable.recordBalance(wallet, i).mul(\n                    balanceRecordable.recordBlockNumber(wallet, i.add(1)).sub(\n                        balanceRecordable.recordBlockNumber(wallet, i)\n                    )\n                )\n            );\n\n        // Add contribution from the record where the upper block number boundary resides\n        result = result.add(\n            balanceRecordable.recordBalance(wallet, endIndex).mul(\n                endBlock.sub(\n                    balanceRecordable.recordBlockNumber(wallet, endIndex).clampMin(startBlock)\n                ).add(1)\n            )\n        );\n\n        // Return result\n        return result;\n    }\n}\n",
  "sourcePath": "/opt/buildagent/work/855e104608380c36/contracts/BalanceAucCalculator.sol",
  "compiler": {
    "name": "solc",
    "version": "0.5.13+commit.5b0b510c.Emscripten.clang"
  },
  "schemaVersion": "2.0.3",
  "updatedAt": "2020-02-02T20:23:20.206Z"
}