{
  "contractName": "ClientFund",
  "abi": [
    {
      "constant": false,
      "inputs": [
        {
          "name": "service",
          "type": "address"
        }
      ],
      "name": "authorizeRegisteredService",
      "outputs": [],
      "payable": false,
      "stateMutability": "nonpayable",
      "type": "function"
    },
    {
      "constant": true,
      "inputs": [
        {
          "name": "beneficiary",
          "type": "address"
        }
      ],
      "name": "isRegisteredBeneficiary",
      "outputs": [
        {
          "name": "",
          "type": "bool"
        }
      ],
      "payable": false,
      "stateMutability": "view",
      "type": "function"
    },
    {
      "constant": true,
      "inputs": [
        {
          "name": "service",
          "type": "address"
        },
        {
          "name": "action",
          "type": "string"
        },
        {
          "name": "wallet",
          "type": "address"
        }
      ],
      "name": "isAuthorizedRegisteredServiceAction",
      "outputs": [
        {
          "name": "",
          "type": "bool"
        }
      ],
      "payable": false,
      "stateMutability": "view",
      "type": "function"
    },
    {
      "constant": true,
      "inputs": [
        {
          "name": "service",
          "type": "address"
        }
      ],
      "name": "isRegisteredActiveService",
      "outputs": [
        {
          "name": "",
          "type": "bool"
        }
      ],
      "payable": false,
      "stateMutability": "view",
      "type": "function"
    },
    {
      "constant": true,
      "inputs": [],
      "name": "balanceTracker",
      "outputs": [
        {
          "name": "",
          "type": "address"
        }
      ],
      "payable": false,
      "stateMutability": "view",
      "type": "function"
    },
    {
      "constant": true,
      "inputs": [
        {
          "name": "",
          "type": "address"
        }
      ],
      "name": "initialServiceAuthorizedMap",
      "outputs": [
        {
          "name": "",
          "type": "bool"
        }
      ],
      "payable": false,
      "stateMutability": "view",
      "type": "function"
    },
    {
      "constant": false,
      "inputs": [
        {
          "name": "beneficiary",
          "type": "address"
        }
      ],
      "name": "deregisterBeneficiary",
      "outputs": [
        {
          "name": "",
          "type": "bool"
        }
      ],
      "payable": false,
      "stateMutability": "nonpayable",
      "type": "function"
    },
    {
      "constant": true,
      "inputs": [],
      "name": "walletLockerFrozen",
      "outputs": [
        {
          "name": "",
          "type": "bool"
        }
      ],
      "payable": false,
      "stateMutability": "view",
      "type": "function"
    },
    {
      "constant": false,
      "inputs": [],
      "name": "triggerSelfDestruction",
      "outputs": [],
      "payable": false,
      "stateMutability": "nonpayable",
      "type": "function"
    },
    {
      "constant": false,
      "inputs": [
        {
          "name": "service",
          "type": "address"
        },
        {
          "name": "action",
          "type": "string"
        }
      ],
      "name": "enableServiceAction",
      "outputs": [],
      "payable": false,
      "stateMutability": "nonpayable",
      "type": "function"
    },
    {
      "constant": true,
      "inputs": [
        {
          "name": "service",
          "type": "address"
        }
      ],
      "name": "isRegisteredService",
      "outputs": [
        {
          "name": "",
          "type": "bool"
        }
      ],
      "payable": false,
      "stateMutability": "view",
      "type": "function"
    },
    {
      "constant": true,
      "inputs": [],
      "name": "selfDestructionDisabled",
      "outputs": [
        {
          "name": "",
          "type": "bool"
        }
      ],
      "payable": false,
      "stateMutability": "view",
      "type": "function"
    },
    {
      "constant": false,
      "inputs": [
        {
          "name": "service",
          "type": "address"
        },
        {
          "name": "action",
          "type": "string"
        }
      ],
      "name": "disableServiceAction",
      "outputs": [],
      "payable": false,
      "stateMutability": "nonpayable",
      "type": "function"
    },
    {
      "constant": true,
      "inputs": [],
      "name": "serviceActivationTimeout",
      "outputs": [
        {
          "name": "",
          "type": "uint256"
        }
      ],
      "payable": false,
      "stateMutability": "view",
      "type": "function"
    },
    {
      "constant": true,
      "inputs": [],
      "name": "balanceTrackerFrozen",
      "outputs": [
        {
          "name": "",
          "type": "bool"
        }
      ],
      "payable": false,
      "stateMutability": "view",
      "type": "function"
    },
    {
      "constant": true,
      "inputs": [],
      "name": "destructor",
      "outputs": [
        {
          "name": "",
          "type": "address"
        }
      ],
      "payable": false,
      "stateMutability": "view",
      "type": "function"
    },
    {
      "constant": false,
      "inputs": [
        {
          "name": "service",
          "type": "address"
        }
      ],
      "name": "authorizeInitialService",
      "outputs": [],
      "payable": false,
      "stateMutability": "nonpayable",
      "type": "function"
    },
    {
      "constant": false,
      "inputs": [
        {
          "name": "service",
          "type": "address"
        }
      ],
      "name": "deregisterService",
      "outputs": [],
      "payable": false,
      "stateMutability": "nonpayable",
      "type": "function"
    },
    {
      "constant": true,
      "inputs": [],
      "name": "operator",
      "outputs": [
        {
          "name": "",
          "type": "address"
        }
      ],
      "payable": false,
      "stateMutability": "view",
      "type": "function"
    },
    {
      "constant": true,
      "inputs": [
        {
          "name": "service",
          "type": "address"
        },
        {
          "name": "wallet",
          "type": "address"
        }
      ],
      "name": "isAuthorizedRegisteredService",
      "outputs": [
        {
          "name": "",
          "type": "bool"
        }
      ],
      "payable": false,
      "stateMutability": "view",
      "type": "function"
    },
    {
      "constant": false,
      "inputs": [
        {
          "name": "newBalanceTracker",
          "type": "address"
        }
      ],
      "name": "setBalanceTracker",
      "outputs": [],
      "payable": false,
      "stateMutability": "nonpayable",
      "type": "function"
    },
    {
      "constant": false,
      "inputs": [],
      "name": "freezeWalletLocker",
      "outputs": [],
      "payable": false,
      "stateMutability": "nonpayable",
      "type": "function"
    },
    {
      "constant": true,
      "inputs": [
        {
          "name": "service",
          "type": "address"
        },
        {
          "name": "action",
          "type": "string"
        }
      ],
      "name": "isEnabledServiceAction",
      "outputs": [
        {
          "name": "",
          "type": "bool"
        }
      ],
      "payable": false,
      "stateMutability": "view",
      "type": "function"
    },
    {
      "constant": false,
      "inputs": [
        {
          "name": "service",
          "type": "address"
        },
        {
          "name": "action",
          "type": "string"
        }
      ],
      "name": "authorizeRegisteredServiceAction",
      "outputs": [],
      "payable": false,
      "stateMutability": "nonpayable",
      "type": "function"
    },
    {
      "constant": true,
      "inputs": [
        {
          "name": "",
          "type": "address"
        },
        {
          "name": "",
          "type": "address"
        }
      ],
      "name": "initialServiceWalletUnauthorizedMap",
      "outputs": [
        {
          "name": "",
          "type": "bool"
        }
      ],
      "payable": false,
      "stateMutability": "view",
      "type": "function"
    },
    {
      "constant": true,
      "inputs": [],
      "name": "registeredBeneficiariesCount",
      "outputs": [
        {
          "name": "",
          "type": "uint256"
        }
      ],
      "payable": false,
      "stateMutability": "view",
      "type": "function"
    },
    {
      "constant": true,
      "inputs": [
        {
          "name": "",
          "type": "address"
        },
        {
          "name": "",
          "type": "bytes32"
        },
        {
          "name": "",
          "type": "address"
        }
      ],
      "name": "serviceActionWalletTouchedMap",
      "outputs": [
        {
          "name": "",
          "type": "bool"
        }
      ],
      "payable": false,
      "stateMutability": "view",
      "type": "function"
    },
    {
      "constant": false,
      "inputs": [],
      "name": "disableSelfDestruction",
      "outputs": [],
      "payable": false,
      "stateMutability": "nonpayable",
      "type": "function"
    },
    {
      "constant": true,
      "inputs": [
        {
          "name": "",
          "type": "address"
        },
        {
          "name": "",
          "type": "address"
        }
      ],
      "name": "serviceWalletAuthorizedMap",
      "outputs": [
        {
          "name": "",
          "type": "bool"
        }
      ],
      "payable": false,
      "stateMutability": "view",
      "type": "function"
    },
    {
      "constant": true,
      "inputs": [],
      "name": "tokenHolderRevenueFund",
      "outputs": [
        {
          "name": "",
          "type": "address"
        }
      ],
      "payable": false,
      "stateMutability": "view",
      "type": "function"
    },
    {
      "constant": false,
      "inputs": [
        {
          "name": "timeoutInSeconds",
          "type": "uint256"
        }
      ],
      "name": "setServiceActivationTimeout",
      "outputs": [],
      "payable": false,
      "stateMutability": "nonpayable",
      "type": "function"
    },
    {
      "constant": true,
      "inputs": [],
      "name": "initialServiceAuthorizationDisabled",
      "outputs": [
        {
          "name": "",
          "type": "bool"
        }
      ],
      "payable": false,
      "stateMutability": "view",
      "type": "function"
    },
    {
      "constant": true,
      "inputs": [
        {
          "name": "",
          "type": "address"
        },
        {
          "name": "",
          "type": "bytes32"
        },
        {
          "name": "",
          "type": "address"
        }
      ],
      "name": "serviceActionWalletAuthorizedMap",
      "outputs": [
        {
          "name": "",
          "type": "bool"
        }
      ],
      "payable": false,
      "stateMutability": "view",
      "type": "function"
    },
    {
      "constant": false,
      "inputs": [
        {
          "name": "newWalletLocker",
          "type": "address"
        }
      ],
      "name": "setWalletLocker",
      "outputs": [],
      "payable": false,
      "stateMutability": "nonpayable",
      "type": "function"
    },
    {
      "constant": false,
      "inputs": [],
      "name": "freezeTransactionTracker",
      "outputs": [],
      "payable": false,
      "stateMutability": "nonpayable",
      "type": "function"
    },
    {
      "constant": true,
      "inputs": [],
      "name": "transactionTrackerFrozen",
      "outputs": [
        {
          "name": "",
          "type": "bool"
        }
      ],
      "payable": false,
      "stateMutability": "view",
      "type": "function"
    },
    {
      "constant": false,
      "inputs": [
        {
          "name": "service",
          "type": "address"
        },
        {
          "name": "action",
          "type": "string"
        }
      ],
      "name": "unauthorizeRegisteredServiceAction",
      "outputs": [],
      "payable": false,
      "stateMutability": "nonpayable",
      "type": "function"
    },
    {
      "constant": false,
      "inputs": [
        {
          "name": "service",
          "type": "address"
        }
      ],
      "name": "registerServiceDeferred",
      "outputs": [],
      "payable": false,
      "stateMutability": "nonpayable",
      "type": "function"
    },
    {
      "constant": false,
      "inputs": [
        {
          "name": "newDeployer",
          "type": "address"
        }
      ],
      "name": "setDeployer",
      "outputs": [],
      "payable": false,
      "stateMutability": "nonpayable",
      "type": "function"
    },
    {
      "constant": false,
      "inputs": [
        {
          "name": "service",
          "type": "address"
        }
      ],
      "name": "unauthorizeRegisteredService",
      "outputs": [],
      "payable": false,
      "stateMutability": "nonpayable",
      "type": "function"
    },
    {
      "constant": true,
      "inputs": [],
      "name": "transactionTracker",
      "outputs": [
        {
          "name": "",
          "type": "address"
        }
      ],
      "payable": false,
      "stateMutability": "view",
      "type": "function"
    },
    {
      "constant": true,
      "inputs": [],
      "name": "transferControllerManager",
      "outputs": [
        {
          "name": "",
          "type": "address"
        }
      ],
      "payable": false,
      "stateMutability": "view",
      "type": "function"
    },
    {
      "constant": false,
      "inputs": [
        {
          "name": "newOperator",
          "type": "address"
        }
      ],
      "name": "setOperator",
      "outputs": [],
      "payable": false,
      "stateMutability": "nonpayable",
      "type": "function"
    },
    {
      "constant": false,
      "inputs": [],
      "name": "freezeBalanceTracker",
      "outputs": [],
      "payable": false,
      "stateMutability": "nonpayable",
      "type": "function"
    },
    {
      "constant": true,
      "inputs": [
        {
          "name": "",
          "type": "uint256"
        }
      ],
      "name": "seizedWallets",
      "outputs": [
        {
          "name": "",
          "type": "address"
        }
      ],
      "payable": false,
      "stateMutability": "view",
      "type": "function"
    },
    {
      "constant": false,
      "inputs": [
        {
          "name": "beneficiary",
          "type": "address"
        }
      ],
      "name": "registerBeneficiary",
      "outputs": [
        {
          "name": "",
          "type": "bool"
        }
      ],
      "payable": false,
      "stateMutability": "nonpayable",
      "type": "function"
    },
    {
      "constant": false,
      "inputs": [
        {
          "name": "newTransactionTracker",
          "type": "address"
        }
      ],
      "name": "setTransactionTracker",
      "outputs": [],
      "payable": false,
      "stateMutability": "nonpayable",
      "type": "function"
    },
    {
      "constant": false,
      "inputs": [
        {
          "name": "newTransferControllerManager",
          "type": "address"
        }
      ],
      "name": "setTransferControllerManager",
      "outputs": [],
      "payable": false,
      "stateMutability": "nonpayable",
      "type": "function"
    },
    {
      "constant": true,
      "inputs": [],
      "name": "deployer",
      "outputs": [
        {
          "name": "",
          "type": "address"
        }
      ],
      "payable": false,
      "stateMutability": "view",
      "type": "function"
    },
    {
      "constant": true,
      "inputs": [
        {
          "name": "",
          "type": "address"
        }
      ],
      "name": "seizedByWallet",
      "outputs": [
        {
          "name": "",
          "type": "bool"
        }
      ],
      "payable": false,
      "stateMutability": "view",
      "type": "function"
    },
    {
      "constant": false,
      "inputs": [],
      "name": "disableInitialServiceAuthorization",
      "outputs": [],
      "payable": false,
      "stateMutability": "nonpayable",
      "type": "function"
    },
    {
      "constant": true,
      "inputs": [
        {
          "name": "",
          "type": "address"
        },
        {
          "name": "",
          "type": "address"
        },
        {
          "name": "",
          "type": "uint256"
        }
      ],
      "name": "serviceWalletActionList",
      "outputs": [
        {
          "name": "",
          "type": "bytes32"
        }
      ],
      "payable": false,
      "stateMutability": "view",
      "type": "function"
    },
    {
      "constant": true,
      "inputs": [],
      "name": "walletLocker",
      "outputs": [
        {
          "name": "",
          "type": "address"
        }
      ],
      "payable": false,
      "stateMutability": "view",
      "type": "function"
    },
    {
      "constant": false,
      "inputs": [
        {
          "name": "service",
          "type": "address"
        }
      ],
      "name": "registerService",
      "outputs": [],
      "payable": false,
      "stateMutability": "nonpayable",
      "type": "function"
    },
    {
      "inputs": [
        {
          "name": "deployer",
          "type": "address"
        }
      ],
      "payable": false,
      "stateMutability": "nonpayable",
      "type": "constructor"
    },
    {
      "payable": true,
      "stateMutability": "payable",
      "type": "fallback"
    },
    {
      "anonymous": false,
      "inputs": [
        {
          "indexed": false,
          "name": "oldTokenHolderRevenueFund",
          "type": "address"
        },
        {
          "indexed": false,
          "name": "newTokenHolderRevenueFund",
          "type": "address"
        }
      ],
      "name": "SetTokenHolderRevenueFundEvent",
      "type": "event"
    },
    {
      "anonymous": false,
      "inputs": [
        {
          "indexed": false,
          "name": "wallet",
          "type": "address"
        },
        {
          "indexed": false,
          "name": "balanceType",
          "type": "string"
        },
        {
          "indexed": false,
          "name": "value",
          "type": "int256"
        },
        {
          "indexed": false,
          "name": "currencyCt",
          "type": "address"
        },
        {
          "indexed": false,
          "name": "currencyId",
          "type": "uint256"
        },
        {
          "indexed": false,
          "name": "standard",
          "type": "string"
        }
      ],
      "name": "ReceiveEvent",
      "type": "event"
    },
    {
      "anonymous": false,
      "inputs": [
        {
          "indexed": false,
          "name": "wallet",
          "type": "address"
        },
        {
          "indexed": false,
          "name": "value",
          "type": "int256"
        },
        {
          "indexed": false,
          "name": "currencyCt",
          "type": "address"
        },
        {
          "indexed": false,
          "name": "currencyId",
          "type": "uint256"
        },
        {
          "indexed": false,
          "name": "standard",
          "type": "string"
        }
      ],
      "name": "WithdrawEvent",
      "type": "event"
    },
    {
      "anonymous": false,
      "inputs": [
        {
          "indexed": false,
          "name": "wallet",
          "type": "address"
        },
        {
          "indexed": false,
          "name": "value",
          "type": "int256"
        },
        {
          "indexed": false,
          "name": "currencyCt",
          "type": "address"
        },
        {
          "indexed": false,
          "name": "currencyId",
          "type": "uint256"
        }
      ],
      "name": "StageEvent",
      "type": "event"
    },
    {
      "anonymous": false,
      "inputs": [
        {
          "indexed": false,
          "name": "wallet",
          "type": "address"
        },
        {
          "indexed": false,
          "name": "value",
          "type": "int256"
        },
        {
          "indexed": false,
          "name": "currencyCt",
          "type": "address"
        },
        {
          "indexed": false,
          "name": "currencyId",
          "type": "uint256"
        }
      ],
      "name": "UnstageEvent",
      "type": "event"
    },
    {
      "anonymous": false,
      "inputs": [
        {
          "indexed": false,
          "name": "wallet",
          "type": "address"
        },
        {
          "indexed": false,
          "name": "value",
          "type": "int256"
        },
        {
          "indexed": false,
          "name": "currencyCt",
          "type": "address"
        },
        {
          "indexed": false,
          "name": "currencyId",
          "type": "uint256"
        }
      ],
      "name": "UpdateSettledBalanceEvent",
      "type": "event"
    },
    {
      "anonymous": false,
      "inputs": [
        {
          "indexed": false,
          "name": "sourceWallet",
          "type": "address"
        },
        {
          "indexed": false,
          "name": "beneficiary",
          "type": "address"
        },
        {
          "indexed": false,
          "name": "value",
          "type": "int256"
        },
        {
          "indexed": false,
          "name": "currencyCt",
          "type": "address"
        },
        {
          "indexed": false,
          "name": "currencyId",
          "type": "uint256"
        },
        {
          "indexed": false,
          "name": "standard",
          "type": "string"
        }
      ],
      "name": "StageToBeneficiaryEvent",
      "type": "event"
    },
    {
      "anonymous": false,
      "inputs": [
        {
          "indexed": false,
          "name": "wallet",
          "type": "address"
        },
        {
          "indexed": false,
          "name": "beneficiary",
          "type": "address"
        },
        {
          "indexed": false,
          "name": "value",
          "type": "int256"
        },
        {
          "indexed": false,
          "name": "currencyCt",
          "type": "address"
        },
        {
          "indexed": false,
          "name": "currencyId",
          "type": "uint256"
        }
      ],
      "name": "TransferToBeneficiaryEvent",
      "type": "event"
    },
    {
      "anonymous": false,
      "inputs": [
        {
          "indexed": false,
          "name": "seizedWallet",
          "type": "address"
        },
        {
          "indexed": false,
          "name": "seizerWallet",
          "type": "address"
        },
        {
          "indexed": false,
          "name": "value",
          "type": "int256"
        },
        {
          "indexed": false,
          "name": "currencyCt",
          "type": "address"
        },
        {
          "indexed": false,
          "name": "currencyId",
          "type": "uint256"
        }
      ],
      "name": "SeizeBalancesEvent",
      "type": "event"
    },
    {
      "anonymous": false,
      "inputs": [
        {
          "indexed": false,
          "name": "claimer",
          "type": "address"
        },
        {
          "indexed": false,
          "name": "balanceType",
          "type": "string"
        },
        {
          "indexed": false,
          "name": "currencyCt",
          "type": "address"
        },
        {
          "indexed": false,
          "name": "currencyId",
          "type": "uint256"
        },
        {
          "indexed": false,
          "name": "standard",
          "type": "string"
        }
      ],
      "name": "ClaimRevenueEvent",
      "type": "event"
    },
    {
      "anonymous": false,
      "inputs": [
        {
          "indexed": false,
          "name": "oldWalletLocker",
          "type": "address"
        },
        {
          "indexed": false,
          "name": "newWalletLocker",
          "type": "address"
        }
      ],
      "name": "SetWalletLockerEvent",
      "type": "event"
    },
    {
      "anonymous": false,
      "inputs": [],
      "name": "FreezeWalletLockerEvent",
      "type": "event"
    },
    {
      "anonymous": false,
      "inputs": [
        {
          "indexed": false,
          "name": "oldTransactionTracker",
          "type": "address"
        },
        {
          "indexed": false,
          "name": "newTransactionTracker",
          "type": "address"
        }
      ],
      "name": "SetTransactionTrackerEvent",
      "type": "event"
    },
    {
      "anonymous": false,
      "inputs": [],
      "name": "FreezeTransactionTrackerEvent",
      "type": "event"
    },
    {
      "anonymous": false,
      "inputs": [
        {
          "indexed": false,
          "name": "oldBalanceTracker",
          "type": "address"
        },
        {
          "indexed": false,
          "name": "newBalanceTracker",
          "type": "address"
        }
      ],
      "name": "SetBalanceTrackerEvent",
      "type": "event"
    },
    {
      "anonymous": false,
      "inputs": [],
      "name": "FreezeBalanceTrackerEvent",
      "type": "event"
    },
    {
      "anonymous": false,
      "inputs": [
        {
          "indexed": false,
          "name": "oldTransferControllerManager",
          "type": "address"
        },
        {
          "indexed": false,
          "name": "newTransferControllerManager",
          "type": "address"
        }
      ],
      "name": "SetTransferControllerManagerEvent",
      "type": "event"
    },
    {
      "anonymous": false,
      "inputs": [
        {
          "indexed": false,
          "name": "wallet",
          "type": "address"
        },
        {
          "indexed": false,
          "name": "service",
          "type": "address"
        }
      ],
      "name": "AuthorizeInitialServiceEvent",
      "type": "event"
    },
    {
      "anonymous": false,
      "inputs": [
        {
          "indexed": false,
          "name": "wallet",
          "type": "address"
        },
        {
          "indexed": false,
          "name": "service",
          "type": "address"
        }
      ],
      "name": "AuthorizeRegisteredServiceEvent",
      "type": "event"
    },
    {
      "anonymous": false,
      "inputs": [
        {
          "indexed": false,
          "name": "wallet",
          "type": "address"
        },
        {
          "indexed": false,
          "name": "service",
          "type": "address"
        },
        {
          "indexed": false,
          "name": "action",
          "type": "string"
        }
      ],
      "name": "AuthorizeRegisteredServiceActionEvent",
      "type": "event"
    },
    {
      "anonymous": false,
      "inputs": [
        {
          "indexed": false,
          "name": "wallet",
          "type": "address"
        },
        {
          "indexed": false,
          "name": "service",
          "type": "address"
        }
      ],
      "name": "UnauthorizeRegisteredServiceEvent",
      "type": "event"
    },
    {
      "anonymous": false,
      "inputs": [
        {
          "indexed": false,
          "name": "wallet",
          "type": "address"
        },
        {
          "indexed": false,
          "name": "service",
          "type": "address"
        },
        {
          "indexed": false,
          "name": "action",
          "type": "string"
        }
      ],
      "name": "UnauthorizeRegisteredServiceActionEvent",
      "type": "event"
    },
    {
      "anonymous": false,
      "inputs": [
        {
          "indexed": false,
          "name": "timeoutInSeconds",
          "type": "uint256"
        }
      ],
      "name": "ServiceActivationTimeoutEvent",
      "type": "event"
    },
    {
      "anonymous": false,
      "inputs": [
        {
          "indexed": false,
          "name": "service",
          "type": "address"
        }
      ],
      "name": "RegisterServiceEvent",
      "type": "event"
    },
    {
      "anonymous": false,
      "inputs": [
        {
          "indexed": false,
          "name": "service",
          "type": "address"
        },
        {
          "indexed": false,
          "name": "timeout",
          "type": "uint256"
        }
      ],
      "name": "RegisterServiceDeferredEvent",
      "type": "event"
    },
    {
      "anonymous": false,
      "inputs": [
        {
          "indexed": false,
          "name": "service",
          "type": "address"
        }
      ],
      "name": "DeregisterServiceEvent",
      "type": "event"
    },
    {
      "anonymous": false,
      "inputs": [
        {
          "indexed": false,
          "name": "service",
          "type": "address"
        },
        {
          "indexed": false,
          "name": "action",
          "type": "string"
        }
      ],
      "name": "EnableServiceActionEvent",
      "type": "event"
    },
    {
      "anonymous": false,
      "inputs": [
        {
          "indexed": false,
          "name": "service",
          "type": "address"
        },
        {
          "indexed": false,
          "name": "action",
          "type": "string"
        }
      ],
      "name": "DisableServiceActionEvent",
      "type": "event"
    },
    {
      "anonymous": false,
      "inputs": [
        {
          "indexed": false,
          "name": "beneficiary",
          "type": "address"
        }
      ],
      "name": "RegisterBeneficiaryEvent",
      "type": "event"
    },
    {
      "anonymous": false,
      "inputs": [
        {
          "indexed": false,
          "name": "beneficiary",
          "type": "address"
        }
      ],
      "name": "DeregisterBeneficiaryEvent",
      "type": "event"
    },
    {
      "anonymous": false,
      "inputs": [
        {
          "indexed": false,
          "name": "oldDeployer",
          "type": "address"
        },
        {
          "indexed": false,
          "name": "newDeployer",
          "type": "address"
        }
      ],
      "name": "SetDeployerEvent",
      "type": "event"
    },
    {
      "anonymous": false,
      "inputs": [
        {
          "indexed": false,
          "name": "oldOperator",
          "type": "address"
        },
        {
          "indexed": false,
          "name": "newOperator",
          "type": "address"
        }
      ],
      "name": "SetOperatorEvent",
      "type": "event"
    },
    {
      "anonymous": false,
      "inputs": [
        {
          "indexed": false,
          "name": "wallet",
          "type": "address"
        }
      ],
      "name": "SelfDestructionDisabledEvent",
      "type": "event"
    },
    {
      "anonymous": false,
      "inputs": [
        {
          "indexed": false,
          "name": "wallet",
          "type": "address"
        }
      ],
      "name": "TriggerSelfDestructionEvent",
      "type": "event"
    },
    {
      "constant": false,
      "inputs": [
        {
          "name": "newTokenHolderRevenueFund",
          "type": "address"
        }
      ],
      "name": "setTokenHolderRevenueFund",
      "outputs": [],
      "payable": false,
      "stateMutability": "nonpayable",
      "type": "function"
    },
    {
      "constant": false,
      "inputs": [
        {
          "name": "wallet",
          "type": "address"
        },
        {
          "name": "balanceType",
          "type": "string"
        }
      ],
      "name": "receiveEthersTo",
      "outputs": [],
      "payable": true,
      "stateMutability": "payable",
      "type": "function"
    },
    {
      "constant": false,
      "inputs": [
        {
          "name": "balanceType",
          "type": "string"
        },
        {
          "name": "value",
          "type": "int256"
        },
        {
          "name": "currencyCt",
          "type": "address"
        },
        {
          "name": "currencyId",
          "type": "uint256"
        },
        {
          "name": "standard",
          "type": "string"
        }
      ],
      "name": "receiveTokens",
      "outputs": [],
      "payable": false,
      "stateMutability": "nonpayable",
      "type": "function"
    },
    {
      "constant": false,
      "inputs": [
        {
          "name": "wallet",
          "type": "address"
        },
        {
          "name": "balanceType",
          "type": "string"
        },
        {
          "name": "value",
          "type": "int256"
        },
        {
          "name": "currencyCt",
          "type": "address"
        },
        {
          "name": "currencyId",
          "type": "uint256"
        },
        {
          "name": "standard",
          "type": "string"
        }
      ],
      "name": "receiveTokensTo",
      "outputs": [],
      "payable": false,
      "stateMutability": "nonpayable",
      "type": "function"
    },
    {
      "constant": false,
      "inputs": [
        {
          "name": "wallet",
          "type": "address"
        },
        {
          "name": "value",
          "type": "int256"
        },
        {
          "name": "currencyCt",
          "type": "address"
        },
        {
          "name": "currencyId",
          "type": "uint256"
        },
        {
          "name": "standard",
          "type": "string"
        },
        {
          "name": "blockNumber",
          "type": "uint256"
        }
      ],
      "name": "updateSettledBalance",
      "outputs": [],
      "payable": false,
      "stateMutability": "nonpayable",
      "type": "function"
    },
    {
      "constant": false,
      "inputs": [
        {
          "name": "wallet",
          "type": "address"
        },
        {
          "name": "value",
          "type": "int256"
        },
        {
          "name": "currencyCt",
          "type": "address"
        },
        {
          "name": "currencyId",
          "type": "uint256"
        },
        {
          "name": "standard",
          "type": "string"
        }
      ],
      "name": "stage",
      "outputs": [],
      "payable": false,
      "stateMutability": "nonpayable",
      "type": "function"
    },
    {
      "constant": false,
      "inputs": [
        {
          "name": "value",
          "type": "int256"
        },
        {
          "name": "currencyCt",
          "type": "address"
        },
        {
          "name": "currencyId",
          "type": "uint256"
        },
        {
          "name": "standard",
          "type": "string"
        }
      ],
      "name": "unstage",
      "outputs": [],
      "payable": false,
      "stateMutability": "nonpayable",
      "type": "function"
    },
    {
      "constant": false,
      "inputs": [
        {
          "name": "wallet",
          "type": "address"
        },
        {
          "name": "beneficiary",
          "type": "address"
        },
        {
          "name": "value",
          "type": "int256"
        },
        {
          "name": "currencyCt",
          "type": "address"
        },
        {
          "name": "currencyId",
          "type": "uint256"
        },
        {
          "name": "standard",
          "type": "string"
        }
      ],
      "name": "stageToBeneficiary",
      "outputs": [],
      "payable": false,
      "stateMutability": "nonpayable",
      "type": "function"
    },
    {
      "constant": false,
      "inputs": [
        {
          "name": "wallet",
          "type": "address"
        },
        {
          "name": "beneficiary",
          "type": "address"
        },
        {
          "name": "value",
          "type": "int256"
        },
        {
          "name": "currencyCt",
          "type": "address"
        },
        {
          "name": "currencyId",
          "type": "uint256"
        },
        {
          "name": "standard",
          "type": "string"
        }
      ],
      "name": "transferToBeneficiary",
      "outputs": [],
      "payable": false,
      "stateMutability": "nonpayable",
      "type": "function"
    },
    {
      "constant": false,
      "inputs": [
        {
          "name": "wallet",
          "type": "address"
        },
        {
          "name": "currencyCt",
          "type": "address"
        },
        {
          "name": "currencyId",
          "type": "uint256"
        },
        {
          "name": "standard",
          "type": "string"
        }
      ],
      "name": "seizeBalances",
      "outputs": [],
      "payable": false,
      "stateMutability": "nonpayable",
      "type": "function"
    },
    {
      "constant": false,
      "inputs": [
        {
          "name": "value",
          "type": "int256"
        },
        {
          "name": "currencyCt",
          "type": "address"
        },
        {
          "name": "currencyId",
          "type": "uint256"
        },
        {
          "name": "standard",
          "type": "string"
        }
      ],
      "name": "withdraw",
      "outputs": [],
      "payable": false,
      "stateMutability": "nonpayable",
      "type": "function"
    },
    {
      "constant": true,
      "inputs": [
        {
          "name": "wallet",
          "type": "address"
        }
      ],
      "name": "isSeizedWallet",
      "outputs": [
        {
          "name": "",
          "type": "bool"
        }
      ],
      "payable": false,
      "stateMutability": "view",
      "type": "function"
    },
    {
      "constant": true,
      "inputs": [],
      "name": "seizedWalletsCount",
      "outputs": [
        {
          "name": "",
          "type": "uint256"
        }
      ],
      "payable": false,
      "stateMutability": "view",
      "type": "function"
    },
    {
      "constant": false,
      "inputs": [
        {
          "name": "claimer",
          "type": "address"
        },
        {
          "name": "balanceType",
          "type": "string"
        },
        {
          "name": "currencyCt",
          "type": "address"
        },
        {
          "name": "currencyId",
          "type": "uint256"
        },
        {
          "name": "standard",
          "type": "string"
        }
      ],
      "name": "claimRevenue",
      "outputs": [],
      "payable": false,
      "stateMutability": "nonpayable",
      "type": "function"
    }
  ],
  "bytecode": "0x60806040523480156200001157600080fd5b5060405160208062005ea58339810180604052620000339190810190620000bd565b8080600160a060020a03811615156200004b57600080fd5b600160a060020a0381163014156200006257600080fd5b506000805461010060a860020a031916610100600160a060020a039390931692830217905560018054600160a060020a03191690911790555062093a80600555620000f2565b6000620000b68251620000e6565b9392505050565b600060208284031215620000d057600080fd5b6000620000de8484620000a8565b949350505050565b600160a060020a031690565b615da380620001026000396000f3006080604052600436106103085763ffffffff60e060020a60003504166301f3241f81146103a257806304fd3130146103c25780630c5d24fa146103f85780630f200f9b14610418578063158a03421461043857806317ba3f9014610458578063191390921461047857806319507d8a1461049a57806319e56365146104ba5780631caf1d6d146104da5780631da826be146104fa5780632145cd201461051a578063240625d81461053c5780632738a112146105515780632b5672e3146105665780632b91e0a9146105865780632f013a00146105a65780633b159b37146105bb5780633b58c501146105db5780633b7bea6c146105fb5780633e59b706146106105780634476d23b14610625578063449fb346146106475780634ddf63f61461066757806350b08c0214610687578063570ca735146106a757806357925b53146106bc578063598b75ad146106dc5780635dc60def146106fc5780635df1b0a3146107115780635f2896511461073157806362ac76211461075157806362f1e6b31461077157806364ba47521461079157806367299f36146107b1578063677ec9d6146107c657806370327ea1146107e65780637953d64d146107fb5780637dac26c71461081b5780637e15dd5c146108305780637f584f511461085057806384cfb40914610865578063892860b2146108855780638995d42f146108a557806389f90a80146108ba5780638a2f30cc146108cf5780638e8cef12146108ef578063962147351461090f578063a3e5175d1461092f578063a4cf2f1c1461094f578063a7654a1f14610964578063ad468df914610972578063af30b31214610992578063b3ab15fb146109a7578063b52d470a146109c7578063b9bb9cd9146109dc578063c45a9a7f146109fc578063cc0dad4a14610a1c578063cdd8b2b214610a3c578063d25a18e514610a5c578063d3b41bd214610a7c578063d5f3948814610a9c578063df9774d814610ab1578063e167d4f614610ad1578063e3d3e9fc14610ae6578063e8ae41e314610b06578063f8297dbe14610b1b578063fdd9ec7d14610b3b575b6103a033600e60009054906101000a9004600160a060020a0316600160a060020a0316635106c2036040518163ffffffff1660e060020a028152600401600060405180830381600087803b15801561035f57600080fd5b505af1158015610373573d6000803e3d6000fd5b505050506040513d6000823e601f3d908101601f1916820160405261039b9190810190615656565b610b5b565b005b3480156103ae57600080fd5b506103a06103bd3660046150c2565b610c2d565b3480156103ce57600080fd5b506103e26103dd3660046150c2565b610d27565b6040516103ef9190615bb3565b60405180910390f35b34801561040457600080fd5b506103e2610413366004615424565b610d43565b34801561042457600080fd5b506103a0610433366004615604565b610ddd565b34801561044457600080fd5b506103a0610453366004615222565b61105b565b34801561046457600080fd5b506103e26104733660046150c2565b6110c7565b34801561048457600080fd5b5061048d6110ff565b6040516103ef9190615bcf565b3480156104a657600080fd5b506103e26104b53660046150c2565b61110e565b3480156104c657600080fd5b506103a06104d5366004615604565b611123565b3480156104e657600080fd5b506103e26104f53660046150c2565b6112f2565b34801561050657600080fd5b506103a06105153660046155c8565b611488565b34801561052657600080fd5b5061052f611527565b6040516103ef9190615bc1565b34801561054857600080fd5b506103e261152e565b34801561055d57600080fd5b506103a061153e565b34801561057257600080fd5b506103a06105813660046153dd565b6115a4565b34801561059257600080fd5b506103e26105a13660046150c2565b6116d4565b3480156105b257600080fd5b506103e26116f2565b3480156105c757600080fd5b506103a06105d636600461546d565b6116fb565b3480156105e757600080fd5b506103a06105f63660046153dd565b6117b4565b34801561060757600080fd5b5061052f611896565b34801561061c57600080fd5b506103e261189c565b34801561063157600080fd5b5061063a6118ac565b6040516103ef9190615754565b34801561065357600080fd5b506103a0610662366004615167565b6118c0565b34801561067357600080fd5b506103a06106823660046150c2565b61197b565b34801561069357600080fd5b506103a06106a23660046150c2565b611a5c565b3480156106b357600080fd5b5061063a611b12565b3480156106c857600080fd5b506103e26106d73660046150e0565b611b21565b3480156106e857600080fd5b506103a06106f73660046155c8565b611b74565b34801561070857600080fd5b506103a0611c23565b34801561071d57600080fd5b506103e261072c3660046153dd565b611c77565b34801561073d57600080fd5b506103a061074c3660046154b9565b611cc8565b34801561075d57600080fd5b506103a061076c3660046153dd565b611efc565b34801561077d57600080fd5b506103e261078c3660046150e0565b6120d1565b34801561079d57600080fd5b506103a06107ac36600461534c565b6120f1565b3480156107bd57600080fd5b5061052f6125d9565b3480156107d257600080fd5b506103e26107e13660046151df565b6125df565b3480156107f257600080fd5b506103a0612605565b34801561080757600080fd5b506103e26108163660046150e0565b612668565b34801561082757600080fd5b5061048d612688565b34801561083c57600080fd5b506103a061084b3660046156c4565b612697565b34801561085c57600080fd5b506103e26126ea565b34801561087157600080fd5b506103e26108803660046151df565b6126f3565b34801561089157600080fd5b506103a06108a03660046155c8565b612719565b3480156108b157600080fd5b506103a06127c8565b3480156108c657600080fd5b506103e261281c565b3480156108db57600080fd5b506103a06108ea3660046153dd565b61282c565b3480156108fb57600080fd5b506103a061090a3660046150c2565b612961565b34801561091b57600080fd5b506103a061092a3660046150c2565b6129df565b34801561093b57600080fd5b506103a061094a3660046150c2565b612a9d565b34801561095b57600080fd5b5061048d612c63565b6103a061039b3660046153dd565b34801561097e57600080fd5b506103a061098d3660046152c0565b612c72565b34801561099e57600080fd5b5061048d612ee5565b3480156109b357600080fd5b506103a06109c23660046150c2565b612ef4565b3480156109d357600080fd5b506103a0612f9e565b3480156109e857600080fd5b5061063a6109f73660046156c4565b612ff2565b348015610a0857600080fd5b506103a0610a1736600461568a565b61301a565b348015610a2857600080fd5b506103e2610a373660046150c2565b613028565b348015610a4857600080fd5b506103e2610a573660046150c2565b613046565b348015610a6857600080fd5b506103a0610a773660046155c8565b613135565b348015610a8857600080fd5b506103a0610a973660046155c8565b6131e4565b348015610aa857600080fd5b5061063a61327c565b348015610abd57600080fd5b506103e2610acc3660046150c2565b613290565b348015610add57600080fd5b506103a06132a5565b348015610af257600080fd5b5061052f610b0136600461511a565b6132c7565b348015610b1257600080fd5b5061048d613304565b348015610b2757600080fd5b506103a0610b36366004615222565b613313565b348015610b4757600080fd5b506103a0610b563660046150c2565b6133ea565b60405160e060020a63802d10af02815260009073__SafeMathIntLib________________________9063802d10af90610b98903490600401615bc1565b60206040518083038186803b158015610bb057600080fd5b505af4158015610bc4573d6000803e3d6000fd5b505050506040513d601f19601f82011682018060405250610be8919081019061558c565b9050610bfa8383836000806001613463565b600080516020615d4a833981519152838383600080604051610c20959493929190615a96565b60405180910390a1505050565b80600160a060020a0381161515610c4357600080fd5b600160a060020a038116301415610c5957600080fd5b33600160a060020a0383161415610c6f57600080fd5b600160a060020a03821660009081526004602052604090205460ff161515610c9657600080fd5b600160a060020a03821660009081526007602052604090205460ff1615610cbc57600080fd5b600160a060020a038216600090815260096020908152604080832033808552925291829020805460ff1916600117905590517f7406a64e4e8c04b2a11d4cb484eb07cd5762012eafc449900b8d92de008ff27f91610d1b918590615762565b60405180910390a15050565b600160a060020a03166000908152600360205260408120541190565b600080610d4f84613964565b9050610d5b8585611c77565b8015610dd45750610d6c8584613a2e565b80610d9c5750600160a060020a0380861660009081526009602090815260408083209387168352929052205460ff165b80610dd45750600160a060020a038086166000908152600a6020908152604080832085845282528083209387168352929052205460ff165b95945050505050565b60405160e160020a6351750e5302815260009073__SafeMathIntLib________________________9063a2ea1ca690610e1a908890600401615bc1565b60206040518083038186803b158015610e3257600080fd5b505af4158015610e46573d6000803e3d6000fd5b505050506040513d601f19601f82011682018060405250610e6a919081019061556e565b1515610e7557600080fd5b60105460405160e160020a6315c3cbc1028152600160a060020a0390911690632b87978290610eac9033908890889060040161587b565b602060405180830381600087803b158015610ec657600080fd5b505af1158015610eda573d6000803e3d6000fd5b505050506040513d601f19601f82011682018060405250610efe919081019061556e565b15610f0857600080fd5b610f13848484613a85565b9050610f223386868685613b21565b600f546040805160e060020a63bde440cb0281529051929750600160a060020a0390911691639cab96d6913391849163bde440cb9160048083019260209291908290030181600087803b158015610f7857600080fd5b505af1158015610f8c573d6000803e3d6000fd5b505050506040513d601f19601f82011682018060405250610fb0919081019061558c565b8888886040518663ffffffff1660e060020a028152600401610fd69594939291906158f3565b600060405180830381600087803b158015610ff057600080fd5b505af1158015611004573d6000803e3d6000fd5b505050506110153386868686613eca565b7f8e0adde15ffb742f47e7888277a26cea416253fcb63186dc4949fe493e92b77c338686868660405161104c959493929190615a00565b60405180910390a15050505050565b856110663382611b21565b151561107157600080fd5b61107f87878787878761401e565b7f70a0e35287634a0b4f96e261e0b71d0ae930837dabd35de9dfdad491a4eb6d3787878787876040516110b6959493929190615985565b60405180910390a150505050505050565b60006110d2826116d4565b80156110f95750600160a060020a0382166000908152600460205260409020600101544210155b92915050565b600e54600160a060020a031681565b60076020526000908152604090205460ff1681565b60405160e160020a6351750e5302815260009073__SafeMathIntLib________________________9063a2ea1ca690611160908890600401615bc1565b60206040518083038186803b15801561117857600080fd5b505af415801561118c573d6000803e3d6000fd5b505050506040513d601f19601f820116820180604052506111b0919081019061556e565b15156111bb57600080fd5b6111c6848484613a85565b90506111d53386868685613b21565b600e546040805160e460020a630ded11310281529051929750600160a060020a039091169163b95ae1cd913391849163ded113109160048083019260209291908290030181600087803b15801561122b57600080fd5b505af115801561123f573d6000803e3d6000fd5b505050506040513d601f19601f82011682018060405250611263919081019061558c565b888888876040518763ffffffff1660e060020a02815260040161128b9695949392919061590e565b600060405180830381600087803b1580156112a557600080fd5b505af11580156112b9573d6000803e3d6000fd5b505050507f013970fdfcc3b9ba3657604311c39270a2b090a94528cfdfd09abaddc6e8fb523386868660405161104c94939291906158a3565b6000806112fd6142ac565b151561130857600080fd5b82600160a060020a038116151561131e57600080fd5b600160a060020a03841660009081526003602052604090205415156113465760009250611481565b600160a060020a0384166000908152600360205260409020546002546000199182019350018210156114155760028054600019810190811061138457fe5b60009182526020909120015460028054600160a060020a0390921691849081106113aa57fe5b9060005260206000200160006101000a815481600160a060020a030219169083600160a060020a0316021790555081600101600360006002858154811015156113ef57fe5b6000918252602080832090910154600160a060020a031683528201929092526040019020555b6002805490611428906000198301614ead565b50600160a060020a03841660009081526003602052604080822091909155517f33f51cf787669db5b5aff6ba597298fd010748de93aaadef29aae876cef4a8c390611474908690615754565b60405180910390a1600192505b5050919050565b60006114926142ac565b151561149d57600080fd5b81600160a060020a03811615156114b357600080fd5b6013548390600160a060020a0390811690821681146115205760138054600160a060020a03878116600160a060020a0319831617909255604051911694507f059245e3752d2ad85a00b28db68f4b944c8269ef3c6bd378055bea9cd1fd07409061104c9086908890615bdd565b5050505050565b6011545b90565b60105460a060020a900460ff1681565b336115476118ac565b600160a060020a03161461155a57600080fd5b60005460ff161561156a57600080fd5b7f787a5d936e74f4b564b9153575886059829c78cd9927b1be5e0d976b317ef736336040516115999190615754565b60405180910390a133ff5b60006115ae6142ac565b15156115b957600080fd5b82600160a060020a03811615156115cf57600080fd5b600160a060020a0381163014156115e557600080fd5b600160a060020a03841660009081526004602052604090205460ff16151561160c57600080fd5b61161583613964565b600160a060020a038516600090815260046020908152604080832084845260020190915290205490925060ff161561164c57600080fd5b600160a060020a0384166000908152600460208181526040808420868552600281018352818520805460ff19166001908117909155938352600301805493840181558452922001839055517fec1b982d69bfc1a6fd8becf191d9a633486c822d3bdedd52303ca81fa6357501906116c69086908690615a47565b60405180910390a150505050565b600160a060020a031660009081526004602052604090205460ff1690565b60005460ff1681565b6117036142c2565b151561170e57600080fd5b60135460405160e060020a63ce256213028152600160a060020a039091169063ce2562139061174b90309089908990899089908990600401615bf8565b600060405180830381600087803b15801561176557600080fd5b505af1158015611779573d6000803e3d6000fd5b505050507fe413728068242467b29b57e8f9c4da8b4a4eb0ea41abe0cadddba823c043e088858585858560405161104c959493929190615a67565b60006117be6142ac565b15156117c957600080fd5b82600160a060020a03811615156117df57600080fd5b600160a060020a0381163014156117f557600080fd5b6117fe83613964565b600160a060020a038516600090815260046020908152604080832084845260020190915290205490925060ff16151561183657600080fd5b600160a060020a038416600090815260046020908152604080832085845260020190915290819020805460ff19169055517f92f4af6130f47c92f3899e06611c8c6ef191fb81207ad2675d134af619d2fe7d906116c69086908690615a47565b60055481565b600e5460a060020a900460ff1681565b6000546101009004600160a060020a031690565b6118cb838383613a85565b156118e1576118dc843385856142d3565b6118ed565b6118ed84338585614515565b600160a060020a03841660009081526012602052604090205460ff16151561197557600160a060020a0384166000818152601260205260408120805460ff191660019081179091556011805491820181559091527f31ecc21a745e3968a04e9570e4425bc18fa8019c68028196b546d1669c200c68018054600160a060020a03191690911790555b50505050565b6119836142ac565b151561198e57600080fd5b80600160a060020a03811615156119a457600080fd5b600160a060020a0381163014156119ba57600080fd5b60065460ff16156119ca57600080fd5b33600160a060020a03831614156119e057600080fd5b600160a060020a03821660009081526004602052604090205460ff161515611a0757600080fd5b600160a060020a03821660009081526007602052604090819020805460ff19166001179055517f81c5f2034d05958dd641755044582c0aba29a94070f0a2641bb554325328bf1e90610d1b9033908590615762565b611a646142ac565b1515611a6f57600080fd5b80600160a060020a0381161515611a8557600080fd5b600160a060020a038116301415611a9b57600080fd5b600160a060020a03821660009081526004602052604090205460ff161515611ac257600080fd5b600160a060020a03821660009081526004602052604090819020805460ff19169055517f777645c5437dfbf962f57a281ead25f3d513f2f8e938685bbfc1738e81c9880e90610d1b908490615754565b600154600160a060020a031681565b6000611b2c836110c7565b8015611b6d5750611b3d8383613a2e565b80611b6d5750600160a060020a0380841660009081526009602090815260408083209386168352929052205460ff165b9392505050565b6000611b7e6142ac565b1515611b8957600080fd5b81600160a060020a0381161515611b9f57600080fd5b600e548390600160a060020a03908116908216811461152057600e5460a060020a900460ff1615611bcf57600080fd5b600e8054600160a060020a03878116600160a060020a0319831617909255604051911694507fb2a91d3a71b0c5bc7c083153b3474378e489506ba98bd4ddb1b9056fdc594bb59061104c9086908890615bdd565b611c2b6142ac565b1515611c3657600080fd5b6010805460a060020a60ff02191660a060020a1790556040517f56ec8900b9c4bf84f4b715a53068ca06961dd49084c07b481931e2c2045346e690600090a1565b600080611c8383613964565b9050611c8e846110c7565b8015611cc05750600160a060020a038416600090815260046020908152604080832084845260020190915290205460ff165b949350505050565b60405160e160020a6351750e5302815260009073__SafeMathIntLib________________________9063a2ea1ca690611d05908890600401615bc1565b60206040518083038186803b158015611d1d57600080fd5b505af4158015611d31573d6000803e3d6000fd5b505050506040513d601f19601f82011682018060405250611d55919081019061556e565b1515611d6057600080fd5b611d6a8483614859565b905080600160a060020a031681600160a060020a031663ad502f576040518163ffffffff1660e060020a028152600401602060405180830381600087803b158015611db457600080fd5b505af1158015611dc8573d6000803e3d6000fd5b505050506040513d601f19601f82011682018060405250611dec91908101906155aa565b6040805160e060020a9283900463ffffffff8116909302815233600482015230602482015260448101899052600160a060020a038816606482015260848101879052905160a48083019260009291908290030181865af4925050501515611e5257600080fd5b611ed5878787878786600160a060020a031663a89c2e5a6040518163ffffffff1660e060020a028152600401602060405180830381600087803b158015611e9857600080fd5b505af1158015611eac573d6000803e3d6000fd5b505050506040513d601f19601f82011682018060405250611ed0919081019061556e565b613463565b600080516020615d4a8339815191528787878787876040516110b696959493929190615af0565b600082600160a060020a0381161515611f1457600080fd5b600160a060020a038116301415611f2a57600080fd5b33600160a060020a0385161415611f4057600080fd5b611f4983613964565b600160a060020a03851660009081526004602052604090205490925060ff168015611f9a5750600160a060020a038416600090815260046020908152604080832085845260020190915290205460ff165b1515611fa557600080fd5b600160a060020a03841660009081526007602052604090205460ff1615611fcb57600080fd5b600160a060020a038416600081815260096020908152604080832033808552908352818420805460ff19908116909155858552600a84528285208886528452828520828652845282852080549091166001179055938352600b82528083208684528252808320938352929052205460ff16151561209e57600160a060020a0384166000818152600b60209081526040808320868452825280832033808552908352818420805460ff19166001908117909155948452600c8352818420908452825282208054938401815582529020018290555b7fc007803323f3ca89cb3f8af1a12f354dc108e9dd4988c312b3f7a878914987ce3385856040516116c69392919061584e565b600860209081526000928352604080842090915290825290205460ff1681565b6000866120fe3382611b21565b151561210957600080fd5b87600160a060020a038116151561211f57600080fd5b60405160e060020a636b84d93102815273__SafeMathIntLib________________________90636b84d93190612159908b90600401615bc1565b60206040518083038186803b15801561217157600080fd5b505af4158015612185573d6000803e3d6000fd5b505050506040513d601f19601f820116820180604052506121a9919081019061556e565b15156121b457600080fd5b6121bf878787613a85565b156123c457600e546040805160e460020a630ded11310281529051600160a060020a039092169163a246138c918c91849163ded113109160048083019260209291908290030181600087803b15801561221757600080fd5b505af115801561222b573d6000803e3d6000fd5b505050506040513d601f19601f8201168201806040525061224f919081019061558c565b8a8a896040518663ffffffff1660e060020a0281526004016122759594939291906158be565b6040805180830381600087803b15801561228e57600080fd5b505af11580156122a2573d6000803e3d6000fd5b505050506040513d601f19601f820116820180604052506122c69190810190615626565b50600e546040805160e260020a631194bb1d0281529051929550600160a060020a039091169163d062ec1d918c918491634652ec749160048083019260209291908290030181600087803b15801561231d57600080fd5b505af1158015612331573d6000803e3d6000fd5b505050506040513d601f19601f82011682018060405250612355919081019061558c565b6123658c8863ffffffff6148e116565b8b8b60016040518763ffffffff1660e060020a02815260040161238d9695949392919061590e565b600060405180830381600087803b1580156123a757600080fd5b505af11580156123bb573d6000803e3d6000fd5b50505050612591565b600e546040805160e460020a630ded11310281529051600160a060020a0390921691637d7a23aa918c91849163ded113109160048083019260209291908290030181600087803b15801561241757600080fd5b505af115801561242b573d6000803e3d6000fd5b505050506040513d601f19601f8201168201806040525061244f919081019061558c565b8b8b8b60006040518763ffffffff1660e060020a0281526004016124789695949392919061590e565b600060405180830381600087803b15801561249257600080fd5b505af11580156124a6573d6000803e3d6000fd5b5050600e546040805160e260020a631194bb1d0281529051600160a060020a03909216935063b95ae1cd92508c918491634652ec749160048083019260209291908290030181600087803b1580156124fd57600080fd5b505af1158015612511573d6000803e3d6000fd5b505050506040513d601f19601f82011682018060405250612535919081019061558c565b8b8b8b60006040518763ffffffff1660e060020a02815260040161255e9695949392919061590e565b600060405180830381600087803b15801561257857600080fd5b505af115801561258c573d6000803e3d6000fd5b505050505b7f6ded3dfe9bc210e5b60b695bac6bd623844003b866c14264d44e91b8352a4fad898989896040516125c694939291906158a3565b60405180910390a1505050505050505050565b60025490565b600b60209081526000938452604080852082529284528284209052825290205460ff1681565b3361260e6118ac565b600160a060020a03161461262157600080fd5b6000805460ff191660011790556040517fd5a2a04a775c741c2ca0dc46ea7ce4835190e1aaf1ca018def0e82568ec336169061265e903390615754565b60405180910390a1565b600960209081526000928352604080842090915290825290205460ff1681565b601354600160a060020a031681565b61269f6142ac565b15156126aa57600080fd5b60058190556040517f4f1d324a1cbffc352fb64f1d73d95e4b200d92f99ef39bf2d7f5b41f946909d6906126df908390615bc1565b60405180910390a150565b60065460ff1681565b600a60209081526000938452604080852082529284528284209052825290205460ff1681565b60006127236142ac565b151561272e57600080fd5b81600160a060020a038116151561274457600080fd5b6010548390600160a060020a0390811690821681146115205760105460a060020a900460ff161561277457600080fd5b60108054600160a060020a03878116600160a060020a0319831617909255604051911694507fa44d361e26327b72a7ccbeae801b3c5cd7677ea4fa74168b289e273c46bfecfc9061104c9086908890615bdd565b6127d06142ac565b15156127db57600080fd5b600f805460a060020a60ff02191660a060020a1790556040517fd7d1b6dcaeec9afa87c8c53d9da393505dee41c9ace60ab22f3b23db19ac282c90600090a1565b600f5460a060020a900460ff1681565b600082600160a060020a038116151561284457600080fd5b600160a060020a03811630141561285a57600080fd5b33600160a060020a038516141561287057600080fd5b61287983613964565b600160a060020a03851660009081526004602052604090205490925060ff1680156128ca5750600160a060020a038416600090815260046020908152604080832085845260020190915290205460ff165b15156128d557600080fd5b600160a060020a03841660009081526007602052604090205460ff16156128fb57600080fd5b600160a060020a0384166000908152600a60209081526040808320858452825280832033808552925291829020805460ff1916905590517f6fa0cdb0b5c22004ccfcaee11eed450e0184dda8edd417ae2410f0a883fdb740916116c6918790879061584e565b6129696142ac565b151561297457600080fd5b80600160a060020a038116151561298a57600080fd5b600160a060020a0381163014156129a057600080fd5b6129ac8260055461491d565b7f7f3a8349917003ed377f6e9ae1608b92edd893903f8983bd274b1f8373dd3b1182600554604051610d1b929190615b98565b60006129e96142ac565b15156129f457600080fd5b81600160a060020a0381161515612a0a57600080fd5b600160a060020a038116301415612a2057600080fd5b600054600160a060020a038481166101009092041614612a985760008054600160a060020a0385811661010090810261010060a860020a0319841617909355604051929091041692507f977e5fa58e458501775e0008d275006294c5249e3c08d1d0e3a9f3acad14f6e490610c209084908690615762565b505050565b600081600160a060020a0381161515612ab557600080fd5b600160a060020a038116301415612acb57600080fd5b33600160a060020a0384161415612ae157600080fd5b600160a060020a03831660009081526004602052604090205460ff161515612b0857600080fd5b600160a060020a03831660009081526007602052604090205460ff1615612b5c57600160a060020a03831660009081526008602090815260408083203384529091529020805460ff19166001179055612c32565b600160a060020a03831660009081526009602090815260408083203384529091528120805460ff1916905591505b600160a060020a0383166000908152600c60209081526040808320338452909152902054821015612c3257600160a060020a0383166000908152600a60209081526040808320600c835281842033855290925282208054600193919086908110612bf057fe5b600091825260208083209190910154835282810193909352604091820181203382529092529020805460ff191691151591909117905560019190910190612b8a565b7fe25d4094f2181ddef4410dcc1539a7488abd881a90c56078314b9f70affc5f7e3384604051610c20929190615762565b600f54600160a060020a031681565b600085612c7f3382611b21565b1515612c8a57600080fd5b60405160e160020a6351750e5302815273__SafeMathIntLib________________________9063a2ea1ca690612cc4908990600401615bc1565b60206040518083038186803b158015612cdc57600080fd5b505af4158015612cf0573d6000803e3d6000fd5b505050506040513d601f19601f82011682018060405250612d14919081019061556e565b1515612d1f57600080fd5b612d2a858585613a85565b9150612dc887600e60009054906101000a9004600160a060020a0316600160a060020a031663e47da3526040518163ffffffff1660e060020a028152600401600060405180830381600087803b158015612d8357600080fd5b505af1158015612d97573d6000803e3d6000fd5b505050506040513d6000823e601f3d908101601f19168201604052612dbf9190810190615506565b8888888761496f565b600e546040805160e260020a631e758dcf0281529051929850600160a060020a039091169163b95ae1cd918a9184916379d6373c9160048083019260209291908290030181600087803b158015612e1e57600080fd5b505af1158015612e32573d6000803e3d6000fd5b505050506040513d601f19601f82011682018060405250612e56919081019061558c565b898989886040518763ffffffff1660e060020a028152600401612e7e9695949392919061590e565b600060405180830381600087803b158015612e9857600080fd5b505af1158015612eac573d6000803e3d6000fd5b505050507f573abd56f40c687bfaaabb8d68c68c84cc343b51fe661ff2080e2a6977b3c2b4878787876040516110b694939291906158a3565b600d54600160a060020a031681565b6000612efe6142c2565b1515612f0957600080fd5b81600160a060020a0381161515612f1f57600080fd5b600160a060020a038116301415612f3557600080fd5b600154600160a060020a03848116911614612a985760018054600160a060020a03858116600160a060020a0319831617909255604051911692507f9f611b789425d0d5b90b920f1b2852907dd865c80074a30b1629aaa041d1812c90610c209084908690615762565b612fa66142ac565b1515612fb157600080fd5b600e805460a060020a60ff02191660a060020a1790556040517f9c567b65fe8caab5ec7bc979a498a1322c1d4baf01a30727cbca137187560ea290600090a1565b601180548290811061300057fe5b600091825260209091200154600160a060020a0316905081565b611520338686868686611cc8565b600160a060020a031660009081526012602052604090205460ff1690565b60006130506142ac565b151561305b57600080fd5b81600160a060020a038116151561307157600080fd5b600160a060020a0383166000908152600360205260408120541115613099576000915061312f565b600280546001810182557f405787fa12a823e0f2b7631cc41b3ba8828b3321ca811111fa75cd3aa3bb5ace018054600160a060020a031916600160a060020a03861690811790915590546000918252600360205260409182902055517fdd62ff6d9c23793871e7d4796bde6c5dfb2bf8bcbd4186411cee3eb9f618952190613122908590615754565b60405180910390a1600191505b50919050565b600061313f6142ac565b151561314a57600080fd5b81600160a060020a038116151561316057600080fd5b600f548390600160a060020a03908116908216811461152057600f5460a060020a900460ff161561319057600080fd5b600f8054600160a060020a03878116600160a060020a0319831617909255604051911694507fa935cd13e8b6831b708081e1b4745e4a9574dc3aae730671c18d113a5497c90b9061104c9086908890615bdd565b60006131ee6142ac565b15156131f957600080fd5b81600160a060020a038116151561320f57600080fd5b600d548390600160a060020a03908116908216811461152057600d8054600160a060020a03878116600160a060020a0319831617909255604051911694507fee9ef6d53e152e48b1ebc1c23943fb2b96e847465ed779a0e2121a388ea83d2f9061104c9086908890615bdd565b6000546101009004600160a060020a031681565b60126020526000908152604090205460ff1681565b6132ad6142ac565b15156132b857600080fd5b6006805460ff19166001179055565b600c602052826000526040600020602052816000526040600020818154811015156132ee57fe5b9060005260206000200160009250925050505481565b601054600160a060020a031681565b6000866133203382611b21565b151561332b57600080fd5b613336858585613a85565b915061338f88600e60009054906101000a9004600160a060020a0316600160a060020a031663e47da3526040518163ffffffff1660e060020a028152600401600060405180830381600087803b158015612d8357600080fd5b955061339f88888888888861401e565b7f4c50864967876f6fcf5151a5e907d94d9c7b3d7780ca1c7f576680a2126ba39b8888888888886040516133d8969594939291906159a0565b60405180910390a15050505050505050565b6133f26142ac565b15156133fd57600080fd5b80600160a060020a038116151561341357600080fd5b600160a060020a03811630141561342957600080fd5b61343482600061491d565b7fb619d545cb511bd5f02907a1eac4f4cb8dace7b1846852fb0bf5e553937481c182604051610d1b9190615754565b600085516000106134fe57600e60009054906101000a9004600160a060020a0316600160a060020a031663ded113106040518163ffffffff1660e060020a028152600401602060405180830381600087803b1580156134c157600080fd5b505af11580156134d5573d6000803e3d6000fd5b505050506040513d601f19601f820116820180604052506134f9919081019061558c565b6135c2565b856040516020018082805190602001908083835b602083106135315780518252601f199092019160209182019101613512565b6001836020036101000a0380198251168184511680821785525050505050509050019150506040516020818303038152906040526040518082805190602001908083835b602083106135945780518252601f199092019160209182019101613575565b6001836020036101000a03801982511681845116808217855250505050505090500191505060405180910390205b600e546040805160e260020a631e758dcf02815290519293508392600160a060020a03909216916379d6373c916004808201926020929091908290030181600087803b15801561361157600080fd5b505af1158015613625573d6000803e3d6000fd5b505050506040513d601f19601f82011682018060405250613649919081019061558c565b141561373957600e546040805160e260020a631e758dcf0281529051600160a060020a039092169163b95ae1cd918a9184916379d6373c9160048083019260209291908290030181600087803b1580156136a257600080fd5b505af11580156136b6573d6000803e3d6000fd5b505050506040513d601f19601f820116820180604052506136da919081019061558c565b888888886040518763ffffffff1660e060020a0281526004016137029695949392919061590e565b600060405180830381600087803b15801561371c57600080fd5b505af1158015613730573d6000803e3d6000fd5b5050505061395b565b600e546040805160e460020a630ded113102815290518392600160a060020a03169163ded113109160048083019260209291908290030181600087803b15801561378257600080fd5b505af1158015613796573d6000803e3d6000fd5b505050506040513d601f19601f820116820180604052506137ba919081019061558c565b141561395657600e546040805160e460020a630ded11310281529051600160a060020a039092169163b95ae1cd918a91849163ded113109160048083019260209291908290030181600087803b15801561381357600080fd5b505af1158015613827573d6000803e3d6000fd5b505050506040513d601f19601f8201168201806040525061384b919081019061558c565b888888886040518763ffffffff1660e060020a0281526004016138739695949392919061590e565b600060405180830381600087803b15801561388d57600080fd5b505af11580156138a1573d6000803e3d6000fd5b5050600f546040805160e060020a63313004a90281529051600160a060020a039092169350639cab96d692508a91849163313004a99160048083019260209291908290030181600087803b1580156138f857600080fd5b505af115801561390c573d6000803e3d6000fd5b505050506040513d601f19601f82011682018060405250613930919081019061558c565b8888886040518663ffffffff1660e060020a0281526004016137029594939291906158f3565b600080fd5b50505050505050565b6000816040516020018082805190602001908083835b602083106139995780518252601f19909201916020918201910161397a565b6001836020036101000a0380198251168184511680821785525050505050509050019150506040516020818303038152906040526040518082805190602001908083835b602083106139fc5780518252601f1990920191602091820191016139dd565b5181516020939093036101000a6000190180199091169216919091179052604051920182900390912095945050505050565b600160a060020a03821660009081526007602052604081205460ff16613a55576000611b6d565b50600160a060020a03918216600090815260086020908152604080832093909416825291909152205460ff161590565b6000600160a060020a038416158015613a9c575082155b80611cc05750613aac8483614859565b600160a060020a031663a89c2e5a6040518163ffffffff1660e060020a028152600401602060405180830381600087803b158015613ae957600080fd5b505af1158015613afd573d6000803e3d6000fd5b505050506040513d601f19601f82011682018060405250611cc0919081019061556e565b60008115613ccd57600e546040805160e260020a631e758dcf028152905173__SafeMathIntLib________________________9263755875b2928992600160a060020a03909216916371f4ec51918c9184916379d6373c9160048083019260209291908290030181600087803b158015613b9a57600080fd5b505af1158015613bae573d6000803e3d6000fd5b505050506040513d601f19601f82011682018060405250613bd2919081019061558c565b8a8a6040518563ffffffff1660e060020a028152600401613bf694939291906158a3565b602060405180830381600087803b158015613c1057600080fd5b505af1158015613c24573d6000803e3d6000fd5b505050506040513d601f19601f82011682018060405250613c48919081019061558c565b6040518363ffffffff1660e060020a028152600401613c68929190615c34565b60206040518083038186803b158015613c8057600080fd5b505af4158015613c94573d6000803e3d6000fd5b505050506040513d601f19601f82011682018060405250613cb8919081019061558c565b94506000851215613cc857600080fd5b613ddb565b600e546040805160e260020a631e758dcf0281529051600160a060020a0390921691635962480691899184916379d6373c9160048083019260209291908290030181600087803b158015613d2057600080fd5b505af1158015613d34573d6000803e3d6000fd5b505050506040513d601f19601f82011682018060405250613d58919081019061558c565b8888886040518663ffffffff1660e060020a028152600401613d7e9594939291906158f3565b602060405180830381600087803b158015613d9857600080fd5b505af1158015613dac573d6000803e3d6000fd5b505050506040513d601f19601f82011682018060405250613dd0919081019061556e565b1515613ddb57600080fd5b600e546040805160e260020a631e758dcf0281529051600160a060020a0390921691637d7a23aa91899184916379d6373c9160048083019260209291908290030181600087803b158015613e2e57600080fd5b505af1158015613e42573d6000803e3d6000fd5b505050506040513d601f19601f82011682018060405250613e66919081019061558c565b888888886040518763ffffffff1660e060020a028152600401613e8e9695949392919061590e565b600060405180830381600087803b158015613ea857600080fd5b505af1158015613ebc573d6000803e3d6000fd5b509698975050505050505050565b6000600160a060020a038416158015613ee1575082155b15613f2257604051600160a060020a0387169086156108fc029087906000818181858888f19350505050158015613f1c573d6000803e3d6000fd5b50614016565b613f2c8483614859565b905080600160a060020a031681600160a060020a0316637228941f6040518163ffffffff1660e060020a028152600401602060405180830381600087803b158015613f7657600080fd5b505af1158015613f8a573d6000803e3d6000fd5b505050506040513d601f19601f82011682018060405250613fae91908101906155aa565b6040805160e060020a9283900463ffffffff81169093028152306004820152600160a060020a038a81166024830152604482018a90528816606482015260848101879052905160a48083019260009291908290030181865af492505050151561401657600080fd5b505050505050565b60405160e160020a6351750e5302815260009073__SafeMathIntLib________________________9063a2ea1ca69061405b908890600401615bc1565b60206040518083038186803b15801561407357600080fd5b505af4158015614087573d6000803e3d6000fd5b505050506040513d601f19601f820116820180604052506140ab919081019061556e565b15156140b657600080fd5b6140bf86610d27565b15156140ca57600080fd5b600160a060020a0384161580156140df575082155b1561414c5760405160e060020a63a7654a1f028152600160a060020a0387169063a7654a1f908790614115908b90600401615b1f565b6000604051808303818588803b15801561412e57600080fd5b505af1158015614142573d6000803e3d6000fd5b505050505061395b565b6141568483614859565b905080600160a060020a031681600160a060020a0316631711a8946040518163ffffffff1660e060020a028152600401602060405180830381600087803b1580156141a057600080fd5b505af11580156141b4573d6000803e3d6000fd5b505050506040513d601f19601f820116820180604052506141d891908101906155aa565b6040805160e060020a9283900463ffffffff81169093028152600160a060020a038a81166004830152602482018a90528816604482015260648101879052905160848083019260009291908290030181865af492505050151561423a57600080fd5b60405160e060020a635f289651028152600160a060020a03871690635f28965190614271908a908990899089908990600401615b3e565b600060405180830381600087803b15801561428b57600080fd5b505af115801561429f573d6000803e3d6000fd5b5050505050505050505050565b6000546101009004600160a060020a0316331490565b600154600160a060020a0316331490565b60105460405160e060020a630d044085028152600091600160a060020a031690630d0440859061430d90889088908890889060040161577d565b602060405180830381600087803b15801561432757600080fd5b505af115801561433b573d6000803e3d6000fd5b505050506040513d601f19601f8201168201806040525061435f919081019061558c565b90506000811361436e57600080fd5b61440985600e60009054906101000a9004600160a060020a0316600160a060020a031663ec3aa67e6040518163ffffffff1660e060020a028152600401600060405180830381600087803b1580156143c557600080fd5b505af11580156143d9573d6000803e3d6000fd5b505050506040513d6000823e601f3d908101601f191682016040526144019190810190615506565b8386866149a2565b50600e546040805160e260020a631e758dcf0281529051600160a060020a039092169163b95ae1cd91879184916379d6373c9160048083019260209291908290030181600087803b15801561445d57600080fd5b505af1158015614471573d6000803e3d6000fd5b505050506040513d601f19601f82011682018060405250614495919081019061558c565b84878760016040518763ffffffff1660e060020a0281526004016144be9695949392919061590e565b600060405180830381600087803b1580156144d857600080fd5b505af11580156144ec573d6000803e3d6000fd5b50505050600080516020615d2a833981519152858583868660405161104c95949392919061580c565b60105460405160e060020a639f45b2ab0281526000916060918391600160a060020a031690639f45b2ab90614554908a908a908a908a9060040161577d565b602060405180830381600087803b15801561456e57600080fd5b505af1158015614582573d6000803e3d6000fd5b505050506040513d601f19601f820116820180604052506145a6919081019061558c565b9250600083116145b557600080fd5b60105460405160e160020a6374b72475028152600160a060020a039091169063e96e48ea906145f7908a908a908a908a906000906000198c01906004016157b2565b600060405180830381600087803b15801561461157600080fd5b505af1158015614625573d6000803e3d6000fd5b505050506040513d6000823e601f3d908101601f1916820160405261464d919081019061553a565b9150600090505b815181101561395b5761470f87600e60009054906101000a9004600160a060020a0316600160a060020a031663ec3aa67e6040518163ffffffff1660e060020a028152600401600060405180830381600087803b1580156146b457600080fd5b505af11580156146c8573d6000803e3d6000fd5b505050506040513d6000823e601f3d908101601f191682016040526146f09190810190615506565b84848151811015156146fe57fe5b906020019060200201518888614d1d565b50600e546040805160e260020a631e758dcf0281529051600160a060020a039092169163b95ae1cd91899184916379d6373c9160048083019260209291908290030181600087803b15801561476357600080fd5b505af1158015614777573d6000803e3d6000fd5b505050506040513d601f19601f8201168201806040525061479b919081019061558c565b85858151811015156147a957fe5b90602001906020020151898960006040518763ffffffff1660e060020a0281526004016147db9695949392919061590e565b600060405180830381600087803b1580156147f557600080fd5b505af1158015614809573d6000803e3d6000fd5b50505050600080516020615d2a8339815191528787848481518110151561482c57fe5b90602001906020020151888860405161484995949392919061580c565b60405180910390a1600101614654565b600d5460405160e460020a630c8a483b028152600091600160a060020a03169063c8a483b09061488f9086908690600401615a47565b602060405180830381600087803b1580156148a957600080fd5b505af11580156148bd573d6000803e3d6000fd5b505050506040513d601f19601f82011682018060405250611b6d91908101906155e6565b60008082121580156148f557508282840313155b8061490c575060008212801561490c575082828403135b151561491757600080fd5b50900390565b600160a060020a03821660009081526004602052604090205460ff16151561496b57600160a060020a0382166000908152600460205260409020805460ff1916600190811782554283019101555b5050565b6000811561498b5761498487878787876149a2565b9050614998565b6149848787878787614d1d565b9695505050505050565b600080808080878113156149b557600080fd5b60009250600093505b8851841015614a8857600e548951614a7b91600160a060020a0316906371f4ec51908d908d90899081106149ee57fe5b906020019060200201518b8b6040518563ffffffff1660e060020a028152600401614a1c94939291906158a3565b602060405180830381600087803b158015614a3657600080fd5b505af1158015614a4a573d6000803e3d6000fd5b505050506040513d601f19601f82011682018060405250614a6e919081019061558c565b849063ffffffff614e7816565b60019094019392506149be565b60405160e160020a633aac3ad902815273__SafeMathIntLib________________________9063755875b290614ac4908b908790600401615c34565b60206040518083038186803b158015614adc57600080fd5b505af4158015614af0573d6000803e3d6000fd5b505050506040513d601f19601f82011682018060405250614b14919081019061558c565b9750879150600093505b8851841015614d0f57600e548951600160a060020a03909116906371f4ec51908c908c9088908110614b4c57fe5b906020019060200201518a8a6040518563ffffffff1660e060020a028152600401614b7a94939291906158a3565b602060405180830381600087803b158015614b9457600080fd5b505af1158015614ba8573d6000803e3d6000fd5b505050506040513d601f19601f82011682018060405250614bcc919081019061558c565b9050818112614c6457600e548951600160a060020a0390911690637d7a23aa908c908c9088908110614bfa57fe5b90602001906020020151858b8b60016040518763ffffffff1660e060020a028152600401614c2d9695949392919061590e565b600060405180830381600087803b158015614c4757600080fd5b505af1158015614c5b573d6000803e3d6000fd5b50505050614d0f565b600e548951600160a060020a039091169063d062ec1d908c908c9088908110614c8957fe5b9060200190602002015160008b8b60016040518763ffffffff1660e060020a028152600401614cbd9695949392919061595d565b600060405180830381600087803b158015614cd757600080fd5b505af1158015614ceb573d6000803e3d6000fd5b50505050614d0281836148e190919063ffffffff16565b9150600190930192614b1e565b509598975050505050505050565b6000805b8551811015614e6d57600e548651600160a060020a03909116906359624806908990899085908110614d4f57fe5b906020019060200201518888886040518663ffffffff1660e060020a028152600401614d7f9594939291906158f3565b602060405180830381600087803b158015614d9957600080fd5b505af1158015614dad573d6000803e3d6000fd5b505050506040513d601f19601f82011682018060405250614dd1919081019061556e565b15614e6557600e548651600160a060020a0390911690637d7a23aa908990899085908110614dfb57fe5b9060200190602002015188888860006040518763ffffffff1660e060020a028152600401614e2e9695949392919061590e565b600060405180830381600087803b158015614e4857600080fd5b505af1158015614e5c573d6000803e3d6000fd5b50505050614e6d565b600101614d21565b509295945050505050565b6000828201818312801590614e8d5750838112155b80614ea25750600083128015614ea257508381125b1515611b6d57600080fd5b815481835581811115612a9857600083815260209020612a9891810190830161152b91905b80821115614ee65760008155600101614ed2565b5090565b6000611b6d8235615cb3565b6000601f82018313614f0757600080fd5b8151614f1a614f1582615c68565b615c42565b91508181835260208401935060208101905083856020840282011115614f3f57600080fd5b60005b83811015614f6b5781614f558882614ffd565b8452506020928301929190910190600101614f42565b5050505092915050565b6000601f82018313614f8657600080fd5b8151614f94614f1582615c68565b91508181835260208401935060208101905083856020840282011115614fb957600080fd5b60005b83811015614f6b5781614fcf8882614ffd565b8452506020928301929190910190600101614fbc565b6000611b6d8251615cbf565b6000611b6d823561152b565b6000611b6d825161152b565b6000611b6d8251615cc4565b6000611b6d8235615cd1565b6000611b6d8251615cd1565b6000601f8201831361503e57600080fd5b815161504c614f1582615c88565b9150808252602083016020830185838301111561506857600080fd5b615073838284615cf3565b50505092915050565b6000601f8201831361508d57600080fd5b813561509b614f1582615c88565b915080825260208301602083018583830111156150b757600080fd5b615073838284615ce7565b6000602082840312156150d457600080fd5b6000611cc08484614eea565b600080604083850312156150f357600080fd5b60006150ff8585614eea565b925050602061511085828601614eea565b9150509250929050565b60008060006060848603121561512f57600080fd5b600061513b8686614eea565b935050602061514c86828701614eea565b925050604061515d86828701614ff1565b9150509250925092565b6000806000806080858703121561517d57600080fd5b60006151898787614eea565b945050602061519a87828801614eea565b93505060406151ab87828801614ff1565b92505060608501356001604060020a038111156151c757600080fd5b6151d38782880161507c565b91505092959194509250565b6000806000606084860312156151f457600080fd5b60006152008686614eea565b935050602061521186828701614ff1565b925050604061515d86828701614eea565b60008060008060008060c0878903121561523b57600080fd5b60006152478989614eea565b965050602061525889828a01615015565b955050604061526989828a01614ff1565b945050606061527a89828a01614eea565b935050608061528b89828a01614ff1565b92505060a08701356001604060020a038111156152a757600080fd5b6152b389828a0161507c565b9150509295509295509295565b600080600080600060a086880312156152d857600080fd5b60006152e48888614eea565b95505060206152f588828901614ff1565b945050604061530688828901614eea565b935050606061531788828901614ff1565b92505060808601356001604060020a0381111561533357600080fd5b61533f8882890161507c565b9150509295509295909350565b60008060008060008060c0878903121561536557600080fd5b60006153718989614eea565b965050602061538289828a01614ff1565b955050604061539389828a01614eea565b94505060606153a489828a01614ff1565b93505060808701356001604060020a038111156153c057600080fd5b6153cc89828a0161507c565b92505060a06152b389828a01614ff1565b600080604083850312156153f057600080fd5b60006153fc8585614eea565b92505060208301356001604060020a0381111561541857600080fd5b6151108582860161507c565b60008060006060848603121561543957600080fd5b60006154458686614eea565b93505060208401356001604060020a0381111561546157600080fd5b6152118682870161507c565b600080600080600060a0868803121561548557600080fd5b60006154918888614eea565b95505060208601356001604060020a038111156154ad57600080fd5b6152f58882890161507c565b60008060008060008060c087890312156154d257600080fd5b60006154de8989614eea565b96505060208701356001604060020a038111156154fa57600080fd5b61525889828a0161507c565b60006020828403121561551857600080fd5b81516001604060020a0381111561552e57600080fd5b611cc084828501614ef6565b60006020828403121561554c57600080fd5b81516001604060020a0381111561556257600080fd5b611cc084828501614f75565b60006020828403121561558057600080fd5b6000611cc08484614fe5565b60006020828403121561559e57600080fd5b6000611cc08484614ffd565b6000602082840312156155bc57600080fd5b6000611cc08484615009565b6000602082840312156155da57600080fd5b6000611cc08484615015565b6000602082840312156155f857600080fd5b6000611cc08484615021565b6000806000806080858703121561561a57600080fd5b60006151898787614ff1565b6000806040838503121561563957600080fd5b60006156458585614ffd565b925050602061511085828601614ffd565b60006020828403121561566857600080fd5b81516001604060020a0381111561567e57600080fd5b611cc08482850161502d565b600080600080600060a086880312156156a257600080fd5b85356001604060020a038111156156b857600080fd5b6152e48882890161507c565b6000602082840312156156d657600080fd5b6000611cc08484614ff1565b6156eb81615cb3565b82525050565b6156eb81615cbf565b6156eb8161152b565b6156eb81615cd1565b6156eb81615cdc565b600061572082615caf565b808452615734816020860160208601615cf3565b61573d81615d1f565b9093016020019392505050565b6000815260200190565b602081016110f982846156e2565b6040810161577082856156e2565b611b6d60208301846156e2565b6080810161578b82876156e2565b61579860208301866156e2565b6157a560408301856156e2565b610dd460608301846156fa565b60c081016157c082896156e2565b6157cd60208301886156e2565b6157da60408301876156e2565b6157e760608301866156fa565b6157f4608083018561570c565b61580160a08301846156fa565b979650505050505050565b60a0810161581a82886156e2565b61582760208301876156e2565b61583460408301866156fa565b61584160608301856156e2565b61499860808301846156fa565b6060810161585c82866156e2565b61586960208301856156e2565b8181036040830152610dd48184615715565b6060810161588982866156e2565b61589660208301856156e2565b611cc060408301846156fa565b608081016158b182876156e2565b61579860208301866156fa565b60a081016158cc82886156e2565b6158d960208301876156fa565b6158e660408301866156e2565b61584160608301856156fa565b60a0810161590182886156e2565b61582760208301876156fa565b60c0810161591c82896156e2565b61592960208301886156fa565b61593660408301876156fa565b61594360608301866156e2565b61595060808301856156fa565b61580160a08301846156f1565b60c0810161596b82896156e2565b61597860208301886156fa565b615936604083018761570c565b60a0810161599382886156e2565b6158276020830187615703565b60c081016159ae82896156e2565b6159bb6020830188615703565b6159c860408301876156fa565b6159d560608301866156e2565b6159e260808301856156fa565b81810360a08301526159f48184615715565b98975050505050505050565b60a08101615a0e82886156e2565b615a1b60208301876156fa565b615a2860408301866156e2565b615a3560608301856156fa565b81810360808301526158018184615715565b60408101615a5582856156e2565b8181036020830152611cc08184615715565b60a08101615a7582886156e2565b8181036020830152615a878187615715565b9050615a2860408301866156e2565b60c08101615aa482886156e2565b8181036020830152615ab68187615715565b9050615ac560408301866156fa565b615ad260608301856156e2565b615adf608083018461570c565b81810360a08301526158018161574a565b60c08101615afe82896156e2565b8181036020830152615b108188615715565b90506159c860408301876156fa565b60408101615b2d82846156e2565b8181036020830152611b6d8161574a565b60c08101615b4c82886156e2565b8181036020830152615b5d8161574a565b9050615b6c60408301876156fa565b615b7960608301866156e2565b615b8660808301856156fa565b81810360a08301526158018184615715565b60408101615ba682856156e2565b611b6d60208301846156fa565b602081016110f982846156f1565b602081016110f982846156fa565b602081016110f98284615703565b60408101615beb8285615703565b611b6d6020830184615703565b60c08101615c068289615703565b615c1360208301886156e2565b8181036040830152615c258187615715565b90506159d560608301866156e2565b60408101615ba682856156fa565b6040518181016001604060020a0381118282101715615c6057600080fd5b604052919050565b60006001604060020a03821115615c7e57600080fd5b5060209081020190565b60006001604060020a03821115615c9e57600080fd5b506020601f91909101601f19160190565b5190565b600160a060020a031690565b151590565b600160e060020a03191690565b60006110f982615cb3565b60006110f98261152b565b82818337506000910152565b60005b83811015615d0e578181015183820152602001615cf6565b838111156119755750506000910152565b601f01601f19169056007c750f44230ed3db46106f40b3f7c4707c7814035e69e09d43699ccbe46b1061b1054d4e81cc81e966ba33c7ce386432dcf8d4d78798e7a1f7f0b4aaef360330a265627a7a723058205830f134a25f7fa0c9f368bc4d3c4a7cf45034c41ce0149943c876d4bdf3b18c6c6578706572696d656e74616cf50037",
  "source": "/*\n * Hubii Nahmii\n *\n * Compliant with the Hubii Nahmii specification v0.12.\n *\n * Copyright (C) 2017-2018 Hubii AS\n */\n\npragma solidity ^0.4.25;\npragma experimental ABIEncoderV2;\n\nimport {Ownable} from \"./Ownable.sol\";\nimport {Beneficiary} from \"./Beneficiary.sol\";\nimport {Benefactor} from \"./Benefactor.sol\";\nimport {AuthorizableServable} from \"./AuthorizableServable.sol\";\nimport {TransferControllerManageable} from \"./TransferControllerManageable.sol\";\nimport {BalanceTrackable} from \"./BalanceTrackable.sol\";\nimport {TransactionTrackable} from \"./TransactionTrackable.sol\";\nimport {WalletLockable} from \"./WalletLockable.sol\";\nimport {TransferController} from \"./TransferController.sol\";\nimport {SafeMathIntLib} from \"./SafeMathIntLib.sol\";\nimport {TokenHolderRevenueFund} from \"./TokenHolderRevenueFund.sol\";\n\n/**\n * @title Client fund\n * @notice Where clients crypto is deposited into, staged and withdrawn from.\n */\ncontract ClientFund is Ownable, Beneficiary, Benefactor, AuthorizableServable, TransferControllerManageable,\nBalanceTrackable, TransactionTrackable, WalletLockable {\n    using SafeMathIntLib for int256;\n\n    address[] public seizedWallets;\n    mapping(address => bool) public seizedByWallet;\n\n    TokenHolderRevenueFund public tokenHolderRevenueFund;\n\n    //\n    // Events\n    // -----------------------------------------------------------------------------------------------------------------\n    event SetTokenHolderRevenueFundEvent(TokenHolderRevenueFund oldTokenHolderRevenueFund,\n        TokenHolderRevenueFund newTokenHolderRevenueFund);\n    event ReceiveEvent(address wallet, string balanceType, int256 value, address currencyCt,\n        uint256 currencyId, string standard);\n    event WithdrawEvent(address wallet, int256 value, address currencyCt, uint256 currencyId,\n        string standard);\n    event StageEvent(address wallet, int256 value, address currencyCt, uint256 currencyId);\n    event UnstageEvent(address wallet, int256 value, address currencyCt, uint256 currencyId);\n    event UpdateSettledBalanceEvent(address wallet, int256 value, address currencyCt,\n        uint256 currencyId);\n    event StageToBeneficiaryEvent(address sourceWallet, address beneficiary, int256 value,\n        address currencyCt, uint256 currencyId, string standard);\n    event TransferToBeneficiaryEvent(address wallet, address beneficiary, int256 value,\n        address currencyCt, uint256 currencyId);\n    event SeizeBalancesEvent(address seizedWallet, address seizerWallet, int256 value,\n        address currencyCt, uint256 currencyId);\n    event ClaimRevenueEvent(address claimer, string balanceType, address currencyCt,\n        uint256 currencyId, string standard);\n\n    //\n    // Constructor\n    // -----------------------------------------------------------------------------------------------------------------\n    constructor(address deployer) Ownable(deployer) Beneficiary() Benefactor()\n    public\n    {\n        serviceActivationTimeout = 1 weeks;\n    }\n\n    //\n    // Functions\n    // -----------------------------------------------------------------------------------------------------------------\n    /// @notice Set the token holder revenue fund contract\n    /// @param newTokenHolderRevenueFund The (address of) TokenHolderRevenueFund contract instance\n    function setTokenHolderRevenueFund(TokenHolderRevenueFund newTokenHolderRevenueFund)\n    public\n    onlyDeployer\n    notNullAddress(newTokenHolderRevenueFund)\n    notSameAddresses(newTokenHolderRevenueFund, tokenHolderRevenueFund)\n    {\n        // Set new token holder revenue fund\n        TokenHolderRevenueFund oldTokenHolderRevenueFund = tokenHolderRevenueFund;\n        tokenHolderRevenueFund = newTokenHolderRevenueFund;\n\n        // Emit event\n        emit SetTokenHolderRevenueFundEvent(oldTokenHolderRevenueFund, newTokenHolderRevenueFund);\n    }\n\n    /// @notice Fallback function that deposits ethers to msg.sender's deposited balance\n    function()\n    public\n    payable\n    {\n        receiveEthersTo(msg.sender, balanceTracker.DEPOSITED_BALANCE_TYPE());\n    }\n\n    /// @notice Receive ethers to the given wallet's balance of the given type\n    /// @param wallet The address of the concerned wallet\n    /// @param balanceType The target balance type\n    function receiveEthersTo(address wallet, string balanceType)\n    public\n    payable\n    {\n        int256 value = SafeMathIntLib.toNonZeroInt256(msg.value);\n\n        // Register reception\n        _receiveTo(wallet, balanceType, value, address(0), 0, true);\n\n        // Emit event\n        emit ReceiveEvent(wallet, balanceType, value, address(0), 0, \"\");\n    }\n\n    /// @notice Receive token to msg.sender's balance of the given type\n    /// @dev The wallet must approve of this ClientFund's transfer prior to calling this function\n    /// @param balanceType The target balance type\n    /// @param value The value (amount of fungible, id of non-fungible) to receive\n    /// @param currencyCt The address of the concerned currency contract (address(0) == ETH)\n    /// @param currencyId The ID of the concerned currency (0 for ETH and ERC20)\n    /// @param standard The standard of the token (\"\" for default registered, \"ERC20\", \"ERC721\")\n    function receiveTokens(string balanceType, int256 value, address currencyCt,\n        uint256 currencyId, string standard)\n    public\n    {\n        receiveTokensTo(msg.sender, balanceType, value, currencyCt, currencyId, standard);\n    }\n\n    /// @notice Receive token to the given wallet's balance of the given type\n    /// @dev The wallet must approve of this ClientFund's transfer prior to calling this function\n    /// @param wallet The address of the concerned wallet\n    /// @param balanceType The target balance type\n    /// @param value The value (amount of fungible, id of non-fungible) to receive\n    /// @param currencyCt The address of the concerned currency contract (address(0) == ETH)\n    /// @param currencyId The ID of the concerned currency (0 for ETH and ERC20)\n    function receiveTokensTo(address wallet, string balanceType, int256 value, address currencyCt,\n        uint256 currencyId, string standard)\n    public\n    {\n        require(value.isNonZeroPositiveInt256());\n\n        // Get transfer controller\n        TransferController controller = transferController(currencyCt, standard);\n\n        // Execute transfer\n        require(\n            address(controller).delegatecall(\n                controller.getReceiveSignature(), msg.sender, this, uint256(value), currencyCt, currencyId\n            )\n        );\n\n        // Register reception\n        _receiveTo(wallet, balanceType, value, currencyCt, currencyId, controller.isFungible());\n\n        // Emit event\n        emit ReceiveEvent(wallet, balanceType, value, currencyCt, currencyId, standard);\n    }\n\n    /// @notice Update the settled balance by the difference between provided off-chain balance amount\n    /// and deposited on-chain balance, where deposited balance is resolved at the given block number\n    /// @param wallet The address of the concerned wallet\n    /// @param value The target balance value (amount of fungible, id of non-fungible), i.e. off-chain balance\n    /// @param currencyCt The address of the concerned currency contract (address(0) == ETH)\n    /// @param currencyId The ID of the concerned currency (0 for ETH and ERC20)\n    /// @param standard The standard of the token (\"\" for default registered, \"ERC20\", \"ERC721\")\n    /// @param blockNumber The block number to which the settled balance is updated\n    function updateSettledBalance(address wallet, int256 value, address currencyCt, uint256 currencyId,\n        string standard, uint256 blockNumber)\n    public\n    onlyAuthorizedService(wallet)\n    notNullAddress(wallet)\n    {\n        require(value.isPositiveInt256());\n\n        if (_isFungible(currencyCt, currencyId, standard)) {\n            (int256 depositedValue,) = balanceTracker.fungibleRecordByBlockNumber(\n                wallet, balanceTracker.depositedBalanceType(), currencyCt, currencyId, blockNumber\n            );\n            balanceTracker.set(\n                wallet, balanceTracker.settledBalanceType(), value.sub(depositedValue),\n                currencyCt, currencyId, true\n            );\n\n        } else {\n            balanceTracker.sub(\n                wallet, balanceTracker.depositedBalanceType(), value, currencyCt, currencyId, false\n            );\n            balanceTracker.add(\n                wallet, balanceTracker.settledBalanceType(), value, currencyCt, currencyId, false\n            );\n        }\n\n        // Emit event\n        emit UpdateSettledBalanceEvent(wallet, value, currencyCt, currencyId);\n    }\n\n    /// @notice Stage a value for subsequent withdrawal\n    /// @param wallet The address of the concerned wallet\n    /// @param value The value (amount of fungible, id of non-fungible) to deposit\n    /// @param currencyCt The address of the concerned currency contract (address(0) == ETH)\n    /// @param currencyId The ID of the concerned currency (0 for ETH and ERC20)\n    /// @param standard The standard of the token (\"\" for default registered, \"ERC20\", \"ERC721\")\n    function stage(address wallet, int256 value, address currencyCt, uint256 currencyId,\n        string standard)\n    public\n    onlyAuthorizedService(wallet)\n    {\n        require(value.isNonZeroPositiveInt256());\n\n        // Deduce fungibility\n        bool fungible = _isFungible(currencyCt, currencyId, standard);\n\n        // Subtract stage value from settled, possibly also from deposited\n        value = _subtractSequentially(wallet, balanceTracker.activeBalanceTypes(), value, currencyCt, currencyId, fungible);\n\n        // Add to staged\n        balanceTracker.add(\n            wallet, balanceTracker.stagedBalanceType(), value, currencyCt, currencyId, fungible\n        );\n\n        // Emit event\n        emit StageEvent(wallet, value, currencyCt, currencyId);\n    }\n\n    /// @notice Unstage a staged value\n    /// @param value The value (amount of fungible, id of non-fungible) to deposit\n    /// @param currencyCt The address of the concerned currency contract (address(0) == ETH)\n    /// @param currencyId The ID of the concerned currency (0 for ETH and ERC20)\n    /// @param standard The standard of the token (\"\" for default registered, \"ERC20\", \"ERC721\")\n    function unstage(int256 value, address currencyCt, uint256 currencyId, string standard)\n    public\n    {\n        require(value.isNonZeroPositiveInt256());\n\n        // Deduce fungibility\n        bool fungible = _isFungible(currencyCt, currencyId, standard);\n\n        // Subtract unstage value from staged\n        value = _subtractFromStaged(msg.sender, value, currencyCt, currencyId, fungible);\n\n        balanceTracker.add(\n            msg.sender, balanceTracker.depositedBalanceType(), value, currencyCt, currencyId, fungible\n        );\n\n        // Emit event\n        emit UnstageEvent(msg.sender, value, currencyCt, currencyId);\n    }\n\n    /// @notice Stage the value from wallet to the given beneficiary and targeted to wallet\n    /// @param wallet The address of the concerned wallet\n    /// @param beneficiary The (address of) concerned beneficiary contract\n    /// @param value The value (amount of fungible, id of non-fungible) to stage\n    /// @param currencyCt The address of the concerned currency contract (address(0) == ETH)\n    /// @param currencyId The ID of the concerned currency (0 for ETH and ERC20)\n    /// @param standard The standard of the token (\"\" for default registered, \"ERC20\", \"ERC721\")\n    function stageToBeneficiary(address wallet, Beneficiary beneficiary, int256 value,\n        address currencyCt, uint256 currencyId, string standard)\n    public\n    onlyAuthorizedService(wallet)\n    {\n        // Deduce fungibility\n        bool fungible = _isFungible(currencyCt, currencyId, standard);\n\n        // Subtract stage value from settled, possibly also from deposited\n        value = _subtractSequentially(wallet, balanceTracker.activeBalanceTypes(), value, currencyCt, currencyId, fungible);\n\n        // Execute transfer\n        _transferToBeneficiary(wallet, beneficiary, value, currencyCt, currencyId, standard);\n\n        // Emit event\n        emit StageToBeneficiaryEvent(wallet, beneficiary, value, currencyCt, currencyId, standard);\n    }\n\n    /// @notice Transfer the given value of currency to the given beneficiary without target wallet\n    /// @param wallet The address of the concerned wallet\n    /// @param beneficiary The (address of) concerned beneficiary contract\n    /// @param value The value (amount of fungible, id of non-fungible) to transfer\n    /// @param currencyCt The address of the concerned currency contract (address(0) == ETH)\n    /// @param currencyId The ID of the concerned currency (0 for ETH and ERC20)\n    /// @param standard The standard of the token (\"\" for default registered, \"ERC20\", \"ERC721\")\n    function transferToBeneficiary(address wallet, Beneficiary beneficiary, int256 value,\n        address currencyCt, uint256 currencyId, string standard)\n    public\n    onlyAuthorizedService(wallet)\n    {\n        // Execute transfer\n        _transferToBeneficiary(wallet, beneficiary, value, currencyCt, currencyId, standard);\n\n        // Emit event\n        emit TransferToBeneficiaryEvent(wallet, beneficiary, value, currencyCt, currencyId);\n    }\n\n    /// @notice Seize balances in the given currency of the given wallet, provided that the wallet\n    /// is locked by the caller\n    /// @param wallet The address of the concerned wallet whose balances are seized\n    /// @param currencyCt The address of the concerned currency contract (address(0) == ETH)\n    /// @param currencyId The ID of the concerned currency (0 for ETH and ERC20)\n    /// @param standard The standard of the token (\"\" for default registered, \"ERC20\", \"ERC721\")\n    function seizeBalances(address wallet, address currencyCt, uint256 currencyId, string standard)\n    public\n    {\n        if (_isFungible(currencyCt, currencyId, standard))\n            _seizeFungibleBalances(wallet, msg.sender, currencyCt, currencyId);\n\n        else\n            _seizeNonFungibleBalances(wallet, msg.sender, currencyCt, currencyId);\n\n        // Add to the store of seized wallets\n        if (!seizedByWallet[wallet]) {\n            seizedByWallet[wallet] = true;\n            seizedWallets.push(wallet);\n        }\n    }\n\n    /// @notice Withdraw the given amount from staged balance\n    /// @param value The value (amount of fungible, id of non-fungible) to withdraw\n    /// @param currencyCt The address of the concerned currency contract (address(0) == ETH)\n    /// @param currencyId The ID of the concerned currency (0 for ETH and ERC20)\n    /// @param standard The standard of the token (\"\" for default registered, \"ERC20\", \"ERC721\")\n    function withdraw(int256 value, address currencyCt, uint256 currencyId, string standard)\n    public\n    {\n        require(value.isNonZeroPositiveInt256());\n\n        // Require that msg.sender and currency is not locked\n        require(!walletLocker.isLocked(msg.sender, currencyCt, currencyId));\n\n        // Deduce fungibility\n        bool fungible = _isFungible(currencyCt, currencyId, standard);\n\n        // Subtract unstage value from staged\n        value = _subtractFromStaged(msg.sender, value, currencyCt, currencyId, fungible);\n\n        // Log record of this transaction\n        transactionTracker.add(\n            msg.sender, transactionTracker.withdrawalTransactionType(), value, currencyCt, currencyId\n        );\n\n        // Execute transfer\n        _transferToWallet(msg.sender, value, currencyCt, currencyId, standard);\n\n        // Emit event\n        emit WithdrawEvent(msg.sender, value, currencyCt, currencyId, standard);\n    }\n\n    /// @notice Get the seized status of given wallet\n    /// @param wallet The address of the concerned wallet\n    /// @return true if wallet is seized, false otherwise\n    function isSeizedWallet(address wallet)\n    public\n    view\n    returns (bool)\n    {\n        return seizedByWallet[wallet];\n    }\n\n    /// @notice Get the number of wallets whose funds have been seized\n    /// @return Number of wallets\n    function seizedWalletsCount()\n    public\n    view\n    returns (uint256)\n    {\n        return seizedWallets.length;\n    }\n\n    /// @notice Claim revenue from token holder revenue fund based on this contract's holdings of the\n    /// revenue token, this so that revenue may be shared amongst revenue token holders in nahmii\n    /// @param claimer The concerned address of claimer that will subsequently distribute revenue in nahmii\n    /// @param balanceType The target balance type for the reception in this contract\n    /// @param currencyCt The address of the concerned currency contract (address(0) == ETH)\n    /// @param currencyId The ID of the concerned currency (0 for ETH and ERC20)\n    /// @param standard The standard of the token (\"\" for default registered, \"ERC20\", \"ERC721\")\n    function claimRevenue(address claimer, string balanceType, address currencyCt,\n        uint256 currencyId, string standard)\n    public\n    onlyOperator\n    {\n        tokenHolderRevenueFund.claimAndTransferToBeneficiary(\n            this, claimer, balanceType,\n            currencyCt, currencyId, standard\n        );\n\n        emit ClaimRevenueEvent(claimer, balanceType, currencyCt, currencyId, standard);\n    }\n\n    //\n    // Private functions\n    // -----------------------------------------------------------------------------------------------------------------\n    function _receiveTo(address wallet, string balanceType, int256 value, address currencyCt,\n        uint256 currencyId, bool fungible)\n    private\n    {\n        bytes32 balanceHash = 0 < bytes(balanceType).length ?\n        keccak256(abi.encodePacked(balanceType)) :\n        balanceTracker.depositedBalanceType();\n\n        // Add to per-wallet staged balance\n        if (balanceTracker.stagedBalanceType() == balanceHash)\n            balanceTracker.add(\n                wallet, balanceTracker.stagedBalanceType(), value, currencyCt, currencyId, fungible\n            );\n\n        // Add to per-wallet deposited balance\n        else if (balanceTracker.depositedBalanceType() == balanceHash) {\n            balanceTracker.add(\n                wallet, balanceTracker.depositedBalanceType(), value, currencyCt, currencyId, fungible\n            );\n\n            // Log record of this transaction\n            transactionTracker.add(\n                wallet, transactionTracker.depositTransactionType(), value, currencyCt, currencyId\n            );\n        }\n\n        else\n            revert();\n    }\n\n    function _subtractSequentially(address wallet, bytes32[] balanceTypes, int256 value, address currencyCt,\n        uint256 currencyId, bool fungible)\n    private\n    returns (int256)\n    {\n        if (fungible)\n            return _subtractFungibleSequentially(wallet, balanceTypes, value, currencyCt, currencyId);\n        else\n            return _subtractNonFungibleSequentially(wallet, balanceTypes, value, currencyCt, currencyId);\n    }\n\n    function _subtractFungibleSequentially(address wallet, bytes32[] balanceTypes, int256 amount, address currencyCt, uint256 currencyId)\n    private\n    returns (int256)\n    {\n        // Require positive amount\n        require(0 <= amount);\n\n        uint256 i;\n        int256 totalBalanceAmount = 0;\n        for (i = 0; i < balanceTypes.length; i++)\n            totalBalanceAmount = totalBalanceAmount.add(\n                balanceTracker.get(\n                    wallet, balanceTypes[i], currencyCt, currencyId\n                )\n            );\n\n        // Clamp amount to stage\n        amount = amount.clampMax(totalBalanceAmount);\n\n        int256 _amount = amount;\n        for (i = 0; i < balanceTypes.length; i++) {\n            int256 typeAmount = balanceTracker.get(\n                wallet, balanceTypes[i], currencyCt, currencyId\n            );\n\n            if (typeAmount >= _amount) {\n                balanceTracker.sub(\n                    wallet, balanceTypes[i], _amount, currencyCt, currencyId, true\n                );\n                break;\n\n            } else {\n                balanceTracker.set(\n                    wallet, balanceTypes[i], 0, currencyCt, currencyId, true\n                );\n                _amount = _amount.sub(typeAmount);\n            }\n        }\n\n        return amount;\n    }\n\n    function _subtractNonFungibleSequentially(address wallet, bytes32[] balanceTypes, int256 id, address currencyCt, uint256 currencyId)\n    private\n    returns (int256)\n    {\n        for (uint256 i = 0; i < balanceTypes.length; i++)\n            if (balanceTracker.hasId(wallet, balanceTypes[i], id, currencyCt, currencyId)) {\n                balanceTracker.sub(wallet, balanceTypes[i], id, currencyCt, currencyId, false);\n                break;\n            }\n\n        return id;\n    }\n\n    function _subtractFromStaged(address wallet, int256 value, address currencyCt, uint256 currencyId, bool fungible)\n    private\n    returns (int256)\n    {\n        if (fungible) {\n            // Clamp value to unstage\n            value = value.clampMax(\n                balanceTracker.get(wallet, balanceTracker.stagedBalanceType(), currencyCt, currencyId)\n            );\n\n            // Require positive value\n            require(0 <= value);\n\n        } else {\n            // Require that value is included in staged balance\n            require(balanceTracker.hasId(wallet, balanceTracker.stagedBalanceType(), value, currencyCt, currencyId));\n        }\n\n        // Subtract from deposited balance\n        balanceTracker.sub(wallet, balanceTracker.stagedBalanceType(), value, currencyCt, currencyId, fungible);\n\n        return value;\n    }\n\n    function _transferToBeneficiary(address destWallet, Beneficiary beneficiary,\n        int256 value, address currencyCt, uint256 currencyId, string standard)\n    private\n    {\n        require(value.isNonZeroPositiveInt256());\n        require(isRegisteredBeneficiary(beneficiary));\n\n        // Transfer funds to the beneficiary\n        if (address(0) == currencyCt && 0 == currencyId)\n            beneficiary.receiveEthersTo.value(uint256(value))(destWallet, \"\");\n\n        else {\n            // Approve of beneficiary\n            TransferController controller = transferController(currencyCt, standard);\n            require(\n                address(controller).delegatecall(\n                    controller.getApproveSignature(), beneficiary, uint256(value), currencyCt, currencyId\n                )\n            );\n\n            // TODO Equip each transfer controller with standard property (so that ERC20TransferController.standard() returns \"ERC20\")\n            // and use controller.standard() as last parameter instead of standard argument (https://github.com/hubiinetwork/nahmii-contracts/issues/309)\n            // Transfer funds to the beneficiary\n            beneficiary.receiveTokensTo(destWallet, \"\", value, currencyCt, currencyId, standard);\n        }\n    }\n\n    function _transferToWallet(address wallet,\n        int256 value, address currencyCt, uint256 currencyId, string standard)\n    private\n    {\n        // Transfer ETH\n        if (address(0) == currencyCt && 0 == currencyId)\n            wallet.transfer(uint256(value));\n\n        // Transfer token\n        else {\n            TransferController controller = transferController(currencyCt, standard);\n            require(\n                address(controller).delegatecall(\n                    controller.getDispatchSignature(), this, wallet, uint256(value), currencyCt, currencyId\n                )\n            );\n        }\n    }\n\n    function _seizeFungibleBalances(address lockedWallet, address lockerWallet, address currencyCt,\n        uint256 currencyId)\n    private\n    {\n        // Get the locked amount\n        int256 amount = walletLocker.lockedAmount(lockedWallet, lockerWallet, currencyCt, currencyId);\n\n        // Require that locked amount is strictly positive\n        require(amount > 0);\n\n        // Subtract stage value from settled, possibly also from deposited\n        _subtractFungibleSequentially(lockedWallet, balanceTracker.allBalanceTypes(), amount, currencyCt, currencyId);\n\n        // Add to staged balance of sender\n        balanceTracker.add(\n            lockerWallet, balanceTracker.stagedBalanceType(), amount, currencyCt, currencyId, true\n        );\n\n        // Emit event\n        emit SeizeBalancesEvent(lockedWallet, lockerWallet, amount, currencyCt, currencyId);\n    }\n\n    function _seizeNonFungibleBalances(address lockedWallet, address lockerWallet, address currencyCt,\n        uint256 currencyId)\n    private\n    {\n        // Require that locked ids has entries\n        uint256 lockedIdsCount = walletLocker.lockedIdsCount(lockedWallet, lockerWallet, currencyCt, currencyId);\n        require(0 < lockedIdsCount);\n\n        // Get the locked amount\n        int256[] memory ids = walletLocker.lockedIdsByIndices(\n            lockedWallet, lockerWallet, currencyCt, currencyId, 0, lockedIdsCount - 1\n        );\n\n        for (uint256 i = 0; i < ids.length; i++) {\n            // Subtract from settled, possibly also from deposited\n            _subtractNonFungibleSequentially(lockedWallet, balanceTracker.allBalanceTypes(), ids[i], currencyCt, currencyId);\n\n            // Add to staged balance of sender\n            balanceTracker.add(\n                lockerWallet, balanceTracker.stagedBalanceType(), ids[i], currencyCt, currencyId, false\n            );\n\n            // Emit event\n            emit SeizeBalancesEvent(lockedWallet, lockerWallet, ids[i], currencyCt, currencyId);\n        }\n    }\n\n    function _isFungible(address currencyCt, uint256 currencyId, string standard)\n    private\n    view\n    returns (bool)\n    {\n        return (address(0) == currencyCt && 0 == currencyId) || transferController(currencyCt, standard).isFungible();\n    }\n}\n",
  "sourcePath": "/opt/buildagent/work/855e104608380c36/contracts/ClientFund.sol",
  "compiler": {
    "name": "solc",
    "version": "0.4.25+commit.59dbf8f1.Emscripten.clang"
  },
  "schemaVersion": "2.0.2",
  "updatedAt": "2019-04-18T00:23:49.441Z"
}