{
  "contractName": "CommunityVote",
  "abi": [
    {
      "constant": false,
      "inputs": [],
      "name": "triggerSelfDestruction",
      "outputs": [],
      "payable": false,
      "stateMutability": "nonpayable",
      "type": "function"
    },
    {
      "constant": true,
      "inputs": [],
      "name": "selfDestructionDisabled",
      "outputs": [
        {
          "name": "",
          "type": "bool"
        }
      ],
      "payable": false,
      "stateMutability": "view",
      "type": "function"
    },
    {
      "constant": true,
      "inputs": [],
      "name": "destructor",
      "outputs": [
        {
          "name": "",
          "type": "address"
        }
      ],
      "payable": false,
      "stateMutability": "view",
      "type": "function"
    },
    {
      "constant": true,
      "inputs": [],
      "name": "operator",
      "outputs": [
        {
          "name": "",
          "type": "address"
        }
      ],
      "payable": false,
      "stateMutability": "view",
      "type": "function"
    },
    {
      "constant": false,
      "inputs": [],
      "name": "disableSelfDestruction",
      "outputs": [],
      "payable": false,
      "stateMutability": "nonpayable",
      "type": "function"
    },
    {
      "constant": false,
      "inputs": [
        {
          "name": "newDeployer",
          "type": "address"
        }
      ],
      "name": "setDeployer",
      "outputs": [],
      "payable": false,
      "stateMutability": "nonpayable",
      "type": "function"
    },
    {
      "constant": false,
      "inputs": [
        {
          "name": "newOperator",
          "type": "address"
        }
      ],
      "name": "setOperator",
      "outputs": [],
      "payable": false,
      "stateMutability": "nonpayable",
      "type": "function"
    },
    {
      "constant": true,
      "inputs": [],
      "name": "deployer",
      "outputs": [
        {
          "name": "",
          "type": "address"
        }
      ],
      "payable": false,
      "stateMutability": "view",
      "type": "function"
    },
    {
      "inputs": [
        {
          "name": "deployer",
          "type": "address"
        }
      ],
      "payable": false,
      "stateMutability": "nonpayable",
      "type": "constructor"
    },
    {
      "anonymous": false,
      "inputs": [
        {
          "indexed": false,
          "name": "oldDeployer",
          "type": "address"
        },
        {
          "indexed": false,
          "name": "newDeployer",
          "type": "address"
        }
      ],
      "name": "SetDeployerEvent",
      "type": "event"
    },
    {
      "anonymous": false,
      "inputs": [
        {
          "indexed": false,
          "name": "oldOperator",
          "type": "address"
        },
        {
          "indexed": false,
          "name": "newOperator",
          "type": "address"
        }
      ],
      "name": "SetOperatorEvent",
      "type": "event"
    },
    {
      "anonymous": false,
      "inputs": [
        {
          "indexed": false,
          "name": "wallet",
          "type": "address"
        }
      ],
      "name": "SelfDestructionDisabledEvent",
      "type": "event"
    },
    {
      "anonymous": false,
      "inputs": [
        {
          "indexed": false,
          "name": "wallet",
          "type": "address"
        }
      ],
      "name": "TriggerSelfDestructionEvent",
      "type": "event"
    },
    {
      "constant": true,
      "inputs": [
        {
          "name": "wallet",
          "type": "address"
        }
      ],
      "name": "isDoubleSpenderWallet",
      "outputs": [
        {
          "name": "",
          "type": "bool"
        }
      ],
      "payable": false,
      "stateMutability": "view",
      "type": "function"
    },
    {
      "constant": true,
      "inputs": [],
      "name": "getMaxDriipNonce",
      "outputs": [
        {
          "name": "",
          "type": "uint256"
        }
      ],
      "payable": false,
      "stateMutability": "view",
      "type": "function"
    },
    {
      "constant": true,
      "inputs": [],
      "name": "getMaxNullNonce",
      "outputs": [
        {
          "name": "",
          "type": "uint256"
        }
      ],
      "payable": false,
      "stateMutability": "view",
      "type": "function"
    },
    {
      "constant": true,
      "inputs": [],
      "name": "isDataAvailable",
      "outputs": [
        {
          "name": "",
          "type": "bool"
        }
      ],
      "payable": false,
      "stateMutability": "view",
      "type": "function"
    }
  ],
  "bytecode": "0x608060405234801561001057600080fd5b506040516020806105bf83398101604052518080600160a060020a038116151561003957600080fd5b600160a060020a03811630141561004f57600080fd5b5060008054600160a060020a03909216610100810261010060a860020a031990931692909217905560018054600160a060020a03191690911781556005805460ff1916909117905550610518806100a76000396000f3006080604052600436106100a05763ffffffff60e060020a6000350416631f34407081146100a55780632738a112146100cc5780632f013a00146100e35780634476d23b1461010c578063570ca7351461013d57806370327ea1146101525780639243c9db146101675780639621473514610188578063994e2076146101a9578063b3ab15fb146101be578063b5b9c7bf146101df578063d5f39488146101f4575b600080fd5b3480156100b157600080fd5b506100ba610209565b60408051918252519081900360200190f35b3480156100d857600080fd5b506100e161020f565b005b3480156100ef57600080fd5b506100f8610271565b604080519115158252519081900360200190f35b34801561011857600080fd5b5061012161027a565b60408051600160a060020a039092168252519081900360200190f35b34801561014957600080fd5b5061012161028e565b34801561015e57600080fd5b506100e161029d565b34801561017357600080fd5b506100f8600160a060020a03600435166102fb565b34801561019457600080fd5b506100e1600160a060020a0360043516610319565b3480156101b557600080fd5b506100f86103e5565b3480156101ca57600080fd5b506100e1600160a060020a03600435166103ee565b3480156101eb57600080fd5b506100ba6104ab565b34801561020057600080fd5b506101216104b1565b60035490565b3361021861027a565b600160a060020a03161461022b57600080fd5b60005460ff161561023b57600080fd5b6040805133815290517f787a5d936e74f4b564b9153575886059829c78cd9927b1be5e0d976b317ef7369181900360200190a133ff5b60005460ff1681565b6000546101009004600160a060020a031690565b600154600160a060020a031681565b336102a661027a565b600160a060020a0316146102b957600080fd5b6000805460ff191660011790556040805133815290517fd5a2a04a775c741c2ca0dc46ea7ce4835190e1aaf1ca018def0e82568ec336169181900360200190a1565b600160a060020a031660009081526002602052604090205460ff1690565b60006103236104c5565b151561032e57600080fd5b81600160a060020a038116151561034457600080fd5b600160a060020a03811630141561035a57600080fd5b600054600160a060020a0384811661010090920416146103e05760008054600160a060020a0385811661010081810261010060a860020a0319851617909455604080519490930491909116808452602084019190915281519094507f977e5fa58e458501775e0008d275006294c5249e3c08d1d0e3a9f3acad14f6e49281900390910190a15b505050565b60055460ff1690565b60006103f86104db565b151561040357600080fd5b81600160a060020a038116151561041957600080fd5b600160a060020a03811630141561042f57600080fd5b600154600160a060020a038481169116146103e05760018054600160a060020a03858116600160a060020a0319831681179093556040805191909216808252602082019390935281519294507f9f611b789425d0d5b90b920f1b2852907dd865c80074a30b1629aaa041d1812c929081900390910190a1505050565b60045490565b6000546101009004600160a060020a031681565b6000546101009004600160a060020a0316331490565b600154600160a060020a03163314905600a165627a7a7230582067e75dd5d96cb9f3bb8ae384a4001ba543ac2e5255754a024824c93ad5d101ed0029",
  "source": "/*\n * Hubii Nahmii\n *\n * Compliant with the Hubii Nahmii specification v0.12.\n *\n * Copyright (C) 2017-2018 Hubii AS\n */\n\npragma solidity ^0.4.25;\n\nimport {Ownable} from \"./Ownable.sol\";\n\n/**\n * @title Community vote\n * @notice An oracle for relevant decisions made by the community.\n */\ncontract CommunityVote is Ownable {\n    //\n    // Variables\n    // -----------------------------------------------------------------------------------------------------------------\n    mapping(address => bool) doubleSpenderByWallet;\n    uint256 maxDriipNonce;\n    uint256 maxNullNonce;\n    bool dataAvailable;\n\n    //\n    // Constructor\n    // -----------------------------------------------------------------------------------------------------------------\n    constructor(address deployer) Ownable(deployer) public {\n        dataAvailable = true;\n    }\n\n    //\n    // Results functions\n    // -----------------------------------------------------------------------------------------------------------------\n    /// @notice Get the double spender status of given wallet\n    /// @param wallet The wallet address for which to check double spender status\n    /// @return true if wallet is double spender, false otherwise\n    function isDoubleSpenderWallet(address wallet)\n    public\n    view\n    returns (bool)\n    {\n        return doubleSpenderByWallet[wallet];\n    }\n\n    /// @notice Get the max driip nonce to be accepted in settlements\n    /// @return the max driip nonce\n    function getMaxDriipNonce()\n    public\n    view\n    returns (uint256)\n    {\n        return maxDriipNonce;\n    }\n\n    /// @notice Get the max null settlement nonce to be accepted in settlements\n    /// @return the max driip nonce\n    function getMaxNullNonce()\n    public\n    view\n    returns (uint256)\n    {\n        return maxNullNonce;\n    }\n\n    /// @notice Get the data availability status\n    /// @return true if data is available\n    function isDataAvailable()\n    public\n    view\n    returns (bool)\n    {\n        return dataAvailable;\n    }\n}",
  "sourcePath": "/opt/buildagent/work/855e104608380c36/contracts/CommunityVote.sol",
  "compiler": {
    "name": "solc",
    "version": "0.4.25+commit.59dbf8f1.Emscripten.clang"
  },
  "schemaVersion": "2.0.2",
  "updatedAt": "2019-04-18T00:23:49.455Z"
}