{
  "contractName": "Configuration",
  "abi": [
    {
      "constant": true,
      "inputs": [],
      "name": "operationalMode",
      "outputs": [
        {
          "name": "",
          "type": "uint8"
        }
      ],
      "payable": false,
      "stateMutability": "view",
      "type": "function"
    },
    {
      "constant": true,
      "inputs": [
        {
          "name": "service",
          "type": "address"
        }
      ],
      "name": "isRegisteredActiveService",
      "outputs": [
        {
          "name": "",
          "type": "bool"
        }
      ],
      "payable": false,
      "stateMutability": "view",
      "type": "function"
    },
    {
      "constant": false,
      "inputs": [],
      "name": "triggerSelfDestruction",
      "outputs": [],
      "payable": false,
      "stateMutability": "nonpayable",
      "type": "function"
    },
    {
      "constant": false,
      "inputs": [
        {
          "name": "service",
          "type": "address"
        },
        {
          "name": "action",
          "type": "string"
        }
      ],
      "name": "enableServiceAction",
      "outputs": [],
      "payable": false,
      "stateMutability": "nonpayable",
      "type": "function"
    },
    {
      "constant": true,
      "inputs": [
        {
          "name": "service",
          "type": "address"
        }
      ],
      "name": "isRegisteredService",
      "outputs": [
        {
          "name": "",
          "type": "bool"
        }
      ],
      "payable": false,
      "stateMutability": "view",
      "type": "function"
    },
    {
      "constant": true,
      "inputs": [],
      "name": "selfDestructionDisabled",
      "outputs": [
        {
          "name": "",
          "type": "bool"
        }
      ],
      "payable": false,
      "stateMutability": "view",
      "type": "function"
    },
    {
      "constant": false,
      "inputs": [
        {
          "name": "service",
          "type": "address"
        },
        {
          "name": "action",
          "type": "string"
        }
      ],
      "name": "disableServiceAction",
      "outputs": [],
      "payable": false,
      "stateMutability": "nonpayable",
      "type": "function"
    },
    {
      "constant": true,
      "inputs": [],
      "name": "serviceActivationTimeout",
      "outputs": [
        {
          "name": "",
          "type": "uint256"
        }
      ],
      "payable": false,
      "stateMutability": "view",
      "type": "function"
    },
    {
      "constant": true,
      "inputs": [],
      "name": "destructor",
      "outputs": [
        {
          "name": "",
          "type": "address"
        }
      ],
      "payable": false,
      "stateMutability": "view",
      "type": "function"
    },
    {
      "constant": false,
      "inputs": [
        {
          "name": "service",
          "type": "address"
        }
      ],
      "name": "deregisterService",
      "outputs": [],
      "payable": false,
      "stateMutability": "nonpayable",
      "type": "function"
    },
    {
      "constant": true,
      "inputs": [],
      "name": "operator",
      "outputs": [
        {
          "name": "",
          "type": "address"
        }
      ],
      "payable": false,
      "stateMutability": "view",
      "type": "function"
    },
    {
      "constant": true,
      "inputs": [
        {
          "name": "service",
          "type": "address"
        },
        {
          "name": "action",
          "type": "string"
        }
      ],
      "name": "isEnabledServiceAction",
      "outputs": [
        {
          "name": "",
          "type": "bool"
        }
      ],
      "payable": false,
      "stateMutability": "view",
      "type": "function"
    },
    {
      "constant": false,
      "inputs": [],
      "name": "disableSelfDestruction",
      "outputs": [],
      "payable": false,
      "stateMutability": "nonpayable",
      "type": "function"
    },
    {
      "constant": false,
      "inputs": [
        {
          "name": "timeoutInSeconds",
          "type": "uint256"
        }
      ],
      "name": "setServiceActivationTimeout",
      "outputs": [],
      "payable": false,
      "stateMutability": "nonpayable",
      "type": "function"
    },
    {
      "constant": false,
      "inputs": [
        {
          "name": "service",
          "type": "address"
        }
      ],
      "name": "registerServiceDeferred",
      "outputs": [],
      "payable": false,
      "stateMutability": "nonpayable",
      "type": "function"
    },
    {
      "constant": false,
      "inputs": [
        {
          "name": "newDeployer",
          "type": "address"
        }
      ],
      "name": "setDeployer",
      "outputs": [],
      "payable": false,
      "stateMutability": "nonpayable",
      "type": "function"
    },
    {
      "constant": false,
      "inputs": [
        {
          "name": "newOperator",
          "type": "address"
        }
      ],
      "name": "setOperator",
      "outputs": [],
      "payable": false,
      "stateMutability": "nonpayable",
      "type": "function"
    },
    {
      "constant": true,
      "inputs": [],
      "name": "earliestSettlementBlockNumber",
      "outputs": [
        {
          "name": "",
          "type": "uint256"
        }
      ],
      "payable": false,
      "stateMutability": "view",
      "type": "function"
    },
    {
      "constant": true,
      "inputs": [],
      "name": "OPERATIONAL_MODE_ACTION",
      "outputs": [
        {
          "name": "",
          "type": "string"
        }
      ],
      "payable": false,
      "stateMutability": "view",
      "type": "function"
    },
    {
      "constant": true,
      "inputs": [],
      "name": "deployer",
      "outputs": [
        {
          "name": "",
          "type": "address"
        }
      ],
      "payable": false,
      "stateMutability": "view",
      "type": "function"
    },
    {
      "constant": true,
      "inputs": [],
      "name": "earliestSettlementBlockNumberUpdateDisabled",
      "outputs": [
        {
          "name": "",
          "type": "bool"
        }
      ],
      "payable": false,
      "stateMutability": "view",
      "type": "function"
    },
    {
      "constant": false,
      "inputs": [
        {
          "name": "service",
          "type": "address"
        }
      ],
      "name": "registerService",
      "outputs": [],
      "payable": false,
      "stateMutability": "nonpayable",
      "type": "function"
    },
    {
      "inputs": [
        {
          "name": "deployer",
          "type": "address"
        }
      ],
      "payable": false,
      "stateMutability": "nonpayable",
      "type": "constructor"
    },
    {
      "anonymous": false,
      "inputs": [],
      "name": "SetOperationalModeExitEvent",
      "type": "event"
    },
    {
      "anonymous": false,
      "inputs": [
        {
          "indexed": false,
          "name": "fromBlockNumber",
          "type": "uint256"
        },
        {
          "indexed": false,
          "name": "newBlocks",
          "type": "uint256"
        }
      ],
      "name": "SetUpdateDelayBlocksEvent",
      "type": "event"
    },
    {
      "anonymous": false,
      "inputs": [
        {
          "indexed": false,
          "name": "fromBlockNumber",
          "type": "uint256"
        },
        {
          "indexed": false,
          "name": "newBlocks",
          "type": "uint256"
        }
      ],
      "name": "SetConfirmationBlocksEvent",
      "type": "event"
    },
    {
      "anonymous": false,
      "inputs": [
        {
          "indexed": false,
          "name": "fromBlockNumber",
          "type": "uint256"
        },
        {
          "indexed": false,
          "name": "nominal",
          "type": "int256"
        },
        {
          "indexed": false,
          "name": "discountTiers",
          "type": "int256[]"
        },
        {
          "indexed": false,
          "name": "discountValues",
          "type": "int256[]"
        }
      ],
      "name": "SetTradeMakerFeeEvent",
      "type": "event"
    },
    {
      "anonymous": false,
      "inputs": [
        {
          "indexed": false,
          "name": "fromBlockNumber",
          "type": "uint256"
        },
        {
          "indexed": false,
          "name": "nominal",
          "type": "int256"
        },
        {
          "indexed": false,
          "name": "discountTiers",
          "type": "int256[]"
        },
        {
          "indexed": false,
          "name": "discountValues",
          "type": "int256[]"
        }
      ],
      "name": "SetTradeTakerFeeEvent",
      "type": "event"
    },
    {
      "anonymous": false,
      "inputs": [
        {
          "indexed": false,
          "name": "fromBlockNumber",
          "type": "uint256"
        },
        {
          "indexed": false,
          "name": "nominal",
          "type": "int256"
        },
        {
          "indexed": false,
          "name": "discountTiers",
          "type": "int256[]"
        },
        {
          "indexed": false,
          "name": "discountValues",
          "type": "int256[]"
        }
      ],
      "name": "SetPaymentFeeEvent",
      "type": "event"
    },
    {
      "anonymous": false,
      "inputs": [
        {
          "indexed": false,
          "name": "fromBlockNumber",
          "type": "uint256"
        },
        {
          "indexed": false,
          "name": "currencyCt",
          "type": "address"
        },
        {
          "indexed": false,
          "name": "currencyId",
          "type": "uint256"
        },
        {
          "indexed": false,
          "name": "nominal",
          "type": "int256"
        },
        {
          "indexed": false,
          "name": "discountTiers",
          "type": "int256[]"
        },
        {
          "indexed": false,
          "name": "discountValues",
          "type": "int256[]"
        }
      ],
      "name": "SetCurrencyPaymentFeeEvent",
      "type": "event"
    },
    {
      "anonymous": false,
      "inputs": [
        {
          "indexed": false,
          "name": "fromBlockNumber",
          "type": "uint256"
        },
        {
          "indexed": false,
          "name": "nominal",
          "type": "int256"
        }
      ],
      "name": "SetTradeMakerMinimumFeeEvent",
      "type": "event"
    },
    {
      "anonymous": false,
      "inputs": [
        {
          "indexed": false,
          "name": "fromBlockNumber",
          "type": "uint256"
        },
        {
          "indexed": false,
          "name": "nominal",
          "type": "int256"
        }
      ],
      "name": "SetTradeTakerMinimumFeeEvent",
      "type": "event"
    },
    {
      "anonymous": false,
      "inputs": [
        {
          "indexed": false,
          "name": "fromBlockNumber",
          "type": "uint256"
        },
        {
          "indexed": false,
          "name": "nominal",
          "type": "int256"
        }
      ],
      "name": "SetPaymentMinimumFeeEvent",
      "type": "event"
    },
    {
      "anonymous": false,
      "inputs": [
        {
          "indexed": false,
          "name": "fromBlockNumber",
          "type": "uint256"
        },
        {
          "indexed": false,
          "name": "currencyCt",
          "type": "address"
        },
        {
          "indexed": false,
          "name": "currencyId",
          "type": "uint256"
        },
        {
          "indexed": false,
          "name": "nominal",
          "type": "int256"
        }
      ],
      "name": "SetCurrencyPaymentMinimumFeeEvent",
      "type": "event"
    },
    {
      "anonymous": false,
      "inputs": [
        {
          "indexed": false,
          "name": "fromBlockNumber",
          "type": "uint256"
        },
        {
          "indexed": false,
          "name": "referenceCurrencyCt",
          "type": "address"
        },
        {
          "indexed": false,
          "name": "referenceCurrencyId",
          "type": "uint256"
        },
        {
          "indexed": false,
          "name": "feeCurrencyCt",
          "type": "address"
        },
        {
          "indexed": false,
          "name": "feeCurrencyId",
          "type": "uint256"
        }
      ],
      "name": "SetFeeCurrencyEvent",
      "type": "event"
    },
    {
      "anonymous": false,
      "inputs": [
        {
          "indexed": false,
          "name": "fromBlockNumber",
          "type": "uint256"
        },
        {
          "indexed": false,
          "name": "timeoutInSeconds",
          "type": "uint256"
        }
      ],
      "name": "SetWalletLockTimeoutEvent",
      "type": "event"
    },
    {
      "anonymous": false,
      "inputs": [
        {
          "indexed": false,
          "name": "fromBlockNumber",
          "type": "uint256"
        },
        {
          "indexed": false,
          "name": "timeoutInSeconds",
          "type": "uint256"
        }
      ],
      "name": "SetCancelOrderChallengeTimeoutEvent",
      "type": "event"
    },
    {
      "anonymous": false,
      "inputs": [
        {
          "indexed": false,
          "name": "fromBlockNumber",
          "type": "uint256"
        },
        {
          "indexed": false,
          "name": "timeoutInSeconds",
          "type": "uint256"
        }
      ],
      "name": "SetSettlementChallengeTimeoutEvent",
      "type": "event"
    },
    {
      "anonymous": false,
      "inputs": [
        {
          "indexed": false,
          "name": "fromBlockNumber",
          "type": "uint256"
        },
        {
          "indexed": false,
          "name": "stakeFraction",
          "type": "uint256"
        }
      ],
      "name": "SetWalletSettlementStakeFractionEvent",
      "type": "event"
    },
    {
      "anonymous": false,
      "inputs": [
        {
          "indexed": false,
          "name": "fromBlockNumber",
          "type": "uint256"
        },
        {
          "indexed": false,
          "name": "stakeFraction",
          "type": "uint256"
        }
      ],
      "name": "SetOperatorSettlementStakeFractionEvent",
      "type": "event"
    },
    {
      "anonymous": false,
      "inputs": [
        {
          "indexed": false,
          "name": "fromBlockNumber",
          "type": "uint256"
        },
        {
          "indexed": false,
          "name": "stakeFraction",
          "type": "uint256"
        }
      ],
      "name": "SetFraudStakeFractionEvent",
      "type": "event"
    },
    {
      "anonymous": false,
      "inputs": [
        {
          "indexed": false,
          "name": "earliestSettlementBlockNumber",
          "type": "uint256"
        }
      ],
      "name": "SetEarliestSettlementBlockNumberEvent",
      "type": "event"
    },
    {
      "anonymous": false,
      "inputs": [],
      "name": "DisableEarliestSettlementBlockNumberUpdateEvent",
      "type": "event"
    },
    {
      "anonymous": false,
      "inputs": [
        {
          "indexed": false,
          "name": "timeoutInSeconds",
          "type": "uint256"
        }
      ],
      "name": "ServiceActivationTimeoutEvent",
      "type": "event"
    },
    {
      "anonymous": false,
      "inputs": [
        {
          "indexed": false,
          "name": "service",
          "type": "address"
        }
      ],
      "name": "RegisterServiceEvent",
      "type": "event"
    },
    {
      "anonymous": false,
      "inputs": [
        {
          "indexed": false,
          "name": "service",
          "type": "address"
        },
        {
          "indexed": false,
          "name": "timeout",
          "type": "uint256"
        }
      ],
      "name": "RegisterServiceDeferredEvent",
      "type": "event"
    },
    {
      "anonymous": false,
      "inputs": [
        {
          "indexed": false,
          "name": "service",
          "type": "address"
        }
      ],
      "name": "DeregisterServiceEvent",
      "type": "event"
    },
    {
      "anonymous": false,
      "inputs": [
        {
          "indexed": false,
          "name": "service",
          "type": "address"
        },
        {
          "indexed": false,
          "name": "action",
          "type": "string"
        }
      ],
      "name": "EnableServiceActionEvent",
      "type": "event"
    },
    {
      "anonymous": false,
      "inputs": [
        {
          "indexed": false,
          "name": "service",
          "type": "address"
        },
        {
          "indexed": false,
          "name": "action",
          "type": "string"
        }
      ],
      "name": "DisableServiceActionEvent",
      "type": "event"
    },
    {
      "anonymous": false,
      "inputs": [
        {
          "indexed": false,
          "name": "oldDeployer",
          "type": "address"
        },
        {
          "indexed": false,
          "name": "newDeployer",
          "type": "address"
        }
      ],
      "name": "SetDeployerEvent",
      "type": "event"
    },
    {
      "anonymous": false,
      "inputs": [
        {
          "indexed": false,
          "name": "oldOperator",
          "type": "address"
        },
        {
          "indexed": false,
          "name": "newOperator",
          "type": "address"
        }
      ],
      "name": "SetOperatorEvent",
      "type": "event"
    },
    {
      "anonymous": false,
      "inputs": [
        {
          "indexed": false,
          "name": "wallet",
          "type": "address"
        }
      ],
      "name": "SelfDestructionDisabledEvent",
      "type": "event"
    },
    {
      "anonymous": false,
      "inputs": [
        {
          "indexed": false,
          "name": "wallet",
          "type": "address"
        }
      ],
      "name": "TriggerSelfDestructionEvent",
      "type": "event"
    },
    {
      "constant": false,
      "inputs": [],
      "name": "setOperationalModeExit",
      "outputs": [],
      "payable": false,
      "stateMutability": "nonpayable",
      "type": "function"
    },
    {
      "constant": true,
      "inputs": [],
      "name": "isOperationalModeNormal",
      "outputs": [
        {
          "name": "",
          "type": "bool"
        }
      ],
      "payable": false,
      "stateMutability": "view",
      "type": "function"
    },
    {
      "constant": true,
      "inputs": [],
      "name": "isOperationalModeExit",
      "outputs": [
        {
          "name": "",
          "type": "bool"
        }
      ],
      "payable": false,
      "stateMutability": "view",
      "type": "function"
    },
    {
      "constant": true,
      "inputs": [],
      "name": "updateDelayBlocks",
      "outputs": [
        {
          "name": "",
          "type": "uint256"
        }
      ],
      "payable": false,
      "stateMutability": "view",
      "type": "function"
    },
    {
      "constant": true,
      "inputs": [],
      "name": "updateDelayBlocksCount",
      "outputs": [
        {
          "name": "",
          "type": "uint256"
        }
      ],
      "payable": false,
      "stateMutability": "view",
      "type": "function"
    },
    {
      "constant": false,
      "inputs": [
        {
          "name": "fromBlockNumber",
          "type": "uint256"
        },
        {
          "name": "newUpdateDelayBlocks",
          "type": "uint256"
        }
      ],
      "name": "setUpdateDelayBlocks",
      "outputs": [],
      "payable": false,
      "stateMutability": "nonpayable",
      "type": "function"
    },
    {
      "constant": true,
      "inputs": [],
      "name": "confirmationBlocks",
      "outputs": [
        {
          "name": "",
          "type": "uint256"
        }
      ],
      "payable": false,
      "stateMutability": "view",
      "type": "function"
    },
    {
      "constant": true,
      "inputs": [],
      "name": "confirmationBlocksCount",
      "outputs": [
        {
          "name": "",
          "type": "uint256"
        }
      ],
      "payable": false,
      "stateMutability": "view",
      "type": "function"
    },
    {
      "constant": false,
      "inputs": [
        {
          "name": "fromBlockNumber",
          "type": "uint256"
        },
        {
          "name": "newConfirmationBlocks",
          "type": "uint256"
        }
      ],
      "name": "setConfirmationBlocks",
      "outputs": [],
      "payable": false,
      "stateMutability": "nonpayable",
      "type": "function"
    },
    {
      "constant": true,
      "inputs": [],
      "name": "tradeMakerFeesCount",
      "outputs": [
        {
          "name": "",
          "type": "uint256"
        }
      ],
      "payable": false,
      "stateMutability": "view",
      "type": "function"
    },
    {
      "constant": true,
      "inputs": [
        {
          "name": "blockNumber",
          "type": "uint256"
        },
        {
          "name": "discountTier",
          "type": "int256"
        }
      ],
      "name": "tradeMakerFee",
      "outputs": [
        {
          "name": "",
          "type": "int256"
        }
      ],
      "payable": false,
      "stateMutability": "view",
      "type": "function"
    },
    {
      "constant": false,
      "inputs": [
        {
          "name": "fromBlockNumber",
          "type": "uint256"
        },
        {
          "name": "nominal",
          "type": "int256"
        },
        {
          "name": "discountTiers",
          "type": "int256[]"
        },
        {
          "name": "discountValues",
          "type": "int256[]"
        }
      ],
      "name": "setTradeMakerFee",
      "outputs": [],
      "payable": false,
      "stateMutability": "nonpayable",
      "type": "function"
    },
    {
      "constant": true,
      "inputs": [],
      "name": "tradeTakerFeesCount",
      "outputs": [
        {
          "name": "",
          "type": "uint256"
        }
      ],
      "payable": false,
      "stateMutability": "view",
      "type": "function"
    },
    {
      "constant": true,
      "inputs": [
        {
          "name": "blockNumber",
          "type": "uint256"
        },
        {
          "name": "discountTier",
          "type": "int256"
        }
      ],
      "name": "tradeTakerFee",
      "outputs": [
        {
          "name": "",
          "type": "int256"
        }
      ],
      "payable": false,
      "stateMutability": "view",
      "type": "function"
    },
    {
      "constant": false,
      "inputs": [
        {
          "name": "fromBlockNumber",
          "type": "uint256"
        },
        {
          "name": "nominal",
          "type": "int256"
        },
        {
          "name": "discountTiers",
          "type": "int256[]"
        },
        {
          "name": "discountValues",
          "type": "int256[]"
        }
      ],
      "name": "setTradeTakerFee",
      "outputs": [],
      "payable": false,
      "stateMutability": "nonpayable",
      "type": "function"
    },
    {
      "constant": true,
      "inputs": [],
      "name": "paymentFeesCount",
      "outputs": [
        {
          "name": "",
          "type": "uint256"
        }
      ],
      "payable": false,
      "stateMutability": "view",
      "type": "function"
    },
    {
      "constant": true,
      "inputs": [
        {
          "name": "blockNumber",
          "type": "uint256"
        },
        {
          "name": "discountTier",
          "type": "int256"
        }
      ],
      "name": "paymentFee",
      "outputs": [
        {
          "name": "",
          "type": "int256"
        }
      ],
      "payable": false,
      "stateMutability": "view",
      "type": "function"
    },
    {
      "constant": false,
      "inputs": [
        {
          "name": "fromBlockNumber",
          "type": "uint256"
        },
        {
          "name": "nominal",
          "type": "int256"
        },
        {
          "name": "discountTiers",
          "type": "int256[]"
        },
        {
          "name": "discountValues",
          "type": "int256[]"
        }
      ],
      "name": "setPaymentFee",
      "outputs": [],
      "payable": false,
      "stateMutability": "nonpayable",
      "type": "function"
    },
    {
      "constant": true,
      "inputs": [
        {
          "name": "currencyCt",
          "type": "address"
        },
        {
          "name": "currencyId",
          "type": "uint256"
        }
      ],
      "name": "currencyPaymentFeesCount",
      "outputs": [
        {
          "name": "",
          "type": "uint256"
        }
      ],
      "payable": false,
      "stateMutability": "view",
      "type": "function"
    },
    {
      "constant": true,
      "inputs": [
        {
          "name": "blockNumber",
          "type": "uint256"
        },
        {
          "name": "currencyCt",
          "type": "address"
        },
        {
          "name": "currencyId",
          "type": "uint256"
        },
        {
          "name": "discountTier",
          "type": "int256"
        }
      ],
      "name": "currencyPaymentFee",
      "outputs": [
        {
          "name": "",
          "type": "int256"
        }
      ],
      "payable": false,
      "stateMutability": "view",
      "type": "function"
    },
    {
      "constant": false,
      "inputs": [
        {
          "name": "fromBlockNumber",
          "type": "uint256"
        },
        {
          "name": "currencyCt",
          "type": "address"
        },
        {
          "name": "currencyId",
          "type": "uint256"
        },
        {
          "name": "nominal",
          "type": "int256"
        },
        {
          "name": "discountTiers",
          "type": "int256[]"
        },
        {
          "name": "discountValues",
          "type": "int256[]"
        }
      ],
      "name": "setCurrencyPaymentFee",
      "outputs": [],
      "payable": false,
      "stateMutability": "nonpayable",
      "type": "function"
    },
    {
      "constant": true,
      "inputs": [],
      "name": "tradeMakerMinimumFeesCount",
      "outputs": [
        {
          "name": "",
          "type": "uint256"
        }
      ],
      "payable": false,
      "stateMutability": "view",
      "type": "function"
    },
    {
      "constant": true,
      "inputs": [
        {
          "name": "blockNumber",
          "type": "uint256"
        }
      ],
      "name": "tradeMakerMinimumFee",
      "outputs": [
        {
          "name": "",
          "type": "int256"
        }
      ],
      "payable": false,
      "stateMutability": "view",
      "type": "function"
    },
    {
      "constant": false,
      "inputs": [
        {
          "name": "fromBlockNumber",
          "type": "uint256"
        },
        {
          "name": "nominal",
          "type": "int256"
        }
      ],
      "name": "setTradeMakerMinimumFee",
      "outputs": [],
      "payable": false,
      "stateMutability": "nonpayable",
      "type": "function"
    },
    {
      "constant": true,
      "inputs": [],
      "name": "tradeTakerMinimumFeesCount",
      "outputs": [
        {
          "name": "",
          "type": "uint256"
        }
      ],
      "payable": false,
      "stateMutability": "view",
      "type": "function"
    },
    {
      "constant": true,
      "inputs": [
        {
          "name": "blockNumber",
          "type": "uint256"
        }
      ],
      "name": "tradeTakerMinimumFee",
      "outputs": [
        {
          "name": "",
          "type": "int256"
        }
      ],
      "payable": false,
      "stateMutability": "view",
      "type": "function"
    },
    {
      "constant": false,
      "inputs": [
        {
          "name": "fromBlockNumber",
          "type": "uint256"
        },
        {
          "name": "nominal",
          "type": "int256"
        }
      ],
      "name": "setTradeTakerMinimumFee",
      "outputs": [],
      "payable": false,
      "stateMutability": "nonpayable",
      "type": "function"
    },
    {
      "constant": true,
      "inputs": [],
      "name": "paymentMinimumFeesCount",
      "outputs": [
        {
          "name": "",
          "type": "uint256"
        }
      ],
      "payable": false,
      "stateMutability": "view",
      "type": "function"
    },
    {
      "constant": true,
      "inputs": [
        {
          "name": "blockNumber",
          "type": "uint256"
        }
      ],
      "name": "paymentMinimumFee",
      "outputs": [
        {
          "name": "",
          "type": "int256"
        }
      ],
      "payable": false,
      "stateMutability": "view",
      "type": "function"
    },
    {
      "constant": false,
      "inputs": [
        {
          "name": "fromBlockNumber",
          "type": "uint256"
        },
        {
          "name": "nominal",
          "type": "int256"
        }
      ],
      "name": "setPaymentMinimumFee",
      "outputs": [],
      "payable": false,
      "stateMutability": "nonpayable",
      "type": "function"
    },
    {
      "constant": true,
      "inputs": [
        {
          "name": "currencyCt",
          "type": "address"
        },
        {
          "name": "currencyId",
          "type": "uint256"
        }
      ],
      "name": "currencyPaymentMinimumFeesCount",
      "outputs": [
        {
          "name": "",
          "type": "uint256"
        }
      ],
      "payable": false,
      "stateMutability": "view",
      "type": "function"
    },
    {
      "constant": true,
      "inputs": [
        {
          "name": "blockNumber",
          "type": "uint256"
        },
        {
          "name": "currencyCt",
          "type": "address"
        },
        {
          "name": "currencyId",
          "type": "uint256"
        }
      ],
      "name": "currencyPaymentMinimumFee",
      "outputs": [
        {
          "name": "",
          "type": "int256"
        }
      ],
      "payable": false,
      "stateMutability": "view",
      "type": "function"
    },
    {
      "constant": false,
      "inputs": [
        {
          "name": "fromBlockNumber",
          "type": "uint256"
        },
        {
          "name": "currencyCt",
          "type": "address"
        },
        {
          "name": "currencyId",
          "type": "uint256"
        },
        {
          "name": "nominal",
          "type": "int256"
        }
      ],
      "name": "setCurrencyPaymentMinimumFee",
      "outputs": [],
      "payable": false,
      "stateMutability": "nonpayable",
      "type": "function"
    },
    {
      "constant": true,
      "inputs": [
        {
          "name": "currencyCt",
          "type": "address"
        },
        {
          "name": "currencyId",
          "type": "uint256"
        }
      ],
      "name": "feeCurrenciesCount",
      "outputs": [
        {
          "name": "",
          "type": "uint256"
        }
      ],
      "payable": false,
      "stateMutability": "view",
      "type": "function"
    },
    {
      "constant": true,
      "inputs": [
        {
          "name": "blockNumber",
          "type": "uint256"
        },
        {
          "name": "currencyCt",
          "type": "address"
        },
        {
          "name": "currencyId",
          "type": "uint256"
        }
      ],
      "name": "feeCurrency",
      "outputs": [
        {
          "name": "ct",
          "type": "address"
        },
        {
          "name": "id",
          "type": "uint256"
        }
      ],
      "payable": false,
      "stateMutability": "view",
      "type": "function"
    },
    {
      "constant": false,
      "inputs": [
        {
          "name": "fromBlockNumber",
          "type": "uint256"
        },
        {
          "name": "referenceCurrencyCt",
          "type": "address"
        },
        {
          "name": "referenceCurrencyId",
          "type": "uint256"
        },
        {
          "name": "feeCurrencyCt",
          "type": "address"
        },
        {
          "name": "feeCurrencyId",
          "type": "uint256"
        }
      ],
      "name": "setFeeCurrency",
      "outputs": [],
      "payable": false,
      "stateMutability": "nonpayable",
      "type": "function"
    },
    {
      "constant": true,
      "inputs": [],
      "name": "walletLockTimeout",
      "outputs": [
        {
          "name": "",
          "type": "uint256"
        }
      ],
      "payable": false,
      "stateMutability": "view",
      "type": "function"
    },
    {
      "constant": false,
      "inputs": [
        {
          "name": "fromBlockNumber",
          "type": "uint256"
        },
        {
          "name": "timeoutInSeconds",
          "type": "uint256"
        }
      ],
      "name": "setWalletLockTimeout",
      "outputs": [],
      "payable": false,
      "stateMutability": "nonpayable",
      "type": "function"
    },
    {
      "constant": true,
      "inputs": [],
      "name": "cancelOrderChallengeTimeout",
      "outputs": [
        {
          "name": "",
          "type": "uint256"
        }
      ],
      "payable": false,
      "stateMutability": "view",
      "type": "function"
    },
    {
      "constant": false,
      "inputs": [
        {
          "name": "fromBlockNumber",
          "type": "uint256"
        },
        {
          "name": "timeoutInSeconds",
          "type": "uint256"
        }
      ],
      "name": "setCancelOrderChallengeTimeout",
      "outputs": [],
      "payable": false,
      "stateMutability": "nonpayable",
      "type": "function"
    },
    {
      "constant": true,
      "inputs": [],
      "name": "settlementChallengeTimeout",
      "outputs": [
        {
          "name": "",
          "type": "uint256"
        }
      ],
      "payable": false,
      "stateMutability": "view",
      "type": "function"
    },
    {
      "constant": false,
      "inputs": [
        {
          "name": "fromBlockNumber",
          "type": "uint256"
        },
        {
          "name": "timeoutInSeconds",
          "type": "uint256"
        }
      ],
      "name": "setSettlementChallengeTimeout",
      "outputs": [],
      "payable": false,
      "stateMutability": "nonpayable",
      "type": "function"
    },
    {
      "constant": true,
      "inputs": [],
      "name": "walletSettlementStakeFraction",
      "outputs": [
        {
          "name": "",
          "type": "uint256"
        }
      ],
      "payable": false,
      "stateMutability": "view",
      "type": "function"
    },
    {
      "constant": false,
      "inputs": [
        {
          "name": "fromBlockNumber",
          "type": "uint256"
        },
        {
          "name": "stakeFraction",
          "type": "uint256"
        }
      ],
      "name": "setWalletSettlementStakeFraction",
      "outputs": [],
      "payable": false,
      "stateMutability": "nonpayable",
      "type": "function"
    },
    {
      "constant": true,
      "inputs": [],
      "name": "operatorSettlementStakeFraction",
      "outputs": [
        {
          "name": "",
          "type": "uint256"
        }
      ],
      "payable": false,
      "stateMutability": "view",
      "type": "function"
    },
    {
      "constant": false,
      "inputs": [
        {
          "name": "fromBlockNumber",
          "type": "uint256"
        },
        {
          "name": "stakeFraction",
          "type": "uint256"
        }
      ],
      "name": "setOperatorSettlementStakeFraction",
      "outputs": [],
      "payable": false,
      "stateMutability": "nonpayable",
      "type": "function"
    },
    {
      "constant": true,
      "inputs": [],
      "name": "fraudStakeFraction",
      "outputs": [
        {
          "name": "",
          "type": "uint256"
        }
      ],
      "payable": false,
      "stateMutability": "view",
      "type": "function"
    },
    {
      "constant": false,
      "inputs": [
        {
          "name": "fromBlockNumber",
          "type": "uint256"
        },
        {
          "name": "stakeFraction",
          "type": "uint256"
        }
      ],
      "name": "setFraudStakeFraction",
      "outputs": [],
      "payable": false,
      "stateMutability": "nonpayable",
      "type": "function"
    },
    {
      "constant": false,
      "inputs": [
        {
          "name": "_earliestSettlementBlockNumber",
          "type": "uint256"
        }
      ],
      "name": "setEarliestSettlementBlockNumber",
      "outputs": [],
      "payable": false,
      "stateMutability": "nonpayable",
      "type": "function"
    },
    {
      "constant": false,
      "inputs": [],
      "name": "disableEarliestSettlementBlockNumberUpdate",
      "outputs": [],
      "payable": false,
      "stateMutability": "nonpayable",
      "type": "function"
    }
  ],
  "bytecode": "0x60806040526004805460ff191690553480156200001b57600080fd5b50604051602080620035ec83398101806040526200003d919081019062000157565b8080600160a060020a03811615156200005557600080fd5b600160a060020a0381163014156200006c57600080fd5b506000805461010060a860020a031916610100600160a060020a039390931692830217815560018054600160a060020a031916909217909155620000c3906005904390640100000000620000ca81026200249a1704565b506200018c565b82541580620000fc5750825483906000198101908110620000e757fe5b90600052602060002090600202016000015482115b15156200010857600080fd5b6040805180820190915291825260208083019182528354600181810186556000958652919094209251600290940290920192835551910155565b600062000150825162000180565b9392505050565b6000602082840312156200016a57600080fd5b600062000178848462000142565b949350505050565b600160a060020a031690565b613450806200019c6000396000f3006080604052600436106103345763ffffffff60e060020a6000350416630783e3db81146103395780630f4e74691461035b57806312e5c65414610386578063158c1848146103b357806317ba3f90146103d35780631af78f09146104005780631b6eb59f146104205780632585f2781461044057806326c3acc3146104605780632738a11214610480578063273cc25f1461049557806328b5f95c146104b557806328eb2edd146104ca57806329ea3faa146104df5780632b5672e3146104f45780632b91e0a9146105145780632f013a00146105345780633b58c501146105495780633b7bea6c146105695780633b8bba6c1461057e57806342399aea1461059e5780634476d23b146105be578063460a58aa146105e05780634a6cf845146105f55780634fd9b0e51461061557806350b08c02146106355780635438773014610655578063570ca7351461066a5780635df1b0a31461067f57806363f6e0171461069f5780636c671a52146106bf5780636c98600c146106df57806370327ea1146106ff57806374bcea6b14610714578063768f594c14610734578063778228401461075457806377bad2cf146107745780637e15dd5c146107945780637e864666146107b4578063847bb182146107d4578063854e7fbf146107e9578063868a674f146107fe57806389eec486146108135780638e8cef121461082857806393d1243f14610848578063940b810014610868578063962147351461087d5780639699f3371461089d5780639bbb0ff2146108b2578063a329fad5146108c7578063ac00d3b2146108f5578063ad0860541461090a578063b12aa3431461092a578063b3ab15fb1461093f578063b6bf41761461095f578063b78272e014610974578063be18948014610996578063c136df85146109ab578063c1959cc5146109c0578063c946b6e9146109e0578063d5f39488146109f5578063d7f0f97114610a0a578063dc7dc62c14610a1f578063ecb41ad814610a3f578063efda7ffc14610a5f578063f69c70a014610a7f578063f71e860f14610a9f578063f8b37af014610ab4578063f8e6e88814610ad4578063fbdfd8e714610ae9578063fdd9ec7d14610afe578063fe98a9dc14610b1e575b600080fd5b34801561034557600080fd5b50610359610354366004613019565b610b3e565b005b34801561036757600080fd5b50610370610bd6565b60405161037d91906131c4565b60405180910390f35b34801561039257600080fd5b506103a66103a1366004612db6565b610bdf565b60405161037d91906131d2565b3480156103bf57600080fd5b506103a66103ce366004612e22565b610c1b565b3480156103df57600080fd5b506103f36103ee366004612d47565b610c99565b60405161037d91906131b6565b34801561040c57600080fd5b5061035961041b366004612e6f565b610ccd565b34801561042c57600080fd5b506103a661043b366004612ee4565b610d98565b34801561044c57600080fd5b5061035961045b366004612ffa565b610e19565b34801561046c57600080fd5b506103a661047b366004612ffa565b610ea9565b34801561048c57600080fd5b50610359610ebd565b3480156104a157600080fd5b506103a66104b0366004612e04565b610f23565b3480156104c157600080fd5b506103a6610f36565b3480156104d657600080fd5b506103a6610f48565b3480156104eb57600080fd5b506103a6610f54565b34801561050057600080fd5b5061035961050f366004612d65565b610f60565b34801561052057600080fd5b506103f361052f366004612d47565b61108e565b34801561054057600080fd5b506103f36110ac565b34801561055557600080fd5b50610359610564366004612d65565b6110b5565b34801561057557600080fd5b506103a6611195565b34801561058a57600080fd5b50610359610599366004612ffa565b61119b565b3480156105aa57600080fd5b506103596105b9366004612ffa565b61121e565b3480156105ca57600080fd5b506105d36112a1565b60405161037d9190613152565b3480156105ec57600080fd5b506103a66112b5565b34801561060157600080fd5b50610359610610366004613019565b6112c1565b34801561062157600080fd5b506103a6610630366004612db6565b61134a565b34801561064157600080fd5b50610359610650366004612d47565b611376565b34801561066157600080fd5b506103a6611438565b34801561067657600080fd5b506105d3611444565b34801561068b57600080fd5b506103f361069a366004612d65565b611453565b3480156106ab57600080fd5b506103596106ba366004613019565b6114a5565b3480156106cb57600080fd5b506103596106da366004612ffa565b61152e565b3480156106eb57600080fd5b506103a66106fa366004612ffa565b6115b1565b34801561070b57600080fd5b506103596115c5565b34801561072057600080fd5b5061035961072f366004612ffa565b611628565b34801561074057600080fd5b5061035961074f366004612ffa565b6116ab565b34801561076057600080fd5b5061035961076f366004612ffa565b61172e565b34801561078057600080fd5b5061035961078f366004612ffa565b6117b1565b3480156107a057600080fd5b506103596107af366004612e04565b611834565b3480156107c057600080fd5b506103a66107cf366004612db6565b611887565b3480156107e057600080fd5b506103a66118b3565b3480156107f557600080fd5b506103a66118bf565b34801561080a57600080fd5b506103a66118cb565b34801561081f57600080fd5b506103a66118d7565b34801561083457600080fd5b50610359610843366004612d47565b6118e3565b34801561085457600080fd5b50610359610863366004612ffa565b611961565b34801561087457600080fd5b506103a66119e4565b34801561088957600080fd5b50610359610898366004612d47565b6119f0565b3480156108a957600080fd5b506103a6611aae565b3480156108be57600080fd5b50610359611aba565b3480156108d357600080fd5b506108e76108e2366004612e22565b611b05565b60405161037d92919061319b565b34801561090157600080fd5b506103a6611b5c565b34801561091657600080fd5b506103a6610925366004612ffa565b611b68565b34801561093657600080fd5b506103a6611b7c565b34801561094b57600080fd5b5061035961095a366004612d47565b611b88565b34801561096b57600080fd5b506103a6611c32565b34801561098057600080fd5b50610989611c38565b60405161037d91906131e0565b3480156109a257600080fd5b506103f3611c65565b3480156109b757600080fd5b506103a6611c82565b3480156109cc57600080fd5b506103596109db366004612ee4565b611c8e565b3480156109ec57600080fd5b506103a6611d37565b348015610a0157600080fd5b506105d3611d43565b348015610a1657600080fd5b506103f3611d57565b348015610a2b57600080fd5b506103a6610a3a366004612e04565b611d60565b348015610a4b57600080fd5b506103a6610a5a366004612e04565b611d73565b348015610a6b57600080fd5b50610359610a7a366004612ffa565b611d86565b348015610a8b57600080fd5b50610359610a9a366004612e04565b611e09565b348015610aab57600080fd5b506103f3611e51565b348015610ac057600080fd5b50610359610acf366004612f45565b611e6c565b348015610ae057600080fd5b50610359611f2c565b348015610af557600080fd5b506103a6611fa3565b348015610b0a57600080fd5b50610359610b19366004612d47565b611faf565b348015610b2a57600080fd5b50610359610b39366004612ffa565b612028565b610b466120ab565b1515610b5157600080fd5b83610b5c60056120bc565b1580610b735750610b6d60056120c0565b43018110155b1515610b7e57600080fd5b610b9260078686868663ffffffff6120cc16565b7f8ec36e523af9a3433562968ade78ee302be3c4306c6815d30bc17fbc6f658f4485858585604051610bc794939291906132f0565b60405180910390a15050505050565b60045460ff1681565b6000610c12604080519081016040528085600160a060020a0316815260200184815250600f61219590919063ffffffff16565b90505b92915050565b600160a060020a0382166000908152600e602090815260408083208484529091528120610c47906120bc565b60001015610c8957600160a060020a0383166000908152600e602090815260408083208584529091529020610c82908563ffffffff6121bf16565b9050610c92565b610c8284610f23565b9392505050565b6000610ca48261108e565b8015610c15575050600160a060020a031660009081526002602052604090206001015442101590565b610cd56120ab565b1515610ce057600080fd5b84610ceb60056120bc565b1580610d025750610cfc60056120c0565b43018110155b1515610d0d57600080fd5b604080518082018252600160a060020a0380881682526020808301889052835180850190945290861683528201849052610d5191600f91899163ffffffff6121d616565b7fd6db40c81246b0bc2d29bb51b5d58d3e36502ac9898ab35237d4136a5172c2b28686868686604051610d889594939291906131f1565b60405180910390a1505050505050565b600160a060020a0383166000908152600a602090815260408083208584529091528120610dc4906120bc565b60001015610e0757600160a060020a0384166000908152600a602090815260408083208684529091529020610e0090868463ffffffff6122f216565b9050610e11565b610e008583611b68565b949350505050565b610e216120ab565b1515610e2c57600080fd5b81610e3760056120bc565b1580610e4e5750610e4860056120c0565b43018110155b1515610e5957600080fd5b610e6b600d848463ffffffff61249a16565b7f8db08e27454fa2b4fb1a49c88f48d25b6561af54f240ad2f3beb4887830f1e9d8383604051610e9c9291906132e2565b60405180910390a1505050565b6000610c126007848463ffffffff6122f216565b33610ec66112a1565b600160a060020a031614610ed957600080fd5b60005460ff1615610ee957600080fd5b7f787a5d936e74f4b564b9153575886059829c78cd9927b1be5e0d976b317ef73633604051610f189190613152565b60405180910390a133ff5b6000610c15600d8363ffffffff6121bf16565b6000610f4260136120c0565b90505b90565b6000610f42600d6120bc565b6000610f4260106120c0565b6000610f6a61250f565b1515610f7557600080fd5b82600160a060020a0381161515610f8b57600080fd5b600160a060020a038116301415610fa157600080fd5b600160a060020a03841660009081526002602052604090205460ff161515610fc857600080fd5b610fd183612525565b600160a060020a0385166000908152600260208181526040808420858552909201905290205490925060ff161561100757600080fd5b600160a060020a03841660009081526002602081815260408084208685528084018352818520805460ff19166001908117909155938352600301805493840181558452922001839055517fec1b982d69bfc1a6fd8becf191d9a633486c822d3bdedd52303ca81fa635750190611080908690869061317b565b60405180910390a150505050565b600160a060020a031660009081526002602052604090205460ff1690565b60005460ff1681565b60006110bf61250f565b15156110ca57600080fd5b82600160a060020a03811615156110e057600080fd5b600160a060020a0381163014156110f657600080fd5b6110ff83612525565b600160a060020a0385166000908152600260208181526040808420858552909201905290205490925060ff16151561113657600080fd5b600160a060020a0384166000908152600260208181526040808420868552909201905290819020805460ff19169055517f92f4af6130f47c92f3899e06611c8c6ef191fb81207ad2675d134af619d2fe7d90611080908690869061317b565b60035481565b6111a36120ab565b15156111ae57600080fd5b816111b960056120bc565b15806111d057506111ca60056120c0565b43018110155b15156111db57600080fd5b6111ed6010848463ffffffff61249a16565b7f599f1c845a3e9ff375e1e3c7e61a6ff2faac7ed7e9cc45db40fd2b73f53845048383604051610e9c9291906132e2565b6112266120ab565b151561123157600080fd5b8161123c60056120bc565b1580611253575061124d60056120c0565b43018110155b151561125e57600080fd5b6112706013848463ffffffff61249a16565b7f46627504a56b77179118cc2fc2139516c5abaa99efc1d64afa509f91be130c458383604051610e9c9291906132e2565b6000546101009004600160a060020a031690565b6000610f4260066120c0565b6112c96120ab565b15156112d457600080fd5b836112df60056120bc565b15806112f657506112f060056120c0565b43018110155b151561130157600080fd5b61131560098686868663ffffffff6120cc16565b7f8dcd79c2f73c725f825147941deccba2addafb9f7f2e775777710f5debba966885858585604051610bc794939291906132f0565b600160a060020a0382166000908152600e602090815260408083208484529091528120610c12906120bc565b61137e61250f565b151561138957600080fd5b80600160a060020a038116151561139f57600080fd5b600160a060020a0381163014156113b557600080fd5b600160a060020a03821660009081526002602052604090205460ff1615156113dc57600080fd5b600160a060020a03821660009081526002602052604090819020805460ff19169055517f777645c5437dfbf962f57a281ead25f3d513f2f8e938685bbfc1738e81c9880e9061142c908490613152565b60405180910390a15050565b6000610f42600b6120bc565b600154600160a060020a031681565b60008061145f83612525565b905061146a84610c99565b801561149b5750600160a060020a0384166000908152600260208181526040808420858552909201905290205460ff165b91505b5092915050565b6114ad6120ab565b15156114b857600080fd5b836114c360056120bc565b15806114da57506114d460056120c0565b43018110155b15156114e557600080fd5b6114f960088686868663ffffffff6120cc16565b7fd3143532264a48ed8985128261dac4f97460a18e532266606874e734e5f9511985858585604051610bc794939291906132f0565b6115366120ab565b151561154157600080fd5b8161154c60056120bc565b1580611563575061155d60056120c0565b43018110155b151561156e57600080fd5b611580600c848463ffffffff61249a16565b7f4c67330f24d50310990ba512d41f5016c43176108456cdf8b3afa5f2c56c72e18383604051610e9c9291906132e2565b6000610c126008848463ffffffff6122f216565b336115ce6112a1565b600160a060020a0316146115e157600080fd5b6000805460ff191660011790556040517fd5a2a04a775c741c2ca0dc46ea7ce4835190e1aaf1ca018def0e82568ec336169061161e903390613152565b60405180910390a1565b6116306120ab565b151561163b57600080fd5b8161164660056120bc565b158061165d575061165760056120c0565b43018110155b151561166857600080fd5b61167a6014848463ffffffff61249a16565b7f89d1e4eeae3e50e6d57909b1ff05821c208283d43c3c6eede3463fce9801bcbf8383604051610e9c9291906132e2565b6116b36120ab565b15156116be57600080fd5b816116c960056120bc565b15806116e057506116da60056120c0565b43018110155b15156116eb57600080fd5b6116fd6012848463ffffffff61249a16565b7ffaae0268144aeab0eb789ad33da1cc7f926da22cdc4cfb89e4c2dcc87cf719248383604051610e9c9291906132e2565b6117366120ab565b151561174157600080fd5b8161174c60056120bc565b1580611763575061175d60056120c0565b43018110155b151561176e57600080fd5b6117806005848463ffffffff61249a16565b7fb18e0b90fd56f3d1f73c768d7f107937813899fe6676f8348f996ad670b990048383604051610e9c9291906132e2565b6117b96120ab565b15156117c457600080fd5b816117cf60056120bc565b15806117e657506117e060056120c0565b43018110155b15156117f157600080fd5b6118036015848463ffffffff61249a16565b7fb04162ce72310207d5c9ceced2e6df3ddd15272642b0e53af3c7e83f0d0dc4918383604051610e9c9291906132e2565b61183c61250f565b151561184757600080fd5b60038190556040517f4f1d324a1cbffc352fb64f1d73d95e4b200d92f99ef39bf2d7f5b41f946909d69061187c9083906131d2565b60405180910390a150565b600160a060020a0382166000908152600a602090815260408083208484529091528120610c12906120bc565b6000610f4260086120bc565b6000610f4260056120bc565b6000610f4260096120bc565b6000610f42600c6120bc565b6118eb61250f565b15156118f657600080fd5b80600160a060020a038116151561190c57600080fd5b600160a060020a03811630141561192257600080fd5b61192e8260035461260a565b7f7f3a8349917003ed377f6e9ae1608b92edd893903f8983bd274b1f8373dd3b118260035460405161142c92919061319b565b6119696120ab565b151561197457600080fd5b8161197f60056120bc565b1580611996575061199060056120c0565b43018110155b15156119a157600080fd5b6119b36011848463ffffffff61249a16565b7f081f0b4c81d1de8d02805cc089a2d5a665837d8c19b438f4558128149df8fcfc8383604051610e9c9291906132e2565b6000610f4260116120c0565b60006119fa61250f565b1515611a0557600080fd5b81600160a060020a0381161515611a1b57600080fd5b600160a060020a038116301415611a3157600080fd5b600054600160a060020a038481166101009092041614611aa95760008054600160a060020a0385811661010090810261010060a860020a0319841617909355604051929091041692507f977e5fa58e458501775e0008d275006294c5249e3c08d1d0e3a9f3acad14f6e490610e9c9084908690613160565b505050565b6000610f4260156120c0565b611ac26120ab565b1515611acd57600080fd5b6017805460ff191660011790556040517f99d6c8c83d6b3086e44ac9a4cff201904eb96dc84e20289516e1d6d5f387d30c90600090a1565b6000806000611b3d604080519081016040528087600160a060020a031681526020018681525087600f61265c9092919063ffffffff16565b8054600190910154600160a060020a0390911697909650945050505050565b6000610f4260146120c0565b6000610c126009848463ffffffff6122f216565b6000610f4260076120bc565b6000611b926120ab565b1515611b9d57600080fd5b81600160a060020a0381161515611bb357600080fd5b600160a060020a038116301415611bc957600080fd5b600154600160a060020a03848116911614611aa95760018054600160a060020a03858116600160a060020a0319831617909255604051911692507f9f611b789425d0d5b90b920f1b2852907dd865c80074a30b1629aaa041d1812c90610e9c9084908690613160565b60165481565b6040805180820190915260108152608060020a6f6f7065726174696f6e616c5f6d6f646502602082015281565b60045460009060ff166001811115611c7957fe5b60015b14905090565b6000610f4260066120bc565b611c966120ab565b1515611ca157600080fd5b83611cac60056120bc565b1580611cc35750611cbd60056120c0565b43018110155b1515611cce57600080fd5b600160a060020a0384166000908152600e602090815260408083208684529091529020611d0290868463ffffffff61249a16565b7ffed51dfd288a74f4e3f4fd59cad1bb9151c6f8e27c781c703ce6ea532e3deac285858585604051610bc7949392919061323d565b6000610f4260056120c0565b6000546101009004600160a060020a031681565b60175460ff1681565b6000610c15600b8363ffffffff6121bf16565b6000610c15600c8363ffffffff6121bf16565b611d8e6120ab565b1515611d9957600080fd5b81611da460056120bc565b1580611dbb5750611db560056120c0565b43018110155b1515611dc657600080fd5b611dd8600b848463ffffffff61249a16565b7f3fb8054aedc542a59b81ca6dd84e6ed5a0f62964ea31cb27f2d61d7f36f2a3428383604051610e9c9291906132e2565b611e116120ab565b1515611e1c57600080fd5b60168190556040517fece7c57702b5ad94b9848802d1e225954b064cd5538fd55082e3e29c29474e459061187c9083906131d2565b60045460009060ff166001811115611e6557fe5b6000611c7c565b611e746120ab565b1515611e7f57600080fd5b85611e8a60056120bc565b1580611ea15750611e9b60056120c0565b43018110155b1515611eac57600080fd5b600160a060020a0386166000908152600a602090815260408083208884529091529020611ee2908886868663ffffffff6120cc16565b7ff3fafbde2ad0fcd494a4d98dbde01b8571066edaa67de40a48d794b0583efd0a878787878787604051611f1b9695949392919061327b565b60405180910390a150505050505050565b6040805180820190915260108152608060020a6f6f7065726174696f6e616c5f6d6f6465026020820152611f603382611453565b1515611f6b57600080fd5b6004805460ff191660011790556040517e4feb6c9c7b4bc8e858a1e16b46315cd121d46eb476f1d2a0b79c1508b89e3290600090a150565b6000610f4260126120c0565b611fb761250f565b1515611fc257600080fd5b80600160a060020a0381161515611fd857600080fd5b600160a060020a038116301415611fee57600080fd5b611ff982600061260a565b7fb619d545cb511bd5f02907a1eac4f4cb8dace7b1846852fb0bf5e553937481c18260405161142c9190613152565b6120306120ab565b151561203b57600080fd5b8161204660056120bc565b158061205d575061205760056120c0565b43018110155b151561206857600080fd5b61207a6006848463ffffffff61249a16565b7febf63d40c9708ad4550ba5278373615a245fcf66e7b70faf9e6b8b90396fa2c88383604051610e9c9291906132e2565b600154600160a060020a0316331490565b5490565b6000610c158243612674565b600080825184511415156120df57600080fd5b6120ea878787612680565b8654879060001981019081106120fc57fe5b90600052602060002090600302019150600090505b835181101561218c57816002016040805190810160405280868481518110151561213757fe5b906020019060200201518152602001858481518110151561215457fe5b602090810290910181015190915282546001818101855560009485529382902083516002909202019081559101519082015501612111565b50505050505050565b8051600160a060020a03166000908152602092835260408082209284015182529190925290205490565b60006121cb83836126fd565b602001519392505050565b8151600160a060020a0316600090815260208581526040808320828601518452909152902054158061226957508151600160a060020a03908116600090815260208681526040808320828701805185529083528184208751909516845288835281842090518452909152902054815460001990910190811061225457fe5b90600052602060002090600302016000015483115b151561227457600080fd5b8151600160a060020a0390811660009081526020958652604080822094870151825293865283812084518086019095529484528386019283528454600180820187559582529086902093516003909102909301928355905180519383018054600160a060020a03191694909216939093179055910151600290910155565b60006122fc612b78565b6000612308868661274f565b9150816040015151600010156124895761232682604001518561280d565b905080600010156124895761248273__ConstantsLib__________________________62a123336040518163ffffffff1660e060020a02815260040160206040518083038186803b15801561237a57600080fd5b505af415801561238e573d6000803e3d6000fd5b505050506040513d601f19601f820116820180604052506123b29190810190612de6565b6124766124658560400151600186038151811015156123cd57fe5b906020019060200201516020015173__ConstantsLib__________________________62a123336040518163ffffffff1660e060020a02815260040160206040518083038186803b15801561242157600080fd5b505af4158015612435573d6000803e3d6000fd5b505050506040513d601f19601f820116820180604052506124599190810190612de6565b9063ffffffff61286a16565b60208601519063ffffffff6128a616565b9063ffffffff61290f16565b9250612491565b816020015192505b50509392505050565b825415806124ca57508254839060001981019081106124b557fe5b90600052602060002090600202016000015482115b15156124d557600080fd5b6040805180820190915291825260208083019182528354600181810186556000958652919094209251600290940290920192835551910155565b6000546101009004600160a060020a0316331490565b6000816040516020018082805190602001908083835b6020831061255a5780518252601f19909201916020918201910161253b565b6001836020036101000a0380198251168184511680821785525050505050509050019150506040516020818303038152906040526040518082805190602001908083835b602083106125bd5780518252601f19909201916020918201910161259e565b5181516020939093036101000a6000190180199091169216919091179052604051920182900390912095945050505050565b825415806124ca57508254839060001981019081106124b557fe5b600160a060020a03821660009081526002602052604090205460ff16151561265857600160a060020a0382166000908152600260205260409020805460ff1916600190811782554283019101555b5050565b6000612669848484612944565b600101949350505050565b60006121cb8383612995565b825460009015806126b3575083548490600019810190811061269e57fe5b90600052602060002090600302016000015483115b15156126be57600080fd5b83546126cd8560018301612b9a565b508354849060001981019081106126e057fe5b600091825260209091206003909102019283555060019091015550565b612705612bc6565b8261271081846129a8565b8154811061271a57fe5b906000526020600020906002020160408051908101604052908160008201548152602001600182015481525050905092915050565b612757612b78565b826127628184612a00565b8154811061276c57fe5b906000526020600020906003020160606040519081016040529081600082015481526020016001820154815260200160028201805480602002602001604051908101604052809291908181526020016000905b828210156127fe5760008481526020908190206040805180820190915260028502909101805482526001908101548284015290835290920191016127bf565b50505091525090949350505050565b6000808351600010151561282057600080fd5b5082515b600081111561286057836001820381518110151561283e57fe5b602090810290910101515183126128575780915061149e565b60001901612824565b5060009392505050565b600080821215801561287e57508282840313155b806128955750600082128015612895575082828403135b15156128a057600080fd5b50900390565b600080836000191415806128be575060ff60020a8314155b15156128c957600080fd5b826000191415806128de575060ff60020a8414155b15156128e957600080fd5b50828202821580612904575083838281151561290157fe5b05145b1515610c9257600080fd5b600060ff60020a8314158061292657508160001914155b151561293157600080fd5b818381151561293c57fe5b059392505050565b8151600160a060020a03166000908152602084815260408083208286015184529091528120612974858585612a58565b8154811061297e57fe5b906000526020600020906003020190509392505050565b61299d612bc6565b826127108184612b20565b8154600090819081106129ba57600080fd5b508254600019015b600081106103345783548490829081106129d857fe5b600091825260209091206002909102015483106129f75780915061149e565b600019016129c2565b815460009081908110612a1257600080fd5b508254600019015b60008110610334578354849082908110612a3057fe5b60009182526020909120600390910201548310612a4f5780915061149e565b60001901612a1a565b8151600160a060020a031660009081526020848152604080832082860151845290915281205481908110612a8b57600080fd5b508251600160a060020a0316600090815260208581526040808320828701518452909152902054600019015b60008110610334578351600160a060020a03166000908152602086815260408083208288015184529091529020805482908110612af057fe5b60009182526020909120600390910201548310612b0f57809150612b18565b60001901612ab7565b509392505050565b815460009081908110612b3257600080fd5b508254600019015b60008110610334578354849082908110612b5057fe5b60009182526020909120600290910201548310612b6f5780915061149e565b60001901612b3a565b6060604051908101604052806000815260200160008152602001606081525090565b815481835581811115611aa957600302816003028360005260206000209182019101611aa99190612bdd565b604080518082019091526000808252602082015290565b610f4591905b80821115612c0d57600080825560018201819055612c046002830182612c11565b50600301612be3565b5090565b5080546000825560020290600052602060002090810190612c329190612c35565b50565b610f4591905b80821115612c0d5760008082556001820155600201612c3b565b6000610c1282356133a8565b6000601f82018313612c7257600080fd5b8135612c85612c8082613357565b613331565b91508181835260208401935060208101905083856020840282011115612caa57600080fd5b60005b83811015612cd65781612cc08882612ce0565b8452506020928301929190910190600101612cad565b5050505092915050565b6000610c128235610f45565b6000610c128251610f45565b6000601f82018313612d0957600080fd5b8135612d17612c8082613377565b91508082526020830160208301858383011115612d3357600080fd5b612d3e8382846133d0565b50505092915050565b600060208284031215612d5957600080fd5b600061149b8484612c55565b60008060408385031215612d7857600080fd5b6000612d848585612c55565b92505060208301356001604060020a03811115612da057600080fd5b612dac85828601612cf8565b9150509250929050565b60008060408385031215612dc957600080fd5b6000612dd58585612c55565b9250506020612dac85828601612ce0565b600060208284031215612df857600080fd5b600061149b8484612cec565b600060208284031215612e1657600080fd5b600061149b8484612ce0565b600080600060608486031215612e3757600080fd5b6000612e438686612ce0565b9350506020612e5486828701612c55565b9250506040612e6586828701612ce0565b9150509250925092565b600080600080600060a08688031215612e8757600080fd5b6000612e938888612ce0565b9550506020612ea488828901612c55565b9450506040612eb588828901612ce0565b9350506060612ec688828901612c55565b9250506080612ed788828901612ce0565b9150509295509295909350565b60008060008060808587031215612efa57600080fd5b6000612f068787612ce0565b9450506020612f1787828801612c55565b9350506040612f2887828801612ce0565b9250506060612f3987828801612ce0565b91505092959194509250565b60008060008060008060c08789031215612f5e57600080fd5b6000612f6a8989612ce0565b9650506020612f7b89828a01612c55565b9550506040612f8c89828a01612ce0565b9450506060612f9d89828a01612ce0565b93505060808701356001604060020a03811115612fb957600080fd5b612fc589828a01612c61565b92505060a08701356001604060020a03811115612fe157600080fd5b612fed89828a01612c61565b9150509295509295509295565b6000806040838503121561300d57600080fd5b6000612dd58585612ce0565b6000806000806080858703121561302f57600080fd5b600061303b8787612ce0565b945050602061304c87828801612ce0565b93505060408501356001604060020a0381111561306857600080fd5b61307487828801612c61565b92505060608501356001604060020a0381111561309057600080fd5b612f3987828801612c61565b6130a5816133a8565b82525050565b60006130b6826133a4565b8084526020840193506130c88361339e565b60005b828110156130f8576130de868351613114565b6130e78261339e565b6020969096019591506001016130cb565b5093949350505050565b6130a5816133b4565b6130a5816133c5565b6130a581610f45565b6000613128826133a4565b80845261313c8160208601602086016133dc565b6131458161340c565b9093016020019392505050565b60208101610c15828461309c565b6040810161316e828561309c565b610c92602083018461309c565b60408101613189828561309c565b8181036020830152610e11818461311d565b604081016131a9828561309c565b610c926020830184613114565b60208101610c158284613102565b60208101610c15828461310b565b60208101610c158284613114565b60208082528101610c12818461311d565b60a081016131ff8288613114565b61320c602083018761309c565b6132196040830186613114565b613226606083018561309c565b6132336080830184613114565b9695505050505050565b6080810161324b8287613114565b613258602083018661309c565b6132656040830185613114565b6132726060830184613114565b95945050505050565b60c081016132898289613114565b613296602083018861309c565b6132a36040830187613114565b6132b06060830186613114565b81810360808301526132c281856130ab565b905081810360a08301526132d681846130ab565b98975050505050505050565b604081016131a98285613114565b608081016132fe8287613114565b61330b6020830186613114565b818103604083015261331d81856130ab565b9050818103606083015261323381846130ab565b6040518181016001604060020a038111828210171561334f57600080fd5b604052919050565b60006001604060020a0382111561336d57600080fd5b5060209081020190565b60006001604060020a0382111561338d57600080fd5b506020601f91909101601f19160190565b60200190565b5190565b600160a060020a031690565b151590565b600060028210612c0d57fe5b6000610c15826133b9565b82818337506000910152565b60005b838110156133f75781810151838201526020016133df565b83811115613406576000848401525b50505050565b601f01601f1916905600a265627a7a723058204a4f1e9b8029788a85debf9481e35684ca973f5e87d3ff8115600f82898e7e306c6578706572696d656e74616cf50037",
  "source": "/*\n * Hubii Nahmii\n *\n * Compliant with the Hubii Nahmii specification v0.12.\n *\n * Copyright (C) 2017-2018 Hubii AS\n */\n\npragma solidity ^0.4.25;\npragma experimental ABIEncoderV2;\n\nimport {Modifiable} from \"./Modifiable.sol\";\nimport {Ownable} from \"./Ownable.sol\";\nimport {Servable} from \"./Servable.sol\";\nimport {SafeMathIntLib} from \"./SafeMathIntLib.sol\";\nimport {BlockNumbUintsLib} from \"./BlockNumbUintsLib.sol\";\nimport {BlockNumbIntsLib} from \"./BlockNumbIntsLib.sol\";\nimport {BlockNumbDisdIntsLib} from \"./BlockNumbDisdIntsLib.sol\";\nimport {MonetaryTypesLib} from \"./MonetaryTypesLib.sol\";\nimport {BlockNumbCurrenciesLib} from \"./BlockNumbCurrenciesLib.sol\";\nimport {ConstantsLib} from \"./ConstantsLib.sol\";\n\n/**\n * @title Configuration\n * @notice An oracle for configurations values\n */\ncontract Configuration is Modifiable, Ownable, Servable {\n    using SafeMathIntLib for int256;\n    using BlockNumbUintsLib for BlockNumbUintsLib.BlockNumbUints;\n    using BlockNumbIntsLib for BlockNumbIntsLib.BlockNumbInts;\n    using BlockNumbDisdIntsLib for BlockNumbDisdIntsLib.BlockNumbDisdInts;\n    using BlockNumbCurrenciesLib for BlockNumbCurrenciesLib.BlockNumbCurrencies;\n\n    //\n    // Constants\n    // -----------------------------------------------------------------------------------------------------------------\n    string constant public OPERATIONAL_MODE_ACTION = \"operational_mode\";\n\n    //\n    // Enums\n    // -----------------------------------------------------------------------------------------------------------------\n    enum OperationalMode {Normal, Exit}\n\n    //\n    // Variables\n    // -----------------------------------------------------------------------------------------------------------------\n    OperationalMode public operationalMode = OperationalMode.Normal;\n\n    BlockNumbUintsLib.BlockNumbUints private updateDelayBlocksByBlockNumber;\n    BlockNumbUintsLib.BlockNumbUints private confirmationBlocksByBlockNumber;\n\n    BlockNumbDisdIntsLib.BlockNumbDisdInts private tradeMakerFeeByBlockNumber;\n    BlockNumbDisdIntsLib.BlockNumbDisdInts private tradeTakerFeeByBlockNumber;\n    BlockNumbDisdIntsLib.BlockNumbDisdInts private paymentFeeByBlockNumber;\n    mapping(address => mapping(uint256 => BlockNumbDisdIntsLib.BlockNumbDisdInts)) private currencyPaymentFeeByBlockNumber;\n\n    BlockNumbIntsLib.BlockNumbInts private tradeMakerMinimumFeeByBlockNumber;\n    BlockNumbIntsLib.BlockNumbInts private tradeTakerMinimumFeeByBlockNumber;\n    BlockNumbIntsLib.BlockNumbInts private paymentMinimumFeeByBlockNumber;\n    mapping(address => mapping(uint256 => BlockNumbIntsLib.BlockNumbInts)) private currencyPaymentMinimumFeeByBlockNumber;\n\n    BlockNumbCurrenciesLib.BlockNumbCurrencies private feeCurrencies;\n\n    BlockNumbUintsLib.BlockNumbUints private walletLockTimeoutByBlockNumber;\n    BlockNumbUintsLib.BlockNumbUints private cancelOrderChallengeTimeoutByBlockNumber;\n    BlockNumbUintsLib.BlockNumbUints private settlementChallengeTimeoutByBlockNumber;\n\n    BlockNumbUintsLib.BlockNumbUints private walletSettlementStakeFractionByBlockNumber;\n    BlockNumbUintsLib.BlockNumbUints private operatorSettlementStakeFractionByBlockNumber;\n    BlockNumbUintsLib.BlockNumbUints private fraudStakeFractionByBlockNumber;\n\n    uint256 public earliestSettlementBlockNumber;\n    bool public earliestSettlementBlockNumberUpdateDisabled;\n\n    //\n    // Events\n    // -----------------------------------------------------------------------------------------------------------------\n    event SetOperationalModeExitEvent();\n    event SetUpdateDelayBlocksEvent(uint256 fromBlockNumber, uint256 newBlocks);\n    event SetConfirmationBlocksEvent(uint256 fromBlockNumber, uint256 newBlocks);\n    event SetTradeMakerFeeEvent(uint256 fromBlockNumber, int256 nominal, int256[] discountTiers, int256[] discountValues);\n    event SetTradeTakerFeeEvent(uint256 fromBlockNumber, int256 nominal, int256[] discountTiers, int256[] discountValues);\n    event SetPaymentFeeEvent(uint256 fromBlockNumber, int256 nominal, int256[] discountTiers, int256[] discountValues);\n    event SetCurrencyPaymentFeeEvent(uint256 fromBlockNumber, address currencyCt, uint256 currencyId, int256 nominal,\n        int256[] discountTiers, int256[] discountValues);\n    event SetTradeMakerMinimumFeeEvent(uint256 fromBlockNumber, int256 nominal);\n    event SetTradeTakerMinimumFeeEvent(uint256 fromBlockNumber, int256 nominal);\n    event SetPaymentMinimumFeeEvent(uint256 fromBlockNumber, int256 nominal);\n    event SetCurrencyPaymentMinimumFeeEvent(uint256 fromBlockNumber, address currencyCt, uint256 currencyId, int256 nominal);\n    event SetFeeCurrencyEvent(uint256 fromBlockNumber, address referenceCurrencyCt, uint256 referenceCurrencyId,\n        address feeCurrencyCt, uint256 feeCurrencyId);\n    event SetWalletLockTimeoutEvent(uint256 fromBlockNumber, uint256 timeoutInSeconds);\n    event SetCancelOrderChallengeTimeoutEvent(uint256 fromBlockNumber, uint256 timeoutInSeconds);\n    event SetSettlementChallengeTimeoutEvent(uint256 fromBlockNumber, uint256 timeoutInSeconds);\n    event SetWalletSettlementStakeFractionEvent(uint256 fromBlockNumber, uint256 stakeFraction);\n    event SetOperatorSettlementStakeFractionEvent(uint256 fromBlockNumber, uint256 stakeFraction);\n    event SetFraudStakeFractionEvent(uint256 fromBlockNumber, uint256 stakeFraction);\n    event SetEarliestSettlementBlockNumberEvent(uint256 earliestSettlementBlockNumber);\n    event DisableEarliestSettlementBlockNumberUpdateEvent();\n\n    //\n    // Constructor\n    // -----------------------------------------------------------------------------------------------------------------\n    constructor(address deployer) Ownable(deployer) public {\n        updateDelayBlocksByBlockNumber.addEntry(block.number, 0);\n    }\n\n    //\n\n    // Public functions\n    // -----------------------------------------------------------------------------------------------------------------\n    /// @notice Set operational mode to Exit\n    /// @dev Once operational mode is set to Exit it may not be set back to Normal\n    function setOperationalModeExit()\n    public\n    onlyEnabledServiceAction(OPERATIONAL_MODE_ACTION)\n    {\n        operationalMode = OperationalMode.Exit;\n        emit SetOperationalModeExitEvent();\n    }\n\n    /// @notice Return true if operational mode is Normal\n    function isOperationalModeNormal()\n    public\n    view\n    returns (bool)\n    {\n        return OperationalMode.Normal == operationalMode;\n    }\n\n    /// @notice Return true if operational mode is Exit\n    function isOperationalModeExit()\n    public\n    view\n    returns (bool)\n    {\n        return OperationalMode.Exit == operationalMode;\n    }\n\n    /// @notice Get the current value of update delay blocks\n    /// @return The value of update delay blocks\n    function updateDelayBlocks()\n    public\n    view\n    returns (uint256)\n    {\n        return updateDelayBlocksByBlockNumber.currentValue();\n    }\n\n    /// @notice Get the count of update delay blocks values\n    /// @return The count of update delay blocks values\n    function updateDelayBlocksCount()\n    public\n    view\n    returns (uint256)\n    {\n        return updateDelayBlocksByBlockNumber.count();\n    }\n\n    /// @notice Set the number of update delay blocks\n    /// @param fromBlockNumber Block number from which the update applies\n    /// @param newUpdateDelayBlocks The new update delay blocks value\n    function setUpdateDelayBlocks(uint256 fromBlockNumber, uint256 newUpdateDelayBlocks)\n    public\n    onlyOperator\n    onlyDelayedBlockNumber(fromBlockNumber)\n    {\n        updateDelayBlocksByBlockNumber.addEntry(fromBlockNumber, newUpdateDelayBlocks);\n        emit SetUpdateDelayBlocksEvent(fromBlockNumber, newUpdateDelayBlocks);\n    }\n\n    /// @notice Get the current value of confirmation blocks\n    /// @return The value of confirmation blocks\n    function confirmationBlocks()\n    public\n    view\n    returns (uint256)\n    {\n        return confirmationBlocksByBlockNumber.currentValue();\n    }\n\n    /// @notice Get the count of confirmation blocks values\n    /// @return The count of confirmation blocks values\n    function confirmationBlocksCount()\n    public\n    view\n    returns (uint256)\n    {\n        return confirmationBlocksByBlockNumber.count();\n    }\n\n    /// @notice Set the number of confirmation blocks\n    /// @param fromBlockNumber Block number from which the update applies\n    /// @param newConfirmationBlocks The new confirmation blocks value\n    function setConfirmationBlocks(uint256 fromBlockNumber, uint256 newConfirmationBlocks)\n    public\n    onlyOperator\n    onlyDelayedBlockNumber(fromBlockNumber)\n    {\n        confirmationBlocksByBlockNumber.addEntry(fromBlockNumber, newConfirmationBlocks);\n        emit SetConfirmationBlocksEvent(fromBlockNumber, newConfirmationBlocks);\n    }\n\n    /// @notice Get number of trade maker fee block number tiers\n    function tradeMakerFeesCount()\n    public\n    view\n    returns (uint256)\n    {\n        return tradeMakerFeeByBlockNumber.count();\n    }\n\n    /// @notice Get trade maker relative fee at given block number, possibly discounted by discount tier value\n    /// @param blockNumber The concerned block number\n    /// @param discountTier The concerned discount tier\n    function tradeMakerFee(uint256 blockNumber, int256 discountTier)\n    public\n    view\n    returns (int256)\n    {\n        return tradeMakerFeeByBlockNumber.discountedValueAt(blockNumber, discountTier);\n    }\n\n    /// @notice Set trade maker nominal relative fee and discount tiers and values at given block number tier\n    /// @param fromBlockNumber Block number from which the update applies\n    /// @param nominal Nominal relative fee\n    /// @param nominal Discount tier levels\n    /// @param nominal Discount values\n    function setTradeMakerFee(uint256 fromBlockNumber, int256 nominal, int256[] discountTiers, int256[] discountValues)\n    public\n    onlyOperator\n    onlyDelayedBlockNumber(fromBlockNumber)\n    {\n        tradeMakerFeeByBlockNumber.addDiscountedEntry(fromBlockNumber, nominal, discountTiers, discountValues);\n        emit SetTradeMakerFeeEvent(fromBlockNumber, nominal, discountTiers, discountValues);\n    }\n\n    /// @notice Get number of trade taker fee block number tiers\n    function tradeTakerFeesCount()\n    public\n    view\n    returns (uint256)\n    {\n        return tradeTakerFeeByBlockNumber.count();\n    }\n\n    /// @notice Get trade taker relative fee at given block number, possibly discounted by discount tier value\n    /// @param blockNumber The concerned block number\n    /// @param discountTier The concerned discount tier\n    function tradeTakerFee(uint256 blockNumber, int256 discountTier)\n    public\n    view\n    returns (int256)\n    {\n        return tradeTakerFeeByBlockNumber.discountedValueAt(blockNumber, discountTier);\n    }\n\n    /// @notice Set trade taker nominal relative fee and discount tiers and values at given block number tier\n    /// @param fromBlockNumber Block number from which the update applies\n    /// @param nominal Nominal relative fee\n    /// @param nominal Discount tier levels\n    /// @param nominal Discount values\n    function setTradeTakerFee(uint256 fromBlockNumber, int256 nominal, int256[] discountTiers, int256[] discountValues)\n    public\n    onlyOperator\n    onlyDelayedBlockNumber(fromBlockNumber)\n    {\n        tradeTakerFeeByBlockNumber.addDiscountedEntry(fromBlockNumber, nominal, discountTiers, discountValues);\n        emit SetTradeTakerFeeEvent(fromBlockNumber, nominal, discountTiers, discountValues);\n    }\n\n    /// @notice Get number of payment fee block number tiers\n    function paymentFeesCount()\n    public\n    view\n    returns (uint256)\n    {\n        return paymentFeeByBlockNumber.count();\n    }\n\n    /// @notice Get payment relative fee at given block number, possibly discounted by discount tier value\n    /// @param blockNumber The concerned block number\n    /// @param discountTier The concerned discount tier\n    function paymentFee(uint256 blockNumber, int256 discountTier)\n    public\n    view\n    returns (int256)\n    {\n        return paymentFeeByBlockNumber.discountedValueAt(blockNumber, discountTier);\n    }\n\n    /// @notice Set payment nominal relative fee and discount tiers and values at given block number tier\n    /// @param fromBlockNumber Block number from which the update applies\n    /// @param nominal Nominal relative fee\n    /// @param nominal Discount tier levels\n    /// @param nominal Discount values\n    function setPaymentFee(uint256 fromBlockNumber, int256 nominal, int256[] discountTiers, int256[] discountValues)\n    public\n    onlyOperator\n    onlyDelayedBlockNumber(fromBlockNumber)\n    {\n        paymentFeeByBlockNumber.addDiscountedEntry(fromBlockNumber, nominal, discountTiers, discountValues);\n        emit SetPaymentFeeEvent(fromBlockNumber, nominal, discountTiers, discountValues);\n    }\n\n    /// @notice Get number of payment fee block number tiers of given currency\n    /// @param currencyCt The address of the concerned currency contract (address(0) == ETH)\n    /// @param currencyId The ID of the concerned currency (0 for ETH and ERC20)\n    function currencyPaymentFeesCount(address currencyCt, uint256 currencyId)\n    public\n    view\n    returns (uint256)\n    {\n        return currencyPaymentFeeByBlockNumber[currencyCt][currencyId].count();\n    }\n\n    /// @notice Get payment relative fee for given currency at given block number, possibly discounted by\n    /// discount tier value\n    /// @param blockNumber The concerned block number\n    /// @param currencyCt The address of the concerned currency contract (address(0) == ETH)\n    /// @param currencyId The ID of the concerned currency (0 for ETH and ERC20)\n    /// @param discountTier The concerned discount tier\n    function currencyPaymentFee(uint256 blockNumber, address currencyCt, uint256 currencyId, int256 discountTier)\n    public\n    view\n    returns (int256)\n    {\n        if (0 < currencyPaymentFeeByBlockNumber[currencyCt][currencyId].count())\n            return currencyPaymentFeeByBlockNumber[currencyCt][currencyId].discountedValueAt(\n                blockNumber, discountTier\n            );\n        else\n            return paymentFee(blockNumber, discountTier);\n    }\n\n    /// @notice Set payment nominal relative fee and discount tiers and values for given currency at given\n    /// block number tier\n    /// @param fromBlockNumber Block number from which the update applies\n    /// @param currencyCt The address of the concerned currency contract (address(0) == ETH)\n    /// @param currencyId The ID of the concerned currency (0 for ETH and ERC20)\n    /// @param nominal Nominal relative fee\n    /// @param nominal Discount tier levels\n    /// @param nominal Discount values\n    function setCurrencyPaymentFee(uint256 fromBlockNumber, address currencyCt, uint256 currencyId, int256 nominal,\n        int256[] discountTiers, int256[] discountValues)\n    public\n    onlyOperator\n    onlyDelayedBlockNumber(fromBlockNumber)\n    {\n        currencyPaymentFeeByBlockNumber[currencyCt][currencyId].addDiscountedEntry(\n            fromBlockNumber, nominal, discountTiers, discountValues\n        );\n        emit SetCurrencyPaymentFeeEvent(\n            fromBlockNumber, currencyCt, currencyId, nominal, discountTiers, discountValues\n        );\n    }\n\n    /// @notice Get number of minimum trade maker fee block number tiers\n    function tradeMakerMinimumFeesCount()\n    public\n    view\n    returns (uint256)\n    {\n        return tradeMakerMinimumFeeByBlockNumber.count();\n    }\n\n    /// @notice Get trade maker minimum relative fee at given block number\n    /// @param blockNumber The concerned block number\n    function tradeMakerMinimumFee(uint256 blockNumber)\n    public\n    view\n    returns (int256)\n    {\n        return tradeMakerMinimumFeeByBlockNumber.valueAt(blockNumber);\n    }\n\n    /// @notice Set trade maker minimum relative fee at given block number tier\n    /// @param fromBlockNumber Block number from which the update applies\n    /// @param nominal Minimum relative fee\n    function setTradeMakerMinimumFee(uint256 fromBlockNumber, int256 nominal)\n    public\n    onlyOperator\n    onlyDelayedBlockNumber(fromBlockNumber)\n    {\n        tradeMakerMinimumFeeByBlockNumber.addEntry(fromBlockNumber, nominal);\n        emit SetTradeMakerMinimumFeeEvent(fromBlockNumber, nominal);\n    }\n\n    /// @notice Get number of minimum trade taker fee block number tiers\n    function tradeTakerMinimumFeesCount()\n    public\n    view\n    returns (uint256)\n    {\n        return tradeTakerMinimumFeeByBlockNumber.count();\n    }\n\n    /// @notice Get trade taker minimum relative fee at given block number\n    /// @param blockNumber The concerned block number\n    function tradeTakerMinimumFee(uint256 blockNumber)\n    public\n    view\n    returns (int256)\n    {\n        return tradeTakerMinimumFeeByBlockNumber.valueAt(blockNumber);\n    }\n\n    /// @notice Set trade taker minimum relative fee at given block number tier\n    /// @param fromBlockNumber Block number from which the update applies\n    /// @param nominal Minimum relative fee\n    function setTradeTakerMinimumFee(uint256 fromBlockNumber, int256 nominal)\n    public\n    onlyOperator\n    onlyDelayedBlockNumber(fromBlockNumber)\n    {\n        tradeTakerMinimumFeeByBlockNumber.addEntry(fromBlockNumber, nominal);\n        emit SetTradeTakerMinimumFeeEvent(fromBlockNumber, nominal);\n    }\n\n    /// @notice Get number of minimum payment fee block number tiers\n    function paymentMinimumFeesCount()\n    public\n    view\n    returns (uint256)\n    {\n        return paymentMinimumFeeByBlockNumber.count();\n    }\n\n    /// @notice Get payment minimum relative fee at given block number\n    /// @param blockNumber The concerned block number\n    function paymentMinimumFee(uint256 blockNumber)\n    public\n    view\n    returns (int256)\n    {\n        return paymentMinimumFeeByBlockNumber.valueAt(blockNumber);\n    }\n\n    /// @notice Set payment minimum relative fee at given block number tier\n    /// @param fromBlockNumber Block number from which the update applies\n    /// @param nominal Minimum relative fee\n    function setPaymentMinimumFee(uint256 fromBlockNumber, int256 nominal)\n    public\n    onlyOperator\n    onlyDelayedBlockNumber(fromBlockNumber)\n    {\n        paymentMinimumFeeByBlockNumber.addEntry(fromBlockNumber, nominal);\n        emit SetPaymentMinimumFeeEvent(fromBlockNumber, nominal);\n    }\n\n    /// @notice Get number of minimum payment fee block number tiers for given currency\n    /// @param currencyCt The address of the concerned currency contract (address(0) == ETH)\n    /// @param currencyId The ID of the concerned currency (0 for ETH and ERC20)\n    function currencyPaymentMinimumFeesCount(address currencyCt, uint256 currencyId)\n    public\n    view\n    returns (uint256)\n    {\n        return currencyPaymentMinimumFeeByBlockNumber[currencyCt][currencyId].count();\n    }\n\n    /// @notice Get payment minimum relative fee for given currency at given block number\n    /// @param blockNumber The concerned block number\n    /// @param currencyCt The address of the concerned currency contract (address(0) == ETH)\n    /// @param currencyId The ID of the concerned currency (0 for ETH and ERC20)\n    function currencyPaymentMinimumFee(uint256 blockNumber, address currencyCt, uint256 currencyId)\n    public\n    view\n    returns (int256)\n    {\n        if (0 < currencyPaymentMinimumFeeByBlockNumber[currencyCt][currencyId].count())\n            return currencyPaymentMinimumFeeByBlockNumber[currencyCt][currencyId].valueAt(blockNumber);\n        else\n            return paymentMinimumFee(blockNumber);\n    }\n\n    /// @notice Set payment minimum relative fee for given currency at given block number tier\n    /// @param fromBlockNumber Block number from which the update applies\n    /// @param currencyCt The address of the concerned currency contract (address(0) == ETH)\n    /// @param currencyId The ID of the concerned currency (0 for ETH and ERC20)\n    /// @param nominal Minimum relative fee\n    function setCurrencyPaymentMinimumFee(uint256 fromBlockNumber, address currencyCt, uint256 currencyId, int256 nominal)\n    public\n    onlyOperator\n    onlyDelayedBlockNumber(fromBlockNumber)\n    {\n        currencyPaymentMinimumFeeByBlockNumber[currencyCt][currencyId].addEntry(fromBlockNumber, nominal);\n        emit SetCurrencyPaymentMinimumFeeEvent(fromBlockNumber, currencyCt, currencyId, nominal);\n    }\n\n    /// @notice Get number of fee currencies for the given reference currency\n    /// @param currencyCt The address of the concerned reference currency contract (address(0) == ETH)\n    /// @param currencyId The ID of the concerned reference currency (0 for ETH and ERC20)\n    function feeCurrenciesCount(address currencyCt, uint256 currencyId)\n    public\n    view\n    returns (uint256)\n    {\n        return feeCurrencies.count(MonetaryTypesLib.Currency(currencyCt, currencyId));\n    }\n\n    /// @notice Get the fee currency for the given reference currency at given block number\n    /// @param blockNumber The concerned block number\n    /// @param currencyCt The address of the concerned reference currency contract (address(0) == ETH)\n    /// @param currencyId The ID of the concerned reference currency (0 for ETH and ERC20)\n    function feeCurrency(uint256 blockNumber, address currencyCt, uint256 currencyId)\n    public\n    view\n    returns (address ct, uint256 id)\n    {\n        MonetaryTypesLib.Currency storage _feeCurrency = feeCurrencies.currencyAt(\n            MonetaryTypesLib.Currency(currencyCt, currencyId), blockNumber\n        );\n        ct = _feeCurrency.ct;\n        id = _feeCurrency.id;\n    }\n\n    /// @notice Set the fee currency for the given reference currency at given block number\n    /// @param fromBlockNumber Block number from which the update applies\n    /// @param referenceCurrencyCt The address of the concerned reference currency contract (address(0) == ETH)\n    /// @param referenceCurrencyId The ID of the concerned reference currency (0 for ETH and ERC20)\n    /// @param feeCurrencyCt The address of the concerned fee currency contract (address(0) == ETH)\n    /// @param feeCurrencyId The ID of the concerned fee currency (0 for ETH and ERC20)\n    function setFeeCurrency(uint256 fromBlockNumber, address referenceCurrencyCt, uint256 referenceCurrencyId,\n        address feeCurrencyCt, uint256 feeCurrencyId)\n    public\n    onlyOperator\n    onlyDelayedBlockNumber(fromBlockNumber)\n    {\n        feeCurrencies.addEntry(\n            fromBlockNumber,\n            MonetaryTypesLib.Currency(referenceCurrencyCt, referenceCurrencyId),\n            MonetaryTypesLib.Currency(feeCurrencyCt, feeCurrencyId)\n        );\n        emit SetFeeCurrencyEvent(fromBlockNumber, referenceCurrencyCt, referenceCurrencyId,\n            feeCurrencyCt, feeCurrencyId);\n    }\n\n    /// @notice Get the current value of wallet lock timeout\n    /// @return The value of wallet lock timeout\n    function walletLockTimeout()\n    public\n    view\n    returns (uint256)\n    {\n        return walletLockTimeoutByBlockNumber.currentValue();\n    }\n\n    /// @notice Set timeout of wallet lock\n    /// @param fromBlockNumber Block number from which the update applies\n    /// @param timeoutInSeconds Timeout duration in seconds\n    function setWalletLockTimeout(uint256 fromBlockNumber, uint256 timeoutInSeconds)\n    public\n    onlyOperator\n    onlyDelayedBlockNumber(fromBlockNumber)\n    {\n        walletLockTimeoutByBlockNumber.addEntry(fromBlockNumber, timeoutInSeconds);\n        emit SetWalletLockTimeoutEvent(fromBlockNumber, timeoutInSeconds);\n    }\n\n    /// @notice Get the current value of cancel order challenge timeout\n    /// @return The value of cancel order challenge timeout\n    function cancelOrderChallengeTimeout()\n    public\n    view\n    returns (uint256)\n    {\n        return cancelOrderChallengeTimeoutByBlockNumber.currentValue();\n    }\n\n    /// @notice Set timeout of cancel order challenge\n    /// @param fromBlockNumber Block number from which the update applies\n    /// @param timeoutInSeconds Timeout duration in seconds\n    function setCancelOrderChallengeTimeout(uint256 fromBlockNumber, uint256 timeoutInSeconds)\n    public\n    onlyOperator\n    onlyDelayedBlockNumber(fromBlockNumber)\n    {\n        cancelOrderChallengeTimeoutByBlockNumber.addEntry(fromBlockNumber, timeoutInSeconds);\n        emit SetCancelOrderChallengeTimeoutEvent(fromBlockNumber, timeoutInSeconds);\n    }\n\n    /// @notice Get the current value of settlement challenge timeout\n    /// @return The value of settlement challenge timeout\n    function settlementChallengeTimeout()\n    public\n    view\n    returns (uint256)\n    {\n        return settlementChallengeTimeoutByBlockNumber.currentValue();\n    }\n\n    /// @notice Set timeout of settlement challenges\n    /// @param fromBlockNumber Block number from which the update applies\n    /// @param timeoutInSeconds Timeout duration in seconds\n    function setSettlementChallengeTimeout(uint256 fromBlockNumber, uint256 timeoutInSeconds)\n    public\n    onlyOperator\n    onlyDelayedBlockNumber(fromBlockNumber)\n    {\n        settlementChallengeTimeoutByBlockNumber.addEntry(fromBlockNumber, timeoutInSeconds);\n        emit SetSettlementChallengeTimeoutEvent(fromBlockNumber, timeoutInSeconds);\n    }\n\n    /// @notice Get the current value of wallet settlement stake fraction\n    /// @return The value of wallet settlement stake fraction\n    function walletSettlementStakeFraction()\n    public\n    view\n    returns (uint256)\n    {\n        return walletSettlementStakeFractionByBlockNumber.currentValue();\n    }\n\n    /// @notice Set fraction of security bond that will be gained from successfully challenging\n    /// in settlement challenge triggered by wallet\n    /// @param fromBlockNumber Block number from which the update applies\n    /// @param stakeFraction The fraction gained\n    function setWalletSettlementStakeFraction(uint256 fromBlockNumber, uint256 stakeFraction)\n    public\n    onlyOperator\n    onlyDelayedBlockNumber(fromBlockNumber)\n    {\n        walletSettlementStakeFractionByBlockNumber.addEntry(fromBlockNumber, stakeFraction);\n        emit SetWalletSettlementStakeFractionEvent(fromBlockNumber, stakeFraction);\n    }\n\n    /// @notice Get the current value of operator settlement stake fraction\n    /// @return The value of operator settlement stake fraction\n    function operatorSettlementStakeFraction()\n    public\n    view\n    returns (uint256)\n    {\n        return operatorSettlementStakeFractionByBlockNumber.currentValue();\n    }\n\n    /// @notice Set fraction of security bond that will be gained from successfully challenging\n    /// in settlement challenge triggered by operator\n    /// @param fromBlockNumber Block number from which the update applies\n    /// @param stakeFraction The fraction gained\n    function setOperatorSettlementStakeFraction(uint256 fromBlockNumber, uint256 stakeFraction)\n    public\n    onlyOperator\n    onlyDelayedBlockNumber(fromBlockNumber)\n    {\n        operatorSettlementStakeFractionByBlockNumber.addEntry(fromBlockNumber, stakeFraction);\n        emit SetOperatorSettlementStakeFractionEvent(fromBlockNumber, stakeFraction);\n    }\n\n    /// @notice Get the current value of fraud stake fraction\n    /// @return The value of fraud stake fraction\n    function fraudStakeFraction()\n    public\n    view\n    returns (uint256)\n    {\n        return fraudStakeFractionByBlockNumber.currentValue();\n    }\n\n    /// @notice Set fraction of security bond that will be gained from successfully challenging\n    /// in fraud challenge\n    /// @param fromBlockNumber Block number from which the update applies\n    /// @param stakeFraction The fraction gained\n    function setFraudStakeFraction(uint256 fromBlockNumber, uint256 stakeFraction)\n    public\n    onlyOperator\n    onlyDelayedBlockNumber(fromBlockNumber)\n    {\n        fraudStakeFractionByBlockNumber.addEntry(fromBlockNumber, stakeFraction);\n        emit SetFraudStakeFractionEvent(fromBlockNumber, stakeFraction);\n    }\n\n    /// @notice Set the block number of the earliest settlement initiation\n    /// @param _earliestSettlementBlockNumber The block number of the earliest settlement\n    function setEarliestSettlementBlockNumber(uint256 _earliestSettlementBlockNumber)\n    public\n    onlyOperator\n    {\n        earliestSettlementBlockNumber = _earliestSettlementBlockNumber;\n        emit SetEarliestSettlementBlockNumberEvent(earliestSettlementBlockNumber);\n    }\n\n    /// @notice Disable further updates to the earliest settlement block number\n    /// @dev This operation can not be undone\n    function disableEarliestSettlementBlockNumberUpdate()\n    public\n    onlyOperator\n    {\n        earliestSettlementBlockNumberUpdateDisabled = true;\n        emit DisableEarliestSettlementBlockNumberUpdateEvent();\n    }\n\n    //\n    // Modifiers\n    // -----------------------------------------------------------------------------------------------------------------\n    modifier onlyDelayedBlockNumber(uint256 blockNumber) {\n        require(\n            0 == updateDelayBlocksByBlockNumber.count() ||\n        blockNumber >= block.number + updateDelayBlocksByBlockNumber.currentValue()\n        );\n        _;\n    }\n}",
  "sourcePath": "/opt/buildagent/work/855e104608380c36/contracts/Configuration.sol",
  "compiler": {
    "name": "solc",
    "version": "0.4.25+commit.59dbf8f1.Emscripten.clang"
  },
  "schemaVersion": "2.0.1",
  "updatedAt": "2018-12-20T16:25:35.286Z"
}