{
  "contractName": "DriipSettlementDisputeByTrade",
  "abi": [
    {
      "constant": false,
      "inputs": [
        {
          "name": "newFraudChallenge",
          "type": "address"
        }
      ],
      "name": "setFraudChallenge",
      "outputs": [],
      "payable": false,
      "stateMutability": "nonpayable",
      "type": "function"
    },
    {
      "constant": true,
      "inputs": [],
      "name": "cancelOrdersChallenge",
      "outputs": [
        {
          "name": "",
          "type": "address"
        }
      ],
      "payable": false,
      "stateMutability": "view",
      "type": "function"
    },
    {
      "constant": true,
      "inputs": [],
      "name": "CHALLENGE_BY_TRADE_ACTION",
      "outputs": [
        {
          "name": "",
          "type": "string"
        }
      ],
      "payable": false,
      "stateMutability": "view",
      "type": "function"
    },
    {
      "constant": true,
      "inputs": [],
      "name": "UNCHALLENGE_ORDER_CANDIDATE_BY_TRADE_ACTION",
      "outputs": [
        {
          "name": "",
          "type": "string"
        }
      ],
      "payable": false,
      "stateMutability": "view",
      "type": "function"
    },
    {
      "constant": false,
      "inputs": [
        {
          "name": "newValidator",
          "type": "address"
        }
      ],
      "name": "setValidator",
      "outputs": [],
      "payable": false,
      "stateMutability": "nonpayable",
      "type": "function"
    },
    {
      "constant": true,
      "inputs": [],
      "name": "CHALLENGE_BY_ORDER_ACTION",
      "outputs": [
        {
          "name": "",
          "type": "string"
        }
      ],
      "payable": false,
      "stateMutability": "view",
      "type": "function"
    },
    {
      "constant": true,
      "inputs": [
        {
          "name": "service",
          "type": "address"
        }
      ],
      "name": "isRegisteredActiveService",
      "outputs": [
        {
          "name": "",
          "type": "bool"
        }
      ],
      "payable": false,
      "stateMutability": "view",
      "type": "function"
    },
    {
      "constant": true,
      "inputs": [],
      "name": "walletLockerFrozen",
      "outputs": [
        {
          "name": "",
          "type": "bool"
        }
      ],
      "payable": false,
      "stateMutability": "view",
      "type": "function"
    },
    {
      "constant": false,
      "inputs": [],
      "name": "triggerSelfDestruction",
      "outputs": [],
      "payable": false,
      "stateMutability": "nonpayable",
      "type": "function"
    },
    {
      "constant": false,
      "inputs": [
        {
          "name": "service",
          "type": "address"
        },
        {
          "name": "action",
          "type": "string"
        }
      ],
      "name": "enableServiceAction",
      "outputs": [],
      "payable": false,
      "stateMutability": "nonpayable",
      "type": "function"
    },
    {
      "constant": true,
      "inputs": [
        {
          "name": "service",
          "type": "address"
        }
      ],
      "name": "isRegisteredService",
      "outputs": [
        {
          "name": "",
          "type": "bool"
        }
      ],
      "payable": false,
      "stateMutability": "view",
      "type": "function"
    },
    {
      "constant": true,
      "inputs": [],
      "name": "selfDestructionDisabled",
      "outputs": [
        {
          "name": "",
          "type": "bool"
        }
      ],
      "payable": false,
      "stateMutability": "view",
      "type": "function"
    },
    {
      "constant": true,
      "inputs": [],
      "name": "validator",
      "outputs": [
        {
          "name": "",
          "type": "address"
        }
      ],
      "payable": false,
      "stateMutability": "view",
      "type": "function"
    },
    {
      "constant": false,
      "inputs": [
        {
          "name": "service",
          "type": "address"
        },
        {
          "name": "action",
          "type": "string"
        }
      ],
      "name": "disableServiceAction",
      "outputs": [],
      "payable": false,
      "stateMutability": "nonpayable",
      "type": "function"
    },
    {
      "constant": true,
      "inputs": [],
      "name": "serviceActivationTimeout",
      "outputs": [
        {
          "name": "",
          "type": "uint256"
        }
      ],
      "payable": false,
      "stateMutability": "view",
      "type": "function"
    },
    {
      "constant": true,
      "inputs": [],
      "name": "fraudChallenge",
      "outputs": [
        {
          "name": "",
          "type": "address"
        }
      ],
      "payable": false,
      "stateMutability": "view",
      "type": "function"
    },
    {
      "constant": false,
      "inputs": [
        {
          "name": "newCancelOrdersChallenge",
          "type": "address"
        }
      ],
      "name": "setCancelOrdersChallenge",
      "outputs": [],
      "payable": false,
      "stateMutability": "nonpayable",
      "type": "function"
    },
    {
      "constant": true,
      "inputs": [],
      "name": "destructor",
      "outputs": [
        {
          "name": "",
          "type": "address"
        }
      ],
      "payable": false,
      "stateMutability": "view",
      "type": "function"
    },
    {
      "constant": false,
      "inputs": [
        {
          "name": "service",
          "type": "address"
        }
      ],
      "name": "deregisterService",
      "outputs": [],
      "payable": false,
      "stateMutability": "nonpayable",
      "type": "function"
    },
    {
      "constant": true,
      "inputs": [],
      "name": "driipSettlementChallengeState",
      "outputs": [
        {
          "name": "",
          "type": "address"
        }
      ],
      "payable": false,
      "stateMutability": "view",
      "type": "function"
    },
    {
      "constant": true,
      "inputs": [],
      "name": "operator",
      "outputs": [
        {
          "name": "",
          "type": "address"
        }
      ],
      "payable": false,
      "stateMutability": "view",
      "type": "function"
    },
    {
      "constant": false,
      "inputs": [],
      "name": "freezeWalletLocker",
      "outputs": [],
      "payable": false,
      "stateMutability": "nonpayable",
      "type": "function"
    },
    {
      "constant": true,
      "inputs": [
        {
          "name": "service",
          "type": "address"
        },
        {
          "name": "action",
          "type": "string"
        }
      ],
      "name": "isEnabledServiceAction",
      "outputs": [
        {
          "name": "",
          "type": "bool"
        }
      ],
      "payable": false,
      "stateMutability": "view",
      "type": "function"
    },
    {
      "constant": false,
      "inputs": [
        {
          "name": "newConfiguration",
          "type": "address"
        }
      ],
      "name": "setConfiguration",
      "outputs": [],
      "payable": false,
      "stateMutability": "nonpayable",
      "type": "function"
    },
    {
      "constant": false,
      "inputs": [
        {
          "name": "newSecurityBond",
          "type": "address"
        }
      ],
      "name": "setSecurityBond",
      "outputs": [],
      "payable": false,
      "stateMutability": "nonpayable",
      "type": "function"
    },
    {
      "constant": true,
      "inputs": [],
      "name": "securityBond",
      "outputs": [
        {
          "name": "",
          "type": "address"
        }
      ],
      "payable": false,
      "stateMutability": "view",
      "type": "function"
    },
    {
      "constant": true,
      "inputs": [],
      "name": "configuration",
      "outputs": [
        {
          "name": "",
          "type": "address"
        }
      ],
      "payable": false,
      "stateMutability": "view",
      "type": "function"
    },
    {
      "constant": false,
      "inputs": [],
      "name": "disableSelfDestruction",
      "outputs": [],
      "payable": false,
      "stateMutability": "nonpayable",
      "type": "function"
    },
    {
      "constant": false,
      "inputs": [
        {
          "name": "timeoutInSeconds",
          "type": "uint256"
        }
      ],
      "name": "setServiceActivationTimeout",
      "outputs": [],
      "payable": false,
      "stateMutability": "nonpayable",
      "type": "function"
    },
    {
      "constant": false,
      "inputs": [
        {
          "name": "newWalletLocker",
          "type": "address"
        }
      ],
      "name": "setWalletLocker",
      "outputs": [],
      "payable": false,
      "stateMutability": "nonpayable",
      "type": "function"
    },
    {
      "constant": false,
      "inputs": [
        {
          "name": "service",
          "type": "address"
        }
      ],
      "name": "registerServiceDeferred",
      "outputs": [],
      "payable": false,
      "stateMutability": "nonpayable",
      "type": "function"
    },
    {
      "constant": false,
      "inputs": [
        {
          "name": "newDeployer",
          "type": "address"
        }
      ],
      "name": "setDeployer",
      "outputs": [],
      "payable": false,
      "stateMutability": "nonpayable",
      "type": "function"
    },
    {
      "constant": false,
      "inputs": [
        {
          "name": "newOperator",
          "type": "address"
        }
      ],
      "name": "setOperator",
      "outputs": [],
      "payable": false,
      "stateMutability": "nonpayable",
      "type": "function"
    },
    {
      "constant": true,
      "inputs": [],
      "name": "deployer",
      "outputs": [
        {
          "name": "",
          "type": "address"
        }
      ],
      "payable": false,
      "stateMutability": "view",
      "type": "function"
    },
    {
      "constant": true,
      "inputs": [],
      "name": "walletLocker",
      "outputs": [
        {
          "name": "",
          "type": "address"
        }
      ],
      "payable": false,
      "stateMutability": "view",
      "type": "function"
    },
    {
      "constant": false,
      "inputs": [
        {
          "name": "service",
          "type": "address"
        }
      ],
      "name": "registerService",
      "outputs": [],
      "payable": false,
      "stateMutability": "nonpayable",
      "type": "function"
    },
    {
      "inputs": [
        {
          "name": "deployer",
          "type": "address"
        }
      ],
      "payable": false,
      "stateMutability": "nonpayable",
      "type": "constructor"
    },
    {
      "anonymous": false,
      "inputs": [
        {
          "indexed": false,
          "name": "oldDriipSettlementChallengeState",
          "type": "address"
        },
        {
          "indexed": false,
          "name": "newDriipSettlementChallengeState",
          "type": "address"
        }
      ],
      "name": "SetDriipSettlementChallengeStateEvent",
      "type": "event"
    },
    {
      "anonymous": false,
      "inputs": [
        {
          "indexed": false,
          "name": "nonce",
          "type": "uint256"
        },
        {
          "components": [
            {
              "name": "nonce",
              "type": "uint256"
            },
            {
              "name": "wallet",
              "type": "address"
            },
            {
              "components": [
                {
                  "name": "intention",
                  "type": "uint8"
                },
                {
                  "name": "amount",
                  "type": "int256"
                },
                {
                  "components": [
                    {
                      "components": [
                        {
                          "name": "ct",
                          "type": "address"
                        },
                        {
                          "name": "id",
                          "type": "uint256"
                        }
                      ],
                      "name": "intended",
                      "type": "tuple"
                    },
                    {
                      "components": [
                        {
                          "name": "ct",
                          "type": "address"
                        },
                        {
                          "name": "id",
                          "type": "uint256"
                        }
                      ],
                      "name": "conjugate",
                      "type": "tuple"
                    }
                  ],
                  "name": "currencies",
                  "type": "tuple"
                },
                {
                  "name": "rate",
                  "type": "int256"
                },
                {
                  "components": [
                    {
                      "name": "current",
                      "type": "int256"
                    },
                    {
                      "name": "previous",
                      "type": "int256"
                    }
                  ],
                  "name": "residuals",
                  "type": "tuple"
                }
              ],
              "name": "placement",
              "type": "tuple"
            },
            {
              "components": [
                {
                  "components": [
                    {
                      "name": "hash",
                      "type": "bytes32"
                    },
                    {
                      "components": [
                        {
                          "name": "r",
                          "type": "bytes32"
                        },
                        {
                          "name": "s",
                          "type": "bytes32"
                        },
                        {
                          "name": "v",
                          "type": "uint8"
                        }
                      ],
                      "name": "signature",
                      "type": "tuple"
                    }
                  ],
                  "name": "wallet",
                  "type": "tuple"
                },
                {
                  "components": [
                    {
                      "name": "hash",
                      "type": "bytes32"
                    },
                    {
                      "components": [
                        {
                          "name": "r",
                          "type": "bytes32"
                        },
                        {
                          "name": "s",
                          "type": "bytes32"
                        },
                        {
                          "name": "v",
                          "type": "uint8"
                        }
                      ],
                      "name": "signature",
                      "type": "tuple"
                    }
                  ],
                  "name": "operator",
                  "type": "tuple"
                }
              ],
              "name": "seals",
              "type": "tuple"
            },
            {
              "name": "blockNumber",
              "type": "uint256"
            },
            {
              "name": "operatorId",
              "type": "uint256"
            }
          ],
          "indexed": false,
          "name": "order",
          "type": "tuple"
        },
        {
          "indexed": false,
          "name": "challenger",
          "type": "address"
        }
      ],
      "name": "ChallengeByOrderEvent",
      "type": "event"
    },
    {
      "anonymous": false,
      "inputs": [
        {
          "indexed": false,
          "name": "nonce",
          "type": "uint256"
        },
        {
          "components": [
            {
              "name": "nonce",
              "type": "uint256"
            },
            {
              "name": "wallet",
              "type": "address"
            },
            {
              "components": [
                {
                  "name": "intention",
                  "type": "uint8"
                },
                {
                  "name": "amount",
                  "type": "int256"
                },
                {
                  "components": [
                    {
                      "components": [
                        {
                          "name": "ct",
                          "type": "address"
                        },
                        {
                          "name": "id",
                          "type": "uint256"
                        }
                      ],
                      "name": "intended",
                      "type": "tuple"
                    },
                    {
                      "components": [
                        {
                          "name": "ct",
                          "type": "address"
                        },
                        {
                          "name": "id",
                          "type": "uint256"
                        }
                      ],
                      "name": "conjugate",
                      "type": "tuple"
                    }
                  ],
                  "name": "currencies",
                  "type": "tuple"
                },
                {
                  "name": "rate",
                  "type": "int256"
                },
                {
                  "components": [
                    {
                      "name": "current",
                      "type": "int256"
                    },
                    {
                      "name": "previous",
                      "type": "int256"
                    }
                  ],
                  "name": "residuals",
                  "type": "tuple"
                }
              ],
              "name": "placement",
              "type": "tuple"
            },
            {
              "components": [
                {
                  "components": [
                    {
                      "name": "hash",
                      "type": "bytes32"
                    },
                    {
                      "components": [
                        {
                          "name": "r",
                          "type": "bytes32"
                        },
                        {
                          "name": "s",
                          "type": "bytes32"
                        },
                        {
                          "name": "v",
                          "type": "uint8"
                        }
                      ],
                      "name": "signature",
                      "type": "tuple"
                    }
                  ],
                  "name": "wallet",
                  "type": "tuple"
                },
                {
                  "components": [
                    {
                      "name": "hash",
                      "type": "bytes32"
                    },
                    {
                      "components": [
                        {
                          "name": "r",
                          "type": "bytes32"
                        },
                        {
                          "name": "s",
                          "type": "bytes32"
                        },
                        {
                          "name": "v",
                          "type": "uint8"
                        }
                      ],
                      "name": "signature",
                      "type": "tuple"
                    }
                  ],
                  "name": "operator",
                  "type": "tuple"
                }
              ],
              "name": "seals",
              "type": "tuple"
            },
            {
              "name": "blockNumber",
              "type": "uint256"
            },
            {
              "name": "operatorId",
              "type": "uint256"
            }
          ],
          "indexed": false,
          "name": "order",
          "type": "tuple"
        },
        {
          "components": [
            {
              "name": "nonce",
              "type": "uint256"
            },
            {
              "name": "amount",
              "type": "int256"
            },
            {
              "components": [
                {
                  "components": [
                    {
                      "name": "ct",
                      "type": "address"
                    },
                    {
                      "name": "id",
                      "type": "uint256"
                    }
                  ],
                  "name": "intended",
                  "type": "tuple"
                },
                {
                  "components": [
                    {
                      "name": "ct",
                      "type": "address"
                    },
                    {
                      "name": "id",
                      "type": "uint256"
                    }
                  ],
                  "name": "conjugate",
                  "type": "tuple"
                }
              ],
              "name": "currencies",
              "type": "tuple"
            },
            {
              "name": "rate",
              "type": "int256"
            },
            {
              "components": [
                {
                  "name": "nonce",
                  "type": "uint256"
                },
                {
                  "name": "wallet",
                  "type": "address"
                },
                {
                  "name": "rollingVolume",
                  "type": "uint256"
                },
                {
                  "name": "liquidityRole",
                  "type": "uint8"
                },
                {
                  "components": [
                    {
                      "name": "amount",
                      "type": "int256"
                    },
                    {
                      "components": [
                        {
                          "name": "wallet",
                          "type": "bytes32"
                        },
                        {
                          "name": "operator",
                          "type": "bytes32"
                        }
                      ],
                      "name": "hashes",
                      "type": "tuple"
                    },
                    {
                      "components": [
                        {
                          "name": "current",
                          "type": "int256"
                        },
                        {
                          "name": "previous",
                          "type": "int256"
                        }
                      ],
                      "name": "residuals",
                      "type": "tuple"
                    }
                  ],
                  "name": "order",
                  "type": "tuple"
                },
                {
                  "components": [
                    {
                      "components": [
                        {
                          "name": "current",
                          "type": "int256"
                        },
                        {
                          "name": "previous",
                          "type": "int256"
                        }
                      ],
                      "name": "intended",
                      "type": "tuple"
                    },
                    {
                      "components": [
                        {
                          "name": "current",
                          "type": "int256"
                        },
                        {
                          "name": "previous",
                          "type": "int256"
                        }
                      ],
                      "name": "conjugate",
                      "type": "tuple"
                    }
                  ],
                  "name": "balances",
                  "type": "tuple"
                },
                {
                  "components": [
                    {
                      "components": [
                        {
                          "name": "amount",
                          "type": "int256"
                        },
                        {
                          "components": [
                            {
                              "name": "ct",
                              "type": "address"
                            },
                            {
                              "name": "id",
                              "type": "uint256"
                            }
                          ],
                          "name": "currency",
                          "type": "tuple"
                        }
                      ],
                      "name": "single",
                      "type": "tuple"
                    },
                    {
                      "components": [
                        {
                          "name": "originId",
                          "type": "uint256"
                        },
                        {
                          "components": [
                            {
                              "name": "amount",
                              "type": "int256"
                            },
                            {
                              "components": [
                                {
                                  "name": "ct",
                                  "type": "address"
                                },
                                {
                                  "name": "id",
                                  "type": "uint256"
                                }
                              ],
                              "name": "currency",
                              "type": "tuple"
                            }
                          ],
                          "name": "figure",
                          "type": "tuple"
                        }
                      ],
                      "name": "total",
                      "type": "tuple[]"
                    }
                  ],
                  "name": "fees",
                  "type": "tuple"
                }
              ],
              "name": "buyer",
              "type": "tuple"
            },
            {
              "components": [
                {
                  "name": "nonce",
                  "type": "uint256"
                },
                {
                  "name": "wallet",
                  "type": "address"
                },
                {
                  "name": "rollingVolume",
                  "type": "uint256"
                },
                {
                  "name": "liquidityRole",
                  "type": "uint8"
                },
                {
                  "components": [
                    {
                      "name": "amount",
                      "type": "int256"
                    },
                    {
                      "components": [
                        {
                          "name": "wallet",
                          "type": "bytes32"
                        },
                        {
                          "name": "operator",
                          "type": "bytes32"
                        }
                      ],
                      "name": "hashes",
                      "type": "tuple"
                    },
                    {
                      "components": [
                        {
                          "name": "current",
                          "type": "int256"
                        },
                        {
                          "name": "previous",
                          "type": "int256"
                        }
                      ],
                      "name": "residuals",
                      "type": "tuple"
                    }
                  ],
                  "name": "order",
                  "type": "tuple"
                },
                {
                  "components": [
                    {
                      "components": [
                        {
                          "name": "current",
                          "type": "int256"
                        },
                        {
                          "name": "previous",
                          "type": "int256"
                        }
                      ],
                      "name": "intended",
                      "type": "tuple"
                    },
                    {
                      "components": [
                        {
                          "name": "current",
                          "type": "int256"
                        },
                        {
                          "name": "previous",
                          "type": "int256"
                        }
                      ],
                      "name": "conjugate",
                      "type": "tuple"
                    }
                  ],
                  "name": "balances",
                  "type": "tuple"
                },
                {
                  "components": [
                    {
                      "components": [
                        {
                          "name": "amount",
                          "type": "int256"
                        },
                        {
                          "components": [
                            {
                              "name": "ct",
                              "type": "address"
                            },
                            {
                              "name": "id",
                              "type": "uint256"
                            }
                          ],
                          "name": "currency",
                          "type": "tuple"
                        }
                      ],
                      "name": "single",
                      "type": "tuple"
                    },
                    {
                      "components": [
                        {
                          "name": "originId",
                          "type": "uint256"
                        },
                        {
                          "components": [
                            {
                              "name": "amount",
                              "type": "int256"
                            },
                            {
                              "components": [
                                {
                                  "name": "ct",
                                  "type": "address"
                                },
                                {
                                  "name": "id",
                                  "type": "uint256"
                                }
                              ],
                              "name": "currency",
                              "type": "tuple"
                            }
                          ],
                          "name": "figure",
                          "type": "tuple"
                        }
                      ],
                      "name": "total",
                      "type": "tuple[]"
                    }
                  ],
                  "name": "fees",
                  "type": "tuple"
                }
              ],
              "name": "seller",
              "type": "tuple"
            },
            {
              "components": [
                {
                  "components": [
                    {
                      "name": "single",
                      "type": "int256"
                    },
                    {
                      "name": "total",
                      "type": "int256"
                    }
                  ],
                  "name": "intended",
                  "type": "tuple"
                },
                {
                  "components": [
                    {
                      "name": "single",
                      "type": "int256"
                    },
                    {
                      "name": "total",
                      "type": "int256"
                    }
                  ],
                  "name": "conjugate",
                  "type": "tuple"
                }
              ],
              "name": "transfers",
              "type": "tuple"
            },
            {
              "components": [
                {
                  "name": "hash",
                  "type": "bytes32"
                },
                {
                  "components": [
                    {
                      "name": "r",
                      "type": "bytes32"
                    },
                    {
                      "name": "s",
                      "type": "bytes32"
                    },
                    {
                      "name": "v",
                      "type": "uint8"
                    }
                  ],
                  "name": "signature",
                  "type": "tuple"
                }
              ],
              "name": "seal",
              "type": "tuple"
            },
            {
              "name": "blockNumber",
              "type": "uint256"
            },
            {
              "name": "operatorId",
              "type": "uint256"
            }
          ],
          "indexed": false,
          "name": "trade",
          "type": "tuple"
        },
        {
          "indexed": false,
          "name": "unchallenger",
          "type": "address"
        }
      ],
      "name": "UnchallengeOrderCandidateByTradeEvent",
      "type": "event"
    },
    {
      "anonymous": false,
      "inputs": [
        {
          "indexed": false,
          "name": "wallet",
          "type": "address"
        },
        {
          "indexed": false,
          "name": "nonce",
          "type": "uint256"
        },
        {
          "components": [
            {
              "name": "nonce",
              "type": "uint256"
            },
            {
              "name": "amount",
              "type": "int256"
            },
            {
              "components": [
                {
                  "components": [
                    {
                      "name": "ct",
                      "type": "address"
                    },
                    {
                      "name": "id",
                      "type": "uint256"
                    }
                  ],
                  "name": "intended",
                  "type": "tuple"
                },
                {
                  "components": [
                    {
                      "name": "ct",
                      "type": "address"
                    },
                    {
                      "name": "id",
                      "type": "uint256"
                    }
                  ],
                  "name": "conjugate",
                  "type": "tuple"
                }
              ],
              "name": "currencies",
              "type": "tuple"
            },
            {
              "name": "rate",
              "type": "int256"
            },
            {
              "components": [
                {
                  "name": "nonce",
                  "type": "uint256"
                },
                {
                  "name": "wallet",
                  "type": "address"
                },
                {
                  "name": "rollingVolume",
                  "type": "uint256"
                },
                {
                  "name": "liquidityRole",
                  "type": "uint8"
                },
                {
                  "components": [
                    {
                      "name": "amount",
                      "type": "int256"
                    },
                    {
                      "components": [
                        {
                          "name": "wallet",
                          "type": "bytes32"
                        },
                        {
                          "name": "operator",
                          "type": "bytes32"
                        }
                      ],
                      "name": "hashes",
                      "type": "tuple"
                    },
                    {
                      "components": [
                        {
                          "name": "current",
                          "type": "int256"
                        },
                        {
                          "name": "previous",
                          "type": "int256"
                        }
                      ],
                      "name": "residuals",
                      "type": "tuple"
                    }
                  ],
                  "name": "order",
                  "type": "tuple"
                },
                {
                  "components": [
                    {
                      "components": [
                        {
                          "name": "current",
                          "type": "int256"
                        },
                        {
                          "name": "previous",
                          "type": "int256"
                        }
                      ],
                      "name": "intended",
                      "type": "tuple"
                    },
                    {
                      "components": [
                        {
                          "name": "current",
                          "type": "int256"
                        },
                        {
                          "name": "previous",
                          "type": "int256"
                        }
                      ],
                      "name": "conjugate",
                      "type": "tuple"
                    }
                  ],
                  "name": "balances",
                  "type": "tuple"
                },
                {
                  "components": [
                    {
                      "components": [
                        {
                          "name": "amount",
                          "type": "int256"
                        },
                        {
                          "components": [
                            {
                              "name": "ct",
                              "type": "address"
                            },
                            {
                              "name": "id",
                              "type": "uint256"
                            }
                          ],
                          "name": "currency",
                          "type": "tuple"
                        }
                      ],
                      "name": "single",
                      "type": "tuple"
                    },
                    {
                      "components": [
                        {
                          "name": "originId",
                          "type": "uint256"
                        },
                        {
                          "components": [
                            {
                              "name": "amount",
                              "type": "int256"
                            },
                            {
                              "components": [
                                {
                                  "name": "ct",
                                  "type": "address"
                                },
                                {
                                  "name": "id",
                                  "type": "uint256"
                                }
                              ],
                              "name": "currency",
                              "type": "tuple"
                            }
                          ],
                          "name": "figure",
                          "type": "tuple"
                        }
                      ],
                      "name": "total",
                      "type": "tuple[]"
                    }
                  ],
                  "name": "fees",
                  "type": "tuple"
                }
              ],
              "name": "buyer",
              "type": "tuple"
            },
            {
              "components": [
                {
                  "name": "nonce",
                  "type": "uint256"
                },
                {
                  "name": "wallet",
                  "type": "address"
                },
                {
                  "name": "rollingVolume",
                  "type": "uint256"
                },
                {
                  "name": "liquidityRole",
                  "type": "uint8"
                },
                {
                  "components": [
                    {
                      "name": "amount",
                      "type": "int256"
                    },
                    {
                      "components": [
                        {
                          "name": "wallet",
                          "type": "bytes32"
                        },
                        {
                          "name": "operator",
                          "type": "bytes32"
                        }
                      ],
                      "name": "hashes",
                      "type": "tuple"
                    },
                    {
                      "components": [
                        {
                          "name": "current",
                          "type": "int256"
                        },
                        {
                          "name": "previous",
                          "type": "int256"
                        }
                      ],
                      "name": "residuals",
                      "type": "tuple"
                    }
                  ],
                  "name": "order",
                  "type": "tuple"
                },
                {
                  "components": [
                    {
                      "components": [
                        {
                          "name": "current",
                          "type": "int256"
                        },
                        {
                          "name": "previous",
                          "type": "int256"
                        }
                      ],
                      "name": "intended",
                      "type": "tuple"
                    },
                    {
                      "components": [
                        {
                          "name": "current",
                          "type": "int256"
                        },
                        {
                          "name": "previous",
                          "type": "int256"
                        }
                      ],
                      "name": "conjugate",
                      "type": "tuple"
                    }
                  ],
                  "name": "balances",
                  "type": "tuple"
                },
                {
                  "components": [
                    {
                      "components": [
                        {
                          "name": "amount",
                          "type": "int256"
                        },
                        {
                          "components": [
                            {
                              "name": "ct",
                              "type": "address"
                            },
                            {
                              "name": "id",
                              "type": "uint256"
                            }
                          ],
                          "name": "currency",
                          "type": "tuple"
                        }
                      ],
                      "name": "single",
                      "type": "tuple"
                    },
                    {
                      "components": [
                        {
                          "name": "originId",
                          "type": "uint256"
                        },
                        {
                          "components": [
                            {
                              "name": "amount",
                              "type": "int256"
                            },
                            {
                              "components": [
                                {
                                  "name": "ct",
                                  "type": "address"
                                },
                                {
                                  "name": "id",
                                  "type": "uint256"
                                }
                              ],
                              "name": "currency",
                              "type": "tuple"
                            }
                          ],
                          "name": "figure",
                          "type": "tuple"
                        }
                      ],
                      "name": "total",
                      "type": "tuple[]"
                    }
                  ],
                  "name": "fees",
                  "type": "tuple"
                }
              ],
              "name": "seller",
              "type": "tuple"
            },
            {
              "components": [
                {
                  "components": [
                    {
                      "name": "single",
                      "type": "int256"
                    },
                    {
                      "name": "total",
                      "type": "int256"
                    }
                  ],
                  "name": "intended",
                  "type": "tuple"
                },
                {
                  "components": [
                    {
                      "name": "single",
                      "type": "int256"
                    },
                    {
                      "name": "total",
                      "type": "int256"
                    }
                  ],
                  "name": "conjugate",
                  "type": "tuple"
                }
              ],
              "name": "transfers",
              "type": "tuple"
            },
            {
              "components": [
                {
                  "name": "hash",
                  "type": "bytes32"
                },
                {
                  "components": [
                    {
                      "name": "r",
                      "type": "bytes32"
                    },
                    {
                      "name": "s",
                      "type": "bytes32"
                    },
                    {
                      "name": "v",
                      "type": "uint8"
                    }
                  ],
                  "name": "signature",
                  "type": "tuple"
                }
              ],
              "name": "seal",
              "type": "tuple"
            },
            {
              "name": "blockNumber",
              "type": "uint256"
            },
            {
              "name": "operatorId",
              "type": "uint256"
            }
          ],
          "indexed": false,
          "name": "trade",
          "type": "tuple"
        },
        {
          "indexed": false,
          "name": "challenger",
          "type": "address"
        }
      ],
      "name": "ChallengeByTradeEvent",
      "type": "event"
    },
    {
      "anonymous": false,
      "inputs": [
        {
          "indexed": false,
          "name": "timeoutInSeconds",
          "type": "uint256"
        }
      ],
      "name": "ServiceActivationTimeoutEvent",
      "type": "event"
    },
    {
      "anonymous": false,
      "inputs": [
        {
          "indexed": false,
          "name": "service",
          "type": "address"
        }
      ],
      "name": "RegisterServiceEvent",
      "type": "event"
    },
    {
      "anonymous": false,
      "inputs": [
        {
          "indexed": false,
          "name": "service",
          "type": "address"
        },
        {
          "indexed": false,
          "name": "timeout",
          "type": "uint256"
        }
      ],
      "name": "RegisterServiceDeferredEvent",
      "type": "event"
    },
    {
      "anonymous": false,
      "inputs": [
        {
          "indexed": false,
          "name": "service",
          "type": "address"
        }
      ],
      "name": "DeregisterServiceEvent",
      "type": "event"
    },
    {
      "anonymous": false,
      "inputs": [
        {
          "indexed": false,
          "name": "service",
          "type": "address"
        },
        {
          "indexed": false,
          "name": "action",
          "type": "string"
        }
      ],
      "name": "EnableServiceActionEvent",
      "type": "event"
    },
    {
      "anonymous": false,
      "inputs": [
        {
          "indexed": false,
          "name": "service",
          "type": "address"
        },
        {
          "indexed": false,
          "name": "action",
          "type": "string"
        }
      ],
      "name": "DisableServiceActionEvent",
      "type": "event"
    },
    {
      "anonymous": false,
      "inputs": [
        {
          "indexed": false,
          "name": "oldCancelOrdersChallenge",
          "type": "address"
        },
        {
          "indexed": false,
          "name": "newCancelOrdersChallenge",
          "type": "address"
        }
      ],
      "name": "SetCancelOrdersChallengeEvent",
      "type": "event"
    },
    {
      "anonymous": false,
      "inputs": [
        {
          "indexed": false,
          "name": "oldFraudChallenge",
          "type": "address"
        },
        {
          "indexed": false,
          "name": "newFraudChallenge",
          "type": "address"
        }
      ],
      "name": "SetFraudChallengeEvent",
      "type": "event"
    },
    {
      "anonymous": false,
      "inputs": [
        {
          "indexed": false,
          "name": "oldWalletLocker",
          "type": "address"
        },
        {
          "indexed": false,
          "name": "newWalletLocker",
          "type": "address"
        }
      ],
      "name": "SetWalletLockerEvent",
      "type": "event"
    },
    {
      "anonymous": false,
      "inputs": [],
      "name": "FreezeWalletLockerEvent",
      "type": "event"
    },
    {
      "anonymous": false,
      "inputs": [
        {
          "indexed": false,
          "name": "oldSecurityBond",
          "type": "address"
        },
        {
          "indexed": false,
          "name": "newSecurityBond",
          "type": "address"
        }
      ],
      "name": "SetSecurityBondEvent",
      "type": "event"
    },
    {
      "anonymous": false,
      "inputs": [
        {
          "indexed": false,
          "name": "oldValidator",
          "type": "address"
        },
        {
          "indexed": false,
          "name": "newValidator",
          "type": "address"
        }
      ],
      "name": "SetValidatorEvent",
      "type": "event"
    },
    {
      "anonymous": false,
      "inputs": [
        {
          "indexed": false,
          "name": "oldConfiguration",
          "type": "address"
        },
        {
          "indexed": false,
          "name": "newConfiguration",
          "type": "address"
        }
      ],
      "name": "SetConfigurationEvent",
      "type": "event"
    },
    {
      "anonymous": false,
      "inputs": [
        {
          "indexed": false,
          "name": "oldDeployer",
          "type": "address"
        },
        {
          "indexed": false,
          "name": "newDeployer",
          "type": "address"
        }
      ],
      "name": "SetDeployerEvent",
      "type": "event"
    },
    {
      "anonymous": false,
      "inputs": [
        {
          "indexed": false,
          "name": "oldOperator",
          "type": "address"
        },
        {
          "indexed": false,
          "name": "newOperator",
          "type": "address"
        }
      ],
      "name": "SetOperatorEvent",
      "type": "event"
    },
    {
      "anonymous": false,
      "inputs": [
        {
          "indexed": false,
          "name": "wallet",
          "type": "address"
        }
      ],
      "name": "SelfDestructionDisabledEvent",
      "type": "event"
    },
    {
      "anonymous": false,
      "inputs": [
        {
          "indexed": false,
          "name": "wallet",
          "type": "address"
        }
      ],
      "name": "TriggerSelfDestructionEvent",
      "type": "event"
    },
    {
      "constant": false,
      "inputs": [
        {
          "name": "newDriipSettlementChallengeState",
          "type": "address"
        }
      ],
      "name": "setDriipSettlementChallengeState",
      "outputs": [],
      "payable": false,
      "stateMutability": "nonpayable",
      "type": "function"
    },
    {
      "constant": false,
      "inputs": [
        {
          "components": [
            {
              "name": "nonce",
              "type": "uint256"
            },
            {
              "name": "wallet",
              "type": "address"
            },
            {
              "components": [
                {
                  "name": "intention",
                  "type": "uint8"
                },
                {
                  "name": "amount",
                  "type": "int256"
                },
                {
                  "components": [
                    {
                      "components": [
                        {
                          "name": "ct",
                          "type": "address"
                        },
                        {
                          "name": "id",
                          "type": "uint256"
                        }
                      ],
                      "name": "intended",
                      "type": "tuple"
                    },
                    {
                      "components": [
                        {
                          "name": "ct",
                          "type": "address"
                        },
                        {
                          "name": "id",
                          "type": "uint256"
                        }
                      ],
                      "name": "conjugate",
                      "type": "tuple"
                    }
                  ],
                  "name": "currencies",
                  "type": "tuple"
                },
                {
                  "name": "rate",
                  "type": "int256"
                },
                {
                  "components": [
                    {
                      "name": "current",
                      "type": "int256"
                    },
                    {
                      "name": "previous",
                      "type": "int256"
                    }
                  ],
                  "name": "residuals",
                  "type": "tuple"
                }
              ],
              "name": "placement",
              "type": "tuple"
            },
            {
              "components": [
                {
                  "components": [
                    {
                      "name": "hash",
                      "type": "bytes32"
                    },
                    {
                      "components": [
                        {
                          "name": "r",
                          "type": "bytes32"
                        },
                        {
                          "name": "s",
                          "type": "bytes32"
                        },
                        {
                          "name": "v",
                          "type": "uint8"
                        }
                      ],
                      "name": "signature",
                      "type": "tuple"
                    }
                  ],
                  "name": "wallet",
                  "type": "tuple"
                },
                {
                  "components": [
                    {
                      "name": "hash",
                      "type": "bytes32"
                    },
                    {
                      "components": [
                        {
                          "name": "r",
                          "type": "bytes32"
                        },
                        {
                          "name": "s",
                          "type": "bytes32"
                        },
                        {
                          "name": "v",
                          "type": "uint8"
                        }
                      ],
                      "name": "signature",
                      "type": "tuple"
                    }
                  ],
                  "name": "operator",
                  "type": "tuple"
                }
              ],
              "name": "seals",
              "type": "tuple"
            },
            {
              "name": "blockNumber",
              "type": "uint256"
            },
            {
              "name": "operatorId",
              "type": "uint256"
            }
          ],
          "name": "order",
          "type": "tuple"
        },
        {
          "name": "challenger",
          "type": "address"
        }
      ],
      "name": "challengeByOrder",
      "outputs": [],
      "payable": false,
      "stateMutability": "nonpayable",
      "type": "function"
    },
    {
      "constant": false,
      "inputs": [
        {
          "components": [
            {
              "name": "nonce",
              "type": "uint256"
            },
            {
              "name": "wallet",
              "type": "address"
            },
            {
              "components": [
                {
                  "name": "intention",
                  "type": "uint8"
                },
                {
                  "name": "amount",
                  "type": "int256"
                },
                {
                  "components": [
                    {
                      "components": [
                        {
                          "name": "ct",
                          "type": "address"
                        },
                        {
                          "name": "id",
                          "type": "uint256"
                        }
                      ],
                      "name": "intended",
                      "type": "tuple"
                    },
                    {
                      "components": [
                        {
                          "name": "ct",
                          "type": "address"
                        },
                        {
                          "name": "id",
                          "type": "uint256"
                        }
                      ],
                      "name": "conjugate",
                      "type": "tuple"
                    }
                  ],
                  "name": "currencies",
                  "type": "tuple"
                },
                {
                  "name": "rate",
                  "type": "int256"
                },
                {
                  "components": [
                    {
                      "name": "current",
                      "type": "int256"
                    },
                    {
                      "name": "previous",
                      "type": "int256"
                    }
                  ],
                  "name": "residuals",
                  "type": "tuple"
                }
              ],
              "name": "placement",
              "type": "tuple"
            },
            {
              "components": [
                {
                  "components": [
                    {
                      "name": "hash",
                      "type": "bytes32"
                    },
                    {
                      "components": [
                        {
                          "name": "r",
                          "type": "bytes32"
                        },
                        {
                          "name": "s",
                          "type": "bytes32"
                        },
                        {
                          "name": "v",
                          "type": "uint8"
                        }
                      ],
                      "name": "signature",
                      "type": "tuple"
                    }
                  ],
                  "name": "wallet",
                  "type": "tuple"
                },
                {
                  "components": [
                    {
                      "name": "hash",
                      "type": "bytes32"
                    },
                    {
                      "components": [
                        {
                          "name": "r",
                          "type": "bytes32"
                        },
                        {
                          "name": "s",
                          "type": "bytes32"
                        },
                        {
                          "name": "v",
                          "type": "uint8"
                        }
                      ],
                      "name": "signature",
                      "type": "tuple"
                    }
                  ],
                  "name": "operator",
                  "type": "tuple"
                }
              ],
              "name": "seals",
              "type": "tuple"
            },
            {
              "name": "blockNumber",
              "type": "uint256"
            },
            {
              "name": "operatorId",
              "type": "uint256"
            }
          ],
          "name": "order",
          "type": "tuple"
        },
        {
          "components": [
            {
              "name": "nonce",
              "type": "uint256"
            },
            {
              "name": "amount",
              "type": "int256"
            },
            {
              "components": [
                {
                  "components": [
                    {
                      "name": "ct",
                      "type": "address"
                    },
                    {
                      "name": "id",
                      "type": "uint256"
                    }
                  ],
                  "name": "intended",
                  "type": "tuple"
                },
                {
                  "components": [
                    {
                      "name": "ct",
                      "type": "address"
                    },
                    {
                      "name": "id",
                      "type": "uint256"
                    }
                  ],
                  "name": "conjugate",
                  "type": "tuple"
                }
              ],
              "name": "currencies",
              "type": "tuple"
            },
            {
              "name": "rate",
              "type": "int256"
            },
            {
              "components": [
                {
                  "name": "nonce",
                  "type": "uint256"
                },
                {
                  "name": "wallet",
                  "type": "address"
                },
                {
                  "name": "rollingVolume",
                  "type": "uint256"
                },
                {
                  "name": "liquidityRole",
                  "type": "uint8"
                },
                {
                  "components": [
                    {
                      "name": "amount",
                      "type": "int256"
                    },
                    {
                      "components": [
                        {
                          "name": "wallet",
                          "type": "bytes32"
                        },
                        {
                          "name": "operator",
                          "type": "bytes32"
                        }
                      ],
                      "name": "hashes",
                      "type": "tuple"
                    },
                    {
                      "components": [
                        {
                          "name": "current",
                          "type": "int256"
                        },
                        {
                          "name": "previous",
                          "type": "int256"
                        }
                      ],
                      "name": "residuals",
                      "type": "tuple"
                    }
                  ],
                  "name": "order",
                  "type": "tuple"
                },
                {
                  "components": [
                    {
                      "components": [
                        {
                          "name": "current",
                          "type": "int256"
                        },
                        {
                          "name": "previous",
                          "type": "int256"
                        }
                      ],
                      "name": "intended",
                      "type": "tuple"
                    },
                    {
                      "components": [
                        {
                          "name": "current",
                          "type": "int256"
                        },
                        {
                          "name": "previous",
                          "type": "int256"
                        }
                      ],
                      "name": "conjugate",
                      "type": "tuple"
                    }
                  ],
                  "name": "balances",
                  "type": "tuple"
                },
                {
                  "components": [
                    {
                      "components": [
                        {
                          "name": "amount",
                          "type": "int256"
                        },
                        {
                          "components": [
                            {
                              "name": "ct",
                              "type": "address"
                            },
                            {
                              "name": "id",
                              "type": "uint256"
                            }
                          ],
                          "name": "currency",
                          "type": "tuple"
                        }
                      ],
                      "name": "single",
                      "type": "tuple"
                    },
                    {
                      "components": [
                        {
                          "name": "originId",
                          "type": "uint256"
                        },
                        {
                          "components": [
                            {
                              "name": "amount",
                              "type": "int256"
                            },
                            {
                              "components": [
                                {
                                  "name": "ct",
                                  "type": "address"
                                },
                                {
                                  "name": "id",
                                  "type": "uint256"
                                }
                              ],
                              "name": "currency",
                              "type": "tuple"
                            }
                          ],
                          "name": "figure",
                          "type": "tuple"
                        }
                      ],
                      "name": "total",
                      "type": "tuple[]"
                    }
                  ],
                  "name": "fees",
                  "type": "tuple"
                }
              ],
              "name": "buyer",
              "type": "tuple"
            },
            {
              "components": [
                {
                  "name": "nonce",
                  "type": "uint256"
                },
                {
                  "name": "wallet",
                  "type": "address"
                },
                {
                  "name": "rollingVolume",
                  "type": "uint256"
                },
                {
                  "name": "liquidityRole",
                  "type": "uint8"
                },
                {
                  "components": [
                    {
                      "name": "amount",
                      "type": "int256"
                    },
                    {
                      "components": [
                        {
                          "name": "wallet",
                          "type": "bytes32"
                        },
                        {
                          "name": "operator",
                          "type": "bytes32"
                        }
                      ],
                      "name": "hashes",
                      "type": "tuple"
                    },
                    {
                      "components": [
                        {
                          "name": "current",
                          "type": "int256"
                        },
                        {
                          "name": "previous",
                          "type": "int256"
                        }
                      ],
                      "name": "residuals",
                      "type": "tuple"
                    }
                  ],
                  "name": "order",
                  "type": "tuple"
                },
                {
                  "components": [
                    {
                      "components": [
                        {
                          "name": "current",
                          "type": "int256"
                        },
                        {
                          "name": "previous",
                          "type": "int256"
                        }
                      ],
                      "name": "intended",
                      "type": "tuple"
                    },
                    {
                      "components": [
                        {
                          "name": "current",
                          "type": "int256"
                        },
                        {
                          "name": "previous",
                          "type": "int256"
                        }
                      ],
                      "name": "conjugate",
                      "type": "tuple"
                    }
                  ],
                  "name": "balances",
                  "type": "tuple"
                },
                {
                  "components": [
                    {
                      "components": [
                        {
                          "name": "amount",
                          "type": "int256"
                        },
                        {
                          "components": [
                            {
                              "name": "ct",
                              "type": "address"
                            },
                            {
                              "name": "id",
                              "type": "uint256"
                            }
                          ],
                          "name": "currency",
                          "type": "tuple"
                        }
                      ],
                      "name": "single",
                      "type": "tuple"
                    },
                    {
                      "components": [
                        {
                          "name": "originId",
                          "type": "uint256"
                        },
                        {
                          "components": [
                            {
                              "name": "amount",
                              "type": "int256"
                            },
                            {
                              "components": [
                                {
                                  "name": "ct",
                                  "type": "address"
                                },
                                {
                                  "name": "id",
                                  "type": "uint256"
                                }
                              ],
                              "name": "currency",
                              "type": "tuple"
                            }
                          ],
                          "name": "figure",
                          "type": "tuple"
                        }
                      ],
                      "name": "total",
                      "type": "tuple[]"
                    }
                  ],
                  "name": "fees",
                  "type": "tuple"
                }
              ],
              "name": "seller",
              "type": "tuple"
            },
            {
              "components": [
                {
                  "components": [
                    {
                      "name": "single",
                      "type": "int256"
                    },
                    {
                      "name": "total",
                      "type": "int256"
                    }
                  ],
                  "name": "intended",
                  "type": "tuple"
                },
                {
                  "components": [
                    {
                      "name": "single",
                      "type": "int256"
                    },
                    {
                      "name": "total",
                      "type": "int256"
                    }
                  ],
                  "name": "conjugate",
                  "type": "tuple"
                }
              ],
              "name": "transfers",
              "type": "tuple"
            },
            {
              "components": [
                {
                  "name": "hash",
                  "type": "bytes32"
                },
                {
                  "components": [
                    {
                      "name": "r",
                      "type": "bytes32"
                    },
                    {
                      "name": "s",
                      "type": "bytes32"
                    },
                    {
                      "name": "v",
                      "type": "uint8"
                    }
                  ],
                  "name": "signature",
                  "type": "tuple"
                }
              ],
              "name": "seal",
              "type": "tuple"
            },
            {
              "name": "blockNumber",
              "type": "uint256"
            },
            {
              "name": "operatorId",
              "type": "uint256"
            }
          ],
          "name": "trade",
          "type": "tuple"
        },
        {
          "name": "unchallenger",
          "type": "address"
        }
      ],
      "name": "unchallengeOrderCandidateByTrade",
      "outputs": [],
      "payable": false,
      "stateMutability": "nonpayable",
      "type": "function"
    },
    {
      "constant": false,
      "inputs": [
        {
          "name": "wallet",
          "type": "address"
        },
        {
          "components": [
            {
              "name": "nonce",
              "type": "uint256"
            },
            {
              "name": "amount",
              "type": "int256"
            },
            {
              "components": [
                {
                  "components": [
                    {
                      "name": "ct",
                      "type": "address"
                    },
                    {
                      "name": "id",
                      "type": "uint256"
                    }
                  ],
                  "name": "intended",
                  "type": "tuple"
                },
                {
                  "components": [
                    {
                      "name": "ct",
                      "type": "address"
                    },
                    {
                      "name": "id",
                      "type": "uint256"
                    }
                  ],
                  "name": "conjugate",
                  "type": "tuple"
                }
              ],
              "name": "currencies",
              "type": "tuple"
            },
            {
              "name": "rate",
              "type": "int256"
            },
            {
              "components": [
                {
                  "name": "nonce",
                  "type": "uint256"
                },
                {
                  "name": "wallet",
                  "type": "address"
                },
                {
                  "name": "rollingVolume",
                  "type": "uint256"
                },
                {
                  "name": "liquidityRole",
                  "type": "uint8"
                },
                {
                  "components": [
                    {
                      "name": "amount",
                      "type": "int256"
                    },
                    {
                      "components": [
                        {
                          "name": "wallet",
                          "type": "bytes32"
                        },
                        {
                          "name": "operator",
                          "type": "bytes32"
                        }
                      ],
                      "name": "hashes",
                      "type": "tuple"
                    },
                    {
                      "components": [
                        {
                          "name": "current",
                          "type": "int256"
                        },
                        {
                          "name": "previous",
                          "type": "int256"
                        }
                      ],
                      "name": "residuals",
                      "type": "tuple"
                    }
                  ],
                  "name": "order",
                  "type": "tuple"
                },
                {
                  "components": [
                    {
                      "components": [
                        {
                          "name": "current",
                          "type": "int256"
                        },
                        {
                          "name": "previous",
                          "type": "int256"
                        }
                      ],
                      "name": "intended",
                      "type": "tuple"
                    },
                    {
                      "components": [
                        {
                          "name": "current",
                          "type": "int256"
                        },
                        {
                          "name": "previous",
                          "type": "int256"
                        }
                      ],
                      "name": "conjugate",
                      "type": "tuple"
                    }
                  ],
                  "name": "balances",
                  "type": "tuple"
                },
                {
                  "components": [
                    {
                      "components": [
                        {
                          "name": "amount",
                          "type": "int256"
                        },
                        {
                          "components": [
                            {
                              "name": "ct",
                              "type": "address"
                            },
                            {
                              "name": "id",
                              "type": "uint256"
                            }
                          ],
                          "name": "currency",
                          "type": "tuple"
                        }
                      ],
                      "name": "single",
                      "type": "tuple"
                    },
                    {
                      "components": [
                        {
                          "name": "originId",
                          "type": "uint256"
                        },
                        {
                          "components": [
                            {
                              "name": "amount",
                              "type": "int256"
                            },
                            {
                              "components": [
                                {
                                  "name": "ct",
                                  "type": "address"
                                },
                                {
                                  "name": "id",
                                  "type": "uint256"
                                }
                              ],
                              "name": "currency",
                              "type": "tuple"
                            }
                          ],
                          "name": "figure",
                          "type": "tuple"
                        }
                      ],
                      "name": "total",
                      "type": "tuple[]"
                    }
                  ],
                  "name": "fees",
                  "type": "tuple"
                }
              ],
              "name": "buyer",
              "type": "tuple"
            },
            {
              "components": [
                {
                  "name": "nonce",
                  "type": "uint256"
                },
                {
                  "name": "wallet",
                  "type": "address"
                },
                {
                  "name": "rollingVolume",
                  "type": "uint256"
                },
                {
                  "name": "liquidityRole",
                  "type": "uint8"
                },
                {
                  "components": [
                    {
                      "name": "amount",
                      "type": "int256"
                    },
                    {
                      "components": [
                        {
                          "name": "wallet",
                          "type": "bytes32"
                        },
                        {
                          "name": "operator",
                          "type": "bytes32"
                        }
                      ],
                      "name": "hashes",
                      "type": "tuple"
                    },
                    {
                      "components": [
                        {
                          "name": "current",
                          "type": "int256"
                        },
                        {
                          "name": "previous",
                          "type": "int256"
                        }
                      ],
                      "name": "residuals",
                      "type": "tuple"
                    }
                  ],
                  "name": "order",
                  "type": "tuple"
                },
                {
                  "components": [
                    {
                      "components": [
                        {
                          "name": "current",
                          "type": "int256"
                        },
                        {
                          "name": "previous",
                          "type": "int256"
                        }
                      ],
                      "name": "intended",
                      "type": "tuple"
                    },
                    {
                      "components": [
                        {
                          "name": "current",
                          "type": "int256"
                        },
                        {
                          "name": "previous",
                          "type": "int256"
                        }
                      ],
                      "name": "conjugate",
                      "type": "tuple"
                    }
                  ],
                  "name": "balances",
                  "type": "tuple"
                },
                {
                  "components": [
                    {
                      "components": [
                        {
                          "name": "amount",
                          "type": "int256"
                        },
                        {
                          "components": [
                            {
                              "name": "ct",
                              "type": "address"
                            },
                            {
                              "name": "id",
                              "type": "uint256"
                            }
                          ],
                          "name": "currency",
                          "type": "tuple"
                        }
                      ],
                      "name": "single",
                      "type": "tuple"
                    },
                    {
                      "components": [
                        {
                          "name": "originId",
                          "type": "uint256"
                        },
                        {
                          "components": [
                            {
                              "name": "amount",
                              "type": "int256"
                            },
                            {
                              "components": [
                                {
                                  "name": "ct",
                                  "type": "address"
                                },
                                {
                                  "name": "id",
                                  "type": "uint256"
                                }
                              ],
                              "name": "currency",
                              "type": "tuple"
                            }
                          ],
                          "name": "figure",
                          "type": "tuple"
                        }
                      ],
                      "name": "total",
                      "type": "tuple[]"
                    }
                  ],
                  "name": "fees",
                  "type": "tuple"
                }
              ],
              "name": "seller",
              "type": "tuple"
            },
            {
              "components": [
                {
                  "components": [
                    {
                      "name": "single",
                      "type": "int256"
                    },
                    {
                      "name": "total",
                      "type": "int256"
                    }
                  ],
                  "name": "intended",
                  "type": "tuple"
                },
                {
                  "components": [
                    {
                      "name": "single",
                      "type": "int256"
                    },
                    {
                      "name": "total",
                      "type": "int256"
                    }
                  ],
                  "name": "conjugate",
                  "type": "tuple"
                }
              ],
              "name": "transfers",
              "type": "tuple"
            },
            {
              "components": [
                {
                  "name": "hash",
                  "type": "bytes32"
                },
                {
                  "components": [
                    {
                      "name": "r",
                      "type": "bytes32"
                    },
                    {
                      "name": "s",
                      "type": "bytes32"
                    },
                    {
                      "name": "v",
                      "type": "uint8"
                    }
                  ],
                  "name": "signature",
                  "type": "tuple"
                }
              ],
              "name": "seal",
              "type": "tuple"
            },
            {
              "name": "blockNumber",
              "type": "uint256"
            },
            {
              "name": "operatorId",
              "type": "uint256"
            }
          ],
          "name": "trade",
          "type": "tuple"
        },
        {
          "name": "challenger",
          "type": "address"
        }
      ],
      "name": "challengeByTrade",
      "outputs": [],
      "payable": false,
      "stateMutability": "nonpayable",
      "type": "function"
    }
  ],
  "bytecode": "0x60806040523480156200001157600080fd5b50604051602080620050cb8339810180604052620000339190810190620000b6565b8080600160a060020a03811615156200004b57600080fd5b600160a060020a0381163014156200006257600080fd5b506000805461010060a860020a031916610100600160a060020a039390931692830217905560018054600160a060020a031916909117905550620000eb565b6000620000af8251620000df565b9392505050565b600060208284031215620000c957600080fd5b6000620000d78484620000a1565b949350505050565b600160a060020a031690565b614fd080620000fb6000396000f3006080604052600436106101d45763ffffffff60e060020a60003504166301370d0681146101d95780630608a938146101fb5780630cca956d1461021b57806312255c941461024657806312b52b3d146102685780631327d3d81461027d57806314f3a6331461029d57806317ba3f90146102b2578063240625d8146102df5780632738a112146102f45780632aa1c9d9146103095780632b5672e3146103295780632b91e0a9146103495780632f013a00146103695780633a5381b51461037e5780633b58c501146103935780633b7bea6c146103b35780633bd7857f146103d55780633dad7da4146103ea5780634476d23b1461040a57806350b08c021461042c57806351d7cd611461044c578063570ca735146104615780635dc60def146104765780635df1b0a31461048b578063627f09c3146104ab5780636792ce6e146104cb5780636b0570d0146104eb5780636c70bee91461050057806370327ea1146105155780637e15dd5c1461052a578063892860b21461054a5780638e8cef121461056a5780638eed83591461058a57806392272607146105aa57806396214735146105ca578063b3ab15fb146105ea578063d5f394881461060a578063e8ae41e31461061f578063fdd9ec7d14610634575b600080fd5b3480156101e557600080fd5b506101f96101f43660046144c6565b610654565b005b34801561020757600080fd5b506101f96102163660046145ab565b6106fc565b34801561022757600080fd5b50610230611215565b60405161023d9190614d72565b60405180910390f35b34801561025257600080fd5b5061025b611224565b60405161023d9190614da9565b34801561027457600080fd5b5061025b611253565b34801561028957600080fd5b506101f96102983660046144c6565b61128b565b3480156102a957600080fd5b5061025b611323565b3480156102be57600080fd5b506102d26102cd366004614399565b611352565b60405161023d9190614d56565b3480156102eb57600080fd5b506102d261138a565b34801561030057600080fd5b506101f961139a565b34801561031557600080fd5b506101f96103243660046144c6565b611400565b34801561033557600080fd5b506101f96103443660046143d5565b611491565b34801561035557600080fd5b506102d2610364366004614399565b6115c1565b34801561037557600080fd5b506102d26115df565b34801561038a57600080fd5b506102306115e8565b34801561039f57600080fd5b506101f96103ae3660046143d5565b6115f7565b3480156103bf57600080fd5b506103c86116d9565b60405161023d9190614d64565b3480156103e157600080fd5b506102306116df565b3480156103f657600080fd5b506101f96104053660046144c6565b6116ee565b34801561041657600080fd5b5061041f611786565b60405161023d9190614ae6565b34801561043857600080fd5b506101f9610447366004614399565b61179a565b34801561045857600080fd5b5061023061185c565b34801561046d57600080fd5b5061041f61186b565b34801561048257600080fd5b506101f961187a565b34801561049757600080fd5b506102d26104a63660046143d5565b6118ce565b3480156104b757600080fd5b506101f96104c63660046144c6565b61191f565b3480156104d757600080fd5b506101f96104e63660046144c6565b6119b7565b3480156104f757600080fd5b50610230611a4f565b34801561050c57600080fd5b50610230611a5e565b34801561052157600080fd5b506101f9611a6d565b34801561053657600080fd5b506101f9610545366004614608565b611ad0565b34801561055657600080fd5b506101f96105653660046144c6565b611b23565b34801561057657600080fd5b506101f9610585366004614399565b611bd2565b34801561059657600080fd5b506101f96105a5366004614579565b611c50565b3480156105b657600080fd5b506101f96105c5366004614426565b6123da565b3480156105d657600080fd5b506101f96105e5366004614399565b612bfe565b3480156105f657600080fd5b506101f9610605366004614399565b612cbc565b34801561061657600080fd5b5061041f612d66565b34801561062b57600080fd5b50610230612d7a565b34801561064057600080fd5b506101f961064f366004614399565b612d89565b600061065e612e02565b151561066957600080fd5b81600160a060020a038116151561067f57600080fd5b6006548390600160a060020a0390811690821681146106f55760068054600160a060020a03878116600160a060020a0319831617909255604051911694507f07998fa7be97abe2427246ae4688298c89d6196bbffdf0997b9495a8d27bc673906106ec9086908890614d80565b60405180910390a15b5050505050565b610704613c1c565b60008060606040519081016040528060248152602001600080516020614f77833981519152815260200160e060020a63726164650281525061074633826118ce565b151561075157600080fd5b60035460405160e060020a6331f2978b0281528891600160a060020a0316906331f2978b90610784908490600401614dba565b602060405180830381600087803b15801561079e57600080fd5b505af11580156107b2573d6000803e3d6000fd5b505050506040513d601f19601f820116820180604052506107d6919081019061448a565b15156107e157600080fd5b60035460405160e160020a637211c8c70281528891600160a060020a03169063e423918e90610814908490600401614dc9565b602060405180830381600087803b15801561082e57600080fd5b505af1158015610842573d6000803e3d6000fd5b505050506040513d601f19601f82011682018060405250610866919081019061448a565b151561087157600080fd5b602089015160035460405160e160020a6303e149c30281528a9291600160a060020a0316906307c29386906108ac9085908590600401614dda565b602060405180830381600087803b1580156108c657600080fd5b505af11580156108da573d6000803e3d6000fd5b505050506040513d601f19601f820116820180604052506108fe919081019061448a565b151561090957600080fd5b6109128b612e18565b600a5460208d015160405160e360020a63076470a5028152929a50600160a060020a0390911691633b2385289161094d918c90600401614c4d565b602060405180830381600087803b15801561096757600080fd5b505af115801561097b573d6000803e3d6000fd5b505050506040513d601f19601f8201168201806040525061099f919081019061448a565b15156109aa57600080fd5b600a5460208c015160405160e060020a635482c735028152600160a060020a0390921691635482c735916109e2918c90600401614c4d565b602060405180830381600087803b1580156109fc57600080fd5b505af1158015610a10573d6000803e3d6000fd5b505050506040513d601f19601f82011682018060405250610a34919081019061448a565b15610a3e57600080fd5b600a5460208c015160405160e060020a63b6e2fc33028152600160a060020a039092169163b6e2fc3391610a76918c90600401614c4d565b602060405180830381600087803b158015610a9057600080fd5b505af1158015610aa4573d6000803e3d6000fd5b505050506040513d601f19601f82011682018060405250610ac891908101906144e4565b6001811115610ad357fe5b600114610adf57600080fd5b600a5460208c015160405160e160020a63160ed0cd028152610bff92600160a060020a031691632c1da19a91610b1a91908d90600401614c4d565b600060405180830381600087803b158015610b3457600080fd5b505af1158015610b48573d6000803e3d6000fd5b505050506040513d6000823e601f3d908101601f19168201604052610b709190810190614545565b73__TradeTypesLib_________________________63af75a2f76040518163ffffffff1660e060020a02815260040160006040518083038186803b158015610bb757600080fd5b505af4158015610bcb573d6000803e3d6000fd5b505050506040513d6000823e601f3d908101601f19168201604052610bf39190810190614545565b9063ffffffff612e5716565b1515610c0a57600080fd5b60065460e08b01515160405160e160020a6352c894d1028152600160a060020a039092169163a59129a291610c4191600401614d64565b602060405180830381600087803b158015610c5b57600080fd5b505af1158015610c6f573d6000803e3d6000fd5b505050506040513d601f19601f82011682018060405250610c93919081019061448a565b15610c9d57600080fd5b60065460608c0151602001515160405160e060020a63e1f5828b028152600160a060020a039092169163e1f5828b91610cd891600401614d64565b602060405180830381600087803b158015610cf257600080fd5b505af1158015610d06573d6000803e3d6000fd5b505050506040513d601f19601f82011682018060405250610d2a919081019061448a565b15610d3457600080fd5b600a5460208c015160405160e060020a631b90e3c1028152600160a060020a0390921691631b90e3c191610d6c918c90600401614c4d565b602060405180830381600087803b158015610d8657600080fd5b505af1158015610d9a573d6000803e3d6000fd5b505050506040513d601f19601f82011682018060405250610dbe91908101906144a8565b60608c015160200151519097508714610dd657600080fd5b610de48a8c60200151612ef6565b8714610def57600080fd5b600a5460208c015160405160e060020a6356587229028152600160a060020a0390921691635658722991610e27918c90600401614c4d565b602060405180830381600087803b158015610e4157600080fd5b505af1158015610e55573d6000803e3d6000fd5b505050506040513d601f19601f82011682018060405250610e7991908101906143b7565b600a5460208d015160405160e260020a6333ca4eab028152929850600160a060020a039091169163cf293aac91610eb4918c90600401614c4d565b602060405180830381600087803b158015610ece57600080fd5b505af1158015610ee2573d6000803e3d6000fd5b505050506040513d601f19601f82011682018060405250610f06919081019061448a565b15610f82576005546020808d01518a51918b015160405160e060020a6346c5c023028152600160a060020a03909416936346c5c02393610f4b93928c92600401614b0f565b600060405180830381600087803b158015610f6557600080fd5b505af1158015610f79573d6000803e3d6000fd5b50505050610ff2565b60048054895160208b015160405160e060020a634e791e0d028152600160a060020a0390931693634e791e0d93610fbf938c939092909101614b9e565b600060405180830381600087803b158015610fd957600080fd5b505af1158015610fed573d6000803e3d6000fd5b505050505b600a5460208c015160405160e160020a6331ba74fb028152600160a060020a0390921691636374e9f69161102a918c90600401614c4d565b600060405180830381600087803b15801561104457600080fd5b505af1158015611058573d6000803e3d6000fd5b5050600480546002546040805160e260020a630a2d7e570281529051600160a060020a03938416965063760b829295508f9493909216926328b5f95c9282820192602092908290030181600087803b1580156110b357600080fd5b505af11580156110c7573d6000803e3d6000fd5b505050506040513d601f19601f820116820180604052506110eb91908101906144a8565b60006040518463ffffffff1660e060020a02815260040161110e93929190614cd7565b600060405180830381600087803b15801561112857600080fd5b505af115801561113c573d6000803e3d6000fd5b5050600a5460208e015160405160e060020a632ee2ed250281527f1787bae68d74e61c635b2fbee6c778c2a06ce036b886dbd0c6e0bcd6b706a1999450600160a060020a039092169250632ee2ed259161119b91908d90600401614c4d565b602060405180830381600087803b1580156111b557600080fd5b505af11580156111c9573d6000803e3d6000fd5b505050506040513d601f19601f820116820180604052506111ed91908101906144a8565b8c8c8c6040516112009493929190614e24565b60405180910390a15050505050505050505050565b600754600160a060020a031681565b6040805180820190915260128152607060020a716368616c6c656e67655f62795f747261646502602082015281565b60606040519081016040528060248152602001600080516020614f77833981519152815260200160e060020a63726164650281525081565b6000611295612e02565b15156112a057600080fd5b81600160a060020a03811615156112b657600080fd5b6003548390600160a060020a0390811690821681146106f55760038054600160a060020a03878116600160a060020a0319831617909255604051911694507f1882af944a16549c3d4f60e3cd26f158b0c7aac3222cf32971fc21375ce05f60906106ec9086908890614d80565b6040805180820190915260128152607160020a7131b430b63632b733b2afb13cafb7b93232b902602082015281565b600061135d826115c1565b80156113845750600160a060020a0382166000908152600860205260409020600101544210155b92915050565b60055460a060020a900460ff1681565b336113a3611786565b600160a060020a0316146113b657600080fd5b60005460ff16156113c657600080fd5b7f787a5d936e74f4b564b9153575886059829c78cd9927b1be5e0d976b317ef736336040516113f59190614ae6565b60405180910390a133ff5b600061140a612e02565b151561141557600080fd5b81600160a060020a038116151561142b57600080fd5b600a8054600160a060020a03858116600160a060020a03198316179283905560405191811694507f4f7125332801996cdeaabf9cff1ac89ddf4b52c673558936affe853ab64a88da926114849286929190911690614d80565b60405180910390a1505050565b600061149b612e02565b15156114a657600080fd5b82600160a060020a03811615156114bc57600080fd5b600160a060020a0381163014156114d257600080fd5b600160a060020a03841660009081526008602052604090205460ff1615156114f957600080fd5b61150283612fb1565b600160a060020a038516600090815260086020908152604080832084845260020190915290205490925060ff161561153957600080fd5b600160a060020a0384166000908152600860208181526040808420868552600281018352818520805460ff19166001908117909155938352600301805493840181558452922001839055517fec1b982d69bfc1a6fd8becf191d9a633486c822d3bdedd52303ca81fa6357501906115b39086908690614c2d565b60405180910390a150505050565b600160a060020a031660009081526008602052604090205460ff1690565b60005460ff1681565b600354600160a060020a031681565b6000611601612e02565b151561160c57600080fd5b82600160a060020a038116151561162257600080fd5b600160a060020a03811630141561163857600080fd5b61164183612fb1565b600160a060020a038516600090815260086020908152604080832084845260020190915290205490925060ff16151561167957600080fd5b600160a060020a038416600090815260086020908152604080832085845260020190915290819020805460ff19169055517f92f4af6130f47c92f3899e06611c8c6ef191fb81207ad2675d134af619d2fe7d906115b39086908690614c2d565b60095481565b600654600160a060020a031681565b60006116f8612e02565b151561170357600080fd5b81600160a060020a038116151561171957600080fd5b6007548390600160a060020a0390811690821681146106f55760078054600160a060020a03878116600160a060020a0319831617909255604051911694507fafe0f82771e36e01015c06151eff69190d6796b6359da2780a8dd89ded9b2205906106ec9086908890614d80565b6000546101009004600160a060020a031690565b6117a2612e02565b15156117ad57600080fd5b80600160a060020a03811615156117c357600080fd5b600160a060020a0381163014156117d957600080fd5b600160a060020a03821660009081526008602052604090205460ff16151561180057600080fd5b600160a060020a03821660009081526008602052604090819020805460ff19169055517f777645c5437dfbf962f57a281ead25f3d513f2f8e938685bbfc1738e81c9880e90611850908490614ae6565b60405180910390a15050565b600a54600160a060020a031681565b600154600160a060020a031681565b611882612e02565b151561188d57600080fd5b6005805460a060020a60ff02191660a060020a1790556040517f56ec8900b9c4bf84f4b715a53068ca06961dd49084c07b481931e2c2045346e690600090a1565b6000806118da83612fb1565b90506118e584611352565b80156119175750600160a060020a038416600090815260086020908152604080832084845260020190915290205460ff165b949350505050565b6000611929612e02565b151561193457600080fd5b81600160a060020a038116151561194a57600080fd5b6002548390600160a060020a0390811690821681146106f55760028054600160a060020a03878116600160a060020a0319831617909255604051911694507f634f61bf00e14adedce330c80c2823e16e184f189ebe853e1ddecc4a268477ff906106ec9086908890614d80565b60006119c1612e02565b15156119cc57600080fd5b81600160a060020a03811615156119e257600080fd5b6004548390600160a060020a0390811690821681146106f55760048054600160a060020a03878116600160a060020a0319831617909255604051911694507fc9f3f00c1760fe26985aeacb814a21c56ea289d680562e89b249681b08c30382906106ec9086908890614d80565b600454600160a060020a031681565b600254600160a060020a031681565b33611a76611786565b600160a060020a031614611a8957600080fd5b6000805460ff191660011790556040517fd5a2a04a775c741c2ca0dc46ea7ce4835190e1aaf1ca018def0e82568ec3361690611ac6903390614ae6565b60405180910390a1565b611ad8612e02565b1515611ae357600080fd5b60098190556040517f4f1d324a1cbffc352fb64f1d73d95e4b200d92f99ef39bf2d7f5b41f946909d690611b18908390614d64565b60405180910390a150565b6000611b2d612e02565b1515611b3857600080fd5b81600160a060020a0381161515611b4e57600080fd5b6005548390600160a060020a0390811690821681146106f55760055460a060020a900460ff1615611b7e57600080fd5b60058054600160a060020a03878116600160a060020a0319831617909255604051911694507fa44d361e26327b72a7ccbeae801b3c5cd7677ea4fa74168b289e273c46bfecfc906106ec9086908890614d80565b611bda612e02565b1515611be557600080fd5b80600160a060020a0381161515611bfb57600080fd5b600160a060020a038116301415611c1157600080fd5b611c1d8260095461307b565b7f7f3a8349917003ed377f6e9ae1608b92edd893903f8983bd274b1f8373dd3b1182600954604051611850929190614bc6565b611c58613c1c565b6040805180820190915260128152607160020a7131b430b63632b733b2afb13cafb7b93232b9026020820152611c8e33826118ce565b1515611c9957600080fd5b60035460405160e060020a6331f2978b0281528591600160a060020a0316906331f2978b90611ccc908490600401614dba565b602060405180830381600087803b158015611ce657600080fd5b505af1158015611cfa573d6000803e3d6000fd5b505050506040513d601f19601f82011682018060405250611d1e919081019061448a565b1515611d2957600080fd5b6006546060860151602001515160405160e060020a63e1f5828b028152600160a060020a039092169163e1f5828b91611d6491600401614d64565b602060405180830381600087803b158015611d7e57600080fd5b505af1158015611d92573d6000803e3d6000fd5b505050506040513d601f19601f82011682018060405250611db6919081019061448a565b15611dc057600080fd5b6007546020808701516060880151909101515160405160e160020a634deaf58b028152600160a060020a0390931692639bd5eb1692611e03929091600401614bc6565b602060405180830381600087803b158015611e1d57600080fd5b505af1158015611e31573d6000803e3d6000fd5b505050506040513d601f19601f82011682018060405250611e55919081019061448a565b15611e5f57600080fd5b611e6885612e18565b600a54602087015160405160e360020a63076470a5028152929550600160a060020a0390911691633b23852891611ea3918790600401614c4d565b602060405180830381600087803b158015611ebd57600080fd5b505af1158015611ed1573d6000803e3d6000fd5b505050506040513d601f19601f82011682018060405250611ef5919081019061448a565b1515611f0057600080fd5b600a54602086015160405160e060020a635482c735028152600160a060020a0390921691635482c73591611f38918790600401614c4d565b602060405180830381600087803b158015611f5257600080fd5b505af1158015611f66573d6000803e3d6000fd5b505050506040513d601f19601f82011682018060405250611f8a919081019061448a565b15611f9457600080fd5b600a54602086015160405160e060020a632ee2ed25028152600160a060020a0390921691632ee2ed2591611fcc918790600401614c4d565b602060405180830381600087803b158015611fe657600080fd5b505af1158015611ffa573d6000803e3d6000fd5b505050506040513d601f19601f8201168201806040525061201e91908101906144a8565b85511161202a57600080fd5b600a54602086015160405160e060020a63553d90e9028152600160a060020a039092169163553d90e991612062918790600401614c4d565b602060405180830381600087803b15801561207c57600080fd5b505af1158015612090573d6000803e3d6000fd5b505050506040513d601f19601f820116820180604052506120b491908101906144a8565b8551116120c057600080fd5b600a54602086015160405160e060020a63c46fcd75028152600160a060020a039092169163c46fcd75916120f8918790600401614c4d565b602060405180830381600087803b15801561211257600080fd5b505af1158015612126573d6000803e3d6000fd5b505050506040513d601f19601f8201168201806040525061214a91908101906144a8565b612153866130cd565b1361215d57600080fd5b612200856020015161216e876130cd565b8587600260009054906101000a9004600160a060020a0316600160a060020a031663fbdfd8e76040518163ffffffff1660e060020a028152600401602060405180830381600087803b1580156121c357600080fd5b505af11580156121d7573d6000803e3d6000fd5b505050506040513d601f19601f820116820180604052506121fb91908101906144a8565b613118565b600a60009054906101000a9004600160a060020a0316600160a060020a031663667666c88660200151858789608001518a600001518b60600151602001516000015173__TradeTypesLib_________________________63af75a2f76040518163ffffffff1660e060020a02815260040160006040518083038186803b15801561228957600080fd5b505af415801561229d573d6000803e3d6000fd5b505050506040513d6000823e601f3d908101601f191682016040526122c59190810190614545565b6040518863ffffffff1660e060020a0281526004016122ea9796959493929190614c68565b600060405180830381600087803b15801561230457600080fd5b505af1158015612318573d6000803e3d6000fd5b5050600a54602088015160405160e060020a632ee2ed250281527f692186b99bb015f5247f9db51faae16e52216ff8292cd97ddfd7777e69366e029450600160a060020a039092169250632ee2ed259161237791908890600401614c4d565b602060405180830381600087803b15801561239157600080fd5b505af11580156123a5573d6000803e3d6000fd5b505050506040513d601f19601f820116820180604052506123c991908101906144a8565b86866040516106ec93929190614dfa565b6123e2613c1c565b6000604080519081016040528060128152602001607060020a716368616c6c656e67655f62795f74726164650281525061241c33826118ce565b151561242757600080fd5b60035460405160e160020a637211c8c70281528691600160a060020a03169063e423918e9061245a908490600401614dc9565b602060405180830381600087803b15801561247457600080fd5b505af1158015612488573d6000803e3d6000fd5b505050506040513d601f19601f820116820180604052506124ac919081019061448a565b15156124b757600080fd5b60035460405160e160020a6303e149c302815287918991600160a060020a03909116906307c29386906124f09085908590600401614dda565b602060405180830381600087803b15801561250a57600080fd5b505af115801561251e573d6000803e3d6000fd5b505050506040513d601f19601f82011682018060405250612542919081019061448a565b151561254d57600080fd5b60065460e08901515160405160e160020a6352c894d1028152600160a060020a039092169163a59129a29161258491600401614d64565b602060405180830381600087803b15801561259e57600080fd5b505af11580156125b2573d6000803e3d6000fd5b505050506040513d601f19601f820116820180604052506125d6919081019061448a565b156125e057600080fd5b600654600160a060020a031663e1f5828b6125fb8a8c612ef6565b6040518263ffffffff1660e060020a02815260040161261a9190614d64565b602060405180830381600087803b15801561263457600080fd5b505af1158015612648573d6000803e3d6000fd5b505050506040513d601f19601f8201168201806040525061266c919081019061448a565b1561267657600080fd5b600754600160a060020a0316639bd5eb168a6126928b82612ef6565b6040518363ffffffff1660e060020a0281526004016126b2929190614bc6565b602060405180830381600087803b1580156126cc57600080fd5b505af11580156126e0573d6000803e3d6000fd5b505050506040513d601f19601f82011682018060405250612704919081019061448a565b1561270e57600080fd5b612718888a6131c2565b600a5460405160e360020a63076470a5028152919750600160a060020a031690633b2385289061274e908c908a90600401614c4d565b602060405180830381600087803b15801561276857600080fd5b505af115801561277c573d6000803e3d6000fd5b505050506040513d601f19601f820116820180604052506127a0919081019061448a565b15156127ab57600080fd5b600a5460405160e060020a635482c735028152600160a060020a0390911690635482c735906127e0908c908a90600401614c4d565b602060405180830381600087803b1580156127fa57600080fd5b505af115801561280e573d6000803e3d6000fd5b505050506040513d601f19601f82011682018060405250612832919081019061448a565b1561283c57600080fd5b612846888a61326d565b600a5460405160e060020a632ee2ed25028152919650600160a060020a031690632ee2ed259061287c908c908a90600401614c4d565b602060405180830381600087803b15801561289657600080fd5b505af11580156128aa573d6000803e3d6000fd5b505050506040513d601f19601f820116820180604052506128ce91908101906144a8565b85116128d957600080fd5b600a5460405160e060020a63553d90e9028152600160a060020a039091169063553d90e99061290e908c908a90600401614c4d565b602060405180830381600087803b15801561292857600080fd5b505af115801561293c573d6000803e3d6000fd5b505050506040513d601f19601f8201168201806040525061296091908101906144a8565b851161296b57600080fd5b600a5460405160e060020a63c46fcd75028152600160a060020a039091169063c46fcd75906129a0908c908a90600401614c4d565b602060405180830381600087803b1580156129ba57600080fd5b505af11580156129ce573d6000803e3d6000fd5b505050506040513d601f19601f820116820180604052506129f291908101906144a8565b6129fc898b61330e565b13612a0657600080fd5b612a1d89612a148a8c6133b4565b888a6000613118565b600a60009054906101000a9004600160a060020a0316600160a060020a031663667666c88a888a8c61010001518a8e60e001516000015173__TradeTypesLib_________________________6332575cb66040518163ffffffff1660e060020a02815260040160006040518083038186803b158015612a9b57600080fd5b505af4158015612aaf573d6000803e3d6000fd5b505050506040513d6000823e601f3d908101601f19168201604052612ad79190810190614545565b6040518863ffffffff1660e060020a028152600401612afc9796959493929190614c68565b600060405180830381600087803b158015612b1657600080fd5b505af1158015612b2a573d6000803e3d6000fd5b5050600a5460405160e060020a632ee2ed250281527fb69fdc3af3abb19f37028d39f381743ca840cb47e6b36f7c0399810761c4387093508c9250600160a060020a0390911690632ee2ed2590612b879084908c90600401614c4d565b602060405180830381600087803b158015612ba157600080fd5b505af1158015612bb5573d6000803e3d6000fd5b505050506040513d601f19601f82011682018060405250612bd991908101906144a8565b8a8a604051612beb9493929190614cff565b60405180910390a1505050505050505050565b6000612c08612e02565b1515612c1357600080fd5b81600160a060020a0381161515612c2957600080fd5b600160a060020a038116301415612c3f57600080fd5b600054600160a060020a038481166101009092041614612cb75760008054600160a060020a0385811661010090810261010060a860020a0319841617909355604051929091041692507f977e5fa58e458501775e0008d275006294c5249e3c08d1d0e3a9f3acad14f6e4906114849084908690614af4565b505050565b6000612cc6613461565b1515612cd157600080fd5b81600160a060020a0381161515612ce757600080fd5b600160a060020a038116301415612cfd57600080fd5b600154600160a060020a03848116911614612cb75760018054600160a060020a03858116600160a060020a0319831617909255604051911692507f9f611b789425d0d5b90b920f1b2852907dd865c80074a30b1629aaa041d1812c906114849084908690614af4565b6000546101009004600160a060020a031681565b600554600160a060020a031681565b612d91612e02565b1515612d9c57600080fd5b80600160a060020a0381161515612db257600080fd5b600160a060020a038116301415612dc857600080fd5b612dd382600061307b565b7fb619d545cb511bd5f02907a1eac4f4cb8dace7b1846852fb0bf5e553937481c1826040516118509190614ae6565b6000546101009004600160a060020a0316331490565b612e20613c1c565b6040820151516001811115612e3157fe5b600114612e4a5781604001516040015160200151611384565b5060409081015101515190565b8051825160009184918491849114612e725760009350612eed565b5060005b8251811015612ee8578181815181101515612e8d57fe5b90602001015160f860020a900460f860020a02600160f860020a0319168382815181101515612eb857fe5b60209101015160f860020a9081900402600160f860020a03191614612ee05760009350612eed565b600101612e76565b600193505b50505092915050565b60035460405160e060020a63059057d7028152600091600160a060020a03169063059057d790612f2c9086908690600401614dda565b602060405180830381600087803b158015612f4657600080fd5b505af1158015612f5a573d6000803e3d6000fd5b505050506040513d601f19601f82011682018060405250612f7e919081019061448a565b612f98578260a00151608001516020015160200151612faa565b82608001516080015160200151602001515b9392505050565b6000816040516020018082805190602001908083835b60208310612fe65780518252601f199092019160209182019101612fc7565b6001836020036101000a0380198251168184511680821785525050505050509050019150506040516020818303038152906040526040518082805190602001908083835b602083106130495780518252601f19909201916020918201910161302a565b5181516020939093036101000a6000190180199091169216919091179052604051920182900390912095945050505050565b600160a060020a03821660009081526008602052604090205460ff1615156130c957600160a060020a0382166000908152600860205260409020805460ff1916600190811782554283019101555b5050565b60408101515160009060018111156130e157fe5b60011461310c57604082015160608101516020909101516131079163ffffffff61347216565b611384565b50604001516020015190565b600a5460405160e260020a6333ca4eab028152600160a060020a039091169063cf293aac9061314d9088908790600401614c4d565b602060405180830381600087803b15801561316757600080fd5b505af115801561317b573d6000803e3d6000fd5b505050506040513d601f19601f8201168201806040525061319f919081019061448a565b156131b5576131b0858585856134a7565b6106f5565b6106f5858585858561372b565b6131ca613c1c565b60035460405160e060020a63059057d7028152600160a060020a039091169063059057d7906131ff9086908690600401614dda565b602060405180830381600087803b15801561321957600080fd5b505af115801561322d573d6000803e3d6000fd5b505050506040513d601f19601f82011682018060405250613251919081019061448a565b61326057604083015151612faa565b5050604001516020015190565b60035460405160e060020a63059057d7028152600091600160a060020a03169063059057d7906132a39086908690600401614dda565b602060405180830381600087803b1580156132bd57600080fd5b505af11580156132d1573d6000803e3d6000fd5b505050506040513d601f19601f820116820180604052506132f5919081019061448a565b6133045760a083015151612faa565b5050608001515190565b60035460405160e060020a63059057d7028152600091600160a060020a03169063059057d7906133449086908690600401614dda565b602060405180830381600087803b15801561335e57600080fd5b505af1158015613372573d6000803e3d6000fd5b505050506040513d601f19601f82011682018060405250613396919081019061448a565b6133a65760c08301515151612faa565b505060c00151602001515190565b60035460405160e060020a63059057d7028152600091600160a060020a03169063059057d7906133ea9086908690600401614dda565b602060405180830381600087803b15801561340457600080fd5b505af1158015613418573d6000803e3d6000fd5b505050506040513d601f19601f8201168201806040525061343c919081019061448a565b61344f5760a08084015101515151612faa565b50506080015160a00151602001515190565b600154600160a060020a0316331490565b600060ff60020a8314158061348957508160001914155b151561349457600080fd5b818381151561349f57fe5b059392505050565b600a5460405160e060020a63b6e2fc33028152600160a060020a039091169063b6e2fc33906134dc9087908690600401614c4d565b602060405180830381600087803b1580156134f657600080fd5b505af115801561350a573d6000803e3d6000fd5b505050506040513d601f19601f8201168201806040525061352e91908101906144e4565b600181111561353957fe5b6001141561363257600554600a5460405160e060020a6356587229028152600160a060020a03928316926346c5c0239288929116906356587229906135849084908990600401614c4d565b602060405180830381600087803b15801561359e57600080fd5b505af11580156135b2573d6000803e3d6000fd5b505050506040513d601f19601f820116820180604052506135d691908101906143b7565b8551602087015160405160e060020a63ffffffff87160281526135ff9493929190600401614b0f565b600060405180830381600087803b15801561361957600080fd5b505af115801561362d573d6000803e3d6000fd5b505050505b60055482516020808501516002546040805160e060020a63fbdfd8e70281529051600160a060020a0396871696639a545322968c968a968d9692959094929093169263fbdfd8e792600480830193928290030181600087803b15801561369757600080fd5b505af11580156136ab573d6000803e3d6000fd5b505050506040513d601f19601f820116820180604052506136cf91908101906144a8565b6040518763ffffffff1660e060020a0281526004016136f396959493929190614b44565b600060405180830381600087803b15801561370d57600080fd5b505af1158015613721573d6000803e3d6000fd5b5050505050505050565b613733613c33565b600a5460405160e060020a63b6e2fc33028152600091600160a060020a03169063b6e2fc3390613769908a908990600401614c4d565b602060405180830381600087803b15801561378357600080fd5b505af1158015613797573d6000803e3d6000fd5b505050506040513d601f19601f820116820180604052506137bb91908101906144e4565b60018111156137c657fe5b600114156138bc5760048054600a5460405160e060020a6356587229028152600160a060020a0392831693634e791e0d939092169163565872299161380f918d918c9101614c4d565b602060405180830381600087803b15801561382957600080fd5b505af115801561383d573d6000803e3d6000fd5b505050506040513d601f19601f8201168201806040525061386191908101906143b7565b8751602089015160405160e060020a63ffffffff861602815261388993929190600401614b9e565b600060405180830381600087803b1580156138a357600080fd5b505af11580156138b7573d6000803e3d6000fd5b505050505b6138c4613b4f565b600480548251602080850151805191015160405160e160020a634197bc19028152959750600160a060020a039093169463832f78329461390c948b94939290918b9101614be1565b600060405180830381600087803b15801561392657600080fd5b505af115801561393a573d6000803e3d6000fd5b50506004805488516020808b01516002546040805160e160020a63560069d9028152905173__SafeMathIntLib________________________995063755875b298508f97600160a060020a039788169763a72148eb979694169363ac00d3b293808301939192908290030181600087803b1580156139b757600080fd5b505af11580156139cb573d6000803e3d6000fd5b505050506040513d601f19601f820116820180604052506139ef91908101906144a8565b6040518463ffffffff1660e060020a028152600401613a1093929190614d3b565b602060405180830381600087803b158015613a2a57600080fd5b505af1158015613a3e573d6000803e3d6000fd5b505050506040513d601f19601f82011682018060405250613a6291908101906144a8565b6040518363ffffffff1660e060020a028152600401613a82929190614d9b565b60206040518083038186803b158015613a9a57600080fd5b505af4158015613aae573d6000803e3d6000fd5b505050506040513d601f19601f82011682018060405250613ad291908101906144a8565b600480548751602089015160405160e160020a634197bc19028152949550600160a060020a039092169363832f783293613b14938a93889390928b9101614be1565b600060405180830381600087803b158015613b2e57600080fd5b505af1158015613b42573d6000803e3d6000fd5b5050505050505050505050565b613b57613c33565b6000806000600260009054906101000a9004600160a060020a0316600160a060020a031663ccd03d2e6040518163ffffffff1660e060020a028152600401606060405180830381600087803b158015613baf57600080fd5b505af1158015613bc3573d6000803e3d6000fd5b505050506040513d601f19601f82011682018060405250613be79190810190614502565b6040805180820182529384528051808201909152600160a060020a039092168252602082810191909152820152949350505050565b604080518082019091526000808252602082015290565b60606040519081016040528060008152602001613c4e613c1c565b905290565b6000612faa8235614eda565b6000612faa8251614eda565b6000601f82018313613c7c57600080fd5b8135613c8f613c8a82614e89565b614e63565b91508181835260208401935060208101905083856080840282011115613cb457600080fd5b60005b83811015613ce25781613cca8882614001565b84525060209092019160809190910190600101613cb7565b5050505092915050565b6000612faa8251614ee6565b6000612faa8235614eeb565b6000612faa8251614eeb565b6000612faa8235614f04565b6000612faa8235614f0f565b6000612faa8251614f0f565b6000601f82018313613d4557600080fd5b8135613d53613c8a82614ea9565b91508082526020830160208301858383011115613d6f57600080fd5b612eed838284614f34565b6000601f82018313613d8b57600080fd5b8151613d99613c8a82614ea9565b91508082526020830160208301858383011115613db557600080fd5b612eed838284614f40565b600060408284031215613dd257600080fd5b613ddc6040614e63565b90506000613dea8484613c53565b8252506020613dfb84848301613cf8565b60208301525092915050565b600060408284031215613e1957600080fd5b613e236040614e63565b90506000613dea8484613cf8565b600060608284031215613e4357600080fd5b613e4d6040614e63565b90506000613e5b8484613cf8565b8252506020613dfb84848301613dc0565b600060808284031215613e7e57600080fd5b613e886040614e63565b90506000613e968484613dc0565b8252506040613dfb84848301613dc0565b600060808284031215613eb957600080fd5b613ec36040614e63565b90506000613ed18484613e07565b8252506040613dfb84848301613e07565b60006101208284031215613ef557600080fd5b613eff60a0614e63565b90506000613f0d8484613d1c565b8252506020613f1e84848301613cf8565b6020830152506040613f3284828501613e6c565b60408301525060c0613f4684828501613cf8565b60608301525060e0613f5a84828501613e07565b60808301525092915050565b60006102a08284031215613f7957600080fd5b613f8360c0614e63565b90506000613f918484613cf8565b8252506020613fa284848301613c53565b6020830152506040613fb684828501613ee2565b604083015250610160613fcb84828501614351565b606083015250610260613fe084828501613cf8565b608083015250610280613ff584828501613cf8565b60a08301525092915050565b60006080828403121561401357600080fd5b61401d6040614e63565b9050600061402b8484613cf8565b8252506020613dfb84848301613e31565b60006080828403121561404e57600080fd5b6140586040614e63565b905060006140668484613cf8565b8252506020613dfb8484830160006060828403121561408457600080fd5b61408e6060614e63565b9050600061409c8484613cf8565b82525060206140ad84848301613cf8565b60208301525060406140c18482850161438d565b60408301525092915050565b6000608082840312156140df57600080fd5b6140e96040614e63565b905060006140f78484613e31565b82525060608201356001604060020a0381111561411357600080fd5b613dfb84828501613c6b565b600060a0828403121561413157600080fd5b61413b6060614e63565b905060006141498484613cf8565b825250602061415a84848301613e07565b60208301525060606140c184828501613e07565b60006101c0828403121561418157600080fd5b61418b60e0614e63565b905060006141998484613cf8565b82525060206141aa84848301613c53565b60208301525060406141be84828501613cf8565b60408301525060606141d284828501613d1c565b60608301525060806141e68482850161411f565b6080830152506101206141fb84828501613ea7565b60a0830152506101a08201356001604060020a0381111561421b57600080fd5b614227848285016140cd565b60c08301525092915050565b6000610260828403121561424657600080fd5b614251610140614e63565b9050600061425f8484613cf8565b825250602061427084848301613cf8565b602083015250604061428484828501613e6c565b60408301525060c061429884828501613cf8565b60608301525060e08201356001604060020a038111156142b757600080fd5b6142c38482850161416e565b6080830152506101008201356001604060020a038111156142e357600080fd5b6142ef8482850161416e565b60a08301525061012061430484828501613ea7565b60c0830152506101a06143198482850161403c565b60e08301525061022061432e84828501613cf8565b6101008301525061024061434484828501613cf8565b6101208301525092915050565b6000610100828403121561436457600080fd5b61436e6040614e63565b9050600061437c848461403c565b8252506080613dfb8484830161403c565b6000612faa8235614efe565b6000602082840312156143ab57600080fd5b60006119178484613c53565b6000602082840312156143c957600080fd5b60006119178484613c5f565b600080604083850312156143e857600080fd5b60006143f48585613c53565b92505060208301356001604060020a0381111561441057600080fd5b61441c85828601613d34565b9150509250929050565b60008060006060848603121561443b57600080fd5b60006144478686613c53565b93505060208401356001604060020a0381111561446357600080fd5b61446f86828701614233565b925050604061448086828701613c53565b9150509250925092565b60006020828403121561449c57600080fd5b60006119178484613cec565b6000602082840312156144ba57600080fd5b60006119178484613d04565b6000602082840312156144d857600080fd5b60006119178484613d10565b6000602082840312156144f657600080fd5b60006119178484613d28565b60008060006060848603121561451757600080fd5b60006145238686613d04565b935050602061453486828701613c5f565b925050604061448086828701613d04565b60006020828403121561455757600080fd5b81516001604060020a0381111561456d57600080fd5b61191784828501613d7a565b6000806102c0838503121561458d57600080fd5b60006145998585613f66565b9250506102a061441c85828601613c53565b60008060006102e084860312156145c157600080fd5b60006145cd8686613f66565b9350506102a08401356001604060020a038111156145ea57600080fd5b6145f686828701614233565b9250506102c061448086828701613c53565b60006020828403121561461a57600080fd5b60006119178484613cf8565b61462f81614eda565b82525050565b600061464082614ed6565b80845260208401935061465283614ed0565b60005b8281101561468257614668868351614867565b61467182614ed0565b608096909601959150600101614655565b5093949350505050565b61462f81614ee6565b61462f81614eeb565b61462f81614f04565b61462f81614f1e565b61462f81614f29565b60006146c482614ed6565b8084526146d8816020860160208601614f40565b6146e181614f6c565b9093016020019392505050565b805160408301906146ff8482614626565b5060208201516147126020850182614695565b50505050565b805160408301906146ff8482614695565b8051606083019061473a8482614695565b50602082015161471260208501826146ee565b8051608083019061475e84826146ee565b50602082015161471260408501826146ee565b805160808301906147828482614718565b5060208201516147126040850182614718565b80516101208301906147a784826146a7565b5060208201516147ba6020850182614695565b5060408201516147cd604085018261474d565b5060608201516147e060c0850182614695565b50608082015161471260e0850182614718565b80516102a08301906148058482614695565b5060208201516148186020850182614626565b50604082015161482b6040850182614795565b50606082015161483f610160850182614ab8565b506080820151614853610260850182614695565b5060a0820151614712610280850182614695565b805160808301906148788482614695565b5060208201516147126020850182614729565b8051608083019061489c8482614695565b5060208201516147126020850182805160608301906148bb8482614695565b5060208201516148ce6020850182614695565b5060408201516147126040850182614add565b805160009060808401906148f58582614729565b506020830151848203606086015261490d8282614635565b95945050505050565b805160a08301906149278482614695565b50602082015161493a6020850182614718565b5060408201516147126060850182614718565b80516000906101c08401906149628582614695565b5060208301516149756020860182614626565b5060408301516149886040860182614695565b50606083015161499b60608601826146a7565b5060808301516149ae6080860182614916565b5060a08301516149c2610120860182614771565b5060c08301518482036101a086015261490d82826148e1565b80516000906102608401906149f08582614695565b506020830151614a036020860182614695565b506040830151614a16604086018261474d565b506060830151614a2960c0860182614695565b50608083015184820360e0860152614a41828261494d565b91505060a0830151848203610100860152614a5c828261494d565b91505060c0830151614a72610120860182614771565b5060e0830151614a866101a086018261488b565b50610100830151614a9b610220860182614695565b50610120830151614ab0610240860182614695565b509392505050565b8051610100830190614aca848261488b565b506020820151614712608085018261488b565b61462f81614efe565b602081016113848284614626565b60408101614b028285614626565b612faa6020830184614626565b60808101614b1d8287614626565b614b2a6020830186614626565b614b376040830185614626565b61490d6060830184614695565b60c08101614b528289614626565b614b5f6020830188614626565b614b6c6040830187614695565b614b796060830186614626565b614b866080830185614695565b614b9360a0830184614695565b979650505050505050565b60608101614bac8286614626565b614bb96020830185614626565b6119176040830184614695565b60408101614bd48285614626565b612faa6020830184614695565b60a08101614bef8288614626565b614bfc6020830187614695565b614c096040830186614626565b614c166060830185614695565b614c236080830184614695565b9695505050505050565b60408101614c3b8285614626565b818103602083015261191781846146b9565b60608101614c5b8285614626565b612faa60208301846146ee565b6101008101614c77828a614626565b614c8460208301896146ee565b614c916060830188614626565b614c9e6080830187614695565b614cab60a0830186614695565b614cb860c0830185614695565b81810360e0830152614cca81846146b9565b9998505050505050505050565b60608101614ce58286614626565b614cf26020830185614695565b61191760408301846146b0565b60808101614d0d8287614626565b614d1a6020830186614695565b8181036040830152614d2c81856149db565b905061490d6060830184614626565b60608101614d498286614626565b614bb96020830185614695565b60208101611384828461468c565b602081016113848284614695565b60208101611384828461469e565b60408101614d8e828561469e565b612faa602083018461469e565b60408101614bd48285614695565b60208082528101612faa81846146b9565b6102a0810161138482846147f3565b60208082528101612faa81846149db565b60408082528101614deb81856149db565b9050612faa6020830184614626565b6102e08101614e098286614695565b614e1660208301856147f3565b6119176102c0830184614626565b6103008101614e338287614695565b614e4060208301866147f3565b8181036102c0830152614e5381856149db565b905061490d6102e0830184614626565b6040518181016001604060020a0381118282101715614e8157600080fd5b604052919050565b60006001604060020a03821115614e9f57600080fd5b5060209081020190565b60006001604060020a03821115614ebf57600080fd5b506020601f91909101601f19160190565b60200190565b5190565b600160a060020a031690565b151590565b90565b600060028210614efa57fe5b5090565b60ff1690565b600061138482614eda565b600060028210614efa57600080fd5b600061138482614eee565b600061138482614eeb565b82818337506000910152565b60005b83811015614f5b578181015183820152602001614f43565b838111156147125750506000910152565b601f01601f1916905600756e6368616c6c656e67655f6f726465725f63616e6469646174655f62795f74a265627a7a72305820816df92b6a6f32b4db95483a757b21f648b8583e3df71cf75dce7e0e8f057dd16c6578706572696d656e74616cf50037",
  "source": "/*\n * Hubii Nahmii\n *\n * Compliant with the Hubii Nahmii specification v0.12.\n *\n * Copyright (C) 2017-2018 Hubii AS\n */\n\npragma solidity ^0.4.25;\npragma experimental ABIEncoderV2;\n\nimport {Ownable} from \"./Ownable.sol\";\nimport {Configurable} from \"./Configurable.sol\";\nimport {ValidatableV2} from \"./ValidatableV2.sol\";\nimport {SecurityBondable} from \"./SecurityBondable.sol\";\nimport {WalletLockable} from \"./WalletLockable.sol\";\nimport {FraudChallengable} from \"./FraudChallengable.sol\";\nimport {CancelOrdersChallengable} from \"./CancelOrdersChallengable.sol\";\nimport {Servable} from \"./Servable.sol\";\nimport {SafeMathIntLib} from \"./SafeMathIntLib.sol\";\nimport {SafeMathUintLib} from \"./SafeMathUintLib.sol\";\nimport {Strings} from \"solidity-util/lib/Strings.sol\";\nimport {MonetaryTypesLib} from \"./MonetaryTypesLib.sol\";\nimport {NahmiiTypesLib} from \"./NahmiiTypesLib.sol\";\nimport {TradeTypesLib} from \"./TradeTypesLib.sol\";\nimport {SettlementChallengeTypesLib} from \"./SettlementChallengeTypesLib.sol\";\nimport {DriipSettlementChallengeState} from \"./DriipSettlementChallengeState.sol\";\n\n/**\n * @title DriipSettlementDisputeByTrade\n * @notice The where trade related disputes of driip settlement challenge happens\n */\ncontract DriipSettlementDisputeByTrade is Ownable, Configurable, ValidatableV2, SecurityBondable, WalletLockable,\nFraudChallengable, CancelOrdersChallengable, Servable {\n    using SafeMathIntLib for int256;\n    using SafeMathUintLib for uint256;\n    using Strings for string;\n\n    //\n    // Constants\n    // -----------------------------------------------------------------------------------------------------------------\n    string constant public CHALLENGE_BY_ORDER_ACTION = \"challenge_by_order\";\n    string constant public UNCHALLENGE_ORDER_CANDIDATE_BY_TRADE_ACTION = \"unchallenge_order_candidate_by_trade\";\n    string constant public CHALLENGE_BY_TRADE_ACTION = \"challenge_by_trade\";\n\n    //\n    // Variables\n    // -----------------------------------------------------------------------------------------------------------------\n    DriipSettlementChallengeState public driipSettlementChallengeState;\n\n    //\n    // Events\n    // -----------------------------------------------------------------------------------------------------------------\n    event SetDriipSettlementChallengeStateEvent(DriipSettlementChallengeState oldDriipSettlementChallengeState,\n        DriipSettlementChallengeState newDriipSettlementChallengeState);\n    event ChallengeByOrderEvent(uint256 nonce, TradeTypesLib.Order order, address challenger);\n    event UnchallengeOrderCandidateByTradeEvent(uint256 nonce, TradeTypesLib.Order order,\n        TradeTypesLib.Trade trade, address unchallenger);\n    event ChallengeByTradeEvent(address wallet, uint256 nonce, TradeTypesLib.Trade trade,\n        address challenger);\n\n    //\n    // Constructor\n    // -----------------------------------------------------------------------------------------------------------------\n    constructor(address deployer) Ownable(deployer) public {\n    }\n\n    /// @notice Set the driip settlement state contract\n    /// @param newDriipSettlementChallengeState The (address of) DriipSettlementChallengeState contract instance\n    function setDriipSettlementChallengeState(DriipSettlementChallengeState newDriipSettlementChallengeState) public\n    onlyDeployer\n    notNullAddress(newDriipSettlementChallengeState)\n    {\n        DriipSettlementChallengeState oldDriipSettlementChallengeState = driipSettlementChallengeState;\n        driipSettlementChallengeState = newDriipSettlementChallengeState;\n        emit SetDriipSettlementChallengeStateEvent(oldDriipSettlementChallengeState, driipSettlementChallengeState);\n    }\n\n    /// @notice Challenge the driip settlement by providing order candidate\n    /// @param order The order candidate that challenges the challenged driip\n    /// @param challenger The address of the challenger\n    /// @dev If (candidate) order has buy intention consider _conjugate_ currency and amount, else\n    /// if (candidate) order has sell intention consider _intended_ currency and amount\n    function challengeByOrder(TradeTypesLib.Order order, address challenger) public\n    onlyEnabledServiceAction(CHALLENGE_BY_ORDER_ACTION)\n    onlySealedOrder(order)\n    {\n        // Require that candidate order is not labelled fraudulent or cancelled\n        require(!fraudChallenge.isFraudulentOrderHash(order.seals.operator.hash));\n        require(!cancelOrdersChallenge.isOrderCancelled(order.wallet, order.seals.operator.hash));\n\n        // Get the relevant currency\n        MonetaryTypesLib.Currency memory currency = _orderCurrency(order);\n\n        // Require that proposal has been initiated\n        require(driipSettlementChallengeState.hasProposal(order.wallet, currency));\n\n        // Require that proposal has not expired\n        require(!driipSettlementChallengeState.hasProposalExpired(order.wallet, currency));\n\n        // Require that orders's nonce is strictly greater than proposal's nonce and its current\n        // disqualification nonce\n        require(order.nonce > driipSettlementChallengeState.proposalNonce(\n            order.wallet, currency\n        ));\n        require(order.nonce > driipSettlementChallengeState.proposalDisqualificationNonce(\n            order.wallet, currency\n        ));\n\n        // Require that transfer amount is strictly greater than the proposal's target balance amount\n        // for this order to be a valid challenge candidate\n        require(_orderTransferAmount(order) > driipSettlementChallengeState.proposalTargetBalanceAmount(\n            order.wallet, currency\n        ));\n\n        // Reward challenger\n        // TODO Need balance as part of order to replace transfer amount (_orderTransferAmount(order)) in call below\n        _settleRewards(\n            order.wallet, _orderTransferAmount(order), currency, challenger,\n            configuration.settlementChallengeTimeout()\n        );\n\n        // Disqualify proposal, effectively overriding any previous disqualification\n        driipSettlementChallengeState.disqualifyProposal(\n            order.wallet, currency, challenger, order.blockNumber,\n            order.nonce, order.seals.operator.hash, TradeTypesLib.ORDER_KIND()\n        );\n\n        // Emit event\n        emit ChallengeByOrderEvent(\n            driipSettlementChallengeState.proposalNonce(order.wallet, currency), order, challenger\n        );\n    }\n\n    /// @notice Unchallenge driip settlement by providing trade that shows that challenge order candidate has been filled\n    /// @param order The order candidate that challenged driip\n    /// @param trade The trade in which order has been filled\n    /// @param unchallenger The address of the unchallenger\n    function unchallengeOrderCandidateByTrade(TradeTypesLib.Order order, TradeTypesLib.Trade trade, address unchallenger)\n    public\n    onlyEnabledServiceAction(UNCHALLENGE_ORDER_CANDIDATE_BY_TRADE_ACTION)\n    onlySealedOrder(order)\n    onlySealedTrade(trade)\n    onlyTradeParty(trade, order.wallet)\n    {\n        // Get the relevant currency\n        MonetaryTypesLib.Currency memory currency = _orderCurrency(order);\n\n        // Require that proposal has been initiated\n        require(driipSettlementChallengeState.hasProposal(order.wallet, currency));\n\n        // Require that proposal has not expired\n        require(!driipSettlementChallengeState.hasProposalExpired(order.wallet, currency));\n\n        // Require that proposal has been disqualified\n        require(SettlementChallengeTypesLib.Status.Disqualified == driipSettlementChallengeState.proposalStatus(\n            order.wallet, currency\n        ));\n\n        // Require that candidate kind is order\n        require(\n            TradeTypesLib.ORDER_KIND().compareTo(driipSettlementChallengeState.proposalDisqualificationCandidateKind(\n                order.wallet, currency\n            ))\n        );\n\n        // Require that trade and order are not labelled fraudulent\n        require(!fraudChallenge.isFraudulentTradeHash(trade.seal.hash));\n        require(!fraudChallenge.isFraudulentOrderHash(order.seals.operator.hash));\n\n        bytes32 candidateHash = driipSettlementChallengeState.proposalDisqualificationCandidateHash(\n            order.wallet, currency\n        );\n\n        // Require that the order's and trade' order hashes equal the candidate (order's) hash,\n        // and implicitly that order's and trade order's hashes equal\n        // Order wallet is buyer -> require candidate hash to match buyer's order hash\n        // Order wallet is seller -> require candidate hash to match seller's order hash\n        require(candidateHash == order.seals.operator.hash);\n        require(candidateHash == _tradeOrderHash(trade, order.wallet));\n\n        // Store old challenger\n        address challenger = driipSettlementChallengeState.proposalDisqualificationChallenger(\n            order.wallet, currency\n        );\n\n        // Unlock wallet's balances or deprive challenger\n        if (driipSettlementChallengeState.proposalWalletInitiated(order.wallet, currency))\n            walletLocker.unlockFungibleByProxy(order.wallet, challenger, currency.ct, currency.id);\n        else\n            securityBond.depriveAbsolute(challenger, currency.ct, currency.id);\n\n        // Requalify proposal\n        driipSettlementChallengeState.qualifyProposal(\n            order.wallet, currency\n        );\n\n        // Reward unchallenger\n        securityBond.rewardFractional(unchallenger, configuration.walletSettlementStakeFraction(), 0);\n\n        // Emit event\n        emit UnchallengeOrderCandidateByTradeEvent(\n            driipSettlementChallengeState.proposalNonce(order.wallet, currency), order, trade, unchallenger\n        );\n    }\n\n    /// @notice Challenge the driip settlement by providing trade candidate\n    /// @param wallet The wallet whose driip settlement is being challenged\n    /// @param trade The trade candidate that challenges the challenged driip\n    /// @param challenger The address of the challenger\n    /// @dev If wallet is buyer in (candidate) trade consider single _conjugate_ transfer in (candidate) trade. Else\n    /// if wallet is seller in (candidate) trade consider single _intended_ transfer in (candidate) trade\n    function challengeByTrade(address wallet, TradeTypesLib.Trade trade, address challenger)\n    public\n    onlyEnabledServiceAction(CHALLENGE_BY_TRADE_ACTION)\n    onlySealedTrade(trade)\n    onlyTradeParty(trade, wallet)\n    {\n        // Require that trade candidate is not labelled fraudulent\n        require(!fraudChallenge.isFraudulentTradeHash(trade.seal.hash));\n\n        // Require that wallet's order in trade is not labelled fraudulent or cancelled\n        require(!fraudChallenge.isFraudulentOrderHash(_tradeOrderHash(trade, wallet)));\n        require(!cancelOrdersChallenge.isOrderCancelled(wallet, _tradeOrderHash(trade, wallet)));\n\n        // Get the relevant currency\n        MonetaryTypesLib.Currency memory currency = _tradeCurrency(trade, wallet);\n\n        // Require that proposal has been initiated\n        require(driipSettlementChallengeState.hasProposal(wallet, currency));\n\n        // Require that proposal has not expired\n        require(!driipSettlementChallengeState.hasProposalExpired(wallet, currency));\n\n        // Get the relevant nonce\n        uint256 nonce = _tradeNonce(trade, wallet);\n\n        // Require that trade party's nonce is strictly greater than proposal's nonce and its current\n        // disqualification nonce\n        require(nonce > driipSettlementChallengeState.proposalNonce(\n            wallet, currency\n        ));\n        require(nonce > driipSettlementChallengeState.proposalDisqualificationNonce(\n            wallet, currency\n        ));\n\n        // Require that transfer amount is strictly greater than the proposal's target balance amount\n        // for this trade to be a valid challenge candidate\n        require(_tradeTransferAmount(trade, wallet) > driipSettlementChallengeState.proposalTargetBalanceAmount(\n            wallet, currency\n        ));\n\n        // Reward challenger\n        _settleRewards(wallet, _tradeBalanceAmount(trade, wallet), currency, challenger, 0);\n\n        // Disqualify proposal, effectively overriding any previous disqualification\n        driipSettlementChallengeState.disqualifyProposal(\n            wallet, currency, challenger, trade.blockNumber,\n            nonce, trade.seal.hash, TradeTypesLib.TRADE_KIND()\n        );\n\n        // Emit event\n        emit ChallengeByTradeEvent(\n            wallet, driipSettlementChallengeState.proposalNonce(wallet, currency), trade, challenger\n        );\n    }\n\n    //\n    // Private functions\n    // -----------------------------------------------------------------------------------------------------------------\n    // Get the candidate order currency\n    // Buy order -> Conjugate currency\n    // Sell order -> Intended currency\n    function _orderCurrency(TradeTypesLib.Order order)\n    private\n    pure\n    returns (MonetaryTypesLib.Currency)\n    {\n        return TradeTypesLib.Intention.Sell == order.placement.intention ?\n        order.placement.currencies.intended :\n        order.placement.currencies.conjugate;\n    }\n\n    // Get the candidate order transfer\n    // Buy order -> Conjugate transfer\n    // Sell order -> Intended transfer\n    function _orderTransferAmount(TradeTypesLib.Order order)\n    private\n    pure\n    returns (int256)\n    {\n        return TradeTypesLib.Intention.Sell == order.placement.intention ?\n        order.placement.amount :\n        order.placement.amount.div(order.placement.rate);\n    }\n\n    function _tradeOrderHash(TradeTypesLib.Trade trade, address wallet)\n    private\n    view\n    returns (bytes32)\n    {\n        return validator.isTradeBuyer(trade, wallet) ?\n        trade.buyer.order.hashes.operator :\n        trade.seller.order.hashes.operator;\n    }\n\n    // Get the candidate trade currency\n    // Wallet is buyer in (candidate) trade -> Conjugate currency\n    // Wallet is seller in (candidate) trade -> Intended currency\n    function _tradeCurrency(TradeTypesLib.Trade trade, address wallet)\n    private\n    view\n    returns (MonetaryTypesLib.Currency)\n    {\n        return validator.isTradeBuyer(trade, wallet) ?\n        trade.currencies.conjugate :\n        trade.currencies.intended;\n    }\n\n    // Get the candidate trade nonce\n    // Wallet is buyer in (candidate) trade -> Buyer's nonce\n    // Wallet is seller in (candidate) trade -> Seller's nonce\n    function _tradeNonce(TradeTypesLib.Trade trade, address wallet)\n    private\n    view\n    returns (uint256)\n    {\n        return validator.isTradeBuyer(trade, wallet) ?\n        trade.buyer.nonce :\n        trade.seller.nonce;\n    }\n\n    // Get the candidate trade transfer amount\n    // Wallet is buyer in (candidate) trade -> Conjugate transfer\n    // Wallet is seller in (candidate) trade -> Intended transfer\n    function _tradeTransferAmount(TradeTypesLib.Trade trade, address wallet)\n    private\n    view\n    returns (int256)\n    {\n        return validator.isTradeBuyer(trade, wallet) ?\n        trade.transfers.conjugate.single :\n        trade.transfers.intended.single;\n    }\n\n    // Get the candidate trade balance amount\n    // Wallet is buyer in (candidate) trade -> Buyer's conjugate balance\n    // Wallet is seller in (candidate) trade -> Seller's intended balance\n    function _tradeBalanceAmount(TradeTypesLib.Trade trade, address wallet)\n    private\n    view\n    returns (int256)\n    {\n        return validator.isTradeBuyer(trade, wallet) ?\n        trade.buyer.balances.conjugate.current :\n        trade.seller.balances.intended.current;\n    }\n\n    // Lock wallet's balances or reward challenger by stake fraction\n    function _settleRewards(address wallet, int256 walletAmount, MonetaryTypesLib.Currency currency,\n        address challenger, uint256 unlockTimeoutInSeconds)\n    private\n    {\n        if (driipSettlementChallengeState.proposalWalletInitiated(wallet, currency))\n            _settleBalanceReward(wallet, walletAmount, currency, challenger);\n\n        else\n            _settleSecurityBondReward(wallet, walletAmount, currency, challenger, unlockTimeoutInSeconds);\n    }\n\n    function _settleBalanceReward(address wallet, int256 walletAmount, MonetaryTypesLib.Currency currency,\n        address challenger)\n    private\n    {\n        // Unlock wallet/currency for existing challenger if previously locked\n        if (SettlementChallengeTypesLib.Status.Disqualified == driipSettlementChallengeState.proposalStatus(\n            wallet, currency\n        ))\n            walletLocker.unlockFungibleByProxy(\n                wallet,\n                driipSettlementChallengeState.proposalDisqualificationChallenger(\n                    wallet, currency\n                ),\n                currency.ct, currency.id\n            );\n\n        // Lock wallet for new challenger\n        walletLocker.lockFungibleByProxy(\n            wallet, challenger, walletAmount, currency.ct, currency.id, configuration.settlementChallengeTimeout()\n        );\n    }\n\n    // Settle the two-component reward from security bond.\n    // The first component is flat figure as obtained from Configuration\n    // The second component is progressive and calculated as\n    //    min(walletAmount, fraction of SecurityBond's deposited balance)\n    // both amounts for the given currency\n    function _settleSecurityBondReward(address wallet, int256 walletAmount, MonetaryTypesLib.Currency currency,\n        address challenger, uint256 unlockTimeoutInSeconds)\n    private\n    {\n        // Deprive existing challenger of reward if previously locked\n        if (SettlementChallengeTypesLib.Status.Disqualified == driipSettlementChallengeState.proposalStatus(\n            wallet, currency\n        ))\n            securityBond.depriveAbsolute(\n                driipSettlementChallengeState.proposalDisqualificationChallenger(\n                    wallet, currency\n                ),\n                currency.ct, currency.id\n            );\n\n        // Reward the flat component\n        MonetaryTypesLib.Figure memory flatReward = _flatReward();\n        securityBond.rewardAbsolute(\n            challenger, flatReward.amount, flatReward.currency.ct, flatReward.currency.id, unlockTimeoutInSeconds\n        );\n\n        // Reward the progressive component\n        int256 progressiveRewardAmount = walletAmount.clampMax(\n            securityBond.depositedFractionalBalance(\n                currency.ct, currency.id, configuration.operatorSettlementStakeFraction()\n            )\n        );\n        securityBond.rewardAbsolute(\n            challenger, progressiveRewardAmount, currency.ct, currency.id, unlockTimeoutInSeconds\n        );\n    }\n\n    function _flatReward()\n    private\n    view\n    returns (MonetaryTypesLib.Figure)\n    {\n        (int256 amount, address currencyCt, uint256 currencyId) = configuration.operatorSettlementStake();\n        return MonetaryTypesLib.Figure(amount, MonetaryTypesLib.Currency(currencyCt, currencyId));\n    }\n}",
  "sourcePath": "/opt/buildagent/work/855e104608380c36/contracts/DriipSettlementDisputeByTrade.sol",
  "compiler": {
    "name": "solc",
    "version": "0.4.25+commit.59dbf8f1.Emscripten.clang"
  },
  "schemaVersion": "2.0.2",
  "updatedAt": "2019-04-18T00:23:49.598Z"
}