{
  "contractName": "DriipSettlementChallengeByPayment",
  "abi": [
    {
      "constant": true,
      "inputs": [],
      "name": "driipSettlementDisputeByPayment",
      "outputs": [
        {
          "name": "",
          "type": "address"
        }
      ],
      "payable": false,
      "stateMutability": "view",
      "type": "function"
    },
    {
      "constant": false,
      "inputs": [
        {
          "name": "newValidator",
          "type": "address"
        }
      ],
      "name": "setValidator",
      "outputs": [],
      "payable": false,
      "stateMutability": "nonpayable",
      "type": "function"
    },
    {
      "constant": true,
      "inputs": [],
      "name": "balanceTracker",
      "outputs": [
        {
          "name": "",
          "type": "address"
        }
      ],
      "payable": false,
      "stateMutability": "view",
      "type": "function"
    },
    {
      "constant": true,
      "inputs": [],
      "name": "walletLockerFrozen",
      "outputs": [
        {
          "name": "",
          "type": "bool"
        }
      ],
      "payable": false,
      "stateMutability": "view",
      "type": "function"
    },
    {
      "constant": false,
      "inputs": [],
      "name": "triggerSelfDestruction",
      "outputs": [],
      "payable": false,
      "stateMutability": "nonpayable",
      "type": "function"
    },
    {
      "constant": true,
      "inputs": [],
      "name": "selfDestructionDisabled",
      "outputs": [
        {
          "name": "",
          "type": "bool"
        }
      ],
      "payable": false,
      "stateMutability": "view",
      "type": "function"
    },
    {
      "constant": true,
      "inputs": [],
      "name": "validator",
      "outputs": [
        {
          "name": "",
          "type": "address"
        }
      ],
      "payable": false,
      "stateMutability": "view",
      "type": "function"
    },
    {
      "constant": true,
      "inputs": [],
      "name": "balanceTrackerFrozen",
      "outputs": [
        {
          "name": "",
          "type": "bool"
        }
      ],
      "payable": false,
      "stateMutability": "view",
      "type": "function"
    },
    {
      "constant": true,
      "inputs": [],
      "name": "destructor",
      "outputs": [
        {
          "name": "",
          "type": "address"
        }
      ],
      "payable": false,
      "stateMutability": "view",
      "type": "function"
    },
    {
      "constant": true,
      "inputs": [],
      "name": "driipSettlementChallengeState",
      "outputs": [
        {
          "name": "",
          "type": "address"
        }
      ],
      "payable": false,
      "stateMutability": "view",
      "type": "function"
    },
    {
      "constant": true,
      "inputs": [],
      "name": "operator",
      "outputs": [
        {
          "name": "",
          "type": "address"
        }
      ],
      "payable": false,
      "stateMutability": "view",
      "type": "function"
    },
    {
      "constant": false,
      "inputs": [
        {
          "name": "newBalanceTracker",
          "type": "address"
        }
      ],
      "name": "setBalanceTracker",
      "outputs": [],
      "payable": false,
      "stateMutability": "nonpayable",
      "type": "function"
    },
    {
      "constant": false,
      "inputs": [],
      "name": "freezeWalletLocker",
      "outputs": [],
      "payable": false,
      "stateMutability": "nonpayable",
      "type": "function"
    },
    {
      "constant": false,
      "inputs": [
        {
          "name": "newConfiguration",
          "type": "address"
        }
      ],
      "name": "setConfiguration",
      "outputs": [],
      "payable": false,
      "stateMutability": "nonpayable",
      "type": "function"
    },
    {
      "constant": true,
      "inputs": [],
      "name": "configuration",
      "outputs": [
        {
          "name": "",
          "type": "address"
        }
      ],
      "payable": false,
      "stateMutability": "view",
      "type": "function"
    },
    {
      "constant": false,
      "inputs": [],
      "name": "disableSelfDestruction",
      "outputs": [],
      "payable": false,
      "stateMutability": "nonpayable",
      "type": "function"
    },
    {
      "constant": false,
      "inputs": [
        {
          "name": "newWalletLocker",
          "type": "address"
        }
      ],
      "name": "setWalletLocker",
      "outputs": [],
      "payable": false,
      "stateMutability": "nonpayable",
      "type": "function"
    },
    {
      "constant": false,
      "inputs": [
        {
          "name": "newDeployer",
          "type": "address"
        }
      ],
      "name": "setDeployer",
      "outputs": [],
      "payable": false,
      "stateMutability": "nonpayable",
      "type": "function"
    },
    {
      "constant": false,
      "inputs": [
        {
          "name": "newOperator",
          "type": "address"
        }
      ],
      "name": "setOperator",
      "outputs": [],
      "payable": false,
      "stateMutability": "nonpayable",
      "type": "function"
    },
    {
      "constant": false,
      "inputs": [],
      "name": "freezeBalanceTracker",
      "outputs": [],
      "payable": false,
      "stateMutability": "nonpayable",
      "type": "function"
    },
    {
      "constant": true,
      "inputs": [],
      "name": "deployer",
      "outputs": [
        {
          "name": "",
          "type": "address"
        }
      ],
      "payable": false,
      "stateMutability": "view",
      "type": "function"
    },
    {
      "constant": true,
      "inputs": [],
      "name": "walletLocker",
      "outputs": [
        {
          "name": "",
          "type": "address"
        }
      ],
      "payable": false,
      "stateMutability": "view",
      "type": "function"
    },
    {
      "constant": true,
      "inputs": [],
      "name": "nullSettlementChallengeState",
      "outputs": [
        {
          "name": "",
          "type": "address"
        }
      ],
      "payable": false,
      "stateMutability": "view",
      "type": "function"
    },
    {
      "inputs": [
        {
          "name": "deployer",
          "type": "address"
        }
      ],
      "payable": false,
      "stateMutability": "nonpayable",
      "type": "constructor"
    },
    {
      "anonymous": false,
      "inputs": [
        {
          "indexed": false,
          "name": "oldDriipSettlementDisputeByPayment",
          "type": "address"
        },
        {
          "indexed": false,
          "name": "newDriipSettlementDisputeByPayment",
          "type": "address"
        }
      ],
      "name": "SetDriipSettlementDisputeByPaymentEvent",
      "type": "event"
    },
    {
      "anonymous": false,
      "inputs": [
        {
          "indexed": false,
          "name": "oldDriipSettlementChallengeState",
          "type": "address"
        },
        {
          "indexed": false,
          "name": "newDriipSettlementChallengeState",
          "type": "address"
        }
      ],
      "name": "SetDriipSettlementChallengeStateEvent",
      "type": "event"
    },
    {
      "anonymous": false,
      "inputs": [
        {
          "indexed": false,
          "name": "oldNullSettlementChallengeState",
          "type": "address"
        },
        {
          "indexed": false,
          "name": "newNullSettlementChallengeState",
          "type": "address"
        }
      ],
      "name": "SetNullSettlementChallengeStateEvent",
      "type": "event"
    },
    {
      "anonymous": false,
      "inputs": [
        {
          "indexed": false,
          "name": "wallet",
          "type": "address"
        },
        {
          "indexed": false,
          "name": "nonce",
          "type": "uint256"
        },
        {
          "indexed": false,
          "name": "cumulativeTransferAmount",
          "type": "int256"
        },
        {
          "indexed": false,
          "name": "stageAmount",
          "type": "int256"
        },
        {
          "indexed": false,
          "name": "targetBalanceAmount",
          "type": "int256"
        },
        {
          "indexed": false,
          "name": "currencyCt",
          "type": "address"
        },
        {
          "indexed": false,
          "name": "currencyId",
          "type": "uint256"
        }
      ],
      "name": "StartChallengeFromPaymentEvent",
      "type": "event"
    },
    {
      "anonymous": false,
      "inputs": [
        {
          "indexed": false,
          "name": "wallet",
          "type": "address"
        },
        {
          "indexed": false,
          "name": "nonce",
          "type": "uint256"
        },
        {
          "indexed": false,
          "name": "cumulativeTransferAmount",
          "type": "int256"
        },
        {
          "indexed": false,
          "name": "stageAmount",
          "type": "int256"
        },
        {
          "indexed": false,
          "name": "targetBalanceAmount",
          "type": "int256"
        },
        {
          "indexed": false,
          "name": "currencyCt",
          "type": "address"
        },
        {
          "indexed": false,
          "name": "currencyId",
          "type": "uint256"
        },
        {
          "indexed": false,
          "name": "proxy",
          "type": "address"
        }
      ],
      "name": "StartChallengeFromPaymentByProxyEvent",
      "type": "event"
    },
    {
      "anonymous": false,
      "inputs": [
        {
          "indexed": false,
          "name": "wallet",
          "type": "address"
        },
        {
          "indexed": false,
          "name": "nonce",
          "type": "uint256"
        },
        {
          "indexed": false,
          "name": "cumulativeTransferAmount",
          "type": "int256"
        },
        {
          "indexed": false,
          "name": "stageAmount",
          "type": "int256"
        },
        {
          "indexed": false,
          "name": "targetBalanceAmount",
          "type": "int256"
        },
        {
          "indexed": false,
          "name": "currencyCt",
          "type": "address"
        },
        {
          "indexed": false,
          "name": "currencyId",
          "type": "uint256"
        }
      ],
      "name": "StopChallengeEvent",
      "type": "event"
    },
    {
      "anonymous": false,
      "inputs": [
        {
          "indexed": false,
          "name": "wallet",
          "type": "address"
        },
        {
          "indexed": false,
          "name": "nonce",
          "type": "uint256"
        },
        {
          "indexed": false,
          "name": "cumulativeTransferAmount",
          "type": "int256"
        },
        {
          "indexed": false,
          "name": "stageAmount",
          "type": "int256"
        },
        {
          "indexed": false,
          "name": "targetBalanceAmount",
          "type": "int256"
        },
        {
          "indexed": false,
          "name": "currencyCt",
          "type": "address"
        },
        {
          "indexed": false,
          "name": "currencyId",
          "type": "uint256"
        },
        {
          "indexed": false,
          "name": "proxy",
          "type": "address"
        }
      ],
      "name": "StopChallengeByProxyEvent",
      "type": "event"
    },
    {
      "anonymous": false,
      "inputs": [
        {
          "indexed": false,
          "name": "challengedWallet",
          "type": "address"
        },
        {
          "indexed": false,
          "name": "nonce",
          "type": "uint256"
        },
        {
          "indexed": false,
          "name": "cumulativeTransferAmount",
          "type": "int256"
        },
        {
          "indexed": false,
          "name": "stageAmount",
          "type": "int256"
        },
        {
          "indexed": false,
          "name": "targetBalanceAmount",
          "type": "int256"
        },
        {
          "indexed": false,
          "name": "currencyCt",
          "type": "address"
        },
        {
          "indexed": false,
          "name": "currencyId",
          "type": "uint256"
        },
        {
          "indexed": false,
          "name": "challengerWallet",
          "type": "address"
        }
      ],
      "name": "ChallengeByPaymentEvent",
      "type": "event"
    },
    {
      "anonymous": false,
      "inputs": [
        {
          "indexed": false,
          "name": "oldBalanceTracker",
          "type": "address"
        },
        {
          "indexed": false,
          "name": "newBalanceTracker",
          "type": "address"
        }
      ],
      "name": "SetBalanceTrackerEvent",
      "type": "event"
    },
    {
      "anonymous": false,
      "inputs": [],
      "name": "FreezeBalanceTrackerEvent",
      "type": "event"
    },
    {
      "anonymous": false,
      "inputs": [
        {
          "indexed": false,
          "name": "oldWalletLocker",
          "type": "address"
        },
        {
          "indexed": false,
          "name": "newWalletLocker",
          "type": "address"
        }
      ],
      "name": "SetWalletLockerEvent",
      "type": "event"
    },
    {
      "anonymous": false,
      "inputs": [],
      "name": "FreezeWalletLockerEvent",
      "type": "event"
    },
    {
      "anonymous": false,
      "inputs": [
        {
          "indexed": false,
          "name": "oldValidator",
          "type": "address"
        },
        {
          "indexed": false,
          "name": "newValidator",
          "type": "address"
        }
      ],
      "name": "SetValidatorEvent",
      "type": "event"
    },
    {
      "anonymous": false,
      "inputs": [
        {
          "indexed": false,
          "name": "oldConfiguration",
          "type": "address"
        },
        {
          "indexed": false,
          "name": "newConfiguration",
          "type": "address"
        }
      ],
      "name": "SetConfigurationEvent",
      "type": "event"
    },
    {
      "anonymous": false,
      "inputs": [
        {
          "indexed": false,
          "name": "oldDeployer",
          "type": "address"
        },
        {
          "indexed": false,
          "name": "newDeployer",
          "type": "address"
        }
      ],
      "name": "SetDeployerEvent",
      "type": "event"
    },
    {
      "anonymous": false,
      "inputs": [
        {
          "indexed": false,
          "name": "oldOperator",
          "type": "address"
        },
        {
          "indexed": false,
          "name": "newOperator",
          "type": "address"
        }
      ],
      "name": "SetOperatorEvent",
      "type": "event"
    },
    {
      "anonymous": false,
      "inputs": [
        {
          "indexed": false,
          "name": "wallet",
          "type": "address"
        }
      ],
      "name": "SelfDestructionDisabledEvent",
      "type": "event"
    },
    {
      "anonymous": false,
      "inputs": [
        {
          "indexed": false,
          "name": "wallet",
          "type": "address"
        }
      ],
      "name": "TriggerSelfDestructionEvent",
      "type": "event"
    },
    {
      "constant": false,
      "inputs": [
        {
          "name": "newDriipSettlementDisputeByPayment",
          "type": "address"
        }
      ],
      "name": "setDriipSettlementDisputeByPayment",
      "outputs": [],
      "payable": false,
      "stateMutability": "nonpayable",
      "type": "function"
    },
    {
      "constant": false,
      "inputs": [
        {
          "name": "newDriipSettlementChallengeState",
          "type": "address"
        }
      ],
      "name": "setDriipSettlementChallengeState",
      "outputs": [],
      "payable": false,
      "stateMutability": "nonpayable",
      "type": "function"
    },
    {
      "constant": false,
      "inputs": [
        {
          "name": "newNullSettlementChallengeState",
          "type": "address"
        }
      ],
      "name": "setNullSettlementChallengeState",
      "outputs": [],
      "payable": false,
      "stateMutability": "nonpayable",
      "type": "function"
    },
    {
      "constant": false,
      "inputs": [
        {
          "components": [
            {
              "name": "nonce",
              "type": "uint256"
            },
            {
              "name": "amount",
              "type": "int256"
            },
            {
              "components": [
                {
                  "name": "ct",
                  "type": "address"
                },
                {
                  "name": "id",
                  "type": "uint256"
                }
              ],
              "name": "currency",
              "type": "tuple"
            },
            {
              "components": [
                {
                  "name": "nonce",
                  "type": "uint256"
                },
                {
                  "name": "wallet",
                  "type": "address"
                },
                {
                  "components": [
                    {
                      "name": "current",
                      "type": "int256"
                    },
                    {
                      "name": "previous",
                      "type": "int256"
                    }
                  ],
                  "name": "balances",
                  "type": "tuple"
                },
                {
                  "components": [
                    {
                      "components": [
                        {
                          "name": "amount",
                          "type": "int256"
                        },
                        {
                          "components": [
                            {
                              "name": "ct",
                              "type": "address"
                            },
                            {
                              "name": "id",
                              "type": "uint256"
                            }
                          ],
                          "name": "currency",
                          "type": "tuple"
                        }
                      ],
                      "name": "single",
                      "type": "tuple"
                    },
                    {
                      "components": [
                        {
                          "name": "originId",
                          "type": "uint256"
                        },
                        {
                          "components": [
                            {
                              "name": "amount",
                              "type": "int256"
                            },
                            {
                              "components": [
                                {
                                  "name": "ct",
                                  "type": "address"
                                },
                                {
                                  "name": "id",
                                  "type": "uint256"
                                }
                              ],
                              "name": "currency",
                              "type": "tuple"
                            }
                          ],
                          "name": "figure",
                          "type": "tuple"
                        }
                      ],
                      "name": "total",
                      "type": "tuple[]"
                    }
                  ],
                  "name": "fees",
                  "type": "tuple"
                }
              ],
              "name": "sender",
              "type": "tuple"
            },
            {
              "components": [
                {
                  "name": "nonce",
                  "type": "uint256"
                },
                {
                  "name": "wallet",
                  "type": "address"
                },
                {
                  "components": [
                    {
                      "name": "current",
                      "type": "int256"
                    },
                    {
                      "name": "previous",
                      "type": "int256"
                    }
                  ],
                  "name": "balances",
                  "type": "tuple"
                },
                {
                  "components": [
                    {
                      "components": [
                        {
                          "name": "originId",
                          "type": "uint256"
                        },
                        {
                          "components": [
                            {
                              "name": "amount",
                              "type": "int256"
                            },
                            {
                              "components": [
                                {
                                  "name": "ct",
                                  "type": "address"
                                },
                                {
                                  "name": "id",
                                  "type": "uint256"
                                }
                              ],
                              "name": "currency",
                              "type": "tuple"
                            }
                          ],
                          "name": "figure",
                          "type": "tuple"
                        }
                      ],
                      "name": "total",
                      "type": "tuple[]"
                    }
                  ],
                  "name": "fees",
                  "type": "tuple"
                }
              ],
              "name": "recipient",
              "type": "tuple"
            },
            {
              "components": [
                {
                  "name": "single",
                  "type": "int256"
                },
                {
                  "name": "total",
                  "type": "int256"
                }
              ],
              "name": "transfers",
              "type": "tuple"
            },
            {
              "components": [
                {
                  "components": [
                    {
                      "name": "hash",
                      "type": "bytes32"
                    },
                    {
                      "components": [
                        {
                          "name": "r",
                          "type": "bytes32"
                        },
                        {
                          "name": "s",
                          "type": "bytes32"
                        },
                        {
                          "name": "v",
                          "type": "uint8"
                        }
                      ],
                      "name": "signature",
                      "type": "tuple"
                    }
                  ],
                  "name": "wallet",
                  "type": "tuple"
                },
                {
                  "components": [
                    {
                      "name": "hash",
                      "type": "bytes32"
                    },
                    {
                      "components": [
                        {
                          "name": "r",
                          "type": "bytes32"
                        },
                        {
                          "name": "s",
                          "type": "bytes32"
                        },
                        {
                          "name": "v",
                          "type": "uint8"
                        }
                      ],
                      "name": "signature",
                      "type": "tuple"
                    }
                  ],
                  "name": "operator",
                  "type": "tuple"
                }
              ],
              "name": "seals",
              "type": "tuple"
            },
            {
              "name": "blockNumber",
              "type": "uint256"
            },
            {
              "name": "operatorId",
              "type": "uint256"
            }
          ],
          "name": "payment",
          "type": "tuple"
        },
        {
          "name": "stageAmount",
          "type": "int256"
        }
      ],
      "name": "startChallengeFromPayment",
      "outputs": [],
      "payable": false,
      "stateMutability": "nonpayable",
      "type": "function"
    },
    {
      "constant": false,
      "inputs": [
        {
          "name": "wallet",
          "type": "address"
        },
        {
          "components": [
            {
              "name": "nonce",
              "type": "uint256"
            },
            {
              "name": "amount",
              "type": "int256"
            },
            {
              "components": [
                {
                  "name": "ct",
                  "type": "address"
                },
                {
                  "name": "id",
                  "type": "uint256"
                }
              ],
              "name": "currency",
              "type": "tuple"
            },
            {
              "components": [
                {
                  "name": "nonce",
                  "type": "uint256"
                },
                {
                  "name": "wallet",
                  "type": "address"
                },
                {
                  "components": [
                    {
                      "name": "current",
                      "type": "int256"
                    },
                    {
                      "name": "previous",
                      "type": "int256"
                    }
                  ],
                  "name": "balances",
                  "type": "tuple"
                },
                {
                  "components": [
                    {
                      "components": [
                        {
                          "name": "amount",
                          "type": "int256"
                        },
                        {
                          "components": [
                            {
                              "name": "ct",
                              "type": "address"
                            },
                            {
                              "name": "id",
                              "type": "uint256"
                            }
                          ],
                          "name": "currency",
                          "type": "tuple"
                        }
                      ],
                      "name": "single",
                      "type": "tuple"
                    },
                    {
                      "components": [
                        {
                          "name": "originId",
                          "type": "uint256"
                        },
                        {
                          "components": [
                            {
                              "name": "amount",
                              "type": "int256"
                            },
                            {
                              "components": [
                                {
                                  "name": "ct",
                                  "type": "address"
                                },
                                {
                                  "name": "id",
                                  "type": "uint256"
                                }
                              ],
                              "name": "currency",
                              "type": "tuple"
                            }
                          ],
                          "name": "figure",
                          "type": "tuple"
                        }
                      ],
                      "name": "total",
                      "type": "tuple[]"
                    }
                  ],
                  "name": "fees",
                  "type": "tuple"
                }
              ],
              "name": "sender",
              "type": "tuple"
            },
            {
              "components": [
                {
                  "name": "nonce",
                  "type": "uint256"
                },
                {
                  "name": "wallet",
                  "type": "address"
                },
                {
                  "components": [
                    {
                      "name": "current",
                      "type": "int256"
                    },
                    {
                      "name": "previous",
                      "type": "int256"
                    }
                  ],
                  "name": "balances",
                  "type": "tuple"
                },
                {
                  "components": [
                    {
                      "components": [
                        {
                          "name": "originId",
                          "type": "uint256"
                        },
                        {
                          "components": [
                            {
                              "name": "amount",
                              "type": "int256"
                            },
                            {
                              "components": [
                                {
                                  "name": "ct",
                                  "type": "address"
                                },
                                {
                                  "name": "id",
                                  "type": "uint256"
                                }
                              ],
                              "name": "currency",
                              "type": "tuple"
                            }
                          ],
                          "name": "figure",
                          "type": "tuple"
                        }
                      ],
                      "name": "total",
                      "type": "tuple[]"
                    }
                  ],
                  "name": "fees",
                  "type": "tuple"
                }
              ],
              "name": "recipient",
              "type": "tuple"
            },
            {
              "components": [
                {
                  "name": "single",
                  "type": "int256"
                },
                {
                  "name": "total",
                  "type": "int256"
                }
              ],
              "name": "transfers",
              "type": "tuple"
            },
            {
              "components": [
                {
                  "components": [
                    {
                      "name": "hash",
                      "type": "bytes32"
                    },
                    {
                      "components": [
                        {
                          "name": "r",
                          "type": "bytes32"
                        },
                        {
                          "name": "s",
                          "type": "bytes32"
                        },
                        {
                          "name": "v",
                          "type": "uint8"
                        }
                      ],
                      "name": "signature",
                      "type": "tuple"
                    }
                  ],
                  "name": "wallet",
                  "type": "tuple"
                },
                {
                  "components": [
                    {
                      "name": "hash",
                      "type": "bytes32"
                    },
                    {
                      "components": [
                        {
                          "name": "r",
                          "type": "bytes32"
                        },
                        {
                          "name": "s",
                          "type": "bytes32"
                        },
                        {
                          "name": "v",
                          "type": "uint8"
                        }
                      ],
                      "name": "signature",
                      "type": "tuple"
                    }
                  ],
                  "name": "operator",
                  "type": "tuple"
                }
              ],
              "name": "seals",
              "type": "tuple"
            },
            {
              "name": "blockNumber",
              "type": "uint256"
            },
            {
              "name": "operatorId",
              "type": "uint256"
            }
          ],
          "name": "payment",
          "type": "tuple"
        },
        {
          "name": "stageAmount",
          "type": "int256"
        }
      ],
      "name": "startChallengeFromPaymentByProxy",
      "outputs": [],
      "payable": false,
      "stateMutability": "nonpayable",
      "type": "function"
    },
    {
      "constant": false,
      "inputs": [
        {
          "name": "currencyCt",
          "type": "address"
        },
        {
          "name": "currencyId",
          "type": "uint256"
        }
      ],
      "name": "stopChallenge",
      "outputs": [],
      "payable": false,
      "stateMutability": "nonpayable",
      "type": "function"
    },
    {
      "constant": false,
      "inputs": [
        {
          "name": "wallet",
          "type": "address"
        },
        {
          "name": "currencyCt",
          "type": "address"
        },
        {
          "name": "currencyId",
          "type": "uint256"
        }
      ],
      "name": "stopChallengeByProxy",
      "outputs": [],
      "payable": false,
      "stateMutability": "nonpayable",
      "type": "function"
    },
    {
      "constant": true,
      "inputs": [
        {
          "name": "wallet",
          "type": "address"
        },
        {
          "name": "currencyCt",
          "type": "address"
        },
        {
          "name": "currencyId",
          "type": "uint256"
        }
      ],
      "name": "hasProposal",
      "outputs": [
        {
          "name": "",
          "type": "bool"
        }
      ],
      "payable": false,
      "stateMutability": "view",
      "type": "function"
    },
    {
      "constant": true,
      "inputs": [
        {
          "name": "wallet",
          "type": "address"
        },
        {
          "name": "currencyCt",
          "type": "address"
        },
        {
          "name": "currencyId",
          "type": "uint256"
        }
      ],
      "name": "hasProposalTerminated",
      "outputs": [
        {
          "name": "",
          "type": "bool"
        }
      ],
      "payable": false,
      "stateMutability": "view",
      "type": "function"
    },
    {
      "constant": true,
      "inputs": [
        {
          "name": "wallet",
          "type": "address"
        },
        {
          "name": "currencyCt",
          "type": "address"
        },
        {
          "name": "currencyId",
          "type": "uint256"
        }
      ],
      "name": "hasProposalExpired",
      "outputs": [
        {
          "name": "",
          "type": "bool"
        }
      ],
      "payable": false,
      "stateMutability": "view",
      "type": "function"
    },
    {
      "constant": true,
      "inputs": [
        {
          "name": "wallet",
          "type": "address"
        },
        {
          "name": "currencyCt",
          "type": "address"
        },
        {
          "name": "currencyId",
          "type": "uint256"
        }
      ],
      "name": "proposalNonce",
      "outputs": [
        {
          "name": "",
          "type": "uint256"
        }
      ],
      "payable": false,
      "stateMutability": "view",
      "type": "function"
    },
    {
      "constant": true,
      "inputs": [
        {
          "name": "wallet",
          "type": "address"
        },
        {
          "name": "currencyCt",
          "type": "address"
        },
        {
          "name": "currencyId",
          "type": "uint256"
        }
      ],
      "name": "proposalReferenceBlockNumber",
      "outputs": [
        {
          "name": "",
          "type": "uint256"
        }
      ],
      "payable": false,
      "stateMutability": "view",
      "type": "function"
    },
    {
      "constant": true,
      "inputs": [
        {
          "name": "wallet",
          "type": "address"
        },
        {
          "name": "currencyCt",
          "type": "address"
        },
        {
          "name": "currencyId",
          "type": "uint256"
        }
      ],
      "name": "proposalExpirationTime",
      "outputs": [
        {
          "name": "",
          "type": "uint256"
        }
      ],
      "payable": false,
      "stateMutability": "view",
      "type": "function"
    },
    {
      "constant": true,
      "inputs": [
        {
          "name": "wallet",
          "type": "address"
        },
        {
          "name": "currencyCt",
          "type": "address"
        },
        {
          "name": "currencyId",
          "type": "uint256"
        }
      ],
      "name": "proposalStatus",
      "outputs": [
        {
          "name": "",
          "type": "uint8"
        }
      ],
      "payable": false,
      "stateMutability": "view",
      "type": "function"
    },
    {
      "constant": true,
      "inputs": [
        {
          "name": "wallet",
          "type": "address"
        },
        {
          "name": "currencyCt",
          "type": "address"
        },
        {
          "name": "currencyId",
          "type": "uint256"
        }
      ],
      "name": "proposalStageAmount",
      "outputs": [
        {
          "name": "",
          "type": "int256"
        }
      ],
      "payable": false,
      "stateMutability": "view",
      "type": "function"
    },
    {
      "constant": true,
      "inputs": [
        {
          "name": "wallet",
          "type": "address"
        },
        {
          "name": "currencyCt",
          "type": "address"
        },
        {
          "name": "currencyId",
          "type": "uint256"
        }
      ],
      "name": "proposalTargetBalanceAmount",
      "outputs": [
        {
          "name": "",
          "type": "int256"
        }
      ],
      "payable": false,
      "stateMutability": "view",
      "type": "function"
    },
    {
      "constant": true,
      "inputs": [
        {
          "name": "wallet",
          "type": "address"
        },
        {
          "name": "currencyCt",
          "type": "address"
        },
        {
          "name": "currencyId",
          "type": "uint256"
        }
      ],
      "name": "proposalChallengedHash",
      "outputs": [
        {
          "name": "",
          "type": "bytes32"
        }
      ],
      "payable": false,
      "stateMutability": "view",
      "type": "function"
    },
    {
      "constant": true,
      "inputs": [
        {
          "name": "wallet",
          "type": "address"
        },
        {
          "name": "currencyCt",
          "type": "address"
        },
        {
          "name": "currencyId",
          "type": "uint256"
        }
      ],
      "name": "proposalChallengedKind",
      "outputs": [
        {
          "name": "",
          "type": "string"
        }
      ],
      "payable": false,
      "stateMutability": "view",
      "type": "function"
    },
    {
      "constant": true,
      "inputs": [
        {
          "name": "wallet",
          "type": "address"
        },
        {
          "name": "currencyCt",
          "type": "address"
        },
        {
          "name": "currencyId",
          "type": "uint256"
        }
      ],
      "name": "proposalWalletInitiated",
      "outputs": [
        {
          "name": "",
          "type": "bool"
        }
      ],
      "payable": false,
      "stateMutability": "view",
      "type": "function"
    },
    {
      "constant": true,
      "inputs": [
        {
          "name": "wallet",
          "type": "address"
        },
        {
          "name": "currencyCt",
          "type": "address"
        },
        {
          "name": "currencyId",
          "type": "uint256"
        }
      ],
      "name": "proposalDisqualificationChallenger",
      "outputs": [
        {
          "name": "",
          "type": "address"
        }
      ],
      "payable": false,
      "stateMutability": "view",
      "type": "function"
    },
    {
      "constant": true,
      "inputs": [
        {
          "name": "wallet",
          "type": "address"
        },
        {
          "name": "currencyCt",
          "type": "address"
        },
        {
          "name": "currencyId",
          "type": "uint256"
        }
      ],
      "name": "proposalDisqualificationBlockNumber",
      "outputs": [
        {
          "name": "",
          "type": "uint256"
        }
      ],
      "payable": false,
      "stateMutability": "view",
      "type": "function"
    },
    {
      "constant": true,
      "inputs": [
        {
          "name": "wallet",
          "type": "address"
        },
        {
          "name": "currencyCt",
          "type": "address"
        },
        {
          "name": "currencyId",
          "type": "uint256"
        }
      ],
      "name": "proposalDisqualificationCandidateKind",
      "outputs": [
        {
          "name": "",
          "type": "string"
        }
      ],
      "payable": false,
      "stateMutability": "view",
      "type": "function"
    },
    {
      "constant": true,
      "inputs": [
        {
          "name": "wallet",
          "type": "address"
        },
        {
          "name": "currencyCt",
          "type": "address"
        },
        {
          "name": "currencyId",
          "type": "uint256"
        }
      ],
      "name": "proposalDisqualificationCandidateHash",
      "outputs": [
        {
          "name": "",
          "type": "bytes32"
        }
      ],
      "payable": false,
      "stateMutability": "view",
      "type": "function"
    },
    {
      "constant": false,
      "inputs": [
        {
          "name": "wallet",
          "type": "address"
        },
        {
          "components": [
            {
              "name": "nonce",
              "type": "uint256"
            },
            {
              "name": "amount",
              "type": "int256"
            },
            {
              "components": [
                {
                  "name": "ct",
                  "type": "address"
                },
                {
                  "name": "id",
                  "type": "uint256"
                }
              ],
              "name": "currency",
              "type": "tuple"
            },
            {
              "components": [
                {
                  "name": "nonce",
                  "type": "uint256"
                },
                {
                  "name": "wallet",
                  "type": "address"
                },
                {
                  "components": [
                    {
                      "name": "current",
                      "type": "int256"
                    },
                    {
                      "name": "previous",
                      "type": "int256"
                    }
                  ],
                  "name": "balances",
                  "type": "tuple"
                },
                {
                  "components": [
                    {
                      "components": [
                        {
                          "name": "amount",
                          "type": "int256"
                        },
                        {
                          "components": [
                            {
                              "name": "ct",
                              "type": "address"
                            },
                            {
                              "name": "id",
                              "type": "uint256"
                            }
                          ],
                          "name": "currency",
                          "type": "tuple"
                        }
                      ],
                      "name": "single",
                      "type": "tuple"
                    },
                    {
                      "components": [
                        {
                          "name": "originId",
                          "type": "uint256"
                        },
                        {
                          "components": [
                            {
                              "name": "amount",
                              "type": "int256"
                            },
                            {
                              "components": [
                                {
                                  "name": "ct",
                                  "type": "address"
                                },
                                {
                                  "name": "id",
                                  "type": "uint256"
                                }
                              ],
                              "name": "currency",
                              "type": "tuple"
                            }
                          ],
                          "name": "figure",
                          "type": "tuple"
                        }
                      ],
                      "name": "total",
                      "type": "tuple[]"
                    }
                  ],
                  "name": "fees",
                  "type": "tuple"
                }
              ],
              "name": "sender",
              "type": "tuple"
            },
            {
              "components": [
                {
                  "name": "nonce",
                  "type": "uint256"
                },
                {
                  "name": "wallet",
                  "type": "address"
                },
                {
                  "components": [
                    {
                      "name": "current",
                      "type": "int256"
                    },
                    {
                      "name": "previous",
                      "type": "int256"
                    }
                  ],
                  "name": "balances",
                  "type": "tuple"
                },
                {
                  "components": [
                    {
                      "components": [
                        {
                          "name": "originId",
                          "type": "uint256"
                        },
                        {
                          "components": [
                            {
                              "name": "amount",
                              "type": "int256"
                            },
                            {
                              "components": [
                                {
                                  "name": "ct",
                                  "type": "address"
                                },
                                {
                                  "name": "id",
                                  "type": "uint256"
                                }
                              ],
                              "name": "currency",
                              "type": "tuple"
                            }
                          ],
                          "name": "figure",
                          "type": "tuple"
                        }
                      ],
                      "name": "total",
                      "type": "tuple[]"
                    }
                  ],
                  "name": "fees",
                  "type": "tuple"
                }
              ],
              "name": "recipient",
              "type": "tuple"
            },
            {
              "components": [
                {
                  "name": "single",
                  "type": "int256"
                },
                {
                  "name": "total",
                  "type": "int256"
                }
              ],
              "name": "transfers",
              "type": "tuple"
            },
            {
              "components": [
                {
                  "components": [
                    {
                      "name": "hash",
                      "type": "bytes32"
                    },
                    {
                      "components": [
                        {
                          "name": "r",
                          "type": "bytes32"
                        },
                        {
                          "name": "s",
                          "type": "bytes32"
                        },
                        {
                          "name": "v",
                          "type": "uint8"
                        }
                      ],
                      "name": "signature",
                      "type": "tuple"
                    }
                  ],
                  "name": "wallet",
                  "type": "tuple"
                },
                {
                  "components": [
                    {
                      "name": "hash",
                      "type": "bytes32"
                    },
                    {
                      "components": [
                        {
                          "name": "r",
                          "type": "bytes32"
                        },
                        {
                          "name": "s",
                          "type": "bytes32"
                        },
                        {
                          "name": "v",
                          "type": "uint8"
                        }
                      ],
                      "name": "signature",
                      "type": "tuple"
                    }
                  ],
                  "name": "operator",
                  "type": "tuple"
                }
              ],
              "name": "seals",
              "type": "tuple"
            },
            {
              "name": "blockNumber",
              "type": "uint256"
            },
            {
              "name": "operatorId",
              "type": "uint256"
            }
          ],
          "name": "payment",
          "type": "tuple"
        }
      ],
      "name": "challengeByPayment",
      "outputs": [],
      "payable": false,
      "stateMutability": "nonpayable",
      "type": "function"
    }
  ],
  "bytecode": "0x60806040523480156200001157600080fd5b506040516020806200423f8339810180604052620000339190810190620000b6565b8080600160a060020a03811615156200004b57600080fd5b600160a060020a0381163014156200006257600080fd5b506000805461010060a860020a031916610100600160a060020a039390931692830217905560018054600160a060020a031916909117905550620000eb565b6000620000af8251620000df565b9392505050565b600060208284031215620000c957600080fd5b6000620000d78484620000a1565b949350505050565b600160a060020a031690565b61414480620000fb6000396000f3006080604052600436106102215763ffffffff60e060020a600035041663039b9fb181146102265780630712abb01461025c5780630fa6f23d146102895780631327d3d8146102ab57806316987929146102cd57806319139092146102fa578063240625d81461030f5780632738a112146103315780632aa1c9d9146103465780632d3aae3f146103665780632f013a0014610386578063311a937f1461039b5780633a5381b5146103bb5780633bebdcb5146103d05780633e59b706146103f057806342cb4587146104055780634476d23b1461042557806346d1d3c4146104475780634dc8eb791461046757806351d7cd6114610487578063570ca7351461049c578063598b75ad146104b15780635dc60def146104d1578063627f09c3146104e65780636c70bee9146105065780636ccb43c81461051b5780636de6a5d21461053b57806370327ea11461055b5780637da5b11c14610570578063892860b21461059057806396214735146105b0578063972fcee0146105d05780639882da6c146105f0578063adfb677814610610578063b3ab15fb14610630578063b52d470a14610650578063bb9357de14610665578063c19df1e414610685578063ca7f47ed146106a5578063cdbf9419146106c5578063d5b68c62146106e5578063d5f3948814610705578063e8ae41e31461071a578063ed8a829d1461072f578063fa7424f21461074f578063fb1a825e14610764578063fcd30b0214610784575b600080fd5b34801561023257600080fd5b50610246610241366004613714565b6107a4565b6040516102539190613fb1565b60405180910390f35b34801561026857600080fd5b5061027c610277366004613714565b610850565b6040516102539190613fa3565b34801561029557600080fd5b5061029e6108ee565b6040516102539190613f7a565b3480156102b757600080fd5b506102cb6102c6366004613867565b6108fd565b005b3480156102d957600080fd5b506102ed6102e8366004613714565b6109a5565b6040516102539190613f6c565b34801561030657600080fd5b5061029e610a43565b34801561031b57600080fd5b50610324610a52565b6040516102539190613f5e565b34801561033d57600080fd5b506102cb610a62565b34801561035257600080fd5b506102cb610361366004613867565b610ac8565b34801561037257600080fd5b506102cb6103813660046137b2565b610b59565b34801561039257600080fd5b50610324610d5e565b3480156103a757600080fd5b506102cb6103b6366004613907565b610d67565b3480156103c757600080fd5b5061029e610ff1565b3480156103dc57600080fd5b506103246103eb366004613714565b611000565b3480156103fc57600080fd5b5061032461109e565b34801561041157600080fd5b506102ed610420366004613714565b6110ae565b34801561043157600080fd5b5061043a6110fa565b6040516102539190613cba565b34801561045357600080fd5b50610324610462366004613714565b61110e565b34801561047357600080fd5b506102cb610482366004613867565b61115a565b34801561049357600080fd5b5061029e6111de565b3480156104a857600080fd5b5061043a6111ed565b3480156104bd57600080fd5b506102cb6104cc366004613867565b6111fc565b3480156104dd57600080fd5b506102cb6112ab565b3480156104f257600080fd5b506102cb610501366004613867565b6112ff565b34801561051257600080fd5b5061029e611397565b34801561052757600080fd5b506102cb610536366004613867565b6113a6565b34801561054757600080fd5b506102ed610556366004613714565b61142a565b34801561056757600080fd5b506102cb611476565b34801561057c57600080fd5b5061032461058b366004613714565b6114d9565b34801561059c57600080fd5b506102cb6105ab366004613867565b611525565b3480156105bc57600080fd5b506102cb6105cb3660046136d0565b6115d4565b3480156105dc57600080fd5b506102cb6105eb366004613714565b611692565b3480156105fc57600080fd5b506102ed61060b366004613714565b61193e565b34801561061c57600080fd5b506102ed61062b366004613714565b61198a565b34801561063c57600080fd5b506102cb61064b3660046136d0565b6119d6565b34801561065c57600080fd5b506102cb611a80565b34801561067157600080fd5b50610324610680366004613714565b611ad4565b34801561069157600080fd5b506102cb6106a03660046137fb565b611b20565b3480156106b157600080fd5b506102466106c0366004613714565b611da8565b3480156106d157600080fd5b506102ed6106e0366004613714565b611df4565b3480156106f157600080fd5b506102ed610700366004613714565b611e40565b34801561071157600080fd5b5061043a611e8c565b34801561072657600080fd5b5061029e611ea0565b34801561073b57600080fd5b506102cb61074a366004613761565b611eaf565b34801561075b57600080fd5b5061029e61221f565b34801561077057600080fd5b506102ed61077f366004613714565b61222e565b34801561079057600080fd5b5061043a61079f366004613714565b61227a565b600754604080518082018252600160a060020a03858116825260208201859052915160e060020a6394da13eb02815260609392909216916394da13eb916107f091889190600401613d64565b600060405180830381600087803b15801561080a57600080fd5b505af115801561081e573d6000803e3d6000fd5b505050506040513d6000823e601f3d908101601f1916820160405261084691908101906138d3565b90505b9392505050565b600754604080518082018252600160a060020a03858116825260208201859052915160e060020a63b6e2fc33028152600093929092169163b6e2fc339161089c91889190600401613d64565b602060405180830381600087803b1580156108b657600080fd5b505af11580156108ca573d6000803e3d6000fd5b505050506040513d601f19601f820116820180604052506108469190810190613885565b600654600160a060020a031681565b6000610907612318565b151561091257600080fd5b81600160a060020a038116151561092857600080fd5b6003548390600160a060020a03908116908216811461099e5760038054600160a060020a03878116600160a060020a0319831617909255604051911694507f1882af944a16549c3d4f60e3cd26f158b0c7aac3222cf32971fc21375ce05f60906109959086908890613f88565b60405180910390a15b5050505050565b600754604080518082018252600160a060020a03858116825260208201859052915160e060020a63c46fcd75028152600093929092169163c46fcd75916109f191889190600401613d64565b602060405180830381600087803b158015610a0b57600080fd5b505af1158015610a1f573d6000803e3d6000fd5b505050506040513d601f19601f820116820180604052506108469190810190613849565b600554600160a060020a031681565b60045460a060020a900460ff1681565b33610a6b6110fa565b600160a060020a031614610a7e57600080fd5b60005460ff1615610a8e57600080fd5b7f787a5d936e74f4b564b9153575886059829c78cd9927b1be5e0d976b317ef73633604051610abd9190613cba565b60405180910390a133ff5b6000610ad2612318565b1515610add57600080fd5b81600160a060020a0381161515610af357600080fd5b60078054600160a060020a03858116600160a060020a03198316179283905560405191811694507f4f7125332801996cdeaabf9cff1ac89ddf4b52c673558936affe853ab64a88da92610b4c9286929190911690613f88565b60405180910390a1505050565b610b6161232e565b1515610b6c57600080fd5b610b79838383600061233f565b600754604080840151905160e060020a632ee2ed250281527f505b0ba83acb520eb622fae274a079c14f40dd43f70fd9f1f8d2312fd4e76caf928692600160a060020a0390911691632ee2ed2591610bd691859190600401613d64565b602060405180830381600087803b158015610bf057600080fd5b505af1158015610c04573d6000803e3d6000fd5b505050506040513d601f19601f82011682018060405250610c289190810190613849565b600754604080870151905160e060020a638ab3e965028152600160a060020a0390921691638ab3e96591610c61918a9190600401613d64565b602060405180830381600087803b158015610c7b57600080fd5b505af1158015610c8f573d6000803e3d6000fd5b505050506040513d601f19601f82011682018060405250610cb39190810190613849565b600754604080880151905160e060020a63c46fcd750281528792600160a060020a03169163c46fcd7591610ceb918c91600401613d64565b602060405180830381600087803b158015610d0557600080fd5b505af1158015610d19573d6000803e3d6000fd5b505050506040513d601f19601f82011682018060405250610d3d9190810190613849565b60408089015180516020909101519151610b4c979695949392903390613e4b565b60005460ff1681565b6004805460405160e260020a631293efbb028152600160a060020a0390911691634a4fbeec91610d9991339101613cba565b602060405180830381600087803b158015610db357600080fd5b505af1158015610dc7573d6000803e3d6000fd5b505050506040513d601f19601f82011682018060405250610deb919081019061382b565b15610df557600080fd5b610e02338383600161233f565b600754604080840151905160e060020a632ee2ed250281527f1d8a75ed090cb569da62b746afdb83f0969831d5d9b9bb1a11320bc11c438c9f923392600160a060020a0390911691632ee2ed2591610e5f91859190600401613d64565b602060405180830381600087803b158015610e7957600080fd5b505af1158015610e8d573d6000803e3d6000fd5b505050506040513d601f19601f82011682018060405250610eb19190810190613849565b600754604080870151905160e060020a638ab3e965028152600160a060020a0390921691638ab3e96591610eea91339190600401613d64565b602060405180830381600087803b158015610f0457600080fd5b505af1158015610f18573d6000803e3d6000fd5b505050506040513d601f19601f82011682018060405250610f3c9190810190613849565b600754604080880151905160e060020a63c46fcd750281528792600160a060020a03169163c46fcd7591610f74913391600401613d64565b602060405180830381600087803b158015610f8e57600080fd5b505af1158015610fa2573d6000803e3d6000fd5b505050506040513d601f19601f82011682018060405250610fc69190810190613849565b60408089015180516020909101519151610fe597969594939290613de3565b60405180910390a15050565b600354600160a060020a031681565b600754604080518082018252600160a060020a03858116825260208201859052915160e060020a635482c7350281526000939290921691635482c7359161104c91889190600401613d64565b602060405180830381600087803b15801561106657600080fd5b505af115801561107a573d6000803e3d6000fd5b505050506040513d601f19601f82011682018060405250610846919081019061382b565b60055460a060020a900460ff1681565b600754604080518082018252600160a060020a03858116825260208201859052915160e160020a633007230f028152600093929092169163600e461e916109f191889190600401613d64565b6000546101009004600160a060020a031690565b600754604080518082018252600160a060020a03858116825260208201859052915160e060020a637ff81c370281526000939290921691637ff81c379161104c91889190600401613d64565b6000611164612318565b151561116f57600080fd5b81600160a060020a038116151561118557600080fd5b60068054600160a060020a03858116600160a060020a03198316179283905560405191811694507f663141f76be1f253f0e608edd55c18b0816521f3b635e072c1c2f710dde6ed1992610b4c9286929190911690613f88565b600754600160a060020a031681565b600154600160a060020a031681565b6000611206612318565b151561121157600080fd5b81600160a060020a038116151561122757600080fd5b6005548390600160a060020a03908116908216811461099e5760055460a060020a900460ff161561125757600080fd5b60058054600160a060020a03878116600160a060020a0319831617909255604051911694507fb2a91d3a71b0c5bc7c083153b3474378e489506ba98bd4ddb1b9056fdc594bb5906109959086908890613f88565b6112b3612318565b15156112be57600080fd5b6004805460a060020a60ff02191660a060020a1790556040517f56ec8900b9c4bf84f4b715a53068ca06961dd49084c07b481931e2c2045346e690600090a1565b6000611309612318565b151561131457600080fd5b81600160a060020a038116151561132a57600080fd5b6002548390600160a060020a03908116908216811461099e5760028054600160a060020a03878116600160a060020a0319831617909255604051911694507f634f61bf00e14adedce330c80c2823e16e184f189ebe853e1ddecc4a268477ff906109959086908890613f88565b600254600160a060020a031681565b60006113b0612318565b15156113bb57600080fd5b81600160a060020a03811615156113d157600080fd5b60088054600160a060020a03858116600160a060020a03198316179283905560405191811694507ff21c127205310467822e10c64b2d9ffae588e019194d6af71f2bdddc0b7ef52692610b4c9286929190911690613f88565b600754604080518082018252600160a060020a03858116825260208201859052915160e160020a63374852cb0281526000939290921691636e90a596916109f191889190600401613d64565b3361147f6110fa565b600160a060020a03161461149257600080fd5b6000805460ff191660011790556040517fd5a2a04a775c741c2ca0dc46ea7ce4835190e1aaf1ca018def0e82568ec33616906114cf903390613cba565b60405180910390a1565b600754604080518082018252600160a060020a03858116825260208201859052915160e260020a6333ca4eab028152600093929092169163cf293aac9161104c91889190600401613d64565b600061152f612318565b151561153a57600080fd5b81600160a060020a038116151561155057600080fd5b6004548390600160a060020a03908116908216811461099e5760045460a060020a900460ff161561158057600080fd5b60048054600160a060020a03878116600160a060020a0319831617909255604051911694507fa44d361e26327b72a7ccbeae801b3c5cd7677ea4fa74168b289e273c46bfecfc906109959086908890613f88565b60006115de612318565b15156115e957600080fd5b81600160a060020a03811615156115ff57600080fd5b600160a060020a03811630141561161557600080fd5b600054600160a060020a03848116610100909204161461168d5760008054600160a060020a0385811661010090810261010060a860020a0319841617909355604051929091041692507f977e5fa58e458501775e0008d275006294c5249e3c08d1d0e3a9f3acad14f6e490610b4c9084908690613cc8565b505050565b61169a613133565b6116a261232e565b15156116ad57600080fd5b5060408051808201909152600160a060020a0383168152602081018290526116d98482600160006128c5565b60075460405160e060020a632ee2ed250281527f55681e18b795929fa6b2ebef09244e035285788d963bf5d6e3968dc2bf8addf0918691600160a060020a0390911690632ee2ed25906117329084908790600401613d64565b602060405180830381600087803b15801561174c57600080fd5b505af1158015611760573d6000803e3d6000fd5b505050506040513d601f19601f820116820180604052506117849190810190613849565b60075460405160e060020a638ab3e965028152600160a060020a0390911690638ab3e965906117b9908a908890600401613d64565b602060405180830381600087803b1580156117d357600080fd5b505af11580156117e7573d6000803e3d6000fd5b505050506040513d601f19601f8201168201806040525061180b9190810190613849565b60075460405160e160020a633007230f028152600160a060020a039091169063600e461e90611840908b908990600401613d64565b602060405180830381600087803b15801561185a57600080fd5b505af115801561186e573d6000803e3d6000fd5b505050506040513d601f19601f820116820180604052506118929190810190613849565b60075460405160e060020a63c46fcd75028152600160a060020a039091169063c46fcd75906118c7908c908a90600401613d64565b602060405180830381600087803b1580156118e157600080fd5b505af11580156118f5573d6000803e3d6000fd5b505050506040513d601f19601f820116820180604052506119199190810190613849565b888833604051611930989796959493929190613e4b565b60405180910390a150505050565b600754604080518082018252600160a060020a03858116825260208201859052915160e060020a63da473c57028152600093929092169163da473c57916109f191889190600401613d64565b600754604080518082018252600160a060020a03858116825260208201859052915160e060020a631b90e3c10281526000939290921691631b90e3c1916109f191889190600401613d64565b60006119e061232e565b15156119eb57600080fd5b81600160a060020a0381161515611a0157600080fd5b600160a060020a038116301415611a1757600080fd5b600154600160a060020a0384811691161461168d5760018054600160a060020a03858116600160a060020a0319831617909255604051911692507f9f611b789425d0d5b90b920f1b2852907dd865c80074a30b1629aaa041d1812c90610b4c9084908690613cc8565b611a88612318565b1515611a9357600080fd5b6005805460a060020a60ff02191660a060020a1790556040517f9c567b65fe8caab5ec7bc979a498a1322c1d4baf01a30727cbca137187560ea290600090a1565b600754604080518082018252600160a060020a03858116825260208201859052915160e360020a63076470a50281526000939290921691633b2385289161104c91889190600401613d64565b611b28613133565b5060408051808201909152600160a060020a038316815260208101829052611b5333826001806128c5565b60075460405160e060020a632ee2ed250281527f46e3d3c7067c83d22286a7cf49b1ac45b28d128a51b1d4a3b9bdc3927a6da0be913391600160a060020a0390911690632ee2ed2590611bac9084908790600401613d64565b602060405180830381600087803b158015611bc657600080fd5b505af1158015611bda573d6000803e3d6000fd5b505050506040513d601f19601f82011682018060405250611bfe9190810190613849565b60075460405160e060020a638ab3e965028152600160a060020a0390911690638ab3e96590611c339033908890600401613d64565b602060405180830381600087803b158015611c4d57600080fd5b505af1158015611c61573d6000803e3d6000fd5b505050506040513d601f19601f82011682018060405250611c859190810190613849565b60075460405160e160020a633007230f028152600160a060020a039091169063600e461e90611cba9033908990600401613d64565b602060405180830381600087803b158015611cd457600080fd5b505af1158015611ce8573d6000803e3d6000fd5b505050506040513d601f19601f82011682018060405250611d0c9190810190613849565b60075460405160e060020a63c46fcd75028152600160a060020a039091169063c46fcd7590611d419033908a90600401613d64565b602060405180830381600087803b158015611d5b57600080fd5b505af1158015611d6f573d6000803e3d6000fd5b505050506040513d601f19601f82011682018060405250611d939190810190613849565b8888604051610b4c9796959493929190613de3565b600754604080518082018252600160a060020a03858116825260208201859052915160e160020a63160ed0cd0281526060939290921691632c1da19a916107f091889190600401613d64565b600754604080518082018252600160a060020a03858116825260208201859052915160e060020a632ee2ed250281526000939290921691632ee2ed25916109f191889190600401613d64565b600754604080518082018252600160a060020a03858116825260208201859052915160e160020a6345a76a610281526000939290921691638b4ed4c2916109f191889190600401613d64565b6000546101009004600160a060020a031681565b600454600160a060020a031681565b600260009054906101000a9004600160a060020a0316600160a060020a031663f71e860f6040518163ffffffff1660e060020a028152600401602060405180830381600087803b158015611f0257600080fd5b505af1158015611f16573d6000803e3d6000fd5b505050506040513d601f19601f82011682018060405250611f3a919081019061382b565b1515611f4557600080fd5b60065460405160e260020a631a49a0cb028152600160a060020a0390911690636926832c90611f7c90859085903390600401613db4565b600060405180830381600087803b158015611f9657600080fd5b505af1158015611faa573d6000803e3d6000fd5b5050600754604080850151905160e060020a632ee2ed250281527fffa28bfeaa617be065ef4f9cbd4448b8ac8e99c98f00741cd2d78fa4732cf9cf9450869350600160a060020a0390921691632ee2ed259161200b91859190600401613d64565b602060405180830381600087803b15801561202557600080fd5b505af1158015612039573d6000803e3d6000fd5b505050506040513d601f19601f8201168201806040525061205d9190810190613849565b600754604080860151905160e060020a638ab3e965028152600160a060020a0390921691638ab3e9659161209691899190600401613d64565b602060405180830381600087803b1580156120b057600080fd5b505af11580156120c4573d6000803e3d6000fd5b505050506040513d601f19601f820116820180604052506120e89190810190613849565b600754604080870151905160e160020a633007230f028152600160a060020a039092169163600e461e91612121918a9190600401613d64565b602060405180830381600087803b15801561213b57600080fd5b505af115801561214f573d6000803e3d6000fd5b505050506040513d601f19601f820116820180604052506121739190810190613849565b600754604080880151905160e060020a63c46fcd75028152600160a060020a039092169163c46fcd75916121ac918b9190600401613d64565b602060405180830381600087803b1580156121c657600080fd5b505af11580156121da573d6000803e3d6000fd5b505050506040513d601f19601f820116820180604052506121fe9190810190613849565b60408088015180516020909101519151610fe5979695949392903390613e4b565b600854600160a060020a031681565b600754604080518082018252600160a060020a03858116825260208201859052915160e060020a6356ec907502815260009392909216916356ec9075916109f191889190600401613d64565b600754604080518082018252600160a060020a03858116825260208201859052915160e060020a635658722902815260009392909216916356587229916122c691889190600401613d64565b602060405180830381600087803b1580156122e057600080fd5b505af11580156122f4573d6000803e3d6000fd5b505050506040513d601f19601f8201168201806040525061084691908101906136f6565b6000546101009004600160a060020a0316331490565b600154600160a060020a0316331490565b60035460405160e060020a63a865476b02815260009182918691600160a060020a03169063a865476b90612377908490600401613fc2565b602060405180830381600087803b15801561239157600080fd5b505af11580156123a5573d6000803e3d6000fd5b505050506040513d601f19601f820116820180604052506123c9919081019061382b565b15156123d457600080fd5b600260009054906101000a9004600160a060020a0316600160a060020a031663b6bf41766040518163ffffffff1660e060020a028152600401602060405180830381600087803b15801561242757600080fd5b505af115801561243b573d6000803e3d6000fd5b505050506040513d601f19601f8201168201806040525061245f9190810190613849565b43101561246b57600080fd5b60035460405160e160020a635f1132b7028152600160a060020a039091169063be22656e906124a09089908b90600401613fd3565b602060405180830381600087803b1580156124ba57600080fd5b505af11580156124ce573d6000803e3d6000fd5b505050506040513d601f19601f820116820180604052506124f2919081019061382b565b15156124fd57600080fd5b600754604080880151905160e360020a63076470a5028152600160a060020a0390921691633b23852891612536918b9190600401613d64565b602060405180830381600087803b15801561255057600080fd5b505af1158015612564573d6000803e3d6000fd5b505050506040513d601f19601f82011682018060405250612588919081019061382b565b158061261a5750600754604080880151905160e060020a637ff81c37028152600160a060020a0390921691637ff81c37916125c8918b9190600401613d64565b602060405180830381600087803b1580156125e257600080fd5b505af11580156125f6573d6000803e3d6000fd5b505050506040513d601f19601f8201168201806040525061261a919081019061382b565b151561262557600080fd5b600854604080880151905160e360020a63076470a5028152600160a060020a0390921691633b2385289161265e918b9190600401613d64565b602060405180830381600087803b15801561267857600080fd5b505af115801561268c573d6000803e3d6000fd5b505050506040513d601f19601f820116820180604052506126b0919081019061382b565b15806127425750600854604080880151905160e060020a637ff81c37028152600160a060020a0390921691637ff81c37916126f0918b9190600401613d64565b602060405180830381600087803b15801561270a57600080fd5b505af115801561271e573d6000803e3d6000fd5b505050506040513d601f19601f82011682018060405250612742919081019061382b565b151561274d57600080fd5b6127578688612abf565b6007549194509250600160a060020a031663bb3bffe0888585896127c7612784838363ffffffff612bcc16565b6127bb8f8f60400151600560009054906101000a9004600160a060020a0316600160a060020a0316612c019092919063ffffffff16565b9063ffffffff612e1416565b8c604001518d60e001518c8f60c00151602001516000015173__PaymentTypesLib_______________________635174abe96040518163ffffffff1660e060020a02815260040160006040518083038186803b15801561282657600080fd5b505af415801561283a573d6000803e3d6000fd5b505050506040513d6000823e601f3d908101601f1916820160405261286291908101906138d3565b6040518b63ffffffff1660e060020a02815260040161288a9a99989796959493929190613ec2565b600060405180830381600087803b1580156128a457600080fd5b505af11580156128b8573d6000803e3d6000fd5b5050505050505050505050565b60075460405160e360020a63076470a5028152600160a060020a0390911690633b238528906128fa9087908790600401613d64565b602060405180830381600087803b15801561291457600080fd5b505af1158015612928573d6000803e3d6000fd5b505050506040513d601f19601f8201168201806040525061294c919081019061382b565b80156129dc575060075460405160e060020a637ff81c37028152600160a060020a0390911690637ff81c37906129889087908790600401613d64565b602060405180830381600087803b1580156129a257600080fd5b505af11580156129b6573d6000803e3d6000fd5b505050506040513d601f19601f820116820180604052506129da919081019061382b565b155b15156129e757600080fd5b60075460405160e060020a6335a42383028152600160a060020a03909116906335a4238390612a20908790879087908790600401613d7f565b600060405180830381600087803b158015612a3a57600080fd5b505af1158015612a4e573d6000803e3d6000fd5b505060085460405160e260020a632ce4e29b028152600160a060020a03909116925063b3938a6c9150612a879087908790600401613d64565b600060405180830381600087803b158015612aa157600080fd5b505af1158015612ab5573d6000803e3d6000fd5b5050505050505050565b604082015160e083015160055460009283928392612af192600160a060020a039091169187919063ffffffff612e5516565b60035460405160e060020a63ef04ec95028152919250600160a060020a03169063ef04ec9590612b279088908890600401613fd3565b602060405180830381600087803b158015612b4157600080fd5b505af1158015612b55573d6000803e3d6000fd5b505050506040513d601f19601f82011682018060405250612b79919081019061382b565b612ba1576080850151805160409091015151612b9c90839063ffffffff612e1416565b612bc0565b6060850151805160409091015151612bc090839063ffffffff612e1416565b92509250509250929050565b6000828201818312801590612be15750838112155b80612bf65750600083128015612bf657508381125b151561084957600080fd5b600061084684600160a060020a03166371f4ec518587600160a060020a0316634652ec746040518163ffffffff1660e060020a028152600401602060405180830381600087803b158015612c5457600080fd5b505af1158015612c68573d6000803e3d6000fd5b505050506040513d601f19601f82011682018060405250612c8c9190810190613849565b8651602088015160405160e060020a63ffffffff8716028152612cb59493929190600401613ce3565b602060405180830381600087803b158015612ccf57600080fd5b505af1158015612ce3573d6000803e3d6000fd5b505050506040513d601f19601f82011682018060405250612d079190810190613849565b85600160a060020a03166371f4ec518688600160a060020a031663ded113106040518163ffffffff1660e060020a028152600401602060405180830381600087803b158015612d5557600080fd5b505af1158015612d69573d6000803e3d6000fd5b505050506040513d601f19601f82011682018060405250612d8d9190810190613849565b8751602089015160405160e060020a63ffffffff8716028152612db69493929190600401613ce3565b602060405180830381600087803b158015612dd057600080fd5b505af1158015612de4573d6000803e3d6000fd5b505050506040513d601f19601f82011682018060405250612e089190810190613849565b9063ffffffff612bcc16565b6000808212158015612e2857508282840313155b80612e3f5750600082128015612e3f575082828403135b1515612e4a57600080fd5b508082035b92915050565b600080612e6486868686612e6f565b509695505050505050565b60008060008060008089600160a060020a031663a246138c8a8c600160a060020a031663ded113106040518163ffffffff1660e060020a028152600401602060405180830381600087803b158015612ec657600080fd5b505af1158015612eda573d6000803e3d6000fd5b505050506040513d601f19601f82011682018060405250612efe9190810190613849565b8b5160208d015160405160e060020a63ffffffff8716028152612f2994939291908e90600401613d18565b6040805180830381600087803b158015612f4257600080fd5b505af1158015612f56573d6000803e3d6000fd5b505050506040513d601f19601f82011682018060405250612f7a91908101906138a3565b9350935089600160a060020a031663a246138c8a8c600160a060020a0316634652ec746040518163ffffffff1660e060020a028152600401602060405180830381600087803b158015612fcc57600080fd5b505af1158015612fe0573d6000803e3d6000fd5b505050506040513d601f19601f820116820180604052506130049190810190613849565b8b5160208d015160405160e060020a63ffffffff871602815261302f94939291908e90600401613d18565b6040805180830381600087803b15801561304857600080fd5b505af115801561305c573d6000803e3d6000fd5b505050506040513d601f19601f8201168201806040525061308091908101906138a3565b9092509050613095848363ffffffff612bcc16565b60405160e060020a63a682d5ad02815290965073__SafeMathUintLib_______________________9063a682d5ad906130d49086908590600401613ff3565b60206040518083038186803b1580156130ec57600080fd5b505af4158015613100573d6000803e3d6000fd5b505050506040513d601f19601f820116820180604052506131249190810190613849565b94505050505094509492505050565b604080518082019091526000808252602082015290565b60006108498235614085565b60006108498251614085565b6000601f8201831361317357600080fd5b813561318661318182614034565b61400e565b915081818352602084019350602081019050838560808402820111156131ab57600080fd5b60005b838110156131d957816131c1888261331a565b845250602090920191608091909101906001016131ae565b5050505092915050565b60006108498251614091565b60006108498235614096565b60006108498251614096565b600061084982356140af565b600061084982516140ba565b6000601f8201831361323057600080fd5b815161323e61318182614054565b9150808252602083016020830185838301111561325a57600080fd5b6132658382846140d4565b50505092915050565b60006040828403121561328057600080fd5b61328a604061400e565b90506000613298848461314a565b82525060206132a9848483016131ef565b60208301525092915050565b6000604082840312156132c757600080fd5b6132d1604061400e565b9050600061329884846131ef565b6000606082840312156132f157600080fd5b6132fb604061400e565b9050600061330984846131ef565b82525060206132a98484830161326e565b60006080828403121561332c57600080fd5b613336604061400e565b9050600061334484846131ef565b82525060206132a9848483016132df565b600060a0828403121561336757600080fd5b613371608061400e565b9050600061337f84846131ef565b82525060206133908484830161314a565b60208301525060406133a4848285016132b5565b60408301525060808201356001604060020a038111156133c357600080fd5b6133cf8482850161363f565b60608301525092915050565b600060a082840312156133ed57600080fd5b6133f7608061400e565b9050600061340584846131ef565b82525060206134168484830161314a565b602083015250604061342a848285016132b5565b60408301525060808201356001604060020a0381111561344957600080fd5b6133cf848285016135ed565b6000610240828403121561346857600080fd5b61347361012061400e565b9050600061348184846131ef565b8252506020613492848483016131ef565b60208301525060406134a68482850161326e565b60408301525060808201356001604060020a038111156134c557600080fd5b6134d1848285016133db565b60608301525060a08201356001604060020a038111156134f057600080fd5b6134fc84828501613355565b60808301525060c0613510848285016132b5565b60a08301525061010061352584828501613688565b60c08301525061020061353a848285016131ef565b60e08301525061022061354f848285016131ef565b6101008301525092915050565b60006080828403121561356e57600080fd5b613578604061400e565b9050600061358684846131ef565b82525060206132a9848483016000606082840312156135a457600080fd5b6135ae606061400e565b905060006135bc84846131ef565b82525060206135cd848483016131ef565b60208301525060406135e1848285016136c4565b60408301525092915050565b6000608082840312156135ff57600080fd5b613609604061400e565b9050600061361784846132df565b82525060608201356001604060020a0381111561363357600080fd5b6132a984828501613162565b60006020828403121561365157600080fd5b61365b602061400e565b905081356001604060020a0381111561367357600080fd5b61367f84828501613162565b82525092915050565b6000610100828403121561369b57600080fd5b6136a5604061400e565b905060006136b3848461355c565b82525060806132a98484830161355c565b600061084982356140a9565b6000602082840312156136e257600080fd5b60006136ee848461314a565b949350505050565b60006020828403121561370857600080fd5b60006136ee8484613156565b60008060006060848603121561372957600080fd5b6000613735868661314a565b93505060206137468682870161314a565b9250506040613757868287016131ef565b9150509250925092565b6000806040838503121561377457600080fd5b6000613780858561314a565b92505060208301356001604060020a0381111561379c57600080fd5b6137a885828601613455565b9150509250929050565b6000806000606084860312156137c757600080fd5b60006137d3868661314a565b93505060208401356001604060020a038111156137ef57600080fd5b61374686828701613455565b6000806040838503121561380e57600080fd5b600061381a858561314a565b92505060206137a8858286016131ef565b60006020828403121561383d57600080fd5b60006136ee84846131e3565b60006020828403121561385b57600080fd5b60006136ee84846131fb565b60006020828403121561387957600080fd5b60006136ee8484613207565b60006020828403121561389757600080fd5b60006136ee8484613213565b600080604083850312156138b657600080fd5b60006138c285856131fb565b92505060206137a8858286016131fb565b6000602082840312156138e557600080fd5b81516001604060020a038111156138fb57600080fd5b6136ee8482850161321f565b6000806040838503121561391a57600080fd5b82356001604060020a0381111561393057600080fd5b61381a85828601613455565b61394581614085565b82525050565b600061395682614081565b8084526020840193506139688361407b565b60005b828110156139985761397e868351613a5a565b6139878261407b565b60809690960195915060010161396b565b5093949350505050565b61394581614091565b61394581614096565b613945816140af565b613945816140c9565b60006139d182614081565b8084526139e58160208601602086016140d4565b6139ee81614100565b9093016020019392505050565b80516040830190613a0c848261393c565b506020820151613a1f60208501826139ab565b50505050565b80516040830190613a0c84826139ab565b80516060830190613a4784826139ab565b506020820151613a1f60208501826139fb565b80516080830190613a6b84826139ab565b506020820151613a1f6020850182613a36565b805160009060a0840190613a9285826139ab565b506020830151613aa5602086018261393c565b506040830151613ab86040860182613a25565b5060608301518482036080860152613ad08282613c74565b95945050505050565b805160009060a0840190613aed85826139ab565b506020830151613b00602086018261393c565b506040830151613b136040860182613a25565b5060608301518482036080860152613ad08282613c48565b8051600090610240840190613b4085826139ab565b506020830151613b5360208601826139ab565b506040830151613b6660408601826139fb565b5060608301518482036080860152613b7e8282613ad9565b915050608083015184820360a0860152613b988282613a7e565b91505060a0830151613bad60c0860182613a25565b5060c0830151613bc1610100860182613c8c565b5060e0830151613bd56102008601826139ab565b50610100830151613bea6102208601826139ab565b509392505050565b80516080830190613c0384826139ab565b506020820151613a1f602085018280516060830190613c2284826139ab565b506020820151613c3560208501826139ab565b506040820151613a1f6040850182613cb1565b80516000906080840190613c5c8582613a36565b5060208301518482036060860152613ad0828261394b565b8051602080845260009190840190613ad0828261394b565b8051610100830190613c9e8482613bf2565b506020820151613a1f6080850182613bf2565b613945816140a9565b60208101612e4f828461393c565b60408101613cd6828561393c565b610849602083018461393c565b60808101613cf1828761393c565b613cfe60208301866139ab565b613d0b604083018561393c565b613ad060608301846139ab565b60a08101613d26828861393c565b613d3360208301876139ab565b613d40604083018661393c565b613d4d60608301856139ab565b613d5a60808301846139ab565b9695505050505050565b60608101613d72828561393c565b61084960208301846139fb565b60a08101613d8d828761393c565b613d9a60208301866139fb565b613da760608301856139a2565b613ad060808301846139a2565b60608101613dc2828661393c565b8181036020830152613dd48185613b2b565b90506136ee604083018461393c565b60e08101613df1828a61393c565b613dfe60208301896139ab565b613e0b60408301886139ab565b613e1860608301876139ab565b613e2560808301866139ab565b613e3260a083018561393c565b613e3f60c08301846139ab565b98975050505050505050565b6101008101613e5a828b61393c565b613e67602083018a6139ab565b613e7460408301896139ab565b613e8160608301886139ab565b613e8e60808301876139ab565b613e9b60a083018661393c565b613ea860c08301856139ab565b613eb560e083018461393c565b9998505050505050505050565b6101608101613ed1828d61393c565b613ede602083018c6139ab565b613eeb604083018b6139ab565b613ef8606083018a6139ab565b613f0560808301896139ab565b613f1260a08301886139fb565b613f1f60e08301876139ab565b613f2d6101008301866139a2565b613f3b6101208301856139ab565b818103610140830152613f4e81846139c6565b9c9b505050505050505050505050565b60208101612e4f82846139a2565b60208101612e4f82846139ab565b60208101612e4f82846139b4565b60408101613f9682856139b4565b61084960208301846139b4565b60208101612e4f82846139bd565b6020808252810161084981846139c6565b602080825281016108498184613b2b565b60408082528101613fe48185613b2b565b9050610849602083018461393c565b6040810161400182856139ab565b61084960208301846139ab565b6040518181016001604060020a038111828210171561402c57600080fd5b604052919050565b60006001604060020a0382111561404a57600080fd5b5060209081020190565b60006001604060020a0382111561406a57600080fd5b506020601f91909101601f19160190565b60200190565b5190565b600160a060020a031690565b151590565b90565b6000600282106140a557fe5b5090565b60ff1690565b6000612e4f82614085565b6000600282106140a557600080fd5b6000612e4f82614099565b60005b838110156140ef5781810151838201526020016140d7565b83811115613a1f5750506000910152565b601f01601f1916905600a265627a7a72305820df8b95e553076aa52123d94edf24c37cb6ae831655a26e9e4018aa9a5d4f52b66c6578706572696d656e74616cf50037",
  "source": "/*\n * Hubii Nahmii\n *\n * Compliant with the Hubii Nahmii specification v0.12.\n *\n * Copyright (C) 2017-2018 Hubii AS\n */\n\npragma solidity ^0.4.25;\npragma experimental ABIEncoderV2;\n\nimport {Ownable} from \"./Ownable.sol\";\nimport {ConfigurableOperational} from \"./ConfigurableOperational.sol\";\nimport {Validatable} from \"./Validatable.sol\";\nimport {WalletLockable} from \"./WalletLockable.sol\";\nimport {BalanceTrackable} from \"./BalanceTrackable.sol\";\nimport {SafeMathIntLib} from \"./SafeMathIntLib.sol\";\nimport {SafeMathUintLib} from \"./SafeMathUintLib.sol\";\nimport {DriipSettlementDisputeByPayment} from \"./DriipSettlementDisputeByPayment.sol\";\nimport {DriipSettlementChallengeState} from \"./DriipSettlementChallengeState.sol\";\nimport {NullSettlementChallengeState} from \"./NullSettlementChallengeState.sol\";\nimport {MonetaryTypesLib} from \"./MonetaryTypesLib.sol\";\nimport {NahmiiTypesLib} from \"./NahmiiTypesLib.sol\";\nimport {PaymentTypesLib} from \"./PaymentTypesLib.sol\";\nimport {SettlementChallengeTypesLib} from \"./SettlementChallengeTypesLib.sol\";\nimport {BalanceTracker} from \"./BalanceTracker.sol\";\nimport {BalanceTrackerLib} from \"./BalanceTrackerLib.sol\";\n\n/**\n * @title DriipSettlementChallengeByPayment\n * @notice Where driip settlements pertaining to payments are started and disputed\n */\ncontract DriipSettlementChallengeByPayment is Ownable, ConfigurableOperational, Validatable, WalletLockable,\nBalanceTrackable {\n    using SafeMathIntLib for int256;\n    using SafeMathUintLib for uint256;\n    using BalanceTrackerLib for BalanceTracker;\n\n    //\n    // Variables\n    // -----------------------------------------------------------------------------------------------------------------\n    DriipSettlementDisputeByPayment public driipSettlementDisputeByPayment;\n    DriipSettlementChallengeState public driipSettlementChallengeState;\n    NullSettlementChallengeState public nullSettlementChallengeState;\n\n    //\n    // Events\n    // -----------------------------------------------------------------------------------------------------------------\n    event SetDriipSettlementDisputeByPaymentEvent(DriipSettlementDisputeByPayment oldDriipSettlementDisputeByPayment,\n        DriipSettlementDisputeByPayment newDriipSettlementDisputeByPayment);\n    event SetDriipSettlementChallengeStateEvent(DriipSettlementChallengeState oldDriipSettlementChallengeState,\n        DriipSettlementChallengeState newDriipSettlementChallengeState);\n    event SetNullSettlementChallengeStateEvent(NullSettlementChallengeState oldNullSettlementChallengeState,\n        NullSettlementChallengeState newNullSettlementChallengeState);\n    event StartChallengeFromPaymentEvent(address wallet, uint256 nonce, int256 cumulativeTransferAmount, int256 stageAmount,\n        int256 targetBalanceAmount, address currencyCt, uint256 currencyId);\n    event StartChallengeFromPaymentByProxyEvent(address wallet, uint256 nonce, int256 cumulativeTransferAmount, int256 stageAmount,\n        int256 targetBalanceAmount, address currencyCt, uint256 currencyId, address proxy);\n    event StopChallengeEvent(address wallet, uint256 nonce, int256 cumulativeTransferAmount, int256 stageAmount,\n        int256 targetBalanceAmount, address currencyCt, uint256 currencyId);\n    event StopChallengeByProxyEvent(address wallet, uint256 nonce, int256 cumulativeTransferAmount, int256 stageAmount,\n        int256 targetBalanceAmount, address currencyCt, uint256 currencyId, address proxy);\n    event ChallengeByPaymentEvent(address challengedWallet, uint256 nonce, int256 cumulativeTransferAmount, int256 stageAmount,\n        int256 targetBalanceAmount, address currencyCt, uint256 currencyId, address challengerWallet);\n\n    //\n    // Constructor\n    // -----------------------------------------------------------------------------------------------------------------\n    constructor(address deployer) Ownable(deployer) public {\n    }\n\n    //\n    // Functions\n    // -----------------------------------------------------------------------------------------------------------------\n    /// @notice Set the settlement dispute contract\n    /// @param newDriipSettlementDisputeByPayment The (address of) DriipSettlementDisputeByPayment contract instance\n    function setDriipSettlementDisputeByPayment(DriipSettlementDisputeByPayment newDriipSettlementDisputeByPayment)\n    public\n    onlyDeployer\n    notNullAddress(newDriipSettlementDisputeByPayment)\n    {\n        DriipSettlementDisputeByPayment oldDriipSettlementDisputeByPayment = driipSettlementDisputeByPayment;\n        driipSettlementDisputeByPayment = newDriipSettlementDisputeByPayment;\n        emit SetDriipSettlementDisputeByPaymentEvent(oldDriipSettlementDisputeByPayment, driipSettlementDisputeByPayment);\n    }\n\n    /// @notice Set the driip settlement challenge state contract\n    /// @param newDriipSettlementChallengeState The (address of) DriipSettlementChallengeState contract instance\n    function setDriipSettlementChallengeState(DriipSettlementChallengeState newDriipSettlementChallengeState)\n    public\n    onlyDeployer\n    notNullAddress(newDriipSettlementChallengeState)\n    {\n        DriipSettlementChallengeState oldDriipSettlementChallengeState = driipSettlementChallengeState;\n        driipSettlementChallengeState = newDriipSettlementChallengeState;\n        emit SetDriipSettlementChallengeStateEvent(oldDriipSettlementChallengeState, driipSettlementChallengeState);\n    }\n\n    /// @notice Set the null settlement challenge state contract\n    /// @param newNullSettlementChallengeState The (address of) NullSettlementChallengeState contract instance\n    function setNullSettlementChallengeState(NullSettlementChallengeState newNullSettlementChallengeState)\n    public\n    onlyDeployer\n    notNullAddress(newNullSettlementChallengeState)\n    {\n        NullSettlementChallengeState oldNullSettlementChallengeState = nullSettlementChallengeState;\n        nullSettlementChallengeState = newNullSettlementChallengeState;\n        emit SetNullSettlementChallengeStateEvent(oldNullSettlementChallengeState, nullSettlementChallengeState);\n    }\n\n    /// @notice Start settlement challenge on payment\n    /// @param payment The challenged payment\n    /// @param stageAmount Amount of payment currency to be staged\n    function startChallengeFromPayment(PaymentTypesLib.Payment payment, int256 stageAmount)\n    public\n    {\n        // Require that wallet is not temporarily disqualified\n        require(!walletLocker.isLocked(msg.sender));\n\n        // Start challenge for wallet\n        _startChallengeFromPayment(msg.sender, payment, stageAmount, true);\n\n        // Emit event\n        emit StartChallengeFromPaymentEvent(\n            msg.sender,\n            driipSettlementChallengeState.proposalNonce(msg.sender, payment.currency),\n            driipSettlementChallengeState.proposalCumulativeTransferAmount(msg.sender, payment.currency),\n            stageAmount,\n            driipSettlementChallengeState.proposalTargetBalanceAmount(msg.sender, payment.currency),\n            payment.currency.ct, payment.currency.id\n        );\n    }\n\n    /// @notice Start settlement challenge on payment\n    /// @param wallet The concerned party\n    /// @param payment The challenged payment\n    /// @param stageAmount Amount of payment currency to be staged\n    function startChallengeFromPaymentByProxy(address wallet, PaymentTypesLib.Payment payment, int256 stageAmount)\n    public\n    onlyOperator\n    {\n        // Start challenge for wallet\n        _startChallengeFromPayment(wallet, payment, stageAmount, false);\n\n        // Emit event\n        emit StartChallengeFromPaymentByProxyEvent(\n            wallet,\n            driipSettlementChallengeState.proposalNonce(wallet, payment.currency),\n            driipSettlementChallengeState.proposalCumulativeTransferAmount(wallet, payment.currency),\n            stageAmount,\n            driipSettlementChallengeState.proposalTargetBalanceAmount(wallet, payment.currency),\n            payment.currency.ct, payment.currency.id, msg.sender\n        );\n    }\n\n    /// @notice Stop settlement challenge\n    /// @param currencyCt The address of the concerned currency contract (address(0) == ETH)\n    /// @param currencyId The ID of the concerned currency (0 for ETH and ERC20)\n    function stopChallenge(address currencyCt, uint256 currencyId)\n    public\n    {\n        // Define currency\n        MonetaryTypesLib.Currency memory currency = MonetaryTypesLib.Currency(currencyCt, currencyId);\n\n        // Stop challenge\n        _stopChallenge(msg.sender, currency, true, true);\n\n        // Emit event\n        emit StopChallengeEvent(\n            msg.sender,\n            driipSettlementChallengeState.proposalNonce(msg.sender, currency),\n            driipSettlementChallengeState.proposalCumulativeTransferAmount(msg.sender, currency),\n            driipSettlementChallengeState.proposalStageAmount(msg.sender, currency),\n            driipSettlementChallengeState.proposalTargetBalanceAmount(msg.sender, currency),\n            currencyCt, currencyId\n        );\n    }\n\n    /// @notice Stop settlement challenge\n    /// @param wallet The concerned wallet\n    /// @param currencyCt The address of the concerned currency contract (address(0) == ETH)\n    /// @param currencyId The ID of the concerned currency (0 for ETH and ERC20)\n    function stopChallengeByProxy(address wallet, address currencyCt, uint256 currencyId)\n    public\n    onlyOperator\n    {\n        // Define currency\n        MonetaryTypesLib.Currency memory currency = MonetaryTypesLib.Currency(currencyCt, currencyId);\n\n        // Terminate driip settlement challenge proposal\n        _stopChallenge(wallet, currency, true, false);\n\n        // Emit event\n        emit StopChallengeByProxyEvent(\n            wallet,\n            driipSettlementChallengeState.proposalNonce(wallet, currency),\n            driipSettlementChallengeState.proposalCumulativeTransferAmount(wallet, currency),\n            driipSettlementChallengeState.proposalStageAmount(wallet, currency),\n            driipSettlementChallengeState.proposalTargetBalanceAmount(wallet, currency),\n            currencyCt, currencyId, msg.sender\n        );\n    }\n\n    /// @notice Gauge whether the proposal for the given wallet and currency has been defined\n    /// @param wallet The address of the concerned wallet\n    /// @param currencyCt The address of the concerned currency contract (address(0) == ETH)\n    /// @param currencyId The ID of the concerned currency (0 for ETH and ERC20)\n    /// @return true if proposal has been initiated, else false\n    function hasProposal(address wallet, address currencyCt, uint256 currencyId)\n    public\n    view\n    returns (bool)\n    {\n        return driipSettlementChallengeState.hasProposal(\n            wallet, MonetaryTypesLib.Currency(currencyCt, currencyId)\n        );\n    }\n\n    /// @notice Gauge whether the proposal for the given wallet and currency has terminated\n    /// @param wallet The address of the concerned wallet\n    /// @param currencyCt The address of the concerned currency contract (address(0) == ETH)\n    /// @param currencyId The ID of the concerned currency (0 for ETH and ERC20)\n    /// @return true if proposal has terminated, else false\n    function hasProposalTerminated(address wallet, address currencyCt, uint256 currencyId)\n    public\n    view\n    returns (bool)\n    {\n        return driipSettlementChallengeState.hasProposalTerminated(\n            wallet, MonetaryTypesLib.Currency(currencyCt, currencyId)\n        );\n    }\n\n    /// @notice Gauge whether the proposal for the given wallet and currency has expired\n    /// @param wallet The address of the concerned wallet\n    /// @param currencyCt The address of the concerned currency contract (address(0) == ETH)\n    /// @param currencyId The ID of the concerned currency (0 for ETH and ERC20)\n    /// @return true if proposal has expired, else false\n    function hasProposalExpired(address wallet, address currencyCt, uint256 currencyId)\n    public\n    view\n    returns (bool)\n    {\n        return driipSettlementChallengeState.hasProposalExpired(\n            wallet, MonetaryTypesLib.Currency(currencyCt, currencyId)\n        );\n    }\n\n    /// @notice Get the challenge nonce of the given wallet\n    /// @param wallet The address of the concerned wallet\n    /// @param currencyCt The address of the concerned currency contract (address(0) == ETH)\n    /// @param currencyId The ID of the concerned currency (0 for ETH and ERC20)\n    /// @return The challenge nonce\n    function proposalNonce(address wallet, address currencyCt, uint256 currencyId)\n    public\n    view\n    returns (uint256)\n    {\n        return driipSettlementChallengeState.proposalNonce(\n            wallet, MonetaryTypesLib.Currency(currencyCt, currencyId)\n        );\n    }\n\n    /// @notice Get the settlement proposal block number of the given wallet\n    /// @param wallet The address of the concerned wallet\n    /// @param currencyCt The address of the concerned currency contract (address(0) == ETH)\n    /// @param currencyId The ID of the concerned currency (0 for ETH and ERC20)\n    /// @return The settlement proposal block number\n    function proposalReferenceBlockNumber(address wallet, address currencyCt, uint256 currencyId)\n    public\n    view\n    returns (uint256)\n    {\n        return driipSettlementChallengeState.proposalReferenceBlockNumber(\n            wallet, MonetaryTypesLib.Currency(currencyCt, currencyId)\n        );\n    }\n\n    /// @notice Get the settlement proposal end time of the given wallet\n    /// @param wallet The address of the concerned wallet\n    /// @param currencyCt The address of the concerned currency contract (address(0) == ETH)\n    /// @param currencyId The ID of the concerned currency (0 for ETH and ERC20)\n    /// @return The settlement proposal end time\n    function proposalExpirationTime(address wallet, address currencyCt, uint256 currencyId)\n    public\n    view\n    returns (uint256)\n    {\n        return driipSettlementChallengeState.proposalExpirationTime(\n            wallet, MonetaryTypesLib.Currency(currencyCt, currencyId)\n        );\n    }\n\n    /// @notice Get the challenge status of the given wallet\n    /// @param wallet The address of the concerned wallet\n    /// @param currencyCt The address of the concerned currency contract (address(0) == ETH)\n    /// @param currencyId The ID of the concerned currency (0 for ETH and ERC20)\n    /// @return The challenge status\n    function proposalStatus(address wallet, address currencyCt, uint256 currencyId)\n    public\n    view\n    returns (SettlementChallengeTypesLib.Status)\n    {\n        return driipSettlementChallengeState.proposalStatus(\n            wallet, MonetaryTypesLib.Currency(currencyCt, currencyId)\n        );\n    }\n\n    /// @notice Get the settlement proposal stage amount of the given wallet and currency\n    /// @param wallet The address of the concerned wallet\n    /// @param currencyCt The address of the concerned currency contract (address(0) == ETH)\n    /// @param currencyId The ID of the concerned currency (0 for ETH and ERC20)\n    /// @return The settlement proposal stage amount\n    function proposalStageAmount(address wallet, address currencyCt, uint256 currencyId)\n    public\n    view\n    returns (int256)\n    {\n        return driipSettlementChallengeState.proposalStageAmount(\n            wallet, MonetaryTypesLib.Currency(currencyCt, currencyId)\n        );\n    }\n\n    /// @notice Get the settlement proposal target balance amount of the given wallet and currency\n    /// @param wallet The address of the concerned wallet\n    /// @param currencyCt The address of the concerned currency contract (address(0) == ETH)\n    /// @param currencyId The ID of the concerned currency (0 for ETH and ERC20)\n    /// @return The settlement proposal target balance amount\n    function proposalTargetBalanceAmount(address wallet, address currencyCt, uint256 currencyId)\n    public\n    view\n    returns (int256)\n    {\n        return driipSettlementChallengeState.proposalTargetBalanceAmount(\n            wallet, MonetaryTypesLib.Currency(currencyCt, currencyId)\n        );\n    }\n\n    /// @notice Get the settlement proposal driip hash of the given wallet and currency\n    /// @param wallet The address of the concerned wallet\n    /// @param currencyCt The address of the concerned currency contract (address(0) == ETH)\n    /// @param currencyId The ID of the concerned currency (0 for ETH and ERC20)\n    /// @return The settlement proposal driip hash\n    function proposalChallengedHash(address wallet, address currencyCt, uint256 currencyId)\n    public\n    view\n    returns (bytes32)\n    {\n        return driipSettlementChallengeState.proposalChallengedHash(\n            wallet, MonetaryTypesLib.Currency(currencyCt, currencyId)\n        );\n    }\n\n    /// @notice Get the settlement proposal driip type of the given wallet and currency\n    /// @param wallet The address of the concerned wallet\n    /// @param currencyCt The address of the concerned currency contract (address(0) == ETH)\n    /// @param currencyId The ID of the concerned currency (0 for ETH and ERC20)\n    /// @return The settlement proposal driip type\n    function proposalChallengedKind(address wallet, address currencyCt, uint256 currencyId)\n    public\n    view\n    returns (string)\n    {\n        return driipSettlementChallengeState.proposalChallengedKind(\n            wallet, MonetaryTypesLib.Currency(currencyCt, currencyId)\n        );\n    }\n\n    /// @notice Get the balance reward of the given wallet's settlement proposal\n    /// @param wallet The address of the concerned wallet\n    /// @param currencyCt The address of the concerned currency contract (address(0) == ETH)\n    /// @param currencyId The ID of the concerned currency (0 for ETH and ERC20)\n    /// @return The balance reward of the settlement proposal\n    function proposalWalletInitiated(address wallet, address currencyCt, uint256 currencyId)\n    public\n    view\n    returns (bool)\n    {\n        return driipSettlementChallengeState.proposalWalletInitiated(\n            wallet, MonetaryTypesLib.Currency(currencyCt, currencyId)\n        );\n    }\n\n    /// @notice Get the disqualification challenger of the given wallet and currency\n    /// @param wallet The address of the concerned wallet\n    /// @param currencyCt The address of the concerned currency contract (address(0) == ETH)\n    /// @param currencyId The ID of the concerned currency (0 for ETH and ERC20)\n    /// @return The challenger of the settlement disqualification\n    function proposalDisqualificationChallenger(address wallet, address currencyCt, uint256 currencyId)\n    public\n    view\n    returns (address)\n    {\n        return driipSettlementChallengeState.proposalDisqualificationChallenger(\n            wallet, MonetaryTypesLib.Currency(currencyCt, currencyId)\n        );\n    }\n    /// @notice Get the disqualification block number of the given wallet and currency\n    /// @param wallet The address of the concerned wallet\n    /// @param currencyCt The address of the concerned currency contract (address(0) == ETH)\n    /// @param currencyId The ID of the concerned currency (0 for ETH and ERC20)\n    /// @return The block number of the settlement disqualification\n    function proposalDisqualificationBlockNumber(address wallet, address currencyCt, uint256 currencyId)\n    public\n    view\n    returns (uint256)\n    {\n        return driipSettlementChallengeState.proposalDisqualificationBlockNumber(\n            wallet, MonetaryTypesLib.Currency(currencyCt, currencyId)\n        );\n    }\n\n    /// @notice Get the disqualification candidate kind of the given wallet and currency\n    /// @param wallet The address of the concerned wallet\n    /// @param currencyCt The address of the concerned currency contract (address(0) == ETH)\n    /// @param currencyId The ID of the concerned currency (0 for ETH and ERC20)\n    /// @return The candidate kind of the settlement disqualification\n    function proposalDisqualificationCandidateKind(address wallet, address currencyCt, uint256 currencyId)\n    public\n    view\n    returns (string)\n    {\n        return driipSettlementChallengeState.proposalDisqualificationCandidateKind(\n            wallet, MonetaryTypesLib.Currency(currencyCt, currencyId)\n        );\n    }\n\n    /// @notice Get the disqualification candidate hash of the given wallet and currency\n    /// @param wallet The address of the concerned wallet\n    /// @param currencyCt The address of the concerned currency contract (address(0) == ETH)\n    /// @param currencyId The ID of the concerned currency (0 for ETH and ERC20)\n    /// @return The candidate hash of the settlement disqualification\n    function proposalDisqualificationCandidateHash(address wallet, address currencyCt, uint256 currencyId)\n    public\n    view\n    returns (bytes32)\n    {\n        return driipSettlementChallengeState.proposalDisqualificationCandidateHash(\n            wallet, MonetaryTypesLib.Currency(currencyCt, currencyId)\n        );\n    }\n\n    /// @notice Challenge the settlement by providing payment candidate\n    /// @param wallet The wallet whose settlement is being challenged\n    /// @param payment The payment candidate that challenges the challenged driip\n    function challengeByPayment(address wallet, PaymentTypesLib.Payment payment)\n    public\n    onlyOperationalModeNormal\n    {\n        // Challenge by payment\n        driipSettlementDisputeByPayment.challengeByPayment(wallet, payment, msg.sender);\n\n        // Emit event\n        emit ChallengeByPaymentEvent(\n            wallet,\n            driipSettlementChallengeState.proposalNonce(wallet, payment.currency),\n            driipSettlementChallengeState.proposalCumulativeTransferAmount(wallet, payment.currency),\n            driipSettlementChallengeState.proposalStageAmount(wallet, payment.currency),\n            driipSettlementChallengeState.proposalTargetBalanceAmount(wallet, payment.currency),\n            payment.currency.ct, payment.currency.id, msg.sender\n        );\n    }\n\n    //\n    // Private functions\n    // -----------------------------------------------------------------------------------------------------------------\n    function _startChallengeFromPayment(address wallet, PaymentTypesLib.Payment payment,\n        int256 stageAmount, bool walletInitiated)\n    private\n    onlySealedPayment(payment)\n    {\n        // Require that current block number is beyond the earliest settlement challenge block number\n        require(block.number >= configuration.earliestSettlementBlockNumber());\n\n        // Require that given wallet is a payment party\n        require(validator.isPaymentParty(payment, wallet));\n\n        // Require that there is no ongoing overlapping driip settlement challenge\n        require(\n            !driipSettlementChallengeState.hasProposal(wallet, payment.currency) ||\n        driipSettlementChallengeState.hasProposalTerminated(wallet, payment.currency)\n        );\n\n        // Require that there is no ongoing overlapping null settlement challenge\n        require(\n            !nullSettlementChallengeState.hasProposal(wallet, payment.currency) ||\n        nullSettlementChallengeState.hasProposalTerminated(wallet, payment.currency)\n        );\n\n        // Deduce the concerned nonce and cumulative relative transfer\n        (uint256 nonce, int256 cumulativeTransferAmount) = _paymentPartyProperties(payment, wallet);\n\n        // Initiate proposal, including assurance that there is no overlap with active proposal\n        // Target balance amount is calculated as current balance - cumulativeTransferAmount - stageAmount\n        driipSettlementChallengeState.initiateProposal(\n            wallet, nonce, cumulativeTransferAmount, stageAmount,\n            balanceTracker.fungibleActiveBalanceAmount(wallet, payment.currency).sub(cumulativeTransferAmount.add(stageAmount)),\n            payment.currency, payment.blockNumber,\n            walletInitiated, payment.seals.operator.hash, PaymentTypesLib.PAYMENT_KIND()\n        );\n    }\n\n    function _stopChallenge(address wallet, MonetaryTypesLib.Currency currency, bool clearNonce, bool walletTerminated)\n    private\n    {\n        // Require that there is an unterminated driip settlement challenge proposal\n        require(\n            driipSettlementChallengeState.hasProposal(wallet, currency) &&\n            !driipSettlementChallengeState.hasProposalTerminated(wallet, currency)\n        );\n\n        // Terminate driip settlement challenge proposal\n        driipSettlementChallengeState.terminateProposal(wallet, currency, clearNonce, walletTerminated);\n\n        // Terminate dependent null settlement challenge proposal if existent\n        nullSettlementChallengeState.terminateProposal(wallet, currency);\n    }\n\n    function _paymentPartyProperties(PaymentTypesLib.Payment payment, address wallet)\n    private\n    view\n    returns (uint256, int256)\n    {\n        // Obtain the active balance amount at the payment block\n        int256 balanceAmountAtPaymentBlock = balanceTracker.fungibleActiveBalanceAmountByBlockNumber(wallet, payment.currency, payment.blockNumber);\n\n        // Return wallet nonce and cumulative relative transfer\n        return validator.isPaymentSender(payment, wallet) ?\n        (payment.sender.nonce, balanceAmountAtPaymentBlock.sub(payment.sender.balances.current)) :\n    (payment.recipient.nonce, balanceAmountAtPaymentBlock.sub(payment.recipient.balances.current));\n    }\n}\n",
  "sourcePath": "/opt/buildagent/work/855e104608380c36/contracts/DriipSettlementChallengeByPayment.sol",
  "compiler": {
    "name": "solc",
    "version": "0.4.25+commit.59dbf8f1.Emscripten.clang"
  },
  "schemaVersion": "2.0.2",
  "updatedAt": "2019-04-18T00:23:49.554Z"
}