{
  "contractName": "DriipSettlementState",
  "abi": [
    {
      "constant": true,
      "inputs": [
        {
          "name": "",
          "type": "uint256"
        }
      ],
      "name": "settlements",
      "outputs": [
        {
          "name": "settledKind",
          "type": "string"
        },
        {
          "name": "settledHash",
          "type": "bytes32"
        },
        {
          "components": [
            {
              "name": "nonce",
              "type": "uint256"
            },
            {
              "name": "wallet",
              "type": "address"
            },
            {
              "name": "done",
              "type": "bool"
            }
          ],
          "name": "origin",
          "type": "tuple"
        },
        {
          "components": [
            {
              "name": "nonce",
              "type": "uint256"
            },
            {
              "name": "wallet",
              "type": "address"
            },
            {
              "name": "done",
              "type": "bool"
            }
          ],
          "name": "target",
          "type": "tuple"
        }
      ],
      "payable": false,
      "stateMutability": "view",
      "type": "function"
    },
    {
      "constant": true,
      "inputs": [],
      "name": "SET_MAX_NONCE_ACTION",
      "outputs": [
        {
          "name": "",
          "type": "string"
        }
      ],
      "payable": false,
      "stateMutability": "view",
      "type": "function"
    },
    {
      "constant": true,
      "inputs": [],
      "name": "SET_FEE_TOTAL_ACTION",
      "outputs": [
        {
          "name": "",
          "type": "string"
        }
      ],
      "payable": false,
      "stateMutability": "view",
      "type": "function"
    },
    {
      "constant": true,
      "inputs": [
        {
          "name": "service",
          "type": "address"
        }
      ],
      "name": "isRegisteredActiveService",
      "outputs": [
        {
          "name": "",
          "type": "bool"
        }
      ],
      "payable": false,
      "stateMutability": "view",
      "type": "function"
    },
    {
      "constant": false,
      "inputs": [],
      "name": "triggerSelfDestruction",
      "outputs": [],
      "payable": false,
      "stateMutability": "nonpayable",
      "type": "function"
    },
    {
      "constant": false,
      "inputs": [
        {
          "name": "service",
          "type": "address"
        },
        {
          "name": "action",
          "type": "string"
        }
      ],
      "name": "enableServiceAction",
      "outputs": [],
      "payable": false,
      "stateMutability": "nonpayable",
      "type": "function"
    },
    {
      "constant": true,
      "inputs": [
        {
          "name": "service",
          "type": "address"
        }
      ],
      "name": "isRegisteredService",
      "outputs": [
        {
          "name": "",
          "type": "bool"
        }
      ],
      "payable": false,
      "stateMutability": "view",
      "type": "function"
    },
    {
      "constant": true,
      "inputs": [],
      "name": "selfDestructionDisabled",
      "outputs": [
        {
          "name": "",
          "type": "bool"
        }
      ],
      "payable": false,
      "stateMutability": "view",
      "type": "function"
    },
    {
      "constant": false,
      "inputs": [
        {
          "name": "service",
          "type": "address"
        },
        {
          "name": "action",
          "type": "string"
        }
      ],
      "name": "disableServiceAction",
      "outputs": [],
      "payable": false,
      "stateMutability": "nonpayable",
      "type": "function"
    },
    {
      "constant": true,
      "inputs": [],
      "name": "serviceActivationTimeout",
      "outputs": [
        {
          "name": "",
          "type": "uint256"
        }
      ],
      "payable": false,
      "stateMutability": "view",
      "type": "function"
    },
    {
      "constant": true,
      "inputs": [],
      "name": "SET_MAX_DRIIP_NONCE_ACTION",
      "outputs": [
        {
          "name": "",
          "type": "string"
        }
      ],
      "payable": false,
      "stateMutability": "view",
      "type": "function"
    },
    {
      "constant": true,
      "inputs": [
        {
          "name": "",
          "type": "address"
        },
        {
          "name": "",
          "type": "address"
        },
        {
          "name": "",
          "type": "address"
        },
        {
          "name": "",
          "type": "address"
        },
        {
          "name": "",
          "type": "uint256"
        }
      ],
      "name": "totalFeesMap",
      "outputs": [
        {
          "name": "nonce",
          "type": "uint256"
        },
        {
          "name": "amount",
          "type": "int256"
        }
      ],
      "payable": false,
      "stateMutability": "view",
      "type": "function"
    },
    {
      "constant": true,
      "inputs": [],
      "name": "destructor",
      "outputs": [
        {
          "name": "",
          "type": "address"
        }
      ],
      "payable": false,
      "stateMutability": "view",
      "type": "function"
    },
    {
      "constant": false,
      "inputs": [
        {
          "name": "service",
          "type": "address"
        }
      ],
      "name": "deregisterService",
      "outputs": [],
      "payable": false,
      "stateMutability": "nonpayable",
      "type": "function"
    },
    {
      "constant": true,
      "inputs": [],
      "name": "operator",
      "outputs": [
        {
          "name": "",
          "type": "address"
        }
      ],
      "payable": false,
      "stateMutability": "view",
      "type": "function"
    },
    {
      "constant": true,
      "inputs": [
        {
          "name": "service",
          "type": "address"
        },
        {
          "name": "action",
          "type": "string"
        }
      ],
      "name": "isEnabledServiceAction",
      "outputs": [
        {
          "name": "",
          "type": "bool"
        }
      ],
      "payable": false,
      "stateMutability": "view",
      "type": "function"
    },
    {
      "constant": false,
      "inputs": [],
      "name": "freezeCommunityVote",
      "outputs": [],
      "payable": false,
      "stateMutability": "nonpayable",
      "type": "function"
    },
    {
      "constant": true,
      "inputs": [],
      "name": "SET_SETTLEMENT_ROLE_DONE_ACTION",
      "outputs": [
        {
          "name": "",
          "type": "string"
        }
      ],
      "payable": false,
      "stateMutability": "view",
      "type": "function"
    },
    {
      "constant": false,
      "inputs": [],
      "name": "disableSelfDestruction",
      "outputs": [],
      "payable": false,
      "stateMutability": "nonpayable",
      "type": "function"
    },
    {
      "constant": false,
      "inputs": [
        {
          "name": "timeoutInSeconds",
          "type": "uint256"
        }
      ],
      "name": "setServiceActivationTimeout",
      "outputs": [],
      "payable": false,
      "stateMutability": "nonpayable",
      "type": "function"
    },
    {
      "constant": true,
      "inputs": [],
      "name": "maxDriipNonce",
      "outputs": [
        {
          "name": "",
          "type": "uint256"
        }
      ],
      "payable": false,
      "stateMutability": "view",
      "type": "function"
    },
    {
      "constant": false,
      "inputs": [
        {
          "name": "service",
          "type": "address"
        }
      ],
      "name": "registerServiceDeferred",
      "outputs": [],
      "payable": false,
      "stateMutability": "nonpayable",
      "type": "function"
    },
    {
      "constant": true,
      "inputs": [],
      "name": "communityVoteFrozen",
      "outputs": [
        {
          "name": "",
          "type": "bool"
        }
      ],
      "payable": false,
      "stateMutability": "view",
      "type": "function"
    },
    {
      "constant": true,
      "inputs": [
        {
          "name": "",
          "type": "address"
        },
        {
          "name": "",
          "type": "uint256"
        }
      ],
      "name": "walletSettlementIndices",
      "outputs": [
        {
          "name": "",
          "type": "uint256"
        }
      ],
      "payable": false,
      "stateMutability": "view",
      "type": "function"
    },
    {
      "constant": false,
      "inputs": [
        {
          "name": "newDeployer",
          "type": "address"
        }
      ],
      "name": "setDeployer",
      "outputs": [],
      "payable": false,
      "stateMutability": "nonpayable",
      "type": "function"
    },
    {
      "constant": false,
      "inputs": [
        {
          "name": "newOperator",
          "type": "address"
        }
      ],
      "name": "setOperator",
      "outputs": [],
      "payable": false,
      "stateMutability": "nonpayable",
      "type": "function"
    },
    {
      "constant": true,
      "inputs": [],
      "name": "communityVote",
      "outputs": [
        {
          "name": "",
          "type": "address"
        }
      ],
      "payable": false,
      "stateMutability": "view",
      "type": "function"
    },
    {
      "constant": true,
      "inputs": [],
      "name": "deployer",
      "outputs": [
        {
          "name": "",
          "type": "address"
        }
      ],
      "payable": false,
      "stateMutability": "view",
      "type": "function"
    },
    {
      "constant": true,
      "inputs": [
        {
          "name": "",
          "type": "address"
        },
        {
          "name": "",
          "type": "uint256"
        }
      ],
      "name": "walletNonceSettlementIndex",
      "outputs": [
        {
          "name": "",
          "type": "uint256"
        }
      ],
      "payable": false,
      "stateMutability": "view",
      "type": "function"
    },
    {
      "constant": true,
      "inputs": [],
      "name": "INIT_SETTLEMENT_ACTION",
      "outputs": [
        {
          "name": "",
          "type": "string"
        }
      ],
      "payable": false,
      "stateMutability": "view",
      "type": "function"
    },
    {
      "constant": false,
      "inputs": [
        {
          "name": "newCommunityVote",
          "type": "address"
        }
      ],
      "name": "setCommunityVote",
      "outputs": [],
      "payable": false,
      "stateMutability": "nonpayable",
      "type": "function"
    },
    {
      "constant": true,
      "inputs": [
        {
          "name": "",
          "type": "address"
        },
        {
          "name": "",
          "type": "address"
        },
        {
          "name": "",
          "type": "uint256"
        }
      ],
      "name": "walletCurrencyMaxNonce",
      "outputs": [
        {
          "name": "",
          "type": "uint256"
        }
      ],
      "payable": false,
      "stateMutability": "view",
      "type": "function"
    },
    {
      "constant": false,
      "inputs": [
        {
          "name": "service",
          "type": "address"
        }
      ],
      "name": "registerService",
      "outputs": [],
      "payable": false,
      "stateMutability": "nonpayable",
      "type": "function"
    },
    {
      "inputs": [
        {
          "name": "deployer",
          "type": "address"
        }
      ],
      "payable": false,
      "stateMutability": "nonpayable",
      "type": "constructor"
    },
    {
      "anonymous": false,
      "inputs": [
        {
          "components": [
            {
              "name": "settledKind",
              "type": "string"
            },
            {
              "name": "settledHash",
              "type": "bytes32"
            },
            {
              "components": [
                {
                  "name": "nonce",
                  "type": "uint256"
                },
                {
                  "name": "wallet",
                  "type": "address"
                },
                {
                  "name": "done",
                  "type": "bool"
                }
              ],
              "name": "origin",
              "type": "tuple"
            },
            {
              "components": [
                {
                  "name": "nonce",
                  "type": "uint256"
                },
                {
                  "name": "wallet",
                  "type": "address"
                },
                {
                  "name": "done",
                  "type": "bool"
                }
              ],
              "name": "target",
              "type": "tuple"
            }
          ],
          "indexed": false,
          "name": "settlement",
          "type": "tuple"
        }
      ],
      "name": "InitSettlementEvent",
      "type": "event"
    },
    {
      "anonymous": false,
      "inputs": [
        {
          "indexed": false,
          "name": "wallet",
          "type": "address"
        },
        {
          "indexed": false,
          "name": "nonce",
          "type": "uint256"
        },
        {
          "indexed": false,
          "name": "settlementRole",
          "type": "uint8"
        },
        {
          "indexed": false,
          "name": "done",
          "type": "bool"
        }
      ],
      "name": "SetSettlementRoleDoneEvent",
      "type": "event"
    },
    {
      "anonymous": false,
      "inputs": [
        {
          "indexed": false,
          "name": "wallet",
          "type": "address"
        },
        {
          "components": [
            {
              "name": "ct",
              "type": "address"
            },
            {
              "name": "id",
              "type": "uint256"
            }
          ],
          "indexed": false,
          "name": "currency",
          "type": "tuple"
        },
        {
          "indexed": false,
          "name": "maxNonce",
          "type": "uint256"
        }
      ],
      "name": "SetMaxNonceByWalletAndCurrencyEvent",
      "type": "event"
    },
    {
      "anonymous": false,
      "inputs": [
        {
          "indexed": false,
          "name": "maxDriipNonce",
          "type": "uint256"
        }
      ],
      "name": "SetMaxDriipNonceEvent",
      "type": "event"
    },
    {
      "anonymous": false,
      "inputs": [
        {
          "indexed": false,
          "name": "maxDriipNonce",
          "type": "uint256"
        }
      ],
      "name": "UpdateMaxDriipNonceFromCommunityVoteEvent",
      "type": "event"
    },
    {
      "anonymous": false,
      "inputs": [
        {
          "indexed": false,
          "name": "wallet",
          "type": "address"
        },
        {
          "indexed": false,
          "name": "beneficiary",
          "type": "address"
        },
        {
          "indexed": false,
          "name": "destination",
          "type": "address"
        },
        {
          "components": [
            {
              "name": "ct",
              "type": "address"
            },
            {
              "name": "id",
              "type": "uint256"
            }
          ],
          "indexed": false,
          "name": "currency",
          "type": "tuple"
        },
        {
          "components": [
            {
              "name": "nonce",
              "type": "uint256"
            },
            {
              "name": "amount",
              "type": "int256"
            }
          ],
          "indexed": false,
          "name": "totalFee",
          "type": "tuple"
        }
      ],
      "name": "SetTotalFeeEvent",
      "type": "event"
    },
    {
      "anonymous": false,
      "inputs": [
        {
          "indexed": false,
          "name": "oldCommunityVote",
          "type": "address"
        },
        {
          "indexed": false,
          "name": "newCommunityVote",
          "type": "address"
        }
      ],
      "name": "SetCommunityVoteEvent",
      "type": "event"
    },
    {
      "anonymous": false,
      "inputs": [],
      "name": "FreezeCommunityVoteEvent",
      "type": "event"
    },
    {
      "anonymous": false,
      "inputs": [
        {
          "indexed": false,
          "name": "timeoutInSeconds",
          "type": "uint256"
        }
      ],
      "name": "ServiceActivationTimeoutEvent",
      "type": "event"
    },
    {
      "anonymous": false,
      "inputs": [
        {
          "indexed": false,
          "name": "service",
          "type": "address"
        }
      ],
      "name": "RegisterServiceEvent",
      "type": "event"
    },
    {
      "anonymous": false,
      "inputs": [
        {
          "indexed": false,
          "name": "service",
          "type": "address"
        },
        {
          "indexed": false,
          "name": "timeout",
          "type": "uint256"
        }
      ],
      "name": "RegisterServiceDeferredEvent",
      "type": "event"
    },
    {
      "anonymous": false,
      "inputs": [
        {
          "indexed": false,
          "name": "service",
          "type": "address"
        }
      ],
      "name": "DeregisterServiceEvent",
      "type": "event"
    },
    {
      "anonymous": false,
      "inputs": [
        {
          "indexed": false,
          "name": "service",
          "type": "address"
        },
        {
          "indexed": false,
          "name": "action",
          "type": "string"
        }
      ],
      "name": "EnableServiceActionEvent",
      "type": "event"
    },
    {
      "anonymous": false,
      "inputs": [
        {
          "indexed": false,
          "name": "service",
          "type": "address"
        },
        {
          "indexed": false,
          "name": "action",
          "type": "string"
        }
      ],
      "name": "DisableServiceActionEvent",
      "type": "event"
    },
    {
      "anonymous": false,
      "inputs": [
        {
          "indexed": false,
          "name": "oldDeployer",
          "type": "address"
        },
        {
          "indexed": false,
          "name": "newDeployer",
          "type": "address"
        }
      ],
      "name": "SetDeployerEvent",
      "type": "event"
    },
    {
      "anonymous": false,
      "inputs": [
        {
          "indexed": false,
          "name": "oldOperator",
          "type": "address"
        },
        {
          "indexed": false,
          "name": "newOperator",
          "type": "address"
        }
      ],
      "name": "SetOperatorEvent",
      "type": "event"
    },
    {
      "anonymous": false,
      "inputs": [
        {
          "indexed": false,
          "name": "wallet",
          "type": "address"
        }
      ],
      "name": "SelfDestructionDisabledEvent",
      "type": "event"
    },
    {
      "anonymous": false,
      "inputs": [
        {
          "indexed": false,
          "name": "wallet",
          "type": "address"
        }
      ],
      "name": "TriggerSelfDestructionEvent",
      "type": "event"
    },
    {
      "constant": true,
      "inputs": [],
      "name": "settlementsCount",
      "outputs": [
        {
          "name": "",
          "type": "uint256"
        }
      ],
      "payable": false,
      "stateMutability": "view",
      "type": "function"
    },
    {
      "constant": true,
      "inputs": [
        {
          "name": "wallet",
          "type": "address"
        }
      ],
      "name": "settlementsCountByWallet",
      "outputs": [
        {
          "name": "",
          "type": "uint256"
        }
      ],
      "payable": false,
      "stateMutability": "view",
      "type": "function"
    },
    {
      "constant": true,
      "inputs": [
        {
          "name": "wallet",
          "type": "address"
        },
        {
          "name": "index",
          "type": "uint256"
        }
      ],
      "name": "settlementByWalletAndIndex",
      "outputs": [
        {
          "components": [
            {
              "name": "settledKind",
              "type": "string"
            },
            {
              "name": "settledHash",
              "type": "bytes32"
            },
            {
              "components": [
                {
                  "name": "nonce",
                  "type": "uint256"
                },
                {
                  "name": "wallet",
                  "type": "address"
                },
                {
                  "name": "done",
                  "type": "bool"
                }
              ],
              "name": "origin",
              "type": "tuple"
            },
            {
              "components": [
                {
                  "name": "nonce",
                  "type": "uint256"
                },
                {
                  "name": "wallet",
                  "type": "address"
                },
                {
                  "name": "done",
                  "type": "bool"
                }
              ],
              "name": "target",
              "type": "tuple"
            }
          ],
          "name": "",
          "type": "tuple"
        }
      ],
      "payable": false,
      "stateMutability": "view",
      "type": "function"
    },
    {
      "constant": true,
      "inputs": [
        {
          "name": "wallet",
          "type": "address"
        },
        {
          "name": "nonce",
          "type": "uint256"
        }
      ],
      "name": "settlementByWalletAndNonce",
      "outputs": [
        {
          "components": [
            {
              "name": "settledKind",
              "type": "string"
            },
            {
              "name": "settledHash",
              "type": "bytes32"
            },
            {
              "components": [
                {
                  "name": "nonce",
                  "type": "uint256"
                },
                {
                  "name": "wallet",
                  "type": "address"
                },
                {
                  "name": "done",
                  "type": "bool"
                }
              ],
              "name": "origin",
              "type": "tuple"
            },
            {
              "components": [
                {
                  "name": "nonce",
                  "type": "uint256"
                },
                {
                  "name": "wallet",
                  "type": "address"
                },
                {
                  "name": "done",
                  "type": "bool"
                }
              ],
              "name": "target",
              "type": "tuple"
            }
          ],
          "name": "",
          "type": "tuple"
        }
      ],
      "payable": false,
      "stateMutability": "view",
      "type": "function"
    },
    {
      "constant": false,
      "inputs": [
        {
          "name": "settledKind",
          "type": "string"
        },
        {
          "name": "settledHash",
          "type": "bytes32"
        },
        {
          "name": "originWallet",
          "type": "address"
        },
        {
          "name": "originNonce",
          "type": "uint256"
        },
        {
          "name": "targetWallet",
          "type": "address"
        },
        {
          "name": "targetNonce",
          "type": "uint256"
        }
      ],
      "name": "initSettlement",
      "outputs": [],
      "payable": false,
      "stateMutability": "nonpayable",
      "type": "function"
    },
    {
      "constant": true,
      "inputs": [
        {
          "name": "wallet",
          "type": "address"
        },
        {
          "name": "nonce",
          "type": "uint256"
        },
        {
          "name": "settlementRole",
          "type": "uint8"
        }
      ],
      "name": "isSettlementRoleDone",
      "outputs": [
        {
          "name": "",
          "type": "bool"
        }
      ],
      "payable": false,
      "stateMutability": "view",
      "type": "function"
    },
    {
      "constant": false,
      "inputs": [
        {
          "name": "wallet",
          "type": "address"
        },
        {
          "name": "nonce",
          "type": "uint256"
        },
        {
          "name": "settlementRole",
          "type": "uint8"
        },
        {
          "name": "done",
          "type": "bool"
        }
      ],
      "name": "setSettlementRoleDone",
      "outputs": [],
      "payable": false,
      "stateMutability": "nonpayable",
      "type": "function"
    },
    {
      "constant": false,
      "inputs": [
        {
          "name": "_maxDriipNonce",
          "type": "uint256"
        }
      ],
      "name": "setMaxDriipNonce",
      "outputs": [],
      "payable": false,
      "stateMutability": "nonpayable",
      "type": "function"
    },
    {
      "constant": false,
      "inputs": [],
      "name": "updateMaxDriipNonceFromCommunityVote",
      "outputs": [],
      "payable": false,
      "stateMutability": "nonpayable",
      "type": "function"
    },
    {
      "constant": true,
      "inputs": [
        {
          "name": "wallet",
          "type": "address"
        },
        {
          "components": [
            {
              "name": "ct",
              "type": "address"
            },
            {
              "name": "id",
              "type": "uint256"
            }
          ],
          "name": "currency",
          "type": "tuple"
        }
      ],
      "name": "maxNonceByWalletAndCurrency",
      "outputs": [
        {
          "name": "",
          "type": "uint256"
        }
      ],
      "payable": false,
      "stateMutability": "view",
      "type": "function"
    },
    {
      "constant": false,
      "inputs": [
        {
          "name": "wallet",
          "type": "address"
        },
        {
          "components": [
            {
              "name": "ct",
              "type": "address"
            },
            {
              "name": "id",
              "type": "uint256"
            }
          ],
          "name": "currency",
          "type": "tuple"
        },
        {
          "name": "maxNonce",
          "type": "uint256"
        }
      ],
      "name": "setMaxNonceByWalletAndCurrency",
      "outputs": [],
      "payable": false,
      "stateMutability": "nonpayable",
      "type": "function"
    },
    {
      "constant": true,
      "inputs": [
        {
          "name": "wallet",
          "type": "address"
        },
        {
          "name": "beneficiary",
          "type": "address"
        },
        {
          "name": "destination",
          "type": "address"
        },
        {
          "components": [
            {
              "name": "ct",
              "type": "address"
            },
            {
              "name": "id",
              "type": "uint256"
            }
          ],
          "name": "currency",
          "type": "tuple"
        }
      ],
      "name": "totalFee",
      "outputs": [
        {
          "components": [
            {
              "name": "nonce",
              "type": "uint256"
            },
            {
              "name": "amount",
              "type": "int256"
            }
          ],
          "name": "",
          "type": "tuple"
        }
      ],
      "payable": false,
      "stateMutability": "view",
      "type": "function"
    },
    {
      "constant": false,
      "inputs": [
        {
          "name": "wallet",
          "type": "address"
        },
        {
          "name": "beneficiary",
          "type": "address"
        },
        {
          "name": "destination",
          "type": "address"
        },
        {
          "components": [
            {
              "name": "ct",
              "type": "address"
            },
            {
              "name": "id",
              "type": "uint256"
            }
          ],
          "name": "currency",
          "type": "tuple"
        },
        {
          "components": [
            {
              "name": "nonce",
              "type": "uint256"
            },
            {
              "name": "amount",
              "type": "int256"
            }
          ],
          "name": "_totalFee",
          "type": "tuple"
        }
      ],
      "name": "setTotalFee",
      "outputs": [],
      "payable": false,
      "stateMutability": "nonpayable",
      "type": "function"
    }
  ],
  "bytecode": "0x60806040523480156200001157600080fd5b5060405160208062002bda8339810180604052620000339190810190620000b6565b8080600160a060020a03811615156200004b57600080fd5b600160a060020a0381163014156200006257600080fd5b506000805461010060a860020a031916610100600160a060020a039390931692830217905560018054600160a060020a031916909117905550620000eb565b6000620000af8251620000df565b9392505050565b600060208284031215620000c957600080fd5b6000620000d78484620000a1565b949350505050565b600160a060020a031690565b612adf80620000fb6000396000f3006080604052600436106102165763ffffffff60e060020a60003504166308df7dc8811461021b5780630cecc0f814610254578063140643b7146102765780631423ba381461028b57806317ba3f90146102ad5780632738a112146102da5780632b5672e3146102ef5780632b91e0a91461030f5780632f013a001461032f5780633858654b146103445780633b58c501146103715780633b7bea6c146103915780633eff8d54146103a65780633fd6832d146103bb5780634476d23b146103e957806348fcb72c1461040b57806350b08c021461042b578063570ca7351461044b57806359b98fc6146104605780635df1b0a314610475578063670732a7146104955780636b184dff146104aa5780636e17226a146104ca5780636f799b2f146104f757806370327ea11461050c5780637657768c146105215780637e15dd5c146105415780638772531314610561578063897d36aa146105815780638c6913bc146105965780638e8cef12146105ab5780638e9d6cbd146105cb57806392f7bd7b146105e05780639621473514610600578063b3ab15fb14610620578063bf24e7d014610640578063c0ffe1b414610662578063d2f089361461068f578063d5f39488146106af578063d66c5291146106c4578063e02e64ff146106e4578063e86ab8f6146106f9578063e86c7f8d14610719578063e8bec62b14610739578063f345fb4414610759578063fdd9ec7d14610779575b600080fd5b34801561022757600080fd5b5061023b610236366004612539565b610799565b60405161024b9493929190612933565b60405180910390f35b34801561026057600080fd5b506102696108b9565b60405161024b9190612922565b34801561028257600080fd5b506102696108e3565b34801561029757600080fd5b506102ab6102a6366004612373565b61090d565b005b3480156102b957600080fd5b506102cd6102c8366004612149565b6109c0565b60405161024b91906128eb565b3480156102e657600080fd5b506102ab6109f8565b3480156102fb57600080fd5b506102ab61030a3660046122f2565b610a5e565b34801561031b57600080fd5b506102cd61032a366004612149565b610b7e565b34801561033b57600080fd5b506102cd610b9c565b34801561035057600080fd5b5061036461035f366004612343565b610ba5565b60405161024b919061299e565b34801561037d57600080fd5b506102ab61038c3660046122f2565b610bdd565b34801561039d57600080fd5b50610364610cbd565b3480156103b257600080fd5b50610269610cc3565b3480156103c757600080fd5b506103db6103d6366004612167565b610cf3565b60405161024b9291906129ac565b3480156103f557600080fd5b506103fe610d2e565b60405161024b91906127d5565b34801561041757600080fd5b506102ab610426366004612539565b610d43565b34801561043757600080fd5b506102ab610446366004612149565b610dc6565b34801561045757600080fd5b506103fe610e7c565b34801561046c57600080fd5b506102ab610e8b565b34801561048157600080fd5b506102cd6104903660046122f2565b610f67565b3480156104a157600080fd5b506102ab610fb7565b3480156104b657600080fd5b506102cd6104c53660046123e6565b61100b565b3480156104d657600080fd5b506104ea6104e5366004612229565b6110c3565b60405161024b919061296e565b34801561050357600080fd5b50610269611131565b34801561051857600080fd5b506102ab611166565b34801561052d57600080fd5b506102ab61053c36600461228a565b6111c9565b34801561054d57600080fd5b506102ab61055c366004612539565b6112a2565b34801561056d57600080fd5b506102ab61057c36600461249c565b6112ea565b34801561058d57600080fd5b506103646115b2565b3480156105a257600080fd5b506103646115b8565b3480156105b757600080fd5b506102ab6105c6366004612149565b6115be565b3480156105d757600080fd5b506102cd61163c565b3480156105ec57600080fd5b506103646105fb3660046123b6565b61164c565b34801561060c57600080fd5b506102ab61061b366004612149565b61167c565b34801561062c57600080fd5b506102ab61063b366004612149565b611743565b34801561064c57600080fd5b506106556117ed565b60405161024b91906128f9565b34801561066e57600080fd5b5061068261067d3660046123b6565b6117fc565b60405161024b919061297c565b34801561069b57600080fd5b506106826106aa3660046123b6565b611995565b3480156106bb57600080fd5b506103fe611a02565b3480156106d057600080fd5b506103646106df3660046123b6565b611a16565b3480156106f057600080fd5b50610269611a33565b34801561070557600080fd5b506102ab61071436600461247e565b611a5f565b34801561072557600080fd5b506102ab610734366004612429565b611b1e565b34801561074557600080fd5b506103646107543660046121dc565b611c6e565b34801561076557600080fd5b50610364610774366004612149565b611c91565b34801561078557600080fd5b506102ab610794366004612149565b611cac565b60068054829081106107a757fe5b60009182526020918290206006919091020180546040805160026001841615610100026000190190931692909204601f8101859004850283018501909152808252919350918391908301828280156108405780601f1061081557610100808354040283529160200191610840565b820191906000526020600020905b81548152906001019060200180831161082357829003601f168201915b50505060018401546040805160608181018352600288015482526003880154600160a060020a0380821660208086019190915260ff60a060020a9384900481161515868801528651948501875260048c015485526005909b01549182169084015204909716151591870191909152939490939250905084565b60408051808201909152600d8152609860020a6c7365745f6d61785f6e6f6e636502602082015281565b60408051808201909152600d8152609a60020a6c1cd95d17d9995957dd1bdd185b02602082015281565b60408051808201909152600d8152609860020a6c7365745f6d61785f6e6f6e636502602082015261093e3382610f67565b151561094957600080fd5b600160a060020a038085166000908152600960209081526040808320875190941683529281528282208682015183529052819020839055517f627686b1b476427bcfe4120b0777072ab5c48442194270d02480b3c6373459ac906109b29086908690869061286a565b60405180910390a150505050565b60006109cb82610b7e565b80156109f25750600160a060020a0382166000908152600260205260409020600101544210155b92915050565b33610a01610d2e565b600160a060020a031614610a1457600080fd5b60005460ff1615610a2457600080fd5b7f787a5d936e74f4b564b9153575886059829c78cd9927b1be5e0d976b317ef73633604051610a5391906127d5565b60405180910390a133ff5b6000610a68611d25565b1515610a7357600080fd5b82600160a060020a0381161515610a8957600080fd5b600160a060020a038116301415610a9f57600080fd5b600160a060020a03841660009081526002602052604090205460ff161515610ac657600080fd5b610acf83611d3b565b600160a060020a0385166000908152600260208181526040808420858552909201905290205490925060ff1615610b0557600080fd5b600160a060020a03841660009081526002602081815260408084208685528084018352818520805460ff19166001908117909155938352600301805493840181558452922001839055517fec1b982d69bfc1a6fd8becf191d9a633486c822d3bdedd52303ca81fa6357501906109b2908690869061284a565b600160a060020a031660009081526002602052604090205460ff1690565b60005460ff1681565b600160a060020a0391821660009081526009602090815260408083208451909516835293815283822092810151825291909152205490565b6000610be7611d25565b1515610bf257600080fd5b82600160a060020a0381161515610c0857600080fd5b600160a060020a038116301415610c1e57600080fd5b610c2783611d3b565b600160a060020a0385166000908152600260208181526040808420858552909201905290205490925060ff161515610c5e57600080fd5b600160a060020a0384166000908152600260208181526040808420868552909201905290819020805460ff19169055517f92f4af6130f47c92f3899e06611c8c6ef191fb81207ad2675d134af619d2fe7d906109b2908690869061284a565b60035481565b6040805180820190915260138152606860020a727365745f6d61785f64726969705f6e6f6e636502602082015281565b600a60209081526000958652604080872082529486528486208152928552838520835290845282842090915282529020805460019091015482565b6000546101009004600160a060020a03165b90565b6040805180820190915260138152606860020a727365745f6d61785f64726969705f6e6f6e6365026020820152610d7a3382610f67565b1515610d8557600080fd5b60058290556040517f607ebe6526c3328a14ea38202c645ae095a940a573ddbb4e33fee15f7ca6d85690610dba90849061299e565b60405180910390a15050565b610dce611d25565b1515610dd957600080fd5b80600160a060020a0381161515610def57600080fd5b600160a060020a038116301415610e0557600080fd5b600160a060020a03821660009081526002602052604090205460ff161515610e2c57600080fd5b600160a060020a03821660009081526002602052604090819020805460ff19169055517f777645c5437dfbf962f57a281ead25f3d513f2f8e938685bbfc1738e81c9880e90610dba9084906127d5565b600154600160a060020a031681565b6000600460009054906101000a9004600160a060020a0316600160a060020a0316631f3440706040518163ffffffff1660e060020a028152600401602060405180830381600087803b158015610ee057600080fd5b505af1158015610ef4573d6000803e3d6000fd5b505050506040513d601f19601f82011682018060405250610f189190810190612557565b9050801515610f2657610f64565b60058190556040517f1c463c35635486ad6f481890d5677de7451f41b144cd4537816edf7eb4974fcd90610f5b90839061299e565b60405180910390a15b50565b600080610f7383611d3b565b9050610f7e846109c0565b8015610faf5750600160a060020a0384166000908152600260208181526040808420858552909201905290205460ff165b949350505050565b610fbf611d25565b1515610fca57600080fd5b6004805460a060020a60ff02191660a060020a1790556040517fc1668d45f18667fb6eadfbcacfd5cdcc7dd4ecdfc9b0ab8786cfdbad86bb83d890600090a1565b600160a060020a038316600090815260086020908152604080832085845290915281205480151561103f57600091506110bb565b82600181111561104b57fe5b15156110885760068054600019830190811061106357fe5b600091825260209091206006909102016003015460a060020a900460ff1691506110bb565b60068054600019830190811061109a57fe5b600091825260209091206006909102016005015460a060020a900460ff1691505b509392505050565b6110cb611e68565b50600160a060020a038085166000908152600a602090815260408083208785168452825280832086851684528252808320855190941683529281528282208482015183528152908290208251808401909352805483526001015490820152949350505050565b6040805180820190915260188152604060020a777365745f736574746c656d656e745f726f6c655f646f6e6502602082015281565b3361116f610d2e565b600160a060020a03161461118257600080fd5b6000805460ff191660011790556040517fd5a2a04a775c741c2ca0dc46ea7ce4835190e1aaf1ca018def0e82568ec33616906111bf9033906127d5565b60405180910390a1565b60408051808201909152600d8152609a60020a6c1cd95d17d9995957dd1bdd185b0260208201526111fa3382610f67565b151561120557600080fd5b600160a060020a038087166000908152600a602090815260408083208985168452825280832088851684528252808320875190941683529281528282208682015183528152908290208451815590840151600190910155517fe24c740101e0ba8b832059dd9b953f20bbfc1011bf8cb2d6e9a6f67ad7a1194a9061129290889088908890889088906127fe565b60405180910390a1505050505050565b6112aa611d25565b15156112b557600080fd5b60038190556040517f4f1d324a1cbffc352fb64f1d73d95e4b200d92f99ef39bf2d7f5b41f946909d690610f5b90839061299e565b60006040805190810160405280600f8152602001608a60020a6e1a5b9a5d17dcd95d1d1b195b595b9d028152506113213382610f67565b151561132c57600080fd5b600160a060020a038616600090815260086020908152604080832088845290915290205415801561137e5750600160a060020a0384166000908152600860209081526040808320868452909152902054155b156115a85760068054906113959060018301611e7f565b506006805460001981019350899190849081106113ae57fe5b906000526020600020906006020160000190805190602001906113d2929190611eab565b50866006838154811015156113e357fe5b906000526020600020906006020160010181600019169055508460068381548110151561140c57fe5b9060005260206000209060060201600201600001819055508560068381548110151561143457fe5b906000526020600020906006020160020160010160006101000a815481600160a060020a030219169083600160a060020a031602179055508260068381548110151561147c57fe5b906000526020600020906006020160040160000181905550836006838154811015156114a457fe5b906000526020600020906006020160040160010160006101000a815481600160a060020a030219169083600160a060020a031602179055507fb764ccf95fe193f9814713113888108602d385b1734ada12a3cefe82df31237160068381548110151561150c57fe5b9060005260206000209060060201604051611527919061298d565b60405180910390a1600160a060020a038087166000818152600760209081526040808320805460018181018355918552838520988201980188905594891680845281842080549687018155845282842090950187905592825260088082528383208a8452825283832087905593825292835281812086825290925290208290555b5050505050505050565b60055481565b60065490565b6115c6611d25565b15156115d157600080fd5b80600160a060020a03811615156115e757600080fd5b600160a060020a0381163014156115fd57600080fd5b61160982600354611e05565b7f7f3a8349917003ed377f6e9ae1608b92edd893903f8983bd274b1f8373dd3b1182600354604051610dba929190612892565b60045460a060020a900460ff1681565b60076020528160005260406000208181548110151561166757fe5b90600052602060002001600091509150505481565b6000611686611d25565b151561169157600080fd5b81600160a060020a03811615156116a757600080fd5b600160a060020a0381163014156116bd57600080fd5b600054600160a060020a03848116610100909204161461173e5760008054600160a060020a0385811661010090810261010060a860020a0319841617909355604051929091041692507f977e5fa58e458501775e0008d275006294c5249e3c08d1d0e3a9f3acad14f6e49061173590849086906127e3565b60405180910390a15b505050565b600061174d611e57565b151561175857600080fd5b81600160a060020a038116151561176e57600080fd5b600160a060020a03811630141561178457600080fd5b600154600160a060020a0384811691161461173e5760018054600160a060020a03858116600160a060020a0319831617909255604051911692507f9f611b789425d0d5b90b920f1b2852907dd865c80074a30b1629aaa041d1812c9061173590849086906127e3565b600454600160a060020a031681565b611804611f29565b600160a060020a038316600090815260076020526040902054821061182857600080fd5b600160a060020a038316600090815260076020526040902080546006916001918590811061185257fe5b90600052602060002001540381548110151561186a57fe5b600091825260209182902060408051600693909302909101805460026001821615610100026000190190911604601f8101859004909402830160a0908101909252608083018481529293909284929091849184018282801561190d5780601f106118e25761010080835404028352916020019161190d565b820191906000526020600020905b8154815290600101906020018083116118f057829003601f168201915b505050918352505060018201546020808301919091526040805160608181018352600286015482526003860154600160a060020a038082168487015260ff60a060020a92839004811615158587015285880194909452845180840186526004890154815260059098015490811695880195909552909304161515908401520152905092915050565b61199d611f29565b600160a060020a0383166000908152600860209081526040808320858452909152812054116119cb57600080fd5b600160a060020a03831660009081526008602090815260408083208584529091529020546006805490916000190190811061186a57fe5b6000546101009004600160a060020a031681565b600860209081526000928352604080842090915290825290205481565b60408051808201909152600f8152608a60020a6e1a5b9a5d17dcd95d1d1b195b595b9d02602082015281565b6000611a69611d25565b1515611a7457600080fd5b81600160a060020a0381161515611a8a57600080fd5b6004548390600160a060020a039081169082168114611b175760045460a060020a900460ff1615611aba57600080fd5b60048054600160a060020a03878116600160a060020a0319831617909255604051911694507f624c4d4225a45f5bf8a9755adba1ef9be3464a9970b05a371fb6cca0c0caf20490611b0e9086908890612907565b60405180910390a15b5050505050565b6000604080519081016040528060188152602001604060020a777365745f736574746c656d656e745f726f6c655f646f6e6502815250611b5e3382610f67565b1515611b6957600080fd5b600160a060020a03861660009081526008602090815260408083208884529091529020549150811515611b9b57600080fd5b836001811115611ba757fe5b1515611bf55782600660018403815481101515611bc057fe5b60009182526020909120600360069092020101805491151560a060020a0260a060020a60ff0219909216919091179055611c39565b82600660018403815481101515611c0857fe5b60009182526020909120600560069092020101805491151560a060020a0260a060020a60ff02199092169190911790555b7fd683d3f38cc2dd7376530d4997bef52da59fd5521a30046db218bb81057d18748686868660405161129294939291906128ad565b600960209081526000938452604080852082529284528284209052825290205481565b600160a060020a031660009081526007602052604090205490565b611cb4611d25565b1515611cbf57600080fd5b80600160a060020a0381161515611cd557600080fd5b600160a060020a038116301415611ceb57600080fd5b611cf6826000611e05565b7fb619d545cb511bd5f02907a1eac4f4cb8dace7b1846852fb0bf5e553937481c182604051610dba91906127d5565b6000546101009004600160a060020a0316331490565b6000816040516020018082805190602001908083835b60208310611d705780518252601f199092019160209182019101611d51565b6001836020036101000a0380198251168184511680821785525050505050509050019150506040516020818303038152906040526040518082805190602001908083835b60208310611dd35780518252601f199092019160209182019101611db4565b5181516020939093036101000a6000190180199091169216919091179052604051920182900390912095945050505050565b600160a060020a03821660009081526002602052604090205460ff161515611e5357600160a060020a0382166000908152600260205260409020805460ff1916600190811782554283019101555b5050565b600154600160a060020a0316331490565b604080518082019091526000808252602082015290565b81548183558181111561173e5760060281600602836000526020600020918201910161173e9190611f5c565b828054600181600116156101000203166002900490600052602060002090601f016020900481019282601f10611eec57805160ff1916838001178555611f19565b82800160010185558215611f19579182015b82811115611f19578251825591602001919060010190611efe565b50611f25929150611fb7565b5090565b60408051610100810182526060815260006020820152908101611f4a611fd1565b8152602001611f57611fd1565b905290565b610d4091905b80821115611f25576000611f768282611ff1565b5060006001820181905560028201819055600382018054600160a860020a031990811690915560048301919091556005820180549091169055600601611f62565b610d4091905b80821115611f255760008155600101611fbd565b604080516060810182526000808252602082018190529181019190915290565b50805460018160011615610100020316600290046000825580601f106120175750610f64565b601f016020900490600052602060002090810190610f649190611fb7565b60006120418235612a17565b9392505050565b60006120418235612a23565b60006120418235610d40565b60006120418235612a34565b60006120418235612a3f565b6000601f8201831361208957600080fd5b813561209c612097826129e0565b6129ba565b915080825260208301602083018583830111156120b857600080fd5b6120c3838284612a59565b50505092915050565b6000604082840312156120de57600080fd5b6120e860406129ba565b905060006120f68484612035565b825250602061210784848301612054565b60208301525092915050565b60006040828403121561212557600080fd5b61212f60406129ba565b905060006120f68484612054565b60006120418251610d40565b60006020828403121561215b57600080fd5b6000610faf8484612035565b600080600080600060a0868803121561217f57600080fd5b600061218b8888612035565b955050602061219c88828901612035565b94505060406121ad88828901612035565b93505060606121be88828901612035565b92505060806121cf88828901612054565b9150509295509295909350565b6000806000606084860312156121f157600080fd5b60006121fd8686612035565b935050602061220e86828701612035565b925050604061221f86828701612054565b9150509250925092565b60008060008060a0858703121561223f57600080fd5b600061224b8787612035565b945050602061225c87828801612060565b935050604061226d87828801612035565b925050606061227e878288016120cc565b91505092959194509250565b600080600080600060e086880312156122a257600080fd5b60006122ae8888612035565b95505060206122bf88828901612060565b94505060406122d088828901612035565b93505060606122e1888289016120cc565b92505060a06121cf88828901612113565b6000806040838503121561230557600080fd5b60006123118585612035565b92505060208301356001604060020a0381111561232d57600080fd5b61233985828601612078565b9150509250929050565b6000806060838503121561235657600080fd5b60006123628585612035565b9250506020612339858286016120cc565b60008060006080848603121561238857600080fd5b60006123948686612035565b93505060206123a5868287016120cc565b925050606061221f86828701612054565b600080604083850312156123c957600080fd5b60006123d58585612035565b925050602061233985828601612054565b6000806000606084860312156123fb57600080fd5b60006124078686612035565b935050602061241886828701612054565b925050604061221f8682870161206c565b6000806000806080858703121561243f57600080fd5b600061244b8787612035565b945050602061245c87828801612054565b935050604061246d8782880161206c565b925050606061227e87828801612048565b60006020828403121561249057600080fd5b6000610faf8484612060565b60008060008060008060c087890312156124b557600080fd5b86356001604060020a038111156124cb57600080fd5b6124d789828a01612078565b96505060206124e889828a01612054565b95505060406124f989828a01612035565b945050606061250a89828a01612054565b935050608061251b89828a01612035565b92505060a061252c89828a01612054565b9150509295509295509295565b60006020828403121561254b57600080fd5b6000610faf8484612054565b60006020828403121561256957600080fd5b6000610faf848461213d565b61257e81612a17565b82525050565b61257e81612a23565b61257e81610d40565b61257e81612a34565b61257e81612a4e565b60006125b382612a13565b8084526125c7816020860160208601612a65565b6125d081612a91565b9093016020019392505050565b6000815460018116600081146125fa576001811461261857612654565b60028204607f16855260ff1982166020860152604085019250612654565b6002820480865260208601955061262e85612a07565b60005b8281101561264d57815488820152600190910190602001612631565b8701945050505b505092915050565b8051604083019061266d8482612575565b506020820151612680602085018261258d565b50505050565b8051604083019061266d848261258d565b805160608301906126a8848261258d565b5060208201516126bb6020850182612575565b5060408201516126806040850182612584565b805460608301906126de81610d40565b6126e8858261258d565b505060018201546126f881610d40565b6127056020860182612575565b5061270f81612a9b565b611b176040860182612584565b80516101008084526000919084019061273582826125a8565b915050602083015161274a602086018261258d565b50604083015161275d6040860182612697565b5060608301516110bb60a0860182612697565b6101008083526000908301818361278783826125dd565b9250506001840154905061279a81610d40565b6127a7602087018261258d565b50600284016127b960408701826126ce565b50600484016127cb60a08701826126ce565b5090949350505050565b602081016109f28284612575565b604081016127f18285612575565b6120416020830184612575565b60e0810161280c8288612575565b6128196020830187612596565b6128266040830186612575565b612833606083018561265c565b61284060a0830184612686565b9695505050505050565b604081016128588285612575565b8181036020830152610faf81846125a8565b608081016128788286612575565b612885602083018561265c565b610faf606083018461258d565b604081016128a08285612575565b612041602083018461258d565b608081016128bb8287612575565b6128c8602083018661258d565b6128d5604083018561259f565b6128e26060830184612584565b95945050505050565b602081016109f28284612584565b602081016109f28284612596565b604081016129158285612596565b6120416020830184612596565b6020808252810161204181846125a8565b610100808252810161294581876125a8565b9050612954602083018661258d565b6129616040830185612697565b6128e260a0830184612697565b604081016109f28284612686565b60208082528101612041818461271c565b602080825281016120418184612770565b602081016109f2828461258d565b604081016128a0828561258d565b6040518181016001604060020a03811182821017156129d857600080fd5b604052919050565b60006001604060020a038211156129f657600080fd5b506020601f91909101601f19160190565b60009081526020902090565b5190565b600160a060020a031690565b151590565b600060028210611f2557fe5b60006109f282612a17565b600060028210611f2557600080fd5b60006109f282612a28565b82818337506000910152565b60005b83811015612a80578181015183820152602001612a68565b838111156126805750506000910152565b601f01601f191690565b60a060020a9004905600a265627a7a72305820cf20968eff338a3e11ae9076c00522cd6470af9fd24fdc82a7f6d5d26846ddbd6c6578706572696d656e74616cf50037",
  "source": "/*\n * Hubii Nahmii\n *\n * Compliant with the Hubii Nahmii specification v0.12.\n *\n * Copyright (C) 2017-2018 Hubii AS\n */\n\npragma solidity ^0.4.25;\npragma experimental ABIEncoderV2;\n\nimport {Ownable} from \"./Ownable.sol\";\nimport {Servable} from \"./Servable.sol\";\nimport {CommunityVotable} from \"./CommunityVotable.sol\";\nimport {RevenueFund} from \"./RevenueFund.sol\";\nimport {PartnerFund} from \"./PartnerFund.sol\";\nimport {Beneficiary} from \"./Beneficiary.sol\";\nimport {SafeMathIntLib} from \"./SafeMathIntLib.sol\";\nimport {SafeMathUintLib} from \"./SafeMathUintLib.sol\";\nimport {MonetaryTypesLib} from \"./MonetaryTypesLib.sol\";\nimport {NahmiiTypesLib} from \"./NahmiiTypesLib.sol\";\nimport {DriipSettlementTypesLib} from \"./DriipSettlementTypesLib.sol\";\n\n/**\n * @title DriipSettlementState\n * @notice Where driip settlement state is managed\n */\ncontract DriipSettlementState is Ownable, Servable, CommunityVotable {\n    using SafeMathIntLib for int256;\n    using SafeMathUintLib for uint256;\n\n    //\n    // Constants\n    // -----------------------------------------------------------------------------------------------------------------\n    string constant public INIT_SETTLEMENT_ACTION = \"init_settlement\";\n    string constant public SET_SETTLEMENT_ROLE_DONE_ACTION = \"set_settlement_role_done\";\n    string constant public SET_MAX_NONCE_ACTION = \"set_max_nonce\";\n    string constant public SET_MAX_DRIIP_NONCE_ACTION = \"set_max_driip_nonce\";\n    string constant public SET_FEE_TOTAL_ACTION = \"set_fee_total\";\n\n    //\n    // Variables\n    // -----------------------------------------------------------------------------------------------------------------\n    uint256 public maxDriipNonce;\n\n    DriipSettlementTypesLib.Settlement[] public settlements;\n    mapping(address => uint256[]) public walletSettlementIndices;\n    mapping(address => mapping(uint256 => uint256)) public walletNonceSettlementIndex;\n    mapping(address => mapping(address => mapping(uint256 => uint256))) public walletCurrencyMaxNonce;\n\n    mapping(address => mapping(address => mapping(address => mapping(address => mapping(uint256 => MonetaryTypesLib.NoncedAmount))))) public totalFeesMap;\n\n    //\n    // Events\n    // -----------------------------------------------------------------------------------------------------------------\n    event InitSettlementEvent(DriipSettlementTypesLib.Settlement settlement);\n    event SetSettlementRoleDoneEvent(address wallet, uint256 nonce,\n        DriipSettlementTypesLib.SettlementRole settlementRole, bool done);\n    event SetMaxNonceByWalletAndCurrencyEvent(address wallet, MonetaryTypesLib.Currency currency,\n        uint256 maxNonce);\n    event SetMaxDriipNonceEvent(uint256 maxDriipNonce);\n    event UpdateMaxDriipNonceFromCommunityVoteEvent(uint256 maxDriipNonce);\n    event SetTotalFeeEvent(address wallet, Beneficiary beneficiary, address destination,\n        MonetaryTypesLib.Currency currency, MonetaryTypesLib.NoncedAmount totalFee);\n\n    //\n    // Constructor\n    // -----------------------------------------------------------------------------------------------------------------\n    constructor(address deployer) Ownable(deployer) public {\n    }\n\n    //\n    // Functions\n    // -----------------------------------------------------------------------------------------------------------------\n    /// @notice Get the count of settlements\n    function settlementsCount()\n    public\n    view\n    returns (uint256)\n    {\n        return settlements.length;\n    }\n\n    /// @notice Get the count of settlements for given wallet\n    /// @param wallet The address for which to return settlement count\n    /// @return count of settlements for the provided wallet\n    function settlementsCountByWallet(address wallet)\n    public\n    view\n    returns (uint256)\n    {\n        return walletSettlementIndices[wallet].length;\n    }\n\n    /// @notice Get settlement of given wallet and index\n    /// @param wallet The address for which to return settlement\n    /// @param index The wallet's settlement index\n    /// @return settlement for the provided wallet and index\n    function settlementByWalletAndIndex(address wallet, uint256 index)\n    public\n    view\n    returns (DriipSettlementTypesLib.Settlement)\n    {\n        require(walletSettlementIndices[wallet].length > index);\n        return settlements[walletSettlementIndices[wallet][index] - 1];\n    }\n\n    /// @notice Get settlement of given wallet and wallet nonce\n    /// @param wallet The address for which to return settlement\n    /// @param nonce The wallet's nonce\n    /// @return settlement for the provided wallet and index\n    function settlementByWalletAndNonce(address wallet, uint256 nonce)\n    public\n    view\n    returns (DriipSettlementTypesLib.Settlement)\n    {\n        require(0 < walletNonceSettlementIndex[wallet][nonce]);\n        return settlements[walletNonceSettlementIndex[wallet][nonce] - 1];\n    }\n\n    /// @notice Initialize settlement, i.e. create one if no such settlement exists\n    /// for the double pair of wallets and nonces\n    /// @param settledKind The kind of driip of the settlement\n    /// @param settledHash The hash of driip of the settlement\n    /// @param originWallet The address of the origin wallet\n    /// @param originNonce The wallet nonce of the origin wallet\n    /// @param targetWallet The address of the target wallet\n    /// @param targetNonce The wallet nonce of the target wallet\n    function initSettlement(string settledKind, bytes32 settledHash, address originWallet,\n        uint256 originNonce, address targetWallet, uint256 targetNonce)\n    public\n    onlyEnabledServiceAction(INIT_SETTLEMENT_ACTION)\n    {\n        if (\n            0 == walletNonceSettlementIndex[originWallet][originNonce] &&\n            0 == walletNonceSettlementIndex[targetWallet][targetNonce]\n        ) {\n            // Create new settlement\n            settlements.length++;\n\n            // Get the 0-based index\n            uint256 index = settlements.length - 1;\n\n            // Update settlement\n            settlements[index].settledKind = settledKind;\n            settlements[index].settledHash = settledHash;\n            settlements[index].origin.nonce = originNonce;\n            settlements[index].origin.wallet = originWallet;\n            settlements[index].target.nonce = targetNonce;\n            settlements[index].target.wallet = targetWallet;\n\n            // Emit event\n            emit InitSettlementEvent(settlements[index]);\n\n            // Store 1-based index value\n            index++;\n            walletSettlementIndices[originWallet].push(index);\n            walletSettlementIndices[targetWallet].push(index);\n            walletNonceSettlementIndex[originWallet][originNonce] = index;\n            walletNonceSettlementIndex[targetWallet][targetNonce] = index;\n        }\n    }\n\n    /// @notice Gauge whether the settlement is done wrt the given settlement role\n    /// @param wallet The address of the concerned wallet\n    /// @param nonce The nonce of the concerned wallet\n    /// @param settlementRole The settlement role\n    /// @return True if settlement is done for role, else false\n    function isSettlementRoleDone(address wallet, uint256 nonce,\n        DriipSettlementTypesLib.SettlementRole settlementRole)\n    public\n    view\n    returns (bool)\n    {\n        // Get the 1-based index of the settlement\n        uint256 index = walletNonceSettlementIndex[wallet][nonce];\n\n        // Return false if settlement does not exist\n        if (0 == index)\n            return false;\n\n        // Return done of settlement role\n        if (DriipSettlementTypesLib.SettlementRole.Origin == settlementRole)\n            return settlements[index - 1].origin.done;\n        else // DriipSettlementTypesLib.SettlementRole.Target == settlementRole\n            return settlements[index - 1].target.done;\n    }\n\n    /// @notice Set the done of the given settlement role in the given settlement\n    /// @param wallet The address of the concerned wallet\n    /// @param nonce The nonce of the concerned wallet\n    /// @param settlementRole The settlement role\n    /// @param done The done flag\n    function setSettlementRoleDone(address wallet, uint256 nonce,\n        DriipSettlementTypesLib.SettlementRole settlementRole, bool done)\n    public\n    onlyEnabledServiceAction(SET_SETTLEMENT_ROLE_DONE_ACTION)\n    {\n        // Get the 1-based index of the settlement\n        uint256 index = walletNonceSettlementIndex[wallet][nonce];\n\n        // Require the existence of settlement\n        require(0 != index);\n\n        // Update the settlement role done value\n        if (DriipSettlementTypesLib.SettlementRole.Origin == settlementRole)\n            settlements[index - 1].origin.done = done;\n        else // DriipSettlementTypesLib.SettlementRole.Target == settlementRole\n            settlements[index - 1].target.done = done;\n\n        // Emit event\n        emit SetSettlementRoleDoneEvent(wallet, nonce, settlementRole, done);\n    }\n\n    /// @notice Set the max (driip) nonce\n    /// @param _maxDriipNonce The max nonce\n    function setMaxDriipNonce(uint256 _maxDriipNonce)\n    public\n    onlyEnabledServiceAction(SET_MAX_DRIIP_NONCE_ACTION)\n    {\n        maxDriipNonce = _maxDriipNonce;\n\n        // Emit event\n        emit SetMaxDriipNonceEvent(maxDriipNonce);\n    }\n\n    /// @notice Update the max driip nonce property from CommunityVote contract\n    function updateMaxDriipNonceFromCommunityVote()\n    public\n    {\n        uint256 _maxDriipNonce = communityVote.getMaxDriipNonce();\n        if (0 == _maxDriipNonce)\n            return;\n\n        maxDriipNonce = _maxDriipNonce;\n\n        // Emit event\n        emit UpdateMaxDriipNonceFromCommunityVoteEvent(maxDriipNonce);\n    }\n\n    /// @notice Get the max nonce of the given wallet and currency\n    /// @param wallet The address of the concerned wallet\n    /// @param currency The concerned currency\n    /// @return The max nonce\n    function maxNonceByWalletAndCurrency(address wallet, MonetaryTypesLib.Currency currency)\n    public\n    view\n    returns (uint256)\n    {\n        return walletCurrencyMaxNonce[wallet][currency.ct][currency.id];\n    }\n\n    /// @notice Set the max nonce of the given wallet and currency\n    /// @param wallet The address of the concerned wallet\n    /// @param currency The concerned currency\n    /// @param maxNonce The max nonce\n    function setMaxNonceByWalletAndCurrency(address wallet, MonetaryTypesLib.Currency currency,\n        uint256 maxNonce)\n    public\n    onlyEnabledServiceAction(SET_MAX_NONCE_ACTION)\n    {\n        // Update max nonce value\n        walletCurrencyMaxNonce[wallet][currency.ct][currency.id] = maxNonce;\n\n        // Emit event\n        emit SetMaxNonceByWalletAndCurrencyEvent(wallet, currency, maxNonce);\n    }\n\n    /// @notice Get the total fee payed by the given wallet to the given beneficiary and destination\n    /// in the given currency\n    /// @param wallet The address of the concerned wallet\n    /// @param beneficiary The concerned beneficiary\n    /// @param destination The concerned destination\n    /// @param currency The concerned currency\n    /// @return The total fee\n    function totalFee(address wallet, Beneficiary beneficiary, address destination,\n        MonetaryTypesLib.Currency currency)\n    public\n    view\n    returns (MonetaryTypesLib.NoncedAmount)\n    {\n        return totalFeesMap[wallet][address(beneficiary)][destination][currency.ct][currency.id];\n    }\n\n    /// @notice Set the total fee payed by the given wallet to the given beneficiary and destination\n    /// in the given currency\n    /// @param wallet The address of the concerned wallet\n    /// @param beneficiary The concerned beneficiary\n    /// @param destination The concerned destination\n    /// @param _totalFee The total fee\n    function setTotalFee(address wallet, Beneficiary beneficiary, address destination,\n        MonetaryTypesLib.Currency currency, MonetaryTypesLib.NoncedAmount _totalFee)\n    public\n    onlyEnabledServiceAction(SET_FEE_TOTAL_ACTION)\n    {\n        // Update total fees value\n        totalFeesMap[wallet][address(beneficiary)][destination][currency.ct][currency.id] = _totalFee;\n\n        // Emit event\n        emit SetTotalFeeEvent(wallet, beneficiary, destination, currency, _totalFee);\n    }\n}",
  "sourcePath": "/opt/buildagent/work/855e104608380c36/contracts/DriipSettlementState.sol",
  "compiler": {
    "name": "solc",
    "version": "0.4.25+commit.59dbf8f1.Emscripten.clang"
  },
  "schemaVersion": "2.0.2",
  "updatedAt": "2019-04-18T00:23:49.609Z"
}