{
  "contractName": "DriipSettlementByTrade",
  "abi": [
    {
      "constant": false,
      "inputs": [
        {
          "name": "newFraudChallenge",
          "type": "address"
        }
      ],
      "name": "setFraudChallenge",
      "outputs": [],
      "payable": false,
      "stateMutability": "nonpayable",
      "type": "function"
    },
    {
      "constant": false,
      "inputs": [
        {
          "name": "newValidator",
          "type": "address"
        }
      ],
      "name": "setValidator",
      "outputs": [],
      "payable": false,
      "stateMutability": "nonpayable",
      "type": "function"
    },
    {
      "constant": true,
      "inputs": [],
      "name": "walletLockerFrozen",
      "outputs": [
        {
          "name": "",
          "type": "bool"
        }
      ],
      "payable": false,
      "stateMutability": "view",
      "type": "function"
    },
    {
      "constant": true,
      "inputs": [],
      "name": "driipSettlementState",
      "outputs": [
        {
          "name": "",
          "type": "address"
        }
      ],
      "payable": false,
      "stateMutability": "view",
      "type": "function"
    },
    {
      "constant": false,
      "inputs": [],
      "name": "triggerSelfDestruction",
      "outputs": [],
      "payable": false,
      "stateMutability": "nonpayable",
      "type": "function"
    },
    {
      "constant": true,
      "inputs": [],
      "name": "selfDestructionDisabled",
      "outputs": [
        {
          "name": "",
          "type": "bool"
        }
      ],
      "payable": false,
      "stateMutability": "view",
      "type": "function"
    },
    {
      "constant": true,
      "inputs": [],
      "name": "validator",
      "outputs": [
        {
          "name": "",
          "type": "address"
        }
      ],
      "payable": false,
      "stateMutability": "view",
      "type": "function"
    },
    {
      "constant": true,
      "inputs": [],
      "name": "fraudChallenge",
      "outputs": [
        {
          "name": "",
          "type": "address"
        }
      ],
      "payable": false,
      "stateMutability": "view",
      "type": "function"
    },
    {
      "constant": true,
      "inputs": [],
      "name": "destructor",
      "outputs": [
        {
          "name": "",
          "type": "address"
        }
      ],
      "payable": false,
      "stateMutability": "view",
      "type": "function"
    },
    {
      "constant": true,
      "inputs": [],
      "name": "driipSettlementChallengeState",
      "outputs": [
        {
          "name": "",
          "type": "address"
        }
      ],
      "payable": false,
      "stateMutability": "view",
      "type": "function"
    },
    {
      "constant": true,
      "inputs": [],
      "name": "operator",
      "outputs": [
        {
          "name": "",
          "type": "address"
        }
      ],
      "payable": false,
      "stateMutability": "view",
      "type": "function"
    },
    {
      "constant": false,
      "inputs": [],
      "name": "freezeWalletLocker",
      "outputs": [],
      "payable": false,
      "stateMutability": "nonpayable",
      "type": "function"
    },
    {
      "constant": false,
      "inputs": [
        {
          "name": "newConfiguration",
          "type": "address"
        }
      ],
      "name": "setConfiguration",
      "outputs": [],
      "payable": false,
      "stateMutability": "nonpayable",
      "type": "function"
    },
    {
      "constant": false,
      "inputs": [],
      "name": "freezeCommunityVote",
      "outputs": [],
      "payable": false,
      "stateMutability": "nonpayable",
      "type": "function"
    },
    {
      "constant": true,
      "inputs": [],
      "name": "configuration",
      "outputs": [
        {
          "name": "",
          "type": "address"
        }
      ],
      "payable": false,
      "stateMutability": "view",
      "type": "function"
    },
    {
      "constant": false,
      "inputs": [],
      "name": "disableSelfDestruction",
      "outputs": [],
      "payable": false,
      "stateMutability": "nonpayable",
      "type": "function"
    },
    {
      "constant": false,
      "inputs": [
        {
          "name": "newWalletLocker",
          "type": "address"
        }
      ],
      "name": "setWalletLocker",
      "outputs": [],
      "payable": false,
      "stateMutability": "nonpayable",
      "type": "function"
    },
    {
      "constant": true,
      "inputs": [],
      "name": "communityVoteFrozen",
      "outputs": [
        {
          "name": "",
          "type": "bool"
        }
      ],
      "payable": false,
      "stateMutability": "view",
      "type": "function"
    },
    {
      "constant": true,
      "inputs": [],
      "name": "revenueFund",
      "outputs": [
        {
          "name": "",
          "type": "address"
        }
      ],
      "payable": false,
      "stateMutability": "view",
      "type": "function"
    },
    {
      "constant": false,
      "inputs": [
        {
          "name": "newDeployer",
          "type": "address"
        }
      ],
      "name": "setDeployer",
      "outputs": [],
      "payable": false,
      "stateMutability": "nonpayable",
      "type": "function"
    },
    {
      "constant": false,
      "inputs": [
        {
          "name": "newOperator",
          "type": "address"
        }
      ],
      "name": "setOperator",
      "outputs": [],
      "payable": false,
      "stateMutability": "nonpayable",
      "type": "function"
    },
    {
      "constant": false,
      "inputs": [
        {
          "name": "newClientFund",
          "type": "address"
        }
      ],
      "name": "setClientFund",
      "outputs": [],
      "payable": false,
      "stateMutability": "nonpayable",
      "type": "function"
    },
    {
      "constant": true,
      "inputs": [],
      "name": "communityVote",
      "outputs": [
        {
          "name": "",
          "type": "address"
        }
      ],
      "payable": false,
      "stateMutability": "view",
      "type": "function"
    },
    {
      "constant": true,
      "inputs": [],
      "name": "deployer",
      "outputs": [
        {
          "name": "",
          "type": "address"
        }
      ],
      "payable": false,
      "stateMutability": "view",
      "type": "function"
    },
    {
      "constant": true,
      "inputs": [],
      "name": "clientFund",
      "outputs": [
        {
          "name": "",
          "type": "address"
        }
      ],
      "payable": false,
      "stateMutability": "view",
      "type": "function"
    },
    {
      "constant": false,
      "inputs": [
        {
          "name": "newCommunityVote",
          "type": "address"
        }
      ],
      "name": "setCommunityVote",
      "outputs": [],
      "payable": false,
      "stateMutability": "nonpayable",
      "type": "function"
    },
    {
      "constant": true,
      "inputs": [],
      "name": "walletLocker",
      "outputs": [
        {
          "name": "",
          "type": "address"
        }
      ],
      "payable": false,
      "stateMutability": "view",
      "type": "function"
    },
    {
      "constant": true,
      "inputs": [],
      "name": "partnerFund",
      "outputs": [
        {
          "name": "",
          "type": "address"
        }
      ],
      "payable": false,
      "stateMutability": "view",
      "type": "function"
    },
    {
      "inputs": [
        {
          "name": "deployer",
          "type": "address"
        }
      ],
      "payable": false,
      "stateMutability": "nonpayable",
      "type": "constructor"
    },
    {
      "anonymous": false,
      "inputs": [
        {
          "indexed": false,
          "name": "wallet",
          "type": "address"
        },
        {
          "components": [
            {
              "name": "nonce",
              "type": "uint256"
            },
            {
              "name": "amount",
              "type": "int256"
            },
            {
              "components": [
                {
                  "components": [
                    {
                      "name": "ct",
                      "type": "address"
                    },
                    {
                      "name": "id",
                      "type": "uint256"
                    }
                  ],
                  "name": "intended",
                  "type": "tuple"
                },
                {
                  "components": [
                    {
                      "name": "ct",
                      "type": "address"
                    },
                    {
                      "name": "id",
                      "type": "uint256"
                    }
                  ],
                  "name": "conjugate",
                  "type": "tuple"
                }
              ],
              "name": "currencies",
              "type": "tuple"
            },
            {
              "name": "rate",
              "type": "int256"
            },
            {
              "components": [
                {
                  "name": "nonce",
                  "type": "uint256"
                },
                {
                  "name": "wallet",
                  "type": "address"
                },
                {
                  "name": "rollingVolume",
                  "type": "uint256"
                },
                {
                  "name": "liquidityRole",
                  "type": "uint8"
                },
                {
                  "components": [
                    {
                      "name": "amount",
                      "type": "int256"
                    },
                    {
                      "components": [
                        {
                          "name": "wallet",
                          "type": "bytes32"
                        },
                        {
                          "name": "operator",
                          "type": "bytes32"
                        }
                      ],
                      "name": "hashes",
                      "type": "tuple"
                    },
                    {
                      "components": [
                        {
                          "name": "current",
                          "type": "int256"
                        },
                        {
                          "name": "previous",
                          "type": "int256"
                        }
                      ],
                      "name": "residuals",
                      "type": "tuple"
                    }
                  ],
                  "name": "order",
                  "type": "tuple"
                },
                {
                  "components": [
                    {
                      "components": [
                        {
                          "name": "current",
                          "type": "int256"
                        },
                        {
                          "name": "previous",
                          "type": "int256"
                        }
                      ],
                      "name": "intended",
                      "type": "tuple"
                    },
                    {
                      "components": [
                        {
                          "name": "current",
                          "type": "int256"
                        },
                        {
                          "name": "previous",
                          "type": "int256"
                        }
                      ],
                      "name": "conjugate",
                      "type": "tuple"
                    }
                  ],
                  "name": "balances",
                  "type": "tuple"
                },
                {
                  "components": [
                    {
                      "components": [
                        {
                          "name": "amount",
                          "type": "int256"
                        },
                        {
                          "components": [
                            {
                              "name": "ct",
                              "type": "address"
                            },
                            {
                              "name": "id",
                              "type": "uint256"
                            }
                          ],
                          "name": "currency",
                          "type": "tuple"
                        }
                      ],
                      "name": "single",
                      "type": "tuple"
                    },
                    {
                      "components": [
                        {
                          "name": "originId",
                          "type": "uint256"
                        },
                        {
                          "components": [
                            {
                              "name": "amount",
                              "type": "int256"
                            },
                            {
                              "components": [
                                {
                                  "name": "ct",
                                  "type": "address"
                                },
                                {
                                  "name": "id",
                                  "type": "uint256"
                                }
                              ],
                              "name": "currency",
                              "type": "tuple"
                            }
                          ],
                          "name": "figure",
                          "type": "tuple"
                        }
                      ],
                      "name": "total",
                      "type": "tuple[]"
                    }
                  ],
                  "name": "fees",
                  "type": "tuple"
                }
              ],
              "name": "buyer",
              "type": "tuple"
            },
            {
              "components": [
                {
                  "name": "nonce",
                  "type": "uint256"
                },
                {
                  "name": "wallet",
                  "type": "address"
                },
                {
                  "name": "rollingVolume",
                  "type": "uint256"
                },
                {
                  "name": "liquidityRole",
                  "type": "uint8"
                },
                {
                  "components": [
                    {
                      "name": "amount",
                      "type": "int256"
                    },
                    {
                      "components": [
                        {
                          "name": "wallet",
                          "type": "bytes32"
                        },
                        {
                          "name": "operator",
                          "type": "bytes32"
                        }
                      ],
                      "name": "hashes",
                      "type": "tuple"
                    },
                    {
                      "components": [
                        {
                          "name": "current",
                          "type": "int256"
                        },
                        {
                          "name": "previous",
                          "type": "int256"
                        }
                      ],
                      "name": "residuals",
                      "type": "tuple"
                    }
                  ],
                  "name": "order",
                  "type": "tuple"
                },
                {
                  "components": [
                    {
                      "components": [
                        {
                          "name": "current",
                          "type": "int256"
                        },
                        {
                          "name": "previous",
                          "type": "int256"
                        }
                      ],
                      "name": "intended",
                      "type": "tuple"
                    },
                    {
                      "components": [
                        {
                          "name": "current",
                          "type": "int256"
                        },
                        {
                          "name": "previous",
                          "type": "int256"
                        }
                      ],
                      "name": "conjugate",
                      "type": "tuple"
                    }
                  ],
                  "name": "balances",
                  "type": "tuple"
                },
                {
                  "components": [
                    {
                      "components": [
                        {
                          "name": "amount",
                          "type": "int256"
                        },
                        {
                          "components": [
                            {
                              "name": "ct",
                              "type": "address"
                            },
                            {
                              "name": "id",
                              "type": "uint256"
                            }
                          ],
                          "name": "currency",
                          "type": "tuple"
                        }
                      ],
                      "name": "single",
                      "type": "tuple"
                    },
                    {
                      "components": [
                        {
                          "name": "originId",
                          "type": "uint256"
                        },
                        {
                          "components": [
                            {
                              "name": "amount",
                              "type": "int256"
                            },
                            {
                              "components": [
                                {
                                  "name": "ct",
                                  "type": "address"
                                },
                                {
                                  "name": "id",
                                  "type": "uint256"
                                }
                              ],
                              "name": "currency",
                              "type": "tuple"
                            }
                          ],
                          "name": "figure",
                          "type": "tuple"
                        }
                      ],
                      "name": "total",
                      "type": "tuple[]"
                    }
                  ],
                  "name": "fees",
                  "type": "tuple"
                }
              ],
              "name": "seller",
              "type": "tuple"
            },
            {
              "components": [
                {
                  "components": [
                    {
                      "name": "single",
                      "type": "int256"
                    },
                    {
                      "name": "total",
                      "type": "int256"
                    }
                  ],
                  "name": "intended",
                  "type": "tuple"
                },
                {
                  "components": [
                    {
                      "name": "single",
                      "type": "int256"
                    },
                    {
                      "name": "total",
                      "type": "int256"
                    }
                  ],
                  "name": "conjugate",
                  "type": "tuple"
                }
              ],
              "name": "transfers",
              "type": "tuple"
            },
            {
              "components": [
                {
                  "name": "hash",
                  "type": "bytes32"
                },
                {
                  "components": [
                    {
                      "name": "r",
                      "type": "bytes32"
                    },
                    {
                      "name": "s",
                      "type": "bytes32"
                    },
                    {
                      "name": "v",
                      "type": "uint8"
                    }
                  ],
                  "name": "signature",
                  "type": "tuple"
                }
              ],
              "name": "seal",
              "type": "tuple"
            },
            {
              "name": "blockNumber",
              "type": "uint256"
            },
            {
              "name": "operatorId",
              "type": "uint256"
            }
          ],
          "indexed": false,
          "name": "trade",
          "type": "tuple"
        }
      ],
      "name": "SettleTradeEvent",
      "type": "event"
    },
    {
      "anonymous": false,
      "inputs": [
        {
          "indexed": false,
          "name": "proxy",
          "type": "address"
        },
        {
          "indexed": false,
          "name": "wallet",
          "type": "address"
        },
        {
          "components": [
            {
              "name": "nonce",
              "type": "uint256"
            },
            {
              "name": "amount",
              "type": "int256"
            },
            {
              "components": [
                {
                  "components": [
                    {
                      "name": "ct",
                      "type": "address"
                    },
                    {
                      "name": "id",
                      "type": "uint256"
                    }
                  ],
                  "name": "intended",
                  "type": "tuple"
                },
                {
                  "components": [
                    {
                      "name": "ct",
                      "type": "address"
                    },
                    {
                      "name": "id",
                      "type": "uint256"
                    }
                  ],
                  "name": "conjugate",
                  "type": "tuple"
                }
              ],
              "name": "currencies",
              "type": "tuple"
            },
            {
              "name": "rate",
              "type": "int256"
            },
            {
              "components": [
                {
                  "name": "nonce",
                  "type": "uint256"
                },
                {
                  "name": "wallet",
                  "type": "address"
                },
                {
                  "name": "rollingVolume",
                  "type": "uint256"
                },
                {
                  "name": "liquidityRole",
                  "type": "uint8"
                },
                {
                  "components": [
                    {
                      "name": "amount",
                      "type": "int256"
                    },
                    {
                      "components": [
                        {
                          "name": "wallet",
                          "type": "bytes32"
                        },
                        {
                          "name": "operator",
                          "type": "bytes32"
                        }
                      ],
                      "name": "hashes",
                      "type": "tuple"
                    },
                    {
                      "components": [
                        {
                          "name": "current",
                          "type": "int256"
                        },
                        {
                          "name": "previous",
                          "type": "int256"
                        }
                      ],
                      "name": "residuals",
                      "type": "tuple"
                    }
                  ],
                  "name": "order",
                  "type": "tuple"
                },
                {
                  "components": [
                    {
                      "components": [
                        {
                          "name": "current",
                          "type": "int256"
                        },
                        {
                          "name": "previous",
                          "type": "int256"
                        }
                      ],
                      "name": "intended",
                      "type": "tuple"
                    },
                    {
                      "components": [
                        {
                          "name": "current",
                          "type": "int256"
                        },
                        {
                          "name": "previous",
                          "type": "int256"
                        }
                      ],
                      "name": "conjugate",
                      "type": "tuple"
                    }
                  ],
                  "name": "balances",
                  "type": "tuple"
                },
                {
                  "components": [
                    {
                      "components": [
                        {
                          "name": "amount",
                          "type": "int256"
                        },
                        {
                          "components": [
                            {
                              "name": "ct",
                              "type": "address"
                            },
                            {
                              "name": "id",
                              "type": "uint256"
                            }
                          ],
                          "name": "currency",
                          "type": "tuple"
                        }
                      ],
                      "name": "single",
                      "type": "tuple"
                    },
                    {
                      "components": [
                        {
                          "name": "originId",
                          "type": "uint256"
                        },
                        {
                          "components": [
                            {
                              "name": "amount",
                              "type": "int256"
                            },
                            {
                              "components": [
                                {
                                  "name": "ct",
                                  "type": "address"
                                },
                                {
                                  "name": "id",
                                  "type": "uint256"
                                }
                              ],
                              "name": "currency",
                              "type": "tuple"
                            }
                          ],
                          "name": "figure",
                          "type": "tuple"
                        }
                      ],
                      "name": "total",
                      "type": "tuple[]"
                    }
                  ],
                  "name": "fees",
                  "type": "tuple"
                }
              ],
              "name": "buyer",
              "type": "tuple"
            },
            {
              "components": [
                {
                  "name": "nonce",
                  "type": "uint256"
                },
                {
                  "name": "wallet",
                  "type": "address"
                },
                {
                  "name": "rollingVolume",
                  "type": "uint256"
                },
                {
                  "name": "liquidityRole",
                  "type": "uint8"
                },
                {
                  "components": [
                    {
                      "name": "amount",
                      "type": "int256"
                    },
                    {
                      "components": [
                        {
                          "name": "wallet",
                          "type": "bytes32"
                        },
                        {
                          "name": "operator",
                          "type": "bytes32"
                        }
                      ],
                      "name": "hashes",
                      "type": "tuple"
                    },
                    {
                      "components": [
                        {
                          "name": "current",
                          "type": "int256"
                        },
                        {
                          "name": "previous",
                          "type": "int256"
                        }
                      ],
                      "name": "residuals",
                      "type": "tuple"
                    }
                  ],
                  "name": "order",
                  "type": "tuple"
                },
                {
                  "components": [
                    {
                      "components": [
                        {
                          "name": "current",
                          "type": "int256"
                        },
                        {
                          "name": "previous",
                          "type": "int256"
                        }
                      ],
                      "name": "intended",
                      "type": "tuple"
                    },
                    {
                      "components": [
                        {
                          "name": "current",
                          "type": "int256"
                        },
                        {
                          "name": "previous",
                          "type": "int256"
                        }
                      ],
                      "name": "conjugate",
                      "type": "tuple"
                    }
                  ],
                  "name": "balances",
                  "type": "tuple"
                },
                {
                  "components": [
                    {
                      "components": [
                        {
                          "name": "amount",
                          "type": "int256"
                        },
                        {
                          "components": [
                            {
                              "name": "ct",
                              "type": "address"
                            },
                            {
                              "name": "id",
                              "type": "uint256"
                            }
                          ],
                          "name": "currency",
                          "type": "tuple"
                        }
                      ],
                      "name": "single",
                      "type": "tuple"
                    },
                    {
                      "components": [
                        {
                          "name": "originId",
                          "type": "uint256"
                        },
                        {
                          "components": [
                            {
                              "name": "amount",
                              "type": "int256"
                            },
                            {
                              "components": [
                                {
                                  "name": "ct",
                                  "type": "address"
                                },
                                {
                                  "name": "id",
                                  "type": "uint256"
                                }
                              ],
                              "name": "currency",
                              "type": "tuple"
                            }
                          ],
                          "name": "figure",
                          "type": "tuple"
                        }
                      ],
                      "name": "total",
                      "type": "tuple[]"
                    }
                  ],
                  "name": "fees",
                  "type": "tuple"
                }
              ],
              "name": "seller",
              "type": "tuple"
            },
            {
              "components": [
                {
                  "components": [
                    {
                      "name": "single",
                      "type": "int256"
                    },
                    {
                      "name": "total",
                      "type": "int256"
                    }
                  ],
                  "name": "intended",
                  "type": "tuple"
                },
                {
                  "components": [
                    {
                      "name": "single",
                      "type": "int256"
                    },
                    {
                      "name": "total",
                      "type": "int256"
                    }
                  ],
                  "name": "conjugate",
                  "type": "tuple"
                }
              ],
              "name": "transfers",
              "type": "tuple"
            },
            {
              "components": [
                {
                  "name": "hash",
                  "type": "bytes32"
                },
                {
                  "components": [
                    {
                      "name": "r",
                      "type": "bytes32"
                    },
                    {
                      "name": "s",
                      "type": "bytes32"
                    },
                    {
                      "name": "v",
                      "type": "uint8"
                    }
                  ],
                  "name": "signature",
                  "type": "tuple"
                }
              ],
              "name": "seal",
              "type": "tuple"
            },
            {
              "name": "blockNumber",
              "type": "uint256"
            },
            {
              "name": "operatorId",
              "type": "uint256"
            }
          ],
          "indexed": false,
          "name": "trade",
          "type": "tuple"
        }
      ],
      "name": "SettleTradeByProxyEvent",
      "type": "event"
    },
    {
      "anonymous": false,
      "inputs": [
        {
          "indexed": false,
          "name": "oldDriipSettlementChallengeState",
          "type": "address"
        },
        {
          "indexed": false,
          "name": "newDriipSettlementChallengeState",
          "type": "address"
        }
      ],
      "name": "SetDriipSettlementChallengeStateEvent",
      "type": "event"
    },
    {
      "anonymous": false,
      "inputs": [
        {
          "indexed": false,
          "name": "oldDriipSettlementState",
          "type": "address"
        },
        {
          "indexed": false,
          "name": "newDriipSettlementState",
          "type": "address"
        }
      ],
      "name": "SetDriipSettlementStateEvent",
      "type": "event"
    },
    {
      "anonymous": false,
      "inputs": [
        {
          "indexed": false,
          "name": "oldRevenueFund",
          "type": "address"
        },
        {
          "indexed": false,
          "name": "newRevenueFund",
          "type": "address"
        }
      ],
      "name": "SetRevenueFundEvent",
      "type": "event"
    },
    {
      "anonymous": false,
      "inputs": [
        {
          "indexed": false,
          "name": "oldPartnerFund",
          "type": "address"
        },
        {
          "indexed": false,
          "name": "newPartnerFund",
          "type": "address"
        }
      ],
      "name": "SetPartnerFundEvent",
      "type": "event"
    },
    {
      "anonymous": false,
      "inputs": [
        {
          "indexed": false,
          "name": "wallet",
          "type": "address"
        },
        {
          "indexed": false,
          "name": "deltaAmount",
          "type": "int256"
        },
        {
          "indexed": false,
          "name": "cumulativeAmount",
          "type": "int256"
        },
        {
          "indexed": false,
          "name": "currencyCt",
          "type": "address"
        },
        {
          "indexed": false,
          "name": "currencyId",
          "type": "uint256"
        }
      ],
      "name": "StageFeesEvent",
      "type": "event"
    },
    {
      "anonymous": false,
      "inputs": [
        {
          "indexed": false,
          "name": "oldWalletLocker",
          "type": "address"
        },
        {
          "indexed": false,
          "name": "newWalletLocker",
          "type": "address"
        }
      ],
      "name": "SetWalletLockerEvent",
      "type": "event"
    },
    {
      "anonymous": false,
      "inputs": [],
      "name": "FreezeWalletLockerEvent",
      "type": "event"
    },
    {
      "anonymous": false,
      "inputs": [
        {
          "indexed": false,
          "name": "oldFraudChallenge",
          "type": "address"
        },
        {
          "indexed": false,
          "name": "newFraudChallenge",
          "type": "address"
        }
      ],
      "name": "SetFraudChallengeEvent",
      "type": "event"
    },
    {
      "anonymous": false,
      "inputs": [
        {
          "indexed": false,
          "name": "oldCommunityVote",
          "type": "address"
        },
        {
          "indexed": false,
          "name": "newCommunityVote",
          "type": "address"
        }
      ],
      "name": "SetCommunityVoteEvent",
      "type": "event"
    },
    {
      "anonymous": false,
      "inputs": [],
      "name": "FreezeCommunityVoteEvent",
      "type": "event"
    },
    {
      "anonymous": false,
      "inputs": [
        {
          "indexed": false,
          "name": "oldClientFund",
          "type": "address"
        },
        {
          "indexed": false,
          "name": "newClientFund",
          "type": "address"
        }
      ],
      "name": "SetClientFundEvent",
      "type": "event"
    },
    {
      "anonymous": false,
      "inputs": [
        {
          "indexed": false,
          "name": "oldValidator",
          "type": "address"
        },
        {
          "indexed": false,
          "name": "newValidator",
          "type": "address"
        }
      ],
      "name": "SetValidatorEvent",
      "type": "event"
    },
    {
      "anonymous": false,
      "inputs": [
        {
          "indexed": false,
          "name": "oldConfiguration",
          "type": "address"
        },
        {
          "indexed": false,
          "name": "newConfiguration",
          "type": "address"
        }
      ],
      "name": "SetConfigurationEvent",
      "type": "event"
    },
    {
      "anonymous": false,
      "inputs": [
        {
          "indexed": false,
          "name": "oldDeployer",
          "type": "address"
        },
        {
          "indexed": false,
          "name": "newDeployer",
          "type": "address"
        }
      ],
      "name": "SetDeployerEvent",
      "type": "event"
    },
    {
      "anonymous": false,
      "inputs": [
        {
          "indexed": false,
          "name": "oldOperator",
          "type": "address"
        },
        {
          "indexed": false,
          "name": "newOperator",
          "type": "address"
        }
      ],
      "name": "SetOperatorEvent",
      "type": "event"
    },
    {
      "anonymous": false,
      "inputs": [
        {
          "indexed": false,
          "name": "wallet",
          "type": "address"
        }
      ],
      "name": "SelfDestructionDisabledEvent",
      "type": "event"
    },
    {
      "anonymous": false,
      "inputs": [
        {
          "indexed": false,
          "name": "wallet",
          "type": "address"
        }
      ],
      "name": "TriggerSelfDestructionEvent",
      "type": "event"
    },
    {
      "constant": false,
      "inputs": [
        {
          "name": "newDriipSettlementChallengeState",
          "type": "address"
        }
      ],
      "name": "setDriipSettlementChallengeState",
      "outputs": [],
      "payable": false,
      "stateMutability": "nonpayable",
      "type": "function"
    },
    {
      "constant": false,
      "inputs": [
        {
          "name": "newDriipSettlementState",
          "type": "address"
        }
      ],
      "name": "setDriipSettlementState",
      "outputs": [],
      "payable": false,
      "stateMutability": "nonpayable",
      "type": "function"
    },
    {
      "constant": false,
      "inputs": [
        {
          "name": "newRevenueFund",
          "type": "address"
        }
      ],
      "name": "setRevenueFund",
      "outputs": [],
      "payable": false,
      "stateMutability": "nonpayable",
      "type": "function"
    },
    {
      "constant": false,
      "inputs": [
        {
          "name": "newPartnerFund",
          "type": "address"
        }
      ],
      "name": "setPartnerFund",
      "outputs": [],
      "payable": false,
      "stateMutability": "nonpayable",
      "type": "function"
    },
    {
      "constant": true,
      "inputs": [],
      "name": "settlementsCount",
      "outputs": [
        {
          "name": "",
          "type": "uint256"
        }
      ],
      "payable": false,
      "stateMutability": "view",
      "type": "function"
    },
    {
      "constant": true,
      "inputs": [
        {
          "name": "wallet",
          "type": "address"
        }
      ],
      "name": "settlementsCountByWallet",
      "outputs": [
        {
          "name": "",
          "type": "uint256"
        }
      ],
      "payable": false,
      "stateMutability": "view",
      "type": "function"
    },
    {
      "constant": true,
      "inputs": [
        {
          "name": "wallet",
          "type": "address"
        },
        {
          "name": "index",
          "type": "uint256"
        }
      ],
      "name": "settlementByWalletAndIndex",
      "outputs": [
        {
          "components": [
            {
              "name": "settledKind",
              "type": "string"
            },
            {
              "name": "settledHash",
              "type": "bytes32"
            },
            {
              "components": [
                {
                  "name": "nonce",
                  "type": "uint256"
                },
                {
                  "name": "wallet",
                  "type": "address"
                },
                {
                  "name": "done",
                  "type": "bool"
                }
              ],
              "name": "origin",
              "type": "tuple"
            },
            {
              "components": [
                {
                  "name": "nonce",
                  "type": "uint256"
                },
                {
                  "name": "wallet",
                  "type": "address"
                },
                {
                  "name": "done",
                  "type": "bool"
                }
              ],
              "name": "target",
              "type": "tuple"
            }
          ],
          "name": "",
          "type": "tuple"
        }
      ],
      "payable": false,
      "stateMutability": "view",
      "type": "function"
    },
    {
      "constant": true,
      "inputs": [
        {
          "name": "wallet",
          "type": "address"
        },
        {
          "name": "nonce",
          "type": "uint256"
        }
      ],
      "name": "settlementByWalletAndNonce",
      "outputs": [
        {
          "components": [
            {
              "name": "settledKind",
              "type": "string"
            },
            {
              "name": "settledHash",
              "type": "bytes32"
            },
            {
              "components": [
                {
                  "name": "nonce",
                  "type": "uint256"
                },
                {
                  "name": "wallet",
                  "type": "address"
                },
                {
                  "name": "done",
                  "type": "bool"
                }
              ],
              "name": "origin",
              "type": "tuple"
            },
            {
              "components": [
                {
                  "name": "nonce",
                  "type": "uint256"
                },
                {
                  "name": "wallet",
                  "type": "address"
                },
                {
                  "name": "done",
                  "type": "bool"
                }
              ],
              "name": "target",
              "type": "tuple"
            }
          ],
          "name": "",
          "type": "tuple"
        }
      ],
      "payable": false,
      "stateMutability": "view",
      "type": "function"
    },
    {
      "constant": false,
      "inputs": [
        {
          "components": [
            {
              "name": "nonce",
              "type": "uint256"
            },
            {
              "name": "amount",
              "type": "int256"
            },
            {
              "components": [
                {
                  "components": [
                    {
                      "name": "ct",
                      "type": "address"
                    },
                    {
                      "name": "id",
                      "type": "uint256"
                    }
                  ],
                  "name": "intended",
                  "type": "tuple"
                },
                {
                  "components": [
                    {
                      "name": "ct",
                      "type": "address"
                    },
                    {
                      "name": "id",
                      "type": "uint256"
                    }
                  ],
                  "name": "conjugate",
                  "type": "tuple"
                }
              ],
              "name": "currencies",
              "type": "tuple"
            },
            {
              "name": "rate",
              "type": "int256"
            },
            {
              "components": [
                {
                  "name": "nonce",
                  "type": "uint256"
                },
                {
                  "name": "wallet",
                  "type": "address"
                },
                {
                  "name": "rollingVolume",
                  "type": "uint256"
                },
                {
                  "name": "liquidityRole",
                  "type": "uint8"
                },
                {
                  "components": [
                    {
                      "name": "amount",
                      "type": "int256"
                    },
                    {
                      "components": [
                        {
                          "name": "wallet",
                          "type": "bytes32"
                        },
                        {
                          "name": "operator",
                          "type": "bytes32"
                        }
                      ],
                      "name": "hashes",
                      "type": "tuple"
                    },
                    {
                      "components": [
                        {
                          "name": "current",
                          "type": "int256"
                        },
                        {
                          "name": "previous",
                          "type": "int256"
                        }
                      ],
                      "name": "residuals",
                      "type": "tuple"
                    }
                  ],
                  "name": "order",
                  "type": "tuple"
                },
                {
                  "components": [
                    {
                      "components": [
                        {
                          "name": "current",
                          "type": "int256"
                        },
                        {
                          "name": "previous",
                          "type": "int256"
                        }
                      ],
                      "name": "intended",
                      "type": "tuple"
                    },
                    {
                      "components": [
                        {
                          "name": "current",
                          "type": "int256"
                        },
                        {
                          "name": "previous",
                          "type": "int256"
                        }
                      ],
                      "name": "conjugate",
                      "type": "tuple"
                    }
                  ],
                  "name": "balances",
                  "type": "tuple"
                },
                {
                  "components": [
                    {
                      "components": [
                        {
                          "name": "amount",
                          "type": "int256"
                        },
                        {
                          "components": [
                            {
                              "name": "ct",
                              "type": "address"
                            },
                            {
                              "name": "id",
                              "type": "uint256"
                            }
                          ],
                          "name": "currency",
                          "type": "tuple"
                        }
                      ],
                      "name": "single",
                      "type": "tuple"
                    },
                    {
                      "components": [
                        {
                          "name": "originId",
                          "type": "uint256"
                        },
                        {
                          "components": [
                            {
                              "name": "amount",
                              "type": "int256"
                            },
                            {
                              "components": [
                                {
                                  "name": "ct",
                                  "type": "address"
                                },
                                {
                                  "name": "id",
                                  "type": "uint256"
                                }
                              ],
                              "name": "currency",
                              "type": "tuple"
                            }
                          ],
                          "name": "figure",
                          "type": "tuple"
                        }
                      ],
                      "name": "total",
                      "type": "tuple[]"
                    }
                  ],
                  "name": "fees",
                  "type": "tuple"
                }
              ],
              "name": "buyer",
              "type": "tuple"
            },
            {
              "components": [
                {
                  "name": "nonce",
                  "type": "uint256"
                },
                {
                  "name": "wallet",
                  "type": "address"
                },
                {
                  "name": "rollingVolume",
                  "type": "uint256"
                },
                {
                  "name": "liquidityRole",
                  "type": "uint8"
                },
                {
                  "components": [
                    {
                      "name": "amount",
                      "type": "int256"
                    },
                    {
                      "components": [
                        {
                          "name": "wallet",
                          "type": "bytes32"
                        },
                        {
                          "name": "operator",
                          "type": "bytes32"
                        }
                      ],
                      "name": "hashes",
                      "type": "tuple"
                    },
                    {
                      "components": [
                        {
                          "name": "current",
                          "type": "int256"
                        },
                        {
                          "name": "previous",
                          "type": "int256"
                        }
                      ],
                      "name": "residuals",
                      "type": "tuple"
                    }
                  ],
                  "name": "order",
                  "type": "tuple"
                },
                {
                  "components": [
                    {
                      "components": [
                        {
                          "name": "current",
                          "type": "int256"
                        },
                        {
                          "name": "previous",
                          "type": "int256"
                        }
                      ],
                      "name": "intended",
                      "type": "tuple"
                    },
                    {
                      "components": [
                        {
                          "name": "current",
                          "type": "int256"
                        },
                        {
                          "name": "previous",
                          "type": "int256"
                        }
                      ],
                      "name": "conjugate",
                      "type": "tuple"
                    }
                  ],
                  "name": "balances",
                  "type": "tuple"
                },
                {
                  "components": [
                    {
                      "components": [
                        {
                          "name": "amount",
                          "type": "int256"
                        },
                        {
                          "components": [
                            {
                              "name": "ct",
                              "type": "address"
                            },
                            {
                              "name": "id",
                              "type": "uint256"
                            }
                          ],
                          "name": "currency",
                          "type": "tuple"
                        }
                      ],
                      "name": "single",
                      "type": "tuple"
                    },
                    {
                      "components": [
                        {
                          "name": "originId",
                          "type": "uint256"
                        },
                        {
                          "components": [
                            {
                              "name": "amount",
                              "type": "int256"
                            },
                            {
                              "components": [
                                {
                                  "name": "ct",
                                  "type": "address"
                                },
                                {
                                  "name": "id",
                                  "type": "uint256"
                                }
                              ],
                              "name": "currency",
                              "type": "tuple"
                            }
                          ],
                          "name": "figure",
                          "type": "tuple"
                        }
                      ],
                      "name": "total",
                      "type": "tuple[]"
                    }
                  ],
                  "name": "fees",
                  "type": "tuple"
                }
              ],
              "name": "seller",
              "type": "tuple"
            },
            {
              "components": [
                {
                  "components": [
                    {
                      "name": "single",
                      "type": "int256"
                    },
                    {
                      "name": "total",
                      "type": "int256"
                    }
                  ],
                  "name": "intended",
                  "type": "tuple"
                },
                {
                  "components": [
                    {
                      "name": "single",
                      "type": "int256"
                    },
                    {
                      "name": "total",
                      "type": "int256"
                    }
                  ],
                  "name": "conjugate",
                  "type": "tuple"
                }
              ],
              "name": "transfers",
              "type": "tuple"
            },
            {
              "components": [
                {
                  "name": "hash",
                  "type": "bytes32"
                },
                {
                  "components": [
                    {
                      "name": "r",
                      "type": "bytes32"
                    },
                    {
                      "name": "s",
                      "type": "bytes32"
                    },
                    {
                      "name": "v",
                      "type": "uint8"
                    }
                  ],
                  "name": "signature",
                  "type": "tuple"
                }
              ],
              "name": "seal",
              "type": "tuple"
            },
            {
              "name": "blockNumber",
              "type": "uint256"
            },
            {
              "name": "operatorId",
              "type": "uint256"
            }
          ],
          "name": "trade",
          "type": "tuple"
        }
      ],
      "name": "settleTrade",
      "outputs": [],
      "payable": false,
      "stateMutability": "nonpayable",
      "type": "function"
    },
    {
      "constant": false,
      "inputs": [
        {
          "name": "wallet",
          "type": "address"
        },
        {
          "components": [
            {
              "name": "nonce",
              "type": "uint256"
            },
            {
              "name": "amount",
              "type": "int256"
            },
            {
              "components": [
                {
                  "components": [
                    {
                      "name": "ct",
                      "type": "address"
                    },
                    {
                      "name": "id",
                      "type": "uint256"
                    }
                  ],
                  "name": "intended",
                  "type": "tuple"
                },
                {
                  "components": [
                    {
                      "name": "ct",
                      "type": "address"
                    },
                    {
                      "name": "id",
                      "type": "uint256"
                    }
                  ],
                  "name": "conjugate",
                  "type": "tuple"
                }
              ],
              "name": "currencies",
              "type": "tuple"
            },
            {
              "name": "rate",
              "type": "int256"
            },
            {
              "components": [
                {
                  "name": "nonce",
                  "type": "uint256"
                },
                {
                  "name": "wallet",
                  "type": "address"
                },
                {
                  "name": "rollingVolume",
                  "type": "uint256"
                },
                {
                  "name": "liquidityRole",
                  "type": "uint8"
                },
                {
                  "components": [
                    {
                      "name": "amount",
                      "type": "int256"
                    },
                    {
                      "components": [
                        {
                          "name": "wallet",
                          "type": "bytes32"
                        },
                        {
                          "name": "operator",
                          "type": "bytes32"
                        }
                      ],
                      "name": "hashes",
                      "type": "tuple"
                    },
                    {
                      "components": [
                        {
                          "name": "current",
                          "type": "int256"
                        },
                        {
                          "name": "previous",
                          "type": "int256"
                        }
                      ],
                      "name": "residuals",
                      "type": "tuple"
                    }
                  ],
                  "name": "order",
                  "type": "tuple"
                },
                {
                  "components": [
                    {
                      "components": [
                        {
                          "name": "current",
                          "type": "int256"
                        },
                        {
                          "name": "previous",
                          "type": "int256"
                        }
                      ],
                      "name": "intended",
                      "type": "tuple"
                    },
                    {
                      "components": [
                        {
                          "name": "current",
                          "type": "int256"
                        },
                        {
                          "name": "previous",
                          "type": "int256"
                        }
                      ],
                      "name": "conjugate",
                      "type": "tuple"
                    }
                  ],
                  "name": "balances",
                  "type": "tuple"
                },
                {
                  "components": [
                    {
                      "components": [
                        {
                          "name": "amount",
                          "type": "int256"
                        },
                        {
                          "components": [
                            {
                              "name": "ct",
                              "type": "address"
                            },
                            {
                              "name": "id",
                              "type": "uint256"
                            }
                          ],
                          "name": "currency",
                          "type": "tuple"
                        }
                      ],
                      "name": "single",
                      "type": "tuple"
                    },
                    {
                      "components": [
                        {
                          "name": "originId",
                          "type": "uint256"
                        },
                        {
                          "components": [
                            {
                              "name": "amount",
                              "type": "int256"
                            },
                            {
                              "components": [
                                {
                                  "name": "ct",
                                  "type": "address"
                                },
                                {
                                  "name": "id",
                                  "type": "uint256"
                                }
                              ],
                              "name": "currency",
                              "type": "tuple"
                            }
                          ],
                          "name": "figure",
                          "type": "tuple"
                        }
                      ],
                      "name": "total",
                      "type": "tuple[]"
                    }
                  ],
                  "name": "fees",
                  "type": "tuple"
                }
              ],
              "name": "buyer",
              "type": "tuple"
            },
            {
              "components": [
                {
                  "name": "nonce",
                  "type": "uint256"
                },
                {
                  "name": "wallet",
                  "type": "address"
                },
                {
                  "name": "rollingVolume",
                  "type": "uint256"
                },
                {
                  "name": "liquidityRole",
                  "type": "uint8"
                },
                {
                  "components": [
                    {
                      "name": "amount",
                      "type": "int256"
                    },
                    {
                      "components": [
                        {
                          "name": "wallet",
                          "type": "bytes32"
                        },
                        {
                          "name": "operator",
                          "type": "bytes32"
                        }
                      ],
                      "name": "hashes",
                      "type": "tuple"
                    },
                    {
                      "components": [
                        {
                          "name": "current",
                          "type": "int256"
                        },
                        {
                          "name": "previous",
                          "type": "int256"
                        }
                      ],
                      "name": "residuals",
                      "type": "tuple"
                    }
                  ],
                  "name": "order",
                  "type": "tuple"
                },
                {
                  "components": [
                    {
                      "components": [
                        {
                          "name": "current",
                          "type": "int256"
                        },
                        {
                          "name": "previous",
                          "type": "int256"
                        }
                      ],
                      "name": "intended",
                      "type": "tuple"
                    },
                    {
                      "components": [
                        {
                          "name": "current",
                          "type": "int256"
                        },
                        {
                          "name": "previous",
                          "type": "int256"
                        }
                      ],
                      "name": "conjugate",
                      "type": "tuple"
                    }
                  ],
                  "name": "balances",
                  "type": "tuple"
                },
                {
                  "components": [
                    {
                      "components": [
                        {
                          "name": "amount",
                          "type": "int256"
                        },
                        {
                          "components": [
                            {
                              "name": "ct",
                              "type": "address"
                            },
                            {
                              "name": "id",
                              "type": "uint256"
                            }
                          ],
                          "name": "currency",
                          "type": "tuple"
                        }
                      ],
                      "name": "single",
                      "type": "tuple"
                    },
                    {
                      "components": [
                        {
                          "name": "originId",
                          "type": "uint256"
                        },
                        {
                          "components": [
                            {
                              "name": "amount",
                              "type": "int256"
                            },
                            {
                              "components": [
                                {
                                  "name": "ct",
                                  "type": "address"
                                },
                                {
                                  "name": "id",
                                  "type": "uint256"
                                }
                              ],
                              "name": "currency",
                              "type": "tuple"
                            }
                          ],
                          "name": "figure",
                          "type": "tuple"
                        }
                      ],
                      "name": "total",
                      "type": "tuple[]"
                    }
                  ],
                  "name": "fees",
                  "type": "tuple"
                }
              ],
              "name": "seller",
              "type": "tuple"
            },
            {
              "components": [
                {
                  "components": [
                    {
                      "name": "single",
                      "type": "int256"
                    },
                    {
                      "name": "total",
                      "type": "int256"
                    }
                  ],
                  "name": "intended",
                  "type": "tuple"
                },
                {
                  "components": [
                    {
                      "name": "single",
                      "type": "int256"
                    },
                    {
                      "name": "total",
                      "type": "int256"
                    }
                  ],
                  "name": "conjugate",
                  "type": "tuple"
                }
              ],
              "name": "transfers",
              "type": "tuple"
            },
            {
              "components": [
                {
                  "name": "hash",
                  "type": "bytes32"
                },
                {
                  "components": [
                    {
                      "name": "r",
                      "type": "bytes32"
                    },
                    {
                      "name": "s",
                      "type": "bytes32"
                    },
                    {
                      "name": "v",
                      "type": "uint8"
                    }
                  ],
                  "name": "signature",
                  "type": "tuple"
                }
              ],
              "name": "seal",
              "type": "tuple"
            },
            {
              "name": "blockNumber",
              "type": "uint256"
            },
            {
              "name": "operatorId",
              "type": "uint256"
            }
          ],
          "name": "trade",
          "type": "tuple"
        }
      ],
      "name": "settleTradeByProxy",
      "outputs": [],
      "payable": false,
      "stateMutability": "nonpayable",
      "type": "function"
    }
  ],
  "bytecode": "0x60806040523480156200001157600080fd5b5060405160208062003e1d8339810180604052620000339190810190620000b6565b8080600160a060020a03811615156200004b57600080fd5b600160a060020a0381163014156200006257600080fd5b506000805461010060a860020a031916610100600160a060020a039390931692830217905560018054600160a060020a031916909117905550620000eb565b6000620000af8251620000df565b9392505050565b600060208284031215620000c957600080fd5b6000620000d78484620000a1565b949350505050565b600160a060020a031690565b613d2280620000fb6000396000f3006080604052600436106101be5763ffffffff60e060020a60003504166301370d0681146101c35780631327d3d8146101e5578063240625d81461020557806325c84441146102305780632738a112146102525780632aa1c9d9146102675780632f013a00146102875780633a5381b51461029c5780633bd7857f146102b1578063404e896f146102c65780634476d23b146102e657806351d7cd6114610308578063570ca7351461031d5780635dc60def14610332578063627f09c314610347578063670732a7146103675780636c70bee91461037c57806370327ea114610391578063892860b2146103a65780638c6913bc146103c65780638cf16a31146103e85780638e9d6cbd1461040857806395ff296d1461041d5780639621473514610432578063b3ab15fb14610452578063b71ded2f14610472578063bf24e7d014610492578063c0ffe1b4146104a7578063d2f08936146104d4578063d5f39488146104f4578063e71dcc3114610509578063e754476f14610529578063e86ab8f61461053e578063e8ae41e31461055e578063f152dd3814610573578063f1aa773414610593578063f345fb44146105a8578063fe4e7096146105c8575b600080fd5b3480156101cf57600080fd5b506101e36101de3660046132a5565b6105e8565b005b3480156101f157600080fd5b506101e36102003660046132a5565b610690565b34801561021157600080fd5b5061021a610728565b6040516102279190613b11565b60405180910390f35b34801561023c57600080fd5b50610245610738565b6040516102279190613b2d565b34801561025e57600080fd5b506101e3610747565b34801561027357600080fd5b506101e36102823660046132a5565b6107ad565b34801561029357600080fd5b5061021a61083e565b3480156102a857600080fd5b50610245610847565b3480156102bd57600080fd5b50610245610856565b3480156102d257600080fd5b506101e36102e13660046132a5565b610865565b3480156102f257600080fd5b506102fb6108e9565b60405161022791906137f5565b34801561031457600080fd5b506102456108fd565b34801561032957600080fd5b506102fb61090c565b34801561033e57600080fd5b506101e361091b565b34801561035357600080fd5b506101e36103623660046132a5565b61096f565b34801561037357600080fd5b506101e3610a07565b34801561038857600080fd5b50610245610a5b565b34801561039d57600080fd5b506101e3610a6a565b3480156103b257600080fd5b506101e36103c13660046132a5565b610acd565b3480156103d257600080fd5b506103db610b7c565b6040516102279190613b1f565b3480156103f457600080fd5b506101e3610403366004613367565b610c02565b34801561041457600080fd5b5061021a610c48565b34801561042957600080fd5b50610245610c58565b34801561043e57600080fd5b506101e361044d3660046131c2565b610c67565b34801561045e57600080fd5b506101e361046d3660046131c2565b610d25565b34801561047e57600080fd5b506101e361048d3660046132a5565b610dcf565b34801561049e57600080fd5b50610245610e67565b3480156104b357600080fd5b506104c76104c2366004613239565b610e76565b6040516102279190613baa565b3480156104e057600080fd5b506104c76104ef366004613239565b610f12565b34801561050057600080fd5b506102fb610f4f565b34801561051557600080fd5b506101e36105243660046132a5565b610f63565b34801561053557600080fd5b50610245610fe7565b34801561054a57600080fd5b506101e36105593660046132a5565b610ff6565b34801561056a57600080fd5b506102456110a5565b34801561057f57600080fd5b506101e361058e3660046132a5565b6110b4565b34801561059f57600080fd5b50610245611138565b3480156105b457600080fd5b506103db6105c33660046131c2565b611147565b3480156105d457600080fd5b506101e36105e33660046131e8565b6111cd565b60006105f2611229565b15156105fd57600080fd5b81600160a060020a038116151561061357600080fd5b6006548390600160a060020a0390811690821681146106895760068054600160a060020a03878116600160a060020a0319831617909255604051911694507f07998fa7be97abe2427246ae4688298c89d6196bbffdf0997b9495a8d27bc673906106809086908890613b3b565b60405180910390a15b5050505050565b600061069a611229565b15156106a557600080fd5b81600160a060020a03811615156106bb57600080fd5b6003548390600160a060020a0390811690821681146106895760038054600160a060020a03878116600160a060020a0319831617909255604051911694507f1882af944a16549c3d4f60e3cd26f158b0c7aac3222cf32971fc21375ce05f60906106809086908890613b3b565b60075460a060020a900460ff1681565b600954600160a060020a031681565b336107506108e9565b600160a060020a03161461076357600080fd5b60005460ff161561077357600080fd5b7f787a5d936e74f4b564b9153575886059829c78cd9927b1be5e0d976b317ef736336040516107a291906137f5565b60405180910390a133ff5b60006107b7611229565b15156107c257600080fd5b81600160a060020a03811615156107d857600080fd5b60088054600160a060020a03858116600160a060020a03198316179283905560405191811694507f4f7125332801996cdeaabf9cff1ac89ddf4b52c673558936affe853ab64a88da926108319286929190911690613b3b565b60405180910390a1505050565b60005460ff1681565b600354600160a060020a031681565b600654600160a060020a031681565b600061086f611229565b151561087a57600080fd5b81600160a060020a038116151561089057600080fd5b60098054600160a060020a03858116600160a060020a03198316179283905560405191811694507f6d4735156f5fb1047cfcd4a9edf19e3291aec19d53916f8fee650ca3c2d73910926108319286929190911690613b3b565b6000546101009004600160a060020a031690565b600854600160a060020a031681565b600154600160a060020a031681565b610923611229565b151561092e57600080fd5b6007805460a060020a60ff02191660a060020a1790556040517f56ec8900b9c4bf84f4b715a53068ca06961dd49084c07b481931e2c2045346e690600090a1565b6000610979611229565b151561098457600080fd5b81600160a060020a038116151561099a57600080fd5b6002548390600160a060020a0390811690821681146106895760028054600160a060020a03878116600160a060020a0319831617909255604051911694507f634f61bf00e14adedce330c80c2823e16e184f189ebe853e1ddecc4a268477ff906106809086908890613b3b565b610a0f611229565b1515610a1a57600080fd5b6005805460a060020a60ff02191660a060020a1790556040517fc1668d45f18667fb6eadfbcacfd5cdcc7dd4ecdfc9b0ab8786cfdbad86bb83d890600090a1565b600254600160a060020a031681565b33610a736108e9565b600160a060020a031614610a8657600080fd5b6000805460ff191660011790556040517fd5a2a04a775c741c2ca0dc46ea7ce4835190e1aaf1ca018def0e82568ec3361690610ac39033906137f5565b60405180910390a1565b6000610ad7611229565b1515610ae257600080fd5b81600160a060020a0381161515610af857600080fd5b6007548390600160a060020a0390811690821681146106895760075460a060020a900460ff1615610b2857600080fd5b60078054600160a060020a03878116600160a060020a0319831617909255604051911694507fa44d361e26327b72a7ccbeae801b3c5cd7677ea4fa74168b289e273c46bfecfc906106809086908890613b3b565b6009546040805160e260020a63231a44ef0281529051600092600160a060020a031691638c6913bc91600480830192602092919082900301818787803b158015610bc557600080fd5b505af1158015610bd9573d6000803e3d6000fd5b505050506040513d601f19601f82011682018060405250610bfd9190810190613287565b905090565b610c0c338261123f565b7f657ab7ead09206283cbdeedb5264be5b351baa0c0f852fcfb6c6aa8182a64c573382604051610c3d929190613a51565b60405180910390a150565b60055460a060020a900460ff1681565b600a54600160a060020a031681565b6000610c71611229565b1515610c7c57600080fd5b81600160a060020a0381161515610c9257600080fd5b600160a060020a038116301415610ca857600080fd5b600054600160a060020a038481166101009092041614610d205760008054600160a060020a0385811661010090810261010060a860020a0319841617909355604051929091041692507f977e5fa58e458501775e0008d275006294c5249e3c08d1d0e3a9f3acad14f6e4906108319084908690613803565b505050565b6000610d2f6124df565b1515610d3a57600080fd5b81600160a060020a0381161515610d5057600080fd5b600160a060020a038116301415610d6657600080fd5b600154600160a060020a03848116911614610d205760018054600160a060020a03858116600160a060020a0319831617909255604051911692507f9f611b789425d0d5b90b920f1b2852907dd865c80074a30b1629aaa041d1812c906108319084908690613803565b6000610dd9611229565b1515610de457600080fd5b81600160a060020a0381161515610dfa57600080fd5b6004548390600160a060020a0390811690821681146106895760048054600160a060020a03878116600160a060020a0319831617909255604051911694507f4d96d2a04c886b313bd1e28be6324ed4c8867b3203e512756722f8be0195e16d906106809086908890613b3b565b600554600160a060020a031681565b610e7e6129c0565b60095460405160e260020a63303ff86d028152600160a060020a039091169063c0ffe1b490610eb39086908690600401613a71565b600060405180830381600087803b158015610ecd57600080fd5b505af1158015610ee1573d6000803e3d6000fd5b505050506040513d6000823e601f3d908101601f19168201604052610f099190810190613333565b90505b92915050565b610f1a6129c0565b60095460405160e160020a636978449b028152600160a060020a039091169063d2f0893690610eb39086908690600401613a71565b6000546101009004600160a060020a031681565b6000610f6d611229565b1515610f7857600080fd5b81600160a060020a0381161515610f8e57600080fd5b600b8054600160a060020a03858116600160a060020a03198316179283905560405191811694507f8b279c2b23bfeb78b16df477d9aca8834fa453d90eec75f2ab0c825a712c3d17926108319286929190911690613b3b565b600454600160a060020a031681565b6000611000611229565b151561100b57600080fd5b81600160a060020a038116151561102157600080fd5b6005548390600160a060020a0390811690821681146106895760055460a060020a900460ff161561105157600080fd5b60058054600160a060020a03878116600160a060020a0319831617909255604051911694507f624c4d4225a45f5bf8a9755adba1ef9be3464a9970b05a371fb6cca0c0caf204906106809086908890613b3b565b600754600160a060020a031681565b60006110be611229565b15156110c957600080fd5b81600160a060020a03811615156110df57600080fd5b600a8054600160a060020a03858116600160a060020a03198316179283905560405191811694507f0e0d0aee1efbecb32fba4a76ecc4cae4c9ed1c3ea3459ea8460c53ff4cb09bcf926108319286929190911690613b3b565b600b54600160a060020a031681565b60095460405160e260020a633cd17ed1028152600091600160a060020a03169063f345fb449061117b9085906004016137f5565b602060405180830381600087803b15801561119557600080fd5b505af11580156111a9573d6000803e3d6000fd5b505050506040513d601f19601f82011682018060405250610f0c9190810190613287565b6111d56124df565b15156111e057600080fd5b6111ea828261123f565b7f5ddf2c9b4fff4cd73ea605875e6c0ac2282be29c511e97d607737a340849750733838360405161121d93929190613825565b60405180910390a15050565b6000546101009004600160a060020a0316331490565b60006112496129f3565b60035460405160e160020a637211c8c70281528491600160a060020a03169063e423918e9061127c908490600401613bbb565b602060405180830381600087803b15801561129657600080fd5b505af11580156112aa573d6000803e3d6000fd5b505050506040513d601f19601f820116820180604052506112ce9190810190613269565b15156112d957600080fd5b60035460405160e160020a6303e149c302815285918791600160a060020a03909116906307c29386906113129085908590600401613bcc565b602060405180830381600087803b15801561132c57600080fd5b505af1158015611340573d6000803e3d6000fd5b505050506040513d601f19601f820116820180604052506113649190810190613269565b151561136f57600080fd5b60065460e08701515160405160e160020a6352c894d1028152600160a060020a039092169163a59129a2916113a691600401613b1f565b602060405180830381600087803b1580156113c057600080fd5b505af11580156113d4573d6000803e3d6000fd5b505050506040513d601f19601f820116820180604052506113f89190810190613269565b1561140257600080fd5b60055460405160e060020a639243c9db028152600160a060020a0390911690639243c9db90611435908a906004016137f5565b602060405180830381600087803b15801561144f57600080fd5b505af1158015611463573d6000803e3d6000fd5b505050506040513d601f19601f820116820180604052506114879190810190613269565b1561149157600080fd5b60075460405160e260020a631293efbb028152600160a060020a0390911690634a4fbeec906114c4908a906004016137f5565b602060405180830381600087803b1580156114de57600080fd5b505af11580156114f2573d6000803e3d6000fd5b505050506040513d601f19601f820116820180604052506115169190810190613269565b1561152057600080fd5b60085460408088015151905160e060020a63da473c57028152600160a060020a039092169163da473c579161155a918b9190600401613a0e565b602060405180830381600087803b15801561157457600080fd5b505af1158015611588573d6000803e3d6000fd5b505050506040513d601f19601f820116820180604052506115ac9190810190613287565b60e087015151146115bc57600080fd5b60085460408088015160200151905160e060020a63da473c57028152600160a060020a039092169163da473c57916115f9918b9190600401613a0e565b602060405180830381600087803b15801561161357600080fd5b505af1158015611627573d6000803e3d6000fd5b505050506040513d601f19601f8201168201806040525061164b9190810190613287565b60e0870151511461165b57600080fd5b61166586886124f0565b60085481516040808b015151905160e060020a636543ade1028152949950929750600160a060020a0390911692636543ade1926116a9928c92909190600401613ae9565b602060405180830381600087803b1580156116c357600080fd5b505af11580156116d7573d6000803e3d6000fd5b505050506040513d601f19601f820116820180604052506116fb9190810190613269565b151561170657600080fd5b600854845160408089015160200151905160e060020a636543ade1028152600160a060020a0390931692636543ade192611744928c92600401613ae9565b602060405180830381600087803b15801561175e57600080fd5b505af1158015611772573d6000803e3d6000fd5b505050506040513d601f19601f820116820180604052506117969190810190613269565b15156117a157600080fd5b60085460408088015151905160e060020a637ff81c37028152600160a060020a0390921691637ff81c37916117db918b9190600401613a0e565b602060405180830381600087803b1580156117f557600080fd5b505af1158015611809573d6000803e3d6000fd5b505050506040513d601f19601f8201168201806040525061182d9190810190613269565b1561183757600080fd5b60085460408088015160200151905160e060020a637ff81c37028152600160a060020a0390921691637ff81c3791611874918b9190600401613a0e565b602060405180830381600087803b15801561188e57600080fd5b505af11580156118a2573d6000803e3d6000fd5b505050506040513d601f19601f820116820180604052506118c69190810190613269565b156118d057600080fd5b60085460408088015151905160e060020a635482c735028152600160a060020a0390921691635482c7359161190a918b9190600401613a0e565b602060405180830381600087803b15801561192457600080fd5b505af1158015611938573d6000803e3d6000fd5b505050506040513d601f19601f8201168201806040525061195c9190810190613269565b151561196757600080fd5b60085460408088015160200151905160e060020a635482c735028152600160a060020a0390921691635482c735916119a4918b9190600401613a0e565b602060405180830381600087803b1580156119be57600080fd5b505af11580156119d2573d6000803e3d6000fd5b505050506040513d601f19601f820116820180604052506119f69190810190613269565b1515611a0157600080fd5b60085460408088015151905160e060020a63b6e2fc33028152600160a060020a039092169163b6e2fc3391611a3b918b9190600401613a0e565b602060405180830381600087803b158015611a5557600080fd5b505af1158015611a69573d6000803e3d6000fd5b505050506040513d601f19601f82011682018060405250611a8d91908101906132c3565b6001811115611a9857fe5b15611aa257600080fd5b60085460408088015160200151905160e060020a63b6e2fc33028152600160a060020a039092169163b6e2fc3391611adf918b9190600401613a0e565b602060405180830381600087803b158015611af957600080fd5b505af1158015611b0d573d6000803e3d6000fd5b505050506040513d601f19601f82011682018060405250611b3191908101906132c3565b6001811115611b3c57fe5b15611b4657600080fd5b600260009054906101000a9004600160a060020a0316600160a060020a031663f71e860f6040518163ffffffff1660e060020a028152600401602060405180830381600087803b158015611b9957600080fd5b505af1158015611bad573d6000803e3d6000fd5b505050506040513d601f19601f82011682018060405250611bd19190810190613269565b8015611c635750600560009054906101000a9004600160a060020a0316600160a060020a031663994e20766040518163ffffffff1660e060020a028152600401602060405180830381600087803b158015611c2b57600080fd5b505af1158015611c3f573d6000803e3d6000fd5b505050506040513d601f19601f82011682018060405250611c639190810190613269565b1515611c6e57600080fd5b600960009054906101000a9004600160a060020a0316600160a060020a0316638772531373__TradeTypesLib_________________________6332575cb66040518163ffffffff1660e060020a02815260040160006040518083038186803b158015611cd957600080fd5b505af4158015611ced573d6000803e3d6000fd5b505050506040513d6000823e601f3d908101601f19168201604052611d1591908101906132e1565b60e08901515160a08a0151602080820151915160808d015191820151915160405160e060020a63ffffffff8916028152611d56969594939190600401613b56565b600060405180830381600087803b158015611d7057600080fd5b505af1158015611d84573d6000803e3d6000fd5b5050600954865160405160e060020a636b184dff028152600160a060020a039092169350636b184dff9250611dc0918b91908a90600401613a8c565b602060405180830381600087803b158015611dda57600080fd5b505af1158015611dee573d6000803e3d6000fd5b505050506040513d601f19601f82011682018060405250611e129190810190613269565b15611e1c57600080fd5b600954845160405160e060020a63e86c7f8d028152600160a060020a039092169163e86c7f8d91611e57918b91908a90600190600401613ab4565b600060405180830381600087803b158015611e7157600080fd5b505af1158015611e85573d6000803e3d6000fd5b505085516009546040808b015151905160e060020a633858654b028152929450600160a060020a039091169250633858654b91611ec6918c91600401613a0e565b602060405180830381600087803b158015611ee057600080fd5b505af1158015611ef4573d6000803e3d6000fd5b505050506040513d601f19601f82011682018060405250611f189190810190613287565b101561210f57600954604080880151518651915160e360020a6302847747028152600160a060020a0390931692631423ba3892611f5c928c92909190600401613a29565b600060405180830381600087803b158015611f7657600080fd5b505af1158015611f8a573d6000803e3d6000fd5b50506004805460a088015151516040808c01515180516020909101516101008e0151925160e160020a63325d23a9028152600160a060020a0390951697506364ba47529650611fdf958f959293919201613977565b600060405180830381600087803b158015611ff957600080fd5b505af115801561200d573d6000803e3d6000fd5b5050600480546008546040808c015151905160e160020a633007230f028152600160a060020a03938416965063ad468df995508d94929093169263600e461e9261205b928692909101613a0e565b602060405180830381600087803b15801561207557600080fd5b505af1158015612089573d6000803e3d6000fd5b505050506040513d601f19601f820116820180604052506120ad9190810190613287565b6040808b0151518051602090910151915160e060020a63ffffffff87160281526120dc94939290600401613931565b600060405180830381600087803b1580156120f657600080fd5b505af115801561210a573d6000803e3d6000fd5b505050505b835160095460408089015160200151905160e060020a633858654b028152600160a060020a0390921691633858654b9161214e918c9190600401613a0e565b602060405180830381600087803b15801561216857600080fd5b505af115801561217c573d6000803e3d6000fd5b505050506040513d601f19601f820116820180604052506121a09190810190613287565b10156123a557600954604080880151602001518651915160e360020a6302847747028152600160a060020a0390931692631423ba38926121e7928c92909190600401613a29565b600060405180830381600087803b15801561220157600080fd5b505af1158015612215573d6000803e3d6000fd5b50506004805460a0880151602090810151516040808d015183015180519301516101008e0151915160e160020a63325d23a9028152600160a060020a0390951697506364ba47529650612270958f9593949391929101613977565b600060405180830381600087803b15801561228a57600080fd5b505af115801561229e573d6000803e3d6000fd5b5050600480546008546040808c015160200151905160e160020a633007230f028152600160a060020a03938416965063ad468df995508d94929093169263600e461e926122ef928692909101613a0e565b602060405180830381600087803b15801561230957600080fd5b505af115801561231d573d6000803e3d6000fd5b505050506040513d601f19601f820116820180604052506123419190810190613287565b6040808b01516020908101518051910151915160e060020a63ffffffff871602815261237294939290600401613931565b600060405180830381600087803b15801561238c57600080fd5b505af11580156123a0573d6000803e3d6000fd5b505050505b600a54600160a060020a0316156123dd5760c084015160200151600a5485516123dd928a929091600160a060020a03909116906125a7565b600960009054906101000a9004600160a060020a0316600160a060020a031663897d36aa6040518163ffffffff1660e060020a028152600401602060405180830381600087803b15801561243057600080fd5b505af1158015612444573d6000803e3d6000fd5b505050506040513d601f19601f820116820180604052506124689190810190613287565b865111156124d657600954865160405160e260020a63123f2dcb028152600160a060020a03909216916348fcb72c916124a391600401613b1f565b600060405180830381600087803b1580156124bd57600080fd5b505af11580156124d1573d6000803e3d6000fd5b505050505b50505050505050565b600154600160a060020a0316331490565b60006124fa6129f3565b60035460405160e060020a63d752a337028152600160a060020a039091169063d752a3379061252f9087908790600401613bcc565b602060405180830381600087803b15801561254957600080fd5b505af115801561255d573d6000803e3d6000fd5b505050506040513d601f19601f820116820180604052506125819190810190613269565b1561259557505060a08201516000906125a0565b505060808201516001905b9250929050565b60008080805b86518410156129b65786848151811015156125c457fe5b60209081029091010151511561260157600b548751600160a060020a03909116908890869081106125f157fe5b6020908102909101015151612605565b8560005b9250925084600960009054906101000a9004600160a060020a0316600160a060020a0316636e17226a8a86868c8a81518110151561263f57fe5b9060200190602002015160200151602001516040518563ffffffff1660e060020a0281526004016126739493929190613852565b6040805180830381600087803b15801561268c57600080fd5b505af11580156126a0573d6000803e3d6000fd5b505050506040513d601f19601f820116820180604052506126c49190810190613315565b5110156129ab576009548751600160a060020a0390911690636e17226a908a90869086908c908a9081106126f457fe5b9060200190602002015160200151602001516040518563ffffffff1660e060020a0281526004016127289493929190613852565b6040805180830381600087803b15801561274157600080fd5b505af1158015612755573d6000803e3d6000fd5b505050506040513d601f19601f820116820180604052506127799190810190613315565b60200151878581518110151561278b57fe5b60209081029091018101510151516009548951929091039250600160a060020a031690637657768c908a90869086908c908a9081106127c657fe5b90602001906020020151602001516020015160408051908101604052808c81526020018e8c8151811015156127f757fe5b6020908102909101810151015151905260405160e060020a63ffffffff881602815261282a959493929190600401613887565b600060405180830381600087803b15801561284457600080fd5b505af1158015612858573d6000803e3d6000fd5b50506004548951600160a060020a03909116925063158a034291508490869085908c908a90811061288557fe5b60209081029091018101518101510151518c518d908b9081106128a457fe5b906020019060200201516020015160200151602001516040518663ffffffff1660e060020a0281526004016128dd9594939291906138d3565b600060405180830381600087803b1580156128f757600080fd5b505af115801561290b573d6000803e3d6000fd5b505050507f64fcac3c2b1ccc98d3039b49f7668a97654165a070c78fa3163859e4d5d097808882898781518110151561294057fe5b60209081029091018101510151518a518b908990811061295c57fe5b60209081029091018101518101510151518b518c908a90811061297b57fe5b906020019060200201516020015160200151602001516040516129a29594939291906139cc565b60405180910390a15b6001909301926125ad565b5050505050505050565b604080516101008101825260608152600060208201529081016129e1612a3d565b81526020016129ee612a3d565b905290565b60408051610220810182526000808252602082018190529181018290529060608201908152602001612a23612a5d565b8152602001612a30612a85565b81526020016129ee612a99565b604080516060810182526000808252602082018190529181019190915290565b60a06040519081016040528060008152602001612a78612aba565b81526020016129ee612aba565b608060405190810160405280612a78612aba565b608060405190810160405280612aad612ad1565b8152602001606081525090565b604080518082019091526000808252602082015290565b606060405190810160405280600081526020016129ee604080518082019091526000808252602082015290565b6000610f098235613c63565b6000610f098251613c63565b6000601f82018313612b2757600080fd5b8135612b3a612b3582613c12565b613bec565b91508181835260208401935060208101905083856080840282011115612b5f57600080fd5b60005b83811015612b8d5781612b758882612d8b565b84525060209092019160809190910190600101612b62565b5050505092915050565b6000610f098251613c6f565b6000610f098235613c74565b6000610f098251613c74565b6000610f098235613c8d565b6000610f098235613c98565b6000610f098251613c98565b6000601f82018313612bf057600080fd5b8151612bfe612b3582613c32565b91508082526020830160208301858383011115612c1a57600080fd5b612c25838284613cb2565b50505092915050565b600060408284031215612c4057600080fd5b612c4a6040613bec565b90506000612c588484612afe565b8252506020612c6984848301612ba3565b60208301525092915050565b600060408284031215612c8757600080fd5b612c916040613bec565b90506000612c588484612ba3565b600060608284031215612cb157600080fd5b612cbb6040613bec565b90506000612cc98484612ba3565b8252506020612c6984848301612c2e565b600060808284031215612cec57600080fd5b612cf66040613bec565b90506000612d048484612c2e565b8252506040612c6984848301612c2e565b600060808284031215612d2757600080fd5b612d316040613bec565b90506000612d3f8484612c75565b8252506040612c6984848301612c75565b600060408284031215612d6257600080fd5b612d6c6040613bec565b90506000612d7a8484612baf565b8252506020612c6984848301612baf565b600060808284031215612d9d57600080fd5b612da76040613bec565b90506000612db58484612ba3565b8252506020612c6984848301612c9f565b600060808284031215612dd857600080fd5b612de26040613bec565b90506000612df08484612ba3565b8252506020612c6984848301612ee3565b600060608284031215612e1357600080fd5b612e1d6060613bec565b90506000612e2b8484612baf565b8252506020612e3c84848301612b0a565b6020830152506040612e5084828501612b97565b60408301525092915050565b60006101008284031215612e6f57600080fd5b612e796080613bec565b82519091506001604060020a03811115612e9257600080fd5b612e9e84828501612bdf565b8252506020612eaf84848301612baf565b6020830152506040612ec384828501612e01565b60408301525060a0612ed784828501612e01565b60608301525092915050565b600060608284031215612ef557600080fd5b612eff6060613bec565b90506000612f0d8484612ba3565b8252506020612f1e84848301612ba3565b6020830152506040612e50848285016131b6565b600060808284031215612f4457600080fd5b612f4e6040613bec565b90506000612f5c8484612c9f565b82525060608201356001604060020a03811115612f7857600080fd5b612c6984828501612b16565b600060a08284031215612f9657600080fd5b612fa06060613bec565b90506000612fae8484612ba3565b8252506020612fbf84848301612c75565b6020830152506060612e5084828501612c75565b60006101c08284031215612fe657600080fd5b612ff060e0613bec565b90506000612ffe8484612ba3565b825250602061300f84848301612afe565b602083015250604061302384828501612ba3565b604083015250606061303784828501612bc7565b606083015250608061304b84828501612f84565b60808301525061012061306084828501612d15565b60a0830152506101a08201356001604060020a0381111561308057600080fd5b61308c84828501612f32565b60c08301525092915050565b600061026082840312156130ab57600080fd5b6130b6610140613bec565b905060006130c48484612ba3565b82525060206130d584848301612ba3565b60208301525060406130e984828501612cda565b60408301525060c06130fd84828501612ba3565b60608301525060e08201356001604060020a0381111561311c57600080fd5b61312884828501612fd3565b6080830152506101008201356001604060020a0381111561314857600080fd5b61315484828501612fd3565b60a08301525061012061316984828501612d15565b60c0830152506101a061317e84828501612dc6565b60e08301525061022061319384828501612ba3565b610100830152506102406131a984828501612ba3565b6101208301525092915050565b6000610f098235613c87565b6000602082840312156131d457600080fd5b60006131e08484612afe565b949350505050565b600080604083850312156131fb57600080fd5b60006132078585612afe565b92505060208301356001604060020a0381111561322357600080fd5b61322f85828601613098565b9150509250929050565b6000806040838503121561324c57600080fd5b60006132588585612afe565b925050602061322f85828601612ba3565b60006020828403121561327b57600080fd5b60006131e08484612b97565b60006020828403121561329957600080fd5b60006131e08484612baf565b6000602082840312156132b757600080fd5b60006131e08484612bbb565b6000602082840312156132d557600080fd5b60006131e08484612bd3565b6000602082840312156132f357600080fd5b81516001604060020a0381111561330957600080fd5b6131e084828501612bdf565b60006040828403121561332757600080fd5b60006131e08484612d50565b60006020828403121561334557600080fd5b81516001604060020a0381111561335b57600080fd5b6131e084828501612e5c565b60006020828403121561337957600080fd5b81356001604060020a0381111561338f57600080fd5b6131e084828501613098565b6133a481613c63565b82525050565b60006133b582613c5f565b8084526020840193506133c783613c59565b60005b828110156133f7576133dd86835161350b565b6133e682613c59565b6080969096019591506001016133ca565b5093949350505050565b6133a481613c6f565b6133a481613c74565b6133a481613c8d565b6133a481613ca7565b600061343082613c5f565b808452613444816020860160208601613cb2565b61344d81613cde565b9093016020019392505050565b6000815260200190565b80516040830190613475848261339b565b506020820151613488602085018261340a565b50505050565b80516040830190613475848261340a565b805160608301906134b0848261340a565b5060208201516134886020850182613464565b805160808301906134d48482613464565b5060208201516134886040850182613464565b805160808301906134f8848261348e565b506020820151613488604085018261348e565b8051608083019061351c848261340a565b506020820151613488602085018261349f565b80516080830190613540848261340a565b50602082015161348860208501826135e6565b80516060830190613564848261340a565b506020820151613577602085018261339b565b5060408201516134886040850182613401565b8051610100808452600091908401906135a38282613425565b91505060208301516135b8602086018261340a565b5060408301516135cb6040860182613553565b5060608301516135de60a0860182613553565b509392505050565b805160608301906135f7848261340a565b50602082015161360a602085018261340a565b50604082015161348860408501826137ec565b80516000906080840190613631858261349f565b506020830151848203606086015261364982826133aa565b95945050505050565b805160a0830190613663848261340a565b506020820151613676602085018261348e565b506040820151613488606085018261348e565b80516000906101c084019061369e858261340a565b5060208301516136b1602086018261339b565b5060408301516136c4604086018261340a565b5060608301516136d7606086018261341c565b5060808301516136ea6080860182613652565b5060a08301516136fe6101208601826134e7565b5060c08301518482036101a0860152613649828261361d565b805160009061026084019061372c858261340a565b50602083015161373f602086018261340a565b50604083015161375260408601826134c3565b50606083015161376560c086018261340a565b50608083015184820360e086015261377d8282613689565b91505060a08301518482036101008601526137988282613689565b91505060c08301516137ae6101208601826134e7565b5060e08301516137c26101a086018261352f565b506101008301516137d761022086018261340a565b506101208301516135de61024086018261340a565b6133a481613c87565b60208101610f0c828461339b565b60408101613811828561339b565b61381e602083018461339b565b9392505050565b60608101613833828661339b565b613840602083018561339b565b81810360408301526136498184613717565b60a08101613860828761339b565b61386d6020830186613413565b61387a604083018561339b565b6136496060830184613464565b60e08101613895828861339b565b6138a26020830187613413565b6138af604083018661339b565b6138bc6060830185613464565b6138c960a083018461348e565b9695505050505050565b60c081016138e1828861339b565b6138ee6020830187613413565b6138fb604083018661340a565b613908606083018561339b565b613915608083018461340a565b81810360a08301526139268161345a565b979650505050505050565b60a0810161393f828761339b565b61394c602083018661340a565b613959604083018561339b565b613966606083018461340a565b81810360808301526138c98161345a565b60c08101613985828861339b565b613992602083018761340a565b61399f604083018661339b565b6139ac606083018561340a565b81810360808301526139bd8161345a565b90506138c960a083018461340a565b60a081016139da828861339b565b6139e7602083018761340a565b6139f4604083018661340a565b613a01606083018561339b565b6138c9608083018461340a565b60608101613a1c828561339b565b61381e6020830184613464565b60808101613a37828661339b565b613a446020830185613464565b6131e0606083018461340a565b60408101613a5f828561339b565b81810360208301526131e08184613717565b60408101613a7f828561339b565b61381e602083018461340a565b60608101613a9a828661339b565b613aa7602083018561340a565b6131e0604083018461341c565b60808101613ac2828761339b565b613acf602083018661340a565b613adc604083018561341c565b6136496060830184613401565b60808101613af7828661339b565b613b04602083018561340a565b6131e06040830184613464565b60208101610f0c8284613401565b60208101610f0c828461340a565b60208101610f0c8284613413565b60408101613b498285613413565b61381e6020830184613413565b60c08082528101613b678189613425565b9050613b76602083018861340a565b613b83604083018761339b565b613b90606083018661340a565b613b9d608083018561339b565b61392660a083018461340a565b60208082528101610f09818461358a565b60208082528101610f098184613717565b60408082528101613bdd8185613717565b905061381e602083018461339b565b6040518181016001604060020a0381118282101715613c0a57600080fd5b604052919050565b60006001604060020a03821115613c2857600080fd5b5060209081020190565b60006001604060020a03821115613c4857600080fd5b506020601f91909101601f19160190565b60200190565b5190565b600160a060020a031690565b151590565b90565b600060028210613c8357fe5b5090565b60ff1690565b6000610f0c82613c63565b600060028210613c8357600080fd5b6000610f0c82613c77565b60005b83811015613ccd578181015183820152602001613cb5565b838111156134885750506000910152565b601f01601f1916905600a265627a7a723058209f7eacad83967011c7035654e0e13a28020b8ccb50c91d4963560be3364c6d016c6578706572696d656e74616cf50037",
  "source": "/*\n * Hubii Nahmii\n *\n * Compliant with the Hubii Nahmii specification v0.12.\n *\n * Copyright (C) 2017-2018 Hubii AS\n */\n\npragma solidity ^0.4.25;\npragma experimental ABIEncoderV2;\n\nimport {Ownable} from \"./Ownable.sol\";\nimport {Configurable} from \"./Configurable.sol\";\nimport {ValidatableV2} from \"./ValidatableV2.sol\";\nimport {ClientFundable} from \"./ClientFundable.sol\";\nimport {CommunityVotable} from \"./CommunityVotable.sol\";\nimport {FraudChallengable} from \"./FraudChallengable.sol\";\nimport {WalletLockable} from \"./WalletLockable.sol\";\nimport {RevenueFund} from \"./RevenueFund.sol\";\nimport {PartnerFund} from \"./PartnerFund.sol\";\nimport {DriipSettlementChallengeState} from \"./DriipSettlementChallengeState.sol\";\nimport {DriipSettlementState} from \"./DriipSettlementState.sol\";\nimport {Beneficiary} from \"./Beneficiary.sol\";\nimport {SafeMathIntLib} from \"./SafeMathIntLib.sol\";\nimport {SafeMathUintLib} from \"./SafeMathUintLib.sol\";\nimport {MonetaryTypesLib} from \"./MonetaryTypesLib.sol\";\nimport {NahmiiTypesLib} from \"./NahmiiTypesLib.sol\";\nimport {TradeTypesLib} from \"./TradeTypesLib.sol\";\nimport {DriipSettlementTypesLib} from \"./DriipSettlementTypesLib.sol\";\nimport {SettlementChallengeTypesLib} from \"./SettlementChallengeTypesLib.sol\";\n\n/**\n * @title DriipSettlementByTrade\n * @notice Where driip settlements pertaining to trade are finalized\n */\ncontract DriipSettlementByTrade is Ownable, Configurable, ValidatableV2, ClientFundable, CommunityVotable,\nFraudChallengable, WalletLockable {\n    using SafeMathIntLib for int256;\n    using SafeMathUintLib for uint256;\n\n    //\n    // Variables\n    // -----------------------------------------------------------------------------------------------------------------\n    DriipSettlementChallengeState public driipSettlementChallengeState;\n    DriipSettlementState public driipSettlementState;\n    RevenueFund public revenueFund;\n    PartnerFund public partnerFund;\n\n    //\n    // Events\n    // -----------------------------------------------------------------------------------------------------------------\n    event SettleTradeEvent(address wallet, TradeTypesLib.Trade trade);\n    event SettleTradeByProxyEvent(address proxy, address wallet, TradeTypesLib.Trade trade);\n    event SetDriipSettlementChallengeStateEvent(DriipSettlementChallengeState oldDriipSettlementChallengeState,\n        DriipSettlementChallengeState newDriipSettlementChallengeState);\n    event SetDriipSettlementStateEvent(DriipSettlementState oldDriipSettlementState,\n        DriipSettlementState newDriipSettlementState);\n    event SetRevenueFundEvent(RevenueFund oldRevenueFund, RevenueFund newRevenueFund);\n    event SetPartnerFundEvent(PartnerFund oldPartnerFund, PartnerFund newPartnerFund);\n    event StageFeesEvent(address wallet, int256 deltaAmount, int256 cumulativeAmount,\n        address currencyCt, uint256 currencyId);\n\n    //\n    // Constructor\n    // -----------------------------------------------------------------------------------------------------------------\n    constructor(address deployer) Ownable(deployer) public {\n    }\n\n    //\n    // Functions\n    // -----------------------------------------------------------------------------------------------------------------\n    /// @notice Set the driip settlement challenge state contract\n    /// @param newDriipSettlementChallengeState The (address of) DriipSettlementChallengeState contract instance\n    function setDriipSettlementChallengeState(DriipSettlementChallengeState newDriipSettlementChallengeState)\n    public\n    onlyDeployer\n    notNullAddress(newDriipSettlementChallengeState)\n    {\n        DriipSettlementChallengeState oldDriipSettlementChallengeState = driipSettlementChallengeState;\n        driipSettlementChallengeState = newDriipSettlementChallengeState;\n        emit SetDriipSettlementChallengeStateEvent(oldDriipSettlementChallengeState, driipSettlementChallengeState);\n    }\n\n    /// @notice Set the driip settlement state contract\n    /// @param newDriipSettlementState The (address of) DriipSettlementState contract instance\n    function setDriipSettlementState(DriipSettlementState newDriipSettlementState)\n    public\n    onlyDeployer\n    notNullAddress(newDriipSettlementState)\n    {\n        DriipSettlementState oldDriipSettlementState = driipSettlementState;\n        driipSettlementState = newDriipSettlementState;\n        emit SetDriipSettlementStateEvent(oldDriipSettlementState, driipSettlementState);\n    }\n\n    /// @notice Set the revenue fund contract\n    /// @param newRevenueFund The (address of) RevenueFund contract instance\n    function setRevenueFund(RevenueFund newRevenueFund)\n    public\n    onlyDeployer\n    notNullAddress(newRevenueFund)\n    {\n        RevenueFund oldRevenueFund = revenueFund;\n        revenueFund = newRevenueFund;\n        emit SetRevenueFundEvent(oldRevenueFund, revenueFund);\n    }\n\n    /// @notice Set the partner fund contract\n    /// @param newPartnerFund The (address of) partner contract instance\n    function setPartnerFund(PartnerFund newPartnerFund)\n    public\n    onlyDeployer\n    notNullAddress(newPartnerFund)\n    {\n        PartnerFund oldPartnerFund = partnerFund;\n        partnerFund = newPartnerFund;\n        emit SetPartnerFundEvent(oldPartnerFund, partnerFund);\n    }\n\n    /// @notice Get the count of settlements\n    function settlementsCount()\n    public\n    view\n    returns (uint256)\n    {\n        return driipSettlementState.settlementsCount();\n    }\n\n    /// @notice Get the count of settlements for given wallet\n    /// @param wallet The address for which to return settlement count\n    /// @return count of settlements for the provided wallet\n    function settlementsCountByWallet(address wallet)\n    public\n    view\n    returns (uint256)\n    {\n        return driipSettlementState.settlementsCountByWallet(wallet);\n    }\n\n    /// @notice Get settlement of given wallet and index\n    /// @param wallet The address for which to return settlement\n    /// @param index The wallet's settlement index\n    /// @return settlement for the provided wallet and index\n    function settlementByWalletAndIndex(address wallet, uint256 index)\n    public\n    view\n    returns (DriipSettlementTypesLib.Settlement)\n    {\n        return driipSettlementState.settlementByWalletAndIndex(wallet, index);\n    }\n\n    /// @notice Get settlement of given wallet and wallet nonce\n    /// @param wallet The address for which to return settlement\n    /// @param nonce The wallet's nonce\n    /// @return settlement for the provided wallet and index\n    function settlementByWalletAndNonce(address wallet, uint256 nonce)\n    public\n    view\n    returns (DriipSettlementTypesLib.Settlement)\n    {\n        return driipSettlementState.settlementByWalletAndNonce(wallet, nonce);\n    }\n\n    /// @notice Settle driip that is a trade\n    /// @param trade The trade to be settled\n    function settleTrade(TradeTypesLib.Trade trade)\n    public\n    {\n        // Settle trade\n        _settleTrade(msg.sender, trade);\n\n        // Emit event\n        emit SettleTradeEvent(msg.sender, trade);\n    }\n\n    /// @notice Settle driip that is a trade\n    /// @param wallet The wallet whose side of the trade is to be settled\n    /// @param trade The trade to be settled\n    function settleTradeByProxy(address wallet, TradeTypesLib.Trade trade)\n    public\n    onlyOperator\n    {\n        // Settle trade for wallet\n        _settleTrade(wallet, trade);\n\n        // Emit event\n        emit SettleTradeByProxyEvent(msg.sender, wallet, trade);\n    }\n\n    //\n    // Private functions\n    // -----------------------------------------------------------------------------------------------------------------\n    function _settleTrade(address wallet, TradeTypesLib.Trade trade)\n    private\n    onlySealedTrade(trade)\n    onlyTradeParty(trade, wallet)\n    {\n        require(!fraudChallenge.isFraudulentTradeHash(trade.seal.hash));\n        require(!communityVote.isDoubleSpenderWallet(wallet));\n\n        // Require that wallet is not locked\n        require(!walletLocker.isLocked(wallet));\n\n        // Require that the wallet's current driip settlement challenge proposals are defined wrt this trade\n        require(trade.seal.hash == driipSettlementChallengeState.proposalChallengedHash(wallet, trade.currencies.intended));\n        require(trade.seal.hash == driipSettlementChallengeState.proposalChallengedHash(wallet, trade.currencies.conjugate));\n\n        // Extract properties depending on settlement role\n        (\n        DriipSettlementTypesLib.SettlementRole settlementRole,\n        TradeTypesLib.TradeParty memory party\n        ) = _getRoleProperties(trade, wallet);\n\n        // Require that driip settlement challenge proposals have been initiated\n        require(driipSettlementChallengeState.hasProposal(wallet, party.nonce, trade.currencies.intended));\n        require(driipSettlementChallengeState.hasProposal(wallet, party.nonce, trade.currencies.conjugate));\n\n        // Require that driip settlement challenge proposal have not been terminated already\n        require(!driipSettlementChallengeState.hasProposalTerminated(wallet, trade.currencies.intended));\n        require(!driipSettlementChallengeState.hasProposalTerminated(wallet, trade.currencies.conjugate));\n\n        // Require that driip settlement challenge proposals have expired\n        require(driipSettlementChallengeState.hasProposalExpired(wallet, trade.currencies.intended));\n        require(driipSettlementChallengeState.hasProposalExpired(wallet, trade.currencies.conjugate));\n\n        // Require that driip settlement challenge proposals qualified\n        require(SettlementChallengeTypesLib.Status.Qualified == driipSettlementChallengeState.proposalStatus(\n            wallet, trade.currencies.intended\n        ));\n        require(SettlementChallengeTypesLib.Status.Qualified == driipSettlementChallengeState.proposalStatus(\n            wallet, trade.currencies.conjugate\n        ));\n\n        // Require that operational mode is normal and data is available\n        require(configuration.isOperationalModeNormal() && communityVote.isDataAvailable());\n\n        // Init settlement, i.e. create one if no such settlement exists for the double pair of wallets and nonces\n        driipSettlementState.initSettlement(\n            TradeTypesLib.TRADE_KIND(), trade.seal.hash,\n            trade.seller.wallet, trade.seller.nonce,\n            trade.buyer.wallet, trade.buyer.nonce\n        );\n\n        // If exists settlement of nonce then require that wallet has not already settled\n        require(!driipSettlementState.isSettlementRoleDone(\n            wallet, party.nonce, settlementRole\n        ));\n\n        // Set address of origin or target to prevent the same settlement from being resettled by this wallet\n        driipSettlementState.setSettlementRoleDone(\n            wallet, party.nonce, settlementRole, true\n        );\n\n        // If wallet has previously settled balance of the intended currency with higher driip nonce, then don't\n        // settle its balance again\n        if (driipSettlementState.maxNonceByWalletAndCurrency(wallet, trade.currencies.intended) < party.nonce) {\n            // Update settled nonce of wallet and currency\n            driipSettlementState.setMaxNonceByWalletAndCurrency(wallet, trade.currencies.intended, party.nonce);\n\n            // Update settled balance\n            clientFund.updateSettledBalance(\n                wallet, party.balances.intended.current, trade.currencies.intended.ct,\n                trade.currencies.intended.id, \"\", trade.blockNumber\n            );\n\n            // Stage (stage function assures positive amount only)\n            clientFund.stage(\n                wallet,\n                driipSettlementChallengeState.proposalStageAmount(wallet, trade.currencies.intended),\n                trade.currencies.intended.ct, trade.currencies.intended.id, \"\"\n            );\n        }\n\n        // If wallet has previously settled balance of the conjugate currency with higher driip nonce, then don't\n        // settle its balance again\n        if (driipSettlementState.maxNonceByWalletAndCurrency(wallet, trade.currencies.conjugate) < party.nonce) {\n            // Update settled nonce of wallet and currency\n            driipSettlementState.setMaxNonceByWalletAndCurrency(wallet, trade.currencies.conjugate, party.nonce);\n\n            // Update settled balance\n            clientFund.updateSettledBalance(\n                wallet, party.balances.conjugate.current, trade.currencies.conjugate.ct,\n                trade.currencies.conjugate.id, \"\", trade.blockNumber\n            );\n\n            // Stage (stage function assures positive amount only)\n            clientFund.stage(\n                wallet,\n                driipSettlementChallengeState.proposalStageAmount(wallet, trade.currencies.conjugate),\n                trade.currencies.conjugate.ct, trade.currencies.conjugate.id, \"\"\n            );\n        }\n\n        // Stage fees to revenue fund\n        if (address(0) != address(revenueFund))\n            _stageFees(wallet, party.fees.total, revenueFund, party.nonce);\n\n        // If trade global nonce is beyond max driip nonce then update max driip nonce\n        if (trade.nonce > driipSettlementState.maxDriipNonce())\n            driipSettlementState.setMaxDriipNonce(trade.nonce);\n    }\n\n    function _getRoleProperties(TradeTypesLib.Trade trade, address wallet)\n    private\n    view\n    returns (\n        DriipSettlementTypesLib.SettlementRole settlementRole,\n        TradeTypesLib.TradeParty memory party\n    )\n    {\n        if (validator.isTradeSeller(trade, wallet)) {\n            settlementRole = DriipSettlementTypesLib.SettlementRole.Origin;\n            party = trade.seller;\n\n        } else {\n            settlementRole = DriipSettlementTypesLib.SettlementRole.Target;\n            party = trade.buyer;\n        }\n    }\n\n    function _stageFees(address wallet, NahmiiTypesLib.OriginFigure[] fees,\n        Beneficiary protocolBeneficiary, uint256 nonce)\n    private\n    {\n        // For each origin figure...\n        for (uint256 i = 0; i < fees.length; i++) {\n            // Based on originId determine if this is protocol or partner fee, and if the latter define originId as destination in beneficiary\n            (Beneficiary beneficiary, address destination) =\n            (0 == fees[i].originId) ? (protocolBeneficiary, address(0)) : (partnerFund, address(fees[i].originId));\n\n            if (driipSettlementState.totalFee(wallet, beneficiary, destination, fees[i].figure.currency).nonce < nonce) {\n                // Get the amount previously staged\n                int256 deltaAmount = fees[i].figure.amount - driipSettlementState.totalFee(wallet, beneficiary, destination, fees[i].figure.currency).amount;\n\n                // Update fee total\n                driipSettlementState.setTotalFee(wallet, beneficiary, destination, fees[i].figure.currency, MonetaryTypesLib.NoncedAmount(nonce, fees[i].figure.amount));\n\n                // Transfer to beneficiary\n                clientFund.transferToBeneficiary(\n                    destination, beneficiary, deltaAmount, fees[i].figure.currency.ct, fees[i].figure.currency.id, \"\"\n                );\n\n                // Emit event\n                emit StageFeesEvent(\n                    wallet, deltaAmount, fees[i].figure.amount, fees[i].figure.currency.ct, fees[i].figure.currency.id\n                );\n            }\n        }\n    }\n}",
  "sourcePath": "/opt/buildagent/work/855e104608380c36/contracts/DriipSettlementByTrade.sol",
  "compiler": {
    "name": "solc",
    "version": "0.4.25+commit.59dbf8f1.Emscripten.clang"
  },
  "schemaVersion": "2.0.2",
  "updatedAt": "2019-04-18T00:23:49.504Z"
}