{
  "contractName": "DriipSettlementByPayment",
  "abi": [
    {
      "constant": false,
      "inputs": [
        {
          "internalType": "contract FraudChallenge",
          "name": "newFraudChallenge",
          "type": "address"
        }
      ],
      "name": "setFraudChallenge",
      "outputs": [],
      "payable": false,
      "stateMutability": "nonpayable",
      "type": "function"
    },
    {
      "constant": false,
      "inputs": [
        {
          "internalType": "contract Validator",
          "name": "newValidator",
          "type": "address"
        }
      ],
      "name": "setValidator",
      "outputs": [],
      "payable": false,
      "stateMutability": "nonpayable",
      "type": "function"
    },
    {
      "constant": true,
      "inputs": [],
      "name": "balanceTracker",
      "outputs": [
        {
          "internalType": "contract BalanceTracker",
          "name": "",
          "type": "address"
        }
      ],
      "payable": false,
      "stateMutability": "view",
      "type": "function"
    },
    {
      "constant": true,
      "inputs": [],
      "name": "walletLockerFrozen",
      "outputs": [
        {
          "internalType": "bool",
          "name": "",
          "type": "bool"
        }
      ],
      "payable": false,
      "stateMutability": "view",
      "type": "function"
    },
    {
      "constant": true,
      "inputs": [],
      "name": "driipSettlementState",
      "outputs": [
        {
          "internalType": "contract DriipSettlementState",
          "name": "",
          "type": "address"
        }
      ],
      "payable": false,
      "stateMutability": "view",
      "type": "function"
    },
    {
      "constant": false,
      "inputs": [],
      "name": "triggerSelfDestruction",
      "outputs": [],
      "payable": false,
      "stateMutability": "nonpayable",
      "type": "function"
    },
    {
      "constant": true,
      "inputs": [],
      "name": "selfDestructionDisabled",
      "outputs": [
        {
          "internalType": "bool",
          "name": "",
          "type": "bool"
        }
      ],
      "payable": false,
      "stateMutability": "view",
      "type": "function"
    },
    {
      "constant": true,
      "inputs": [],
      "name": "validator",
      "outputs": [
        {
          "internalType": "contract Validator",
          "name": "",
          "type": "address"
        }
      ],
      "payable": false,
      "stateMutability": "view",
      "type": "function"
    },
    {
      "constant": true,
      "inputs": [],
      "name": "fraudChallenge",
      "outputs": [
        {
          "internalType": "contract FraudChallenge",
          "name": "",
          "type": "address"
        }
      ],
      "payable": false,
      "stateMutability": "view",
      "type": "function"
    },
    {
      "constant": true,
      "inputs": [],
      "name": "balanceTrackerFrozen",
      "outputs": [
        {
          "internalType": "bool",
          "name": "",
          "type": "bool"
        }
      ],
      "payable": false,
      "stateMutability": "view",
      "type": "function"
    },
    {
      "constant": true,
      "inputs": [],
      "name": "destructor",
      "outputs": [
        {
          "internalType": "address",
          "name": "",
          "type": "address"
        }
      ],
      "payable": false,
      "stateMutability": "view",
      "type": "function"
    },
    {
      "constant": true,
      "inputs": [],
      "name": "driipSettlementChallengeState",
      "outputs": [
        {
          "internalType": "contract DriipSettlementChallengeState",
          "name": "",
          "type": "address"
        }
      ],
      "payable": false,
      "stateMutability": "view",
      "type": "function"
    },
    {
      "constant": true,
      "inputs": [],
      "name": "operator",
      "outputs": [
        {
          "internalType": "address",
          "name": "",
          "type": "address"
        }
      ],
      "payable": false,
      "stateMutability": "view",
      "type": "function"
    },
    {
      "constant": false,
      "inputs": [
        {
          "internalType": "contract PartnerBenefactor",
          "name": "newPartnerBenefactor",
          "type": "address"
        }
      ],
      "name": "setPartnerBenefactor",
      "outputs": [],
      "payable": false,
      "stateMutability": "nonpayable",
      "type": "function"
    },
    {
      "constant": false,
      "inputs": [
        {
          "internalType": "contract BalanceTracker",
          "name": "newBalanceTracker",
          "type": "address"
        }
      ],
      "name": "setBalanceTracker",
      "outputs": [],
      "payable": false,
      "stateMutability": "nonpayable",
      "type": "function"
    },
    {
      "constant": false,
      "inputs": [],
      "name": "freezeWalletLocker",
      "outputs": [],
      "payable": false,
      "stateMutability": "nonpayable",
      "type": "function"
    },
    {
      "constant": false,
      "inputs": [
        {
          "internalType": "contract Configuration",
          "name": "newConfiguration",
          "type": "address"
        }
      ],
      "name": "setConfiguration",
      "outputs": [],
      "payable": false,
      "stateMutability": "nonpayable",
      "type": "function"
    },
    {
      "constant": false,
      "inputs": [],
      "name": "freezeCommunityVote",
      "outputs": [],
      "payable": false,
      "stateMutability": "nonpayable",
      "type": "function"
    },
    {
      "constant": true,
      "inputs": [],
      "name": "configuration",
      "outputs": [
        {
          "internalType": "contract Configuration",
          "name": "",
          "type": "address"
        }
      ],
      "payable": false,
      "stateMutability": "view",
      "type": "function"
    },
    {
      "constant": false,
      "inputs": [],
      "name": "disableSelfDestruction",
      "outputs": [],
      "payable": false,
      "stateMutability": "nonpayable",
      "type": "function"
    },
    {
      "constant": false,
      "inputs": [
        {
          "internalType": "contract WalletLocker",
          "name": "newWalletLocker",
          "type": "address"
        }
      ],
      "name": "setWalletLocker",
      "outputs": [],
      "payable": false,
      "stateMutability": "nonpayable",
      "type": "function"
    },
    {
      "constant": true,
      "inputs": [],
      "name": "partnerBenefactor",
      "outputs": [
        {
          "internalType": "contract PartnerBenefactor",
          "name": "",
          "type": "address"
        }
      ],
      "payable": false,
      "stateMutability": "view",
      "type": "function"
    },
    {
      "constant": true,
      "inputs": [],
      "name": "communityVoteFrozen",
      "outputs": [
        {
          "internalType": "bool",
          "name": "",
          "type": "bool"
        }
      ],
      "payable": false,
      "stateMutability": "view",
      "type": "function"
    },
    {
      "constant": true,
      "inputs": [],
      "name": "revenueFund",
      "outputs": [
        {
          "internalType": "contract RevenueFund",
          "name": "",
          "type": "address"
        }
      ],
      "payable": false,
      "stateMutability": "view",
      "type": "function"
    },
    {
      "constant": false,
      "inputs": [
        {
          "internalType": "address",
          "name": "newDeployer",
          "type": "address"
        }
      ],
      "name": "setDeployer",
      "outputs": [],
      "payable": false,
      "stateMutability": "nonpayable",
      "type": "function"
    },
    {
      "constant": false,
      "inputs": [
        {
          "internalType": "address",
          "name": "newOperator",
          "type": "address"
        }
      ],
      "name": "setOperator",
      "outputs": [],
      "payable": false,
      "stateMutability": "nonpayable",
      "type": "function"
    },
    {
      "constant": false,
      "inputs": [],
      "name": "freezeBalanceTracker",
      "outputs": [],
      "payable": false,
      "stateMutability": "nonpayable",
      "type": "function"
    },
    {
      "constant": false,
      "inputs": [
        {
          "internalType": "contract ClientFund",
          "name": "newClientFund",
          "type": "address"
        }
      ],
      "name": "setClientFund",
      "outputs": [],
      "payable": false,
      "stateMutability": "nonpayable",
      "type": "function"
    },
    {
      "constant": true,
      "inputs": [],
      "name": "communityVote",
      "outputs": [
        {
          "internalType": "contract CommunityVote",
          "name": "",
          "type": "address"
        }
      ],
      "payable": false,
      "stateMutability": "view",
      "type": "function"
    },
    {
      "constant": true,
      "inputs": [],
      "name": "deployer",
      "outputs": [
        {
          "internalType": "address",
          "name": "",
          "type": "address"
        }
      ],
      "payable": false,
      "stateMutability": "view",
      "type": "function"
    },
    {
      "constant": true,
      "inputs": [],
      "name": "clientFund",
      "outputs": [
        {
          "internalType": "contract ClientFund",
          "name": "",
          "type": "address"
        }
      ],
      "payable": false,
      "stateMutability": "view",
      "type": "function"
    },
    {
      "constant": false,
      "inputs": [
        {
          "internalType": "contract CommunityVote",
          "name": "newCommunityVote",
          "type": "address"
        }
      ],
      "name": "setCommunityVote",
      "outputs": [],
      "payable": false,
      "stateMutability": "nonpayable",
      "type": "function"
    },
    {
      "constant": true,
      "inputs": [],
      "name": "walletLocker",
      "outputs": [
        {
          "internalType": "contract WalletLocker",
          "name": "",
          "type": "address"
        }
      ],
      "payable": false,
      "stateMutability": "view",
      "type": "function"
    },
    {
      "inputs": [
        {
          "internalType": "address",
          "name": "deployer",
          "type": "address"
        }
      ],
      "payable": false,
      "stateMutability": "nonpayable",
      "type": "constructor"
    },
    {
      "anonymous": false,
      "inputs": [
        {
          "indexed": false,
          "internalType": "address",
          "name": "wallet",
          "type": "address"
        },
        {
          "components": [
            {
              "internalType": "int256",
              "name": "amount",
              "type": "int256"
            },
            {
              "components": [
                {
                  "internalType": "address",
                  "name": "ct",
                  "type": "address"
                },
                {
                  "internalType": "uint256",
                  "name": "id",
                  "type": "uint256"
                }
              ],
              "internalType": "struct MonetaryTypesLib.Currency",
              "name": "currency",
              "type": "tuple"
            },
            {
              "components": [
                {
                  "internalType": "uint256",
                  "name": "nonce",
                  "type": "uint256"
                },
                {
                  "internalType": "address",
                  "name": "wallet",
                  "type": "address"
                },
                {
                  "components": [
                    {
                      "internalType": "int256",
                      "name": "current",
                      "type": "int256"
                    },
                    {
                      "internalType": "int256",
                      "name": "previous",
                      "type": "int256"
                    }
                  ],
                  "internalType": "struct NahmiiTypesLib.CurrentPreviousInt256",
                  "name": "balances",
                  "type": "tuple"
                },
                {
                  "components": [
                    {
                      "components": [
                        {
                          "internalType": "int256",
                          "name": "amount",
                          "type": "int256"
                        },
                        {
                          "components": [
                            {
                              "internalType": "address",
                              "name": "ct",
                              "type": "address"
                            },
                            {
                              "internalType": "uint256",
                              "name": "id",
                              "type": "uint256"
                            }
                          ],
                          "internalType": "struct MonetaryTypesLib.Currency",
                          "name": "currency",
                          "type": "tuple"
                        }
                      ],
                      "internalType": "struct MonetaryTypesLib.Figure",
                      "name": "single",
                      "type": "tuple"
                    },
                    {
                      "components": [
                        {
                          "internalType": "uint256",
                          "name": "originId",
                          "type": "uint256"
                        },
                        {
                          "components": [
                            {
                              "internalType": "int256",
                              "name": "amount",
                              "type": "int256"
                            },
                            {
                              "components": [
                                {
                                  "internalType": "address",
                                  "name": "ct",
                                  "type": "address"
                                },
                                {
                                  "internalType": "uint256",
                                  "name": "id",
                                  "type": "uint256"
                                }
                              ],
                              "internalType": "struct MonetaryTypesLib.Currency",
                              "name": "currency",
                              "type": "tuple"
                            }
                          ],
                          "internalType": "struct MonetaryTypesLib.Figure",
                          "name": "figure",
                          "type": "tuple"
                        }
                      ],
                      "internalType": "struct NahmiiTypesLib.OriginFigure[]",
                      "name": "total",
                      "type": "tuple[]"
                    }
                  ],
                  "internalType": "struct NahmiiTypesLib.SingleFigureTotalOriginFigures",
                  "name": "fees",
                  "type": "tuple"
                },
                {
                  "internalType": "string",
                  "name": "data",
                  "type": "string"
                }
              ],
              "internalType": "struct PaymentTypesLib.PaymentSenderParty",
              "name": "sender",
              "type": "tuple"
            },
            {
              "components": [
                {
                  "internalType": "uint256",
                  "name": "nonce",
                  "type": "uint256"
                },
                {
                  "internalType": "address",
                  "name": "wallet",
                  "type": "address"
                },
                {
                  "components": [
                    {
                      "internalType": "int256",
                      "name": "current",
                      "type": "int256"
                    },
                    {
                      "internalType": "int256",
                      "name": "previous",
                      "type": "int256"
                    }
                  ],
                  "internalType": "struct NahmiiTypesLib.CurrentPreviousInt256",
                  "name": "balances",
                  "type": "tuple"
                },
                {
                  "components": [
                    {
                      "components": [
                        {
                          "internalType": "uint256",
                          "name": "originId",
                          "type": "uint256"
                        },
                        {
                          "components": [
                            {
                              "internalType": "int256",
                              "name": "amount",
                              "type": "int256"
                            },
                            {
                              "components": [
                                {
                                  "internalType": "address",
                                  "name": "ct",
                                  "type": "address"
                                },
                                {
                                  "internalType": "uint256",
                                  "name": "id",
                                  "type": "uint256"
                                }
                              ],
                              "internalType": "struct MonetaryTypesLib.Currency",
                              "name": "currency",
                              "type": "tuple"
                            }
                          ],
                          "internalType": "struct MonetaryTypesLib.Figure",
                          "name": "figure",
                          "type": "tuple"
                        }
                      ],
                      "internalType": "struct NahmiiTypesLib.OriginFigure[]",
                      "name": "total",
                      "type": "tuple[]"
                    }
                  ],
                  "internalType": "struct NahmiiTypesLib.TotalOriginFigures",
                  "name": "fees",
                  "type": "tuple"
                }
              ],
              "internalType": "struct PaymentTypesLib.PaymentRecipientParty",
              "name": "recipient",
              "type": "tuple"
            },
            {
              "components": [
                {
                  "internalType": "int256",
                  "name": "single",
                  "type": "int256"
                },
                {
                  "internalType": "int256",
                  "name": "total",
                  "type": "int256"
                }
              ],
              "internalType": "struct NahmiiTypesLib.SingleTotalInt256",
              "name": "transfers",
              "type": "tuple"
            },
            {
              "components": [
                {
                  "components": [
                    {
                      "internalType": "bytes32",
                      "name": "hash",
                      "type": "bytes32"
                    },
                    {
                      "components": [
                        {
                          "internalType": "bytes32",
                          "name": "r",
                          "type": "bytes32"
                        },
                        {
                          "internalType": "bytes32",
                          "name": "s",
                          "type": "bytes32"
                        },
                        {
                          "internalType": "uint8",
                          "name": "v",
                          "type": "uint8"
                        }
                      ],
                      "internalType": "struct NahmiiTypesLib.Signature",
                      "name": "signature",
                      "type": "tuple"
                    }
                  ],
                  "internalType": "struct NahmiiTypesLib.Seal",
                  "name": "wallet",
                  "type": "tuple"
                },
                {
                  "components": [
                    {
                      "internalType": "bytes32",
                      "name": "hash",
                      "type": "bytes32"
                    },
                    {
                      "components": [
                        {
                          "internalType": "bytes32",
                          "name": "r",
                          "type": "bytes32"
                        },
                        {
                          "internalType": "bytes32",
                          "name": "s",
                          "type": "bytes32"
                        },
                        {
                          "internalType": "uint8",
                          "name": "v",
                          "type": "uint8"
                        }
                      ],
                      "internalType": "struct NahmiiTypesLib.Signature",
                      "name": "signature",
                      "type": "tuple"
                    }
                  ],
                  "internalType": "struct NahmiiTypesLib.Seal",
                  "name": "operator",
                  "type": "tuple"
                }
              ],
              "internalType": "struct NahmiiTypesLib.WalletOperatorSeal",
              "name": "seals",
              "type": "tuple"
            },
            {
              "internalType": "uint256",
              "name": "blockNumber",
              "type": "uint256"
            },
            {
              "components": [
                {
                  "internalType": "uint256",
                  "name": "id",
                  "type": "uint256"
                },
                {
                  "internalType": "string",
                  "name": "data",
                  "type": "string"
                }
              ],
              "internalType": "struct PaymentTypesLib.Operator",
              "name": "operator",
              "type": "tuple"
            }
          ],
          "indexed": false,
          "internalType": "struct PaymentTypesLib.Payment",
          "name": "payment",
          "type": "tuple"
        },
        {
          "indexed": false,
          "internalType": "string",
          "name": "standard",
          "type": "string"
        }
      ],
      "name": "SettlePaymentEvent",
      "type": "event"
    },
    {
      "anonymous": false,
      "inputs": [
        {
          "indexed": false,
          "internalType": "address",
          "name": "proxy",
          "type": "address"
        },
        {
          "indexed": false,
          "internalType": "address",
          "name": "wallet",
          "type": "address"
        },
        {
          "components": [
            {
              "internalType": "int256",
              "name": "amount",
              "type": "int256"
            },
            {
              "components": [
                {
                  "internalType": "address",
                  "name": "ct",
                  "type": "address"
                },
                {
                  "internalType": "uint256",
                  "name": "id",
                  "type": "uint256"
                }
              ],
              "internalType": "struct MonetaryTypesLib.Currency",
              "name": "currency",
              "type": "tuple"
            },
            {
              "components": [
                {
                  "internalType": "uint256",
                  "name": "nonce",
                  "type": "uint256"
                },
                {
                  "internalType": "address",
                  "name": "wallet",
                  "type": "address"
                },
                {
                  "components": [
                    {
                      "internalType": "int256",
                      "name": "current",
                      "type": "int256"
                    },
                    {
                      "internalType": "int256",
                      "name": "previous",
                      "type": "int256"
                    }
                  ],
                  "internalType": "struct NahmiiTypesLib.CurrentPreviousInt256",
                  "name": "balances",
                  "type": "tuple"
                },
                {
                  "components": [
                    {
                      "components": [
                        {
                          "internalType": "int256",
                          "name": "amount",
                          "type": "int256"
                        },
                        {
                          "components": [
                            {
                              "internalType": "address",
                              "name": "ct",
                              "type": "address"
                            },
                            {
                              "internalType": "uint256",
                              "name": "id",
                              "type": "uint256"
                            }
                          ],
                          "internalType": "struct MonetaryTypesLib.Currency",
                          "name": "currency",
                          "type": "tuple"
                        }
                      ],
                      "internalType": "struct MonetaryTypesLib.Figure",
                      "name": "single",
                      "type": "tuple"
                    },
                    {
                      "components": [
                        {
                          "internalType": "uint256",
                          "name": "originId",
                          "type": "uint256"
                        },
                        {
                          "components": [
                            {
                              "internalType": "int256",
                              "name": "amount",
                              "type": "int256"
                            },
                            {
                              "components": [
                                {
                                  "internalType": "address",
                                  "name": "ct",
                                  "type": "address"
                                },
                                {
                                  "internalType": "uint256",
                                  "name": "id",
                                  "type": "uint256"
                                }
                              ],
                              "internalType": "struct MonetaryTypesLib.Currency",
                              "name": "currency",
                              "type": "tuple"
                            }
                          ],
                          "internalType": "struct MonetaryTypesLib.Figure",
                          "name": "figure",
                          "type": "tuple"
                        }
                      ],
                      "internalType": "struct NahmiiTypesLib.OriginFigure[]",
                      "name": "total",
                      "type": "tuple[]"
                    }
                  ],
                  "internalType": "struct NahmiiTypesLib.SingleFigureTotalOriginFigures",
                  "name": "fees",
                  "type": "tuple"
                },
                {
                  "internalType": "string",
                  "name": "data",
                  "type": "string"
                }
              ],
              "internalType": "struct PaymentTypesLib.PaymentSenderParty",
              "name": "sender",
              "type": "tuple"
            },
            {
              "components": [
                {
                  "internalType": "uint256",
                  "name": "nonce",
                  "type": "uint256"
                },
                {
                  "internalType": "address",
                  "name": "wallet",
                  "type": "address"
                },
                {
                  "components": [
                    {
                      "internalType": "int256",
                      "name": "current",
                      "type": "int256"
                    },
                    {
                      "internalType": "int256",
                      "name": "previous",
                      "type": "int256"
                    }
                  ],
                  "internalType": "struct NahmiiTypesLib.CurrentPreviousInt256",
                  "name": "balances",
                  "type": "tuple"
                },
                {
                  "components": [
                    {
                      "components": [
                        {
                          "internalType": "uint256",
                          "name": "originId",
                          "type": "uint256"
                        },
                        {
                          "components": [
                            {
                              "internalType": "int256",
                              "name": "amount",
                              "type": "int256"
                            },
                            {
                              "components": [
                                {
                                  "internalType": "address",
                                  "name": "ct",
                                  "type": "address"
                                },
                                {
                                  "internalType": "uint256",
                                  "name": "id",
                                  "type": "uint256"
                                }
                              ],
                              "internalType": "struct MonetaryTypesLib.Currency",
                              "name": "currency",
                              "type": "tuple"
                            }
                          ],
                          "internalType": "struct MonetaryTypesLib.Figure",
                          "name": "figure",
                          "type": "tuple"
                        }
                      ],
                      "internalType": "struct NahmiiTypesLib.OriginFigure[]",
                      "name": "total",
                      "type": "tuple[]"
                    }
                  ],
                  "internalType": "struct NahmiiTypesLib.TotalOriginFigures",
                  "name": "fees",
                  "type": "tuple"
                }
              ],
              "internalType": "struct PaymentTypesLib.PaymentRecipientParty",
              "name": "recipient",
              "type": "tuple"
            },
            {
              "components": [
                {
                  "internalType": "int256",
                  "name": "single",
                  "type": "int256"
                },
                {
                  "internalType": "int256",
                  "name": "total",
                  "type": "int256"
                }
              ],
              "internalType": "struct NahmiiTypesLib.SingleTotalInt256",
              "name": "transfers",
              "type": "tuple"
            },
            {
              "components": [
                {
                  "components": [
                    {
                      "internalType": "bytes32",
                      "name": "hash",
                      "type": "bytes32"
                    },
                    {
                      "components": [
                        {
                          "internalType": "bytes32",
                          "name": "r",
                          "type": "bytes32"
                        },
                        {
                          "internalType": "bytes32",
                          "name": "s",
                          "type": "bytes32"
                        },
                        {
                          "internalType": "uint8",
                          "name": "v",
                          "type": "uint8"
                        }
                      ],
                      "internalType": "struct NahmiiTypesLib.Signature",
                      "name": "signature",
                      "type": "tuple"
                    }
                  ],
                  "internalType": "struct NahmiiTypesLib.Seal",
                  "name": "wallet",
                  "type": "tuple"
                },
                {
                  "components": [
                    {
                      "internalType": "bytes32",
                      "name": "hash",
                      "type": "bytes32"
                    },
                    {
                      "components": [
                        {
                          "internalType": "bytes32",
                          "name": "r",
                          "type": "bytes32"
                        },
                        {
                          "internalType": "bytes32",
                          "name": "s",
                          "type": "bytes32"
                        },
                        {
                          "internalType": "uint8",
                          "name": "v",
                          "type": "uint8"
                        }
                      ],
                      "internalType": "struct NahmiiTypesLib.Signature",
                      "name": "signature",
                      "type": "tuple"
                    }
                  ],
                  "internalType": "struct NahmiiTypesLib.Seal",
                  "name": "operator",
                  "type": "tuple"
                }
              ],
              "internalType": "struct NahmiiTypesLib.WalletOperatorSeal",
              "name": "seals",
              "type": "tuple"
            },
            {
              "internalType": "uint256",
              "name": "blockNumber",
              "type": "uint256"
            },
            {
              "components": [
                {
                  "internalType": "uint256",
                  "name": "id",
                  "type": "uint256"
                },
                {
                  "internalType": "string",
                  "name": "data",
                  "type": "string"
                }
              ],
              "internalType": "struct PaymentTypesLib.Operator",
              "name": "operator",
              "type": "tuple"
            }
          ],
          "indexed": false,
          "internalType": "struct PaymentTypesLib.Payment",
          "name": "payment",
          "type": "tuple"
        },
        {
          "indexed": false,
          "internalType": "string",
          "name": "standard",
          "type": "string"
        }
      ],
      "name": "SettlePaymentByProxyEvent",
      "type": "event"
    },
    {
      "anonymous": false,
      "inputs": [
        {
          "indexed": false,
          "internalType": "contract DriipSettlementChallengeState",
          "name": "oldDriipSettlementChallengeState",
          "type": "address"
        },
        {
          "indexed": false,
          "internalType": "contract DriipSettlementChallengeState",
          "name": "newDriipSettlementChallengeState",
          "type": "address"
        }
      ],
      "name": "SetDriipSettlementChallengeStateEvent",
      "type": "event"
    },
    {
      "anonymous": false,
      "inputs": [
        {
          "indexed": false,
          "internalType": "contract DriipSettlementState",
          "name": "oldDriipSettlementState",
          "type": "address"
        },
        {
          "indexed": false,
          "internalType": "contract DriipSettlementState",
          "name": "newDriipSettlementState",
          "type": "address"
        }
      ],
      "name": "SetDriipSettlementStateEvent",
      "type": "event"
    },
    {
      "anonymous": false,
      "inputs": [
        {
          "indexed": false,
          "internalType": "contract RevenueFund",
          "name": "oldRevenueFund",
          "type": "address"
        },
        {
          "indexed": false,
          "internalType": "contract RevenueFund",
          "name": "newRevenueFund",
          "type": "address"
        }
      ],
      "name": "SetRevenueFundEvent",
      "type": "event"
    },
    {
      "anonymous": false,
      "inputs": [
        {
          "indexed": false,
          "internalType": "address",
          "name": "wallet",
          "type": "address"
        },
        {
          "indexed": false,
          "internalType": "int256",
          "name": "deltaAmount",
          "type": "int256"
        },
        {
          "indexed": false,
          "internalType": "int256",
          "name": "cumulativeAmount",
          "type": "int256"
        },
        {
          "indexed": false,
          "internalType": "address",
          "name": "currencyCt",
          "type": "address"
        },
        {
          "indexed": false,
          "internalType": "uint256",
          "name": "currencyId",
          "type": "uint256"
        }
      ],
      "name": "StageFeesEvent",
      "type": "event"
    },
    {
      "anonymous": false,
      "inputs": [
        {
          "indexed": false,
          "internalType": "contract PartnerBenefactor",
          "name": "oldPartnerBenefactor",
          "type": "address"
        },
        {
          "indexed": false,
          "internalType": "contract PartnerBenefactor",
          "name": "newPartnerBenefactor",
          "type": "address"
        }
      ],
      "name": "SetPartnerBenefactorEvent",
      "type": "event"
    },
    {
      "anonymous": false,
      "inputs": [
        {
          "indexed": false,
          "internalType": "contract WalletLocker",
          "name": "oldWalletLocker",
          "type": "address"
        },
        {
          "indexed": false,
          "internalType": "contract WalletLocker",
          "name": "newWalletLocker",
          "type": "address"
        }
      ],
      "name": "SetWalletLockerEvent",
      "type": "event"
    },
    {
      "anonymous": false,
      "inputs": [],
      "name": "FreezeWalletLockerEvent",
      "type": "event"
    },
    {
      "anonymous": false,
      "inputs": [
        {
          "indexed": false,
          "internalType": "contract FraudChallenge",
          "name": "oldFraudChallenge",
          "type": "address"
        },
        {
          "indexed": false,
          "internalType": "contract FraudChallenge",
          "name": "newFraudChallenge",
          "type": "address"
        }
      ],
      "name": "SetFraudChallengeEvent",
      "type": "event"
    },
    {
      "anonymous": false,
      "inputs": [
        {
          "indexed": false,
          "internalType": "contract CommunityVote",
          "name": "oldCommunityVote",
          "type": "address"
        },
        {
          "indexed": false,
          "internalType": "contract CommunityVote",
          "name": "newCommunityVote",
          "type": "address"
        }
      ],
      "name": "SetCommunityVoteEvent",
      "type": "event"
    },
    {
      "anonymous": false,
      "inputs": [],
      "name": "FreezeCommunityVoteEvent",
      "type": "event"
    },
    {
      "anonymous": false,
      "inputs": [
        {
          "indexed": false,
          "internalType": "contract BalanceTracker",
          "name": "oldBalanceTracker",
          "type": "address"
        },
        {
          "indexed": false,
          "internalType": "contract BalanceTracker",
          "name": "newBalanceTracker",
          "type": "address"
        }
      ],
      "name": "SetBalanceTrackerEvent",
      "type": "event"
    },
    {
      "anonymous": false,
      "inputs": [],
      "name": "FreezeBalanceTrackerEvent",
      "type": "event"
    },
    {
      "anonymous": false,
      "inputs": [
        {
          "indexed": false,
          "internalType": "contract ClientFund",
          "name": "oldClientFund",
          "type": "address"
        },
        {
          "indexed": false,
          "internalType": "contract ClientFund",
          "name": "newClientFund",
          "type": "address"
        }
      ],
      "name": "SetClientFundEvent",
      "type": "event"
    },
    {
      "anonymous": false,
      "inputs": [
        {
          "indexed": false,
          "internalType": "contract Validator",
          "name": "oldValidator",
          "type": "address"
        },
        {
          "indexed": false,
          "internalType": "contract Validator",
          "name": "newValidator",
          "type": "address"
        }
      ],
      "name": "SetValidatorEvent",
      "type": "event"
    },
    {
      "anonymous": false,
      "inputs": [
        {
          "indexed": false,
          "internalType": "contract Configuration",
          "name": "oldConfiguration",
          "type": "address"
        },
        {
          "indexed": false,
          "internalType": "contract Configuration",
          "name": "newConfiguration",
          "type": "address"
        }
      ],
      "name": "SetConfigurationEvent",
      "type": "event"
    },
    {
      "anonymous": false,
      "inputs": [
        {
          "indexed": false,
          "internalType": "address",
          "name": "oldDeployer",
          "type": "address"
        },
        {
          "indexed": false,
          "internalType": "address",
          "name": "newDeployer",
          "type": "address"
        }
      ],
      "name": "SetDeployerEvent",
      "type": "event"
    },
    {
      "anonymous": false,
      "inputs": [
        {
          "indexed": false,
          "internalType": "address",
          "name": "oldOperator",
          "type": "address"
        },
        {
          "indexed": false,
          "internalType": "address",
          "name": "newOperator",
          "type": "address"
        }
      ],
      "name": "SetOperatorEvent",
      "type": "event"
    },
    {
      "anonymous": false,
      "inputs": [
        {
          "indexed": false,
          "internalType": "address",
          "name": "wallet",
          "type": "address"
        }
      ],
      "name": "SelfDestructionDisabledEvent",
      "type": "event"
    },
    {
      "anonymous": false,
      "inputs": [
        {
          "indexed": false,
          "internalType": "address",
          "name": "wallet",
          "type": "address"
        }
      ],
      "name": "TriggerSelfDestructionEvent",
      "type": "event"
    },
    {
      "constant": false,
      "inputs": [
        {
          "internalType": "contract DriipSettlementChallengeState",
          "name": "newDriipSettlementChallengeState",
          "type": "address"
        }
      ],
      "name": "setDriipSettlementChallengeState",
      "outputs": [],
      "payable": false,
      "stateMutability": "nonpayable",
      "type": "function"
    },
    {
      "constant": false,
      "inputs": [
        {
          "internalType": "contract DriipSettlementState",
          "name": "newDriipSettlementState",
          "type": "address"
        }
      ],
      "name": "setDriipSettlementState",
      "outputs": [],
      "payable": false,
      "stateMutability": "nonpayable",
      "type": "function"
    },
    {
      "constant": false,
      "inputs": [
        {
          "internalType": "contract RevenueFund",
          "name": "newRevenueFund",
          "type": "address"
        }
      ],
      "name": "setRevenueFund",
      "outputs": [],
      "payable": false,
      "stateMutability": "nonpayable",
      "type": "function"
    },
    {
      "constant": true,
      "inputs": [],
      "name": "settlementsCount",
      "outputs": [
        {
          "internalType": "uint256",
          "name": "",
          "type": "uint256"
        }
      ],
      "payable": false,
      "stateMutability": "view",
      "type": "function"
    },
    {
      "constant": true,
      "inputs": [
        {
          "internalType": "address",
          "name": "wallet",
          "type": "address"
        }
      ],
      "name": "settlementsCountByWallet",
      "outputs": [
        {
          "internalType": "uint256",
          "name": "",
          "type": "uint256"
        }
      ],
      "payable": false,
      "stateMutability": "view",
      "type": "function"
    },
    {
      "constant": true,
      "inputs": [
        {
          "internalType": "address",
          "name": "wallet",
          "type": "address"
        },
        {
          "internalType": "uint256",
          "name": "index",
          "type": "uint256"
        }
      ],
      "name": "settlementByWalletAndIndex",
      "outputs": [
        {
          "components": [
            {
              "internalType": "string",
              "name": "settledKind",
              "type": "string"
            },
            {
              "internalType": "bytes32",
              "name": "settledHash",
              "type": "bytes32"
            },
            {
              "components": [
                {
                  "internalType": "uint256",
                  "name": "nonce",
                  "type": "uint256"
                },
                {
                  "internalType": "address",
                  "name": "wallet",
                  "type": "address"
                },
                {
                  "internalType": "uint256",
                  "name": "doneBlockNumber",
                  "type": "uint256"
                }
              ],
              "internalType": "struct DriipSettlementTypesLib.SettlementParty",
              "name": "origin",
              "type": "tuple"
            },
            {
              "components": [
                {
                  "internalType": "uint256",
                  "name": "nonce",
                  "type": "uint256"
                },
                {
                  "internalType": "address",
                  "name": "wallet",
                  "type": "address"
                },
                {
                  "internalType": "uint256",
                  "name": "doneBlockNumber",
                  "type": "uint256"
                }
              ],
              "internalType": "struct DriipSettlementTypesLib.SettlementParty",
              "name": "target",
              "type": "tuple"
            }
          ],
          "internalType": "struct DriipSettlementTypesLib.Settlement",
          "name": "",
          "type": "tuple"
        }
      ],
      "payable": false,
      "stateMutability": "view",
      "type": "function"
    },
    {
      "constant": true,
      "inputs": [
        {
          "internalType": "address",
          "name": "wallet",
          "type": "address"
        },
        {
          "internalType": "uint256",
          "name": "nonce",
          "type": "uint256"
        }
      ],
      "name": "settlementByWalletAndNonce",
      "outputs": [
        {
          "components": [
            {
              "internalType": "string",
              "name": "settledKind",
              "type": "string"
            },
            {
              "internalType": "bytes32",
              "name": "settledHash",
              "type": "bytes32"
            },
            {
              "components": [
                {
                  "internalType": "uint256",
                  "name": "nonce",
                  "type": "uint256"
                },
                {
                  "internalType": "address",
                  "name": "wallet",
                  "type": "address"
                },
                {
                  "internalType": "uint256",
                  "name": "doneBlockNumber",
                  "type": "uint256"
                }
              ],
              "internalType": "struct DriipSettlementTypesLib.SettlementParty",
              "name": "origin",
              "type": "tuple"
            },
            {
              "components": [
                {
                  "internalType": "uint256",
                  "name": "nonce",
                  "type": "uint256"
                },
                {
                  "internalType": "address",
                  "name": "wallet",
                  "type": "address"
                },
                {
                  "internalType": "uint256",
                  "name": "doneBlockNumber",
                  "type": "uint256"
                }
              ],
              "internalType": "struct DriipSettlementTypesLib.SettlementParty",
              "name": "target",
              "type": "tuple"
            }
          ],
          "internalType": "struct DriipSettlementTypesLib.Settlement",
          "name": "",
          "type": "tuple"
        }
      ],
      "payable": false,
      "stateMutability": "view",
      "type": "function"
    },
    {
      "constant": false,
      "inputs": [
        {
          "components": [
            {
              "internalType": "int256",
              "name": "amount",
              "type": "int256"
            },
            {
              "components": [
                {
                  "internalType": "address",
                  "name": "ct",
                  "type": "address"
                },
                {
                  "internalType": "uint256",
                  "name": "id",
                  "type": "uint256"
                }
              ],
              "internalType": "struct MonetaryTypesLib.Currency",
              "name": "currency",
              "type": "tuple"
            },
            {
              "components": [
                {
                  "internalType": "uint256",
                  "name": "nonce",
                  "type": "uint256"
                },
                {
                  "internalType": "address",
                  "name": "wallet",
                  "type": "address"
                },
                {
                  "components": [
                    {
                      "internalType": "int256",
                      "name": "current",
                      "type": "int256"
                    },
                    {
                      "internalType": "int256",
                      "name": "previous",
                      "type": "int256"
                    }
                  ],
                  "internalType": "struct NahmiiTypesLib.CurrentPreviousInt256",
                  "name": "balances",
                  "type": "tuple"
                },
                {
                  "components": [
                    {
                      "components": [
                        {
                          "internalType": "int256",
                          "name": "amount",
                          "type": "int256"
                        },
                        {
                          "components": [
                            {
                              "internalType": "address",
                              "name": "ct",
                              "type": "address"
                            },
                            {
                              "internalType": "uint256",
                              "name": "id",
                              "type": "uint256"
                            }
                          ],
                          "internalType": "struct MonetaryTypesLib.Currency",
                          "name": "currency",
                          "type": "tuple"
                        }
                      ],
                      "internalType": "struct MonetaryTypesLib.Figure",
                      "name": "single",
                      "type": "tuple"
                    },
                    {
                      "components": [
                        {
                          "internalType": "uint256",
                          "name": "originId",
                          "type": "uint256"
                        },
                        {
                          "components": [
                            {
                              "internalType": "int256",
                              "name": "amount",
                              "type": "int256"
                            },
                            {
                              "components": [
                                {
                                  "internalType": "address",
                                  "name": "ct",
                                  "type": "address"
                                },
                                {
                                  "internalType": "uint256",
                                  "name": "id",
                                  "type": "uint256"
                                }
                              ],
                              "internalType": "struct MonetaryTypesLib.Currency",
                              "name": "currency",
                              "type": "tuple"
                            }
                          ],
                          "internalType": "struct MonetaryTypesLib.Figure",
                          "name": "figure",
                          "type": "tuple"
                        }
                      ],
                      "internalType": "struct NahmiiTypesLib.OriginFigure[]",
                      "name": "total",
                      "type": "tuple[]"
                    }
                  ],
                  "internalType": "struct NahmiiTypesLib.SingleFigureTotalOriginFigures",
                  "name": "fees",
                  "type": "tuple"
                },
                {
                  "internalType": "string",
                  "name": "data",
                  "type": "string"
                }
              ],
              "internalType": "struct PaymentTypesLib.PaymentSenderParty",
              "name": "sender",
              "type": "tuple"
            },
            {
              "components": [
                {
                  "internalType": "uint256",
                  "name": "nonce",
                  "type": "uint256"
                },
                {
                  "internalType": "address",
                  "name": "wallet",
                  "type": "address"
                },
                {
                  "components": [
                    {
                      "internalType": "int256",
                      "name": "current",
                      "type": "int256"
                    },
                    {
                      "internalType": "int256",
                      "name": "previous",
                      "type": "int256"
                    }
                  ],
                  "internalType": "struct NahmiiTypesLib.CurrentPreviousInt256",
                  "name": "balances",
                  "type": "tuple"
                },
                {
                  "components": [
                    {
                      "components": [
                        {
                          "internalType": "uint256",
                          "name": "originId",
                          "type": "uint256"
                        },
                        {
                          "components": [
                            {
                              "internalType": "int256",
                              "name": "amount",
                              "type": "int256"
                            },
                            {
                              "components": [
                                {
                                  "internalType": "address",
                                  "name": "ct",
                                  "type": "address"
                                },
                                {
                                  "internalType": "uint256",
                                  "name": "id",
                                  "type": "uint256"
                                }
                              ],
                              "internalType": "struct MonetaryTypesLib.Currency",
                              "name": "currency",
                              "type": "tuple"
                            }
                          ],
                          "internalType": "struct MonetaryTypesLib.Figure",
                          "name": "figure",
                          "type": "tuple"
                        }
                      ],
                      "internalType": "struct NahmiiTypesLib.OriginFigure[]",
                      "name": "total",
                      "type": "tuple[]"
                    }
                  ],
                  "internalType": "struct NahmiiTypesLib.TotalOriginFigures",
                  "name": "fees",
                  "type": "tuple"
                }
              ],
              "internalType": "struct PaymentTypesLib.PaymentRecipientParty",
              "name": "recipient",
              "type": "tuple"
            },
            {
              "components": [
                {
                  "internalType": "int256",
                  "name": "single",
                  "type": "int256"
                },
                {
                  "internalType": "int256",
                  "name": "total",
                  "type": "int256"
                }
              ],
              "internalType": "struct NahmiiTypesLib.SingleTotalInt256",
              "name": "transfers",
              "type": "tuple"
            },
            {
              "components": [
                {
                  "components": [
                    {
                      "internalType": "bytes32",
                      "name": "hash",
                      "type": "bytes32"
                    },
                    {
                      "components": [
                        {
                          "internalType": "bytes32",
                          "name": "r",
                          "type": "bytes32"
                        },
                        {
                          "internalType": "bytes32",
                          "name": "s",
                          "type": "bytes32"
                        },
                        {
                          "internalType": "uint8",
                          "name": "v",
                          "type": "uint8"
                        }
                      ],
                      "internalType": "struct NahmiiTypesLib.Signature",
                      "name": "signature",
                      "type": "tuple"
                    }
                  ],
                  "internalType": "struct NahmiiTypesLib.Seal",
                  "name": "wallet",
                  "type": "tuple"
                },
                {
                  "components": [
                    {
                      "internalType": "bytes32",
                      "name": "hash",
                      "type": "bytes32"
                    },
                    {
                      "components": [
                        {
                          "internalType": "bytes32",
                          "name": "r",
                          "type": "bytes32"
                        },
                        {
                          "internalType": "bytes32",
                          "name": "s",
                          "type": "bytes32"
                        },
                        {
                          "internalType": "uint8",
                          "name": "v",
                          "type": "uint8"
                        }
                      ],
                      "internalType": "struct NahmiiTypesLib.Signature",
                      "name": "signature",
                      "type": "tuple"
                    }
                  ],
                  "internalType": "struct NahmiiTypesLib.Seal",
                  "name": "operator",
                  "type": "tuple"
                }
              ],
              "internalType": "struct NahmiiTypesLib.WalletOperatorSeal",
              "name": "seals",
              "type": "tuple"
            },
            {
              "internalType": "uint256",
              "name": "blockNumber",
              "type": "uint256"
            },
            {
              "components": [
                {
                  "internalType": "uint256",
                  "name": "id",
                  "type": "uint256"
                },
                {
                  "internalType": "string",
                  "name": "data",
                  "type": "string"
                }
              ],
              "internalType": "struct PaymentTypesLib.Operator",
              "name": "operator",
              "type": "tuple"
            }
          ],
          "internalType": "struct PaymentTypesLib.Payment",
          "name": "payment",
          "type": "tuple"
        },
        {
          "internalType": "string",
          "name": "standard",
          "type": "string"
        }
      ],
      "name": "settlePayment",
      "outputs": [],
      "payable": false,
      "stateMutability": "nonpayable",
      "type": "function"
    },
    {
      "constant": false,
      "inputs": [
        {
          "internalType": "address",
          "name": "wallet",
          "type": "address"
        },
        {
          "components": [
            {
              "internalType": "int256",
              "name": "amount",
              "type": "int256"
            },
            {
              "components": [
                {
                  "internalType": "address",
                  "name": "ct",
                  "type": "address"
                },
                {
                  "internalType": "uint256",
                  "name": "id",
                  "type": "uint256"
                }
              ],
              "internalType": "struct MonetaryTypesLib.Currency",
              "name": "currency",
              "type": "tuple"
            },
            {
              "components": [
                {
                  "internalType": "uint256",
                  "name": "nonce",
                  "type": "uint256"
                },
                {
                  "internalType": "address",
                  "name": "wallet",
                  "type": "address"
                },
                {
                  "components": [
                    {
                      "internalType": "int256",
                      "name": "current",
                      "type": "int256"
                    },
                    {
                      "internalType": "int256",
                      "name": "previous",
                      "type": "int256"
                    }
                  ],
                  "internalType": "struct NahmiiTypesLib.CurrentPreviousInt256",
                  "name": "balances",
                  "type": "tuple"
                },
                {
                  "components": [
                    {
                      "components": [
                        {
                          "internalType": "int256",
                          "name": "amount",
                          "type": "int256"
                        },
                        {
                          "components": [
                            {
                              "internalType": "address",
                              "name": "ct",
                              "type": "address"
                            },
                            {
                              "internalType": "uint256",
                              "name": "id",
                              "type": "uint256"
                            }
                          ],
                          "internalType": "struct MonetaryTypesLib.Currency",
                          "name": "currency",
                          "type": "tuple"
                        }
                      ],
                      "internalType": "struct MonetaryTypesLib.Figure",
                      "name": "single",
                      "type": "tuple"
                    },
                    {
                      "components": [
                        {
                          "internalType": "uint256",
                          "name": "originId",
                          "type": "uint256"
                        },
                        {
                          "components": [
                            {
                              "internalType": "int256",
                              "name": "amount",
                              "type": "int256"
                            },
                            {
                              "components": [
                                {
                                  "internalType": "address",
                                  "name": "ct",
                                  "type": "address"
                                },
                                {
                                  "internalType": "uint256",
                                  "name": "id",
                                  "type": "uint256"
                                }
                              ],
                              "internalType": "struct MonetaryTypesLib.Currency",
                              "name": "currency",
                              "type": "tuple"
                            }
                          ],
                          "internalType": "struct MonetaryTypesLib.Figure",
                          "name": "figure",
                          "type": "tuple"
                        }
                      ],
                      "internalType": "struct NahmiiTypesLib.OriginFigure[]",
                      "name": "total",
                      "type": "tuple[]"
                    }
                  ],
                  "internalType": "struct NahmiiTypesLib.SingleFigureTotalOriginFigures",
                  "name": "fees",
                  "type": "tuple"
                },
                {
                  "internalType": "string",
                  "name": "data",
                  "type": "string"
                }
              ],
              "internalType": "struct PaymentTypesLib.PaymentSenderParty",
              "name": "sender",
              "type": "tuple"
            },
            {
              "components": [
                {
                  "internalType": "uint256",
                  "name": "nonce",
                  "type": "uint256"
                },
                {
                  "internalType": "address",
                  "name": "wallet",
                  "type": "address"
                },
                {
                  "components": [
                    {
                      "internalType": "int256",
                      "name": "current",
                      "type": "int256"
                    },
                    {
                      "internalType": "int256",
                      "name": "previous",
                      "type": "int256"
                    }
                  ],
                  "internalType": "struct NahmiiTypesLib.CurrentPreviousInt256",
                  "name": "balances",
                  "type": "tuple"
                },
                {
                  "components": [
                    {
                      "components": [
                        {
                          "internalType": "uint256",
                          "name": "originId",
                          "type": "uint256"
                        },
                        {
                          "components": [
                            {
                              "internalType": "int256",
                              "name": "amount",
                              "type": "int256"
                            },
                            {
                              "components": [
                                {
                                  "internalType": "address",
                                  "name": "ct",
                                  "type": "address"
                                },
                                {
                                  "internalType": "uint256",
                                  "name": "id",
                                  "type": "uint256"
                                }
                              ],
                              "internalType": "struct MonetaryTypesLib.Currency",
                              "name": "currency",
                              "type": "tuple"
                            }
                          ],
                          "internalType": "struct MonetaryTypesLib.Figure",
                          "name": "figure",
                          "type": "tuple"
                        }
                      ],
                      "internalType": "struct NahmiiTypesLib.OriginFigure[]",
                      "name": "total",
                      "type": "tuple[]"
                    }
                  ],
                  "internalType": "struct NahmiiTypesLib.TotalOriginFigures",
                  "name": "fees",
                  "type": "tuple"
                }
              ],
              "internalType": "struct PaymentTypesLib.PaymentRecipientParty",
              "name": "recipient",
              "type": "tuple"
            },
            {
              "components": [
                {
                  "internalType": "int256",
                  "name": "single",
                  "type": "int256"
                },
                {
                  "internalType": "int256",
                  "name": "total",
                  "type": "int256"
                }
              ],
              "internalType": "struct NahmiiTypesLib.SingleTotalInt256",
              "name": "transfers",
              "type": "tuple"
            },
            {
              "components": [
                {
                  "components": [
                    {
                      "internalType": "bytes32",
                      "name": "hash",
                      "type": "bytes32"
                    },
                    {
                      "components": [
                        {
                          "internalType": "bytes32",
                          "name": "r",
                          "type": "bytes32"
                        },
                        {
                          "internalType": "bytes32",
                          "name": "s",
                          "type": "bytes32"
                        },
                        {
                          "internalType": "uint8",
                          "name": "v",
                          "type": "uint8"
                        }
                      ],
                      "internalType": "struct NahmiiTypesLib.Signature",
                      "name": "signature",
                      "type": "tuple"
                    }
                  ],
                  "internalType": "struct NahmiiTypesLib.Seal",
                  "name": "wallet",
                  "type": "tuple"
                },
                {
                  "components": [
                    {
                      "internalType": "bytes32",
                      "name": "hash",
                      "type": "bytes32"
                    },
                    {
                      "components": [
                        {
                          "internalType": "bytes32",
                          "name": "r",
                          "type": "bytes32"
                        },
                        {
                          "internalType": "bytes32",
                          "name": "s",
                          "type": "bytes32"
                        },
                        {
                          "internalType": "uint8",
                          "name": "v",
                          "type": "uint8"
                        }
                      ],
                      "internalType": "struct NahmiiTypesLib.Signature",
                      "name": "signature",
                      "type": "tuple"
                    }
                  ],
                  "internalType": "struct NahmiiTypesLib.Seal",
                  "name": "operator",
                  "type": "tuple"
                }
              ],
              "internalType": "struct NahmiiTypesLib.WalletOperatorSeal",
              "name": "seals",
              "type": "tuple"
            },
            {
              "internalType": "uint256",
              "name": "blockNumber",
              "type": "uint256"
            },
            {
              "components": [
                {
                  "internalType": "uint256",
                  "name": "id",
                  "type": "uint256"
                },
                {
                  "internalType": "string",
                  "name": "data",
                  "type": "string"
                }
              ],
              "internalType": "struct PaymentTypesLib.Operator",
              "name": "operator",
              "type": "tuple"
            }
          ],
          "internalType": "struct PaymentTypesLib.Payment",
          "name": "payment",
          "type": "tuple"
        },
        {
          "internalType": "string",
          "name": "standard",
          "type": "string"
        }
      ],
      "name": "settlePaymentByProxy",
      "outputs": [],
      "payable": false,
      "stateMutability": "nonpayable",
      "type": "function"
    }
  ],
  "bytecode": "0x60806040523480156200001157600080fd5b50604051620048a8380380620048a88339810160408190526200003491620000b3565b80806001600160a01b0381166200004a57600080fd5b6001600160a01b0381163014156200006157600080fd5b5060008054610100600160a81b0319166101006001600160a01b0393909316928302179055600180546001600160a01b03191690911790555062000108565b8051620000ad81620000ee565b92915050565b600060208284031215620000c657600080fd5b6000620000d48484620000a0565b949350505050565b60006001600160a01b038216620000ad565b620000f981620000dc565b81146200010557600080fd5b50565b61479080620001186000396000f3fe608060405234801561001057600080fd5b50600436106101ee5760003560e01c806301370d06146101f35780631327d3d814610208578063191390921461021b578063240625d81461023957806325c844411461024e5780632738a112146102565780632aa1c9d91461025e5780632f013a00146102715780633a5381b5146102795780633bd7857f146102815780633e59b70614610289578063404e896f146102915780634476d23b146102a457806351d7cd61146102b9578063570ca735146102c15780635736db99146102c9578063598b75ad146102dc5780635dc60def146102ef578063627f09c3146102f7578063670732a71461030a5780636c70bee91461031257806370327ea11461031a578063892860b2146103225780638aa96f26146103355780638c6913bc1461033d5780638e9d6cbd1461035257806395ff296d1461035a5780639621473514610362578063b0c8e20514610375578063b3ab15fb14610388578063b52d470a1461039b578063b71ded2f146103a3578063bf24e7d0146103b6578063c0ffe1b4146103be578063d2f08936146103de578063d5f39488146103f1578063dd3056ca146103f9578063e754476f1461040c578063e86ab8f614610414578063e8ae41e314610427578063f152dd381461042f578063f345fb4414610442575b600080fd5b6102066102013660046134c2565b610455565b005b6102066102163660046134c2565b6104f6565b610223610587565b604051610230919061441c565b60405180910390f35b610241610596565b6040516102309190614400565b6102236105a6565b6102066105b5565b61020661026c3660046134c2565b61061b565b6102416106a2565b6102236106ab565b6102236106ba565b6102416106c9565b61020661029f3660046134c2565b6106d9565b6102ac610753565b604051610230919061400d565b610223610767565b6102ac610776565b6102066102d73660046134c2565b610785565b6102066102ea3660046134c2565b610816565b6102066108da565b6102066103053660046134c2565b610929565b6102066109ba565b610223610a09565b610206610a18565b6102066103303660046134c2565b610a7b565b610223610b36565b610345610b45565b604051610230919061440e565b610241610bc7565b610223610bd7565b6102066103703660046133b3565b610be6565b6102066103833660046133d1565b610c9c565b6102066103963660046133b3565b610ced565b610206610d90565b6102066103b13660046134c2565b610ddf565b610223610e70565b6103d16103cc36600461344c565b610e7f565b60405161023091906145ca565b6103d16103ec36600461344c565b610f16565b6102ac610f50565b61020661040736600461359e565b610f64565b610223610fae565b6102066104223660046134c2565b610fbd565b610223611078565b61020661043d3660046134c2565b611087565b6103456104503660046133b3565b611101565b61045d61118a565b61046657600080fd5b806001600160a01b03811661047a57600080fd5b60075482906001600160a01b0390811690821681146104f057600780546001600160a01b038681166001600160a01b03198316179092556040519116907f07998fa7be97abe2427246ae4688298c89d6196bbffdf0997b9495a8d27bc673906104e6908390889061442a565b60405180910390a1505b50505050565b6104fe61118a565b61050757600080fd5b806001600160a01b03811661051b57600080fd5b60035482906001600160a01b0390811690821681146104f057600380546001600160a01b038681166001600160a01b03198316179092556040519116907f1882af944a16549c3d4f60e3cd26f158b0c7aac3222cf32971fc21375ce05f60906104e6908390889061442a565b6005546001600160a01b031681565b600854600160a01b900460ff1681565b600b546001600160a01b031681565b336105be610753565b6001600160a01b0316146105d157600080fd5b60005460ff16156105e157600080fd5b7f787a5d936e74f4b564b9153575886059829c78cd9927b1be5e0d976b317ef73633604051610610919061401b565b60405180910390a133ff5b61062361118a565b61062c57600080fd5b806001600160a01b03811661064057600080fd5b600a80546001600160a01b038481166001600160a01b031983161792839055604051918116927f4f7125332801996cdeaabf9cff1ac89ddf4b52c673558936affe853ab64a88da92610695928592169061442a565b60405180910390a1505050565b60005460ff1681565b6003546001600160a01b031681565b6007546001600160a01b031681565b600554600160a01b900460ff1681565b6106e161118a565b6106ea57600080fd5b806001600160a01b0381166106fe57600080fd5b600b80546001600160a01b038481166001600160a01b031983161792839055604051918116927f6d4735156f5fb1047cfcd4a9edf19e3291aec19d53916f8fee650ca3c2d7391092610695928592169061442a565b60005461010090046001600160a01b031690565b600a546001600160a01b031681565b6001546001600160a01b031681565b61078d61118a565b61079657600080fd5b806001600160a01b0381166107aa57600080fd5b60095482906001600160a01b0390811690821681146104f057600980546001600160a01b038681166001600160a01b03198316179092556040519116907febf60ff5929740b0a97ee47e911fae91589cc49afdca90ec269737058e7fab91906104e6908390889061442a565b61081e61118a565b61082757600080fd5b806001600160a01b03811661083b57600080fd5b60055482906001600160a01b0390811690821681146104f057600554600160a01b900460ff16156108875760405162461bcd60e51b815260040161087e906144c9565b60405180910390fd5b600580546001600160a01b038681166001600160a01b03198316179092556040519116907fb2a91d3a71b0c5bc7c083153b3474378e489506ba98bd4ddb1b9056fdc594bb5906104e6908390889061442a565b6108e261118a565b6108eb57600080fd5b6008805460ff60a01b1916600160a01b1790556040517f56ec8900b9c4bf84f4b715a53068ca06961dd49084c07b481931e2c2045346e690600090a1565b61093161118a565b61093a57600080fd5b806001600160a01b03811661094e57600080fd5b60025482906001600160a01b0390811690821681146104f057600280546001600160a01b038681166001600160a01b03198316179092556040519116907f634f61bf00e14adedce330c80c2823e16e184f189ebe853e1ddecc4a268477ff906104e6908390889061442a565b6109c261118a565b6109cb57600080fd5b6006805460ff60a01b1916600160a01b1790556040517fc1668d45f18667fb6eadfbcacfd5cdcc7dd4ecdfc9b0ab8786cfdbad86bb83d890600090a1565b6002546001600160a01b031681565b33610a21610753565b6001600160a01b031614610a3457600080fd5b6000805460ff191660011790556040517fd5a2a04a775c741c2ca0dc46ea7ce4835190e1aaf1ca018def0e82568ec3361690610a7190339061401b565b60405180910390a1565b610a8361118a565b610a8c57600080fd5b806001600160a01b038116610aa057600080fd5b60085482906001600160a01b0390811690821681146104f057600854600160a01b900460ff1615610ae35760405162461bcd60e51b815260040161087e90614589565b600880546001600160a01b038681166001600160a01b03198316179092556040519116907fa44d361e26327b72a7ccbeae801b3c5cd7677ea4fa74168b289e273c46bfecfc906104e6908390889061442a565b6009546001600160a01b031681565b600b546040805163231a44ef60e21b815290516000926001600160a01b031691638c6913bc916004808301926020929190829003018186803b158015610b8a57600080fd5b505afa158015610b9e573d6000803e3d6000fd5b505050506040513d601f19601f82011682018060405250610bc291908101906134a4565b905090565b600654600160a01b900460ff1681565b600c546001600160a01b031681565b610bee61118a565b610bf757600080fd5b806001600160a01b038116610c0b57600080fd5b6001600160a01b038116301415610c2157600080fd5b6000546001600160a01b038381166101009092041614610c9857600080546001600160a01b03848116610100908102610100600160a81b03198416179093556040519290910416907f977e5fa58e458501775e0008d275006294c5249e3c08d1d0e3a9f3acad14f6e49061069590839086906140a8565b5050565b610ca46111a0565b610cad57600080fd5b610cb88383836111b1565b7f2ac9ebc2da0aa92179f0e3daa8d52d8712a3922edda87c72b050c2b089873050338484846040516106959493929190614029565b610cf56111a0565b610cfe57600080fd5b806001600160a01b038116610d1257600080fd5b6001600160a01b038116301415610d2857600080fd5b6001546001600160a01b03838116911614610c9857600180546001600160a01b038481166001600160a01b03198316179092556040519116907f9f611b789425d0d5b90b920f1b2852907dd865c80074a30b1629aaa041d1812c9061069590839086906140a8565b610d9861118a565b610da157600080fd5b6005805460ff60a01b1916600160a01b1790556040517f9c567b65fe8caab5ec7bc979a498a1322c1d4baf01a30727cbca137187560ea290600090a1565b610de761118a565b610df057600080fd5b806001600160a01b038116610e0457600080fd5b60045482906001600160a01b0390811690821681146104f057600480546001600160a01b038681166001600160a01b03198316179092556040519116907f4d96d2a04c886b313bd1e28be6324ed4c8867b3203e512756722f8be0195e16d906104e6908390889061442a565b6006546001600160a01b031681565b610e87612bf4565b600b5460405163303ff86d60e21b81526001600160a01b039091169063c0ffe1b490610eb99086908690600401614360565b60006040518083038186803b158015610ed157600080fd5b505afa158015610ee5573d6000803e3d6000fd5b505050506040513d6000823e601f3d908101601f19168201604052610f0d91908101906135fb565b90505b92915050565b610f1e612bf4565b600b54604051636978449b60e11b81526001600160a01b039091169063d2f0893690610eb99086908690600401614360565b60005461010090046001600160a01b031681565b610f6f3383836111b1565b7fb6d612c8f6da6a2956a25a735b6e54de99363dfdb50a02565ab53b1adc65b3d6338383604051610fa293929190614074565b60405180910390a15050565b6004546001600160a01b031681565b610fc561118a565b610fce57600080fd5b806001600160a01b038116610fe257600080fd5b60065482906001600160a01b0390811690821681146104f057600654600160a01b900460ff16156110255760405162461bcd60e51b815260040161087e90614509565b600680546001600160a01b038681166001600160a01b03198316179092556040519116907f624c4d4225a45f5bf8a9755adba1ef9be3464a9970b05a371fb6cca0c0caf204906104e6908390889061442a565b6008546001600160a01b031681565b61108f61118a565b61109857600080fd5b806001600160a01b0381166110ac57600080fd5b600c80546001600160a01b038481166001600160a01b031983161792839055604051918116927f0e0d0aee1efbecb32fba4a76ecc4cae4c9ed1c3ea3459ea8460c53ff4cb09bcf92610695928592169061442a565b600b54604051633cd17ed160e21b81526000916001600160a01b03169063f345fb449061113290859060040161400d565b60206040518083038186803b15801561114a57600080fd5b505afa15801561115e573d6000803e3d6000fd5b505050506040513d601f19601f8201168201806040525061118291908101906134a4565b90505b919050565b60005461010090046001600160a01b0316331490565b6001546001600160a01b0316331490565b60035460405163273f8b6560e11b815283916001600160a01b031690634e7f16ca906111e1908490600401614599565b60206040518083038186803b1580156111f957600080fd5b505afa15801561120d573d6000803e3d6000fd5b505050506040513d601f19601f820116820180604052506112319190810190613486565b61124d5760405162461bcd60e51b815260040161087e90614579565b60035460405163f59d1a7560e01b8152849186916001600160a01b039091169063f59d1a759061128390859085906004016145aa565b60206040518083038186803b15801561129b57600080fd5b505afa1580156112af573d6000803e3d6000fd5b505050506040513d601f19601f820116820180604052506112d39190810190613486565b6112ef5760405162461bcd60e51b815260040161087e906144d9565b60075460a086015160200151516040516310c7a6c160e31b81526001600160a01b039092169163863d3608916113279160040161440e565b60206040518083038186803b15801561133f57600080fd5b505afa158015611353573d6000803e3d6000fd5b505050506040513d601f19601f820116820180604052506113779190810190613486565b156113945760405162461bcd60e51b815260040161087e90614519565b600654604051639243c9db60e01b81526001600160a01b0390911690639243c9db906113c490899060040161400d565b60206040518083038186803b1580156113dc57600080fd5b505afa1580156113f0573d6000803e3d6000fd5b505050506040513d601f19601f820116820180604052506114149190810190613486565b156114315760405162461bcd60e51b815260040161087e906144f9565b600854604051631293efbb60e21b81526001600160a01b0390911690634a4fbeec9061146190899060040161400d565b60206040518083038186803b15801561147957600080fd5b505afa15801561148d573d6000803e3d6000fd5b505050506040513d601f19601f820116820180604052506114b19190810190613486565b156114ce5760405162461bcd60e51b815260040161087e90614539565b600a54602086015160405163da473c5760e01b81526001600160a01b039092169163da473c5791611504918a91906004016142f5565b60206040518083038186803b15801561151c57600080fd5b505afa158015611530573d6000803e3d6000fd5b505050506040513d601f19601f8201168201806040525061155491908101906134a4565b60a086015160200151511461157b5760405162461bcd60e51b815260040161087e90614549565b6000806115888789611ba8565b600a5460208a0151604051636543ade160e01b81529395509193506001600160a01b031691636543ade1916115c3918c9186916004016143d8565b60206040518083038186803b1580156115db57600080fd5b505afa1580156115ef573d6000803e3d6000fd5b505050506040513d601f19601f820116820180604052506116139190810190613486565b61162f5760405162461bcd60e51b815260040161087e90614559565b600a546020880151604051637ff81c3760e01b81526001600160a01b0390921691637ff81c3791611665918c91906004016142f5565b60206040518083038186803b15801561167d57600080fd5b505afa158015611691573d6000803e3d6000fd5b505050506040513d601f19601f820116820180604052506116b59190810190613486565b156116d25760405162461bcd60e51b815260040161087e906144e9565b600a546020880151604051635482c73560e01b81526001600160a01b0390921691635482c73591611708918c91906004016142f5565b60206040518083038186803b15801561172057600080fd5b505afa158015611734573d6000803e3d6000fd5b505050506040513d601f19601f820116820180604052506117589190810190613486565b6117745760405162461bcd60e51b815260040161087e906144a9565b600a54602088015160405163b6e2fc3360e01b81526001600160a01b039092169163b6e2fc33916117aa918c91906004016142f5565b60206040518083038186803b1580156117c257600080fd5b505afa1580156117d6573d6000803e3d6000fd5b505050506040513d601f19601f820116820180604052506117fa91908101906134fe565b600181111561180557fe5b156118225760405162461bcd60e51b815260040161087e90614569565b600260009054906101000a90046001600160a01b03166001600160a01b031663f71e860f6040518163ffffffff1660e01b815260040160206040518083038186803b15801561187057600080fd5b505afa158015611884573d6000803e3d6000fd5b505050506040513d601f19601f820116820180604052506118a89190810190613486565b6118c45760405162461bcd60e51b815260040161087e90614529565b600660009054906101000a90046001600160a01b03166001600160a01b031663994e20766040518163ffffffff1660e01b815260040160206040518083038186803b15801561191257600080fd5b505afa158015611926573d6000803e3d6000fd5b505050506040513d601f19601f8201168201806040525061194a9190810190613486565b6119665760405162461bcd60e51b815260040161087e906144b9565b600b60009054906101000a90046001600160a01b03166001600160a01b0316638772531373__PaymentTypesLib_______________________635174abe96040518163ffffffff1660e01b815260040160006040518083038186803b1580156119ce57600080fd5b505af41580156119e2573d6000803e3d6000fd5b505050506040513d6000823e601f3d908101601f19168201604052611a0a919081019061354c565b60a08a0151602090810151516040808d015180840151905160608f015194850151945192516001600160e01b031960e089901b168152611a539695929391929190600401614445565b600060405180830381600087803b158015611a6d57600080fd5b505af1158015611a81573d6000803e3d6000fd5b5050600b546040516309f0ac8560e41b81526001600160a01b039091169250639f0ac8509150611ab9908b908590879060040161437b565b60206040518083038186803b158015611ad157600080fd5b505afa158015611ae5573d6000803e3d6000fd5b505050506040513d601f19601f82011682018060405250611b099190810190613486565b15611b265760405162461bcd60e51b815260040161087e90614499565b611b338888888486611c57565b600a54602088015160405163524ad18360e11b81526001600160a01b039092169163a495a30691611b6c918c9190600090600401614310565b600060405180830381600087803b158015611b8657600080fd5b505af1158015611b9a573d6000803e3d6000fd5b505050505050505050505050565b60035460405163d308b9db60e01b815260009182916001600160a01b039091169063d308b9db90611bdf90879087906004016145aa565b60206040518083038186803b158015611bf757600080fd5b505afa158015611c0b573d6000803e3d6000fd5b505050506040513d601f19601f82011682018060405250611c2f9190810190613486565b15611c44575050604082015151600090611c50565b50506060820151516001905b9250929050565b6000806060611c668789611feb565b600b5460208b0151604051633858654b60e01b81529497509295509093506000926001600160a01b0390911691633858654b91611ca7918d916004016142f5565b60206040518083038186803b158015611cbf57600080fd5b505afa158015611cd3573d6000803e3d6000fd5b505050506040513d601f19601f82011682018060405250611cf791908101906134a4565b905085811015611fe057600b546020890151604051630284774760e31b81526001600160a01b0390921691631423ba3891611d39918d91908b90600401614338565b600060405180830381600087803b158015611d5357600080fd5b505af1158015611d67573d6000803e3d6000fd5b5050600480546020808d0151805191015160405163325d23a960e11b81526001600160a01b0390931695506364ba47529450611dad938f938b9392918f91439101614235565b600060405180830381600087803b158015611dc757600080fd5b505af1158015611ddb573d6000803e3d6000fd5b5050600b5460208b015160c08c015160405163fb721b5360e01b81526001600160a01b03909316945063fb721b539350611e1d928e92899290916004016142c0565b600060405180830381600087803b158015611e3757600080fd5b505af1158015611e4b573d6000803e3d6000fd5b505060048054600a5460208d0151604051633007230f60e11b81526001600160a01b03938416965063ad468df995508f94929093169263600e461e92611e959286929091016142f5565b60206040518083038186803b158015611ead57600080fd5b505afa158015611ec1573d6000803e3d6000fd5b505050506040513d601f19601f82011682018060405250611ee591908101906134a4565b6020808d015180519101516040516001600160e01b031960e087901b168152611f1694939291908e906004016141e3565b600060405180830381600087803b158015611f3057600080fd5b505af1158015611f44573d6000803e3d6000fd5b5050600c546001600160a01b0316159150611f76905057600c54611f76908a9084906001600160a01b0316898b6121d9565b600b5460405163f8eabcc160e01b81526001600160a01b039091169063f8eabcc190611fad908c908a908a906001906004016143a3565b600060405180830381600087803b158015611fc757600080fd5b505af1158015611fdb573d6000803e3d6000fd5b505050505b505050505050505050565b60035460405163d308b9db60e01b815260009182916060916001600160a01b03169063d308b9db9061202390889088906004016145aa565b60206040518083038186803b15801561203b57600080fd5b505afa15801561204f573d6000803e3d6000fd5b505050506040513d601f19601f820116820180604052506120739190810190613486565b1561209657506040808501519081015151606090910151602001519092506120ab565b50606080850151604081015151910151519092505b602085015160c08601516005546000926120da926001600160a01b03909216918891904363ffffffff61288116565b600b54602088015160c089015160405163bc8dd4cd60e01b81529394506000936001600160a01b039093169263bc8dd4cd9261211a928b92600401614338565b60206040518083038186803b15801561213257600080fd5b505afa158015612146573d6000803e3d6000fd5b505050506040513d601f19601f8201168201806040525061216a91908101906134a4565b602088015160c08901516005549293506121b89284926121ac9261219f926001600160a01b0316918c9163ffffffff6128a816565b889063ffffffff6128c416565b9063ffffffff6128c416565b93506121ce816121ac878563ffffffff6128fe16565b945050509250925092565b60005b84518110156128795760008582815181106121f357fe5b6020026020010151600001516000141561220e5750836123f7565b600960009054906101000a90046001600160a01b03166001600160a01b03166367299f366040518163ffffffff1660e01b815260040160206040518083038186803b15801561225c57600080fd5b505afa158015612270573d6000803e3d6000fd5b505050506040513d601f19601f8201168201806040525061229491908101906134a4565b600010801561233f5750600960009054906101000a90046001600160a01b03166001600160a01b03166367299f366040518163ffffffff1660e01b815260040160206040518083038186803b1580156122ec57600080fd5b505afa158015612300573d6000803e3d6000fd5b505050506040513d601f19601f8201168201806040525061232491908101906134a4565b86838151811061233057fe5b60200260200101516000015111155b156123f75760095486516001600160a01b039091169063efeb5e5890612388906001908a908790811061236e57fe5b60200260200101516000015161293190919063ffffffff16565b6040518263ffffffff1660e01b81526004016123a4919061440e565b60206040518083038186803b1580156123bc57600080fd5b505afa1580156123d0573d6000803e3d6000fd5b505050506040513d601f19601f820116820180604052506123f491908101906134e0565b90505b6001600160a01b03811661240b5750612871565b600086838151811061241957fe5b602002602001015160000151905084600b60009054906101000a90046001600160a01b03166001600160a01b0316636e17226a8a85858c898151811061245b57fe5b602002602001015160200151602001516040518563ffffffff1660e01b815260040161248a949392919061410c565b604080518083038186803b1580156124a157600080fd5b505afa1580156124b5573d6000803e3d6000fd5b505050506040513d601f19601f820116820180604052506124d99190810190613580565b51101561286e5760006125c4600b60009054906101000a90046001600160a01b03166001600160a01b0316636e17226a8b86868d8a8151811061251857fe5b602002602001015160200151602001516040518563ffffffff1660e01b8152600401612547949392919061410c565b604080518083038186803b15801561255e57600080fd5b505afa158015612572573d6000803e3d6000fd5b505050506040513d601f19601f820116820180604052506125969190810190613580565b602001518986815181106125a657fe5b602002602001015160200151600001516128c490919063ffffffff16565b6040516351750e5360e11b815290915073__SafeMathIntLib________________________9063a2ea1ca6906125fe90849060040161440e565b60206040518083038186803b15801561261657600080fd5b505af415801561262a573d6000803e3d6000fd5b505050506040513d601f19601f8201168201806040525061264e9190810190613486565b1561286c57600b60009054906101000a90046001600160a01b03166001600160a01b0316637657768c8a85858c898151811061268657fe5b6020026020010151602001516020015160405180604001604052808d81526020018f8c815181106126b357fe5b602002602001015160200151600001518152506040518663ffffffff1660e01b81526004016126e6959493929190614141565b600060405180830381600087803b15801561270057600080fd5b505af1158015612714573d6000803e3d6000fd5b50505050600460009054906101000a90046001600160a01b03166001600160a01b031663158a03428a85848c898151811061274b57fe5b60200260200101516020015160200151600001518d8a8151811061276b57fe5b60200260200101516020015160200151602001518b6040518763ffffffff1660e01b81526004016127a196959493929190614183565b600060405180830381600087803b1580156127bb57600080fd5b505af11580156127cf573d6000803e3d6000fd5b505050507f64fcac3c2b1ccc98d3039b49f7668a97654165a070c78fa3163859e4d5d0978089828a878151811061280257fe5b602002602001015160200151600001518b888151811061281e57fe5b60200260200101516020015160200151600001518c898151811061283e57fe5b602002602001015160200151602001516020015160405161286395949392919061428b565b60405180910390a15b505b50505b6001016121dc565b505050505050565b600061288f868686866128a8565b61289b878787866128a8565b0390505b95945050505050565b6000806128b78686868661293d565b509150505b949350505050565b60008082121580156128d857508282840313155b806128ef57506000821280156128ef575082828403135b6128f857600080fd5b50900390565b60008282018183128015906129135750838112155b80612928575060008312801561292857508381125b610f0d57600080fd5b6000828211156128f857fe5b600080600080876001600160a01b031663a246138c888a6001600160a01b031663ded113106040518163ffffffff1660e01b815260040160206040518083038186803b15801561298c57600080fd5b505afa1580156129a0573d6000803e3d6000fd5b505050506040513d601f19601f820116820180604052506129c491908101906134a4565b895160208b01516040516001600160e01b031960e087901b1681526129f194939291908c906004016140ca565b604080518083038186803b158015612a0857600080fd5b505afa158015612a1c573d6000803e3d6000fd5b505050506040513d601f19601f82011682018060405250612a40919081019061351c565b91509150600080896001600160a01b031663a246138c8a8c6001600160a01b0316634652ec746040518163ffffffff1660e01b815260040160206040518083038186803b158015612a9057600080fd5b505afa158015612aa4573d6000803e3d6000fd5b505050506040513d601f19601f82011682018060405250612ac891908101906134a4565b8b5160208d01516040516001600160e01b031960e087901b168152612af594939291908e906004016140ca565b604080518083038186803b158015612b0c57600080fd5b505afa158015612b20573d6000803e3d6000fd5b505050506040513d601f19601f82011682018060405250612b44919081019061351c565b9092509050612b59848363ffffffff6128fe16565b60405163a682d5ad60e01b815290965073__SafeMathUintLib_______________________9063a682d5ad90612b9590869085906004016145db565b60206040518083038186803b158015612bad57600080fd5b505af4158015612bc1573d6000803e3d6000fd5b505050506040513d601f19601f82011682018060405250612be591908101906134a4565b94505050505094509492505050565b604080516080810182526060815260006020820152908101612c14612c26565b8152602001612c21612c26565b905290565b60405180606001604052806000815260200160006001600160a01b03168152602001600081525090565b8035610f1081614708565b8051610f1081614708565b600082601f830112612c7757600080fd5b8135612c8a612c858261460f565b6145e9565b91508181835260208401935060208101905083856080840282011115612caf57600080fd5b60005b83811015612cdd5781612cc58882612ef7565b84525060209092019160809190910190600101612cb2565b5050505092915050565b8051610f108161471c565b8035610f1081614725565b8051610f1081614725565b8035610f108161472e565b8051610f108161472e565b8051610f1081614737565b600082601f830112612d3a57600080fd5b8135612d48612c858261462f565b91508082526020830160208301858383011115612d6457600080fd5b612d6f8382846146b9565b50505092915050565b600082601f830112612d8957600080fd5b8151612d97612c858261462f565b91508082526020830160208301858383011115612db357600080fd5b612d6f8382846146c5565b600060408284031215612dd057600080fd5b612dda60406145e9565b90506000612de88484612c50565b8252506020612df984848301612cf2565b60208301525092915050565b600060408284031215612e1757600080fd5b612e2160406145e9565b90506000612de88484612cf2565b600060608284031215612e4157600080fd5b612e4b60406145e9565b90506000612e598484612cf2565b8252506020612df984848301612dbe565b600060408284031215612e7c57600080fd5b612e8660406145e9565b90506000612e948484612cfd565b8252506020612df984848301612cfd565b600060408284031215612eb757600080fd5b612ec160406145e9565b90506000612ecf8484612cf2565b82525060208201356001600160401b03811115612eeb57600080fd5b612df984828501612d29565b600060808284031215612f0957600080fd5b612f1360406145e9565b90506000612f218484612cf2565b8252506020612df984848301612e2f565b600060a08284031215612f4457600080fd5b612f4e60806145e9565b90506000612f5c8484612cf2565b8252506020612f6d84848301612c50565b6020830152506040612f8184828501612e05565b60408301525060808201356001600160401b03811115612fa057600080fd5b612fac84828501613323565b60608301525092915050565b600060c08284031215612fca57600080fd5b612fd460a06145e9565b90506000612fe28484612cf2565b8252506020612ff384848301612c50565b602083015250604061300784828501612e05565b60408301525060808201356001600160401b0381111561302657600080fd5b613032848285016132d1565b60608301525060a08201356001600160401b0381111561305157600080fd5b61305d84828501612d29565b60808301525092915050565b6000610220828403121561307c57600080fd5b6130876101006145e9565b905060006130958484612cf2565b82525060206130a684848301612dbe565b60208301525060608201356001600160401b038111156130c557600080fd5b6130d184828501612fb8565b60408301525060808201356001600160401b038111156130f057600080fd5b6130fc84828501612f32565b60608301525060a061311084828501612e05565b60808301525060e06131248482850161336c565b60a0830152506101e061313984828501612cf2565b60c0830152506102008201356001600160401b0381111561315957600080fd5b61316584828501612ea5565b60e08301525092915050565b60006080828403121561318357600080fd5b61318d60406145e9565b9050600061319b8484612cf2565b8252506020612df984848301613282565b6000606082840312156131be57600080fd5b6131c860606145e9565b905060006131d68484612cfd565b82525060206131e784848301612c5b565b60208301525060406131fb84828501612cfd565b60408301525092915050565b6000610100828403121561321a57600080fd5b61322460806145e9565b82519091506001600160401b0381111561323d57600080fd5b61324984828501612d78565b825250602061325a84848301612cfd565b602083015250604061326e848285016131ac565b60408301525060a0612fac848285016131ac565b60006060828403121561329457600080fd5b61329e60606145e9565b905060006132ac8484612cf2565b82525060206132bd84848301612cf2565b60208301525060406131fb848285016133a8565b6000608082840312156132e357600080fd5b6132ed60406145e9565b905060006132fb8484612e2f565b82525060608201356001600160401b0381111561331757600080fd5b612df984828501612c66565b60006020828403121561333557600080fd5b61333f60206145e9565b905081356001600160401b0381111561335757600080fd5b61336384828501612c66565b82525092915050565b6000610100828403121561337f57600080fd5b61338960406145e9565b905060006133978484613171565b8252506080612df984848301613171565b8035610f1081614744565b6000602082840312156133c557600080fd5b60006128bc8484612c50565b6000806000606084860312156133e657600080fd5b60006133f28686612c50565b93505060208401356001600160401b0381111561340e57600080fd5b61341a86828701613069565b92505060408401356001600160401b0381111561343657600080fd5b61344286828701612d29565b9150509250925092565b6000806040838503121561345f57600080fd5b600061346b8585612c50565b925050602061347c85828601612cf2565b9150509250929050565b60006020828403121561349857600080fd5b60006128bc8484612ce7565b6000602082840312156134b657600080fd5b60006128bc8484612cfd565b6000602082840312156134d457600080fd5b60006128bc8484612d08565b6000602082840312156134f257600080fd5b60006128bc8484612d13565b60006020828403121561351057600080fd5b60006128bc8484612d1e565b6000806040838503121561352f57600080fd5b600061353b8585612cfd565b925050602061347c85828601612cfd565b60006020828403121561355e57600080fd5b81516001600160401b0381111561357457600080fd5b6128bc84828501612d78565b60006040828403121561359257600080fd5b60006128bc8484612e6a565b600080604083850312156135b157600080fd5b82356001600160401b038111156135c757600080fd5b6135d385828601613069565b92505060208301356001600160401b038111156135ef57600080fd5b61347c85828601612d29565b60006020828403121561360d57600080fd5b81516001600160401b0381111561362357600080fd5b6128bc84828501613207565b600061363b8383613d1c565b505060800190565b61364c816146a3565b82525050565b61364c81614669565b60006136668261465c565b6136708185614660565b935061367b83614656565b8060005b838110156136a9578151613693888261362f565b975061369e83614656565b92505060010161367f565b509495945050505050565b61364c81614674565b61364c81614679565b61364c8161467c565b61364c816146ae565b60006136e38261465c565b6136ed8185614660565b93506136fd8185602086016146c5565b613706816146f1565b9093019392505050565b600061371d604083614660565b7f536574746c656d656e7420706172747920616c726561647920646f6e65205b4481527f72696970536574746c656d656e7442795061796d656e742e736f6c3a3234375d602082015260400192915050565b600061377c603d83614660565b7f50726f706f73616c20666f756e64206e6f742065787069726564205b4472696981527f70536574746c656d656e7442795061796d656e742e736f6c3a3232345d000000602082015260400192915050565b60006137db603583614660565b7f44617461206e6f7420617661696c61626c65205b4472696970536574746c656d815274656e7442795061796d656e742e736f6c3a3233375d60581b602082015260400192915050565b6000613832603083614660565b7f42616c616e636520747261636b65722066726f7a656e205b42616c616e63655481526f7261636b61626c652e736f6c3a34335d60801b602082015260400192915050565b6000613884602d83614660565b7f57616c6c6574206e6f74207061796d656e74207061727479205b56616c69646181526c7461626c652e736f6c3a37305d60981b602082015260400192915050565b60006138d3603c83614660565b7f50726f706f73616c20666f756e64207465726d696e61746564205b447269697081527b536574746c656d656e7442795061796d656e742e736f6c3a3231385d60201b602082015260400192915050565b6000613931603f83614660565b7f57616c6c6574206465656d656420646f75626c65207370656e646572205b447281527f696970536574746c656d656e7442795061796d656e742e736f6c3a3139345d00602082015260400192915050565b6000613990602f83614660565b7f436f6d6d756e69747920766f74652066726f7a656e205b436f6d6d756e69747981526e566f7461626c652e736f6c3a34315d60881b602082015260400192915050565b60006139e1603c83614660565b7f5061796d656e74206465656d6564206672617564756c656e74205b447269697081527b536574746c656d656e7442795061796d656e742e736f6c3a3139305d60201b602082015260400192915050565b6000613a3f603e83614660565b7f4e6f74206e6f726d616c206f7065726174696f6e616c206d6f6465205b44726981527f6970536574746c656d656e7442795061796d656e742e736f6c3a3233365d0000602082015260400192915050565b6000613a9e603683614660565b7f57616c6c657420666f756e64206c6f636b6564205b4472696970536574746c658152756d656e7442795061796d656e742e736f6c3a3230305d60501b602082015260400192915050565b6000613af6603983614660565b7f5061796d656e74206e6f74206368616c6c656e676564205b4472696970536574815278746c656d656e7442795061796d656e742e736f6c3a3230335d60381b602082015260400192915050565b6000613b51603483614660565b7f4e6f2070726f706f73616c20666f756e64205b4472696970536574746c656d658152736e7442795061796d656e742e736f6c3a3231325d60601b602082015260400192915050565b6000613ba7603f83614660565b7f50726f706f73616c20666f756e64206e6f74207175616c6966696564205b447281527f696970536574746c656d656e7442795061796d656e742e736f6c3a3233305d00602082015260400192915050565b6000613c06602e83614660565b7f5061796d656e74207365616c73206e6f742067656e75696e65205b56616c696481526d617461626c652e736f6c3a36355d60901b602082015260400192915050565b6000613c56602c83614660565b7f57616c6c6574206c6f636b65722066726f7a656e205b57616c6c65744c6f636b81526b61626c652e736f6c3a34335d60a01b602082015260400192915050565b80516040830190613ca88482613652565b5060208201516104f060208501826136bd565b80516040830190613ca884826136bd565b80516060830190613cdd84826136bd565b5060208201516104f06020850182613c97565b80516000906040840190613d0485826136bd565b506020830151848203602086015261289f82826136d8565b80516080830190613d2d84826136bd565b5060208201516104f06020850182613ccc565b805160009060a0840190613d5485826136bd565b506020830151613d676020860182613652565b506040830151613d7a6040860182613cbb565b506060830151848203608086015261289f8282613fc7565b805160009060c0840190613da685826136bd565b506020830151613db96020860182613652565b506040830151613dcc6040860182613cbb565b5060608301518482036080860152613de48282613f9b565b915050608083015184820360a086015261289f82826136d8565b8051600090610220840190613e1385826136bd565b506020830151613e266020860182613c97565b5060408301518482036060860152613e3e8282613d92565b91505060608301518482036080860152613e588282613d40565b9150506080830151613e6d60a0860182613cbb565b5060a0830151613e8060e0860182613fdf565b5060c0830151613e946101e08601826136bd565b5060e083015184820361020086015261289f8282613cf0565b80516080830190613ebe84826136bd565b5060208201516104f06020850182613f64565b80516060830190613ee284826136bd565b506020820151613ef56020850182613652565b5060408201516104f060408501826136bd565b805161010080845260009190840190613f2182826136d8565b9150506020830151613f3660208601826136bd565b506040830151613f496040860182613ed1565b506060830151613f5c60a0860182613ed1565b509392505050565b80516060830190613f7584826136bd565b506020820151613f8860208501826136bd565b5060408201516104f06040850182614004565b80516000906080840190613faf8582613ccc565b506020830151848203606086015261289f828261365b565b805160208084526000919084019061289f828261365b565b8051610100830190613ff18482613ead565b5060208201516104f06080850182613ead565b61364c8161469d565b60208101610f108284613652565b60208101610f108284613643565b608081016140378287613643565b6140446020830186613652565b81810360408301526140568185613dfe565b9050818103606083015261406a81846136d8565b9695505050505050565b606081016140828286613643565b81810360208301526140948185613dfe565b9050818103604083015261289f81846136d8565b604081016140b68285613652565b6140c36020830184613652565b9392505050565b60a081016140d88288613652565b6140e560208301876136bd565b6140f26040830186613652565b6140ff60608301856136bd565b61406a60808301846136bd565b60a0810161411a8287613652565b61412760208301866136c6565b6141346040830185613652565b61289f6060830184613c97565b60e0810161414f8288613652565b61415c60208301876136c6565b6141696040830186613652565b6141766060830185613c97565b61406a60a0830184613cbb565b60c081016141918289613652565b61419e60208301886136c6565b6141ab60408301876136bd565b6141b86060830186613652565b6141c560808301856136bd565b81810360a08301526141d781846136d8565b98975050505050505050565b60a081016141f18288613652565b6141fe60208301876136bd565b61420b6040830186613652565b61421860608301856136bd565b818103608083015261422a81846136d8565b979650505050505050565b60c081016142438289613652565b61425060208301886136bd565b61425d6040830187613652565b61426a60608301866136bd565b818103608083015261427c81856136d8565b905061422a60a08301846136bd565b60a081016142998288613652565b6142a660208301876136bd565b6142b360408301866136bd565b6140ff6060830185613652565b60a081016142ce8287613652565b6142db60208301866136bd565b6142e86040830185613c97565b61289f60808301846136bd565b606081016143038285613652565b6140c36020830184613c97565b6080810161431e8286613652565b61432b6020830185613c97565b6128bc60608301846136b4565b608081016143468286613652565b6143536020830185613c97565b6128bc60608301846136bd565b6040810161436e8285613652565b6140c360208301846136bd565b606081016143898286613652565b61439660208301856136bd565b6128bc60408301846136cf565b608081016143b18287613652565b6143be60208301866136bd565b6143cb60408301856136cf565b61289f60608301846136b4565b608081016143e68286613652565b6143f360208301856136bd565b6128bc6040830184613c97565b60208101610f1082846136b4565b60208101610f1082846136bd565b60208101610f1082846136c6565b6040810161443882856136c6565b6140c360208301846136c6565b60c0808252810161445681896136d8565b905061446560208301886136bd565b6144726040830187613652565b61447f60608301866136bd565b61448c6080830185613652565b61422a60a08301846136bd565b6020808252810161118281613710565b602080825281016111828161376f565b60208082528101611182816137ce565b6020808252810161118281613825565b6020808252810161118281613877565b60208082528101611182816138c6565b6020808252810161118281613924565b6020808252810161118281613983565b60208082528101611182816139d4565b6020808252810161118281613a32565b6020808252810161118281613a91565b6020808252810161118281613ae9565b6020808252810161118281613b44565b6020808252810161118281613b9a565b6020808252810161118281613bf9565b6020808252810161118281613c49565b60208082528101610f0d8184613dfe565b604080825281016145bb8185613dfe565b90506140c36020830184613652565b60208082528101610f0d8184613f08565b6040810161436e82856136bd565b6040518181016001600160401b038111828210171561460757600080fd5b604052919050565b60006001600160401b0382111561462557600080fd5b5060209081020190565b60006001600160401b0382111561464557600080fd5b506020601f91909101601f19160190565b60200190565b5190565b90815260200190565b600061118282614691565b151590565b90565b600061118282614669565b80611185816146fb565b6001600160a01b031690565b60ff1690565b60006111828261467c565b600061118282614687565b82818337506000910152565b60005b838110156146e05781810151838201526020016146c8565b838111156104f05750506000910152565b601f01601f191690565b6002811061470557fe5b50565b61471181614669565b811461470557600080fd5b61471181614674565b61471181614679565b6147118161467c565b6002811061470557600080fd5b6147118161469d56fea365627a7a7231582024448d33b6dd20e2fca9b1c67e91baa5019c153e77804bf494e2ddeabfed11b36c6578706572696d656e74616cf564736f6c634300050b0040",
  "source": "/*\n * Hubii Nahmii\n *\n * Compliant with the Hubii Nahmii specification v0.12.\n *\n * Copyright (C) 2017-2018 Hubii AS\n */\n\npragma solidity >=0.4.25 <0.6.0;\npragma experimental ABIEncoderV2;\n\nimport {Ownable} from \"./Ownable.sol\";\nimport {Configurable} from \"./Configurable.sol\";\nimport {Validatable} from \"./Validatable.sol\";\nimport {ClientFundable} from \"./ClientFundable.sol\";\nimport {BalanceTrackable} from \"./BalanceTrackable.sol\";\nimport {CommunityVotable} from \"./CommunityVotable.sol\";\nimport {FraudChallengable} from \"./FraudChallengable.sol\";\nimport {WalletLockable} from \"./WalletLockable.sol\";\nimport {PartnerBenefactorable} from \"./PartnerBenefactorable.sol\";\nimport {RevenueFund} from \"./RevenueFund.sol\";\nimport {DriipSettlementChallengeState} from \"./DriipSettlementChallengeState.sol\";\nimport {DriipSettlementState} from \"./DriipSettlementState.sol\";\nimport {Beneficiary} from \"./Beneficiary.sol\";\nimport {SafeMathIntLib} from \"./SafeMathIntLib.sol\";\nimport {SafeMathUintLib} from \"./SafeMathUintLib.sol\";\nimport {MonetaryTypesLib} from \"./MonetaryTypesLib.sol\";\nimport {NahmiiTypesLib} from \"./NahmiiTypesLib.sol\";\nimport {PaymentTypesLib} from \"./PaymentTypesLib.sol\";\nimport {DriipSettlementTypesLib} from \"./DriipSettlementTypesLib.sol\";\nimport {SettlementChallengeTypesLib} from \"./SettlementChallengeTypesLib.sol\";\nimport {BalanceTracker} from \"./BalanceTracker.sol\";\nimport {BalanceTrackerLib} from \"./BalanceTrackerLib.sol\";\n\n/**\n * @title DriipSettlementByPayment\n * @notice Where driip settlements pertaining to payment are finalized\n */\ncontract DriipSettlementByPayment is Ownable, Configurable, Validatable, ClientFundable, BalanceTrackable,\nCommunityVotable, FraudChallengable, WalletLockable, PartnerBenefactorable {\n    using SafeMathIntLib for int256;\n    using SafeMathUintLib for uint256;\n    using BalanceTrackerLib for BalanceTracker;\n\n    //\n    // Variables\n    // -----------------------------------------------------------------------------------------------------------------\n    DriipSettlementChallengeState public driipSettlementChallengeState;\n    DriipSettlementState public driipSettlementState;\n    RevenueFund public revenueFund;\n\n    //\n    // Events\n    // -----------------------------------------------------------------------------------------------------------------\n    event SettlePaymentEvent(address wallet, PaymentTypesLib.Payment payment, string standard);\n    event SettlePaymentByProxyEvent(address proxy, address wallet, PaymentTypesLib.Payment payment, string standard);\n    event SetDriipSettlementChallengeStateEvent(DriipSettlementChallengeState oldDriipSettlementChallengeState,\n        DriipSettlementChallengeState newDriipSettlementChallengeState);\n    event SetDriipSettlementStateEvent(DriipSettlementState oldDriipSettlementState,\n        DriipSettlementState newDriipSettlementState);\n    event SetRevenueFundEvent(RevenueFund oldRevenueFund, RevenueFund newRevenueFund);\n    event StageFeesEvent(address wallet, int256 deltaAmount, int256 cumulativeAmount,\n        address currencyCt, uint256 currencyId);\n\n    //\n    // Constructor\n    // -----------------------------------------------------------------------------------------------------------------\n    constructor(address deployer) Ownable(deployer) public {\n    }\n\n    //\n    // Functions\n    // -----------------------------------------------------------------------------------------------------------------\n    /// @notice Set the driip settlement challenge state contract\n    /// @param newDriipSettlementChallengeState The (address of) DriipSettlementChallengeState contract instance\n    function setDriipSettlementChallengeState(DriipSettlementChallengeState newDriipSettlementChallengeState)\n    public\n    onlyDeployer\n    notNullAddress(address(newDriipSettlementChallengeState))\n    {\n        DriipSettlementChallengeState oldDriipSettlementChallengeState = driipSettlementChallengeState;\n        driipSettlementChallengeState = newDriipSettlementChallengeState;\n        emit SetDriipSettlementChallengeStateEvent(oldDriipSettlementChallengeState, driipSettlementChallengeState);\n    }\n\n    /// @notice Set the driip settlement state contract\n    /// @param newDriipSettlementState The (address of) DriipSettlementState contract instance\n    function setDriipSettlementState(DriipSettlementState newDriipSettlementState)\n    public\n    onlyDeployer\n    notNullAddress(address(newDriipSettlementState))\n    {\n        DriipSettlementState oldDriipSettlementState = driipSettlementState;\n        driipSettlementState = newDriipSettlementState;\n        emit SetDriipSettlementStateEvent(oldDriipSettlementState, driipSettlementState);\n    }\n\n    /// @notice Set the revenue fund contract\n    /// @param newRevenueFund The (address of) RevenueFund contract instance\n    function setRevenueFund(RevenueFund newRevenueFund)\n    public\n    onlyDeployer\n    notNullAddress(address(newRevenueFund))\n    {\n        RevenueFund oldRevenueFund = revenueFund;\n        revenueFund = newRevenueFund;\n        emit SetRevenueFundEvent(oldRevenueFund, revenueFund);\n    }\n\n    /// @notice Get the count of settlements\n    function settlementsCount()\n    public\n    view\n    returns (uint256)\n    {\n        return driipSettlementState.settlementsCount();\n    }\n\n    /// @notice Get the count of settlements for given wallet\n    /// @param wallet The address for which to return settlement count\n    /// @return count of settlements for the provided wallet\n    function settlementsCountByWallet(address wallet)\n    public\n    view\n    returns (uint256)\n    {\n        return driipSettlementState.settlementsCountByWallet(wallet);\n    }\n\n    /// @notice Get settlement of given wallet and index\n    /// @param wallet The address for which to return settlement\n    /// @param index The wallet's settlement index\n    /// @return settlement for the provided wallet and index\n    function settlementByWalletAndIndex(address wallet, uint256 index)\n    public\n    view\n    returns (DriipSettlementTypesLib.Settlement memory)\n    {\n        return driipSettlementState.settlementByWalletAndIndex(wallet, index);\n    }\n\n    /// @notice Get settlement of given wallet and wallet nonce\n    /// @param wallet The address for which to return settlement\n    /// @param nonce The wallet's nonce\n    /// @return settlement for the provided wallet and index\n    function settlementByWalletAndNonce(address wallet, uint256 nonce)\n    public\n    view\n    returns (DriipSettlementTypesLib.Settlement memory)\n    {\n        return driipSettlementState.settlementByWalletAndNonce(wallet, nonce);\n    }\n\n    /// @notice Settle driip that is a payment\n    /// @param payment The payment to be settled\n    /// @param standard The standard of the token to be settled (discarded if settling ETH)\n    function settlePayment(PaymentTypesLib.Payment memory payment, string memory standard)\n    public\n    {\n        // Settle payment\n        _settlePayment(msg.sender, payment, standard);\n\n        // Emit event\n        emit SettlePaymentEvent(msg.sender, payment, standard);\n    }\n\n    /// @notice Settle driip that is a payment\n    /// @param wallet The wallet whose side of the payment is to be settled\n    /// @param payment The payment to be settled\n    /// @param standard The standard of the token to be settled (discarded if settling ETH)\n    function settlePaymentByProxy(address wallet, PaymentTypesLib.Payment memory payment, string memory standard)\n    public\n    onlyOperator\n    {\n        // Settle payment for wallet\n        _settlePayment(wallet, payment, standard);\n\n        // Emit event\n        emit SettlePaymentByProxyEvent(msg.sender, wallet, payment, standard);\n    }\n\n    //\n    // Private functions\n    // -----------------------------------------------------------------------------------------------------------------\n    function _settlePayment(address wallet, PaymentTypesLib.Payment memory payment, string memory standard)\n    private\n    onlySealedPayment(payment)\n    onlyPaymentParty(payment, wallet)\n    {\n        require(\n            !fraudChallenge.isFraudulentPaymentHash(payment.seals.operator.hash),\n            \"Payment deemed fraudulent [DriipSettlementByPayment.sol:190]\"\n        );\n        require(\n            !communityVote.isDoubleSpenderWallet(wallet),\n            \"Wallet deemed double spender [DriipSettlementByPayment.sol:194]\"\n        );\n\n        // Require that wallet is not locked\n        require(!walletLocker.isLocked(wallet), \"Wallet found locked [DriipSettlementByPayment.sol:200]\");\n\n        // Require that the wallet's current driip settlement challenge proposal is defined wrt this payment\n        require(\n            payment.seals.operator.hash == driipSettlementChallengeState.proposalChallengedHash(wallet, payment.currency),\n            \"Payment not challenged [DriipSettlementByPayment.sol:203]\"\n        );\n\n        // Extract settlement role and nonce\n        (DriipSettlementTypesLib.SettlementRole settlementRole, uint256 nonce) = _getSettlementRoleNonce(payment, wallet);\n\n        // Require that driip settlement challenge proposal has been initiated\n        require(\n            driipSettlementChallengeState.hasProposal(wallet, nonce, payment.currency),\n            \"No proposal found [DriipSettlementByPayment.sol:212]\"\n        );\n\n        // Require that driip settlement challenge proposal has not been terminated already\n        require(\n            !driipSettlementChallengeState.hasProposalTerminated(wallet, payment.currency),\n            \"Proposal found terminated [DriipSettlementByPayment.sol:218]\"\n        );\n\n        // Require that driip settlement challenge proposal has expired\n        require(\n            driipSettlementChallengeState.hasProposalExpired(wallet, payment.currency),\n            \"Proposal found not expired [DriipSettlementByPayment.sol:224]\"\n        );\n\n        // Require that driip settlement challenge proposal qualified\n        require(\n            SettlementChallengeTypesLib.Status.Qualified == driipSettlementChallengeState.proposalStatus(wallet, payment.currency),\n            \"Proposal found not qualified [DriipSettlementByPayment.sol:230]\"\n        );\n\n        // Require that operational mode is normal and data is available\n        require(configuration.isOperationalModeNormal(), \"Not normal operational mode [DriipSettlementByPayment.sol:236]\");\n        require(communityVote.isDataAvailable(), \"Data not available [DriipSettlementByPayment.sol:237]\");\n\n        // Init settlement, i.e. create one if no such settlement exists for the double pair of wallets and nonces\n        driipSettlementState.initSettlement(\n            PaymentTypesLib.PAYMENT_KIND(), payment.seals.operator.hash,\n            payment.sender.wallet, payment.sender.nonce,\n            payment.recipient.wallet, payment.recipient.nonce\n        );\n\n        // If exists settlement of nonce then require that wallet has not already settled\n        require(\n            !driipSettlementState.isSettlementPartyDone(wallet, nonce, settlementRole),\n            \"Settlement party already done [DriipSettlementByPayment.sol:247]\"\n        );\n\n        // Execute settlement\n        _settle(wallet, payment, standard, nonce, settlementRole);\n\n        // Terminate proposal\n        driipSettlementChallengeState.terminateProposal(wallet, payment.currency, false);\n    }\n\n    function _settle(address wallet, PaymentTypesLib.Payment memory payment, string memory standard,\n        uint256 nonce, DriipSettlementTypesLib.SettlementRole settlementRole)\n    private\n    {\n        // Extract current balance and total fees\n        (int256 correctedCurrentBalanceAmount, int settleAmount, NahmiiTypesLib.OriginFigure[] memory totalFees) =\n        _paymentPartyProperties(payment, wallet);\n\n        // Get max nonce for wallet and currency\n        uint256 maxNonce = driipSettlementState.maxNonceByWalletAndCurrency(wallet, payment.currency);\n\n        // If wallet has previously settled balance of the concerned currency with higher wallet nonce, then don't\n        // settle balance again\n        if (maxNonce < nonce) {\n            // Update max nonce of wallet and currency\n            driipSettlementState.setMaxNonceByWalletAndCurrency(wallet, payment.currency, nonce);\n\n            // Update settled balance\n            clientFund.updateSettledBalance(\n                wallet, correctedCurrentBalanceAmount, payment.currency.ct, payment.currency.id, standard, block.number\n            );\n\n            // Update settled amount\n            driipSettlementState.addSettledAmountByBlockNumber(wallet, settleAmount, payment.currency, payment.blockNumber);\n\n            // Stage (stage function assures positive amount only)\n            clientFund.stage(\n                wallet, driipSettlementChallengeState.proposalStageAmount(wallet, payment.currency),\n                payment.currency.ct, payment.currency.id, standard\n            );\n\n            // Stage fees to revenue fund\n            if (address(0) != address(revenueFund))\n                _stageFees(wallet, totalFees, revenueFund, nonce, standard);\n\n            // Complete settlement of party\n            driipSettlementState.completeSettlement(\n                wallet, nonce, settlementRole, true\n            );\n        }\n    }\n\n    function _getSettlementRoleNonce(PaymentTypesLib.Payment memory payment, address wallet)\n    private\n    view\n    returns (DriipSettlementTypesLib.SettlementRole settlementRole, uint256 nonce)\n    {\n        if (validator.isPaymentSender(payment, wallet)) {\n            settlementRole = DriipSettlementTypesLib.SettlementRole.Origin;\n            nonce = payment.sender.nonce;\n        } else {\n            settlementRole = DriipSettlementTypesLib.SettlementRole.Target;\n            nonce = payment.recipient.nonce;\n        }\n    }\n\n    function _paymentPartyProperties(PaymentTypesLib.Payment memory payment,\n        address wallet)\n    private\n    view\n    returns (int256 correctedPaymentBalanceAmount, int settleAmount, NahmiiTypesLib.OriginFigure[] memory totalFees)\n    {\n        if (validator.isPaymentSender(payment, wallet)) {\n            correctedPaymentBalanceAmount = payment.sender.balances.current;\n            totalFees = payment.sender.fees.total;\n        } else {\n            correctedPaymentBalanceAmount = payment.recipient.balances.current;\n            totalFees = payment.recipient.fees.total;\n        }\n\n        // Obtain delta in active balance amount since payment's block number\n        int256 deltaActiveBalanceAmount = balanceTracker.fungibleActiveDeltaBalanceAmountByBlockNumbers(\n            wallet, payment.currency, payment.blockNumber, block.number\n        );\n\n        // Obtain delta in settled balance amount\n        int256 deltaSettledBalanceAmount = driipSettlementState.settledAmountByBlockNumber(\n            wallet, payment.currency, payment.blockNumber\n        );\n\n        // Calculate settle amount by this payment\n        settleAmount = correctedPaymentBalanceAmount.sub(\n            balanceTracker.fungibleActiveBalanceAmountByBlockNumber(\n                wallet, payment.currency, payment.blockNumber\n            )\n        ).sub(deltaSettledBalanceAmount);\n\n        // Correct the payment's balance by on-chain deltas\n        correctedPaymentBalanceAmount = correctedPaymentBalanceAmount\n        .add(deltaActiveBalanceAmount)\n        .sub(deltaSettledBalanceAmount);\n    }\n\n    function _stageFees(address wallet, NahmiiTypesLib.OriginFigure[] memory fees,\n        Beneficiary protocolBeneficiary, uint256 nonce, string memory standard)\n    private\n    {\n        // For each origin figure...\n        for (uint256 i = 0; i < fees.length; i++) {\n            // Based on originId determine the fee beneficiary\n            Beneficiary beneficiary;\n            if (0 == fees[i].originId)\n                beneficiary = protocolBeneficiary;\n            else if (\n                0 < partnerBenefactor.registeredBeneficiariesCount() &&\n                fees[i].originId <= partnerBenefactor.registeredBeneficiariesCount()\n            )\n                beneficiary = partnerBenefactor.beneficiaries(fees[i].originId.sub(1));\n\n            // Continue if there is no beneficiary corresponding to the origin ID\n            if (address(0) == address(beneficiary))\n                continue;\n\n            // Define destination from origin ID\n            address destination = address(fees[i].originId);\n\n            // If the nonce of the last total fee update is smaller then the current nonce...\n            if (driipSettlementState.totalFee(wallet, beneficiary, destination, fees[i].figure.currency).nonce < nonce) {\n                // Get the amount previously staged\n                int256 deltaAmount = fees[i].figure.amount.sub(driipSettlementState.totalFee(wallet, beneficiary, destination, fees[i].figure.currency).amount);\n\n                // If the fee delta is strictly positive...\n                if (deltaAmount.isNonZeroPositiveInt256()) {\n                    // Update total fee\n                    driipSettlementState.setTotalFee(wallet, beneficiary, destination, fees[i].figure.currency, MonetaryTypesLib.NoncedAmount(nonce, fees[i].figure.amount));\n\n                    // Stage to beneficiary\n                    clientFund.transferToBeneficiary(\n                        wallet, beneficiary, deltaAmount, fees[i].figure.currency.ct, fees[i].figure.currency.id, standard\n                    );\n\n                    // Emit event\n                    emit StageFeesEvent(\n                        wallet, deltaAmount, fees[i].figure.amount, fees[i].figure.currency.ct, fees[i].figure.currency.id\n                    );\n                }\n            }\n        }\n    }\n}",
  "sourcePath": "/opt/buildagent/work/855e104608380c36/contracts/DriipSettlementByPayment.sol",
  "compiler": {
    "name": "solc",
    "version": "0.5.11+commit.c082d0b4.Emscripten.clang"
  },
  "schemaVersion": "2.0.2",
  "updatedAt": "2019-08-13T15:34:09.334Z"
}