{
  "contractName": "DriipSettlementChallengeState",
  "abi": [
    {
      "constant": true,
      "inputs": [
        {
          "name": "",
          "type": "uint256"
        }
      ],
      "name": "proposals",
      "outputs": [
        {
          "name": "wallet",
          "type": "address"
        },
        {
          "name": "nonce",
          "type": "uint256"
        },
        {
          "name": "referenceBlockNumber",
          "type": "uint256"
        },
        {
          "name": "definitionBlockNumber",
          "type": "uint256"
        },
        {
          "name": "expirationTime",
          "type": "uint256"
        },
        {
          "name": "status",
          "type": "uint8"
        },
        {
          "components": [
            {
              "name": "cumulativeTransfer",
              "type": "int256"
            },
            {
              "name": "stage",
              "type": "int256"
            },
            {
              "name": "targetBalance",
              "type": "int256"
            }
          ],
          "name": "amounts",
          "type": "tuple"
        },
        {
          "components": [
            {
              "name": "ct",
              "type": "address"
            },
            {
              "name": "id",
              "type": "uint256"
            }
          ],
          "name": "currency",
          "type": "tuple"
        },
        {
          "components": [
            {
              "name": "kind",
              "type": "string"
            },
            {
              "name": "hash",
              "type": "bytes32"
            }
          ],
          "name": "challenged",
          "type": "tuple"
        },
        {
          "name": "walletInitiated",
          "type": "bool"
        },
        {
          "name": "terminated",
          "type": "bool"
        },
        {
          "components": [
            {
              "name": "challenger",
              "type": "address"
            },
            {
              "name": "nonce",
              "type": "uint256"
            },
            {
              "name": "blockNumber",
              "type": "uint256"
            },
            {
              "components": [
                {
                  "name": "kind",
                  "type": "string"
                },
                {
                  "name": "hash",
                  "type": "bytes32"
                }
              ],
              "name": "candidate",
              "type": "tuple"
            }
          ],
          "name": "disqualification",
          "type": "tuple"
        }
      ],
      "payable": false,
      "stateMutability": "view",
      "type": "function"
    },
    {
      "constant": true,
      "inputs": [
        {
          "name": "service",
          "type": "address"
        }
      ],
      "name": "isRegisteredActiveService",
      "outputs": [
        {
          "name": "",
          "type": "bool"
        }
      ],
      "payable": false,
      "stateMutability": "view",
      "type": "function"
    },
    {
      "constant": false,
      "inputs": [],
      "name": "triggerSelfDestruction",
      "outputs": [],
      "payable": false,
      "stateMutability": "nonpayable",
      "type": "function"
    },
    {
      "constant": false,
      "inputs": [
        {
          "name": "service",
          "type": "address"
        },
        {
          "name": "action",
          "type": "string"
        }
      ],
      "name": "enableServiceAction",
      "outputs": [],
      "payable": false,
      "stateMutability": "nonpayable",
      "type": "function"
    },
    {
      "constant": true,
      "inputs": [
        {
          "name": "service",
          "type": "address"
        }
      ],
      "name": "isRegisteredService",
      "outputs": [
        {
          "name": "",
          "type": "bool"
        }
      ],
      "payable": false,
      "stateMutability": "view",
      "type": "function"
    },
    {
      "constant": true,
      "inputs": [],
      "name": "selfDestructionDisabled",
      "outputs": [
        {
          "name": "",
          "type": "bool"
        }
      ],
      "payable": false,
      "stateMutability": "view",
      "type": "function"
    },
    {
      "constant": false,
      "inputs": [
        {
          "name": "service",
          "type": "address"
        },
        {
          "name": "action",
          "type": "string"
        }
      ],
      "name": "disableServiceAction",
      "outputs": [],
      "payable": false,
      "stateMutability": "nonpayable",
      "type": "function"
    },
    {
      "constant": true,
      "inputs": [],
      "name": "serviceActivationTimeout",
      "outputs": [
        {
          "name": "",
          "type": "uint256"
        }
      ],
      "payable": false,
      "stateMutability": "view",
      "type": "function"
    },
    {
      "constant": true,
      "inputs": [],
      "name": "destructor",
      "outputs": [
        {
          "name": "",
          "type": "address"
        }
      ],
      "payable": false,
      "stateMutability": "view",
      "type": "function"
    },
    {
      "constant": false,
      "inputs": [
        {
          "name": "service",
          "type": "address"
        }
      ],
      "name": "deregisterService",
      "outputs": [],
      "payable": false,
      "stateMutability": "nonpayable",
      "type": "function"
    },
    {
      "constant": true,
      "inputs": [],
      "name": "operator",
      "outputs": [
        {
          "name": "",
          "type": "address"
        }
      ],
      "payable": false,
      "stateMutability": "view",
      "type": "function"
    },
    {
      "constant": true,
      "inputs": [
        {
          "name": "service",
          "type": "address"
        },
        {
          "name": "action",
          "type": "string"
        }
      ],
      "name": "isEnabledServiceAction",
      "outputs": [
        {
          "name": "",
          "type": "bool"
        }
      ],
      "payable": false,
      "stateMutability": "view",
      "type": "function"
    },
    {
      "constant": true,
      "inputs": [
        {
          "name": "",
          "type": "address"
        },
        {
          "name": "",
          "type": "uint256"
        },
        {
          "name": "",
          "type": "address"
        },
        {
          "name": "",
          "type": "uint256"
        }
      ],
      "name": "proposalIndexByWalletNonceCurrency",
      "outputs": [
        {
          "name": "",
          "type": "uint256"
        }
      ],
      "payable": false,
      "stateMutability": "view",
      "type": "function"
    },
    {
      "constant": true,
      "inputs": [],
      "name": "QUALIFY_PROPOSAL_ACTION",
      "outputs": [
        {
          "name": "",
          "type": "string"
        }
      ],
      "payable": false,
      "stateMutability": "view",
      "type": "function"
    },
    {
      "constant": false,
      "inputs": [
        {
          "name": "newConfiguration",
          "type": "address"
        }
      ],
      "name": "setConfiguration",
      "outputs": [],
      "payable": false,
      "stateMutability": "nonpayable",
      "type": "function"
    },
    {
      "constant": true,
      "inputs": [
        {
          "name": "",
          "type": "address"
        },
        {
          "name": "",
          "type": "address"
        },
        {
          "name": "",
          "type": "uint256"
        }
      ],
      "name": "proposalIndexByWalletCurrency",
      "outputs": [
        {
          "name": "",
          "type": "uint256"
        }
      ],
      "payable": false,
      "stateMutability": "view",
      "type": "function"
    },
    {
      "constant": true,
      "inputs": [],
      "name": "configuration",
      "outputs": [
        {
          "name": "",
          "type": "address"
        }
      ],
      "payable": false,
      "stateMutability": "view",
      "type": "function"
    },
    {
      "constant": false,
      "inputs": [],
      "name": "disableSelfDestruction",
      "outputs": [],
      "payable": false,
      "stateMutability": "nonpayable",
      "type": "function"
    },
    {
      "constant": false,
      "inputs": [
        {
          "name": "timeoutInSeconds",
          "type": "uint256"
        }
      ],
      "name": "setServiceActivationTimeout",
      "outputs": [],
      "payable": false,
      "stateMutability": "nonpayable",
      "type": "function"
    },
    {
      "constant": true,
      "inputs": [],
      "name": "TERMINATE_PROPOSAL_ACTION",
      "outputs": [
        {
          "name": "",
          "type": "string"
        }
      ],
      "payable": false,
      "stateMutability": "view",
      "type": "function"
    },
    {
      "constant": false,
      "inputs": [
        {
          "name": "service",
          "type": "address"
        }
      ],
      "name": "registerServiceDeferred",
      "outputs": [],
      "payable": false,
      "stateMutability": "nonpayable",
      "type": "function"
    },
    {
      "constant": true,
      "inputs": [],
      "name": "REMOVE_PROPOSAL_ACTION",
      "outputs": [
        {
          "name": "",
          "type": "string"
        }
      ],
      "payable": false,
      "stateMutability": "view",
      "type": "function"
    },
    {
      "constant": false,
      "inputs": [
        {
          "name": "newDeployer",
          "type": "address"
        }
      ],
      "name": "setDeployer",
      "outputs": [],
      "payable": false,
      "stateMutability": "nonpayable",
      "type": "function"
    },
    {
      "constant": true,
      "inputs": [],
      "name": "INITIATE_PROPOSAL_ACTION",
      "outputs": [
        {
          "name": "",
          "type": "string"
        }
      ],
      "payable": false,
      "stateMutability": "view",
      "type": "function"
    },
    {
      "constant": false,
      "inputs": [
        {
          "name": "newOperator",
          "type": "address"
        }
      ],
      "name": "setOperator",
      "outputs": [],
      "payable": false,
      "stateMutability": "nonpayable",
      "type": "function"
    },
    {
      "constant": true,
      "inputs": [],
      "name": "deployer",
      "outputs": [
        {
          "name": "",
          "type": "address"
        }
      ],
      "payable": false,
      "stateMutability": "view",
      "type": "function"
    },
    {
      "constant": true,
      "inputs": [],
      "name": "DISQUALIFY_PROPOSAL_ACTION",
      "outputs": [
        {
          "name": "",
          "type": "string"
        }
      ],
      "payable": false,
      "stateMutability": "view",
      "type": "function"
    },
    {
      "constant": false,
      "inputs": [
        {
          "name": "service",
          "type": "address"
        }
      ],
      "name": "registerService",
      "outputs": [],
      "payable": false,
      "stateMutability": "nonpayable",
      "type": "function"
    },
    {
      "inputs": [
        {
          "name": "deployer",
          "type": "address"
        }
      ],
      "payable": false,
      "stateMutability": "nonpayable",
      "type": "constructor"
    },
    {
      "anonymous": false,
      "inputs": [
        {
          "indexed": false,
          "name": "wallet",
          "type": "address"
        },
        {
          "indexed": false,
          "name": "nonce",
          "type": "uint256"
        },
        {
          "indexed": false,
          "name": "cumulativeTransferAmount",
          "type": "int256"
        },
        {
          "indexed": false,
          "name": "stageAmount",
          "type": "int256"
        },
        {
          "indexed": false,
          "name": "targetBalanceAmount",
          "type": "int256"
        },
        {
          "components": [
            {
              "name": "ct",
              "type": "address"
            },
            {
              "name": "id",
              "type": "uint256"
            }
          ],
          "indexed": false,
          "name": "currency",
          "type": "tuple"
        },
        {
          "indexed": false,
          "name": "blockNumber",
          "type": "uint256"
        },
        {
          "indexed": false,
          "name": "walletInitiated",
          "type": "bool"
        },
        {
          "indexed": false,
          "name": "challengedHash",
          "type": "bytes32"
        },
        {
          "indexed": false,
          "name": "challengedKind",
          "type": "string"
        }
      ],
      "name": "InitiateProposalEvent",
      "type": "event"
    },
    {
      "anonymous": false,
      "inputs": [
        {
          "indexed": false,
          "name": "wallet",
          "type": "address"
        },
        {
          "indexed": false,
          "name": "nonce",
          "type": "uint256"
        },
        {
          "indexed": false,
          "name": "cumulativeTransferAmount",
          "type": "int256"
        },
        {
          "indexed": false,
          "name": "stageAmount",
          "type": "int256"
        },
        {
          "indexed": false,
          "name": "targetBalanceAmount",
          "type": "int256"
        },
        {
          "components": [
            {
              "name": "ct",
              "type": "address"
            },
            {
              "name": "id",
              "type": "uint256"
            }
          ],
          "indexed": false,
          "name": "currency",
          "type": "tuple"
        },
        {
          "indexed": false,
          "name": "blockNumber",
          "type": "uint256"
        },
        {
          "indexed": false,
          "name": "walletInitiated",
          "type": "bool"
        },
        {
          "indexed": false,
          "name": "challengedHash",
          "type": "bytes32"
        },
        {
          "indexed": false,
          "name": "challengedKind",
          "type": "string"
        }
      ],
      "name": "TerminateProposalEvent",
      "type": "event"
    },
    {
      "anonymous": false,
      "inputs": [
        {
          "indexed": false,
          "name": "wallet",
          "type": "address"
        },
        {
          "indexed": false,
          "name": "nonce",
          "type": "uint256"
        },
        {
          "indexed": false,
          "name": "cumulativeTransferAmount",
          "type": "int256"
        },
        {
          "indexed": false,
          "name": "stageAmount",
          "type": "int256"
        },
        {
          "indexed": false,
          "name": "targetBalanceAmount",
          "type": "int256"
        },
        {
          "components": [
            {
              "name": "ct",
              "type": "address"
            },
            {
              "name": "id",
              "type": "uint256"
            }
          ],
          "indexed": false,
          "name": "currency",
          "type": "tuple"
        },
        {
          "indexed": false,
          "name": "blockNumber",
          "type": "uint256"
        },
        {
          "indexed": false,
          "name": "walletInitiated",
          "type": "bool"
        },
        {
          "indexed": false,
          "name": "challengedHash",
          "type": "bytes32"
        },
        {
          "indexed": false,
          "name": "challengedKind",
          "type": "string"
        }
      ],
      "name": "RemoveProposalEvent",
      "type": "event"
    },
    {
      "anonymous": false,
      "inputs": [
        {
          "indexed": false,
          "name": "challengedWallet",
          "type": "address"
        },
        {
          "indexed": false,
          "name": "challengedNonce",
          "type": "uint256"
        },
        {
          "indexed": false,
          "name": "cumulativeTransferAmount",
          "type": "int256"
        },
        {
          "indexed": false,
          "name": "stageAmount",
          "type": "int256"
        },
        {
          "indexed": false,
          "name": "targetBalanceAmount",
          "type": "int256"
        },
        {
          "components": [
            {
              "name": "ct",
              "type": "address"
            },
            {
              "name": "id",
              "type": "uint256"
            }
          ],
          "indexed": false,
          "name": "currency",
          "type": "tuple"
        },
        {
          "indexed": false,
          "name": "blockNumber",
          "type": "uint256"
        },
        {
          "indexed": false,
          "name": "walletInitiated",
          "type": "bool"
        },
        {
          "indexed": false,
          "name": "challengerWallet",
          "type": "address"
        },
        {
          "indexed": false,
          "name": "candidateNonce",
          "type": "uint256"
        },
        {
          "indexed": false,
          "name": "candidateHash",
          "type": "bytes32"
        },
        {
          "indexed": false,
          "name": "candidateKind",
          "type": "string"
        }
      ],
      "name": "DisqualifyProposalEvent",
      "type": "event"
    },
    {
      "anonymous": false,
      "inputs": [
        {
          "indexed": false,
          "name": "challengedWallet",
          "type": "address"
        },
        {
          "indexed": false,
          "name": "challengedNonce",
          "type": "uint256"
        },
        {
          "indexed": false,
          "name": "cumulativeTransferAmount",
          "type": "int256"
        },
        {
          "indexed": false,
          "name": "stageAmount",
          "type": "int256"
        },
        {
          "indexed": false,
          "name": "targetBalanceAmount",
          "type": "int256"
        },
        {
          "components": [
            {
              "name": "ct",
              "type": "address"
            },
            {
              "name": "id",
              "type": "uint256"
            }
          ],
          "indexed": false,
          "name": "currency",
          "type": "tuple"
        },
        {
          "indexed": false,
          "name": "blockNumber",
          "type": "uint256"
        },
        {
          "indexed": false,
          "name": "walletInitiated",
          "type": "bool"
        },
        {
          "indexed": false,
          "name": "challengerWallet",
          "type": "address"
        },
        {
          "indexed": false,
          "name": "candidateNonce",
          "type": "uint256"
        },
        {
          "indexed": false,
          "name": "candidateHash",
          "type": "bytes32"
        },
        {
          "indexed": false,
          "name": "candidateKind",
          "type": "string"
        }
      ],
      "name": "QualifyProposalEvent",
      "type": "event"
    },
    {
      "anonymous": false,
      "inputs": [
        {
          "indexed": false,
          "name": "oldConfiguration",
          "type": "address"
        },
        {
          "indexed": false,
          "name": "newConfiguration",
          "type": "address"
        }
      ],
      "name": "SetConfigurationEvent",
      "type": "event"
    },
    {
      "anonymous": false,
      "inputs": [
        {
          "indexed": false,
          "name": "timeoutInSeconds",
          "type": "uint256"
        }
      ],
      "name": "ServiceActivationTimeoutEvent",
      "type": "event"
    },
    {
      "anonymous": false,
      "inputs": [
        {
          "indexed": false,
          "name": "service",
          "type": "address"
        }
      ],
      "name": "RegisterServiceEvent",
      "type": "event"
    },
    {
      "anonymous": false,
      "inputs": [
        {
          "indexed": false,
          "name": "service",
          "type": "address"
        },
        {
          "indexed": false,
          "name": "timeout",
          "type": "uint256"
        }
      ],
      "name": "RegisterServiceDeferredEvent",
      "type": "event"
    },
    {
      "anonymous": false,
      "inputs": [
        {
          "indexed": false,
          "name": "service",
          "type": "address"
        }
      ],
      "name": "DeregisterServiceEvent",
      "type": "event"
    },
    {
      "anonymous": false,
      "inputs": [
        {
          "indexed": false,
          "name": "service",
          "type": "address"
        },
        {
          "indexed": false,
          "name": "action",
          "type": "string"
        }
      ],
      "name": "EnableServiceActionEvent",
      "type": "event"
    },
    {
      "anonymous": false,
      "inputs": [
        {
          "indexed": false,
          "name": "service",
          "type": "address"
        },
        {
          "indexed": false,
          "name": "action",
          "type": "string"
        }
      ],
      "name": "DisableServiceActionEvent",
      "type": "event"
    },
    {
      "anonymous": false,
      "inputs": [
        {
          "indexed": false,
          "name": "oldDeployer",
          "type": "address"
        },
        {
          "indexed": false,
          "name": "newDeployer",
          "type": "address"
        }
      ],
      "name": "SetDeployerEvent",
      "type": "event"
    },
    {
      "anonymous": false,
      "inputs": [
        {
          "indexed": false,
          "name": "oldOperator",
          "type": "address"
        },
        {
          "indexed": false,
          "name": "newOperator",
          "type": "address"
        }
      ],
      "name": "SetOperatorEvent",
      "type": "event"
    },
    {
      "anonymous": false,
      "inputs": [
        {
          "indexed": false,
          "name": "wallet",
          "type": "address"
        }
      ],
      "name": "SelfDestructionDisabledEvent",
      "type": "event"
    },
    {
      "anonymous": false,
      "inputs": [
        {
          "indexed": false,
          "name": "wallet",
          "type": "address"
        }
      ],
      "name": "TriggerSelfDestructionEvent",
      "type": "event"
    },
    {
      "constant": true,
      "inputs": [],
      "name": "proposalsCount",
      "outputs": [
        {
          "name": "",
          "type": "uint256"
        }
      ],
      "payable": false,
      "stateMutability": "view",
      "type": "function"
    },
    {
      "constant": false,
      "inputs": [
        {
          "name": "wallet",
          "type": "address"
        },
        {
          "name": "nonce",
          "type": "uint256"
        },
        {
          "name": "cumulativeTransferAmount",
          "type": "int256"
        },
        {
          "name": "stageAmount",
          "type": "int256"
        },
        {
          "name": "targetBalanceAmount",
          "type": "int256"
        },
        {
          "components": [
            {
              "name": "ct",
              "type": "address"
            },
            {
              "name": "id",
              "type": "uint256"
            }
          ],
          "name": "currency",
          "type": "tuple"
        },
        {
          "name": "blockNumber",
          "type": "uint256"
        },
        {
          "name": "walletInitiated",
          "type": "bool"
        },
        {
          "name": "challengedHash",
          "type": "bytes32"
        },
        {
          "name": "challengedKind",
          "type": "string"
        }
      ],
      "name": "initiateProposal",
      "outputs": [],
      "payable": false,
      "stateMutability": "nonpayable",
      "type": "function"
    },
    {
      "constant": false,
      "inputs": [
        {
          "name": "wallet",
          "type": "address"
        },
        {
          "components": [
            {
              "name": "ct",
              "type": "address"
            },
            {
              "name": "id",
              "type": "uint256"
            }
          ],
          "name": "currency",
          "type": "tuple"
        },
        {
          "name": "clearNonce",
          "type": "bool"
        }
      ],
      "name": "terminateProposal",
      "outputs": [],
      "payable": false,
      "stateMutability": "nonpayable",
      "type": "function"
    },
    {
      "constant": false,
      "inputs": [
        {
          "name": "wallet",
          "type": "address"
        },
        {
          "components": [
            {
              "name": "ct",
              "type": "address"
            },
            {
              "name": "id",
              "type": "uint256"
            }
          ],
          "name": "currency",
          "type": "tuple"
        },
        {
          "name": "clearNonce",
          "type": "bool"
        },
        {
          "name": "walletTerminated",
          "type": "bool"
        }
      ],
      "name": "terminateProposal",
      "outputs": [],
      "payable": false,
      "stateMutability": "nonpayable",
      "type": "function"
    },
    {
      "constant": false,
      "inputs": [
        {
          "name": "wallet",
          "type": "address"
        },
        {
          "components": [
            {
              "name": "ct",
              "type": "address"
            },
            {
              "name": "id",
              "type": "uint256"
            }
          ],
          "name": "currency",
          "type": "tuple"
        }
      ],
      "name": "removeProposal",
      "outputs": [],
      "payable": false,
      "stateMutability": "nonpayable",
      "type": "function"
    },
    {
      "constant": false,
      "inputs": [
        {
          "name": "wallet",
          "type": "address"
        },
        {
          "components": [
            {
              "name": "ct",
              "type": "address"
            },
            {
              "name": "id",
              "type": "uint256"
            }
          ],
          "name": "currency",
          "type": "tuple"
        },
        {
          "name": "walletTerminated",
          "type": "bool"
        }
      ],
      "name": "removeProposal",
      "outputs": [],
      "payable": false,
      "stateMutability": "nonpayable",
      "type": "function"
    },
    {
      "constant": false,
      "inputs": [
        {
          "name": "challengedWallet",
          "type": "address"
        },
        {
          "components": [
            {
              "name": "ct",
              "type": "address"
            },
            {
              "name": "id",
              "type": "uint256"
            }
          ],
          "name": "currency",
          "type": "tuple"
        },
        {
          "name": "challengerWallet",
          "type": "address"
        },
        {
          "name": "blockNumber",
          "type": "uint256"
        },
        {
          "name": "candidateNonce",
          "type": "uint256"
        },
        {
          "name": "candidateHash",
          "type": "bytes32"
        },
        {
          "name": "candidateKind",
          "type": "string"
        }
      ],
      "name": "disqualifyProposal",
      "outputs": [],
      "payable": false,
      "stateMutability": "nonpayable",
      "type": "function"
    },
    {
      "constant": false,
      "inputs": [
        {
          "name": "wallet",
          "type": "address"
        },
        {
          "components": [
            {
              "name": "ct",
              "type": "address"
            },
            {
              "name": "id",
              "type": "uint256"
            }
          ],
          "name": "currency",
          "type": "tuple"
        }
      ],
      "name": "qualifyProposal",
      "outputs": [],
      "payable": false,
      "stateMutability": "nonpayable",
      "type": "function"
    },
    {
      "constant": true,
      "inputs": [
        {
          "name": "wallet",
          "type": "address"
        },
        {
          "components": [
            {
              "name": "ct",
              "type": "address"
            },
            {
              "name": "id",
              "type": "uint256"
            }
          ],
          "name": "currency",
          "type": "tuple"
        }
      ],
      "name": "hasProposal",
      "outputs": [
        {
          "name": "",
          "type": "bool"
        }
      ],
      "payable": false,
      "stateMutability": "view",
      "type": "function"
    },
    {
      "constant": true,
      "inputs": [
        {
          "name": "wallet",
          "type": "address"
        },
        {
          "name": "nonce",
          "type": "uint256"
        },
        {
          "components": [
            {
              "name": "ct",
              "type": "address"
            },
            {
              "name": "id",
              "type": "uint256"
            }
          ],
          "name": "currency",
          "type": "tuple"
        }
      ],
      "name": "hasProposal",
      "outputs": [
        {
          "name": "",
          "type": "bool"
        }
      ],
      "payable": false,
      "stateMutability": "view",
      "type": "function"
    },
    {
      "constant": true,
      "inputs": [
        {
          "name": "wallet",
          "type": "address"
        },
        {
          "components": [
            {
              "name": "ct",
              "type": "address"
            },
            {
              "name": "id",
              "type": "uint256"
            }
          ],
          "name": "currency",
          "type": "tuple"
        }
      ],
      "name": "hasProposalTerminated",
      "outputs": [
        {
          "name": "",
          "type": "bool"
        }
      ],
      "payable": false,
      "stateMutability": "view",
      "type": "function"
    },
    {
      "constant": true,
      "inputs": [
        {
          "name": "wallet",
          "type": "address"
        },
        {
          "components": [
            {
              "name": "ct",
              "type": "address"
            },
            {
              "name": "id",
              "type": "uint256"
            }
          ],
          "name": "currency",
          "type": "tuple"
        }
      ],
      "name": "hasProposalExpired",
      "outputs": [
        {
          "name": "",
          "type": "bool"
        }
      ],
      "payable": false,
      "stateMutability": "view",
      "type": "function"
    },
    {
      "constant": true,
      "inputs": [
        {
          "name": "wallet",
          "type": "address"
        },
        {
          "components": [
            {
              "name": "ct",
              "type": "address"
            },
            {
              "name": "id",
              "type": "uint256"
            }
          ],
          "name": "currency",
          "type": "tuple"
        }
      ],
      "name": "proposalNonce",
      "outputs": [
        {
          "name": "",
          "type": "uint256"
        }
      ],
      "payable": false,
      "stateMutability": "view",
      "type": "function"
    },
    {
      "constant": true,
      "inputs": [
        {
          "name": "wallet",
          "type": "address"
        },
        {
          "components": [
            {
              "name": "ct",
              "type": "address"
            },
            {
              "name": "id",
              "type": "uint256"
            }
          ],
          "name": "currency",
          "type": "tuple"
        }
      ],
      "name": "proposalReferenceBlockNumber",
      "outputs": [
        {
          "name": "",
          "type": "uint256"
        }
      ],
      "payable": false,
      "stateMutability": "view",
      "type": "function"
    },
    {
      "constant": true,
      "inputs": [
        {
          "name": "wallet",
          "type": "address"
        },
        {
          "components": [
            {
              "name": "ct",
              "type": "address"
            },
            {
              "name": "id",
              "type": "uint256"
            }
          ],
          "name": "currency",
          "type": "tuple"
        }
      ],
      "name": "proposalDefinitionBlockNumber",
      "outputs": [
        {
          "name": "",
          "type": "uint256"
        }
      ],
      "payable": false,
      "stateMutability": "view",
      "type": "function"
    },
    {
      "constant": true,
      "inputs": [
        {
          "name": "wallet",
          "type": "address"
        },
        {
          "components": [
            {
              "name": "ct",
              "type": "address"
            },
            {
              "name": "id",
              "type": "uint256"
            }
          ],
          "name": "currency",
          "type": "tuple"
        }
      ],
      "name": "proposalExpirationTime",
      "outputs": [
        {
          "name": "",
          "type": "uint256"
        }
      ],
      "payable": false,
      "stateMutability": "view",
      "type": "function"
    },
    {
      "constant": true,
      "inputs": [
        {
          "name": "wallet",
          "type": "address"
        },
        {
          "components": [
            {
              "name": "ct",
              "type": "address"
            },
            {
              "name": "id",
              "type": "uint256"
            }
          ],
          "name": "currency",
          "type": "tuple"
        }
      ],
      "name": "proposalStatus",
      "outputs": [
        {
          "name": "",
          "type": "uint8"
        }
      ],
      "payable": false,
      "stateMutability": "view",
      "type": "function"
    },
    {
      "constant": true,
      "inputs": [
        {
          "name": "wallet",
          "type": "address"
        },
        {
          "components": [
            {
              "name": "ct",
              "type": "address"
            },
            {
              "name": "id",
              "type": "uint256"
            }
          ],
          "name": "currency",
          "type": "tuple"
        }
      ],
      "name": "proposalCumulativeTransferAmount",
      "outputs": [
        {
          "name": "",
          "type": "int256"
        }
      ],
      "payable": false,
      "stateMutability": "view",
      "type": "function"
    },
    {
      "constant": true,
      "inputs": [
        {
          "name": "wallet",
          "type": "address"
        },
        {
          "components": [
            {
              "name": "ct",
              "type": "address"
            },
            {
              "name": "id",
              "type": "uint256"
            }
          ],
          "name": "currency",
          "type": "tuple"
        }
      ],
      "name": "proposalStageAmount",
      "outputs": [
        {
          "name": "",
          "type": "int256"
        }
      ],
      "payable": false,
      "stateMutability": "view",
      "type": "function"
    },
    {
      "constant": true,
      "inputs": [
        {
          "name": "wallet",
          "type": "address"
        },
        {
          "components": [
            {
              "name": "ct",
              "type": "address"
            },
            {
              "name": "id",
              "type": "uint256"
            }
          ],
          "name": "currency",
          "type": "tuple"
        }
      ],
      "name": "proposalTargetBalanceAmount",
      "outputs": [
        {
          "name": "",
          "type": "int256"
        }
      ],
      "payable": false,
      "stateMutability": "view",
      "type": "function"
    },
    {
      "constant": true,
      "inputs": [
        {
          "name": "wallet",
          "type": "address"
        },
        {
          "components": [
            {
              "name": "ct",
              "type": "address"
            },
            {
              "name": "id",
              "type": "uint256"
            }
          ],
          "name": "currency",
          "type": "tuple"
        }
      ],
      "name": "proposalChallengedHash",
      "outputs": [
        {
          "name": "",
          "type": "bytes32"
        }
      ],
      "payable": false,
      "stateMutability": "view",
      "type": "function"
    },
    {
      "constant": true,
      "inputs": [
        {
          "name": "wallet",
          "type": "address"
        },
        {
          "components": [
            {
              "name": "ct",
              "type": "address"
            },
            {
              "name": "id",
              "type": "uint256"
            }
          ],
          "name": "currency",
          "type": "tuple"
        }
      ],
      "name": "proposalChallengedKind",
      "outputs": [
        {
          "name": "",
          "type": "string"
        }
      ],
      "payable": false,
      "stateMutability": "view",
      "type": "function"
    },
    {
      "constant": true,
      "inputs": [
        {
          "name": "wallet",
          "type": "address"
        },
        {
          "components": [
            {
              "name": "ct",
              "type": "address"
            },
            {
              "name": "id",
              "type": "uint256"
            }
          ],
          "name": "currency",
          "type": "tuple"
        }
      ],
      "name": "proposalWalletInitiated",
      "outputs": [
        {
          "name": "",
          "type": "bool"
        }
      ],
      "payable": false,
      "stateMutability": "view",
      "type": "function"
    },
    {
      "constant": true,
      "inputs": [
        {
          "name": "wallet",
          "type": "address"
        },
        {
          "components": [
            {
              "name": "ct",
              "type": "address"
            },
            {
              "name": "id",
              "type": "uint256"
            }
          ],
          "name": "currency",
          "type": "tuple"
        }
      ],
      "name": "proposalDisqualificationChallenger",
      "outputs": [
        {
          "name": "",
          "type": "address"
        }
      ],
      "payable": false,
      "stateMutability": "view",
      "type": "function"
    },
    {
      "constant": true,
      "inputs": [
        {
          "name": "wallet",
          "type": "address"
        },
        {
          "components": [
            {
              "name": "ct",
              "type": "address"
            },
            {
              "name": "id",
              "type": "uint256"
            }
          ],
          "name": "currency",
          "type": "tuple"
        }
      ],
      "name": "proposalDisqualificationNonce",
      "outputs": [
        {
          "name": "",
          "type": "uint256"
        }
      ],
      "payable": false,
      "stateMutability": "view",
      "type": "function"
    },
    {
      "constant": true,
      "inputs": [
        {
          "name": "wallet",
          "type": "address"
        },
        {
          "components": [
            {
              "name": "ct",
              "type": "address"
            },
            {
              "name": "id",
              "type": "uint256"
            }
          ],
          "name": "currency",
          "type": "tuple"
        }
      ],
      "name": "proposalDisqualificationBlockNumber",
      "outputs": [
        {
          "name": "",
          "type": "uint256"
        }
      ],
      "payable": false,
      "stateMutability": "view",
      "type": "function"
    },
    {
      "constant": true,
      "inputs": [
        {
          "name": "wallet",
          "type": "address"
        },
        {
          "components": [
            {
              "name": "ct",
              "type": "address"
            },
            {
              "name": "id",
              "type": "uint256"
            }
          ],
          "name": "currency",
          "type": "tuple"
        }
      ],
      "name": "proposalDisqualificationCandidateHash",
      "outputs": [
        {
          "name": "",
          "type": "bytes32"
        }
      ],
      "payable": false,
      "stateMutability": "view",
      "type": "function"
    },
    {
      "constant": true,
      "inputs": [
        {
          "name": "wallet",
          "type": "address"
        },
        {
          "components": [
            {
              "name": "ct",
              "type": "address"
            },
            {
              "name": "id",
              "type": "uint256"
            }
          ],
          "name": "currency",
          "type": "tuple"
        }
      ],
      "name": "proposalDisqualificationCandidateKind",
      "outputs": [
        {
          "name": "",
          "type": "string"
        }
      ],
      "payable": false,
      "stateMutability": "view",
      "type": "function"
    }
  ],
  "bytecode": "0x60806040523480156200001157600080fd5b5060405160208062004bb98339810180604052620000339190810190620000b6565b8080600160a060020a03811615156200004b57600080fd5b600160a060020a0381163014156200006257600080fd5b506000805461010060a860020a031916610100600160a060020a039390931692830217905560018054600160a060020a031916909117905550620000eb565b6000620000af8251620000df565b9392505050565b600060208284031215620000c957600080fd5b6000620000d78484620000a1565b949350505050565b600160a060020a031690565b614abe80620000fb6000396000f3006080604052600436106102845763ffffffff60e060020a600035041663013cf08b81146102895780630a9f46ad146102ca57806317ba3f90146102ec5780631b90e3c11461031957806326885b54146103395780632738a1121461035b5780632b5672e3146103705780632b91e0a9146103905780632c1da19a146103b05780632ee2ed25146103dd5780632f013a00146103fd57806335a42383146104125780633b238528146104325780633b58c501146104525780633b7bea6c146104725780634476d23b1461048757806350b08c02146104a957806352a0dd10146104c95780635385f37b146104e95780635482c73514610509578063553d90e914610529578063565872291461054957806356ec907514610569578063570ca735146105895780635df1b0a31461059e5780635fc6100d146105be578063600e461e146105de57806362250584146105fe578063627f09c3146106135780636374e9f6146106335780636543ade114610653578063667666c81461067357806366a6f36d146106935780636c70bee9146106b35780636e90a596146106d557806370327ea1146106f55780637e15dd5c1461070a5780637ff81c371461072a57806388845c951461074a5780638ab3e9651461075f5780638b4ed4c21461077f5780638e8cef121461079f57806390cfe999146107bf57806394da13eb146107d457806396214735146107f45780639d25487e14610814578063a495a30614610829578063b3ab15fb14610849578063b6e2fc3314610869578063bb3bffe014610896578063c46fcd75146108b6578063cf293aac146108d6578063d5f39488146108f6578063da473c571461090b578063e58be0201461092b578063fdd9ec7d14610940575b600080fd5b34801561029557600080fd5b506102a96102a4366004614363565b610960565b6040516102c19c9b9a9998979695949392919061485f565b60405180910390f35b3480156102d657600080fd5b506102df610bf4565b6040516102c1919061491c565b3480156102f857600080fd5b5061030c610307366004613f5a565b610bfb565b6040516102c1919061490e565b34801561032557600080fd5b506102df610334366004614016565b610c33565b34801561034557600080fd5b50610359610354366004614016565b610ca2565b005b34801561036757600080fd5b50610359610e99565b34801561037c57600080fd5b5061035961038b366004613fc5565b610eff565b34801561039c57600080fd5b5061030c6103ab366004613f5a565b61102d565b3480156103bc57600080fd5b506103d06103cb366004614016565b61104b565b6040516102c19190614961565b3480156103e957600080fd5b506102df6103f8366004614016565b611143565b34801561040957600080fd5b5061030c6111b1565b34801561041e57600080fd5b5061035961042d36600461413d565b6111ba565b34801561043e57600080fd5b5061030c61044d366004614016565b61149b565b34801561045e57600080fd5b5061035961046d366004613fc5565b6114d5565b34801561047e57600080fd5b506102df6115b5565b34801561049357600080fd5b5061049c6115bb565b6040516102c19190614571565b3480156104b557600080fd5b506103596104c4366004613f5a565b6115cf565b3480156104d557600080fd5b506103596104e43660046140fa565b611691565b3480156104f557600080fd5b506102df610504366004614016565b6118c1565b34801561051557600080fd5b5061030c610524366004614016565b61192f565b34801561053557600080fd5b506102df610544366004614016565b6119a0565b34801561055557600080fd5b5061049c610564366004614016565b611a11565b34801561057557600080fd5b506102df610584366004614016565b611a89565b34801561059557600080fd5b5061049c611af7565b3480156105aa57600080fd5b5061030c6105b9366004613fc5565b611b06565b3480156105ca57600080fd5b506102df6105d936600461419e565b611b56565b3480156105ea57600080fd5b506102df6105f9366004614016565b611b82565b34801561060a57600080fd5b506103d0611bf3565b34801561061f57600080fd5b5061035961062e366004614345565b611c20565b34801561063f57600080fd5b5061035961064e366004614016565b611cc7565b34801561065f57600080fd5b5061030c61066e3660046142e4565b612087565b34801561067f57600080fd5b5061035961068e366004614046565b6120cc565b34801561069f57600080fd5b506102df6106ae366004613f78565b612453565b3480156106bf57600080fd5b506106c8612476565b6040516102c1919061492a565b3480156106e157600080fd5b506102df6106f0366004614016565b612485565b34801561070157600080fd5b506103596124f3565b34801561071657600080fd5b50610359610725366004614363565b612556565b34801561073657600080fd5b5061030c610745366004614016565b6125a9565b34801561075657600080fd5b506103d0612620565b34801561076b57600080fd5b506102df61077a366004614016565b61264f565b34801561078b57600080fd5b506102df61079a366004614016565b6126c0565b3480156107ab57600080fd5b506103596107ba366004613f5a565b612731565b3480156107cb57600080fd5b506103d06127af565b3480156107e057600080fd5b506103d06107ef366004614016565b6127db565b34801561080057600080fd5b5061035961080f366004613f5a565b61289a565b34801561082057600080fd5b506103d0612961565b34801561083557600080fd5b506103596108443660046140fa565b61298f565b34801561085557600080fd5b50610359610864366004613f5a565b612c27565b34801561087557600080fd5b50610889610884366004614016565b612cd1565b6040516102c19190614953565b3480156108a257600080fd5b506103596108b13660046141f3565b612d43565b3480156108c257600080fd5b506102df6108d1366004614016565b612deb565b3480156108e257600080fd5b5061030c6108f1366004614016565b612e5c565b34801561090257600080fd5b5061049c612ece565b34801561091757600080fd5b506102df610926366004614016565b612ee2565b34801561093757600080fd5b506103d0612f53565b34801561094c57600080fd5b5061035961095b366004613f5a565b612f83565b600580548290811061096e57fe5b90600052602060002090601302016000915090508060000160009054906101000a9004600160a060020a0316908060010154908060020154908060030154908060040154908060050160009054906101000a900460ff16908060060160606040519081016040529081600082015481526020016001820154815260200160028201548152505090806009016040805190810160405290816000820160009054906101000a9004600160a060020a0316600160a060020a0316600160a060020a031681526020016001820154815250509080600b01604080519081016040529081600082018054600181600116156101000203166002900480601f016020809104026020016040519081016040528092919081815260200182805460018160011615610100020316600290048015610ae65780601f10610abb57610100808354040283529160200191610ae6565b820191906000526020600020905b815481529060010190602001808311610ac957829003601f168201915b5050509183525050600191820154602091820152600d84015460408051608081018252600e87018054600160a060020a03168252600f880154828601526010880154828401528251601189018054606060026000196101009b8416158c020190921691909104601f8101899004909802830181018652948201878152989960ff8088169a99909704909616979596939592948087019492939192849291849190840182828015610bd75780601f10610bac57610100808354040283529160200191610bd7565b820191906000526020600020905b815481529060010190602001808311610bba57829003601f168201915b50505091835250506001919091015460209091015290525090508c565b6005545b90565b6000610c068261102d565b8015610c2d5750600160a060020a0382166000908152600260205260409020600101544210155b92915050565b600160a060020a03808316600090815260066020908152604080832085519094168352928152828220848201518352905290812054801515610c7457600080fd5b600580546000198301908110610c8657fe5b6000918252602090912060139091020160120154949350505050565b60006040805190810160405280600f8152602001608a60020a6e1c995b5bdd9957dc1c9bdc1bdcd85b02815250610cd93382611b06565b1515610ce457600080fd5b600160a060020a03808516600090815260066020908152604080832087519094168352928152828220868201518352905220549150811515610d2557610e93565b600080516020614a6583398151915284600560018503815481101515610d4757fe5b906000526020600020906013020160010154600560018603815481101515610d6b57fe5b906000526020600020906013020160060160000154600560018703815481101515610d9257fe5b906000526020600020906013020160060160010154600560018803815481101515610db957fe5b90600052602060002090601302016006016002015488600560018a03815481101515610de157fe5b906000526020600020906013020160020154600560018b03815481101515610e0557fe5b60009182526020909120600d60139092020101546005805460ff909216916000198d01908110610e3157fe5b9060005260206000209060130201600b0160010154600560018d03815481101515610e5857fe5b9060005260206000209060130201600b01600001604051610e829a999897969594939291906147d3565b60405180910390a1610e9382612ffc565b50505050565b33610ea26115bb565b600160a060020a031614610eb557600080fd5b60005460ff1615610ec557600080fd5b7f787a5d936e74f4b564b9153575886059829c78cd9927b1be5e0d976b317ef73633604051610ef49190614571565b60405180910390a133ff5b6000610f09613568565b1515610f1457600080fd5b82600160a060020a0381161515610f2a57600080fd5b600160a060020a038116301415610f4057600080fd5b600160a060020a03841660009081526002602052604090205460ff161515610f6757600080fd5b610f708361357e565b600160a060020a0385166000908152600260208181526040808420858552909201905290205490925060ff1615610fa657600080fd5b600160a060020a03841660009081526002602081815260408084208685528084018352818520805460ff19166001908117909155938352600301805493840181558452922001839055517fec1b982d69bfc1a6fd8becf191d9a633486c822d3bdedd52303ca81fa63575019061101f908690869061459a565b60405180910390a150505050565b600160a060020a031660009081526002602052604090205460ff1690565b600160a060020a038083166000908152600660209081526040808320855190941683529281528282208482015183529052205460609080151561108d57600080fd5b60058054600019830190811061109f57fe5b6000918252602091829020601160139092020101805460408051601f60026000196101006001871615020190941693909304928301859004850281018501909152818152928301828280156111355780601f1061110a57610100808354040283529160200191611135565b820191906000526020600020905b81548152906001019060200180831161111857829003601f168201915b505050505091505092915050565b600160a060020a0380831660009081526006602090815260408083208551909416835292815282822084820151835290529081205480151561118457600080fd5b60058054600019830190811061119657fe5b90600052602060002090601302016001015491505092915050565b60005460ff1681565b6000604080519081016040528060128152602001607260020a711d195c9b5a5b985d1957dc1c9bdc1bdcd85b028152506111f43382611b06565b15156111ff57600080fd5b600160a060020a0380871660009081526006602090815260408083208951909416835292815282822088820151835290522054915081151561124057611493565b60058054600019840190811061125257fe5b60009182526020909120601390910201600d015460ff1615158315151461127857600080fd5b83156112f157600160a060020a03861660009081526007602052604081206005805483919060001987019081106112ab57fe5b6000918252602080832060016013909302019190910154835282810193909352604091820181208951600160a060020a0316825283528181208984015182529092529020555b600160056001840381548110151561130557fe5b9060005260206000209060130201600d0160016101000a81548160ff021916908315150217905550600080516020614a458339815191528660056001850381548110151561134f57fe5b90600052602060002090601302016001015460056001860381548110151561137357fe5b90600052602060002090601302016006016000015460056001870381548110151561139a57fe5b9060005260206000209060130201600601600101546005600188038154811015156113c157fe5b9060005260206000209060130201600601600201548a600560018a038154811015156113e957fe5b906000526020600020906013020160020154600560018b0381548110151561140d57fe5b60009182526020909120600d60139092020101546005805460ff909216916000198d0190811061143957fe5b9060005260206000209060130201600b0160010154600560018d0381548110151561146057fe5b9060005260206000209060130201600b0160000160405161148a9a999897969594939291906147d3565b60405180910390a15b505050505050565b600160a060020a03918216600090815260066020908152604080832084519095168352938152838220928101518252919091522054151590565b60006114df613568565b15156114ea57600080fd5b82600160a060020a038116151561150057600080fd5b600160a060020a03811630141561151657600080fd5b61151f8361357e565b600160a060020a0385166000908152600260208181526040808420858552909201905290205490925060ff16151561155657600080fd5b600160a060020a0384166000908152600260208181526040808420868552909201905290819020805460ff19169055517f92f4af6130f47c92f3899e06611c8c6ef191fb81207ad2675d134af619d2fe7d9061101f908690869061459a565b60035481565b6000546101009004600160a060020a031690565b6115d7613568565b15156115e257600080fd5b80600160a060020a03811615156115f857600080fd5b600160a060020a03811630141561160e57600080fd5b600160a060020a03821660009081526002602052604090205460ff16151561163557600080fd5b600160a060020a03821660009081526002602052604090819020805460ff19169055517f777645c5437dfbf962f57a281ead25f3d513f2f8e938685bbfc1738e81c9880e90611685908490614571565b60405180910390a15050565b60006040805190810160405280600f8152602001608a60020a6e1c995b5bdd9957dc1c9bdc1bdcd85b028152506116c83382611b06565b15156116d357600080fd5b600160a060020a03808616600090815260066020908152604080832088519094168352928152828220878201518352905220549150811515611714576118ba565b60058054600019840190811061172657fe5b60009182526020909120601390910201600d015460ff1615158315151461174c57600080fd5b600080516020614a658339815191528560056001850381548110151561176e57fe5b90600052602060002090601302016001015460056001860381548110151561179257fe5b9060005260206000209060130201600601600001546005600187038154811015156117b957fe5b9060005260206000209060130201600601600101546005600188038154811015156117e057fe5b90600052602060002090601302016006016002015489600560018a0381548110151561180857fe5b906000526020600020906013020160020154600560018b0381548110151561182c57fe5b60009182526020909120600d60139092020101546005805460ff909216916000198d0190811061185857fe5b9060005260206000209060130201600b0160010154600560018d0381548110151561187f57fe5b9060005260206000209060130201600b016000016040516118a99a999897969594939291906147d3565b60405180910390a16118ba82612ffc565b5050505050565b600160a060020a0380831660009081526006602090815260408083208551909416835292815282822084820151835290529081205480151561190257600080fd5b60058054600019830190811061191457fe5b90600052602060002090601302016003015491505092915050565b600160a060020a0380831660009081526006602090815260408083208551909416835292815282822084820151835290529081205480151561197057600080fd5b60058054600019830190811061198257fe5b90600052602060002090601302016004015442101591505092915050565b600160a060020a038083166000908152600660209081526040808320855190941683529281528282208482015183529052908120548015156119e157600080fd5b6005805460001983019081106119f357fe5b9060005260206000209060130201600e016001015491505092915050565b600160a060020a03808316600090815260066020908152604080832085519094168352928152828220848201518352905290812054801515611a5257600080fd5b600580546000198301908110611a6457fe5b60009182526020909120601390910201600e0154600160a060020a0316949350505050565b600160a060020a03808316600090815260066020908152604080832085519094168352928152828220848201518352905290812054801515611aca57600080fd5b600580546000198301908110611adc57fe5b90600052602060002090601302016004015491505092915050565b600154600160a060020a031681565b600080611b128361357e565b9050611b1d84610bfb565b8015611b4e5750600160a060020a0384166000908152600260208181526040808420858552909201905290205460ff165b949350505050565b600760209081526000948552604080862082529385528385208152918452828420909152825290205481565b600160a060020a03808316600090815260066020908152604080832085519094168352928152828220848201518352905290812054801515611bc357600080fd5b600580546000198301908110611bd557fe5b90600052602060002090601302016006016001015491505092915050565b6040805180820190915260108152608260020a6f1c5d585b1a599e57dc1c9bdc1bdcd85b02602082015281565b6000611c2a613568565b1515611c3557600080fd5b81600160a060020a0381161515611c4b57600080fd5b6004548390600160a060020a0390811690821681146118ba5760048054600160a060020a03878116600160a060020a0319831617909255604051911694507f634f61bf00e14adedce330c80c2823e16e184f189ebe853e1ddecc4a268477ff90611cb89086908890614938565b60405180910390a15050505050565b6000604080519081016040528060108152602001608260020a6f1c5d585b1a599e57dc1c9bdc1bdcd85b02815250611cff3382611b06565b1515611d0a57600080fd5b600160a060020a03808516600090815260066020908152604080832087519094168352928152828220868201518352905220549150811515611d4b57600080fd5b7f30053b5bcb3227e70f74ff700ec19b19e81e85335d1363dd0c99832a0493b29c84600560018503815481101515611d7f57fe5b906000526020600020906013020160010154600560018603815481101515611da357fe5b906000526020600020906013020160060160000154600560018703815481101515611dca57fe5b906000526020600020906013020160060160010154600560018803815481101515611df157fe5b90600052602060002090601302016006016002015488600560018a03815481101515611e1957fe5b906000526020600020906013020160020154600560018b03815481101515611e3d57fe5b60009182526020909120600d60139092020101546005805460ff909216916000198d01908110611e6957fe5b60009182526020909120600e601390920201015460058054600160a060020a03909216916000198e01908110611e9b57fe5b9060005260206000209060130201600e0160010154600560018e03815481101515611ec257fe5b9060005260206000209060130201600e0160030160010154600560018f03815481101515611eec57fe5b9060005260206000209060130201600e01600301600001604051611f1b9c9b9a9998979695949392919061468f565b60405180910390a16000600560018403815481101515611f3757fe5b60009182526020909120600560139092020101805460ff191660018381811115611f5d57fe5b0217905550611ffd600460009054906101000a9004600160a060020a0316600160a060020a031663fbdfd8e76040518163ffffffff1660e060020a028152600401602060405180830381600087803b158015611fb857600080fd5b505af1158015611fcc573d6000803e3d6000fd5b505050506040513d601f19601f82011682018060405250611ff09190810190614381565b429063ffffffff61364816565b60058054600019850190811061200f57fe5b600091825260209091206004601390920201015560058054600019840190811061203557fe5b600091825260208220600e6013909202019081018054600160a060020a0319168155600f8201839055601082018390559190601101816120758282613c1a565b60018201600090555050505050505050565b600160a060020a0380841660009081526007602090815260408083208684528252808320855190941683529281528282208482015183529052205415155b9392505050565b6000604080519081016040528060138152602001606a60020a72191a5cdc5d585b1a599e57dc1c9bdc1bdcd85b028152506121073382611b06565b151561211257600080fd5b600160a060020a03808a1660009081526006602090815260408083208c5190941683529281528282208b820151835290522054915081151561215357600080fd5b600160056001840381548110151561216757fe5b60009182526020909120600560139092020101805460ff19166001838181111561218d57fe5b02179055506121e8600460009054906101000a9004600160a060020a0316600160a060020a031663fbdfd8e76040518163ffffffff1660e060020a028152600401602060405180830381600087803b158015611fb857600080fd5b6005805460001985019081106121fa57fe5b9060005260206000209060130201600401819055508660056001840381548110151561222257fe5b9060005260206000209060130201600e0160000160006101000a815481600160a060020a030219169083600160a060020a031602179055508460056001840381548110151561226d57fe5b60009182526020909120600f601390920201015560058054879190600019850190811061229657fe5b60009182526020909120601060139092020101556005805485919060001985019081106122bf57fe5b60009182526020909120601260139092020101556005805484919060001985019081106122e857fe5b9060005260206000209060130201600e016003016000019080519060200190612312929190613c61565b507f9303d1d4f110ee06b0b0a64cf77c16e0f0ac399bb14371df4c5801c6ac4827fb8960056001850381548110151561234757fe5b90600052602060002090601302016001015460056001860381548110151561236b57fe5b90600052602060002090601302016006016000015460056001870381548110151561239257fe5b9060005260206000209060130201600601600101546005600188038154811015156123b957fe5b9060005260206000209060130201600601600201548d600560018a038154811015156123e157fe5b906000526020600020906013020160020154600560018b0381548110151561240557fe5b9060005260206000209060130201600d0160009054906101000a900460ff168f8e8e8e6040516124409c9b9a999897969594939291906145d5565b60405180910390a1505050505050505050565b600660209081526000938452604080852082529284528284209052825290205481565b600454600160a060020a031681565b600160a060020a038083166000908152600660209081526040808320855190941683529281528282208482015183529052908120548015156124c657600080fd5b6005805460001983019081106124d857fe5b90600052602060002090601302016002015491505092915050565b336124fc6115bb565b600160a060020a03161461250f57600080fd5b6000805460ff191660011790556040517fd5a2a04a775c741c2ca0dc46ea7ce4835190e1aaf1ca018def0e82568ec336169061254c903390614571565b60405180910390a1565b61255e613568565b151561256957600080fd5b60038190556040517f4f1d324a1cbffc352fb64f1d73d95e4b200d92f99ef39bf2d7f5b41f946909d69061259e90839061491c565b60405180910390a150565b600160a060020a038083166000908152600660209081526040808320855190941683529281528282208482015183529052908120548015156125ea57600080fd5b6005805460001983019081106125fc57fe5b60009182526020909120601390910201600d0154610100900460ff16949350505050565b6040805180820190915260128152607260020a711d195c9b5a5b985d1957dc1c9bdc1bdcd85b02602082015281565b600160a060020a0380831660009081526006602090815260408083208551909416835292815282822084820151835290529081205480151561269057600080fd5b6005805460001983019081106126a257fe5b90600052602060002090601302016006016000015491505092915050565b600160a060020a0380831660009081526006602090815260408083208551909416835292815282822084820151835290529081205480151561270157600080fd5b60058054600019830190811061271357fe5b9060005260206000209060130201600e016002015491505092915050565b612739613568565b151561274457600080fd5b80600160a060020a038116151561275a57600080fd5b600160a060020a03811630141561277057600080fd5b61277c82600354613657565b7f7f3a8349917003ed377f6e9ae1608b92edd893903f8983bd274b1f8373dd3b11826003546040516116859291906145ba565b60408051808201909152600f8152608a60020a6e1c995b5bdd9957dc1c9bdc1bdcd85b02602082015281565b600160a060020a038083166000908152600660209081526040808320855190941683529281528282208482015183529052205460609080151561281d57600080fd5b60058054600019830190811061282f57fe5b6000918252602091829020600b60139092020101805460408051601f60026000196101006001871615020190941693909304928301859004850281018501909152818152928301828280156111355780601f1061110a57610100808354040283529160200191611135565b60006128a4613568565b15156128af57600080fd5b81600160a060020a03811615156128c557600080fd5b600160a060020a0381163014156128db57600080fd5b600054600160a060020a03848116610100909204161461295c5760008054600160a060020a0385811661010090810261010060a860020a0319841617909355604051929091041692507f977e5fa58e458501775e0008d275006294c5249e3c08d1d0e3a9f3acad14f6e490612953908490869061457f565b60405180910390a15b505050565b6040805180820190915260118152607a60020a701a5b9a5d1a585d1957dc1c9bdc1bdcd85b02602082015281565b6000604080519081016040528060128152602001607260020a711d195c9b5a5b985d1957dc1c9bdc1bdcd85b028152506129c93382611b06565b15156129d457600080fd5b600160a060020a03808616600090815260066020908152604080832088519094168352928152828220878201518352905220549150811515612a15576118ba565b8215612a8e57600160a060020a0385166000908152600760205260408120600580548391906000198701908110612a4857fe5b6000918252602080832060016013909302019190910154835282810193909352604091820181208851600160a060020a0316825283528181208884015182529092529020555b6001600560018403815481101515612aa257fe5b9060005260206000209060130201600d0160016101000a81548160ff021916908315150217905550600080516020614a4583398151915285600560018503815481101515612aec57fe5b906000526020600020906013020160010154600560018603815481101515612b1057fe5b906000526020600020906013020160060160000154600560018703815481101515612b3757fe5b906000526020600020906013020160060160010154600560018803815481101515612b5e57fe5b90600052602060002090601302016006016002015489600560018a03815481101515612b8657fe5b906000526020600020906013020160020154600560018b03815481101515612baa57fe5b60009182526020909120600d60139092020101546005805460ff909216916000198d01908110612bd657fe5b9060005260206000209060130201600b0160010154600560018d03815481101515612bfd57fe5b9060005260206000209060130201600b01600001604051611cb89a999897969594939291906147d3565b6000612c316136a8565b1515612c3c57600080fd5b81600160a060020a0381161515612c5257600080fd5b600160a060020a038116301415612c6857600080fd5b600154600160a060020a0384811691161461295c5760018054600160a060020a03858116600160a060020a0319831617909255604051911692507f9f611b789425d0d5b90b920f1b2852907dd865c80074a30b1629aaa041d1812c90612953908490869061457f565b600160a060020a03808316600090815260066020908152604080832085519094168352928152828220848201518352905290812054801515612d1257600080fd5b600580546000198301908110612d2457fe5b600091825260209091206013909102016005015460ff16949350505050565b6040805180820190915260118152607a60020a701a5b9a5d1a585d1957dc1c9bdc1bdcd85b026020820152612d783382611b06565b1515612d8357600080fd5b612d958b8b8b8b8b8b8b8b8b8b6136b9565b7f223e32349b2f1c24d4fafe2f705321885e6d2a04c3e20e87ca62abcfdb51086d8b8b8b8b8b8b8b8b8b8b604051612dd69a99989796959493929190614737565b60405180910390a15050505050505050505050565b600160a060020a03808316600090815260066020908152604080832085519094168352928152828220848201518352905290812054801515612e2c57600080fd5b600580546000198301908110612e3e57fe5b90600052602060002090601302016006016002015491505092915050565b600160a060020a03808316600090815260066020908152604080832085519094168352928152828220848201518352905290812054801515612e9d57600080fd5b600580546000198301908110612eaf57fe5b60009182526020909120601390910201600d015460ff16949350505050565b6000546101009004600160a060020a031681565b600160a060020a03808316600090815260066020908152604080832085519094168352928152828220848201518352905290812054801515612f2357600080fd5b600580546000198301908110612f3557fe5b9060005260206000209060130201600b016001015491505092915050565b6040805180820190915260138152606a60020a72191a5cdc5d585b1a599e57dc1c9bdc1bdcd85b02602082015281565b612f8b613568565b1515612f9657600080fd5b80600160a060020a0381161515612fac57600080fd5b600160a060020a038116301415612fc257600080fd5b612fcd826000613657565b7fb619d545cb511bd5f02907a1eac4f4cb8dace7b1846852fb0bf5e553937481c1826040516116859190614571565b60006006600060056001850381548110151561301457fe5b60009182526020808320601390920290910154600160a060020a03168352820192909252604001812060058054919291600019860190811061305257fe5b6000918252602080832060096013909302019190910154600160a060020a03168352820192909252604001812060058054919291600019860190811061309457fe5b9060005260206000209060130201600901600101548152602001908152602001600020819055506000600760006005600185038154811015156130d357fe5b60009182526020808320601390920290910154600160a060020a03168352820192909252604001812060058054919291600019860190811061311157fe5b9060005260206000209060130201600101548152602001908152602001600020600060056001850381548110151561314557fe5b6000918252602080832060096013909302019190910154600160a060020a03168352820192909252604001812060058054919291600019860190811061318757fe5b60009182526020808320600a60139093020191909101548352820192909252604001902055600554811015613551576005805460001981019081106131c857fe5b90600052602060002090601302016005600183038154811015156131e857fe5b6000918252602090912082546013909202018054600160a060020a031916600160a060020a0390921691909117815560018083015481830155600280840154908301556003808401549083015560048084015490830155600580840154908301805460ff90921692909160ff191690838181111561326257fe5b02179055506006828101549082015560078083015490820155600880830154908201556009808301549082018054600160a060020a031916600160a060020a03909216919091179055600a8083015490820155600b808301805490918301906132e1908290849060026001821615610100026000190190911604613cdf565b5060019182015490820155600d8381018054918401805460ff938416151560ff19909116178082559154610100908190049093161515830261ff0019909216919091179055600e80850180549185018054600160a060020a031916600160a060020a03909316929092178255600f808701549086015560108087015490860155601180870180549295939490939187019261338e9284928692600292811615909102600019011604613cdf565b50600191820154910155505060058054849350600692506000919060001985019081106133b757fe5b60009182526020808320601390920290910154600160a060020a0316835282019290925260400181206005805491929160001986019081106133f557fe5b6000918252602080832060096013909302019190910154600160a060020a03168352820192909252604001812060058054919291600019860190811061343757fe5b906000526020600020906013020160090160010154815260200190815260200160002081905550806007600060056001850381548110151561347557fe5b60009182526020808320601390920290910154600160a060020a0316835282019290925260400181206005805491929160001986019081106134b357fe5b906000526020600020906013020160010154815260200190815260200160002060006005600185038154811015156134e757fe5b6000918252602080832060096013909302019190910154600160a060020a03168352820192909252604001812060058054919291600019860190811061352957fe5b9060005260206000209060130201600901600101548152602001908152602001600020819055505b6005805490613564906000198301613d54565b5050565b6000546101009004600160a060020a0316331490565b6000816040516020018082805190602001908083835b602083106135b35780518252601f199092019160209182019101613594565b6001836020036101000a0380198251168184511680821785525050505050509050019150506040516020818303038152906040526040518082805190602001908083835b602083106136165780518252601f1990920191602091820191016135f7565b5181516020939093036101000a6000190180199091169216919091179052604051920182900390912095945050505050565b6000828201838110156120c557fe5b600160a060020a03821660009081526002602052604090205460ff16151561356457600160a060020a0382166000908152600260205260409020805460ff1916600190811782554283019101555050565b600154600160a060020a0316331490565b600160a060020a03808b1660009081526007602090815260408083208d84528252808320895190941683529281528282208882015183529052908120541561370057600080fd5b60405160e060020a636b84d93102815273__SafeMathIntLib________________________90636b84d9319061373a908b9060040161491c565b60206040518083038186803b15801561375257600080fd5b505af4158015613766573d6000803e3d6000fd5b505050506040513d601f19601f8201168201806040525061378a9190810190614327565b151561379557600080fd5b60405160e060020a636b84d93102815273__SafeMathIntLib________________________90636b84d931906137cf908a9060040161491c565b60206040518083038186803b1580156137e757600080fd5b505af41580156137fb573d6000803e3d6000fd5b505050506040513d601f19601f8201168201806040525061381f9190810190614327565b151561382a57600080fd5b50600160a060020a03808b16600090815260066020908152604080832089519094168352928152828220888201518352905220548015156138af5760058054600101906138779082613d54565b600160a060020a03808d1660009081526006602090815260408083208b5190941683529281528282208a820151835290522081905590505b8a6005600183038154811015156138c257fe5b906000526020600020906013020160000160006101000a815481600160a060020a030219169083600160a060020a031602179055508960056001830381548110151561390a57fe5b9060005260206000209060130201600101819055508460056001830381548110151561393257fe5b9060005260206000209060130201600201819055504360056001830381548110151561395a57fe5b9060005260206000209060130201600301819055506139c5600460009054906101000a9004600160a060020a0316600160a060020a031663fbdfd8e76040518163ffffffff1660e060020a028152600401602060405180830381600087803b158015611fb857600080fd5b6005805460001984019081106139d757fe5b9060005260206000209060130201600401819055506000600560018303815481101515613a0057fe5b60009182526020909120600560139092020101805460ff191660018381811115613a2657fe5b021790555085600560018303815481101515613a3e57fe5b6000918252602091829020835160139290920201600981018054600160a060020a031916600160a060020a0390931692909217909155910151600a90910155600580548a91906000198401908110613a9257fe5b6000918252602090912060066013909202010155600580548991906000198401908110613abb57fe5b6000918252602090912060076013909202010155600580548891906000198401908110613ae457fe5b6000918252602090912060086013909202010155600580548591906000198401908110613b0d57fe5b60009182526020822060139190910201600d01805460ff191692151592909217909155600580546000198401908110613b4257fe5b9060005260206000209060130201600d0160016101000a81548160ff02191690831515021790555082600560018303815481101515613b7d57fe5b60009182526020909120600c6013909202010155600580548391906000198401908110613ba657fe5b9060005260206000209060130201600b016000019080519060200190613bcd929190613c61565b50600160a060020a039a8b1660009081526007602090815260408083209c83529b81528b82208851909d1682529b8c528a8120968c0151815295909a525050509490209490945550505050565b50805460018160011615610100020316600290046000825580601f10613c405750613c5e565b601f016020900490600052602060002090810190613c5e9190613d80565b50565b828054600181600116156101000203166002900490600052602060002090601f016020900481019282601f10613ca257805160ff1916838001178555613ccf565b82800160010185558215613ccf579182015b82811115613ccf578251825591602001919060010190613cb4565b50613cdb929150613d80565b5090565b828054600181600116156101000203166002900490600052602060002090601f016020900481019282601f10613d185780548555613ccf565b82800160010185558215613ccf57600052602060002091601f016020900482015b82811115613ccf578254825591600101919060010190613d39565b81548183558181111561295c5760130281601302836000526020600020918201910161295c9190613d9a565b610bf891905b80821115613cdb5760008155600101613d86565b610bf891905b80821115613cdb578054600160a060020a0319908116825560006001830181905560028301819055600383018190556004830181905560058301805460ff19169055600683018190556007830181905560088301819055600983018054909216909155600a8201819055600b820181613e198282613c1a565b506000600191909101819055600d8301805461ffff19169055600e83018054600160a060020a0319168155600f840182905560108401829055906011840181613e628282613c1a565b60018201600090555050505050601301613da0565b60006120c582356149cf565b60006120c582356149db565b60006120c582516149db565b60006120c58235610bf8565b60006120c582356149ec565b6000601f82018313613ec457600080fd5b8135613ed7613ed282614998565b614972565b91508082526020830160208301858383011115613ef357600080fd5b613efe838284614a02565b50505092915050565b600060408284031215613f1957600080fd5b613f236040614972565b90506000613f318484613e77565b8252506020613f4284848301613e9b565b60208301525092915050565b60006120c58251610bf8565b600060208284031215613f6c57600080fd5b6000611b4e8484613e77565b600080600060608486031215613f8d57600080fd5b6000613f998686613e77565b9350506020613faa86828701613e77565b9250506040613fbb86828701613e9b565b9150509250925092565b60008060408385031215613fd857600080fd5b6000613fe48585613e77565b92505060208301356001604060020a0381111561400057600080fd5b61400c85828601613eb3565b9150509250929050565b6000806060838503121561402957600080fd5b60006140358585613e77565b925050602061400c85828601613f07565b6000806000806000806000610100888a03121561406257600080fd5b600061406e8a8a613e77565b975050602061407f8a828b01613f07565b96505060606140908a828b01613e77565b95505060806140a18a828b01613e9b565b94505060a06140b28a828b01613e9b565b93505060c06140c38a828b01613e9b565b92505060e08801356001604060020a038111156140df57600080fd5b6140eb8a828b01613eb3565b91505092959891949750929550565b60008060006080848603121561410f57600080fd5b600061411b8686613e77565b935050602061412c86828701613f07565b9250506060613fbb86828701613e83565b60008060008060a0858703121561415357600080fd5b600061415f8787613e77565b945050602061417087828801613f07565b935050606061418187828801613e83565b925050608061419287828801613e83565b91505092959194509250565b600080600080608085870312156141b457600080fd5b60006141c08787613e77565b94505060206141d187828801613e9b565b93505060406141e287828801613e77565b925050606061419287828801613e9b565b6000806000806000806000806000806101608b8d03121561421357600080fd5b600061421f8d8d613e77565b9a505060206142308d828e01613e9b565b99505060406142418d828e01613e9b565b98505060606142528d828e01613e9b565b97505060806142638d828e01613e9b565b96505060a06142748d828e01613f07565b95505060e06142858d828e01613e9b565b9450506101006142978d828e01613e83565b9350506101206142a98d828e01613e9b565b9250506101408b01356001604060020a038111156142c657600080fd5b6142d28d828e01613eb3565b9150509295989b9194979a5092959850565b6000806000608084860312156142f957600080fd5b60006143058686613e77565b935050602061431686828701613e9b565b9250506040613fbb86828701613f07565b60006020828403121561433957600080fd5b6000611b4e8484613e8f565b60006020828403121561435757600080fd5b6000611b4e8484613ea7565b60006020828403121561437557600080fd5b6000611b4e8484613e9b565b60006020828403121561439357600080fd5b6000611b4e8484613f4e565b6143a8816149cf565b82525050565b6143a8816149db565b6143a881610bf8565b6143a8816149ec565b6143a8816149f7565b60006143dd826149cb565b8084526143f1816020860160208601614a0e565b6143fa81614a3a565b9093016020019392505050565b60008154600181166000811461442457600181146144425761447e565b60028204607f16855260ff198216602086015260408501925061447e565b60028204808652602086019550614458856149bf565b60005b828110156144775781548882015260019091019060200161445b565b8701945050505b505092915050565b8051606083019061449784826143b7565b5060208201516144aa60208501826143b7565b506040820151610e9360408501826143b7565b805160408301906144ce848261439f565b506020820151610e9360208501826143b7565b805160009060808401906144f5858261439f565b50602083015161450860208601826143b7565b50604083015161451b60408601826143b7565b5060608301518482036060860152614533828261453c565b95945050505050565b805160408084526000919084019061455482826143d2565b915050602083015161456960208601826143b7565b509392505050565b60208101610c2d828461439f565b6040810161458d828561439f565b6120c5602083018461439f565b604081016145a8828561439f565b8181036020830152611b4e81846143d2565b604081016145c8828561439f565b6120c560208301846143b7565b6101a081016145e4828f61439f565b6145f1602083018e6143b7565b6145fe604083018d6143b7565b61460b606083018c6143b7565b614618608083018b6143b7565b61462560a083018a6144bd565b61463260e08301896143b7565b6146406101008301886143ae565b61464e61012083018761439f565b61465c6101408301866143b7565b61466a6101608301856143b7565b81810361018083015261467d81846143d2565b9e9d5050505050505050505050505050565b6101a0810161469e828f61439f565b6146ab602083018e6143b7565b6146b8604083018d6143b7565b6146c5606083018c6143b7565b6146d2608083018b6143b7565b6146df60a083018a6144bd565b6146ec60e08301896143b7565b6146fa6101008301886143ae565b61470861012083018761439f565b6147166101408301866143b7565b6147246101608301856143b7565b81810361018083015261467d8184614407565b6101608101614746828d61439f565b614753602083018c6143b7565b614760604083018b6143b7565b61476d606083018a6143b7565b61477a60808301896143b7565b61478760a08301886144bd565b61479460e08301876143b7565b6147a26101008301866143ae565b6147b06101208301856143b7565b8181036101408301526147c381846143d2565b9c9b505050505050505050505050565b61016081016147e2828d61439f565b6147ef602083018c6143b7565b6147fc604083018b6143b7565b614809606083018a6143b7565b61481660808301896143b7565b61482360a08301886144bd565b61483060e08301876143b7565b61483e6101008301866143ae565b61484c6101208301856143b7565b8181036101408301526147c38184614407565b6101e0810161486e828f61439f565b61487b602083018e6143b7565b614888604083018d6143b7565b614895606083018c6143b7565b6148a2608083018b6143b7565b6148af60a083018a6143c9565b6148bc60c0830189614486565b6148ca6101208301886144bd565b8181036101608301526148dd818761453c565b90506148ed6101808301866143ae565b6148fb6101a08301856143ae565b8181036101c083015261467d81846144e1565b60208101610c2d82846143ae565b60208101610c2d82846143b7565b60208101610c2d82846143c0565b6040810161494682856143c0565b6120c560208301846143c0565b60208101610c2d82846143c9565b602080825281016120c581846143d2565b6040518181016001604060020a038111828210171561499057600080fd5b604052919050565b60006001604060020a038211156149ae57600080fd5b506020601f91909101601f19160190565b60009081526020902090565b5190565b600160a060020a031690565b151590565b600060028210613cdb57fe5b6000610c2d826149cf565b6000610c2d826149e0565b82818337506000910152565b60005b83811015614a29578181015183820152602001614a11565b83811115610e935750506000910152565b601f01601f19169056005341503fafb2b3c7b482b82c925fa31819cb664550542dfc04381047bfda5a003a6d38365b85333cd6ded79a907cefa2b76359249020967b3f50ab1942831cc9a265627a7a72305820d05da0ac3a104e7f35c72a5e38b50e57d0337e382f2bf25159f636d3667b48e06c6578706572696d656e74616cf50037",
  "source": "/*\n * Hubii Nahmii\n *\n * Compliant with the Hubii Nahmii specification v0.12.\n *\n * Copyright (C) 2017-2018 Hubii AS\n */\n\npragma solidity ^0.4.25;\npragma experimental ABIEncoderV2;\n\nimport {Ownable} from \"./Ownable.sol\";\nimport {Servable} from \"./Servable.sol\";\nimport {Configurable} from \"./Configurable.sol\";\nimport {SafeMathIntLib} from \"./SafeMathIntLib.sol\";\nimport {SafeMathUintLib} from \"./SafeMathUintLib.sol\";\nimport {MonetaryTypesLib} from \"./MonetaryTypesLib.sol\";\nimport {NahmiiTypesLib} from \"./NahmiiTypesLib.sol\";\nimport {SettlementChallengeTypesLib} from \"./SettlementChallengeTypesLib.sol\";\n\n/**\n * @title DriipSettlementChallengeState\n * @notice Where driip settlement challenge state is managed\n */\ncontract DriipSettlementChallengeState is Ownable, Servable, Configurable {\n    using SafeMathIntLib for int256;\n    using SafeMathUintLib for uint256;\n\n    //\n    // Constants\n    // -----------------------------------------------------------------------------------------------------------------\n    string constant public INITIATE_PROPOSAL_ACTION = \"initiate_proposal\";\n    string constant public TERMINATE_PROPOSAL_ACTION = \"terminate_proposal\";\n    string constant public REMOVE_PROPOSAL_ACTION = \"remove_proposal\";\n    string constant public DISQUALIFY_PROPOSAL_ACTION = \"disqualify_proposal\";\n    string constant public QUALIFY_PROPOSAL_ACTION = \"qualify_proposal\";\n\n    //\n    // Variables\n    // -----------------------------------------------------------------------------------------------------------------\n    SettlementChallengeTypesLib.Proposal[] public proposals;\n    mapping(address => mapping(address => mapping(uint256 => uint256))) public proposalIndexByWalletCurrency;\n    mapping(address => mapping(uint256 => mapping(address => mapping(uint256 => uint256)))) public proposalIndexByWalletNonceCurrency;\n\n    //\n    // Events\n    // -----------------------------------------------------------------------------------------------------------------\n    event InitiateProposalEvent(address wallet, uint256 nonce, int256 cumulativeTransferAmount, int256 stageAmount,\n        int256 targetBalanceAmount, MonetaryTypesLib.Currency currency, uint256 blockNumber, bool walletInitiated,\n        bytes32 challengedHash, string challengedKind);\n    event TerminateProposalEvent(address wallet, uint256 nonce, int256 cumulativeTransferAmount, int256 stageAmount,\n        int256 targetBalanceAmount, MonetaryTypesLib.Currency currency, uint256 blockNumber, bool walletInitiated,\n        bytes32 challengedHash, string challengedKind);\n    event RemoveProposalEvent(address wallet, uint256 nonce, int256 cumulativeTransferAmount, int256 stageAmount,\n        int256 targetBalanceAmount, MonetaryTypesLib.Currency currency, uint256 blockNumber, bool walletInitiated,\n        bytes32 challengedHash, string challengedKind);\n    event DisqualifyProposalEvent(address challengedWallet, uint256 challengedNonce, int256 cumulativeTransferAmount,\n        int256 stageAmount, int256 targetBalanceAmount, MonetaryTypesLib.Currency currency, uint256 blockNumber,\n        bool walletInitiated, address challengerWallet, uint256 candidateNonce, bytes32 candidateHash,\n        string candidateKind);\n    event QualifyProposalEvent(address challengedWallet, uint256 challengedNonce, int256 cumulativeTransferAmount,\n        int256 stageAmount, int256 targetBalanceAmount, MonetaryTypesLib.Currency currency, uint256 blockNumber,\n        bool walletInitiated, address challengerWallet, uint256 candidateNonce, bytes32 candidateHash,\n        string candidateKind);\n\n    //\n    // Constructor\n    // -----------------------------------------------------------------------------------------------------------------\n    constructor(address deployer) Ownable(deployer) public {\n    }\n\n    //\n    // Functions\n    // -----------------------------------------------------------------------------------------------------------------\n    /// @notice Get the number of proposals\n    /// @return The number of proposals\n    function proposalsCount()\n    public\n    view\n    returns (uint256)\n    {\n        return proposals.length;\n    }\n\n    /// @notice Initiate proposal\n    /// @param wallet The address of the concerned challenged wallet\n    /// @param nonce The wallet nonce\n    /// @param cumulativeTransferAmount The proposal cumulative transfer amount\n    /// @param stageAmount The proposal stage amount\n    /// @param targetBalanceAmount The proposal target balance amount\n    /// @param currency The concerned currency\n    /// @param blockNumber The proposal block number\n    /// @param walletInitiated True if reward from candidate balance\n    /// @param challengedHash The candidate driip hash\n    /// @param challengedKind The candidate driip kind\n    function initiateProposal(address wallet, uint256 nonce, int256 cumulativeTransferAmount, int256 stageAmount,\n        int256 targetBalanceAmount, MonetaryTypesLib.Currency currency, uint256 blockNumber, bool walletInitiated,\n        bytes32 challengedHash, string challengedKind)\n    public\n    onlyEnabledServiceAction(INITIATE_PROPOSAL_ACTION)\n    {\n        // Initiate proposal\n        _initiateProposal(\n            wallet, nonce, cumulativeTransferAmount, stageAmount, targetBalanceAmount,\n            currency, blockNumber, walletInitiated, challengedHash, challengedKind\n        );\n\n        // Emit event\n        emit InitiateProposalEvent(\n            wallet, nonce, cumulativeTransferAmount, stageAmount, targetBalanceAmount, currency,\n            blockNumber, walletInitiated, challengedHash, challengedKind\n        );\n    }\n\n    /// @notice Terminate a proposal\n    /// @param wallet The address of the concerned challenged wallet\n    /// @param currency The concerned currency\n    function terminateProposal(address wallet, MonetaryTypesLib.Currency currency, bool clearNonce)\n    public\n    onlyEnabledServiceAction(TERMINATE_PROPOSAL_ACTION)\n    {\n        // Get the proposal index\n        uint256 index = proposalIndexByWalletCurrency[wallet][currency.ct][currency.id];\n\n        // Return gracefully if there is no proposal to terminate\n        if (0 == index)\n            return;\n\n        // Clear wallet-nonce-currency triplet entry, which enables reinitiation of proposal for that triplet\n        if (clearNonce)\n            proposalIndexByWalletNonceCurrency[wallet][proposals[index - 1].nonce][currency.ct][currency.id] = 0;\n\n        // Terminate proposal\n        proposals[index - 1].terminated = true;\n\n        // Emit event\n        emit TerminateProposalEvent(\n            wallet, proposals[index - 1].nonce, proposals[index - 1].amounts.cumulativeTransfer,\n            proposals[index - 1].amounts.stage, proposals[index - 1].amounts.targetBalance, currency,\n            proposals[index - 1].referenceBlockNumber, proposals[index - 1].walletInitiated,\n            proposals[index - 1].challenged.hash, proposals[index - 1].challenged.kind\n        );\n    }\n\n    /// @notice Terminate a proposal\n    /// @param wallet The address of the concerned challenged wallet\n    /// @param currency The concerned currency\n    /// @param clearNonce Clear wallet-nonce-currency triplet entry\n    /// @param walletTerminated True if wallet terminated\n    function terminateProposal(address wallet, MonetaryTypesLib.Currency currency, bool clearNonce,\n        bool walletTerminated)\n    public\n    onlyEnabledServiceAction(TERMINATE_PROPOSAL_ACTION)\n    {\n        // Get the proposal index\n        uint256 index = proposalIndexByWalletCurrency[wallet][currency.ct][currency.id];\n\n        // Return gracefully if there is no proposal to terminate\n        if (0 == index)\n            return;\n\n        // Require that role that initialized (wallet or operator) can only cancel its own proposal\n        require(walletTerminated == proposals[index - 1].walletInitiated);\n\n        // Clear wallet-nonce-currency triplet entry, which enables reinitiation of proposal for that triplet\n        if (clearNonce)\n            proposalIndexByWalletNonceCurrency[wallet][proposals[index - 1].nonce][currency.ct][currency.id] = 0;\n\n        // Terminate proposal\n        proposals[index - 1].terminated = true;\n\n        // Emit event\n        emit TerminateProposalEvent(\n            wallet, proposals[index - 1].nonce, proposals[index - 1].amounts.cumulativeTransfer,\n            proposals[index - 1].amounts.stage, proposals[index - 1].amounts.targetBalance, currency,\n            proposals[index - 1].referenceBlockNumber, proposals[index - 1].walletInitiated,\n            proposals[index - 1].challenged.hash, proposals[index - 1].challenged.kind\n        );\n    }\n\n    /// @notice Remove a proposal\n    /// @param wallet The address of the concerned challenged wallet\n    /// @param currency The concerned currency\n    function removeProposal(address wallet, MonetaryTypesLib.Currency currency)\n    public\n    onlyEnabledServiceAction(REMOVE_PROPOSAL_ACTION)\n    {\n        // Get the proposal index\n        uint256 index = proposalIndexByWalletCurrency[wallet][currency.ct][currency.id];\n\n        // Return gracefully if there is no proposal to remove\n        if (0 == index)\n            return;\n\n        // Emit event\n        emit RemoveProposalEvent(\n            wallet, proposals[index - 1].nonce, proposals[index - 1].amounts.cumulativeTransfer,\n            proposals[index - 1].amounts.stage, proposals[index - 1].amounts.targetBalance, currency,\n            proposals[index - 1].referenceBlockNumber, proposals[index - 1].walletInitiated,\n            proposals[index - 1].challenged.hash, proposals[index - 1].challenged.kind\n        );\n\n        // Remove proposal\n        _removeProposal(index);\n    }\n\n    /// @notice Remove a proposal\n    /// @param wallet The address of the concerned challenged wallet\n    /// @param currency The concerned currency\n    /// @param walletTerminated True if wallet terminated\n    function removeProposal(address wallet, MonetaryTypesLib.Currency currency, bool walletTerminated)\n    public\n    onlyEnabledServiceAction(REMOVE_PROPOSAL_ACTION)\n    {\n        // Get the proposal index\n        uint256 index = proposalIndexByWalletCurrency[wallet][currency.ct][currency.id];\n\n        // Return gracefully if there is no proposal to remove\n        if (0 == index)\n            return;\n\n        // Require that role that initialized (wallet or operator) can only cancel its own proposal\n        require(walletTerminated == proposals[index - 1].walletInitiated);\n\n        // Emit event\n        emit RemoveProposalEvent(\n            wallet, proposals[index - 1].nonce, proposals[index - 1].amounts.cumulativeTransfer,\n            proposals[index - 1].amounts.stage, proposals[index - 1].amounts.targetBalance, currency,\n            proposals[index - 1].referenceBlockNumber, proposals[index - 1].walletInitiated,\n            proposals[index - 1].challenged.hash, proposals[index - 1].challenged.kind\n        );\n\n        // Remove proposal\n        _removeProposal(index);\n    }\n\n    /// @notice Disqualify a proposal\n    /// @dev A call to this function will intentionally override previous disqualifications if existent\n    /// @param challengedWallet The address of the concerned challenged wallet\n    /// @param currency The concerned currency\n    /// @param challengerWallet The address of the concerned challenger wallet\n    /// @param blockNumber The disqualification block number\n    /// @param candidateNonce The candidate nonce\n    /// @param candidateHash The candidate hash\n    /// @param candidateKind The candidate kind\n    function disqualifyProposal(address challengedWallet, MonetaryTypesLib.Currency currency, address challengerWallet,\n        uint256 blockNumber, uint256 candidateNonce, bytes32 candidateHash, string candidateKind)\n    public\n    onlyEnabledServiceAction(DISQUALIFY_PROPOSAL_ACTION)\n    {\n        // Get the proposal index\n        uint256 index = proposalIndexByWalletCurrency[challengedWallet][currency.ct][currency.id];\n        require(0 != index);\n\n        // Update proposal\n        proposals[index - 1].status = SettlementChallengeTypesLib.Status.Disqualified;\n        proposals[index - 1].expirationTime = block.timestamp.add(configuration.settlementChallengeTimeout());\n        proposals[index - 1].disqualification.challenger = challengerWallet;\n        proposals[index - 1].disqualification.nonce = candidateNonce;\n        proposals[index - 1].disqualification.blockNumber = blockNumber;\n        proposals[index - 1].disqualification.candidate.hash = candidateHash;\n        proposals[index - 1].disqualification.candidate.kind = candidateKind;\n\n        // Emit event\n        emit DisqualifyProposalEvent(\n            challengedWallet, proposals[index - 1].nonce, proposals[index - 1].amounts.cumulativeTransfer,\n            proposals[index - 1].amounts.stage, proposals[index - 1].amounts.targetBalance,\n            currency, proposals[index - 1].referenceBlockNumber, proposals[index - 1].walletInitiated,\n            challengerWallet, candidateNonce, candidateHash, candidateKind\n        );\n    }\n\n    /// @notice (Re)Qualify a proposal\n    /// @param wallet The address of the concerned challenged wallet\n    /// @param currency The concerned currency\n    function qualifyProposal(address wallet, MonetaryTypesLib.Currency currency)\n    public\n    onlyEnabledServiceAction(QUALIFY_PROPOSAL_ACTION)\n    {\n        // Get the proposal index\n        uint256 index = proposalIndexByWalletCurrency[wallet][currency.ct][currency.id];\n        require(0 != index);\n\n        // Emit event\n        emit QualifyProposalEvent(\n            wallet, proposals[index - 1].nonce, proposals[index - 1].amounts.cumulativeTransfer,\n            proposals[index - 1].amounts.stage, proposals[index - 1].amounts.targetBalance, currency,\n            proposals[index - 1].referenceBlockNumber, proposals[index - 1].walletInitiated,\n            proposals[index - 1].disqualification.challenger,\n            proposals[index - 1].disqualification.nonce,\n            proposals[index - 1].disqualification.candidate.hash,\n            proposals[index - 1].disqualification.candidate.kind\n        );\n\n        // Update proposal\n        proposals[index - 1].status = SettlementChallengeTypesLib.Status.Qualified;\n        proposals[index - 1].expirationTime = block.timestamp.add(configuration.settlementChallengeTimeout());\n        delete proposals[index - 1].disqualification;\n    }\n\n    /// @notice Gauge whether a driip settlement challenge for the given wallet-nonce-currency\n    /// triplet has been proposed and not later removed\n    /// @param wallet The address of the concerned wallet\n    /// @param nonce The wallet nonce\n    /// @param currency The concerned currency\n    /// @return true if driip settlement challenge has been, else false\n    function hasProposal(address wallet, uint256 nonce, MonetaryTypesLib.Currency currency)\n    public\n    view\n    returns (bool)\n    {\n        // 1-based index\n        return 0 != proposalIndexByWalletNonceCurrency[wallet][nonce][currency.ct][currency.id];\n    }\n\n    /// @notice Gauge whether the proposal for the given wallet and currency has expired\n    /// @param wallet The address of the concerned wallet\n    /// @param currency The concerned currency\n    /// @return true if proposal has expired, else false\n    function hasProposal(address wallet, MonetaryTypesLib.Currency currency)\n    public\n    view\n    returns (bool)\n    {\n        // 1-based index\n        return 0 != proposalIndexByWalletCurrency[wallet][currency.ct][currency.id];\n    }\n\n    /// @notice Gauge whether the proposal for the given wallet and currency has terminated\n    /// @param wallet The address of the concerned wallet\n    /// @param currency The concerned currency\n    /// @return true if proposal has terminated, else false\n    function hasProposalTerminated(address wallet, MonetaryTypesLib.Currency currency)\n    public\n    view\n    returns (bool)\n    {\n        // 1-based index\n        uint256 index = proposalIndexByWalletCurrency[wallet][currency.ct][currency.id];\n        require(0 != index);\n        return proposals[index - 1].terminated;\n    }\n\n    /// @notice Gauge whether the proposal for the given wallet and currency has expired\n    /// @param wallet The address of the concerned wallet\n    /// @param currency The concerned currency\n    /// @return true if proposal has expired, else false\n    function hasProposalExpired(address wallet, MonetaryTypesLib.Currency currency)\n    public\n    view\n    returns (bool)\n    {\n        // 1-based index\n        uint256 index = proposalIndexByWalletCurrency[wallet][currency.ct][currency.id];\n        require(0 != index);\n        return block.timestamp >= proposals[index - 1].expirationTime;\n    }\n\n    /// @notice Get the proposal nonce of the given wallet and currency\n    /// @param wallet The address of the concerned wallet\n    /// @param currency The concerned currency\n    /// @return The settlement proposal nonce\n    function proposalNonce(address wallet, MonetaryTypesLib.Currency currency)\n    public\n    view\n    returns (uint256)\n    {\n        uint256 index = proposalIndexByWalletCurrency[wallet][currency.ct][currency.id];\n        require(0 != index);\n        return proposals[index - 1].nonce;\n    }\n\n    /// @notice Get the proposal reference block number of the given wallet and currency\n    /// @param wallet The address of the concerned wallet\n    /// @param currency The concerned currency\n    /// @return The settlement proposal reference block number\n    function proposalReferenceBlockNumber(address wallet, MonetaryTypesLib.Currency currency)\n    public\n    view\n    returns (uint256)\n    {\n        uint256 index = proposalIndexByWalletCurrency[wallet][currency.ct][currency.id];\n        require(0 != index);\n        return proposals[index - 1].referenceBlockNumber;\n    }\n\n    /// @notice Get the proposal definition block number of the given wallet and currency\n    /// @param wallet The address of the concerned wallet\n    /// @param currency The concerned currency\n    /// @return The settlement proposal definition block number\n    function proposalDefinitionBlockNumber(address wallet, MonetaryTypesLib.Currency currency)\n    public\n    view\n    returns (uint256)\n    {\n        uint256 index = proposalIndexByWalletCurrency[wallet][currency.ct][currency.id];\n        require(0 != index);\n        return proposals[index - 1].definitionBlockNumber;\n    }\n\n    /// @notice Get the proposal expiration time of the given wallet and currency\n    /// @param wallet The address of the concerned wallet\n    /// @param currency The concerned currency\n    /// @return The settlement proposal expiration time\n    function proposalExpirationTime(address wallet, MonetaryTypesLib.Currency currency)\n    public\n    view\n    returns (uint256)\n    {\n        uint256 index = proposalIndexByWalletCurrency[wallet][currency.ct][currency.id];\n        require(0 != index);\n        return proposals[index - 1].expirationTime;\n    }\n\n    /// @notice Get the proposal status of the given wallet and currency\n    /// @param wallet The address of the concerned wallet\n    /// @param currency The concerned currency\n    /// @return The settlement proposal status\n    function proposalStatus(address wallet, MonetaryTypesLib.Currency currency)\n    public\n    view\n    returns (SettlementChallengeTypesLib.Status)\n    {\n        uint256 index = proposalIndexByWalletCurrency[wallet][currency.ct][currency.id];\n        require(0 != index);\n        return proposals[index - 1].status;\n    }\n\n    /// @notice Get the proposal cumulative transfer amount of the given wallet and currency\n    /// @param wallet The address of the concerned wallet\n    /// @param currency The concerned currency\n    /// @return The settlement proposal cumulative transfer amount\n    function proposalCumulativeTransferAmount(address wallet, MonetaryTypesLib.Currency currency)\n    public\n    view\n    returns (int256)\n    {\n        uint256 index = proposalIndexByWalletCurrency[wallet][currency.ct][currency.id];\n        require(0 != index);\n        return proposals[index - 1].amounts.cumulativeTransfer;\n    }\n\n    /// @notice Get the proposal stage amount of the given wallet and currency\n    /// @param wallet The address of the concerned wallet\n    /// @param currency The concerned currency\n    /// @return The settlement proposal stage amount\n    function proposalStageAmount(address wallet, MonetaryTypesLib.Currency currency)\n    public\n    view\n    returns (int256)\n    {\n        uint256 index = proposalIndexByWalletCurrency[wallet][currency.ct][currency.id];\n        require(0 != index);\n        return proposals[index - 1].amounts.stage;\n    }\n\n    /// @notice Get the proposal target balance amount of the given wallet and currency\n    /// @param wallet The address of the concerned wallet\n    /// @param currency The concerned currency\n    /// @return The settlement proposal target balance amount\n    function proposalTargetBalanceAmount(address wallet, MonetaryTypesLib.Currency currency)\n    public\n    view\n    returns (int256)\n    {\n        uint256 index = proposalIndexByWalletCurrency[wallet][currency.ct][currency.id];\n        require(0 != index);\n        return proposals[index - 1].amounts.targetBalance;\n    }\n\n    /// @notice Get the proposal challenged hash of the given wallet and currency\n    /// @param wallet The address of the concerned wallet\n    /// @param currency The concerned currency\n    /// @return The settlement proposal challenged hash\n    function proposalChallengedHash(address wallet, MonetaryTypesLib.Currency currency)\n    public\n    view\n    returns (bytes32)\n    {\n        uint256 index = proposalIndexByWalletCurrency[wallet][currency.ct][currency.id];\n        require(0 != index);\n        return proposals[index - 1].challenged.hash;\n    }\n\n    /// @notice Get the proposal challenged kind of the given wallet and currency\n    /// @param wallet The address of the concerned wallet\n    /// @param currency The concerned currency\n    /// @return The settlement proposal challenged kind\n    function proposalChallengedKind(address wallet, MonetaryTypesLib.Currency currency)\n    public\n    view\n    returns (string)\n    {\n        uint256 index = proposalIndexByWalletCurrency[wallet][currency.ct][currency.id];\n        require(0 != index);\n        return proposals[index - 1].challenged.kind;\n    }\n\n    /// @notice Get the proposal balance reward of the given wallet and currency\n    /// @param wallet The address of the concerned wallet\n    /// @param currency The concerned currency\n    /// @return The settlement proposal balance reward\n    function proposalWalletInitiated(address wallet, MonetaryTypesLib.Currency currency)\n    public\n    view\n    returns (bool)\n    {\n        uint256 index = proposalIndexByWalletCurrency[wallet][currency.ct][currency.id];\n        require(0 != index);\n        return proposals[index - 1].walletInitiated;\n    }\n\n    /// @notice Get the proposal disqualification challenger of the given wallet and currency\n    /// @param wallet The address of the concerned wallet\n    /// @param currency The concerned currency\n    /// @return The settlement proposal disqualification challenger\n    function proposalDisqualificationChallenger(address wallet, MonetaryTypesLib.Currency currency)\n    public\n    view\n    returns (address)\n    {\n        uint256 index = proposalIndexByWalletCurrency[wallet][currency.ct][currency.id];\n        require(0 != index);\n        return proposals[index - 1].disqualification.challenger;\n    }\n\n    /// @notice Get the proposal disqualification nonce of the given wallet and currency\n    /// @param wallet The address of the concerned wallet\n    /// @param currency The concerned currency\n    /// @return The settlement proposal disqualification nonce\n    function proposalDisqualificationNonce(address wallet, MonetaryTypesLib.Currency currency)\n    public\n    view\n    returns (uint256)\n    {\n        uint256 index = proposalIndexByWalletCurrency[wallet][currency.ct][currency.id];\n        require(0 != index);\n        return proposals[index - 1].disqualification.nonce;\n    }\n\n    /// @notice Get the proposal disqualification block number of the given wallet and currency\n    /// @param wallet The address of the concerned wallet\n    /// @param currency The concerned currency\n    /// @return The settlement proposal disqualification block number\n    function proposalDisqualificationBlockNumber(address wallet, MonetaryTypesLib.Currency currency)\n    public\n    view\n    returns (uint256)\n    {\n        uint256 index = proposalIndexByWalletCurrency[wallet][currency.ct][currency.id];\n        require(0 != index);\n        return proposals[index - 1].disqualification.blockNumber;\n    }\n\n    /// @notice Get the proposal disqualification candidate hash of the given wallet and currency\n    /// @param wallet The address of the concerned wallet\n    /// @param currency The concerned currency\n    /// @return The settlement proposal disqualification candidate hash\n    function proposalDisqualificationCandidateHash(address wallet, MonetaryTypesLib.Currency currency)\n    public\n    view\n    returns (bytes32)\n    {\n        uint256 index = proposalIndexByWalletCurrency[wallet][currency.ct][currency.id];\n        require(0 != index);\n        return proposals[index - 1].disqualification.candidate.hash;\n    }\n\n    /// @notice Get the proposal disqualification candidate kind of the given wallet and currency\n    /// @param wallet The address of the concerned wallet\n    /// @param currency The concerned currency\n    /// @return The settlement proposal disqualification candidate kind\n    function proposalDisqualificationCandidateKind(address wallet, MonetaryTypesLib.Currency currency)\n    public\n    view\n    returns (string)\n    {\n        uint256 index = proposalIndexByWalletCurrency[wallet][currency.ct][currency.id];\n        require(0 != index);\n        return proposals[index - 1].disqualification.candidate.kind;\n    }\n\n    //\n    // Private functions\n    // -----------------------------------------------------------------------------------------------------------------\n    function _initiateProposal(address wallet, uint256 nonce, int256 cumulativeTransferAmount, int256 stageAmount,\n        int256 targetBalanceAmount, MonetaryTypesLib.Currency currency, uint256 referenceBlockNumber, bool walletInitiated,\n        bytes32 challengedHash, string challengedKind)\n    private\n    {\n        // Require that there is no other proposal on the given wallet-nonce-currency triplet\n        require(0 == proposalIndexByWalletNonceCurrency[wallet][nonce][currency.ct][currency.id]);\n\n        // Require that stage and target balance amounts are positive\n        require(stageAmount.isPositiveInt256());\n        require(targetBalanceAmount.isPositiveInt256());\n\n        uint256 index = proposalIndexByWalletCurrency[wallet][currency.ct][currency.id];\n\n        // Create proposal if needed\n        if (0 == index) {\n            index = ++(proposals.length);\n            proposalIndexByWalletCurrency[wallet][currency.ct][currency.id] = index;\n        }\n\n        // Populate proposal\n        proposals[index - 1].wallet = wallet;\n        proposals[index - 1].nonce = nonce;\n        proposals[index - 1].referenceBlockNumber = referenceBlockNumber;\n        proposals[index - 1].definitionBlockNumber = block.number;\n        proposals[index - 1].expirationTime = block.timestamp.add(configuration.settlementChallengeTimeout());\n        proposals[index - 1].status = SettlementChallengeTypesLib.Status.Qualified;\n        proposals[index - 1].currency = currency;\n        proposals[index - 1].amounts.cumulativeTransfer = cumulativeTransferAmount;\n        proposals[index - 1].amounts.stage = stageAmount;\n        proposals[index - 1].amounts.targetBalance = targetBalanceAmount;\n        proposals[index - 1].walletInitiated = walletInitiated;\n        proposals[index - 1].terminated = false;\n        proposals[index - 1].challenged.hash = challengedHash;\n        proposals[index - 1].challenged.kind = challengedKind;\n\n        // Update index of wallet-nonce-currency triplet\n        proposalIndexByWalletNonceCurrency[wallet][nonce][currency.ct][currency.id] = index;\n    }\n\n    function _removeProposal(uint256 index)\n    private\n    {\n        // Remove the proposal and clear references to it\n        proposalIndexByWalletCurrency[proposals[index - 1].wallet][proposals[index - 1].currency.ct][proposals[index - 1].currency.id] = 0;\n        proposalIndexByWalletNonceCurrency[proposals[index - 1].wallet][proposals[index - 1].nonce][proposals[index - 1].currency.ct][proposals[index - 1].currency.id] = 0;\n        if (index < proposals.length) {\n            proposals[index - 1] = proposals[proposals.length - 1];\n            proposalIndexByWalletCurrency[proposals[index - 1].wallet][proposals[index - 1].currency.ct][proposals[index - 1].currency.id] = index;\n            proposalIndexByWalletNonceCurrency[proposals[index - 1].wallet][proposals[index - 1].nonce][proposals[index - 1].currency.ct][proposals[index - 1].currency.id] = index;\n        }\n        proposals.length--;\n    }\n}\n",
  "sourcePath": "/opt/buildagent/work/855e104608380c36/contracts/DriipSettlementChallengeState.sol",
  "compiler": {
    "name": "solc",
    "version": "0.4.25+commit.59dbf8f1.Emscripten.clang"
  },
  "schemaVersion": "2.0.2",
  "updatedAt": "2019-04-18T00:23:49.527Z"
}