{
  "contractName": "ERC20TransferController",
  "abi": [
    {
      "constant": true,
      "inputs": [],
      "name": "getApproveSignature",
      "outputs": [
        {
          "name": "",
          "type": "bytes4"
        }
      ],
      "payable": false,
      "stateMutability": "pure",
      "type": "function"
    },
    {
      "constant": true,
      "inputs": [],
      "name": "getDispatchSignature",
      "outputs": [
        {
          "name": "",
          "type": "bytes4"
        }
      ],
      "payable": false,
      "stateMutability": "pure",
      "type": "function"
    },
    {
      "constant": true,
      "inputs": [],
      "name": "getReceiveSignature",
      "outputs": [
        {
          "name": "",
          "type": "bytes4"
        }
      ],
      "payable": false,
      "stateMutability": "pure",
      "type": "function"
    },
    {
      "anonymous": false,
      "inputs": [
        {
          "indexed": false,
          "name": "from",
          "type": "address"
        },
        {
          "indexed": false,
          "name": "to",
          "type": "address"
        },
        {
          "indexed": false,
          "name": "value",
          "type": "uint256"
        },
        {
          "indexed": false,
          "name": "currencyCt",
          "type": "address"
        },
        {
          "indexed": false,
          "name": "currencyId",
          "type": "uint256"
        }
      ],
      "name": "CurrencyTransferred",
      "type": "event"
    },
    {
      "constant": true,
      "inputs": [],
      "name": "isFungible",
      "outputs": [
        {
          "name": "",
          "type": "bool"
        }
      ],
      "payable": false,
      "stateMutability": "view",
      "type": "function"
    },
    {
      "constant": false,
      "inputs": [
        {
          "name": "from",
          "type": "address"
        },
        {
          "name": "to",
          "type": "address"
        },
        {
          "name": "amount",
          "type": "uint256"
        },
        {
          "name": "currencyCt",
          "type": "address"
        },
        {
          "name": "currencyId",
          "type": "uint256"
        }
      ],
      "name": "receive",
      "outputs": [],
      "payable": false,
      "stateMutability": "nonpayable",
      "type": "function"
    },
    {
      "constant": false,
      "inputs": [
        {
          "name": "to",
          "type": "address"
        },
        {
          "name": "amount",
          "type": "uint256"
        },
        {
          "name": "currencyCt",
          "type": "address"
        },
        {
          "name": "currencyId",
          "type": "uint256"
        }
      ],
      "name": "approve",
      "outputs": [],
      "payable": false,
      "stateMutability": "nonpayable",
      "type": "function"
    },
    {
      "constant": false,
      "inputs": [
        {
          "name": "from",
          "type": "address"
        },
        {
          "name": "to",
          "type": "address"
        },
        {
          "name": "amount",
          "type": "uint256"
        },
        {
          "name": "currencyCt",
          "type": "address"
        },
        {
          "name": "currencyId",
          "type": "uint256"
        }
      ],
      "name": "dispatch",
      "outputs": [],
      "payable": false,
      "stateMutability": "nonpayable",
      "type": "function"
    }
  ],
  "bytecode": "0x608060405234801561001057600080fd5b5061052b806100206000396000f3006080604052600436106100695763ffffffff60e060020a60003504166303d873ee811461006e578063064dc61b146100a45780631711a894146100d85780637228941f1461010a5780637eb2e8351461011f578063a89c2e5a1461014d578063ad502f5714610176575b600080fd5b34801561007a57600080fd5b506100a2600160a060020a03600435811690602435811690604435906064351660843561018b565b005b3480156100b057600080fd5b506100a2600160a060020a036004358116906024358116906044359060643516608435610332565b3480156100e457600080fd5b506100ed610356565b60408051600160e060020a03199092168252519081900360200190f35b34801561011657600080fd5b506100ed61039f565b34801561012b57600080fd5b506100a2600160a060020a0360043581169060243590604435166064356103f1565b34801561015957600080fd5b506101626104a9565b604080519115158252519081900360200190f35b34801561018257600080fd5b506100ed6104ae565b6000831161019857600080fd5b80156101a357600080fd5b81600160a060020a031663095ea7b386856040518363ffffffff1660e060020a0281526004018083600160a060020a0316600160a060020a0316815260200182815260200192505050602060405180830381600087803b15801561020657600080fd5b505af115801561021a573d6000803e3d6000fd5b505050506040513d602081101561023057600080fd5b5051151561023d57600080fd5b6040805160e060020a6323b872dd028152600160a060020a0387811660048301528681166024830152604482018690529151918416916323b872dd916064808201926020929091908290030181600087803b15801561029b57600080fd5b505af11580156102af573d6000803e3d6000fd5b505050506040513d60208110156102c557600080fd5b505115156102d257600080fd5b60408051600160a060020a0380881682528087166020830152818301869052841660608201526080810183905290517f9067318deb9eb7339cff3f130c88e19bc44e1a2e80c249023604a98d708d691b9181900360a00190a15050505050565b33151561033e57600080fd5b6000831161034b57600080fd5b801561023d57600080fd5b604080517f617070726f766528616464726573732c75696e743235362c616464726573732c815260c060020a6775696e7432353629026020820152905190819003602801902090565b604080517f646973706174636828616464726573732c616464726573732c75696e743235368152607860020a702c616464726573732c75696e7432353629026020820152905190819003603101902090565b600083116103fe57600080fd5b801561040957600080fd5b81600160a060020a031663095ea7b385856040518363ffffffff1660e060020a0281526004018083600160a060020a0316600160a060020a0316815260200182815260200192505050602060405180830381600087803b15801561046c57600080fd5b505af1158015610480573d6000803e3d6000fd5b505050506040513d602081101561049657600080fd5b505115156104a357600080fd5b50505050565b600190565b604080517f7265636569766528616464726573732c616464726573732c75696e743235362c8152608060020a6f616464726573732c75696e74323536290260208201529051908190036030019020905600a165627a7a72305820ee52c54a0abd3d0a7727ed2147418c5a0218f7df855ebcdf1266bc62b795e6050029",
  "source": "/*\n * Hubii Nahmii\n *\n * Compliant with the Hubii Nahmii specification v0.12.\n *\n * Copyright (C) 2017-2018 Hubii AS\n */\n\npragma solidity ^0.4.25;\n\nimport {TransferController} from \"./TransferController.sol\";\nimport {IERC20} from \"openzeppelin-solidity/contracts/token/ERC20/IERC20.sol\";\n\n/**\n * @title ERC20TransferController\n * @notice Handles transfers of ERC20 tokens\n */\ncontract ERC20TransferController is TransferController {\n    //\n    // Functions\n    // -----------------------------------------------------------------------------------------------------------------\n    function isFungible()\n    public\n    view\n    returns (bool)\n    {\n        return true;\n    }\n\n    /// @notice MUST be called with DELEGATECALL\n    function receive(address from, address to, uint256 amount, address currencyCt, uint256 currencyId)\n    public\n    {\n        require(msg.sender != address(0));\n        require(amount > 0);\n        require(currencyId == 0);\n\n        require(IERC20(currencyCt).transferFrom(from, to, amount));\n\n        // Emit event\n        emit CurrencyTransferred(from, to, amount, currencyCt, currencyId);\n    }\n\n    /// @notice MUST be called with DELEGATECALL\n    function approve(address to, uint256 amount, address currencyCt, uint256 currencyId)\n    public\n    {\n        require(amount > 0);\n        require(currencyId == 0);\n\n        require(IERC20(currencyCt).approve(to, amount));\n    }\n\n    /// @notice MUST be called with DELEGATECALL\n    function dispatch(address from, address to, uint256 amount, address currencyCt, uint256 currencyId)\n    public\n    {\n        require(amount > 0);\n        require(currencyId == 0);\n\n        require(IERC20(currencyCt).approve(from, amount));\n        require(IERC20(currencyCt).transferFrom(from, to, amount));\n\n        // Emit event\n        emit CurrencyTransferred(from, to, amount, currencyCt, currencyId);\n    }\n}\n\n",
  "sourcePath": "/opt/buildagent/work/855e104608380c36/contracts/ERC20TransferController.sol",
  "compiler": {
    "name": "solc",
    "version": "0.4.25+commit.59dbf8f1.Emscripten.clang"
  },
  "schemaVersion": "2.0.1",
  "updatedAt": "2018-12-20T16:25:35.375Z"
}