{
  "contractName": "ERC721TransferController",
  "abi": [
    {
      "constant": true,
      "inputs": [],
      "name": "getApproveSignature",
      "outputs": [
        {
          "name": "",
          "type": "bytes4"
        }
      ],
      "payable": false,
      "stateMutability": "pure",
      "type": "function"
    },
    {
      "constant": true,
      "inputs": [],
      "name": "getDispatchSignature",
      "outputs": [
        {
          "name": "",
          "type": "bytes4"
        }
      ],
      "payable": false,
      "stateMutability": "pure",
      "type": "function"
    },
    {
      "constant": true,
      "inputs": [],
      "name": "getReceiveSignature",
      "outputs": [
        {
          "name": "",
          "type": "bytes4"
        }
      ],
      "payable": false,
      "stateMutability": "pure",
      "type": "function"
    },
    {
      "anonymous": false,
      "inputs": [
        {
          "indexed": false,
          "name": "from",
          "type": "address"
        },
        {
          "indexed": false,
          "name": "to",
          "type": "address"
        },
        {
          "indexed": false,
          "name": "value",
          "type": "uint256"
        },
        {
          "indexed": false,
          "name": "currencyCt",
          "type": "address"
        },
        {
          "indexed": false,
          "name": "currencyId",
          "type": "uint256"
        }
      ],
      "name": "CurrencyTransferred",
      "type": "event"
    },
    {
      "constant": true,
      "inputs": [],
      "name": "isFungible",
      "outputs": [
        {
          "name": "",
          "type": "bool"
        }
      ],
      "payable": false,
      "stateMutability": "view",
      "type": "function"
    },
    {
      "constant": true,
      "inputs": [],
      "name": "standard",
      "outputs": [
        {
          "name": "",
          "type": "string"
        }
      ],
      "payable": false,
      "stateMutability": "view",
      "type": "function"
    },
    {
      "constant": false,
      "inputs": [
        {
          "name": "from",
          "type": "address"
        },
        {
          "name": "to",
          "type": "address"
        },
        {
          "name": "id",
          "type": "uint256"
        },
        {
          "name": "currencyCt",
          "type": "address"
        },
        {
          "name": "currencyId",
          "type": "uint256"
        }
      ],
      "name": "receive",
      "outputs": [],
      "payable": false,
      "stateMutability": "nonpayable",
      "type": "function"
    },
    {
      "constant": false,
      "inputs": [
        {
          "name": "",
          "type": "address"
        },
        {
          "name": "",
          "type": "uint256"
        },
        {
          "name": "",
          "type": "address"
        },
        {
          "name": "currencyId",
          "type": "uint256"
        }
      ],
      "name": "approve",
      "outputs": [],
      "payable": false,
      "stateMutability": "nonpayable",
      "type": "function"
    },
    {
      "constant": false,
      "inputs": [
        {
          "name": "from",
          "type": "address"
        },
        {
          "name": "to",
          "type": "address"
        },
        {
          "name": "id",
          "type": "uint256"
        },
        {
          "name": "currencyCt",
          "type": "address"
        },
        {
          "name": "currencyId",
          "type": "uint256"
        }
      ],
      "name": "dispatch",
      "outputs": [],
      "payable": false,
      "stateMutability": "nonpayable",
      "type": "function"
    }
  ],
  "bytecode": "0x608060405234801561001057600080fd5b50610511806100206000396000f3fe608060405234801561001057600080fd5b50600436106100785760003560e01c806303d873ee1461007d578063064dc61b146100c35780631711a894146101075780635a3b7e421461012c5780637228941f146101a95780637eb2e835146101b1578063a89c2e5a146101eb578063ad502f5714610207575b600080fd5b6100c1600480360360a081101561009357600080fd5b506001600160a01b03813581169160208101358216916040820135916060810135909116906080013561020f565b005b6100c1600480360360a08110156100d957600080fd5b506001600160a01b0381358116916020810135821691604082013591606081013590911690608001356102ac565b61010f6102e9565b604080516001600160e01b03199092168252519081900360200190f35b610134610309565b6040805160208082528351818301528351919283929083019185019080838360005b8381101561016e578181015183820152602001610156565b50505050905090810190601f16801561019b5780820380516001836020036101000a031916815260200191505b509250505060405180910390f35b61010f610329565b6100c1600480360360808110156101c757600080fd5b506001600160a01b0381358116916020810135916040820135169060600135610349565b6101f361038c565b604080519115158252519081900360200190f35b61010f610391565b801561024c5760405162461bcd60e51b81526004018080602001828103825260368152602001806104136036913960400191505060405180910390fd5b604080516001600160a01b0380881682528087166020830152818301869052841660608201526080810183905290517f9067318deb9eb7339cff3f130c88e19bc44e1a2e80c249023604a98d708d691b9181900360a00190a15050505050565b801561024c5760405162461bcd60e51b81526004018080602001828103825260368152602001806104716036913960400191505060405180910390fd5b600060405180806104496028913960280190506040518091039020905090565b60408051808201909152600681526545524337323160d01b602082015290565b600060405180806103b26031913960310190506040518091039020905090565b80156103865760405162461bcd60e51b81526004018080602001828103825260368152602001806104a76036913960400191505060405180910390fd5b50505050565b600090565b600060405180806103e3603091396030019050604051809103902090509056fe646973706174636828616464726573732c616464726573732c75696e743235362c616464726573732c75696e74323536297265636569766528616464726573732c616464726573732c75696e743235362c616464726573732c75696e743235362943757272656e6379204944206973206e6f742030205b4552433732315472616e73666572436f6e74726f6c6c65722e736f6c3a36375d617070726f766528616464726573732c75696e743235362c616464726573732c75696e743235362943757272656e6379204944206973206e6f742030205b4552433732315472616e73666572436f6e74726f6c6c65722e736f6c3a34365d43757272656e6379204944206973206e6f742030205b4552433732315472616e73666572436f6e74726f6c6c65722e736f6c3a35385da265627a7a7230582068f6835419383d2b092ad2a35f5e4dd1ff154c84e8f07bf8166f0cd8f7c7c6cf64736f6c63430005090032",
  "source": "/*\n * Hubii Nahmii\n *\n * Compliant with the Hubii Nahmii specification v0.12.\n *\n * Copyright (C) 2017-2018 Hubii AS\n */\n\npragma solidity >=0.4.25 <0.6.0;\n\nimport {TransferController} from \"./TransferController.sol\";\nimport {IERC721} from \"openzeppelin-solidity/contracts/token/ERC721/IERC721.sol\";\n\n/**\n * @title ERC721TransferController\n * @notice Handles transfers of ERC721 tokens\n */\ncontract ERC721TransferController is TransferController {\n    //\n    // Constants\n    // -----------------------------------------------------------------------------------------------------------------\n    string constant _standard = \"ERC721\";\n\n    //\n    // Functions\n    // -----------------------------------------------------------------------------------------------------------------\n    function isFungible()\n    public\n    view\n    returns (bool)\n    {\n        return false;\n    }\n\n    function standard()\n    public\n    view\n    returns (string memory)\n    {\n        return _standard;\n    }\n\n    function receive(address from, address to, uint256 id, address currencyCt, uint256 currencyId)\n    public\n    {\n        require(currencyId == 0, \"Currency ID is not 0 [ERC721TransferController.sol:46]\");\n\n        //        IERC721(currencyCt).transferFrom(from, to, id);\n\n        // Emit event\n        emit CurrencyTransferred(from, to, id, currencyCt, currencyId);\n    }\n\n    /// @notice MUST be called with DELEGATECALL\n    function approve(address /*to*/, uint256 /*id*/, address /*currencyCt*/, uint256 currencyId)\n    public\n    {\n        require(currencyId == 0, \"Currency ID is not 0 [ERC721TransferController.sol:58]\");\n\n        //        IERC721(currencyCt).approve(to, id);\n    }\n\n    /// @notice MUST be called with DELEGATECALL\n    function dispatch(address from, address to, uint256 id, address currencyCt, uint256 currencyId)\n    public\n    {\n        require(currencyId == 0, \"Currency ID is not 0 [ERC721TransferController.sol:67]\");\n\n        //        IERC721(currencyCt).approve(from, id);\n        //        IERC721(currencyCt).transferFrom(from, to, id);\n\n        // Emit eventid\n        emit CurrencyTransferred(from, to, id, currencyCt, currencyId);\n    }\n}",
  "sourcePath": "/opt/buildagent/work/855e104608380c36/contracts/ERC721TransferController.sol",
  "compiler": {
    "name": "solc",
    "version": "0.5.9+commit.e560f70d.Emscripten.clang"
  },
  "schemaVersion": "2.0.2",
  "updatedAt": "2019-06-15T22:15:56.907Z"
}