{
  "contractName": "FraudChallenge",
  "abi": [
    {
      "constant": true,
      "inputs": [
        {
          "name": "service",
          "type": "address"
        }
      ],
      "name": "isRegisteredActiveService",
      "outputs": [
        {
          "name": "",
          "type": "bool"
        }
      ],
      "payable": false,
      "stateMutability": "view",
      "type": "function"
    },
    {
      "constant": false,
      "inputs": [],
      "name": "triggerSelfDestruction",
      "outputs": [],
      "payable": false,
      "stateMutability": "nonpayable",
      "type": "function"
    },
    {
      "constant": false,
      "inputs": [
        {
          "name": "service",
          "type": "address"
        },
        {
          "name": "action",
          "type": "string"
        }
      ],
      "name": "enableServiceAction",
      "outputs": [],
      "payable": false,
      "stateMutability": "nonpayable",
      "type": "function"
    },
    {
      "constant": true,
      "inputs": [
        {
          "name": "service",
          "type": "address"
        }
      ],
      "name": "isRegisteredService",
      "outputs": [
        {
          "name": "",
          "type": "bool"
        }
      ],
      "payable": false,
      "stateMutability": "view",
      "type": "function"
    },
    {
      "constant": true,
      "inputs": [],
      "name": "selfDestructionDisabled",
      "outputs": [
        {
          "name": "",
          "type": "bool"
        }
      ],
      "payable": false,
      "stateMutability": "view",
      "type": "function"
    },
    {
      "constant": false,
      "inputs": [
        {
          "name": "service",
          "type": "address"
        },
        {
          "name": "action",
          "type": "string"
        }
      ],
      "name": "disableServiceAction",
      "outputs": [],
      "payable": false,
      "stateMutability": "nonpayable",
      "type": "function"
    },
    {
      "constant": true,
      "inputs": [],
      "name": "serviceActivationTimeout",
      "outputs": [
        {
          "name": "",
          "type": "uint256"
        }
      ],
      "payable": false,
      "stateMutability": "view",
      "type": "function"
    },
    {
      "constant": true,
      "inputs": [],
      "name": "destructor",
      "outputs": [
        {
          "name": "",
          "type": "address"
        }
      ],
      "payable": false,
      "stateMutability": "view",
      "type": "function"
    },
    {
      "constant": false,
      "inputs": [
        {
          "name": "service",
          "type": "address"
        }
      ],
      "name": "deregisterService",
      "outputs": [],
      "payable": false,
      "stateMutability": "nonpayable",
      "type": "function"
    },
    {
      "constant": true,
      "inputs": [],
      "name": "operator",
      "outputs": [
        {
          "name": "",
          "type": "address"
        }
      ],
      "payable": false,
      "stateMutability": "view",
      "type": "function"
    },
    {
      "constant": true,
      "inputs": [
        {
          "name": "service",
          "type": "address"
        },
        {
          "name": "action",
          "type": "string"
        }
      ],
      "name": "isEnabledServiceAction",
      "outputs": [
        {
          "name": "",
          "type": "bool"
        }
      ],
      "payable": false,
      "stateMutability": "view",
      "type": "function"
    },
    {
      "constant": false,
      "inputs": [],
      "name": "disableSelfDestruction",
      "outputs": [],
      "payable": false,
      "stateMutability": "nonpayable",
      "type": "function"
    },
    {
      "constant": true,
      "inputs": [],
      "name": "ADD_FRAUDULENT_TRADE_ACTION",
      "outputs": [
        {
          "name": "",
          "type": "string"
        }
      ],
      "payable": false,
      "stateMutability": "view",
      "type": "function"
    },
    {
      "constant": false,
      "inputs": [
        {
          "name": "timeoutInSeconds",
          "type": "uint256"
        }
      ],
      "name": "setServiceActivationTimeout",
      "outputs": [],
      "payable": false,
      "stateMutability": "nonpayable",
      "type": "function"
    },
    {
      "constant": true,
      "inputs": [
        {
          "name": "",
          "type": "bytes32"
        }
      ],
      "name": "fraudulentByTradeHash",
      "outputs": [
        {
          "name": "",
          "type": "bool"
        }
      ],
      "payable": false,
      "stateMutability": "view",
      "type": "function"
    },
    {
      "constant": false,
      "inputs": [
        {
          "name": "service",
          "type": "address"
        }
      ],
      "name": "registerServiceDeferred",
      "outputs": [],
      "payable": false,
      "stateMutability": "nonpayable",
      "type": "function"
    },
    {
      "constant": true,
      "inputs": [],
      "name": "ADD_SEIZED_WALLET_ACTION",
      "outputs": [
        {
          "name": "",
          "type": "string"
        }
      ],
      "payable": false,
      "stateMutability": "view",
      "type": "function"
    },
    {
      "constant": false,
      "inputs": [
        {
          "name": "newDeployer",
          "type": "address"
        }
      ],
      "name": "setDeployer",
      "outputs": [],
      "payable": false,
      "stateMutability": "nonpayable",
      "type": "function"
    },
    {
      "constant": true,
      "inputs": [
        {
          "name": "",
          "type": "bytes32"
        }
      ],
      "name": "fraudulentByPaymentHash",
      "outputs": [
        {
          "name": "",
          "type": "bool"
        }
      ],
      "payable": false,
      "stateMutability": "view",
      "type": "function"
    },
    {
      "constant": true,
      "inputs": [
        {
          "name": "",
          "type": "uint256"
        }
      ],
      "name": "fraudulentOrderHashes",
      "outputs": [
        {
          "name": "",
          "type": "bytes32"
        }
      ],
      "payable": false,
      "stateMutability": "view",
      "type": "function"
    },
    {
      "constant": false,
      "inputs": [
        {
          "name": "newOperator",
          "type": "address"
        }
      ],
      "name": "setOperator",
      "outputs": [],
      "payable": false,
      "stateMutability": "nonpayable",
      "type": "function"
    },
    {
      "constant": true,
      "inputs": [],
      "name": "deployer",
      "outputs": [
        {
          "name": "",
          "type": "address"
        }
      ],
      "payable": false,
      "stateMutability": "view",
      "type": "function"
    },
    {
      "constant": true,
      "inputs": [
        {
          "name": "",
          "type": "uint256"
        }
      ],
      "name": "fraudulentTradeHashes",
      "outputs": [
        {
          "name": "",
          "type": "bytes32"
        }
      ],
      "payable": false,
      "stateMutability": "view",
      "type": "function"
    },
    {
      "constant": true,
      "inputs": [
        {
          "name": "",
          "type": "uint256"
        }
      ],
      "name": "doubleSpenderWallets",
      "outputs": [
        {
          "name": "",
          "type": "address"
        }
      ],
      "payable": false,
      "stateMutability": "view",
      "type": "function"
    },
    {
      "constant": true,
      "inputs": [
        {
          "name": "",
          "type": "uint256"
        }
      ],
      "name": "fraudulentPaymentHashes",
      "outputs": [
        {
          "name": "",
          "type": "bytes32"
        }
      ],
      "payable": false,
      "stateMutability": "view",
      "type": "function"
    },
    {
      "constant": true,
      "inputs": [],
      "name": "ADD_DOUBLE_SPENDER_WALLET_ACTION",
      "outputs": [
        {
          "name": "",
          "type": "string"
        }
      ],
      "payable": false,
      "stateMutability": "view",
      "type": "function"
    },
    {
      "constant": true,
      "inputs": [],
      "name": "ADD_FRAUDULENT_ORDER_ACTION",
      "outputs": [
        {
          "name": "",
          "type": "string"
        }
      ],
      "payable": false,
      "stateMutability": "view",
      "type": "function"
    },
    {
      "constant": true,
      "inputs": [
        {
          "name": "",
          "type": "address"
        }
      ],
      "name": "doubleSpenderByWallet",
      "outputs": [
        {
          "name": "",
          "type": "bool"
        }
      ],
      "payable": false,
      "stateMutability": "view",
      "type": "function"
    },
    {
      "constant": true,
      "inputs": [],
      "name": "ADD_FRAUDULENT_PAYMENT_ACTION",
      "outputs": [
        {
          "name": "",
          "type": "string"
        }
      ],
      "payable": false,
      "stateMutability": "view",
      "type": "function"
    },
    {
      "constant": true,
      "inputs": [
        {
          "name": "",
          "type": "bytes32"
        }
      ],
      "name": "fraudulentByOrderHash",
      "outputs": [
        {
          "name": "",
          "type": "bool"
        }
      ],
      "payable": false,
      "stateMutability": "view",
      "type": "function"
    },
    {
      "constant": false,
      "inputs": [
        {
          "name": "service",
          "type": "address"
        }
      ],
      "name": "registerService",
      "outputs": [],
      "payable": false,
      "stateMutability": "nonpayable",
      "type": "function"
    },
    {
      "inputs": [
        {
          "name": "deployer",
          "type": "address"
        }
      ],
      "payable": false,
      "stateMutability": "nonpayable",
      "type": "constructor"
    },
    {
      "anonymous": false,
      "inputs": [
        {
          "indexed": false,
          "name": "wallet",
          "type": "address"
        }
      ],
      "name": "AddDoubleSpenderWalletEvent",
      "type": "event"
    },
    {
      "anonymous": false,
      "inputs": [
        {
          "indexed": false,
          "name": "hash",
          "type": "bytes32"
        }
      ],
      "name": "AddFraudulentOrderHashEvent",
      "type": "event"
    },
    {
      "anonymous": false,
      "inputs": [
        {
          "indexed": false,
          "name": "hash",
          "type": "bytes32"
        }
      ],
      "name": "AddFraudulentTradeHashEvent",
      "type": "event"
    },
    {
      "anonymous": false,
      "inputs": [
        {
          "indexed": false,
          "name": "hash",
          "type": "bytes32"
        }
      ],
      "name": "AddFraudulentPaymentHashEvent",
      "type": "event"
    },
    {
      "anonymous": false,
      "inputs": [
        {
          "indexed": false,
          "name": "timeoutInSeconds",
          "type": "uint256"
        }
      ],
      "name": "ServiceActivationTimeoutEvent",
      "type": "event"
    },
    {
      "anonymous": false,
      "inputs": [
        {
          "indexed": false,
          "name": "service",
          "type": "address"
        }
      ],
      "name": "RegisterServiceEvent",
      "type": "event"
    },
    {
      "anonymous": false,
      "inputs": [
        {
          "indexed": false,
          "name": "service",
          "type": "address"
        },
        {
          "indexed": false,
          "name": "timeout",
          "type": "uint256"
        }
      ],
      "name": "RegisterServiceDeferredEvent",
      "type": "event"
    },
    {
      "anonymous": false,
      "inputs": [
        {
          "indexed": false,
          "name": "service",
          "type": "address"
        }
      ],
      "name": "DeregisterServiceEvent",
      "type": "event"
    },
    {
      "anonymous": false,
      "inputs": [
        {
          "indexed": false,
          "name": "service",
          "type": "address"
        },
        {
          "indexed": false,
          "name": "action",
          "type": "string"
        }
      ],
      "name": "EnableServiceActionEvent",
      "type": "event"
    },
    {
      "anonymous": false,
      "inputs": [
        {
          "indexed": false,
          "name": "service",
          "type": "address"
        },
        {
          "indexed": false,
          "name": "action",
          "type": "string"
        }
      ],
      "name": "DisableServiceActionEvent",
      "type": "event"
    },
    {
      "anonymous": false,
      "inputs": [
        {
          "indexed": false,
          "name": "oldDeployer",
          "type": "address"
        },
        {
          "indexed": false,
          "name": "newDeployer",
          "type": "address"
        }
      ],
      "name": "SetDeployerEvent",
      "type": "event"
    },
    {
      "anonymous": false,
      "inputs": [
        {
          "indexed": false,
          "name": "oldOperator",
          "type": "address"
        },
        {
          "indexed": false,
          "name": "newOperator",
          "type": "address"
        }
      ],
      "name": "SetOperatorEvent",
      "type": "event"
    },
    {
      "anonymous": false,
      "inputs": [
        {
          "indexed": false,
          "name": "wallet",
          "type": "address"
        }
      ],
      "name": "SelfDestructionDisabledEvent",
      "type": "event"
    },
    {
      "anonymous": false,
      "inputs": [
        {
          "indexed": false,
          "name": "wallet",
          "type": "address"
        }
      ],
      "name": "TriggerSelfDestructionEvent",
      "type": "event"
    },
    {
      "constant": true,
      "inputs": [
        {
          "name": "wallet",
          "type": "address"
        }
      ],
      "name": "isDoubleSpenderWallet",
      "outputs": [
        {
          "name": "",
          "type": "bool"
        }
      ],
      "payable": false,
      "stateMutability": "view",
      "type": "function"
    },
    {
      "constant": true,
      "inputs": [],
      "name": "doubleSpenderWalletsCount",
      "outputs": [
        {
          "name": "",
          "type": "uint256"
        }
      ],
      "payable": false,
      "stateMutability": "view",
      "type": "function"
    },
    {
      "constant": false,
      "inputs": [
        {
          "name": "wallet",
          "type": "address"
        }
      ],
      "name": "addDoubleSpenderWallet",
      "outputs": [],
      "payable": false,
      "stateMutability": "nonpayable",
      "type": "function"
    },
    {
      "constant": true,
      "inputs": [],
      "name": "fraudulentOrderHashesCount",
      "outputs": [
        {
          "name": "",
          "type": "uint256"
        }
      ],
      "payable": false,
      "stateMutability": "view",
      "type": "function"
    },
    {
      "constant": true,
      "inputs": [
        {
          "name": "hash",
          "type": "bytes32"
        }
      ],
      "name": "isFraudulentOrderHash",
      "outputs": [
        {
          "name": "",
          "type": "bool"
        }
      ],
      "payable": false,
      "stateMutability": "view",
      "type": "function"
    },
    {
      "constant": false,
      "inputs": [
        {
          "name": "hash",
          "type": "bytes32"
        }
      ],
      "name": "addFraudulentOrderHash",
      "outputs": [],
      "payable": false,
      "stateMutability": "nonpayable",
      "type": "function"
    },
    {
      "constant": true,
      "inputs": [],
      "name": "fraudulentTradeHashesCount",
      "outputs": [
        {
          "name": "",
          "type": "uint256"
        }
      ],
      "payable": false,
      "stateMutability": "view",
      "type": "function"
    },
    {
      "constant": true,
      "inputs": [
        {
          "name": "hash",
          "type": "bytes32"
        }
      ],
      "name": "isFraudulentTradeHash",
      "outputs": [
        {
          "name": "",
          "type": "bool"
        }
      ],
      "payable": false,
      "stateMutability": "view",
      "type": "function"
    },
    {
      "constant": false,
      "inputs": [
        {
          "name": "hash",
          "type": "bytes32"
        }
      ],
      "name": "addFraudulentTradeHash",
      "outputs": [],
      "payable": false,
      "stateMutability": "nonpayable",
      "type": "function"
    },
    {
      "constant": true,
      "inputs": [],
      "name": "fraudulentPaymentHashesCount",
      "outputs": [
        {
          "name": "",
          "type": "uint256"
        }
      ],
      "payable": false,
      "stateMutability": "view",
      "type": "function"
    },
    {
      "constant": true,
      "inputs": [
        {
          "name": "hash",
          "type": "bytes32"
        }
      ],
      "name": "isFraudulentPaymentHash",
      "outputs": [
        {
          "name": "",
          "type": "bool"
        }
      ],
      "payable": false,
      "stateMutability": "view",
      "type": "function"
    },
    {
      "constant": false,
      "inputs": [
        {
          "name": "hash",
          "type": "bytes32"
        }
      ],
      "name": "addFraudulentPaymentHash",
      "outputs": [],
      "payable": false,
      "stateMutability": "nonpayable",
      "type": "function"
    }
  ],
  "bytecode": "0x60806040523480156200001157600080fd5b50604051602080620018e38339810180604052620000339190810190620000b6565b8080600160a060020a03811615156200004b57600080fd5b600160a060020a0381163014156200006257600080fd5b506000805461010060a860020a031916610100600160a060020a039390931692830217905560018054600160a060020a031916909117905550620000eb565b6000620000af8251620000df565b9392505050565b600060208284031215620000c957600080fd5b6000620000d78484620000a1565b949350505050565b600160a060020a031690565b6117e880620000fb6000396000f3006080604052600436106101f55763ffffffff60e060020a6000350416631456b8f481146101fa57806317ba3f90146102255780632738a112146102525780632b5672e3146102695780632b91e0a9146102895780632f013a00146102a95780633b58c501146102be5780633b7bea6c146102de5780634476d23b146102f35780634a63a23a1461031557806350b08c0214610335578063536739e114610355578063570ca735146103755780635df1b0a31461038a5780636e4a0c0f146103aa57806370327ea1146103bf57806375d8655b146103d45780637ae3ee1c146103f45780637c1aee3c146104165780637e15dd5c1461042b5780638080f0081461044b578063863d36081461046b57806388cb0a491461048b5780638e8cef12146104ab5780639243c9db146104cb5780639537aa1a146104eb57806396214735146105005780639630db61146105205780639f641ea714610540578063a59129a214610560578063b3ab15fb14610580578063b3ec529c146105a0578063d5f39488146105b5578063d9af20de146105ca578063d9fa4b8d146105ea578063e1f5828b1461060a578063e592f0f91461062a578063e64e353f1461064a578063ec696d321461065f578063f12aaaf514610674578063f3aefa8a14610694578063f4bb924d146106a9578063fdd9ec7d146106c9575b600080fd5b34801561020657600080fd5b5061020f6106e9565b60405161021c91906116e4565b60405180910390f35b34801561023157600080fd5b5061024561024036600461158f565b6106ef565b60405161021c91906116d6565b34801561025e57600080fd5b50610267610727565b005b34801561027557600080fd5b506102676102843660046115ad565b61078d565b34801561029557600080fd5b506102456102a436600461158f565b6108bb565b3480156102b557600080fd5b506102456108d9565b3480156102ca57600080fd5b506102676102d93660046115ad565b6108e2565b3480156102ea57600080fd5b5061020f6109c2565b3480156102ff57600080fd5b506103086109c8565b60405161021c9190611672565b34801561032157600080fd5b5061026761033036600461158f565b6109dc565b34801561034157600080fd5b5061026761035036600461158f565b610ae7565b34801561036157600080fd5b506102676103703660046115fe565b610b9d565b34801561038157600080fd5b50610308610c76565b34801561039657600080fd5b506102456103a53660046115ad565b610c85565b3480156103b657600080fd5b5061020f610cd5565b3480156103cb57600080fd5b50610267610cdb565b3480156103e057600080fd5b506102676103ef3660046115fe565b610d3e565b34801561040057600080fd5b50610409610e17565b60405161021c91906116f2565b34801561042257600080fd5b5061020f610e48565b34801561043757600080fd5b506102676104463660046115fe565b610e4e565b34801561045757600080fd5b506102456104663660046115fe565b610ea1565b34801561047757600080fd5b506102456104863660046115fe565b610eb6565b34801561049757600080fd5b506102676104a63660046115fe565b610ecb565b3480156104b757600080fd5b506102676104c636600461158f565b610fa6565b3480156104d757600080fd5b506102456104e636600461158f565b611024565b3480156104f757600080fd5b50610409611042565b34801561050c57600080fd5b5061026761051b36600461158f565b611070565b34801561052c57600080fd5b5061024561053b3660046115fe565b611137565b34801561054c57600080fd5b5061020f61055b3660046115fe565b61114c565b34801561056c57600080fd5b5061024561057b3660046115fe565b61116b565b34801561058c57600080fd5b5061026761059b36600461158f565b611180565b3480156105ac57600080fd5b5061020f61122a565b3480156105c157600080fd5b50610308611230565b3480156105d657600080fd5b5061020f6105e53660046115fe565b611244565b3480156105f657600080fd5b506103086106053660046115fe565b611252565b34801561061657600080fd5b506102456106253660046115fe565b61127a565b34801561063657600080fd5b5061020f6106453660046115fe565b61128f565b34801561065657600080fd5b5061040961129d565b34801561066b57600080fd5b506104096112d3565b34801561068057600080fd5b5061024561068f36600461158f565b611304565b3480156106a057600080fd5b50610409611319565b3480156106b557600080fd5b506102456106c43660046115fe565b61134c565b3480156106d557600080fd5b506102676106e436600461158f565b611361565b60065490565b60006106fa826108bb565b80156107215750600160a060020a0382166000908152600260205260409020600101544210155b92915050565b336107306109c8565b600160a060020a03161461074357600080fd5b60005460ff161561075357600080fd5b7f787a5d936e74f4b564b9153575886059829c78cd9927b1be5e0d976b317ef736336040516107829190611672565b60405180910390a133ff5b60006107976113da565b15156107a257600080fd5b82600160a060020a03811615156107b857600080fd5b600160a060020a0381163014156107ce57600080fd5b600160a060020a03841660009081526002602052604090205460ff1615156107f557600080fd5b6107fe836113f0565b600160a060020a0385166000908152600260208181526040808420858552909201905290205490925060ff161561083457600080fd5b600160a060020a03841660009081526002602081815260408084208685528084018352818520805460ff19166001908117909155938352600301805493840181558452922001839055517fec1b982d69bfc1a6fd8becf191d9a633486c822d3bdedd52303ca81fa6357501906108ad908690869061169b565b60405180910390a150505050565b600160a060020a031660009081526002602052604090205460ff1690565b60005460ff1681565b60006108ec6113da565b15156108f757600080fd5b82600160a060020a038116151561090d57600080fd5b600160a060020a03811630141561092357600080fd5b61092c836113f0565b600160a060020a0385166000908152600260208181526040808420858552909201905290205490925060ff16151561096357600080fd5b600160a060020a0384166000908152600260208181526040808420868552909201905290819020805460ff19169055517f92f4af6130f47c92f3899e06611c8c6ef191fb81207ad2675d134af619d2fe7d906108ad908690869061169b565b60035481565b6000546101009004600160a060020a031690565b6040805180820190915260198152603a60020a7818591917d91bdd589b1957dcdc195b99195c97ddd85b1b195d026020820152610a193382610c85565b1515610a2457600080fd5b600160a060020a03821660009081526005602052604090205460ff161515610ae3576004805460018082019092557f8a35acfbc15ff81a39ae7d344fd709f28e8600b4aa8c65c6b64bfe7fe36bd19b018054600160a060020a031916600160a060020a03851690811790915560009081526005602052604090819020805460ff1916909217909155517f7bdc3027f69aa28210c338755735fa13356565e45e57b4619f5daf6e8468651f90610ada908490611672565b60405180910390a15b5050565b610aef6113da565b1515610afa57600080fd5b80600160a060020a0381161515610b1057600080fd5b600160a060020a038116301415610b2657600080fd5b600160a060020a03821660009081526002602052604090205460ff161515610b4d57600080fd5b600160a060020a03821660009081526002602052604090819020805460ff19169055517f777645c5437dfbf962f57a281ead25f3d513f2f8e938685bbfc1738e81c9880e90610ada908490611672565b6040805180820190915260148152606160020a7330b2322fb33930bab23ab632b73a2fb7b93232b9026020820152610bd53382610c85565b1515610be057600080fd5b60008281526007602052604090205460ff161515610ae357600082815260076020526040808220805460ff191660019081179091556006805491820181559092527ff652222313e28459528d920b65115c16c04f3efc82aaedc97be59f3f377c0d3f909101839055517f58f26ba178664be60e092a2f3678dd4201d8067c10e39f0c21105829ff8921e090610ada9084906116e4565b600154600160a060020a031681565b600080610c91836113f0565b9050610c9c846106ef565b8015610ccd5750600160a060020a0384166000908152600260208181526040808420858552909201905290205460ff165b949350505050565b600a5490565b33610ce46109c8565b600160a060020a031614610cf757600080fd5b6000805460ff191660011790556040517fd5a2a04a775c741c2ca0dc46ea7ce4835190e1aaf1ca018def0e82568ec3361690610d34903390611672565b60405180910390a1565b6040805180820190915260148152606060020a736164645f6672617564756c656e745f7472616465026020820152610d763382610c85565b1515610d8157600080fd5b60008281526009602052604090205460ff161515610ae357600082815260096020526040808220805460ff191660019081179091556008805491820181559092527ff3f7a9fe364faab93b216da50a3214154f22a0a2b415b23a84c8169e8b636ee3909101839055517f5bc657148f2e68c1efcbaaf372c06ca64e451c73e50a987542e0e1560378875790610ada9084906116e4565b6040805180820190915260148152606060020a736164645f6672617564756c656e745f747261646502602082015281565b60045490565b610e566113da565b1515610e6157600080fd5b60038190556040517f4f1d324a1cbffc352fb64f1d73d95e4b200d92f99ef39bf2d7f5b41f946909d690610e969083906116e4565b60405180910390a150565b60096020526000908152604090205460ff1681565b6000908152600b602052604090205460ff1690565b6040805180820190915260168152605260020a7518591917d99c985d591d5b195b9d17dc185e5b595b9d026020820152610f053382610c85565b1515610f1057600080fd5b6000828152600b602052604090205460ff161515610ae3576000828152600b6020526040808220805460ff19166001908117909155600a805491820181559092527fc65a7bb8d6351c1cf70c95a316cc6a92839c986682d98bc35f958f4883f9d2a8909101839055517f33be9e400d3510c9b2034ebe5a128e2f0d3333b7813053c8aa7f4901a4861a8590610ada9084906116e4565b610fae6113da565b1515610fb957600080fd5b80600160a060020a0381161515610fcf57600080fd5b600160a060020a038116301415610fe557600080fd5b610ff1826003546114ba565b7f7f3a8349917003ed377f6e9ae1608b92edd893903f8983bd274b1f8373dd3b1182600354604051610ada9291906116bb565b600160a060020a031660009081526005602052604090205460ff1690565b6040805180820190915260118152607a60020a7018591917dcd95a5e995917ddd85b1b195d02602082015281565b600061107a6113da565b151561108557600080fd5b81600160a060020a038116151561109b57600080fd5b600160a060020a0381163014156110b157600080fd5b600054600160a060020a0384811661010090920416146111325760008054600160a060020a0385811661010090810261010060a860020a0319841617909355604051929091041692507f977e5fa58e458501775e0008d275006294c5249e3c08d1d0e3a9f3acad14f6e4906111299084908690611680565b60405180910390a15b505050565b600b6020526000908152604090205460ff1681565b600680548290811061115a57fe5b600091825260209091200154905081565b60009081526009602052604090205460ff1690565b600061118a61150b565b151561119557600080fd5b81600160a060020a03811615156111ab57600080fd5b600160a060020a0381163014156111c157600080fd5b600154600160a060020a038481169116146111325760018054600160a060020a03858116600160a060020a0319831617909255604051911692507f9f611b789425d0d5b90b920f1b2852907dd865c80074a30b1629aaa041d1812c906111299084908690611680565b60085490565b6000546101009004600160a060020a031681565b600880548290811061115a57fe5b600480548290811061126057fe5b600091825260209091200154600160a060020a0316905081565b60009081526007602052604090205460ff1690565b600a80548290811061115a57fe5b6040805180820190915260198152603a60020a7818591917d91bdd589b1957dcdc195b99195c97ddd85b1b195d02602082015281565b6040805180820190915260148152606160020a7330b2322fb33930bab23ab632b73a2fb7b93232b902602082015281565b60056020526000908152604090205460ff1681565b6040805180820190915260168152605260020a7518591917d99c985d591d5b195b9d17dc185e5b595b9d02602082015281565b60076020526000908152604090205460ff1681565b6113696113da565b151561137457600080fd5b80600160a060020a038116151561138a57600080fd5b600160a060020a0381163014156113a057600080fd5b6113ab8260006114ba565b7fb619d545cb511bd5f02907a1eac4f4cb8dace7b1846852fb0bf5e553937481c182604051610ada9190611672565b6000546101009004600160a060020a0316331490565b6000816040516020018082805190602001908083835b602083106114255780518252601f199092019160209182019101611406565b6001836020036101000a0380198251168184511680821785525050505050509050019150506040516020818303038152906040526040518082805190602001908083835b602083106114885780518252601f199092019160209182019101611469565b5181516020939093036101000a6000190180199091169216919091179052604051920182900390912095945050505050565b600160a060020a03821660009081526002602052604090205460ff161515610ae357600160a060020a0382166000908152600260205260409020805460ff1916600190811782554283019101555050565b600154600160a060020a0316331490565b60006115288235611754565b9392505050565b60006115288235611765565b6000601f8201831361154c57600080fd5b813561155f61155a82611729565b611703565b9150808252602083016020830185838301111561157b57600080fd5b611586838284611768565b50505092915050565b6000602082840312156115a157600080fd5b6000610ccd848461151c565b600080604083850312156115c057600080fd5b60006115cc858561151c565b92505060208301356001604060020a038111156115e857600080fd5b6115f48582860161153b565b9150509250929050565b60006020828403121561161057600080fd5b6000610ccd848461152f565b61162581611754565b82525050565b61162581611760565b61162581611765565b600061164882611750565b80845261165c816020860160208601611774565b611665816117a4565b9093016020019392505050565b60208101610721828461161c565b6040810161168e828561161c565b611528602083018461161c565b604081016116a9828561161c565b8181036020830152610ccd818461163d565b604081016116c9828561161c565b6115286020830184611634565b60208101610721828461162b565b602081016107218284611634565b60208082528101611528818461163d565b6040518181016001604060020a038111828210171561172157600080fd5b604052919050565b60006001604060020a0382111561173f57600080fd5b506020601f91909101601f19160190565b5190565b600160a060020a031690565b151590565b90565b82818337506000910152565b60005b8381101561178f578181015183820152602001611777565b8381111561179e576000848401525b50505050565b601f01601f1916905600a265627a7a72305820d493ca8249a61e3d98c8ed8fcc053d3004dc5eecbf6d1287f64919001a8170806c6578706572696d656e74616cf50037",
  "source": "/*\n * Hubii Nahmii\n *\n * Compliant with the Hubii Nahmii specification v0.12.\n *\n * Copyright (C) 2017-2018 Hubii AS\n */\n\npragma solidity ^0.4.25;\npragma experimental ABIEncoderV2;\n\nimport {Ownable} from \"./Ownable.sol\";\nimport {Servable} from \"./Servable.sol\";\n\n/**\n * @title FraudChallenge\n * @notice Where fraud challenge results are found\n */\ncontract FraudChallenge is Ownable, Servable {\n    //\n    // Constants\n    // -----------------------------------------------------------------------------------------------------------------\n    string constant public ADD_SEIZED_WALLET_ACTION = \"add_seized_wallet\";\n    string constant public ADD_DOUBLE_SPENDER_WALLET_ACTION = \"add_double_spender_wallet\";\n    string constant public ADD_FRAUDULENT_ORDER_ACTION = \"add_fraudulent_order\";\n    string constant public ADD_FRAUDULENT_TRADE_ACTION = \"add_fraudulent_trade\";\n    string constant public ADD_FRAUDULENT_PAYMENT_ACTION = \"add_fraudulent_payment\";\n\n    //\n    // Variables\n    // -----------------------------------------------------------------------------------------------------------------\n    address[] public doubleSpenderWallets;\n    mapping(address => bool) public doubleSpenderByWallet;\n\n    bytes32[] public fraudulentOrderHashes;\n    mapping(bytes32 => bool) public fraudulentByOrderHash;\n\n    bytes32[] public fraudulentTradeHashes;\n    mapping(bytes32 => bool) public fraudulentByTradeHash;\n\n    bytes32[] public fraudulentPaymentHashes;\n    mapping(bytes32 => bool) public fraudulentByPaymentHash;\n\n    //\n    // Events\n    // -----------------------------------------------------------------------------------------------------------------\n    event AddDoubleSpenderWalletEvent(address wallet);\n    event AddFraudulentOrderHashEvent(bytes32 hash);\n    event AddFraudulentTradeHashEvent(bytes32 hash);\n    event AddFraudulentPaymentHashEvent(bytes32 hash);\n\n    //\n    // Constructor\n    // -----------------------------------------------------------------------------------------------------------------\n    constructor(address deployer) Ownable(deployer) public {\n    }\n\n    //\n    // Functions\n    // -----------------------------------------------------------------------------------------------------------------\n    /// @notice Get the double spender status of given wallet\n    /// @param wallet The wallet address for which to check double spender status\n    /// @return true if wallet is double spender, false otherwise\n    function isDoubleSpenderWallet(address wallet)\n    public\n    view\n    returns (bool)\n    {\n        return doubleSpenderByWallet[wallet];\n    }\n\n    /// @notice Get the number of wallets tagged as double spenders\n    /// @return Number of double spender wallets\n    function doubleSpenderWalletsCount()\n    public\n    view\n    returns (uint256)\n    {\n        return doubleSpenderWallets.length;\n    }\n\n    /// @notice Add given wallets to store of double spender wallets if not already present\n    /// @param wallet The first wallet to add\n    function addDoubleSpenderWallet(address wallet)\n    public\n    onlyEnabledServiceAction(ADD_DOUBLE_SPENDER_WALLET_ACTION) {\n        if (!doubleSpenderByWallet[wallet]) {\n            doubleSpenderWallets.push(wallet);\n            doubleSpenderByWallet[wallet] = true;\n            emit AddDoubleSpenderWalletEvent(wallet);\n        }\n    }\n\n    /// @notice Get the number of fraudulent order hashes\n    function fraudulentOrderHashesCount()\n    public\n    view\n    returns (uint256)\n    {\n        return fraudulentOrderHashes.length;\n    }\n\n    /// @notice Get the state about whether the given hash equals the hash of a fraudulent order\n    /// @param hash The hash to be tested\n    function isFraudulentOrderHash(bytes32 hash)\n    public\n    view returns (bool) {\n        return fraudulentByOrderHash[hash];\n    }\n\n    /// @notice Add given order hash to store of fraudulent order hashes if not already present\n    function addFraudulentOrderHash(bytes32 hash)\n    public\n    onlyEnabledServiceAction(ADD_FRAUDULENT_ORDER_ACTION)\n    {\n        if (!fraudulentByOrderHash[hash]) {\n            fraudulentByOrderHash[hash] = true;\n            fraudulentOrderHashes.push(hash);\n            emit AddFraudulentOrderHashEvent(hash);\n        }\n    }\n\n    /// @notice Get the number of fraudulent trade hashes\n    function fraudulentTradeHashesCount()\n    public\n    view\n    returns (uint256)\n    {\n        return fraudulentTradeHashes.length;\n    }\n\n    /// @notice Get the state about whether the given hash equals the hash of a fraudulent trade\n    /// @param hash The hash to be tested\n    /// @return true if hash is the one of a fraudulent trade, else false\n    function isFraudulentTradeHash(bytes32 hash)\n    public\n    view\n    returns (bool)\n    {\n        return fraudulentByTradeHash[hash];\n    }\n\n    /// @notice Add given trade hash to store of fraudulent trade hashes if not already present\n    function addFraudulentTradeHash(bytes32 hash)\n    public\n    onlyEnabledServiceAction(ADD_FRAUDULENT_TRADE_ACTION)\n    {\n        if (!fraudulentByTradeHash[hash]) {\n            fraudulentByTradeHash[hash] = true;\n            fraudulentTradeHashes.push(hash);\n            emit AddFraudulentTradeHashEvent(hash);\n        }\n    }\n\n    /// @notice Get the number of fraudulent payment hashes\n    function fraudulentPaymentHashesCount()\n    public\n    view\n    returns (uint256)\n    {\n        return fraudulentPaymentHashes.length;\n    }\n\n    /// @notice Get the state about whether the given hash equals the hash of a fraudulent payment\n    /// @param hash The hash to be tested\n    /// @return true if hash is the one of a fraudulent payment, else null\n    function isFraudulentPaymentHash(bytes32 hash)\n    public\n    view\n    returns (bool)\n    {\n        return fraudulentByPaymentHash[hash];\n    }\n\n    /// @notice Add given payment hash to store of fraudulent payment hashes if not already present\n    function addFraudulentPaymentHash(bytes32 hash)\n    public\n    onlyEnabledServiceAction(ADD_FRAUDULENT_PAYMENT_ACTION)\n    {\n        if (!fraudulentByPaymentHash[hash]) {\n            fraudulentByPaymentHash[hash] = true;\n            fraudulentPaymentHashes.push(hash);\n            emit AddFraudulentPaymentHashEvent(hash);\n        }\n    }\n}",
  "sourcePath": "/opt/buildagent/work/855e104608380c36/contracts/FraudChallenge.sol",
  "compiler": {
    "name": "solc",
    "version": "0.4.25+commit.59dbf8f1.Emscripten.clang"
  },
  "schemaVersion": "2.0.2",
  "updatedAt": "2019-04-18T00:23:49.618Z"
}