{
  "contractName": "FraudChallengeByTradeSucceedingPayment",
  "abi": [
    {
      "constant": false,
      "inputs": [
        {
          "name": "newFraudChallenge",
          "type": "address"
        }
      ],
      "name": "setFraudChallenge",
      "outputs": [],
      "payable": false,
      "stateMutability": "nonpayable",
      "type": "function"
    },
    {
      "constant": false,
      "inputs": [
        {
          "name": "newValidator",
          "type": "address"
        }
      ],
      "name": "setValidator",
      "outputs": [],
      "payable": false,
      "stateMutability": "nonpayable",
      "type": "function"
    },
    {
      "constant": true,
      "inputs": [],
      "name": "balanceTracker",
      "outputs": [
        {
          "name": "",
          "type": "address"
        }
      ],
      "payable": false,
      "stateMutability": "view",
      "type": "function"
    },
    {
      "constant": true,
      "inputs": [],
      "name": "walletLockerFrozen",
      "outputs": [
        {
          "name": "",
          "type": "bool"
        }
      ],
      "payable": false,
      "stateMutability": "view",
      "type": "function"
    },
    {
      "constant": false,
      "inputs": [],
      "name": "triggerSelfDestruction",
      "outputs": [],
      "payable": false,
      "stateMutability": "nonpayable",
      "type": "function"
    },
    {
      "constant": true,
      "inputs": [],
      "name": "selfDestructionDisabled",
      "outputs": [
        {
          "name": "",
          "type": "bool"
        }
      ],
      "payable": false,
      "stateMutability": "view",
      "type": "function"
    },
    {
      "constant": true,
      "inputs": [],
      "name": "validator",
      "outputs": [
        {
          "name": "",
          "type": "address"
        }
      ],
      "payable": false,
      "stateMutability": "view",
      "type": "function"
    },
    {
      "constant": true,
      "inputs": [],
      "name": "fraudChallenge",
      "outputs": [
        {
          "name": "",
          "type": "address"
        }
      ],
      "payable": false,
      "stateMutability": "view",
      "type": "function"
    },
    {
      "constant": true,
      "inputs": [],
      "name": "balanceTrackerFrozen",
      "outputs": [
        {
          "name": "",
          "type": "bool"
        }
      ],
      "payable": false,
      "stateMutability": "view",
      "type": "function"
    },
    {
      "constant": true,
      "inputs": [],
      "name": "destructor",
      "outputs": [
        {
          "name": "",
          "type": "address"
        }
      ],
      "payable": false,
      "stateMutability": "view",
      "type": "function"
    },
    {
      "constant": true,
      "inputs": [],
      "name": "operator",
      "outputs": [
        {
          "name": "",
          "type": "address"
        }
      ],
      "payable": false,
      "stateMutability": "view",
      "type": "function"
    },
    {
      "constant": false,
      "inputs": [
        {
          "name": "newBalanceTracker",
          "type": "address"
        }
      ],
      "name": "setBalanceTracker",
      "outputs": [],
      "payable": false,
      "stateMutability": "nonpayable",
      "type": "function"
    },
    {
      "constant": false,
      "inputs": [],
      "name": "freezeWalletLocker",
      "outputs": [],
      "payable": false,
      "stateMutability": "nonpayable",
      "type": "function"
    },
    {
      "constant": false,
      "inputs": [
        {
          "name": "newConfiguration",
          "type": "address"
        }
      ],
      "name": "setConfiguration",
      "outputs": [],
      "payable": false,
      "stateMutability": "nonpayable",
      "type": "function"
    },
    {
      "constant": false,
      "inputs": [
        {
          "name": "newSecurityBond",
          "type": "address"
        }
      ],
      "name": "setSecurityBond",
      "outputs": [],
      "payable": false,
      "stateMutability": "nonpayable",
      "type": "function"
    },
    {
      "constant": true,
      "inputs": [],
      "name": "securityBond",
      "outputs": [
        {
          "name": "",
          "type": "address"
        }
      ],
      "payable": false,
      "stateMutability": "view",
      "type": "function"
    },
    {
      "constant": true,
      "inputs": [],
      "name": "configuration",
      "outputs": [
        {
          "name": "",
          "type": "address"
        }
      ],
      "payable": false,
      "stateMutability": "view",
      "type": "function"
    },
    {
      "constant": false,
      "inputs": [],
      "name": "disableSelfDestruction",
      "outputs": [],
      "payable": false,
      "stateMutability": "nonpayable",
      "type": "function"
    },
    {
      "constant": false,
      "inputs": [
        {
          "name": "newWalletLocker",
          "type": "address"
        }
      ],
      "name": "setWalletLocker",
      "outputs": [],
      "payable": false,
      "stateMutability": "nonpayable",
      "type": "function"
    },
    {
      "constant": false,
      "inputs": [
        {
          "name": "newDeployer",
          "type": "address"
        }
      ],
      "name": "setDeployer",
      "outputs": [],
      "payable": false,
      "stateMutability": "nonpayable",
      "type": "function"
    },
    {
      "constant": false,
      "inputs": [
        {
          "name": "newOperator",
          "type": "address"
        }
      ],
      "name": "setOperator",
      "outputs": [],
      "payable": false,
      "stateMutability": "nonpayable",
      "type": "function"
    },
    {
      "constant": false,
      "inputs": [],
      "name": "freezeBalanceTracker",
      "outputs": [],
      "payable": false,
      "stateMutability": "nonpayable",
      "type": "function"
    },
    {
      "constant": true,
      "inputs": [],
      "name": "deployer",
      "outputs": [
        {
          "name": "",
          "type": "address"
        }
      ],
      "payable": false,
      "stateMutability": "view",
      "type": "function"
    },
    {
      "constant": true,
      "inputs": [],
      "name": "walletLocker",
      "outputs": [
        {
          "name": "",
          "type": "address"
        }
      ],
      "payable": false,
      "stateMutability": "view",
      "type": "function"
    },
    {
      "inputs": [
        {
          "name": "deployer",
          "type": "address"
        }
      ],
      "payable": false,
      "stateMutability": "nonpayable",
      "type": "constructor"
    },
    {
      "anonymous": false,
      "inputs": [
        {
          "indexed": false,
          "name": "paymentHash",
          "type": "bytes32"
        },
        {
          "indexed": false,
          "name": "tradeHash",
          "type": "bytes32"
        },
        {
          "indexed": false,
          "name": "challenger",
          "type": "address"
        },
        {
          "indexed": false,
          "name": "lockedWallet",
          "type": "address"
        }
      ],
      "name": "ChallengeByTradeSucceedingPaymentEvent",
      "type": "event"
    },
    {
      "anonymous": false,
      "inputs": [
        {
          "indexed": false,
          "name": "oldBalanceTracker",
          "type": "address"
        },
        {
          "indexed": false,
          "name": "newBalanceTracker",
          "type": "address"
        }
      ],
      "name": "SetBalanceTrackerEvent",
      "type": "event"
    },
    {
      "anonymous": false,
      "inputs": [],
      "name": "FreezeBalanceTrackerEvent",
      "type": "event"
    },
    {
      "anonymous": false,
      "inputs": [
        {
          "indexed": false,
          "name": "oldWalletLocker",
          "type": "address"
        },
        {
          "indexed": false,
          "name": "newWalletLocker",
          "type": "address"
        }
      ],
      "name": "SetWalletLockerEvent",
      "type": "event"
    },
    {
      "anonymous": false,
      "inputs": [],
      "name": "FreezeWalletLockerEvent",
      "type": "event"
    },
    {
      "anonymous": false,
      "inputs": [
        {
          "indexed": false,
          "name": "oldSecurityBond",
          "type": "address"
        },
        {
          "indexed": false,
          "name": "newSecurityBond",
          "type": "address"
        }
      ],
      "name": "SetSecurityBondEvent",
      "type": "event"
    },
    {
      "anonymous": false,
      "inputs": [
        {
          "indexed": false,
          "name": "oldValidator",
          "type": "address"
        },
        {
          "indexed": false,
          "name": "newValidator",
          "type": "address"
        }
      ],
      "name": "SetValidatorEvent",
      "type": "event"
    },
    {
      "anonymous": false,
      "inputs": [
        {
          "indexed": false,
          "name": "oldConfiguration",
          "type": "address"
        },
        {
          "indexed": false,
          "name": "newConfiguration",
          "type": "address"
        }
      ],
      "name": "SetConfigurationEvent",
      "type": "event"
    },
    {
      "anonymous": false,
      "inputs": [
        {
          "indexed": false,
          "name": "oldFraudChallenge",
          "type": "address"
        },
        {
          "indexed": false,
          "name": "newFraudChallenge",
          "type": "address"
        }
      ],
      "name": "SetFraudChallengeEvent",
      "type": "event"
    },
    {
      "anonymous": false,
      "inputs": [
        {
          "indexed": false,
          "name": "oldDeployer",
          "type": "address"
        },
        {
          "indexed": false,
          "name": "newDeployer",
          "type": "address"
        }
      ],
      "name": "SetDeployerEvent",
      "type": "event"
    },
    {
      "anonymous": false,
      "inputs": [
        {
          "indexed": false,
          "name": "oldOperator",
          "type": "address"
        },
        {
          "indexed": false,
          "name": "newOperator",
          "type": "address"
        }
      ],
      "name": "SetOperatorEvent",
      "type": "event"
    },
    {
      "anonymous": false,
      "inputs": [
        {
          "indexed": false,
          "name": "wallet",
          "type": "address"
        }
      ],
      "name": "SelfDestructionDisabledEvent",
      "type": "event"
    },
    {
      "anonymous": false,
      "inputs": [
        {
          "indexed": false,
          "name": "wallet",
          "type": "address"
        }
      ],
      "name": "TriggerSelfDestructionEvent",
      "type": "event"
    },
    {
      "constant": false,
      "inputs": [
        {
          "components": [
            {
              "name": "nonce",
              "type": "uint256"
            },
            {
              "name": "amount",
              "type": "int256"
            },
            {
              "components": [
                {
                  "name": "ct",
                  "type": "address"
                },
                {
                  "name": "id",
                  "type": "uint256"
                }
              ],
              "name": "currency",
              "type": "tuple"
            },
            {
              "components": [
                {
                  "name": "nonce",
                  "type": "uint256"
                },
                {
                  "name": "wallet",
                  "type": "address"
                },
                {
                  "components": [
                    {
                      "name": "current",
                      "type": "int256"
                    },
                    {
                      "name": "previous",
                      "type": "int256"
                    }
                  ],
                  "name": "balances",
                  "type": "tuple"
                },
                {
                  "components": [
                    {
                      "components": [
                        {
                          "name": "amount",
                          "type": "int256"
                        },
                        {
                          "components": [
                            {
                              "name": "ct",
                              "type": "address"
                            },
                            {
                              "name": "id",
                              "type": "uint256"
                            }
                          ],
                          "name": "currency",
                          "type": "tuple"
                        }
                      ],
                      "name": "single",
                      "type": "tuple"
                    },
                    {
                      "components": [
                        {
                          "name": "originId",
                          "type": "uint256"
                        },
                        {
                          "components": [
                            {
                              "name": "amount",
                              "type": "int256"
                            },
                            {
                              "components": [
                                {
                                  "name": "ct",
                                  "type": "address"
                                },
                                {
                                  "name": "id",
                                  "type": "uint256"
                                }
                              ],
                              "name": "currency",
                              "type": "tuple"
                            }
                          ],
                          "name": "figure",
                          "type": "tuple"
                        }
                      ],
                      "name": "total",
                      "type": "tuple[]"
                    }
                  ],
                  "name": "fees",
                  "type": "tuple"
                }
              ],
              "name": "sender",
              "type": "tuple"
            },
            {
              "components": [
                {
                  "name": "nonce",
                  "type": "uint256"
                },
                {
                  "name": "wallet",
                  "type": "address"
                },
                {
                  "components": [
                    {
                      "name": "current",
                      "type": "int256"
                    },
                    {
                      "name": "previous",
                      "type": "int256"
                    }
                  ],
                  "name": "balances",
                  "type": "tuple"
                },
                {
                  "components": [
                    {
                      "components": [
                        {
                          "name": "originId",
                          "type": "uint256"
                        },
                        {
                          "components": [
                            {
                              "name": "amount",
                              "type": "int256"
                            },
                            {
                              "components": [
                                {
                                  "name": "ct",
                                  "type": "address"
                                },
                                {
                                  "name": "id",
                                  "type": "uint256"
                                }
                              ],
                              "name": "currency",
                              "type": "tuple"
                            }
                          ],
                          "name": "figure",
                          "type": "tuple"
                        }
                      ],
                      "name": "total",
                      "type": "tuple[]"
                    }
                  ],
                  "name": "fees",
                  "type": "tuple"
                }
              ],
              "name": "recipient",
              "type": "tuple"
            },
            {
              "components": [
                {
                  "name": "single",
                  "type": "int256"
                },
                {
                  "name": "total",
                  "type": "int256"
                }
              ],
              "name": "transfers",
              "type": "tuple"
            },
            {
              "components": [
                {
                  "components": [
                    {
                      "name": "hash",
                      "type": "bytes32"
                    },
                    {
                      "components": [
                        {
                          "name": "r",
                          "type": "bytes32"
                        },
                        {
                          "name": "s",
                          "type": "bytes32"
                        },
                        {
                          "name": "v",
                          "type": "uint8"
                        }
                      ],
                      "name": "signature",
                      "type": "tuple"
                    }
                  ],
                  "name": "wallet",
                  "type": "tuple"
                },
                {
                  "components": [
                    {
                      "name": "hash",
                      "type": "bytes32"
                    },
                    {
                      "components": [
                        {
                          "name": "r",
                          "type": "bytes32"
                        },
                        {
                          "name": "s",
                          "type": "bytes32"
                        },
                        {
                          "name": "v",
                          "type": "uint8"
                        }
                      ],
                      "name": "signature",
                      "type": "tuple"
                    }
                  ],
                  "name": "operator",
                  "type": "tuple"
                }
              ],
              "name": "seals",
              "type": "tuple"
            },
            {
              "name": "blockNumber",
              "type": "uint256"
            },
            {
              "name": "operatorId",
              "type": "uint256"
            }
          ],
          "name": "payment",
          "type": "tuple"
        },
        {
          "components": [
            {
              "name": "nonce",
              "type": "uint256"
            },
            {
              "name": "amount",
              "type": "int256"
            },
            {
              "components": [
                {
                  "components": [
                    {
                      "name": "ct",
                      "type": "address"
                    },
                    {
                      "name": "id",
                      "type": "uint256"
                    }
                  ],
                  "name": "intended",
                  "type": "tuple"
                },
                {
                  "components": [
                    {
                      "name": "ct",
                      "type": "address"
                    },
                    {
                      "name": "id",
                      "type": "uint256"
                    }
                  ],
                  "name": "conjugate",
                  "type": "tuple"
                }
              ],
              "name": "currencies",
              "type": "tuple"
            },
            {
              "name": "rate",
              "type": "int256"
            },
            {
              "components": [
                {
                  "name": "nonce",
                  "type": "uint256"
                },
                {
                  "name": "wallet",
                  "type": "address"
                },
                {
                  "name": "rollingVolume",
                  "type": "uint256"
                },
                {
                  "name": "liquidityRole",
                  "type": "uint8"
                },
                {
                  "components": [
                    {
                      "name": "amount",
                      "type": "int256"
                    },
                    {
                      "components": [
                        {
                          "name": "wallet",
                          "type": "bytes32"
                        },
                        {
                          "name": "operator",
                          "type": "bytes32"
                        }
                      ],
                      "name": "hashes",
                      "type": "tuple"
                    },
                    {
                      "components": [
                        {
                          "name": "current",
                          "type": "int256"
                        },
                        {
                          "name": "previous",
                          "type": "int256"
                        }
                      ],
                      "name": "residuals",
                      "type": "tuple"
                    }
                  ],
                  "name": "order",
                  "type": "tuple"
                },
                {
                  "components": [
                    {
                      "components": [
                        {
                          "name": "current",
                          "type": "int256"
                        },
                        {
                          "name": "previous",
                          "type": "int256"
                        }
                      ],
                      "name": "intended",
                      "type": "tuple"
                    },
                    {
                      "components": [
                        {
                          "name": "current",
                          "type": "int256"
                        },
                        {
                          "name": "previous",
                          "type": "int256"
                        }
                      ],
                      "name": "conjugate",
                      "type": "tuple"
                    }
                  ],
                  "name": "balances",
                  "type": "tuple"
                },
                {
                  "components": [
                    {
                      "components": [
                        {
                          "name": "amount",
                          "type": "int256"
                        },
                        {
                          "components": [
                            {
                              "name": "ct",
                              "type": "address"
                            },
                            {
                              "name": "id",
                              "type": "uint256"
                            }
                          ],
                          "name": "currency",
                          "type": "tuple"
                        }
                      ],
                      "name": "single",
                      "type": "tuple"
                    },
                    {
                      "components": [
                        {
                          "name": "originId",
                          "type": "uint256"
                        },
                        {
                          "components": [
                            {
                              "name": "amount",
                              "type": "int256"
                            },
                            {
                              "components": [
                                {
                                  "name": "ct",
                                  "type": "address"
                                },
                                {
                                  "name": "id",
                                  "type": "uint256"
                                }
                              ],
                              "name": "currency",
                              "type": "tuple"
                            }
                          ],
                          "name": "figure",
                          "type": "tuple"
                        }
                      ],
                      "name": "total",
                      "type": "tuple[]"
                    }
                  ],
                  "name": "fees",
                  "type": "tuple"
                }
              ],
              "name": "buyer",
              "type": "tuple"
            },
            {
              "components": [
                {
                  "name": "nonce",
                  "type": "uint256"
                },
                {
                  "name": "wallet",
                  "type": "address"
                },
                {
                  "name": "rollingVolume",
                  "type": "uint256"
                },
                {
                  "name": "liquidityRole",
                  "type": "uint8"
                },
                {
                  "components": [
                    {
                      "name": "amount",
                      "type": "int256"
                    },
                    {
                      "components": [
                        {
                          "name": "wallet",
                          "type": "bytes32"
                        },
                        {
                          "name": "operator",
                          "type": "bytes32"
                        }
                      ],
                      "name": "hashes",
                      "type": "tuple"
                    },
                    {
                      "components": [
                        {
                          "name": "current",
                          "type": "int256"
                        },
                        {
                          "name": "previous",
                          "type": "int256"
                        }
                      ],
                      "name": "residuals",
                      "type": "tuple"
                    }
                  ],
                  "name": "order",
                  "type": "tuple"
                },
                {
                  "components": [
                    {
                      "components": [
                        {
                          "name": "current",
                          "type": "int256"
                        },
                        {
                          "name": "previous",
                          "type": "int256"
                        }
                      ],
                      "name": "intended",
                      "type": "tuple"
                    },
                    {
                      "components": [
                        {
                          "name": "current",
                          "type": "int256"
                        },
                        {
                          "name": "previous",
                          "type": "int256"
                        }
                      ],
                      "name": "conjugate",
                      "type": "tuple"
                    }
                  ],
                  "name": "balances",
                  "type": "tuple"
                },
                {
                  "components": [
                    {
                      "components": [
                        {
                          "name": "amount",
                          "type": "int256"
                        },
                        {
                          "components": [
                            {
                              "name": "ct",
                              "type": "address"
                            },
                            {
                              "name": "id",
                              "type": "uint256"
                            }
                          ],
                          "name": "currency",
                          "type": "tuple"
                        }
                      ],
                      "name": "single",
                      "type": "tuple"
                    },
                    {
                      "components": [
                        {
                          "name": "originId",
                          "type": "uint256"
                        },
                        {
                          "components": [
                            {
                              "name": "amount",
                              "type": "int256"
                            },
                            {
                              "components": [
                                {
                                  "name": "ct",
                                  "type": "address"
                                },
                                {
                                  "name": "id",
                                  "type": "uint256"
                                }
                              ],
                              "name": "currency",
                              "type": "tuple"
                            }
                          ],
                          "name": "figure",
                          "type": "tuple"
                        }
                      ],
                      "name": "total",
                      "type": "tuple[]"
                    }
                  ],
                  "name": "fees",
                  "type": "tuple"
                }
              ],
              "name": "seller",
              "type": "tuple"
            },
            {
              "components": [
                {
                  "components": [
                    {
                      "name": "single",
                      "type": "int256"
                    },
                    {
                      "name": "total",
                      "type": "int256"
                    }
                  ],
                  "name": "intended",
                  "type": "tuple"
                },
                {
                  "components": [
                    {
                      "name": "single",
                      "type": "int256"
                    },
                    {
                      "name": "total",
                      "type": "int256"
                    }
                  ],
                  "name": "conjugate",
                  "type": "tuple"
                }
              ],
              "name": "transfers",
              "type": "tuple"
            },
            {
              "components": [
                {
                  "name": "hash",
                  "type": "bytes32"
                },
                {
                  "components": [
                    {
                      "name": "r",
                      "type": "bytes32"
                    },
                    {
                      "name": "s",
                      "type": "bytes32"
                    },
                    {
                      "name": "v",
                      "type": "uint8"
                    }
                  ],
                  "name": "signature",
                  "type": "tuple"
                }
              ],
              "name": "seal",
              "type": "tuple"
            },
            {
              "name": "blockNumber",
              "type": "uint256"
            },
            {
              "name": "operatorId",
              "type": "uint256"
            }
          ],
          "name": "trade",
          "type": "tuple"
        },
        {
          "name": "wallet",
          "type": "address"
        },
        {
          "name": "currencyCt",
          "type": "address"
        },
        {
          "name": "currencyId",
          "type": "uint256"
        }
      ],
      "name": "challenge",
      "outputs": [],
      "payable": false,
      "stateMutability": "nonpayable",
      "type": "function"
    }
  ],
  "bytecode": "0x60806040523480156200001157600080fd5b5060405160208062002c718339810180604052620000339190810190620000b6565b8080600160a060020a03811615156200004b57600080fd5b600160a060020a0381163014156200006257600080fd5b506000805461010060a860020a031916610100600160a060020a039390931692830217905560018054600160a060020a031916909117905550620000eb565b6000620000af8251620000df565b9392505050565b600060208284031215620000c957600080fd5b6000620000d78484620000a1565b949350505050565b600160a060020a031690565b612b7680620000fb6000396000f30060806040526004361061012f5763ffffffff60e060020a60003504166301370d0681146101345780631327d3d8146101565780631913909214610176578063240625d8146101a15780632738a112146101c35780632f013a00146101d85780633a5381b5146101ed5780633bd7857f146102025780633e59b706146102175780634476d23b1461022c578063570ca7351461024e578063598b75ad146102635780635dc60def14610283578063627f09c3146102985780636792ce6e146102b85780636b0570d0146102d85780636c70bee9146102ed57806370327ea114610302578063892860b2146103175780639621473514610337578063b3ab15fb14610357578063b52d470a14610377578063cd6b367b1461038c578063d5f39488146103ac578063e8ae41e3146103c1575b600080fd5b34801561014057600080fd5b5061015461014f3660046121c1565b6103d6565b005b34801561016257600080fd5b506101546101713660046121c1565b61047e565b34801561018257600080fd5b5061018b610516565b604051610198919061292e565b60405180910390f35b3480156101ad57600080fd5b506101b6610525565b60405161019891906128dd565b3480156101cf57600080fd5b50610154610535565b3480156101e457600080fd5b506101b661059b565b3480156101f957600080fd5b5061018b6105a4565b34801561020e57600080fd5b5061018b6105b3565b34801561022357600080fd5b506101b66105c2565b34801561023857600080fd5b506102416105d2565b60405161019891906127e6565b34801561025a57600080fd5b506102416105e6565b34801561026f57600080fd5b5061015461027e3660046121c1565b6105f5565b34801561028f57600080fd5b506101546106a4565b3480156102a457600080fd5b506101546102b33660046121c1565b6106f8565b3480156102c457600080fd5b506101546102d33660046121c1565b610790565b3480156102e457600080fd5b5061018b610828565b3480156102f957600080fd5b5061018b610837565b34801561030e57600080fd5b50610154610846565b34801561032357600080fd5b506101546103323660046121c1565b6108a9565b34801561034357600080fd5b5061015461035236600461215f565b610958565b34801561036357600080fd5b5061015461037236600461215f565b610a1f565b34801561038357600080fd5b50610154610ac9565b34801561039857600080fd5b506101546103a7366004612219565b610b1d565b3480156103b857600080fd5b50610241611413565b3480156103cd57600080fd5b5061018b611427565b60006103e0611436565b15156103eb57600080fd5b81600160a060020a038116151561040157600080fd5b6002548390600160a060020a0390811690821681146104775760028054600160a060020a03878116600160a060020a0319831617909255604051911694507f07998fa7be97abe2427246ae4688298c89d6196bbffdf0997b9495a8d27bc6739061046e908690889061293c565b60405180910390a15b5050505050565b6000610488611436565b151561049357600080fd5b81600160a060020a03811615156104a957600080fd5b6004548390600160a060020a0390811690821681146104775760048054600160a060020a03878116600160a060020a0319831617909255604051911694507f1882af944a16549c3d4f60e3cd26f158b0c7aac3222cf32971fc21375ce05f609061046e908690889061293c565b600754600160a060020a031681565b60065460a060020a900460ff1681565b3361053e6105d2565b600160a060020a03161461055157600080fd5b60005460ff161561056157600080fd5b7f787a5d936e74f4b564b9153575886059829c78cd9927b1be5e0d976b317ef7363360405161059091906127e6565b60405180910390a133ff5b60005460ff1681565b600454600160a060020a031681565b600254600160a060020a031681565b60075460a060020a900460ff1681565b6000546101009004600160a060020a031690565b600154600160a060020a031681565b60006105ff611436565b151561060a57600080fd5b81600160a060020a038116151561062057600080fd5b6007548390600160a060020a0390811690821681146104775760075460a060020a900460ff161561065057600080fd5b60078054600160a060020a03878116600160a060020a0319831617909255604051911694507fb2a91d3a71b0c5bc7c083153b3474378e489506ba98bd4ddb1b9056fdc594bb59061046e908690889061293c565b6106ac611436565b15156106b757600080fd5b6006805460a060020a60ff02191660a060020a1790556040517f56ec8900b9c4bf84f4b715a53068ca06961dd49084c07b481931e2c2045346e690600090a1565b6000610702611436565b151561070d57600080fd5b81600160a060020a038116151561072357600080fd5b6003548390600160a060020a0390811690821681146104775760038054600160a060020a03878116600160a060020a0319831617909255604051911694507f634f61bf00e14adedce330c80c2823e16e184f189ebe853e1ddecc4a268477ff9061046e908690889061293c565b600061079a611436565b15156107a557600080fd5b81600160a060020a03811615156107bb57600080fd5b6005548390600160a060020a0390811690821681146104775760058054600160a060020a03878116600160a060020a0319831617909255604051911694507fc9f3f00c1760fe26985aeacb814a21c56ea289d680562e89b249681b08c303829061046e908690889061293c565b600554600160a060020a031681565b600354600160a060020a031681565b3361084f6105d2565b600160a060020a03161461086257600080fd5b6000805460ff191660011790556040517fd5a2a04a775c741c2ca0dc46ea7ce4835190e1aaf1ca018def0e82568ec336169061089f9033906127e6565b60405180910390a1565b60006108b3611436565b15156108be57600080fd5b81600160a060020a03811615156108d457600080fd5b6006548390600160a060020a0390811690821681146104775760065460a060020a900460ff161561090457600080fd5b60068054600160a060020a03878116600160a060020a0319831617909255604051911694507fa44d361e26327b72a7ccbeae801b3c5cd7677ea4fa74168b289e273c46bfecfc9061046e908690889061293c565b6000610962611436565b151561096d57600080fd5b81600160a060020a038116151561098357600080fd5b600160a060020a03811630141561099957600080fd5b600054600160a060020a038481166101009092041614610a1a5760008054600160a060020a0385811661010090810261010060a860020a0319841617909355604051929091041692507f977e5fa58e458501775e0008d275006294c5249e3c08d1d0e3a9f3acad14f6e490610a1190849086906127f4565b60405180910390a15b505050565b6000610a2961144c565b1515610a3457600080fd5b81600160a060020a0381161515610a4a57600080fd5b600160a060020a038116301415610a6057600080fd5b600154600160a060020a03848116911614610a1a5760018054600160a060020a03858116600160a060020a0319831617909255604051911692507f9f611b789425d0d5b90b920f1b2852907dd865c80074a30b1629aaa041d1812c90610a1190849086906127f4565b610ad1611436565b1515610adc57600080fd5b6007805460a060020a60ff02191660a060020a1790556040517f9c567b65fe8caab5ec7bc979a498a1322c1d4baf01a30727cbca137187560ea290600090a1565b600080600080600360009054906101000a9004600160a060020a0316600160a060020a031663f71e860f6040518163ffffffff1660e060020a028152600401602060405180830381600087803b158015610b7657600080fd5b505af1158015610b8a573d6000803e3d6000fd5b505050506040513d601f19601f82011682018060405250610bae9190810190612185565b1515610bb957600080fd5b6004805460405160e060020a63a865476b0281528b92600160a060020a039092169163a865476b91610bed91859101612957565b602060405180830381600087803b158015610c0757600080fd5b505af1158015610c1b573d6000803e3d6000fd5b505050506040513d601f19601f82011682018060405250610c3f9190810190612185565b1515610c4a57600080fd5b6004805460405160e160020a637211c8c70281528b92600160a060020a039092169163e423918e91610c7e91859101612a44565b602060405180830381600087803b158015610c9857600080fd5b505af1158015610cac573d6000803e3d6000fd5b505050506040513d601f19601f82011682018060405250610cd09190810190612185565b1515610cdb57600080fd5b6004805460405160e160020a635f1132b7028152600160a060020a039091169163be22656e91610d0f918f918e9101612968565b602060405180830381600087803b158015610d2957600080fd5b505af1158015610d3d573d6000803e3d6000fd5b505050506040513d601f19601f82011682018060405250610d619190810190612185565b1515610d6c57600080fd5b6004805460405160e160020a6303e149c3028152600160a060020a03909116916307c2938691610da0918e918e9101612a55565b602060405180830381600087803b158015610dba57600080fd5b505af1158015610dce573d6000803e3d6000fd5b505050506040513d601f19601f82011682018060405250610df29190810190612185565b1515610dfd57600080fd5b600460009054906101000a9004600160a060020a0316600160a060020a031663ec48a9ca8c60408051908101604052808c600160a060020a031681526020018b8152506040518363ffffffff1660e060020a028152600401610e60929190612a24565b602060405180830381600087803b158015610e7a57600080fd5b505af1158015610e8e573d6000803e3d6000fd5b505050506040513d601f19601f82011682018060405250610eb29190810190612185565b1515610ebd57600080fd5b60048054604080518082018252600160a060020a038c81168252602082018c9052915160e060020a63da0d1919028152919092169263da0d191992610f04928f9201612a66565b602060405180830381600087803b158015610f1e57600080fd5b505af1158015610f32573d6000803e3d6000fd5b505050506040513d601f19601f82011682018060405250610f569190810190612185565b1515610f6157600080fd5b610f8a8b8b8b60408051908101604052808d600160a060020a031681526020018c81525061145d565b9550955095509550600460009054906101000a9004600160a060020a0316600160a060020a03166377f4cf088c888d896040518563ffffffff1660e060020a028152600401610fdc9493929190612988565b602060405180830381600087803b158015610ff657600080fd5b505af115801561100a573d6000803e3d6000fd5b505050506040513d601f19601f8201168201806040525061102e9190810190612185565b151561103957600080fd5b600460009054906101000a9004600160a060020a0316600160a060020a03166335e5862b8c888d8989896040518763ffffffff1660e060020a028152600401611087969594939291906129c9565b602060405180830381600087803b1580156110a157600080fd5b505af11580156110b5573d6000803e3d6000fd5b505050506040513d601f19601f820116820180604052506110d99190810190612185565b801561117c5750600460009054906101000a9004600160a060020a0316600160a060020a03166328b608d48c888d896040518563ffffffff1660e060020a02815260040161112a9493929190612988565b602060405180830381600087803b15801561114457600080fd5b505af1158015611158573d6000803e3d6000fd5b505050506040513d601f19601f8201168201806040525061117c9190810190612185565b1561118657600080fd5b600360009054906101000a9004600160a060020a0316600160a060020a031663f8e6e8886040518163ffffffff1660e060020a028152600401600060405180830381600087803b1580156111d957600080fd5b505af11580156111ed573d6000803e3d6000fd5b505060025460e08d01515160405160e060020a6375d8655b028152600160a060020a0390921693506375d8655b9250611228916004016128eb565b600060405180830381600087803b15801561124257600080fd5b505af1158015611256573d6000803e3d6000fd5b50506005546003546040805160e060020a639699f3370281529051600160a060020a03938416955063760b82929450339390921691639699f337916004808201926020929091908290030181600087803b1580156112b357600080fd5b505af11580156112c7573d6000803e3d6000fd5b505050506040513d601f19601f820116820180604052506112eb91908101906121a3565b60006040518463ffffffff1660e060020a02815260040161130e939291906128b5565b600060405180830381600087803b15801561132857600080fd5b505af115801561133c573d6000803e3d6000fd5b5050600654600160a060020a03169150639a54532290508a336113608e8a8a6114c1565b8c8c60006040518763ffffffff1660e060020a0281526004016113889695949392919061280f565b600060405180830381600087803b1580156113a257600080fd5b505af11580156113b6573d6000803e3d6000fd5b50505060c08c0151602001515160e08c0151516040517f6312cf57072d3b52881bf924ee64f2f7d5da872e317e53fc557b6cd8fb7f2f0393506113fe92919033908e906128f9565b60405180910390a15050505050505050505050565b6000546101009004600160a060020a031681565b600654600160a060020a031681565b6000546101009004600160a060020a0316331490565b600154600160a060020a0316331490565b60008060008061146d8887611544565b935061147987876115e4565b9250611485878661161b565b60e08901516101008901516007549294506114b492600160a060020a031691899189919063ffffffff61165216565b9050945094509450949050565b60008260018111156114cf57fe5b151561150c578160018111156114e157fe5b15156114f85750608083015160a00151515161153d565b50608083015160a00151602001515161153d565b81600181111561151857fe5b151561152e575060a0808401510151515161153d565b5060a080840151015160200151515b9392505050565b6004805460405160e060020a63ef04ec95028152600092600160a060020a039092169163ef04ec959161157b918791879101612968565b602060405180830381600087803b15801561159557600080fd5b505af11580156115a9573d6000803e3d6000fd5b505050506040513d601f19601f820116820180604052506115cd9190810190612185565b6115d85760016115db565b60005b90505b92915050565b6004805460405160e060020a63059057d7028152600092600160a060020a039092169163059057d79161157b918791879101612a55565b6004805460405160e560020a630377f3c9028152600092600160a060020a0390921691636efe79209161157b918791879101612a66565b600061166086868686611679565b61166c87878786611679565b0390505b95945050505050565b60008061168886868686611693565b509695505050505050565b60008060008060008089600160a060020a031663a246138c8a8c600160a060020a031663ded113106040518163ffffffff1660e060020a028152600401602060405180830381600087803b1580156116ea57600080fd5b505af11580156116fe573d6000803e3d6000fd5b505050506040513d601f19601f8201168201806040525061172291908101906121a3565b8b5160208d015160405160e060020a63ffffffff871602815261174d94939291908e90600401612869565b6040805180830381600087803b15801561176657600080fd5b505af115801561177a573d6000803e3d6000fd5b505050506040513d601f19601f8201168201806040525061179e91908101906121df565b9350935089600160a060020a031663a246138c8a8c600160a060020a0316634652ec746040518163ffffffff1660e060020a028152600401602060405180830381600087803b1580156117f057600080fd5b505af1158015611804573d6000803e3d6000fd5b505050506040513d601f19601f8201168201806040525061182891908101906121a3565b8b5160208d015160405160e060020a63ffffffff871602815261185394939291908e90600401612869565b6040805180830381600087803b15801561186c57600080fd5b505af1158015611880573d6000803e3d6000fd5b505050506040513d601f19601f820116820180604052506118a491908101906121df565b90925090506118b9848363ffffffff61195716565b60405160e060020a63a682d5ad02815290965073__SafeMathUintLib_______________________9063a682d5ad906118f89086908590600401612a77565b60206040518083038186803b15801561191057600080fd5b505af4158015611924573d6000803e3d6000fd5b505050506040513d601f19601f8201168201806040525061194891908101906121a3565b94505050505094509492505050565b600082820181831280159061196c5750838112155b80611981575060008312801561198157508381125b151561153d57600080fd5b60006115db8235612ae2565b6000601f820183136119a957600080fd5b81356119bc6119b782612ab8565b612a92565b915081818352602084019350602081019050838560808402820111156119e157600080fd5b60005b83811015611a0f57816119f78882611b77565b845250602090920191608091909101906001016119e4565b5050505092915050565b60006115db8251612aee565b60006115db8235612af3565b60006115db8251612af3565b60006115db8235612b0c565b60006115db8235612b17565b600060408284031215611a6757600080fd5b611a716040612a92565b90506000611a7f848461198c565b8252506020611a9084848301611a25565b60208301525092915050565b600060408284031215611aae57600080fd5b611ab86040612a92565b90506000611a7f8484611a25565b600060608284031215611ad857600080fd5b611ae26040612a92565b90506000611af08484611a25565b8252506020611a9084848301611a55565b600060808284031215611b1357600080fd5b611b1d6040612a92565b90506000611b2b8484611a55565b8252506040611a9084848301611a55565b600060808284031215611b4e57600080fd5b611b586040612a92565b90506000611b668484611a9c565b8252506040611a9084848301611a9c565b600060808284031215611b8957600080fd5b611b936040612a92565b90506000611ba18484611a25565b8252506020611a9084848301611ac6565b600060a08284031215611bc457600080fd5b611bce6080612a92565b90506000611bdc8484611a25565b8252506020611bed8484830161198c565b6020830152506040611c0184828501611a9c565b60408301525060808201356001604060020a03811115611c2057600080fd5b611c2c84828501611e9c565b60608301525092915050565b600060a08284031215611c4a57600080fd5b611c546080612a92565b90506000611c628484611a25565b8252506020611c738484830161198c565b6020830152506040611c8784828501611a9c565b60408301525060808201356001604060020a03811115611ca657600080fd5b611c2c84828501611e4a565b60006102408284031215611cc557600080fd5b611cd0610120612a92565b90506000611cde8484611a25565b8252506020611cef84848301611a25565b6020830152506040611d0384828501611a55565b60408301525060808201356001604060020a03811115611d2257600080fd5b611d2e84828501611c38565b60608301525060a08201356001604060020a03811115611d4d57600080fd5b611d5984828501611bb2565b60808301525060c0611d6d84828501611a9c565b60a083015250610100611d8284828501612117565b60c083015250610200611d9784828501611a25565b60e083015250610220611dac84828501611a25565b6101008301525092915050565b600060808284031215611dcb57600080fd5b611dd56040612a92565b90506000611de38484611a25565b8252506020611a9084848301600060608284031215611e0157600080fd5b611e0b6060612a92565b90506000611e198484611a25565b8252506020611e2a84848301611a25565b6020830152506040611e3e84828501612153565b60408301525092915050565b600060808284031215611e5c57600080fd5b611e666040612a92565b90506000611e748484611ac6565b82525060608201356001604060020a03811115611e9057600080fd5b611a9084828501611998565b600060208284031215611eae57600080fd5b611eb86020612a92565b905081356001604060020a03811115611ed057600080fd5b611edc84828501611998565b82525092915050565b600060a08284031215611ef757600080fd5b611f016060612a92565b90506000611f0f8484611a25565b8252506020611f2084848301611a9c565b6020830152506060611e3e84828501611a9c565b60006101c08284031215611f4757600080fd5b611f5160e0612a92565b90506000611f5f8484611a25565b8252506020611f708484830161198c565b6020830152506040611f8484828501611a25565b6040830152506060611f9884828501611a49565b6060830152506080611fac84828501611ee5565b608083015250610120611fc184828501611b3c565b60a0830152506101a08201356001604060020a03811115611fe157600080fd5b611fed84828501611e4a565b60c08301525092915050565b6000610260828403121561200c57600080fd5b612017610140612a92565b905060006120258484611a25565b825250602061203684848301611a25565b602083015250604061204a84828501611b01565b60408301525060c061205e84828501611a25565b60608301525060e08201356001604060020a0381111561207d57600080fd5b61208984828501611f34565b6080830152506101008201356001604060020a038111156120a957600080fd5b6120b584828501611f34565b60a0830152506101206120ca84828501611b3c565b60c0830152506101a06120df84828501611db9565b60e0830152506102206120f484828501611a25565b6101008301525061024061210a84828501611a25565b6101208301525092915050565b6000610100828403121561212a57600080fd5b6121346040612a92565b905060006121428484611db9565b8252506080611a9084848301611db9565b60006115db8235612b06565b60006020828403121561217157600080fd5b600061217d848461198c565b949350505050565b60006020828403121561219757600080fd5b600061217d8484611a19565b6000602082840312156121b557600080fd5b600061217d8484611a31565b6000602082840312156121d357600080fd5b600061217d8484611a3d565b600080604083850312156121f257600080fd5b60006121fe8585611a31565b925050602061220f85828601611a31565b9150509250929050565b600080600080600060a0868803121561223157600080fd5b85356001604060020a0381111561224757600080fd5b61225388828901611cb2565b95505060208601356001604060020a0381111561226f57600080fd5b61227b88828901611ff9565b945050604061228c8882890161198c565b935050606061229d8882890161198c565b92505060806122ae88828901611a25565b9150509295509295909350565b6122c481612ae2565b82525050565b60006122d582612ade565b8084526020840193506122e783612ad8565b60005b82811015612317576122fd8683516123f5565b61230682612ad8565b6080969096019591506001016122ea565b5093949350505050565b6122c481612aee565b6122c481612af3565b6122c481612b0c565b6122c481612b26565b6122c481612b31565b8051604083019061235f84826122bb565b506020820151612372602085018261232a565b50505050565b8051604083019061235f848261232a565b8051606083019061239a848261232a565b506020820151612372602085018261234e565b805160808301906123be848261234e565b506020820151612372604085018261234e565b805160808301906123e28482612378565b5060208201516123726040850182612378565b80516080830190612406848261232a565b5060208201516123726020850182612389565b805160009060a084019061242d858261232a565b50602083015161244060208601826122bb565b5060408301516124536040860182612378565b50606083015184820360808601526116708282612606565b805160009060a084019061247f858261232a565b50602083015161249260208601826122bb565b5060408301516124a56040860182612378565b506060830151848203608086015261167082826125da565b80516000906102408401906124d2858261232a565b5060208301516124e5602086018261232a565b5060408301516124f8604086018261234e565b5060608301518482036080860152612510828261246b565b915050608083015184820360a086015261252a8282612419565b91505060a083015161253f60c0860182612378565b5060c08301516125536101008601826127b8565b5060e083015161256761020086018261232a565b5061010083015161257c61022086018261232a565b509392505050565b80516080830190612595848261232a565b5060208201516123726020850182805160608301906125b4848261232a565b5060208201516125c7602085018261232a565b50604082015161237260408501826127dd565b805160009060808401906125ee8582612389565b506020830151848203606086015261167082826122ca565b805160208084526000919084019061167082826122ca565b805160a083019061262f848261232a565b5060208201516126426020850182612378565b5060408201516123726060850182612378565b80516000906101c084019061266a858261232a565b50602083015161267d60208601826122bb565b506040830151612690604086018261232a565b5060608301516126a3606086018261233c565b5060808301516126b6608086018261261e565b5060a08301516126ca6101208601826123d1565b5060c08301518482036101a086015261167082826125da565b80516000906102608401906126f8858261232a565b50602083015161270b602086018261232a565b50604083015161271e60408601826123ad565b50606083015161273160c086018261232a565b50608083015184820360e08601526127498282612655565b91505060a08301518482036101008601526127648282612655565b91505060c083015161277a6101208601826123d1565b5060e083015161278e6101a0860182612584565b506101008301516127a361022086018261232a565b5061012083015161257c61024086018261232a565b80516101008301906127ca8482612584565b5060208201516123726080850182612584565b6122c481612b06565b602081016115de82846122bb565b6040810161280282856122bb565b61153d60208301846122bb565b60c0810161281d82896122bb565b61282a60208301886122bb565b612837604083018761232a565b61284460608301866122bb565b612851608083018561232a565b61285e60a0830184612345565b979650505050505050565b60a0810161287782886122bb565b612884602083018761232a565b61289160408301866122bb565b61289e606083018561232a565b6128ab608083018461232a565b9695505050505050565b606081016128c382866122bb565b6128d0602083018561232a565b61217d6040830184612345565b602081016115de8284612321565b602081016115de828461232a565b60808101612907828761232a565b612914602083018661232a565b61292160408301856122bb565b61167060608301846122bb565b602081016115de8284612333565b6040810161294a8285612333565b61153d6020830184612333565b602080825281016115db81846124bd565b6040808252810161297981856124bd565b905061153d60208301846122bb565b6080808252810161299981876124bd565b90506129a8602083018661233c565b81810360408301526129ba81856126e3565b9050611670606083018461233c565b60c080825281016129da81896124bd565b90506129e9602083018861233c565b81810360408301526129fb81876126e3565b9050612a0a606083018661233c565b612a17608083018561233c565b61285e60a083018461232a565b60608082528101612a3581856124bd565b905061153d602083018461234e565b602080825281016115db81846126e3565b6040808252810161297981856126e3565b60608082528101612a3581856126e3565b60408101612a85828561232a565b61153d602083018461232a565b6040518181016001604060020a0381118282101715612ab057600080fd5b604052919050565b60006001604060020a03821115612ace57600080fd5b5060209081020190565b60200190565b5190565b600160a060020a031690565b151590565b90565b600060028210612b0257fe5b5090565b60ff1690565b60006115de82612ae2565b600060028210612b0257600080fd5b60006115de82612af6565b60006115de82612af35600a265627a7a72305820db11ef23fd8c5e09eb37e3257d4f3e8cb83c04122d3b7421185e9ea419567b456c6578706572696d656e74616cf50037",
  "source": "/*\n * Hubii Nahmii\n *\n * Compliant with the Hubii Nahmii specification v0.12.\n *\n * Copyright (C) 2017-2018 Hubii AS\n */\n\npragma solidity ^0.4.25;\npragma experimental ABIEncoderV2;\n\nimport {Ownable} from \"./Ownable.sol\";\nimport {FraudChallengable} from \"./FraudChallengable.sol\";\nimport {ConfigurableOperational} from \"./ConfigurableOperational.sol\";\nimport {ValidatableV2} from \"./ValidatableV2.sol\";\nimport {SecurityBondable} from \"./SecurityBondable.sol\";\nimport {WalletLockable} from \"./WalletLockable.sol\";\nimport {BalanceTrackable} from \"./BalanceTrackable.sol\";\nimport {PaymentTypesLib} from \"./PaymentTypesLib.sol\";\nimport {TradeTypesLib} from \"./TradeTypesLib.sol\";\nimport {SafeMathIntLib} from \"./SafeMathIntLib.sol\";\nimport {MonetaryTypesLib} from \"./MonetaryTypesLib.sol\";\nimport {BalanceTracker} from \"./BalanceTracker.sol\";\nimport {BalanceTrackerLib} from \"./BalanceTrackerLib.sol\";\n\n/**\n * @title FraudChallengeByTradeSucceedingPayment\n * @notice Where driips are challenged wrt fraud by mismatch in trade succeeding payment\n */\ncontract FraudChallengeByTradeSucceedingPayment is Ownable, FraudChallengable, ConfigurableOperational, ValidatableV2,\nSecurityBondable, WalletLockable, BalanceTrackable {\n    using SafeMathIntLib for int256;\n    using BalanceTrackerLib for BalanceTracker;\n\n    //\n    // Events\n    // -----------------------------------------------------------------------------------------------------------------\n    event ChallengeByTradeSucceedingPaymentEvent(bytes32 paymentHash, bytes32 tradeHash,\n        address challenger, address lockedWallet);\n\n    //\n    // Constructor\n    // -----------------------------------------------------------------------------------------------------------------\n    constructor(address deployer) Ownable(deployer) public {\n    }\n\n    //\n    // Functions\n    // -----------------------------------------------------------------------------------------------------------------\n    /// @notice Submit payment and subsequent trade candidates in continuous Fraud Challenge (FC)\n    /// to be tested for succession differences\n    /// @param payment Reference payment\n    /// @param trade Fraudulent trade candidate\n    /// @param wallet The address of the concerned wallet\n    /// @param currencyCt The address of the concerned currency contract (address(0) == ETH)\n    /// @param currencyId The ID of the concerned currency (0 for ETH and ERC20)\n    function challenge(\n        PaymentTypesLib.Payment payment,\n        TradeTypesLib.Trade trade,\n        address wallet,\n        address currencyCt,\n        uint256 currencyId\n    )\n    public\n    onlyOperationalModeNormal\n    onlySealedPayment(payment)\n    onlySealedTrade(trade)\n    {\n        require(validator.isPaymentParty(payment, wallet));\n        require(validator.isTradeParty(trade, wallet));\n\n        require(validator.isPaymentCurrency(payment, MonetaryTypesLib.Currency(currencyCt, currencyId)));\n        require(validator.isTradeCurrency(trade, MonetaryTypesLib.Currency(currencyCt, currencyId)));\n\n        (\n        PaymentTypesLib.PaymentPartyRole paymentPartyRole,\n        TradeTypesLib.TradePartyRole tradePartyRole,\n        TradeTypesLib.CurrencyRole tradeCurrencyRole,\n        int256 deltaActiveBalance\n        )\n        = _rolesAndDeltaActiveBalance(payment, trade, wallet, MonetaryTypesLib.Currency(currencyCt, currencyId));\n\n        require(validator.isSuccessivePaymentTradePartyNonces(payment, paymentPartyRole, trade, tradePartyRole));\n\n        // Require existence of fraud signal\n        require(!(\n        validator.isGenuineSuccessivePaymentTradeBalances(\n            payment, paymentPartyRole, trade, tradePartyRole, tradeCurrencyRole, deltaActiveBalance\n        ) &&\n        validator.isGenuineSuccessivePaymentTradeTotalFees(payment, paymentPartyRole, trade, tradePartyRole)\n        ));\n\n        // Toggle operational mode exit\n        configuration.setOperationalModeExit();\n\n        // Tag payment (hash) as fraudulent\n        fraudChallenge.addFraudulentTradeHash(trade.seal.hash);\n\n        // Reward stake fraction\n        securityBond.rewardFractional(msg.sender, configuration.fraudStakeFraction(), 0);\n\n        // Lock amount of size equivalent to trade amount of currency of wallet\n        walletLocker.lockFungibleByProxy(\n            wallet, msg.sender,\n            _tradeLockAmount(trade, tradePartyRole, tradeCurrencyRole),\n            currencyCt, currencyId, 0\n        );\n\n        emit ChallengeByTradeSucceedingPaymentEvent(\n            payment.seals.operator.hash, trade.seal.hash, msg.sender, wallet\n        );\n    }\n\n    //\n    // Private functions\n    // -----------------------------------------------------------------------------------------------------------------\n    function _rolesAndDeltaActiveBalance(PaymentTypesLib.Payment payment, TradeTypesLib.Trade trade, address wallet,\n        MonetaryTypesLib.Currency currency)\n    private\n    view\n    returns (\n        PaymentTypesLib.PaymentPartyRole paymentPartyRole, TradeTypesLib.TradePartyRole tradePartyRole,\n        TradeTypesLib.CurrencyRole tradeCurrencyRole, int256 deltaActiveBalance\n    )\n    {\n        paymentPartyRole = _paymentPartyRole(payment, wallet);\n        tradePartyRole = _tradePartyRole(trade, wallet);\n\n        tradeCurrencyRole = _tradeCurrencyRole(trade, currency);\n\n        deltaActiveBalance = balanceTracker.fungibleActiveDeltaBalanceAmountByBlockNumbers(\n            wallet, currency, payment.blockNumber, trade.blockNumber\n        );\n    }\n\n    function _paymentPartyRole(PaymentTypesLib.Payment payment, address wallet)\n    private\n    view\n    returns (PaymentTypesLib.PaymentPartyRole)\n    {\n        return validator.isPaymentSender(payment, wallet) ?\n        PaymentTypesLib.PaymentPartyRole.Sender :\n        PaymentTypesLib.PaymentPartyRole.Recipient;\n    }\n\n    function _tradePartyRole(TradeTypesLib.Trade trade, address wallet)\n    private\n    view\n    returns (TradeTypesLib.TradePartyRole)\n    {\n        return validator.isTradeBuyer(trade, wallet) ?\n        TradeTypesLib.TradePartyRole.Buyer :\n        TradeTypesLib.TradePartyRole.Seller;\n    }\n\n    function _tradeCurrencyRole(TradeTypesLib.Trade trade, MonetaryTypesLib.Currency currency)\n    private\n    view\n    returns (TradeTypesLib.CurrencyRole)\n    {\n        return validator.isTradeIntendedCurrency(trade, currency) ?\n        TradeTypesLib.CurrencyRole.Intended :\n        TradeTypesLib.CurrencyRole.Conjugate;\n    }\n\n    function _tradeLockAmount(TradeTypesLib.Trade trade, TradeTypesLib.TradePartyRole tradePartyRole,\n        TradeTypesLib.CurrencyRole currencyRole)\n    private\n    pure\n    returns (int256)\n    {\n        if (TradeTypesLib.TradePartyRole.Buyer == tradePartyRole)\n            if (TradeTypesLib.CurrencyRole.Intended == currencyRole)\n                return trade.buyer.balances.intended.current;\n            else // TradeTypesLib.CurrencyRole.Conjugate == currencyRole\n                return trade.buyer.balances.conjugate.current;\n        else // TradeTypesLib.TradePartyRole.Seller == tradePartyRole)\n            if (TradeTypesLib.CurrencyRole.Intended == currencyRole)\n                return trade.seller.balances.intended.current;\n            else // TradeTypesLib.CurrencyRole.Conjugate == currencyRole\n                return trade.seller.balances.conjugate.current;\n    }\n}",
  "sourcePath": "/opt/buildagent/work/855e104608380c36/contracts/FraudChallengeByTradeSucceedingPayment.sol",
  "compiler": {
    "name": "solc",
    "version": "0.4.25+commit.59dbf8f1.Emscripten.clang"
  },
  "schemaVersion": "2.0.2",
  "updatedAt": "2019-04-18T00:23:49.663Z"
}