{
  "contractName": "FraudChallenge",
  "abi": [
    {
      "constant": true,
      "inputs": [
        {
          "name": "service",
          "type": "address"
        }
      ],
      "name": "isRegisteredActiveService",
      "outputs": [
        {
          "name": "",
          "type": "bool"
        }
      ],
      "payable": false,
      "stateMutability": "view",
      "type": "function"
    },
    {
      "constant": false,
      "inputs": [],
      "name": "triggerSelfDestruction",
      "outputs": [],
      "payable": false,
      "stateMutability": "nonpayable",
      "type": "function"
    },
    {
      "constant": false,
      "inputs": [
        {
          "name": "service",
          "type": "address"
        },
        {
          "name": "action",
          "type": "string"
        }
      ],
      "name": "enableServiceAction",
      "outputs": [],
      "payable": false,
      "stateMutability": "nonpayable",
      "type": "function"
    },
    {
      "constant": true,
      "inputs": [
        {
          "name": "service",
          "type": "address"
        }
      ],
      "name": "isRegisteredService",
      "outputs": [
        {
          "name": "",
          "type": "bool"
        }
      ],
      "payable": false,
      "stateMutability": "view",
      "type": "function"
    },
    {
      "constant": true,
      "inputs": [],
      "name": "selfDestructionDisabled",
      "outputs": [
        {
          "name": "",
          "type": "bool"
        }
      ],
      "payable": false,
      "stateMutability": "view",
      "type": "function"
    },
    {
      "constant": false,
      "inputs": [
        {
          "name": "service",
          "type": "address"
        },
        {
          "name": "action",
          "type": "string"
        }
      ],
      "name": "disableServiceAction",
      "outputs": [],
      "payable": false,
      "stateMutability": "nonpayable",
      "type": "function"
    },
    {
      "constant": true,
      "inputs": [],
      "name": "serviceActivationTimeout",
      "outputs": [
        {
          "name": "",
          "type": "uint256"
        }
      ],
      "payable": false,
      "stateMutability": "view",
      "type": "function"
    },
    {
      "constant": true,
      "inputs": [],
      "name": "destructor",
      "outputs": [
        {
          "name": "",
          "type": "address"
        }
      ],
      "payable": false,
      "stateMutability": "view",
      "type": "function"
    },
    {
      "constant": false,
      "inputs": [
        {
          "name": "service",
          "type": "address"
        }
      ],
      "name": "deregisterService",
      "outputs": [],
      "payable": false,
      "stateMutability": "nonpayable",
      "type": "function"
    },
    {
      "constant": true,
      "inputs": [],
      "name": "operator",
      "outputs": [
        {
          "name": "",
          "type": "address"
        }
      ],
      "payable": false,
      "stateMutability": "view",
      "type": "function"
    },
    {
      "constant": true,
      "inputs": [
        {
          "name": "service",
          "type": "address"
        },
        {
          "name": "action",
          "type": "string"
        }
      ],
      "name": "isEnabledServiceAction",
      "outputs": [
        {
          "name": "",
          "type": "bool"
        }
      ],
      "payable": false,
      "stateMutability": "view",
      "type": "function"
    },
    {
      "constant": false,
      "inputs": [],
      "name": "disableSelfDestruction",
      "outputs": [],
      "payable": false,
      "stateMutability": "nonpayable",
      "type": "function"
    },
    {
      "constant": true,
      "inputs": [],
      "name": "ADD_FRAUDULENT_TRADE_ACTION",
      "outputs": [
        {
          "name": "",
          "type": "string"
        }
      ],
      "payable": false,
      "stateMutability": "view",
      "type": "function"
    },
    {
      "constant": false,
      "inputs": [
        {
          "name": "timeoutInSeconds",
          "type": "uint256"
        }
      ],
      "name": "setServiceActivationTimeout",
      "outputs": [],
      "payable": false,
      "stateMutability": "nonpayable",
      "type": "function"
    },
    {
      "constant": true,
      "inputs": [
        {
          "name": "",
          "type": "bytes32"
        }
      ],
      "name": "fraudulentByTradeHash",
      "outputs": [
        {
          "name": "",
          "type": "bool"
        }
      ],
      "payable": false,
      "stateMutability": "view",
      "type": "function"
    },
    {
      "constant": false,
      "inputs": [
        {
          "name": "service",
          "type": "address"
        }
      ],
      "name": "registerServiceDeferred",
      "outputs": [],
      "payable": false,
      "stateMutability": "nonpayable",
      "type": "function"
    },
    {
      "constant": true,
      "inputs": [],
      "name": "ADD_SEIZED_WALLET_ACTION",
      "outputs": [
        {
          "name": "",
          "type": "string"
        }
      ],
      "payable": false,
      "stateMutability": "view",
      "type": "function"
    },
    {
      "constant": false,
      "inputs": [
        {
          "name": "newDeployer",
          "type": "address"
        }
      ],
      "name": "setDeployer",
      "outputs": [],
      "payable": false,
      "stateMutability": "nonpayable",
      "type": "function"
    },
    {
      "constant": true,
      "inputs": [
        {
          "name": "",
          "type": "bytes32"
        }
      ],
      "name": "fraudulentByPaymentHash",
      "outputs": [
        {
          "name": "",
          "type": "bool"
        }
      ],
      "payable": false,
      "stateMutability": "view",
      "type": "function"
    },
    {
      "constant": true,
      "inputs": [
        {
          "name": "",
          "type": "uint256"
        }
      ],
      "name": "fraudulentOrderHashes",
      "outputs": [
        {
          "name": "",
          "type": "bytes32"
        }
      ],
      "payable": false,
      "stateMutability": "view",
      "type": "function"
    },
    {
      "constant": false,
      "inputs": [
        {
          "name": "newOperator",
          "type": "address"
        }
      ],
      "name": "setOperator",
      "outputs": [],
      "payable": false,
      "stateMutability": "nonpayable",
      "type": "function"
    },
    {
      "constant": true,
      "inputs": [],
      "name": "deployer",
      "outputs": [
        {
          "name": "",
          "type": "address"
        }
      ],
      "payable": false,
      "stateMutability": "view",
      "type": "function"
    },
    {
      "constant": true,
      "inputs": [
        {
          "name": "",
          "type": "uint256"
        }
      ],
      "name": "fraudulentTradeHashes",
      "outputs": [
        {
          "name": "",
          "type": "bytes32"
        }
      ],
      "payable": false,
      "stateMutability": "view",
      "type": "function"
    },
    {
      "constant": true,
      "inputs": [
        {
          "name": "",
          "type": "uint256"
        }
      ],
      "name": "doubleSpenderWallets",
      "outputs": [
        {
          "name": "",
          "type": "address"
        }
      ],
      "payable": false,
      "stateMutability": "view",
      "type": "function"
    },
    {
      "constant": true,
      "inputs": [
        {
          "name": "",
          "type": "uint256"
        }
      ],
      "name": "fraudulentPaymentHashes",
      "outputs": [
        {
          "name": "",
          "type": "bytes32"
        }
      ],
      "payable": false,
      "stateMutability": "view",
      "type": "function"
    },
    {
      "constant": true,
      "inputs": [],
      "name": "ADD_DOUBLE_SPENDER_WALLET_ACTION",
      "outputs": [
        {
          "name": "",
          "type": "string"
        }
      ],
      "payable": false,
      "stateMutability": "view",
      "type": "function"
    },
    {
      "constant": true,
      "inputs": [],
      "name": "ADD_FRAUDULENT_ORDER_ACTION",
      "outputs": [
        {
          "name": "",
          "type": "string"
        }
      ],
      "payable": false,
      "stateMutability": "view",
      "type": "function"
    },
    {
      "constant": true,
      "inputs": [
        {
          "name": "",
          "type": "address"
        }
      ],
      "name": "doubleSpenderByWallet",
      "outputs": [
        {
          "name": "",
          "type": "bool"
        }
      ],
      "payable": false,
      "stateMutability": "view",
      "type": "function"
    },
    {
      "constant": true,
      "inputs": [],
      "name": "ADD_FRAUDULENT_PAYMENT_ACTION",
      "outputs": [
        {
          "name": "",
          "type": "string"
        }
      ],
      "payable": false,
      "stateMutability": "view",
      "type": "function"
    },
    {
      "constant": true,
      "inputs": [
        {
          "name": "",
          "type": "bytes32"
        }
      ],
      "name": "fraudulentByOrderHash",
      "outputs": [
        {
          "name": "",
          "type": "bool"
        }
      ],
      "payable": false,
      "stateMutability": "view",
      "type": "function"
    },
    {
      "constant": false,
      "inputs": [
        {
          "name": "service",
          "type": "address"
        }
      ],
      "name": "registerService",
      "outputs": [],
      "payable": false,
      "stateMutability": "nonpayable",
      "type": "function"
    },
    {
      "inputs": [
        {
          "name": "deployer",
          "type": "address"
        }
      ],
      "payable": false,
      "stateMutability": "nonpayable",
      "type": "constructor"
    },
    {
      "anonymous": false,
      "inputs": [
        {
          "indexed": false,
          "name": "wallet",
          "type": "address"
        }
      ],
      "name": "AddDoubleSpenderWalletEvent",
      "type": "event"
    },
    {
      "anonymous": false,
      "inputs": [
        {
          "indexed": false,
          "name": "hash",
          "type": "bytes32"
        }
      ],
      "name": "AddFraudulentOrderHashEvent",
      "type": "event"
    },
    {
      "anonymous": false,
      "inputs": [
        {
          "indexed": false,
          "name": "hash",
          "type": "bytes32"
        }
      ],
      "name": "AddFraudulentTradeHashEvent",
      "type": "event"
    },
    {
      "anonymous": false,
      "inputs": [
        {
          "indexed": false,
          "name": "hash",
          "type": "bytes32"
        }
      ],
      "name": "AddFraudulentPaymentHashEvent",
      "type": "event"
    },
    {
      "anonymous": false,
      "inputs": [
        {
          "indexed": false,
          "name": "timeoutInSeconds",
          "type": "uint256"
        }
      ],
      "name": "ServiceActivationTimeoutEvent",
      "type": "event"
    },
    {
      "anonymous": false,
      "inputs": [
        {
          "indexed": false,
          "name": "service",
          "type": "address"
        }
      ],
      "name": "RegisterServiceEvent",
      "type": "event"
    },
    {
      "anonymous": false,
      "inputs": [
        {
          "indexed": false,
          "name": "service",
          "type": "address"
        },
        {
          "indexed": false,
          "name": "timeout",
          "type": "uint256"
        }
      ],
      "name": "RegisterServiceDeferredEvent",
      "type": "event"
    },
    {
      "anonymous": false,
      "inputs": [
        {
          "indexed": false,
          "name": "service",
          "type": "address"
        }
      ],
      "name": "DeregisterServiceEvent",
      "type": "event"
    },
    {
      "anonymous": false,
      "inputs": [
        {
          "indexed": false,
          "name": "service",
          "type": "address"
        },
        {
          "indexed": false,
          "name": "action",
          "type": "string"
        }
      ],
      "name": "EnableServiceActionEvent",
      "type": "event"
    },
    {
      "anonymous": false,
      "inputs": [
        {
          "indexed": false,
          "name": "service",
          "type": "address"
        },
        {
          "indexed": false,
          "name": "action",
          "type": "string"
        }
      ],
      "name": "DisableServiceActionEvent",
      "type": "event"
    },
    {
      "anonymous": false,
      "inputs": [
        {
          "indexed": false,
          "name": "oldDeployer",
          "type": "address"
        },
        {
          "indexed": false,
          "name": "newDeployer",
          "type": "address"
        }
      ],
      "name": "SetDeployerEvent",
      "type": "event"
    },
    {
      "anonymous": false,
      "inputs": [
        {
          "indexed": false,
          "name": "oldOperator",
          "type": "address"
        },
        {
          "indexed": false,
          "name": "newOperator",
          "type": "address"
        }
      ],
      "name": "SetOperatorEvent",
      "type": "event"
    },
    {
      "anonymous": false,
      "inputs": [
        {
          "indexed": false,
          "name": "wallet",
          "type": "address"
        }
      ],
      "name": "SelfDestructionDisabledEvent",
      "type": "event"
    },
    {
      "anonymous": false,
      "inputs": [
        {
          "indexed": false,
          "name": "wallet",
          "type": "address"
        }
      ],
      "name": "TriggerSelfDestructionEvent",
      "type": "event"
    },
    {
      "constant": true,
      "inputs": [
        {
          "name": "wallet",
          "type": "address"
        }
      ],
      "name": "isDoubleSpenderWallet",
      "outputs": [
        {
          "name": "",
          "type": "bool"
        }
      ],
      "payable": false,
      "stateMutability": "view",
      "type": "function"
    },
    {
      "constant": true,
      "inputs": [],
      "name": "doubleSpenderWalletsCount",
      "outputs": [
        {
          "name": "",
          "type": "uint256"
        }
      ],
      "payable": false,
      "stateMutability": "view",
      "type": "function"
    },
    {
      "constant": false,
      "inputs": [
        {
          "name": "wallet",
          "type": "address"
        }
      ],
      "name": "addDoubleSpenderWallet",
      "outputs": [],
      "payable": false,
      "stateMutability": "nonpayable",
      "type": "function"
    },
    {
      "constant": true,
      "inputs": [],
      "name": "fraudulentOrderHashesCount",
      "outputs": [
        {
          "name": "",
          "type": "uint256"
        }
      ],
      "payable": false,
      "stateMutability": "view",
      "type": "function"
    },
    {
      "constant": true,
      "inputs": [
        {
          "name": "hash",
          "type": "bytes32"
        }
      ],
      "name": "isFraudulentOrderHash",
      "outputs": [
        {
          "name": "",
          "type": "bool"
        }
      ],
      "payable": false,
      "stateMutability": "view",
      "type": "function"
    },
    {
      "constant": false,
      "inputs": [
        {
          "name": "hash",
          "type": "bytes32"
        }
      ],
      "name": "addFraudulentOrderHash",
      "outputs": [],
      "payable": false,
      "stateMutability": "nonpayable",
      "type": "function"
    },
    {
      "constant": true,
      "inputs": [],
      "name": "fraudulentTradeHashesCount",
      "outputs": [
        {
          "name": "",
          "type": "uint256"
        }
      ],
      "payable": false,
      "stateMutability": "view",
      "type": "function"
    },
    {
      "constant": true,
      "inputs": [
        {
          "name": "hash",
          "type": "bytes32"
        }
      ],
      "name": "isFraudulentTradeHash",
      "outputs": [
        {
          "name": "",
          "type": "bool"
        }
      ],
      "payable": false,
      "stateMutability": "view",
      "type": "function"
    },
    {
      "constant": false,
      "inputs": [
        {
          "name": "hash",
          "type": "bytes32"
        }
      ],
      "name": "addFraudulentTradeHash",
      "outputs": [],
      "payable": false,
      "stateMutability": "nonpayable",
      "type": "function"
    },
    {
      "constant": true,
      "inputs": [],
      "name": "fraudulentPaymentHashesCount",
      "outputs": [
        {
          "name": "",
          "type": "uint256"
        }
      ],
      "payable": false,
      "stateMutability": "view",
      "type": "function"
    },
    {
      "constant": true,
      "inputs": [
        {
          "name": "hash",
          "type": "bytes32"
        }
      ],
      "name": "isFraudulentPaymentHash",
      "outputs": [
        {
          "name": "",
          "type": "bool"
        }
      ],
      "payable": false,
      "stateMutability": "view",
      "type": "function"
    },
    {
      "constant": false,
      "inputs": [
        {
          "name": "hash",
          "type": "bytes32"
        }
      ],
      "name": "addFraudulentPaymentHash",
      "outputs": [],
      "payable": false,
      "stateMutability": "nonpayable",
      "type": "function"
    }
  ],
  "bytecode": "0x60806040523480156200001157600080fd5b5060405162001697380380620016978339810160408190526200003491620000b3565b80806001600160a01b0381166200004a57600080fd5b6001600160a01b0381163014156200006157600080fd5b5060008054610100600160a81b0319166101006001600160a01b0393909316928302179055600180546001600160a01b03191690911790555062000108565b8051620000ad81620000ee565b92915050565b600060208284031215620000c657600080fd5b6000620000d48484620000a0565b949350505050565b60006001600160a01b038216620000ad565b620000f981620000dc565b81146200010557600080fd5b50565b61157f80620001186000396000f3fe608060405234801561001057600080fd5b50600436106101f95760003560e01c80631456b8f4146101fe57806317ba3f901461021c5780632738a1121461023c5780632b5672e3146102465780632b91e0a9146102595780632f013a001461026c5780633b58c501146102745780633b7bea6c146102875780634476d23b1461028f5780634a63a23a146102a457806350b08c02146102b7578063536739e1146102ca578063570ca735146102dd5780635df1b0a3146102e55780636e4a0c0f146102f857806370327ea11461030057806375d8655b146103085780637ae3ee1c1461031b5780637c1aee3c146103305780637e15dd5c146103385780638080f0081461034b578063863d36081461035e57806388cb0a49146103715780638e8cef12146103845780639243c9db146103975780639537aa1a146103aa57806396214735146103b25780639630db61146103c55780639f641ea7146103d8578063a59129a2146103eb578063b3ab15fb146103fe578063b3ec529c14610411578063d5f3948814610419578063d9af20de14610421578063d9fa4b8d14610434578063e1f5828b14610447578063e592f0f91461045a578063e64e353f1461046d578063ec696d3214610475578063f12aaaf51461047d578063f3aefa8a14610490578063f4bb924d14610498578063fdd9ec7d146104ab575b600080fd5b6102066104be565b6040516102139190611428565b60405180910390f35b61022f61022a366004611277565b6104c4565b604051610213919061141a565b6102446104fc565b005b610244610254366004611295565b610562565b61022f610267366004611277565b61068a565b61022f6106a8565b610244610282366004611295565b6106b1565b61020661078b565b610297610791565b60405161021391906113a8565b6102446102b2366004611277565b6107a5565b6102446102c5366004611277565b6108ab565b6102446102d83660046112e6565b61095b565b610297610a2f565b61022f6102f3366004611295565b610a3e565b610206610a8e565b610244610a94565b6102446103163660046112e6565b610af7565b610323610bcb565b6040516102139190611436565b610206610bfb565b6102446103463660046112e6565b610c01565b61022f6103593660046112e6565b610c52565b61022f61036c3660046112e6565b610c67565b61024461037f3660046112e6565b610c7c565b610244610392366004611277565b610d52565b61022f6103a5366004611277565b610dcc565b610323610dea565b6102446103c0366004611277565b610e17565b61022f6103d33660046112e6565b610ed6565b6102066103e63660046112e6565b610eeb565b61022f6103f93660046112e6565b610f09565b61024461040c366004611277565b610f1e565b610206610fc1565b610297610fc7565b61020661042f3660046112e6565b610fdb565b6102976104423660046112e6565b610fe8565b61022f6104553660046112e6565b61100f565b6102066104683660046112e6565b611024565b610323611031565b610323611066565b61022f61048b366004611277565b611096565b6103236110ab565b61022f6104a63660046112e6565b6110dd565b6102446104b9366004611277565b6110f2565b60065490565b60006104cf8261068a565b80156104f657506001600160a01b0382166000908152600260205260409020600101544210155b92915050565b33610505610791565b6001600160a01b03161461051857600080fd5b60005460ff161561052857600080fd5b7f787a5d936e74f4b564b9153575886059829c78cd9927b1be5e0d976b317ef7363360405161055791906113b6565b60405180910390a133ff5b61056a611167565b61057357600080fd5b816001600160a01b03811661058757600080fd5b6001600160a01b03811630141561059d57600080fd5b6001600160a01b03831660009081526002602052604090205460ff166105c257600080fd5b60006105cd8361117d565b6001600160a01b0385166000908152600260208181526040808420858552909201905290205490915060ff161561060357600080fd5b6001600160a01b03841660009081526002602081815260408084208585528084018352818520805460ff19166001908117909155938352600301805493840181558452922001829055517fec1b982d69bfc1a6fd8becf191d9a633486c822d3bdedd52303ca81fa63575019061067c90869086906113df565b60405180910390a150505050565b6001600160a01b031660009081526002602052604090205460ff1690565b60005460ff1681565b6106b9611167565b6106c257600080fd5b816001600160a01b0381166106d657600080fd5b6001600160a01b0381163014156106ec57600080fd5b60006106f78361117d565b6001600160a01b0385166000908152600260208181526040808420858552909201905290205490915060ff1661072c57600080fd5b6001600160a01b0384166000908152600260208181526040808420858552909201905290819020805460ff19169055517f92f4af6130f47c92f3899e06611c8c6ef191fb81207ad2675d134af619d2fe7d9061067c90869086906113df565b60035481565b60005461010090046001600160a01b031690565b6040518060400160405280601981526020017818591917d91bdd589b1957dcdc195b99195c97ddd85b1b195d603a1b8152506107e13382610a3e565b6107ea57600080fd5b6001600160a01b03821660009081526005602052604090205460ff166108a7576004805460018082019092557f8a35acfbc15ff81a39ae7d344fd709f28e8600b4aa8c65c6b64bfe7fe36bd19b0180546001600160a01b0319166001600160a01b03851690811790915560009081526005602052604090819020805460ff1916909217909155517f7bdc3027f69aa28210c338755735fa13356565e45e57b4619f5daf6e8468651f9061089e9084906113a8565b60405180910390a15b5050565b6108b3611167565b6108bc57600080fd5b806001600160a01b0381166108d057600080fd5b6001600160a01b0381163014156108e657600080fd5b6001600160a01b03821660009081526002602052604090205460ff1661090b57600080fd5b6001600160a01b03821660009081526002602052604090819020805460ff19169055517f777645c5437dfbf962f57a281ead25f3d513f2f8e938685bbfc1738e81c9880e9061089e9084906113a8565b6040518060400160405280601481526020017330b2322fb33930bab23ab632b73a2fb7b93232b960611b8152506109923382610a3e565b61099b57600080fd5b60008281526007602052604090205460ff166108a757600082815260076020526040808220805460ff191660019081179091556006805491820181559092527ff652222313e28459528d920b65115c16c04f3efc82aaedc97be59f3f377c0d3f909101839055517f58f26ba178664be60e092a2f3678dd4201d8067c10e39f0c21105829ff8921e09061089e908490611428565b6001546001600160a01b031681565b600080610a4a8361117d565b9050610a55846104c4565b8015610a8657506001600160a01b0384166000908152600260208181526040808420858552909201905290205460ff165b949350505050565b600a5490565b33610a9d610791565b6001600160a01b031614610ab057600080fd5b6000805460ff191660011790556040517fd5a2a04a775c741c2ca0dc46ea7ce4835190e1aaf1ca018def0e82568ec3361690610aed9033906113b6565b60405180910390a1565b604051806040016040528060148152602001736164645f6672617564756c656e745f747261646560601b815250610b2e3382610a3e565b610b3757600080fd5b60008281526009602052604090205460ff166108a757600082815260096020526040808220805460ff191660019081179091556008805491820181559092527ff3f7a9fe364faab93b216da50a3214154f22a0a2b415b23a84c8169e8b636ee3909101839055517f5bc657148f2e68c1efcbaaf372c06ca64e451c73e50a987542e0e156037887579061089e908490611428565b604051806040016040528060148152602001736164645f6672617564756c656e745f747261646560601b81525081565b60045490565b610c09611167565b610c1257600080fd5b60038190556040517f4f1d324a1cbffc352fb64f1d73d95e4b200d92f99ef39bf2d7f5b41f946909d690610c47908390611428565b60405180910390a150565b60096020526000908152604090205460ff1681565b6000908152600b602052604090205460ff1690565b6040518060400160405280601681526020017518591917d99c985d591d5b195b9d17dc185e5b595b9d60521b815250610cb53382610a3e565b610cbe57600080fd5b6000828152600b602052604090205460ff166108a7576000828152600b6020526040808220805460ff19166001908117909155600a805491820181559092527fc65a7bb8d6351c1cf70c95a316cc6a92839c986682d98bc35f958f4883f9d2a8909101839055517f33be9e400d3510c9b2034ebe5a128e2f0d3333b7813053c8aa7f4901a4861a859061089e908490611428565b610d5a611167565b610d6357600080fd5b806001600160a01b038116610d7757600080fd5b6001600160a01b038116301415610d8d57600080fd5b610d99826003546111ad565b7f7f3a8349917003ed377f6e9ae1608b92edd893903f8983bd274b1f8373dd3b118260035460405161089e9291906113ff565b6001600160a01b031660009081526005602052604090205460ff1690565b6040518060400160405280601181526020017018591917dcd95a5e995917ddd85b1b195d607a1b81525081565b610e1f611167565b610e2857600080fd5b806001600160a01b038116610e3c57600080fd5b6001600160a01b038116301415610e5257600080fd5b6000546001600160a01b0383811661010090920416146108a757600080546001600160a01b03848116610100908102610100600160a81b03198416179093556040519290910416907f977e5fa58e458501775e0008d275006294c5249e3c08d1d0e3a9f3acad14f6e490610ec990839086906113c4565b60405180910390a1505050565b600b6020526000908152604090205460ff1681565b60068181548110610ef857fe5b600091825260209091200154905081565b60009081526009602052604090205460ff1690565b610f266111fc565b610f2f57600080fd5b806001600160a01b038116610f4357600080fd5b6001600160a01b038116301415610f5957600080fd5b6001546001600160a01b038381169116146108a757600180546001600160a01b038481166001600160a01b03198316179092556040519116907f9f611b789425d0d5b90b920f1b2852907dd865c80074a30b1629aaa041d1812c90610ec990839086906113c4565b60085490565b60005461010090046001600160a01b031681565b60088181548110610ef857fe5b60048181548110610ff557fe5b6000918252602090912001546001600160a01b0316905081565b60009081526007602052604090205460ff1690565b600a8181548110610ef857fe5b6040518060400160405280601981526020017818591917d91bdd589b1957dcdc195b99195c97ddd85b1b195d603a1b81525081565b6040518060400160405280601481526020017330b2322fb33930bab23ab632b73a2fb7b93232b960611b81525081565b60056020526000908152604090205460ff1681565b6040518060400160405280601681526020017518591917d99c985d591d5b195b9d17dc185e5b595b9d60521b81525081565b60076020526000908152604090205460ff1681565b6110fa611167565b61110357600080fd5b806001600160a01b03811661111757600080fd5b6001600160a01b03811630141561112d57600080fd5b6111388260006111ad565b7fb619d545cb511bd5f02907a1eac4f4cb8dace7b1846852fb0bf5e553937481c18260405161089e91906113a8565b60005461010090046001600160a01b0316331490565b6000816040516020016111909190611395565b604051602081830303815290604052805190602001209050919050565b6001600160a01b03821660009081526002602052604090205460ff166108a7576001600160a01b0382166000908152600260205260409020805460ff1916600190811782554283019101555050565b6001546001600160a01b0316331490565b80356104f68161151c565b80356104f681611533565b600082601f83011261123457600080fd5b81356112476112428261146d565b611447565b9150808252602083016020830185838301111561126357600080fd5b61126e8382846114d6565b50505092915050565b60006020828403121561128957600080fd5b6000610a86848461120d565b600080604083850312156112a857600080fd5b60006112b4858561120d565b92505060208301356001600160401b038111156112d057600080fd5b6112dc85828601611223565b9150509250929050565b6000602082840312156112f857600080fd5b6000610a868484611218565b61130d816114c5565b82525050565b61130d816114a6565b61130d816114b1565b61130d816114b6565b600061133982611494565b6113438185611498565b93506113538185602086016114e2565b61135c81611512565b9093019392505050565b600061137182611494565b61137b81856114a1565b935061138b8185602086016114e2565b9290920192915050565b60006113a18284611366565b9392505050565b602081016104f68284611313565b602081016104f68284611304565b604081016113d28285611313565b6113a16020830184611313565b604081016113ed8285611313565b8181036020830152610a86818461132e565b6040810161140d8285611313565b6113a16020830184611325565b602081016104f6828461131c565b602081016104f68284611325565b602080825281016113a1818461132e565b6040518181016001600160401b038111828210171561146557600080fd5b604052919050565b60006001600160401b0382111561148357600080fd5b506020601f91909101601f19160190565b5190565b90815260200190565b919050565b60006104f6826114b9565b151590565b90565b6001600160a01b031690565b60006104f68260006104f6826114a6565b82818337506000910152565b60005b838110156114fd5781810151838201526020016114e5565b8381111561150c576000848401525b50505050565b601f01601f191690565b611525816114a6565b811461153057600080fd5b50565b611525816114b656fea365627a7a723058205dbbbebd485bd23f9a3b9a4f70fc5383d88449c61c1e1d03ff070800c3f4ac976c6578706572696d656e74616cf564736f6c63430005090040",
  "source": "/*\n * Hubii Nahmii\n *\n * Compliant with the Hubii Nahmii specification v0.12.\n *\n * Copyright (C) 2017-2018 Hubii AS\n */\n\npragma solidity >=0.4.25 <0.6.0;\npragma experimental ABIEncoderV2;\n\nimport {Ownable} from \"./Ownable.sol\";\nimport {Servable} from \"./Servable.sol\";\n\n/**\n * @title FraudChallenge\n * @notice Where fraud challenge results are found\n */\ncontract FraudChallenge is Ownable, Servable {\n    //\n    // Constants\n    // -----------------------------------------------------------------------------------------------------------------\n    string constant public ADD_SEIZED_WALLET_ACTION = \"add_seized_wallet\";\n    string constant public ADD_DOUBLE_SPENDER_WALLET_ACTION = \"add_double_spender_wallet\";\n    string constant public ADD_FRAUDULENT_ORDER_ACTION = \"add_fraudulent_order\";\n    string constant public ADD_FRAUDULENT_TRADE_ACTION = \"add_fraudulent_trade\";\n    string constant public ADD_FRAUDULENT_PAYMENT_ACTION = \"add_fraudulent_payment\";\n\n    //\n    // Variables\n    // -----------------------------------------------------------------------------------------------------------------\n    address[] public doubleSpenderWallets;\n    mapping(address => bool) public doubleSpenderByWallet;\n\n    bytes32[] public fraudulentOrderHashes;\n    mapping(bytes32 => bool) public fraudulentByOrderHash;\n\n    bytes32[] public fraudulentTradeHashes;\n    mapping(bytes32 => bool) public fraudulentByTradeHash;\n\n    bytes32[] public fraudulentPaymentHashes;\n    mapping(bytes32 => bool) public fraudulentByPaymentHash;\n\n    //\n    // Events\n    // -----------------------------------------------------------------------------------------------------------------\n    event AddDoubleSpenderWalletEvent(address wallet);\n    event AddFraudulentOrderHashEvent(bytes32 hash);\n    event AddFraudulentTradeHashEvent(bytes32 hash);\n    event AddFraudulentPaymentHashEvent(bytes32 hash);\n\n    //\n    // Constructor\n    // -----------------------------------------------------------------------------------------------------------------\n    constructor(address deployer) Ownable(deployer) public {\n    }\n\n    //\n    // Functions\n    // -----------------------------------------------------------------------------------------------------------------\n    /// @notice Get the double spender status of given wallet\n    /// @param wallet The wallet address for which to check double spender status\n    /// @return true if wallet is double spender, false otherwise\n    function isDoubleSpenderWallet(address wallet)\n    public\n    view\n    returns (bool)\n    {\n        return doubleSpenderByWallet[wallet];\n    }\n\n    /// @notice Get the number of wallets tagged as double spenders\n    /// @return Number of double spender wallets\n    function doubleSpenderWalletsCount()\n    public\n    view\n    returns (uint256)\n    {\n        return doubleSpenderWallets.length;\n    }\n\n    /// @notice Add given wallets to store of double spender wallets if not already present\n    /// @param wallet The first wallet to add\n    function addDoubleSpenderWallet(address wallet)\n    public\n    onlyEnabledServiceAction(ADD_DOUBLE_SPENDER_WALLET_ACTION) {\n        if (!doubleSpenderByWallet[wallet]) {\n            doubleSpenderWallets.push(wallet);\n            doubleSpenderByWallet[wallet] = true;\n            emit AddDoubleSpenderWalletEvent(wallet);\n        }\n    }\n\n    /// @notice Get the number of fraudulent order hashes\n    function fraudulentOrderHashesCount()\n    public\n    view\n    returns (uint256)\n    {\n        return fraudulentOrderHashes.length;\n    }\n\n    /// @notice Get the state about whether the given hash equals the hash of a fraudulent order\n    /// @param hash The hash to be tested\n    function isFraudulentOrderHash(bytes32 hash)\n    public\n    view returns (bool) {\n        return fraudulentByOrderHash[hash];\n    }\n\n    /// @notice Add given order hash to store of fraudulent order hashes if not already present\n    function addFraudulentOrderHash(bytes32 hash)\n    public\n    onlyEnabledServiceAction(ADD_FRAUDULENT_ORDER_ACTION)\n    {\n        if (!fraudulentByOrderHash[hash]) {\n            fraudulentByOrderHash[hash] = true;\n            fraudulentOrderHashes.push(hash);\n            emit AddFraudulentOrderHashEvent(hash);\n        }\n    }\n\n    /// @notice Get the number of fraudulent trade hashes\n    function fraudulentTradeHashesCount()\n    public\n    view\n    returns (uint256)\n    {\n        return fraudulentTradeHashes.length;\n    }\n\n    /// @notice Get the state about whether the given hash equals the hash of a fraudulent trade\n    /// @param hash The hash to be tested\n    /// @return true if hash is the one of a fraudulent trade, else false\n    function isFraudulentTradeHash(bytes32 hash)\n    public\n    view\n    returns (bool)\n    {\n        return fraudulentByTradeHash[hash];\n    }\n\n    /// @notice Add given trade hash to store of fraudulent trade hashes if not already present\n    function addFraudulentTradeHash(bytes32 hash)\n    public\n    onlyEnabledServiceAction(ADD_FRAUDULENT_TRADE_ACTION)\n    {\n        if (!fraudulentByTradeHash[hash]) {\n            fraudulentByTradeHash[hash] = true;\n            fraudulentTradeHashes.push(hash);\n            emit AddFraudulentTradeHashEvent(hash);\n        }\n    }\n\n    /// @notice Get the number of fraudulent payment hashes\n    function fraudulentPaymentHashesCount()\n    public\n    view\n    returns (uint256)\n    {\n        return fraudulentPaymentHashes.length;\n    }\n\n    /// @notice Get the state about whether the given hash equals the hash of a fraudulent payment\n    /// @param hash The hash to be tested\n    /// @return true if hash is the one of a fraudulent payment, else null\n    function isFraudulentPaymentHash(bytes32 hash)\n    public\n    view\n    returns (bool)\n    {\n        return fraudulentByPaymentHash[hash];\n    }\n\n    /// @notice Add given payment hash to store of fraudulent payment hashes if not already present\n    function addFraudulentPaymentHash(bytes32 hash)\n    public\n    onlyEnabledServiceAction(ADD_FRAUDULENT_PAYMENT_ACTION)\n    {\n        if (!fraudulentByPaymentHash[hash]) {\n            fraudulentByPaymentHash[hash] = true;\n            fraudulentPaymentHashes.push(hash);\n            emit AddFraudulentPaymentHashEvent(hash);\n        }\n    }\n}",
  "sourcePath": "/opt/buildagent/work/855e104608380c36/contracts/FraudChallenge.sol",
  "compiler": {
    "name": "solc",
    "version": "0.5.9+commit.e560f70d.Emscripten.clang"
  },
  "schemaVersion": "2.0.2",
  "updatedAt": "2019-06-15T22:15:56.913Z"
}