{
  "contractName": "MockedCommunityVote",
  "abi": [
    {
      "constant": true,
      "inputs": [],
      "name": "maxNullNonce",
      "outputs": [
        {
          "name": "",
          "type": "uint256"
        }
      ],
      "payable": false,
      "stateMutability": "view",
      "type": "function"
    },
    {
      "constant": true,
      "inputs": [],
      "name": "maxDriipNonce",
      "outputs": [
        {
          "name": "",
          "type": "uint256"
        }
      ],
      "payable": false,
      "stateMutability": "view",
      "type": "function"
    },
    {
      "constant": true,
      "inputs": [],
      "name": "dataAvailable",
      "outputs": [
        {
          "name": "",
          "type": "bool"
        }
      ],
      "payable": false,
      "stateMutability": "view",
      "type": "function"
    },
    {
      "constant": true,
      "inputs": [],
      "name": "doubleSpenderWalletStatsIndex",
      "outputs": [
        {
          "name": "",
          "type": "uint256"
        }
      ],
      "payable": false,
      "stateMutability": "view",
      "type": "function"
    },
    {
      "constant": true,
      "inputs": [
        {
          "name": "",
          "type": "uint256"
        }
      ],
      "name": "doubleSpenderWalletStats",
      "outputs": [
        {
          "name": "",
          "type": "bool"
        }
      ],
      "payable": false,
      "stateMutability": "view",
      "type": "function"
    },
    {
      "inputs": [],
      "payable": false,
      "stateMutability": "nonpayable",
      "type": "constructor"
    },
    {
      "constant": false,
      "inputs": [],
      "name": "_reset",
      "outputs": [],
      "payable": false,
      "stateMutability": "nonpayable",
      "type": "function"
    },
    {
      "constant": false,
      "inputs": [
        {
          "name": "doubleSpender",
          "type": "bool"
        }
      ],
      "name": "addDoubleSpenderWallet",
      "outputs": [
        {
          "name": "",
          "type": "address[3]"
        }
      ],
      "payable": false,
      "stateMutability": "nonpayable",
      "type": "function"
    },
    {
      "constant": false,
      "inputs": [
        {
          "name": "",
          "type": "address"
        }
      ],
      "name": "isDoubleSpenderWallet",
      "outputs": [
        {
          "name": "",
          "type": "bool"
        }
      ],
      "payable": false,
      "stateMutability": "nonpayable",
      "type": "function"
    },
    {
      "constant": false,
      "inputs": [
        {
          "name": "_maxDriipNonce",
          "type": "uint256"
        }
      ],
      "name": "setMaxDriipNonce",
      "outputs": [
        {
          "name": "",
          "type": "uint256"
        }
      ],
      "payable": false,
      "stateMutability": "nonpayable",
      "type": "function"
    },
    {
      "constant": true,
      "inputs": [],
      "name": "getMaxDriipNonce",
      "outputs": [
        {
          "name": "",
          "type": "uint256"
        }
      ],
      "payable": false,
      "stateMutability": "view",
      "type": "function"
    },
    {
      "constant": false,
      "inputs": [
        {
          "name": "_maxNullNonce",
          "type": "uint256"
        }
      ],
      "name": "setMaxNullNonce",
      "outputs": [
        {
          "name": "",
          "type": "uint256"
        }
      ],
      "payable": false,
      "stateMutability": "nonpayable",
      "type": "function"
    },
    {
      "constant": true,
      "inputs": [],
      "name": "getMaxNullNonce",
      "outputs": [
        {
          "name": "",
          "type": "uint256"
        }
      ],
      "payable": false,
      "stateMutability": "view",
      "type": "function"
    },
    {
      "constant": false,
      "inputs": [
        {
          "name": "_dataAvailable",
          "type": "bool"
        }
      ],
      "name": "setDataAvailable",
      "outputs": [
        {
          "name": "",
          "type": "bool"
        }
      ],
      "payable": false,
      "stateMutability": "nonpayable",
      "type": "function"
    },
    {
      "constant": true,
      "inputs": [],
      "name": "isDataAvailable",
      "outputs": [
        {
          "name": "",
          "type": "bool"
        }
      ],
      "payable": false,
      "stateMutability": "view",
      "type": "function"
    }
  ],
  "bytecode": "0x608060405234801561001057600080fd5b50610022640100000000610027810204565b6100ac565b6000600281905560038190556004805460ff1916600117905561004a8180610052565b506000600155565b81548183558181111561008657601f016020900481601f01602090048360005260206000209182019101610086919061008b565b505050565b6100a991905b808211156100a55760008155600101610091565b5090565b90565b61045d806100bb6000396000f3006080604052600436106100b65763ffffffff60e060020a60003504166309ea270981146100bb5780631592f0ab146100e95780631f3440701461010057806348fcb72c14610127578063626623671461013f578063897d36aa146101545780638d2cba1314610169578063901fe047146101bb578063916bd294146101d05780639243c9db146101e5578063994e207614610206578063b5b9c7bf1461021b578063f068468014610230578063f3aa203914610248575b600080fd5b3480156100c757600080fd5b506100d56004351515610260565b604080519115158252519081900360200190f35b3480156100f557600080fd5b506100fe610271565b005b34801561010c57600080fd5b5061011561029c565b60408051918252519081900360200190f35b34801561013357600080fd5b506101156004356102a3565b34801561014b57600080fd5b506101156102ab565b34801561016057600080fd5b506101156102b1565b34801561017557600080fd5b5061018360043515156102b7565b6040518082606080838360005b838110156101a8578181015183820152602001610190565b5050505090500191505060405180910390f35b3480156101c757600080fd5b506100d5610313565b3480156101dc57600080fd5b5061011561031c565b3480156101f157600080fd5b506100d5600160a060020a0360043516610322565b34801561021257600080fd5b506100d5610372565b34801561022757600080fd5b5061011561037b565b34801561023c57600080fd5b50610115600435610381565b34801561025457600080fd5b506100d5600435610389565b6004805460ff191682151517905590565b6000600281905560038190556004805460ff1916600117905561029481806103bb565b506000600155565b6002545b90565b600281905590565b60035481565b60025481565b6102bf6103f4565b60008054600181018255908052602081047f290decd9548b62a8d60345a988386fc84ba6bc95484008f6362f93160ef3e563018054931515601f9092166101000a91820260ff909202199093161790915590565b60045460ff1681565b60015481565b6000805415610369576001805480820190915560008054909190811061034457fe5b90600052602060002090602091828204019190069054906101000a900460ff1661036c565b60005b92915050565b60045460ff1690565b60035490565b600381905590565b600080548290811061039757fe5b9060005260206000209060209182820401919006915054906101000a900460ff1681565b8154818355818111156103ef57601f016020900481601f016020900483600052602060002091820191016103ef9190610413565b505050565b6060604051908101604052806003906020820280388339509192915050565b6102a091905b8082111561042d5760008155600101610419565b50905600a165627a7a723058207ef1fd984c1e4e012b405f64ce11c27e4c9c52376e53ea6180f5ab226e8142c90029",
  "source": "/*\n * Hubii Nahmii\n *\n * Compliant with the Hubii Nahmii specification v0.12.\n *\n * Copyright (C) 2017-2018 Hubii AS\n */\npragma solidity ^0.4.25;\n\n/**\n * @title MockedCommunityVote\n * @notice Mocked implementation of community vote contract\n */\ncontract MockedCommunityVote {\n    //\n    // Variables\n    // -----------------------------------------------------------------------------------------------------------------\n    bool[] public doubleSpenderWalletStats;\n    uint256 public doubleSpenderWalletStatsIndex;\n    uint256 public maxDriipNonce;\n    uint256 public maxNullNonce;\n    bool public dataAvailable;\n\n    //\n    // Constructor\n    // -----------------------------------------------------------------------------------------------------------------\n    constructor() public {\n        _reset();\n    }\n\n    //\n    // Functions\n    // -----------------------------------------------------------------------------------------------------------------\n    function _reset()\n    public\n    {\n        maxDriipNonce = 0;\n        maxNullNonce = 0;\n        dataAvailable = true;\n        doubleSpenderWalletStats.length = 0;\n        doubleSpenderWalletStatsIndex = 0;\n    }\n\n    function addDoubleSpenderWallet(bool doubleSpender)\n    public\n    returns (address[3])\n    {\n        doubleSpenderWalletStats.push(doubleSpender);\n    }\n\n    function isDoubleSpenderWallet(address)\n    public\n    returns (bool)\n    {\n        return doubleSpenderWalletStats.length == 0 ? false : doubleSpenderWalletStats[doubleSpenderWalletStatsIndex++];\n    }\n\n    function setMaxDriipNonce(uint256 _maxDriipNonce)\n    public\n    returns (uint256)\n    {\n        return maxDriipNonce = _maxDriipNonce;\n    }\n\n    function getMaxDriipNonce()\n    public\n    view\n    returns (uint256)\n    {\n        return maxDriipNonce;\n    }\n\n    function setMaxNullNonce(uint256 _maxNullNonce)\n    public\n    returns (uint256)\n    {\n        return maxNullNonce = _maxNullNonce;\n    }\n\n    function getMaxNullNonce()\n    public\n    view\n    returns (uint256)\n    {\n        return maxNullNonce;\n    }\n\n    function setDataAvailable(bool _dataAvailable)\n    public\n    returns (bool)\n    {\n        return dataAvailable = _dataAvailable;\n    }\n\n    function isDataAvailable()\n    public\n    view\n    returns (bool)\n    {\n        return dataAvailable;\n    }\n}",
  "sourcePath": "/opt/buildagent/work/855e104608380c36/contracts/test/MockedCommunityVote.sol",
  "compiler": {
    "name": "solc",
    "version": "0.4.25+commit.59dbf8f1.Emscripten.clang"
  },
  "schemaVersion": "2.0.2",
  "updatedAt": "2019-04-17T19:44:57.855Z"
}