{
  "contractName": "MockedTokenHolderRevenueFundService",
  "abi": [
    {
      "constant": true,
      "inputs": [],
      "name": "_tokenHolderRevenueFund",
      "outputs": [
        {
          "name": "",
          "type": "address"
        }
      ],
      "payable": false,
      "stateMutability": "view",
      "type": "function"
    },
    {
      "constant": true,
      "inputs": [
        {
          "name": "",
          "type": "uint256"
        }
      ],
      "name": "_benefits",
      "outputs": [
        {
          "name": "wallet",
          "type": "address"
        },
        {
          "name": "balanceType",
          "type": "string"
        },
        {
          "components": [
            {
              "name": "amount",
              "type": "int256"
            },
            {
              "components": [
                {
                  "name": "ct",
                  "type": "address"
                },
                {
                  "name": "id",
                  "type": "uint256"
                }
              ],
              "name": "currency",
              "type": "tuple"
            }
          ],
          "name": "figure",
          "type": "tuple"
        },
        {
          "name": "standard",
          "type": "string"
        }
      ],
      "payable": false,
      "stateMutability": "view",
      "type": "function"
    },
    {
      "constant": false,
      "inputs": [],
      "name": "_reset",
      "outputs": [],
      "payable": false,
      "stateMutability": "nonpayable",
      "type": "function"
    },
    {
      "constant": false,
      "inputs": [
        {
          "name": "tokenHolderRevenueFund",
          "type": "address"
        }
      ],
      "name": "setTokenHolderRevenueFund",
      "outputs": [],
      "payable": false,
      "stateMutability": "nonpayable",
      "type": "function"
    },
    {
      "constant": false,
      "inputs": [
        {
          "components": [
            {
              "name": "ct",
              "type": "address"
            },
            {
              "name": "id",
              "type": "uint256"
            }
          ],
          "name": "currencies",
          "type": "tuple[]"
        }
      ],
      "name": "closeAccrualPeriod",
      "outputs": [],
      "payable": false,
      "stateMutability": "nonpayable",
      "type": "function"
    },
    {
      "constant": false,
      "inputs": [
        {
          "name": "wallet",
          "type": "address"
        },
        {
          "name": "balanceType",
          "type": "string"
        }
      ],
      "name": "receiveEthersTo",
      "outputs": [],
      "payable": true,
      "stateMutability": "payable",
      "type": "function"
    },
    {
      "constant": false,
      "inputs": [
        {
          "name": "wallet",
          "type": "address"
        },
        {
          "name": "balanceType",
          "type": "string"
        },
        {
          "name": "amount",
          "type": "int256"
        },
        {
          "name": "currencyCt",
          "type": "address"
        },
        {
          "name": "currencyId",
          "type": "uint256"
        },
        {
          "name": "standard",
          "type": "string"
        }
      ],
      "name": "receiveTokensTo",
      "outputs": [],
      "payable": false,
      "stateMutability": "nonpayable",
      "type": "function"
    },
    {
      "constant": true,
      "inputs": [
        {
          "name": "index",
          "type": "uint256"
        }
      ],
      "name": "_getBenefit",
      "outputs": [
        {
          "name": "wallet",
          "type": "address"
        },
        {
          "name": "balanceType",
          "type": "string"
        },
        {
          "name": "amount",
          "type": "int256"
        },
        {
          "name": "currencyCt",
          "type": "address"
        },
        {
          "name": "currencyId",
          "type": "uint256"
        },
        {
          "name": "standard",
          "type": "string"
        }
      ],
      "payable": false,
      "stateMutability": "view",
      "type": "function"
    }
  ],
  "bytecode": "0x608060405234801561001057600080fd5b50610f68806100206000396000f3006080604052600436106100745763ffffffff60e060020a6000350416631592f0ab81146100795780631da826be14610090578063477fbc39146100b05780635f289651146100d0578063982c90aa146100f0578063a7654a1f1461011b578063ab34a92c1461012e578063d2c6a9b014610160575b600080fd5b34801561008557600080fd5b5061008e610190565b005b34801561009c57600080fd5b5061008e6100ab366004610c10565b6101a0565b3480156100bc57600080fd5b5061008e6100cb366004610bd4565b6101c2565b3480156100dc57600080fd5b5061008e6100eb366004610b1f565b61022a565b3480156100fc57600080fd5b50610105610339565b6040516101129190610e0a565b60405180910390f35b61008e610129366004610ace565b610348565b34801561013a57600080fd5b5061014e610149366004610c2e565b610460565b60405161011296959493929190610d47565b34801561016c57600080fd5b5061018061017b366004610c2e565b610687565b6040516101129493929190610dae565b600061019d600182610818565b50565b60008054600160a060020a031916600160a060020a0392909216919091179055565b60005460405160e060020a63477fbc39028152600160a060020a039091169063477fbc39906101f5908490600401610df9565b600060405180830381600087803b15801561020f57600080fd5b505af1158015610223573d6000803e3d6000fd5b5050505050565b60408051608081018252600160a060020a038881168252602080830189815284518086018652898152855180870187528985168152808401899052818401529484019490945260608301859052600180548082018083556000929092528451600080516020610eef83398151915260069092029182018054600160a060020a031916919095161784559451805191956102d893600080516020610f0f83398151915290910192910190610849565b506040820151805160028301556020908101518051600384018054600160a060020a031916600160a060020a0390921691909117905581015160048301556060830151805161032d9260058501920190610849565b50505050505050505050565b600054600160a060020a031681565b60408051608081018252600160a060020a03848116825260208083018581528451808601865234815285518087018752600080825281850181905282850191909152858701919091528551808401909652808652606085019590955260018054808201808355919096528451600080516020610eef83398151915260069097029687018054600160a060020a0319169190951617845590518051919561040393600080516020610f0f83398151915290910192910190610849565b506040820151805160028301556020908101518051600384018054600160a060020a031916600160a060020a039092169190911790558101516004830155606083015180516104589260058501920190610849565b505050505050565b600060606000806000606060018781548110151561047a57fe5b600091825260209091206006909102015460018054600160a060020a03909216975090889081106104a757fe5b90600052602060002090600602016001018054600181600116156101000203166002900480601f01602080910402602001604051908101604052809291908181526020018280546001816001161561010002031660029004801561054c5780601f106105215761010080835404028352916020019161054c565b820191906000526020600020905b81548152906001019060200180831161052f57829003601f168201915b5050505050945060018781548110151561056257fe5b906000526020600020906006020160020160000154935060018781548110151561058857fe5b600091825260209091206003600690920201015460018054600160a060020a03909216945090889081106105b857fe5b90600052602060002090600602016002016001016001015491506001878154811015156105e157fe5b6000918252602091829020600560069092020101805460408051601f60026000196101006001871615020190941693909304928301859004850281018501909152818152928301828280156106775780601f1061064c57610100808354040283529160200191610677565b820191906000526020600020905b81548152906001019060200180831161065a57829003601f168201915b5050505050905091939550919395565b600180548290811061069557fe5b600091825260209182902060069091020180546001808301805460408051601f6002600019968516156101000296909601909316949094049182018790048702840187019052808352600160a060020a0390931695509293909291908301828280156107425780601f1061071757610100808354040283529160200191610742565b820191906000526020600020905b81548152906001019060200180831161072557829003601f168201915b50506040805180820182526002878101548252825180840184526003890154600160a060020a0316815260048901546020808301919091528084019190915260058901805485516101006001831615026000190190911693909304601f81018390048302840183019095528483529798929792965090945090925083018282801561080e5780601f106107e35761010080835404028352916020019161080e565b820191906000526020600020905b8154815290600101906020018083116107f157829003601f168201915b5050505050905084565b8154818355818111156108445760060281600602836000526020600020918201910161084491906108c7565b505050565b828054600181600116156101000203166002900490600052602060002090601f016020900481019282601f1061088a57805160ff19168380011785556108b7565b828001600101855582156108b7579182015b828111156108b757825182559160200191906001019061089c565b506108c392915061092e565b5090565b61092b91905b808211156108c3578054600160a060020a031916815560006108f26001830182610948565b600060028301819055600383018054600160a060020a031916905560048301819055610922906005840190610948565b506006016108cd565b90565b61092b91905b808211156108c35760008155600101610934565b50805460018160011615610100020316600290046000825580601f1061096e575061019d565b601f01602090049060005260206000209081019061019d919061092e565b60006109988235610e95565b9392505050565b6000601f820183136109b057600080fd5b81356109c36109be82610e44565b610e1e565b915081818352602084019350602081019050838560408402820111156109e857600080fd5b60005b83811015610a1657816109fe8882610a87565b845250602090920191604091909101906001016109eb565b5050505092915050565b60006109988235610ea1565b6000610998823561092b565b6000601f82018313610a4957600080fd5b8135610a576109be82610e64565b91508082526020830160208301858383011115610a7357600080fd5b610a7e838284610eac565b50505092915050565b600060408284031215610a9957600080fd5b610aa36040610e1e565b90506000610ab1848461098c565b8252506020610ac284848301610a2c565b60208301525092915050565b60008060408385031215610ae157600080fd5b6000610aed858561098c565b92505060208301356001604060020a03811115610b0957600080fd5b610b1585828601610a38565b9150509250929050565b60008060008060008060c08789031215610b3857600080fd5b6000610b44898961098c565b96505060208701356001604060020a03811115610b6057600080fd5b610b6c89828a01610a38565b9550506040610b7d89828a01610a2c565b9450506060610b8e89828a0161098c565b9350506080610b9f89828a01610a2c565b92505060a08701356001604060020a03811115610bbb57600080fd5b610bc789828a01610a38565b9150509295509295509295565b600060208284031215610be657600080fd5b81356001604060020a03811115610bfc57600080fd5b610c088482850161099f565b949350505050565b600060208284031215610c2257600080fd5b6000610c088484610a20565b600060208284031215610c4057600080fd5b6000610c088484610a2c565b610c5581610e95565b82525050565b6000610c6682610e91565b808452602084019350610c7883610e8b565b60005b82811015610ca857610c8e868351610cf9565b610c9782610e8b565b604096909601959150600101610c7b565b5093949350505050565b610c5581610ea1565b610c558161092b565b6000610ccf82610e91565b808452610ce3816020860160208601610eb8565b610cec81610ee4565b9093016020019392505050565b80516040830190610d0a8482610c4c565b506020820151610d1d6020850182610cbb565b50505050565b80516060830190610d348482610cbb565b506020820151610d1d6020850182610cf9565b60c08101610d558289610c4c565b8181036020830152610d678188610cc4565b9050610d766040830187610cbb565b610d836060830186610c4c565b610d906080830185610cbb565b81810360a0830152610da28184610cc4565b98975050505050505050565b60c08101610dbc8287610c4c565b8181036020830152610dce8186610cc4565b9050610ddd6040830185610d23565b81810360a0830152610def8184610cc4565b9695505050505050565b602080825281016109988184610c5b565b60208101610e188284610cb2565b92915050565b6040518181016001604060020a0381118282101715610e3c57600080fd5b604052919050565b60006001604060020a03821115610e5a57600080fd5b5060209081020190565b60006001604060020a03821115610e7a57600080fd5b506020601f91909101601f19160190565b60200190565b5190565b600160a060020a031690565b6000610e1882610e95565b82818337506000910152565b60005b83811015610ed3578181015183820152602001610ebb565b83811115610d1d5750506000910152565b601f01601f1916905600b10e2d527612073b26eecdfd717e6a320cf44b4afac2b0732d9fcbe2b7fa0cf6b10e2d527612073b26eecdfd717e6a320cf44b4afac2b0732d9fcbe2b7fa0cf7a265627a7a7230582022152b2926decdf3198ea1eb60d38979e17e26ca5c1adfafb90b7eb08c5fface6c6578706572696d656e74616cf50037",
  "source": "/*\n * Hubii Nahmii\n *\n * Compliant with the Hubii Nahmii specification v0.12.\n *\n * Copyright (C) 2017-2018 Hubii AS\n */\n\npragma solidity ^0.4.25;\npragma experimental ABIEncoderV2;\n\nimport {Beneficiary} from \"../Beneficiary.sol\";\nimport {TokenHolderRevenueFund} from \"../TokenHolderRevenueFund.sol\";\nimport {MonetaryTypesLib} from \"../MonetaryTypesLib.sol\";\n\n/**\n * @title MockedTokenHolderRevenueFundService\n * @notice Mocked implementation of service contract that interacts with TokenHolderRevenueFund\n */\ncontract MockedTokenHolderRevenueFundService is Beneficiary {\n    //\n    // Types\n    // -----------------------------------------------------------------------------------------------------------------\n    struct Benefit {\n        address wallet;\n        string balanceType;\n        MonetaryTypesLib.Figure figure;\n        string standard;\n    }\n\n    //\n    // Variables\n    // -----------------------------------------------------------------------------------------------------------------\n    TokenHolderRevenueFund public _tokenHolderRevenueFund;\n\n    Benefit[] public _benefits;\n\n    //\n    // Functions\n    // -----------------------------------------------------------------------------------------------------------------\n    function _reset()\n    public\n    {\n        _benefits.length = 0;\n    }\n\n    function setTokenHolderRevenueFund(TokenHolderRevenueFund tokenHolderRevenueFund)\n    public\n    {\n        _tokenHolderRevenueFund = tokenHolderRevenueFund;\n    }\n\n    function closeAccrualPeriod(MonetaryTypesLib.Currency[] currencies)\n    public\n    {\n        _tokenHolderRevenueFund.closeAccrualPeriod(currencies);\n    }\n\n    function receiveEthersTo(address wallet, string balanceType)\n    public\n    payable\n    {\n        _benefits.push(\n            Benefit(\n                wallet,\n                balanceType,\n                MonetaryTypesLib.Figure(\n                    int256(msg.value),\n                    MonetaryTypesLib.Currency(address(0), 0)\n                ),\n                \"\"\n            )\n        );\n    }\n\n    function receiveTokensTo(address wallet, string balanceType, int256 amount,\n        address currencyCt, uint256 currencyId, string standard)\n    public\n    {\n        _benefits.push(\n            Benefit(\n                wallet,\n                balanceType,\n                MonetaryTypesLib.Figure(\n                    amount,\n                    MonetaryTypesLib.Currency(currencyCt, currencyId)\n                ),\n                standard\n            )\n        );\n    }\n\n    function _getBenefit(uint256 index)\n    public\n    view\n    returns (address wallet, string balanceType, int256 amount, address currencyCt,\n        uint256 currencyId, string standard)\n    {\n        wallet = _benefits[index].wallet;\n        balanceType = _benefits[index].balanceType;\n        amount = _benefits[index].figure.amount;\n        currencyCt = _benefits[index].figure.currency.ct;\n        currencyId = _benefits[index].figure.currency.id;\n        standard = _benefits[index].standard;\n    }\n}",
  "sourcePath": "/opt/buildagent/work/855e104608380c36/contracts/test/MockedTokenHolderRevenueFundService.sol",
  "compiler": {
    "name": "solc",
    "version": "0.4.25+commit.59dbf8f1.Emscripten.clang"
  },
  "schemaVersion": "2.0.2",
  "updatedAt": "2019-04-17T19:44:57.872Z"
}