{
  "contractName": "MockedNullSettlementState",
  "abi": [
    {
      "constant": true,
      "inputs": [],
      "name": "maxNullNonce",
      "outputs": [
        {
          "name": "",
          "type": "uint256"
        }
      ],
      "payable": false,
      "stateMutability": "view",
      "type": "function"
    },
    {
      "constant": true,
      "inputs": [],
      "name": "_maxNonceByWalletAndCurrency",
      "outputs": [
        {
          "name": "",
          "type": "uint256"
        }
      ],
      "payable": false,
      "stateMutability": "view",
      "type": "function"
    },
    {
      "constant": false,
      "inputs": [],
      "name": "_reset",
      "outputs": [],
      "payable": false,
      "stateMutability": "nonpayable",
      "type": "function"
    },
    {
      "constant": true,
      "inputs": [
        {
          "name": "",
          "type": "address"
        },
        {
          "components": [
            {
              "name": "ct",
              "type": "address"
            },
            {
              "name": "id",
              "type": "uint256"
            }
          ],
          "name": "",
          "type": "tuple"
        }
      ],
      "name": "maxNonceByWalletAndCurrency",
      "outputs": [
        {
          "name": "",
          "type": "uint256"
        }
      ],
      "payable": false,
      "stateMutability": "view",
      "type": "function"
    },
    {
      "constant": false,
      "inputs": [
        {
          "name": "",
          "type": "address"
        },
        {
          "components": [
            {
              "name": "ct",
              "type": "address"
            },
            {
              "name": "id",
              "type": "uint256"
            }
          ],
          "name": "",
          "type": "tuple"
        },
        {
          "name": "maxNonce",
          "type": "uint256"
        }
      ],
      "name": "setMaxNonceByWalletAndCurrency",
      "outputs": [],
      "payable": false,
      "stateMutability": "nonpayable",
      "type": "function"
    },
    {
      "constant": false,
      "inputs": [
        {
          "name": "_maxNullNonce",
          "type": "uint256"
        }
      ],
      "name": "setMaxNullNonce",
      "outputs": [],
      "payable": false,
      "stateMutability": "nonpayable",
      "type": "function"
    }
  ],
  "bytecode": "0x608060405234801561001057600080fd5b506102e5806100206000396000f30060806040526004361061005e5763ffffffff60e060020a6000350416631423ba3881146100635780631592f0ab146100855780633858654b1461009a57806362662367146100d0578063741ee9a0146100e5578063f0684680146100fa575b600080fd5b34801561006f57600080fd5b5061008361007e3660046101e6565b61011a565b005b34801561009157600080fd5b50610083610121565b3480156100a657600080fd5b506100ba6100b53660046101ac565b61012b565b6040516100c79190610268565b60405180910390f35b3480156100dc57600080fd5b506100ba610135565b3480156100f157600080fd5b506100ba61013b565b34801561010657600080fd5b50610083610115366004610233565b610141565b6000555050565b6000808055600155565b6000545b92915050565b60015481565b60005481565b600155565b6000610152823561029f565b9392505050565b60006040828403121561016b57600080fd5b6101756040610276565b905060006101838484610146565b8252506020610194848483016101a0565b60208301525092915050565b6000610152823561029c565b600080606083850312156101bf57600080fd5b60006101cb8585610146565b92505060206101dc85828601610159565b9150509250929050565b6000806000608084860312156101fb57600080fd5b60006102078686610146565b935050602061021886828701610159565b9250506060610229868287016101a0565b9150509250925092565b60006020828403121561024557600080fd5b600061025184846101a0565b949350505050565b6102628161029c565b82525050565b6020810161012f8284610259565b6040518181016001604060020a038111828210171561029457600080fd5b604052919050565b90565b600160a060020a0316905600a265627a7a72305820864746884c9478ad283f4ee95dfcf8b1b027ba19d0f288acf96efe1cb903799b6c6578706572696d656e74616cf50037",
  "source": "/*\n * Hubii Nahmii\n *\n * Compliant with the Hubii Nahmii specification v0.12.\n *\n * Copyright (C) 2017-2018 Hubii AS\n */\n\npragma solidity ^0.4.25;\n\nimport {MonetaryTypesLib} from \"../MonetaryTypesLib.sol\";\npragma experimental ABIEncoderV2;\n\n/**\n * @title MockedNullSettlementState\n * @notice Mocked implementation of null settlement state contract\n */\ncontract MockedNullSettlementState {\n\n    uint256 public _maxNonceByWalletAndCurrency;\n    uint256 public maxNullNonce;\n\n    function _reset()\n    public\n    {\n        delete _maxNonceByWalletAndCurrency;\n        delete maxNullNonce;\n    }\n\n    function maxNonceByWalletAndCurrency(address, MonetaryTypesLib.Currency)\n    public\n    view\n    returns (uint256)\n    {\n        return _maxNonceByWalletAndCurrency;\n    }\n\n    function setMaxNonceByWalletAndCurrency(address, MonetaryTypesLib.Currency,\n        uint256 maxNonce)\n    public\n    {\n        _maxNonceByWalletAndCurrency = maxNonce;\n    }\n\n    function setMaxNullNonce(uint256 _maxNullNonce)\n    public\n    {\n        maxNullNonce = _maxNullNonce;\n    }\n}",
  "sourcePath": "/opt/buildagent/work/855e104608380c36/contracts/test/MockedNullSettlementState.sol",
  "compiler": {
    "name": "solc",
    "version": "0.4.25+commit.59dbf8f1.Emscripten.clang"
  },
  "schemaVersion": "2.0.2",
  "updatedAt": "2019-04-17T19:44:57.869Z"
}