{
  "contractName": "MockedDriipSettlementChallengeState",
  "abi": [
    {
      "constant": true,
      "inputs": [
        {
          "name": "",
          "type": "uint256"
        }
      ],
      "name": "_proposals",
      "outputs": [
        {
          "name": "wallet",
          "type": "address"
        },
        {
          "name": "nonce",
          "type": "uint256"
        },
        {
          "name": "referenceBlockNumber",
          "type": "uint256"
        },
        {
          "name": "definitionBlockNumber",
          "type": "uint256"
        },
        {
          "name": "expirationTime",
          "type": "uint256"
        },
        {
          "name": "status",
          "type": "uint8"
        },
        {
          "components": [
            {
              "name": "cumulativeTransfer",
              "type": "int256"
            },
            {
              "name": "stage",
              "type": "int256"
            },
            {
              "name": "targetBalance",
              "type": "int256"
            }
          ],
          "name": "amounts",
          "type": "tuple"
        },
        {
          "components": [
            {
              "name": "ct",
              "type": "address"
            },
            {
              "name": "id",
              "type": "uint256"
            }
          ],
          "name": "currency",
          "type": "tuple"
        },
        {
          "components": [
            {
              "name": "kind",
              "type": "string"
            },
            {
              "name": "hash",
              "type": "bytes32"
            }
          ],
          "name": "challenged",
          "type": "tuple"
        },
        {
          "name": "walletInitiated",
          "type": "bool"
        },
        {
          "name": "terminated",
          "type": "bool"
        },
        {
          "components": [
            {
              "name": "challenger",
              "type": "address"
            },
            {
              "name": "nonce",
              "type": "uint256"
            },
            {
              "name": "blockNumber",
              "type": "uint256"
            },
            {
              "components": [
                {
                  "name": "kind",
                  "type": "string"
                },
                {
                  "name": "hash",
                  "type": "bytes32"
                }
              ],
              "name": "candidate",
              "type": "tuple"
            }
          ],
          "name": "disqualification",
          "type": "tuple"
        }
      ],
      "payable": false,
      "stateMutability": "view",
      "type": "function"
    },
    {
      "constant": true,
      "inputs": [],
      "name": "_proposalExpired",
      "outputs": [
        {
          "name": "",
          "type": "bool"
        }
      ],
      "payable": false,
      "stateMutability": "view",
      "type": "function"
    },
    {
      "constant": true,
      "inputs": [],
      "name": "_addProposalsCount",
      "outputs": [
        {
          "name": "",
          "type": "uint256"
        }
      ],
      "payable": false,
      "stateMutability": "view",
      "type": "function"
    },
    {
      "constant": true,
      "inputs": [],
      "name": "_terminateProposalsCount",
      "outputs": [
        {
          "name": "",
          "type": "uint256"
        }
      ],
      "payable": false,
      "stateMutability": "view",
      "type": "function"
    },
    {
      "constant": true,
      "inputs": [],
      "name": "_proposalTerminated",
      "outputs": [
        {
          "name": "",
          "type": "bool"
        }
      ],
      "payable": false,
      "stateMutability": "view",
      "type": "function"
    },
    {
      "constant": true,
      "inputs": [],
      "name": "_proposal",
      "outputs": [
        {
          "name": "",
          "type": "bool"
        }
      ],
      "payable": false,
      "stateMutability": "view",
      "type": "function"
    },
    {
      "constant": true,
      "inputs": [],
      "name": "_removeProposalsCount",
      "outputs": [
        {
          "name": "",
          "type": "uint256"
        }
      ],
      "payable": false,
      "stateMutability": "view",
      "type": "function"
    },
    {
      "constant": false,
      "inputs": [],
      "name": "_reset",
      "outputs": [],
      "payable": false,
      "stateMutability": "nonpayable",
      "type": "function"
    },
    {
      "constant": false,
      "inputs": [
        {
          "name": "wallet",
          "type": "address"
        },
        {
          "name": "nonce",
          "type": "uint256"
        },
        {
          "name": "cumulativeTransferAmount",
          "type": "int256"
        },
        {
          "name": "stageAmount",
          "type": "int256"
        },
        {
          "name": "targetBalanceAmount",
          "type": "int256"
        },
        {
          "components": [
            {
              "name": "ct",
              "type": "address"
            },
            {
              "name": "id",
              "type": "uint256"
            }
          ],
          "name": "currency",
          "type": "tuple"
        },
        {
          "name": "referenceBlockNumber",
          "type": "uint256"
        },
        {
          "name": "walletInitiated",
          "type": "bool"
        },
        {
          "name": "challengedHash",
          "type": "bytes32"
        },
        {
          "name": "challengedKind",
          "type": "string"
        }
      ],
      "name": "initiateProposal",
      "outputs": [],
      "payable": false,
      "stateMutability": "nonpayable",
      "type": "function"
    },
    {
      "constant": false,
      "inputs": [
        {
          "name": "wallet",
          "type": "address"
        },
        {
          "components": [
            {
              "name": "ct",
              "type": "address"
            },
            {
              "name": "id",
              "type": "uint256"
            }
          ],
          "name": "currency",
          "type": "tuple"
        },
        {
          "name": "",
          "type": "bool"
        }
      ],
      "name": "terminateProposal",
      "outputs": [],
      "payable": false,
      "stateMutability": "nonpayable",
      "type": "function"
    },
    {
      "constant": false,
      "inputs": [
        {
          "name": "wallet",
          "type": "address"
        },
        {
          "components": [
            {
              "name": "ct",
              "type": "address"
            },
            {
              "name": "id",
              "type": "uint256"
            }
          ],
          "name": "currency",
          "type": "tuple"
        },
        {
          "name": "",
          "type": "bool"
        },
        {
          "name": "walletTerminated",
          "type": "bool"
        }
      ],
      "name": "terminateProposal",
      "outputs": [],
      "payable": false,
      "stateMutability": "nonpayable",
      "type": "function"
    },
    {
      "constant": false,
      "inputs": [
        {
          "name": "wallet",
          "type": "address"
        },
        {
          "components": [
            {
              "name": "ct",
              "type": "address"
            },
            {
              "name": "id",
              "type": "uint256"
            }
          ],
          "name": "currency",
          "type": "tuple"
        },
        {
          "name": "walletTerminated",
          "type": "bool"
        }
      ],
      "name": "removeProposal",
      "outputs": [],
      "payable": false,
      "stateMutability": "nonpayable",
      "type": "function"
    },
    {
      "constant": false,
      "inputs": [
        {
          "name": "wallet",
          "type": "address"
        },
        {
          "components": [
            {
              "name": "ct",
              "type": "address"
            },
            {
              "name": "id",
              "type": "uint256"
            }
          ],
          "name": "currency",
          "type": "tuple"
        }
      ],
      "name": "removeProposal",
      "outputs": [],
      "payable": false,
      "stateMutability": "nonpayable",
      "type": "function"
    },
    {
      "constant": false,
      "inputs": [
        {
          "name": "challengedWallet",
          "type": "address"
        },
        {
          "components": [
            {
              "name": "ct",
              "type": "address"
            },
            {
              "name": "id",
              "type": "uint256"
            }
          ],
          "name": "currency",
          "type": "tuple"
        },
        {
          "name": "challengerWallet",
          "type": "address"
        },
        {
          "name": "blockNumber",
          "type": "uint256"
        },
        {
          "name": "candidateNonce",
          "type": "uint256"
        },
        {
          "name": "candidateHash",
          "type": "bytes32"
        },
        {
          "name": "candidateKind",
          "type": "string"
        }
      ],
      "name": "disqualifyProposal",
      "outputs": [],
      "payable": false,
      "stateMutability": "nonpayable",
      "type": "function"
    },
    {
      "constant": false,
      "inputs": [
        {
          "name": "wallet",
          "type": "address"
        },
        {
          "components": [
            {
              "name": "ct",
              "type": "address"
            },
            {
              "name": "id",
              "type": "uint256"
            }
          ],
          "name": "currency",
          "type": "tuple"
        }
      ],
      "name": "qualifyProposal",
      "outputs": [],
      "payable": false,
      "stateMutability": "nonpayable",
      "type": "function"
    },
    {
      "constant": true,
      "inputs": [
        {
          "name": "",
          "type": "address"
        },
        {
          "components": [
            {
              "name": "ct",
              "type": "address"
            },
            {
              "name": "id",
              "type": "uint256"
            }
          ],
          "name": "",
          "type": "tuple"
        }
      ],
      "name": "hasProposal",
      "outputs": [
        {
          "name": "",
          "type": "bool"
        }
      ],
      "payable": false,
      "stateMutability": "view",
      "type": "function"
    },
    {
      "constant": true,
      "inputs": [
        {
          "name": "",
          "type": "address"
        },
        {
          "name": "",
          "type": "uint256"
        },
        {
          "components": [
            {
              "name": "ct",
              "type": "address"
            },
            {
              "name": "id",
              "type": "uint256"
            }
          ],
          "name": "",
          "type": "tuple"
        }
      ],
      "name": "hasProposal",
      "outputs": [
        {
          "name": "",
          "type": "bool"
        }
      ],
      "payable": false,
      "stateMutability": "view",
      "type": "function"
    },
    {
      "constant": false,
      "inputs": [
        {
          "name": "proposal",
          "type": "bool"
        }
      ],
      "name": "_setProposal",
      "outputs": [],
      "payable": false,
      "stateMutability": "nonpayable",
      "type": "function"
    },
    {
      "constant": true,
      "inputs": [
        {
          "name": "",
          "type": "address"
        },
        {
          "components": [
            {
              "name": "ct",
              "type": "address"
            },
            {
              "name": "id",
              "type": "uint256"
            }
          ],
          "name": "",
          "type": "tuple"
        }
      ],
      "name": "hasProposalTerminated",
      "outputs": [
        {
          "name": "",
          "type": "bool"
        }
      ],
      "payable": false,
      "stateMutability": "view",
      "type": "function"
    },
    {
      "constant": false,
      "inputs": [
        {
          "name": "proposalTerminated",
          "type": "bool"
        }
      ],
      "name": "_setProposalTerminated",
      "outputs": [],
      "payable": false,
      "stateMutability": "nonpayable",
      "type": "function"
    },
    {
      "constant": true,
      "inputs": [
        {
          "name": "",
          "type": "address"
        },
        {
          "components": [
            {
              "name": "ct",
              "type": "address"
            },
            {
              "name": "id",
              "type": "uint256"
            }
          ],
          "name": "",
          "type": "tuple"
        }
      ],
      "name": "hasProposalExpired",
      "outputs": [
        {
          "name": "",
          "type": "bool"
        }
      ],
      "payable": false,
      "stateMutability": "view",
      "type": "function"
    },
    {
      "constant": false,
      "inputs": [
        {
          "name": "proposalExpired",
          "type": "bool"
        }
      ],
      "name": "_setProposalExpired",
      "outputs": [],
      "payable": false,
      "stateMutability": "nonpayable",
      "type": "function"
    },
    {
      "constant": true,
      "inputs": [
        {
          "name": "",
          "type": "address"
        },
        {
          "components": [
            {
              "name": "ct",
              "type": "address"
            },
            {
              "name": "id",
              "type": "uint256"
            }
          ],
          "name": "",
          "type": "tuple"
        }
      ],
      "name": "proposalNonce",
      "outputs": [
        {
          "name": "",
          "type": "uint256"
        }
      ],
      "payable": false,
      "stateMutability": "view",
      "type": "function"
    },
    {
      "constant": false,
      "inputs": [
        {
          "name": "_proposalNonce",
          "type": "uint256"
        }
      ],
      "name": "_setProposalNonce",
      "outputs": [],
      "payable": false,
      "stateMutability": "nonpayable",
      "type": "function"
    },
    {
      "constant": true,
      "inputs": [
        {
          "name": "",
          "type": "address"
        },
        {
          "components": [
            {
              "name": "ct",
              "type": "address"
            },
            {
              "name": "id",
              "type": "uint256"
            }
          ],
          "name": "",
          "type": "tuple"
        }
      ],
      "name": "proposalReferenceBlockNumber",
      "outputs": [
        {
          "name": "",
          "type": "uint256"
        }
      ],
      "payable": false,
      "stateMutability": "view",
      "type": "function"
    },
    {
      "constant": false,
      "inputs": [
        {
          "name": "_proposalReferenceBlockNumber",
          "type": "uint256"
        }
      ],
      "name": "_setProposalReferenceBlockNumber",
      "outputs": [],
      "payable": false,
      "stateMutability": "nonpayable",
      "type": "function"
    },
    {
      "constant": true,
      "inputs": [
        {
          "name": "",
          "type": "address"
        },
        {
          "components": [
            {
              "name": "ct",
              "type": "address"
            },
            {
              "name": "id",
              "type": "uint256"
            }
          ],
          "name": "",
          "type": "tuple"
        }
      ],
      "name": "proposalDefinitionBlockNumber",
      "outputs": [
        {
          "name": "",
          "type": "uint256"
        }
      ],
      "payable": false,
      "stateMutability": "view",
      "type": "function"
    },
    {
      "constant": false,
      "inputs": [
        {
          "name": "_proposalDefinitionBlockNumber",
          "type": "uint256"
        }
      ],
      "name": "_setProposalDefinitionBlockNumber",
      "outputs": [],
      "payable": false,
      "stateMutability": "nonpayable",
      "type": "function"
    },
    {
      "constant": true,
      "inputs": [
        {
          "name": "",
          "type": "address"
        },
        {
          "components": [
            {
              "name": "ct",
              "type": "address"
            },
            {
              "name": "id",
              "type": "uint256"
            }
          ],
          "name": "",
          "type": "tuple"
        }
      ],
      "name": "proposalExpirationTime",
      "outputs": [
        {
          "name": "",
          "type": "uint256"
        }
      ],
      "payable": false,
      "stateMutability": "view",
      "type": "function"
    },
    {
      "constant": false,
      "inputs": [
        {
          "name": "_proposalExpirationTime",
          "type": "uint256"
        }
      ],
      "name": "_setProposalExpirationTime",
      "outputs": [],
      "payable": false,
      "stateMutability": "nonpayable",
      "type": "function"
    },
    {
      "constant": true,
      "inputs": [
        {
          "name": "",
          "type": "address"
        },
        {
          "components": [
            {
              "name": "ct",
              "type": "address"
            },
            {
              "name": "id",
              "type": "uint256"
            }
          ],
          "name": "",
          "type": "tuple"
        }
      ],
      "name": "proposalStatus",
      "outputs": [
        {
          "name": "",
          "type": "uint8"
        }
      ],
      "payable": false,
      "stateMutability": "view",
      "type": "function"
    },
    {
      "constant": false,
      "inputs": [
        {
          "name": "_proposalStatus",
          "type": "uint8"
        }
      ],
      "name": "_setProposalStatus",
      "outputs": [],
      "payable": false,
      "stateMutability": "nonpayable",
      "type": "function"
    },
    {
      "constant": true,
      "inputs": [
        {
          "name": "",
          "type": "address"
        },
        {
          "components": [
            {
              "name": "ct",
              "type": "address"
            },
            {
              "name": "id",
              "type": "uint256"
            }
          ],
          "name": "",
          "type": "tuple"
        }
      ],
      "name": "proposalCumulativeTransferAmount",
      "outputs": [
        {
          "name": "",
          "type": "int256"
        }
      ],
      "payable": false,
      "stateMutability": "view",
      "type": "function"
    },
    {
      "constant": false,
      "inputs": [
        {
          "name": "_proposalCumulativeTransferAmount",
          "type": "int256"
        }
      ],
      "name": "_setProposalCumulativeTransferAmount",
      "outputs": [],
      "payable": false,
      "stateMutability": "nonpayable",
      "type": "function"
    },
    {
      "constant": true,
      "inputs": [
        {
          "name": "",
          "type": "address"
        },
        {
          "components": [
            {
              "name": "ct",
              "type": "address"
            },
            {
              "name": "id",
              "type": "uint256"
            }
          ],
          "name": "",
          "type": "tuple"
        }
      ],
      "name": "proposalStageAmount",
      "outputs": [
        {
          "name": "",
          "type": "int256"
        }
      ],
      "payable": false,
      "stateMutability": "view",
      "type": "function"
    },
    {
      "constant": false,
      "inputs": [
        {
          "name": "_proposalStageAmount",
          "type": "int256"
        }
      ],
      "name": "_setProposalStageAmount",
      "outputs": [],
      "payable": false,
      "stateMutability": "nonpayable",
      "type": "function"
    },
    {
      "constant": true,
      "inputs": [
        {
          "name": "",
          "type": "address"
        },
        {
          "components": [
            {
              "name": "ct",
              "type": "address"
            },
            {
              "name": "id",
              "type": "uint256"
            }
          ],
          "name": "",
          "type": "tuple"
        }
      ],
      "name": "proposalTargetBalanceAmount",
      "outputs": [
        {
          "name": "",
          "type": "int256"
        }
      ],
      "payable": false,
      "stateMutability": "view",
      "type": "function"
    },
    {
      "constant": false,
      "inputs": [
        {
          "name": "_proposalTargetBalanceAmount",
          "type": "int256"
        }
      ],
      "name": "_setProposalTargetBalanceAmount",
      "outputs": [],
      "payable": false,
      "stateMutability": "nonpayable",
      "type": "function"
    },
    {
      "constant": true,
      "inputs": [
        {
          "name": "",
          "type": "address"
        },
        {
          "components": [
            {
              "name": "ct",
              "type": "address"
            },
            {
              "name": "id",
              "type": "uint256"
            }
          ],
          "name": "",
          "type": "tuple"
        }
      ],
      "name": "proposalChallengedHash",
      "outputs": [
        {
          "name": "",
          "type": "bytes32"
        }
      ],
      "payable": false,
      "stateMutability": "view",
      "type": "function"
    },
    {
      "constant": false,
      "inputs": [
        {
          "name": "_proposalChallengedHash",
          "type": "bytes32"
        }
      ],
      "name": "_setProposalChallengedHash",
      "outputs": [],
      "payable": false,
      "stateMutability": "nonpayable",
      "type": "function"
    },
    {
      "constant": true,
      "inputs": [
        {
          "name": "",
          "type": "address"
        },
        {
          "components": [
            {
              "name": "ct",
              "type": "address"
            },
            {
              "name": "id",
              "type": "uint256"
            }
          ],
          "name": "",
          "type": "tuple"
        }
      ],
      "name": "proposalChallengedKind",
      "outputs": [
        {
          "name": "",
          "type": "string"
        }
      ],
      "payable": false,
      "stateMutability": "view",
      "type": "function"
    },
    {
      "constant": false,
      "inputs": [
        {
          "name": "_proposalChallengedKind",
          "type": "string"
        }
      ],
      "name": "_setProposalChallengedKind",
      "outputs": [],
      "payable": false,
      "stateMutability": "nonpayable",
      "type": "function"
    },
    {
      "constant": true,
      "inputs": [
        {
          "name": "",
          "type": "address"
        },
        {
          "components": [
            {
              "name": "ct",
              "type": "address"
            },
            {
              "name": "id",
              "type": "uint256"
            }
          ],
          "name": "",
          "type": "tuple"
        }
      ],
      "name": "proposalWalletInitiated",
      "outputs": [
        {
          "name": "",
          "type": "bool"
        }
      ],
      "payable": false,
      "stateMutability": "view",
      "type": "function"
    },
    {
      "constant": false,
      "inputs": [
        {
          "name": "_proposalWalletInitiated",
          "type": "bool"
        }
      ],
      "name": "_setProposalWalletInitiated",
      "outputs": [],
      "payable": false,
      "stateMutability": "nonpayable",
      "type": "function"
    },
    {
      "constant": true,
      "inputs": [
        {
          "name": "",
          "type": "address"
        },
        {
          "components": [
            {
              "name": "ct",
              "type": "address"
            },
            {
              "name": "id",
              "type": "uint256"
            }
          ],
          "name": "",
          "type": "tuple"
        }
      ],
      "name": "proposalDisqualificationChallenger",
      "outputs": [
        {
          "name": "",
          "type": "address"
        }
      ],
      "payable": false,
      "stateMutability": "view",
      "type": "function"
    },
    {
      "constant": false,
      "inputs": [
        {
          "name": "_proposalDisqualificationChallenger",
          "type": "address"
        }
      ],
      "name": "_setProposalDisqualificationChallenger",
      "outputs": [],
      "payable": false,
      "stateMutability": "nonpayable",
      "type": "function"
    },
    {
      "constant": true,
      "inputs": [
        {
          "name": "",
          "type": "address"
        },
        {
          "components": [
            {
              "name": "ct",
              "type": "address"
            },
            {
              "name": "id",
              "type": "uint256"
            }
          ],
          "name": "",
          "type": "tuple"
        }
      ],
      "name": "proposalDisqualificationNonce",
      "outputs": [
        {
          "name": "",
          "type": "uint256"
        }
      ],
      "payable": false,
      "stateMutability": "view",
      "type": "function"
    },
    {
      "constant": false,
      "inputs": [
        {
          "name": "_proposalDisqualificationNonce",
          "type": "uint256"
        }
      ],
      "name": "_setProposalDisqualificationNonce",
      "outputs": [],
      "payable": false,
      "stateMutability": "nonpayable",
      "type": "function"
    },
    {
      "constant": true,
      "inputs": [
        {
          "name": "",
          "type": "address"
        },
        {
          "components": [
            {
              "name": "ct",
              "type": "address"
            },
            {
              "name": "id",
              "type": "uint256"
            }
          ],
          "name": "",
          "type": "tuple"
        }
      ],
      "name": "proposalDisqualificationBlockNumber",
      "outputs": [
        {
          "name": "",
          "type": "uint256"
        }
      ],
      "payable": false,
      "stateMutability": "view",
      "type": "function"
    },
    {
      "constant": false,
      "inputs": [
        {
          "name": "_proposalDisqualificationBlockNumber",
          "type": "uint256"
        }
      ],
      "name": "_setProposalDisqualificationBlockNumber",
      "outputs": [],
      "payable": false,
      "stateMutability": "nonpayable",
      "type": "function"
    },
    {
      "constant": true,
      "inputs": [
        {
          "name": "",
          "type": "address"
        },
        {
          "components": [
            {
              "name": "ct",
              "type": "address"
            },
            {
              "name": "id",
              "type": "uint256"
            }
          ],
          "name": "",
          "type": "tuple"
        }
      ],
      "name": "proposalDisqualificationCandidateHash",
      "outputs": [
        {
          "name": "",
          "type": "bytes32"
        }
      ],
      "payable": false,
      "stateMutability": "view",
      "type": "function"
    },
    {
      "constant": false,
      "inputs": [
        {
          "name": "_proposalDisqualificationCandidateHash",
          "type": "bytes32"
        }
      ],
      "name": "_setProposalDisqualificationCandidateHash",
      "outputs": [],
      "payable": false,
      "stateMutability": "nonpayable",
      "type": "function"
    },
    {
      "constant": true,
      "inputs": [
        {
          "name": "",
          "type": "address"
        },
        {
          "components": [
            {
              "name": "ct",
              "type": "address"
            },
            {
              "name": "id",
              "type": "uint256"
            }
          ],
          "name": "",
          "type": "tuple"
        }
      ],
      "name": "proposalDisqualificationCandidateKind",
      "outputs": [
        {
          "name": "",
          "type": "string"
        }
      ],
      "payable": false,
      "stateMutability": "view",
      "type": "function"
    },
    {
      "constant": false,
      "inputs": [
        {
          "name": "_proposalDisqualificationCandidateKind",
          "type": "string"
        }
      ],
      "name": "_setProposalDisqualificationCandidateKind",
      "outputs": [],
      "payable": false,
      "stateMutability": "nonpayable",
      "type": "function"
    },
    {
      "constant": false,
      "inputs": [],
      "name": "_addProposalIfNone",
      "outputs": [
        {
          "name": "",
          "type": "uint256"
        }
      ],
      "payable": false,
      "stateMutability": "nonpayable",
      "type": "function"
    }
  ],
  "bytecode": "0x608060405234801561001057600080fd5b5061275c806100206000396000f3006080604052600436106102795763ffffffff60e060020a6000350416630a494840811461027e5780630e0648f1146102bf5780630ef73e8a146102e15780631420b667146103035780631592f0ab146103235780631b90e3c11461033857806321c588f6146103655780632247d79b1461038557806326885b54146103a55780632892705e146103c55780632c1da19a146103e55780632ee2ed251461041257806335a42383146104325780633b238528146104525780633fc57322146104725780634fc9677c1461048757806352a0dd10146104a75780635385f37b146104c7578063541ee0f8146104e75780635482c73514610507578063553d90e914610527578063565872291461054757806356ec9075146105745780635b91bdff14610594578063600e461e146105b45780636374e9f6146105d45780636543ade1146105f4578063667666c81461061457806368bd4169146106345780636e90a596146106495780637ff81c371461066957806384d3264b14610689578063865253eb146106a95780638ab3e965146106c95780638b4ed4c2146106e957806394da13eb1461070957806396f65e4114610729578063a495a3061461073e578063b3e48f811461075e578063b6e2fc331461077e578063bb3bffe0146107ab578063c46fcd75146107cb578063c5d40e9c146107eb578063c79ec04d1461080b578063cacf061714610820578063cf293aac14610840578063d97d9a9514610860578063da473c5714610880578063dd2f35bb146108a0578063dd6be546146108b5578063ddd11ba8146108d5578063ec934c73146108f5578063ed5e3a3e14610915578063f70ed17714610935578063fd2456d11461094a575b600080fd5b34801561028a57600080fd5b5061029e61029936600461238e565b61096a565b6040516102b69c9b9a9998979695949392919061255c565b60405180910390f35b3480156102cb57600080fd5b506102df6102da3660046123ac565b610bfe565b005b3480156102ed57600080fd5b506102f6610c49565b6040516102b6919061261d565b34801561030f57600080fd5b506102df61031e36600461238e565b610c58565b34801561032f57600080fd5b506102df610c8c565b34801561034457600080fd5b506103586103533660046120a0565b610cb5565b6040516102b6919061262b565b34801561037157600080fd5b506102df61038036600461238e565b610ce8565b34801561039157600080fd5b506102df6103a036600461238e565b610d1d565b3480156103b157600080fd5b506102df6103c03660046120a0565b610d52565b3480156103d157600080fd5b506102df6103e036600461207a565b610e00565b3480156103f157600080fd5b506104056104003660046120a0565b610e51565b6040516102b69190612647565b34801561041e57600080fd5b5061035861042d3660046120a0565b610f0a565b34801561043e57600080fd5b506102df61044d3660046121db565b610f3a565b34801561045e57600080fd5b506102f661046d3660046120a0565b61105c565b34801561047e57600080fd5b50610358611067565b34801561049357600080fd5b506102df6104a236600461238e565b61106d565b3480156104b357600080fd5b506102df6104c236600461218e565b6110a1565b3480156104d357600080fd5b506103586104e23660046120a0565b611183565b3480156104f357600080fd5b506102df61050236600461238e565b6111b3565b34801561051357600080fd5b506102f66105223660046120a0565b6111e7565b34801561053357600080fd5b506103586105423660046120a0565b6111f8565b34801561055357600080fd5b506105676105623660046120a0565b61122b565b6040516102b6919061254e565b34801561058057600080fd5b5061035861058f3660046120a0565b611265565b3480156105a057600080fd5b506102df6105af36600461238e565b611295565b3480156105c057600080fd5b506103586105cf3660046120a0565b6112c9565b3480156105e057600080fd5b506102df6105ef3660046120a0565b6112fc565b34801561060057600080fd5b506102f661060f36600461232d565b611438565b34801561062057600080fd5b506102df61062f3660046120da565b611445565b34801561064057600080fd5b5061035861161e565b34801561065557600080fd5b506103586106643660046120a0565b611624565b34801561067557600080fd5b506102f66106843660046120a0565b611654565b34801561069557600080fd5b506102df6106a43660046123ca565b611664565b3480156106b557600080fd5b506102df6106c436600461238e565b6116af565b3480156106d557600080fd5b506103586106e43660046120a0565b6116e4565b3480156106f557600080fd5b506103586107043660046120a0565b611717565b34801561071557600080fd5b506104056107243660046120a0565b61174a565b34801561073557600080fd5b506103586117cb565b34801561074a57600080fd5b506102df61075936600461218e565b6117fc565b34801561076a57600080fd5b506102df61077936600461238e565b6118e5565b34801561078a57600080fd5b5061079e6107993660046120a0565b611919565b6040516102b69190612639565b3480156107b757600080fd5b506102df6107c636600461223c565b61194d565b3480156107d757600080fd5b506103586107e63660046120a0565b611b81565b3480156107f757600080fd5b506102df6108063660046123ca565b611bb4565b34801561081757600080fd5b506102f6611bf7565b34801561082c57600080fd5b506102df61083b366004612370565b611c05565b34801561084c57600080fd5b506102f661085b3660046120a0565b611c47565b34801561086c57600080fd5b506102df61087b366004612370565b611c7b565b34801561088c57600080fd5b5061035861089b3660046120a0565b611c97565b3480156108ac57600080fd5b506102f6611cca565b3480156108c157600080fd5b506102df6108d036600461238e565b611cd3565b3480156108e157600080fd5b506102df6108f0366004612370565b611d07565b34801561090157600080fd5b506102df610910366004612370565b611d21565b34801561092157600080fd5b506102df61093036600461238e565b611d34565b34801561094157600080fd5b50610358611d68565b34801561095657600080fd5b506102df61096536600461238e565b611d6e565b600380548290811061097857fe5b90600052602060002090601302016000915090508060000160009054906101000a9004600160a060020a0316908060010154908060020154908060030154908060040154908060050160009054906101000a900460ff16908060060160606040519081016040529081600082015481526020016001820154815260200160028201548152505090806009016040805190810160405290816000820160009054906101000a9004600160a060020a0316600160a060020a0316600160a060020a031681526020016001820154815250509080600b01604080519081016040529081600082018054600181600116156101000203166002900480601f016020809104026020016040519081016040528092919081815260200182805460018160011615610100020316600290048015610af05780601f10610ac557610100808354040283529160200191610af0565b820191906000526020600020905b815481529060010190602001808311610ad357829003601f168201915b5050509183525050600191820154602091820152600d84015460408051608081018252600e87018054600160a060020a03168252600f880154828601526010880154828401528251601189018054606060026000196101009b8416158c020190921691909104601f8101899004909802830181018652948201878152989960ff8088169a99909704909616979596939592948087019492939192849291849190840182828015610be15780601f10610bb657610100808354040283529160200191610be1565b820191906000526020600020905b815481529060010190602001808311610bc457829003601f168201915b50505091835250506001919091015460209091015290525090508c565b6000610c086117cb565b905081600382815481101515610c1a57fe5b60009182526020909120600560139092020101805460ff191660018381811115610c4057fe5b02179055505050565b60045462010000900460ff1681565b6000610c626117cb565b905081600382815481101515610c7457fe5b60009182526020909120600760139092020101555050565b600080805560018190556002819055610ca790600390611da3565b6004805462ffffff19169055565b60038054600091906000198101908110610ccb57fe5b600091825260209091206012601390920201015490505b92915050565b6000610cf26117cb565b905081600382815481101515610d0457fe5b9060005260206000209060130201600401819055505050565b6000610d276117cb565b905081600382815481101515610d3957fe5b9060005260206000209060130201600201819055505050565b6000610d5c6117cb565b905082600382815481101515610d6e57fe5b906000526020600020906013020160000160006101000a815481600160a060020a030219169083600160a060020a0316021790555081600382815481101515610db357fe5b6000918252602091829020835160139290920201600981018054600160a060020a031916600160a060020a0390931692909217909155910151600a90910155505060028054600101905550565b6000610e0a6117cb565b905081600382815481101515610e1c57fe5b60009182526020909120601390910201600e018054600160a060020a031916600160a060020a03929092169190911790555050565b60038054606091906000198101908110610e6757fe5b6000918252602091829020601160139092020101805460408051601f6002600019610100600187161502019094169390930492830185900485028101850190915281815292830182828015610efd5780601f10610ed257610100808354040283529160200191610efd565b820191906000526020600020905b815481529060010190602001808311610ee057829003601f168201915b5050505050905092915050565b60038054600091906000198101908110610f2057fe5b906000526020600020906013020160010154905092915050565b6000610f446117cb565b905084600382815481101515610f5657fe5b906000526020600020906013020160000160006101000a815481600160a060020a030219169083600160a060020a0316021790555083600382815481101515610f9b57fe5b6000918252602091829020835160139290920201600981018054600160a060020a031916600160a060020a0390931692909217909155910151600a909101556003805483919083908110610feb57fe5b9060005260206000209060130201600d0160006101000a81548160ff021916908315150217905550600160038281548110151561102457fe5b60009182526020909120600d6013909202010180549115156101000261ff001990921691909117905550506001805481019055505050565b505060045460ff1690565b60005481565b60006110776117cb565b90508160038281548110151561108957fe5b60009182526020909120600c60139092020101555050565b60006110ab6117cb565b9050836003828154811015156110bd57fe5b906000526020600020906013020160000160006101000a815481600160a060020a030219169083600160a060020a031602179055508260038281548110151561110257fe5b6000918252602091829020835160139290920201600981018054600160a060020a031916600160a060020a0390931692909217909155910151600a90910155600380548391908390811061115257fe5b60009182526020909120601390910201600d01805460ff191691151591909117905550506002805460010190555050565b6003805460009190600019810190811061119957fe5b906000526020600020906013020160030154905092915050565b60006111bd6117cb565b9050816003828154811015156111cf57fe5b60009182526020909120601260139092020101555050565b505060045462010000900460ff1690565b6003805460009190600019810190811061120e57fe5b9060005260206000209060130201600e0160010154905092915050565b6003805460009190600019810190811061124157fe5b60009182526020909120601390910201600e0154600160a060020a03169392505050565b6003805460009190600019810190811061127b57fe5b906000526020600020906013020160040154905092915050565b600061129f6117cb565b9050816003828154811015156112b157fe5b60009182526020909120600f60139092020101555050565b600380546000919060001981019081106112df57fe5b906000526020600020906013020160060160010154905092915050565b60006113066117cb565b90508260038281548110151561131857fe5b906000526020600020906013020160000160006101000a815481600160a060020a030219169083600160a060020a031602179055508160038281548110151561135d57fe5b60009182526020808320845160139390930201600981018054600160a060020a031916600160a060020a03909416939093179092559290920151600a9092019190915560038054839081106113ae57fe5b60009182526020909120600560139092020101805460ff1916600183818111156113d457fe5b021790555060038054829081106113e757fe5b600091825260208220600e6013909202019081018054600160a060020a0319168155600f8201839055601082018390559190601101816114278282611dc7565b600182016000905550505050505050565b60045460ff169392505050565b600061144f6117cb565b90508760038281548110151561146157fe5b906000526020600020906013020160000160006101000a815481600160a060020a030219169083600160a060020a03160217905550866003828154811015156114a657fe5b6000918252602091829020835160139290920201600981018054600160a060020a031916600160a060020a0390931692909217909155910151600a909101556003805460019190839081106114f757fe5b60009182526020909120600560139092020101805460ff19166001838181111561151d57fe5b02179055508560038281548110151561153257fe5b9060005260206000209060130201600e0160000160006101000a815481600160a060020a030219169083600160a060020a031602179055508360038281548110151561157a57fe5b60009182526020909120600f6013909202010155600380548691908390811061159f57fe5b600091825260209091206010601390920201015560038054849190839081106115c457fe5b600091825260209091206012601390920201015560038054839190839081106115e957fe5b9060005260206000209060130201600e016003016000019080519060200190611613929190611e0b565b505050505050505050565b60015481565b6003805460009190600019810190811061163a57fe5b906000526020600020906013020160020154905092915050565b5050600454610100900460ff1690565b600061166e6117cb565b90508160038281548110151561168057fe5b9060005260206000209060130201600e0160030160000190805190602001906116aa929190611e0b565b505050565b60006116b96117cb565b9050816003828154811015156116cb57fe5b9060005260206000209060130201600101819055505050565b600380546000919060001981019081106116fa57fe5b906000526020600020906013020160060160000154905092915050565b6003805460009190600019810190811061172d57fe5b9060005260206000209060130201600e0160020154905092915050565b6003805460609190600019810190811061176057fe5b6000918252602091829020600b60139092020101805460408051601f6002600019610100600187161502019094169390930492830185900485028101850190915281815292830182828015610efd5780601f10610ed257610100808354040283529160200191610efd565b60035460009081106117ee5760038054906117e99060018301611e89565b6117f6565b600354600019015b90505b90565b60006118066117cb565b90508360038281548110151561181857fe5b906000526020600020906013020160000160006101000a815481600160a060020a030219169083600160a060020a031602179055508260038281548110151561185d57fe5b6000918252602091829020835160139290920201600981018054600160a060020a031916600160a060020a0390931692909217909155910151600a909101556003805460019190839081106118ae57fe5b60009182526020909120600d6013909202010180549115156101000261ff0019909216919091179055505060018054810190555050565b60006118ef6117cb565b90508160038281548110151561190157fe5b60009182526020909120600660139092020101555050565b6003805460009190600019810190811061192f57fe5b600091825260209091206013909102016005015460ff169392505050565b600380546000916119619060018301611e89565b90508a60038281548110151561197357fe5b906000526020600020906013020160000160006101000a815481600160a060020a030219169083600160a060020a03160217905550896003828154811015156119b857fe5b906000526020600020906013020160010181905550886003828154811015156119dd57fe5b60009182526020909120600660139092020101556003805489919083908110611a0257fe5b60009182526020909120600760139092020101556003805488919083908110611a2757fe5b60009182526020909120600860139092020101556003805487919083908110611a4c57fe5b6000918252602091829020835160139290920201600981018054600160a060020a031916600160a060020a0390931692909217909155910151600a909101556003805486919083908110611a9c57fe5b90600052602060002090601302016002018190555043600382815481101515611ac157fe5b90600052602060002090601302016003018190555083600382815481101515611ae657fe5b9060005260206000209060130201600d0160006101000a81548160ff02191690831515021790555082600382815481101515611b1e57fe5b60009182526020909120600c60139092020101556003805483919083908110611b4357fe5b9060005260206000209060130201600b016000019080519060200190611b6a929190611e0b565b505060008054600101905550505050505050505050565b60038054600091906000198101908110611b9757fe5b906000526020600020906013020160060160020154905092915050565b6000611bbe6117cb565b905081600382815481101515611bd057fe5b9060005260206000209060130201600b0160000190805190602001906116aa929190611e0b565b600454610100900460ff1681565b6000611c0f6117cb565b905081600382815481101515611c2157fe5b60009182526020909120601390910201600d01805460ff19169115159190911790555050565b60038054600091906000198101908110611c5d57fe5b60009182526020909120601390910201600d015460ff169392505050565b60048054911515620100000262ff000019909216919091179055565b60038054600091906000198101908110611cad57fe5b9060005260206000209060130201600b0160010154905092915050565b60045460ff1681565b6000611cdd6117cb565b905081600382815481101515611cef57fe5b60009182526020909120601060139092020101555050565b600480549115156101000261ff0019909216919091179055565b6004805460ff1916911515919091179055565b6000611d3e6117cb565b905081600382815481101515611d5057fe5b60009182526020909120600860139092020101555050565b60025481565b6000611d786117cb565b905081600382815481101515611d8a57fe5b9060005260206000209060130201600301819055505050565b5080546000825560130290600052602060002090810190611dc49190611eb1565b50565b50805460018160011615610100020316600290046000825580601f10611ded5750611dc4565b601f016020900490600052602060002090810190611dc49190611f8e565b828054600181600116156101000203166002900490600052602060002090601f016020900481019282601f10611e4c57805160ff1916838001178555611e79565b82800160010185558215611e79579182015b82811115611e79578251825591602001919060010190611e5e565b50611e85929150611f8e565b5090565b8154818355818111156116aa576013028160130283600052602060002091820191016116aa91905b6117f991905b80821115611e85578054600160a060020a0319908116825560006001830181905560028301819055600383018190556004830181905560058301805460ff19169055600683018190556007830181905560088301819055600983018054909216909155600a8201819055600b820181611f308282611dc7565b506000600191909101819055600d8301805461ffff19169055600e83018054600160a060020a0319168155600f840182905560108401829055906011840181611f798282611dc7565b60018201600090555050505050601301611eb7565b6117f991905b80821115611e855760008155600101611f94565b6000611fb482356126a9565b9392505050565b6000611fb482356126b5565b6000611fb482356117f9565b6000611fb482356126c6565b6000601f82018313611ff057600080fd5b8135612003611ffe8261267e565b612658565b9150808252602083016020830185838301111561201f57600080fd5b61202a8382846126e0565b50505092915050565b60006040828403121561204557600080fd5b61204f6040612658565b9050600061205d8484611fa8565b825250602061206e84848301611fc7565b60208301525092915050565b60006020828403121561208c57600080fd5b60006120988484611fa8565b949350505050565b600080606083850312156120b357600080fd5b60006120bf8585611fa8565b92505060206120d085828601612033565b9150509250929050565b6000806000806000806000610100888a0312156120f657600080fd5b60006121028a8a611fa8565b97505060206121138a828b01612033565b96505060606121248a828b01611fa8565b95505060806121358a828b01611fc7565b94505060a06121468a828b01611fc7565b93505060c06121578a828b01611fc7565b92505060e08801356001604060020a0381111561217357600080fd5b61217f8a828b01611fdf565b91505092959891949750929550565b6000806000608084860312156121a357600080fd5b60006121af8686611fa8565b93505060206121c086828701612033565b92505060606121d186828701611fbb565b9150509250925092565b60008060008060a085870312156121f157600080fd5b60006121fd8787611fa8565b945050602061220e87828801612033565b935050606061221f87828801611fbb565b925050608061223087828801611fbb565b91505092959194509250565b6000806000806000806000806000806101608b8d03121561225c57600080fd5b60006122688d8d611fa8565b9a505060206122798d828e01611fc7565b995050604061228a8d828e01611fc7565b985050606061229b8d828e01611fc7565b97505060806122ac8d828e01611fc7565b96505060a06122bd8d828e01612033565b95505060e06122ce8d828e01611fc7565b9450506101006122e08d828e01611fbb565b9350506101206122f28d828e01611fc7565b9250506101408b01356001604060020a0381111561230f57600080fd5b61231b8d828e01611fdf565b9150509295989b9194979a5092959850565b60008060006080848603121561234257600080fd5b600061234e8686611fa8565b935050602061235f86828701611fc7565b92505060406121d186828701612033565b60006020828403121561238257600080fd5b60006120988484611fbb565b6000602082840312156123a057600080fd5b60006120988484611fc7565b6000602082840312156123be57600080fd5b60006120988484611fd3565b6000602082840312156123dc57600080fd5b81356001604060020a038111156123f257600080fd5b61209884828501611fdf565b612407816126a9565b82525050565b612407816126b5565b612407816117f9565b612407816126d5565b6000612433826126a5565b8084526124478160208601602086016126ec565b61245081612718565b9093016020019392505050565b8051606083019061246e8482612416565b5060208201516124816020850182612416565b5060408201516124946040850182612416565b50505050565b805160408301906124ab84826123fe565b5060208201516124946020850182612416565b805160009060808401906124d285826123fe565b5060208301516124e56020860182612416565b5060408301516124f86040860182612416565b50606083015184820360608601526125108282612519565b95945050505050565b80516040808452600091908401906125318282612428565b91505060208301516125466020860182612416565b509392505050565b60208101610ce282846123fe565b6101e0810161256b828f6123fe565b612578602083018e612416565b612585604083018d612416565b612592606083018c612416565b61259f608083018b612416565b6125ac60a083018a61241f565b6125b960c083018961245d565b6125c761012083018861249a565b8181036101608301526125da8187612519565b90506125ea61018083018661240d565b6125f86101a083018561240d565b8181036101c083015261260b81846124be565b9e9d5050505050505050505050505050565b60208101610ce2828461240d565b60208101610ce28284612416565b60208101610ce2828461241f565b60208082528101611fb48184612428565b6040518181016001604060020a038111828210171561267657600080fd5b604052919050565b60006001604060020a0382111561269457600080fd5b506020601f91909101601f19160190565b5190565b600160a060020a031690565b151590565b600060028210611e8557fe5b600060028210611e8557600080fd5b6000610ce2826126ba565b82818337506000910152565b60005b838110156127075781810151838201526020016126ef565b838111156124945750506000910152565b601f01601f1916905600a265627a7a72305820c45e9614f41775ebe0af65ea05312108a220456a173909f3d18d0218eebc5ada6c6578706572696d656e74616cf50037",
  "source": "/*\n * Hubii Nahmii\n *\n * Compliant with the Hubii Nahmii specification v0.12.\n *\n * Copyright (C) 2017-2018 Hubii AS\n */\n\npragma solidity ^0.4.25;\npragma experimental ABIEncoderV2;\n\nimport {SettlementChallengeTypesLib} from \"../SettlementChallengeTypesLib.sol\";\nimport {MonetaryTypesLib} from \"../MonetaryTypesLib.sol\";\n\n/**\n * @title MockedDriipSettlementChallengeState\n * @notice Mocked implementation of driip settlement challenge state contract\n */\ncontract MockedDriipSettlementChallengeState {\n\n    uint256 public _addProposalsCount;\n    uint256 public _terminateProposalsCount;\n    uint256 public _removeProposalsCount;\n    SettlementChallengeTypesLib.Proposal[] public _proposals;\n    bool public _proposal;\n    bool public _proposalTerminated;\n    bool public _proposalExpired;\n\n    function _reset()\n    public\n    {\n        delete _addProposalsCount;\n        delete _terminateProposalsCount;\n        delete _removeProposalsCount;\n        delete _proposals;\n        delete _proposal;\n        delete _proposalTerminated;\n        delete _proposalExpired;\n    }\n\n    function initiateProposal(address wallet, uint256 nonce, int256 cumulativeTransferAmount, int256 stageAmount,\n        int256 targetBalanceAmount, MonetaryTypesLib.Currency currency, uint256 referenceBlockNumber, bool walletInitiated,\n        bytes32 challengedHash, string challengedKind)\n    public\n    {\n        uint256 index = _proposals.length++;\n\n        _proposals[index].wallet = wallet;\n        _proposals[index].nonce = nonce;\n        _proposals[index].amounts.cumulativeTransfer = cumulativeTransferAmount;\n        _proposals[index].amounts.stage = stageAmount;\n        _proposals[index].amounts.targetBalance = targetBalanceAmount;\n        _proposals[index].currency = currency;\n        _proposals[index].referenceBlockNumber = referenceBlockNumber;\n        _proposals[index].definitionBlockNumber = block.number;\n        _proposals[index].walletInitiated = walletInitiated;\n\n        _proposals[index].challenged.hash = challengedHash;\n        _proposals[index].challenged.kind = challengedKind;\n\n        _addProposalsCount++;\n    }\n\n    function terminateProposal(address wallet, MonetaryTypesLib.Currency currency, bool)\n    public\n    {\n        uint256 index = _addProposalIfNone();\n\n        _proposals[index].wallet = wallet;\n        _proposals[index].currency = currency;\n        _proposals[index].terminated = true;\n\n        _terminateProposalsCount++;\n    }\n\n    function terminateProposal(address wallet, MonetaryTypesLib.Currency currency, bool,\n        bool walletTerminated)\n    public\n    {\n        uint256 index = _addProposalIfNone();\n\n        _proposals[index].wallet = wallet;\n        _proposals[index].currency = currency;\n        _proposals[index].walletInitiated = walletTerminated;\n        _proposals[index].terminated = true;\n\n        _terminateProposalsCount++;\n    }\n\n    function removeProposal(address wallet, MonetaryTypesLib.Currency currency)\n    public\n    {\n        uint256 index = _addProposalIfNone();\n\n        _proposals[index].wallet = wallet;\n        _proposals[index].currency = currency;\n\n        _removeProposalsCount++;\n    }\n\n    function removeProposal(address wallet, MonetaryTypesLib.Currency currency, bool walletTerminated)\n    public\n    {\n        uint256 index = _addProposalIfNone();\n\n        _proposals[index].wallet = wallet;\n        _proposals[index].currency = currency;\n        _proposals[index].walletInitiated = walletTerminated;\n\n        _removeProposalsCount++;\n    }\n\n    function disqualifyProposal(address challengedWallet, MonetaryTypesLib.Currency currency, address challengerWallet,\n        uint256 blockNumber, uint256 candidateNonce, bytes32 candidateHash, string candidateKind)\n    public\n    {\n        uint256 index = _addProposalIfNone();\n\n        _proposals[index].wallet = challengedWallet;\n        _proposals[index].currency = currency;\n        _proposals[index].status = SettlementChallengeTypesLib.Status.Disqualified;\n        _proposals[index].disqualification.challenger = challengerWallet;\n        _proposals[index].disqualification.nonce = candidateNonce;\n        _proposals[index].disqualification.blockNumber = blockNumber;\n        _proposals[index].disqualification.candidate.hash = candidateHash;\n        _proposals[index].disqualification.candidate.kind = candidateKind;\n    }\n\n    function qualifyProposal(address wallet, MonetaryTypesLib.Currency currency)\n    public\n    {\n        uint256 index = _addProposalIfNone();\n\n        _proposals[index].wallet = wallet;\n        _proposals[index].currency = currency;\n        _proposals[index].status = SettlementChallengeTypesLib.Status.Qualified;\n        delete _proposals[index].disqualification;\n    }\n\n    function hasProposal(address, uint256, MonetaryTypesLib.Currency)\n    public\n    view\n    returns (bool)\n    {\n        return _proposal;\n    }\n\n    function hasProposal(address, MonetaryTypesLib.Currency)\n    public\n    view\n    returns (bool)\n    {\n        return _proposal;\n    }\n\n    function _setProposal(bool proposal)\n    public\n    {\n        _proposal = proposal;\n    }\n\n    function hasProposalTerminated(address, MonetaryTypesLib.Currency)\n    public\n    view\n    returns (bool)\n    {\n        return _proposalTerminated;\n    }\n\n    function _setProposalTerminated(bool proposalTerminated)\n    public\n    {\n        _proposalTerminated = proposalTerminated;\n    }\n\n    function hasProposalExpired(address, MonetaryTypesLib.Currency)\n    public\n    view\n    returns (bool)\n    {\n        return _proposalExpired;\n    }\n\n    function _setProposalExpired(bool proposalExpired)\n    public\n    {\n        _proposalExpired = proposalExpired;\n    }\n\n    function proposalNonce(address, MonetaryTypesLib.Currency)\n    public\n    view\n    returns (uint256)\n    {\n        return _proposals[_proposals.length - 1].nonce;\n    }\n\n    function _setProposalNonce(uint256 _proposalNonce)\n    public\n    {\n        uint256 index = _addProposalIfNone();\n        _proposals[index].nonce = _proposalNonce;\n    }\n\n    function proposalReferenceBlockNumber(address, MonetaryTypesLib.Currency)\n    public\n    view\n    returns (uint256)\n    {\n        return _proposals[_proposals.length - 1].referenceBlockNumber;\n    }\n\n    function _setProposalReferenceBlockNumber(uint256 _proposalReferenceBlockNumber)\n    public\n    {\n        uint256 index = _addProposalIfNone();\n        _proposals[index].referenceBlockNumber = _proposalReferenceBlockNumber;\n    }\n\n    function proposalDefinitionBlockNumber(address, MonetaryTypesLib.Currency)\n    public\n    view\n    returns (uint256)\n    {\n        return _proposals[_proposals.length - 1].definitionBlockNumber;\n    }\n\n    function _setProposalDefinitionBlockNumber(uint256 _proposalDefinitionBlockNumber)\n    public\n    {\n        uint256 index = _addProposalIfNone();\n        _proposals[index].definitionBlockNumber = _proposalDefinitionBlockNumber;\n    }\n\n    function proposalExpirationTime(address, MonetaryTypesLib.Currency)\n    public\n    view\n    returns (uint256)\n    {\n        return _proposals[_proposals.length - 1].expirationTime;\n    }\n\n    function _setProposalExpirationTime(uint256 _proposalExpirationTime)\n    public\n    {\n        uint256 index = _addProposalIfNone();\n        _proposals[index].expirationTime = _proposalExpirationTime;\n    }\n\n    function proposalStatus(address, MonetaryTypesLib.Currency)\n    public\n    view\n    returns (SettlementChallengeTypesLib.Status)\n    {\n        return _proposals[_proposals.length - 1].status;\n    }\n\n    function _setProposalStatus(SettlementChallengeTypesLib.Status _proposalStatus)\n    public\n    {\n        uint256 index = _addProposalIfNone();\n        _proposals[index].status = _proposalStatus;\n    }\n\n    function proposalCumulativeTransferAmount(address, MonetaryTypesLib.Currency)\n    public\n    view\n    returns (int256)\n    {\n        return _proposals[_proposals.length - 1].amounts.cumulativeTransfer;\n    }\n\n    function _setProposalCumulativeTransferAmount(int256 _proposalCumulativeTransferAmount)\n    public\n    {\n        uint256 index = _addProposalIfNone();\n        _proposals[index].amounts.cumulativeTransfer = _proposalCumulativeTransferAmount;\n    }\n\n    function proposalStageAmount(address, MonetaryTypesLib.Currency)\n    public\n    view\n    returns (int256)\n    {\n        return _proposals[_proposals.length - 1].amounts.stage;\n    }\n\n    function _setProposalStageAmount(int256 _proposalStageAmount)\n    public\n    {\n        uint256 index = _addProposalIfNone();\n        _proposals[index].amounts.stage = _proposalStageAmount;\n    }\n\n    function proposalTargetBalanceAmount(address, MonetaryTypesLib.Currency)\n    public\n    view\n    returns (int256)\n    {\n        return _proposals[_proposals.length - 1].amounts.targetBalance;\n    }\n\n    function _setProposalTargetBalanceAmount(int256 _proposalTargetBalanceAmount)\n    public\n    {\n        uint256 index = _addProposalIfNone();\n        _proposals[index].amounts.targetBalance = _proposalTargetBalanceAmount;\n    }\n\n    function proposalChallengedHash(address, MonetaryTypesLib.Currency)\n    public\n    view\n    returns (bytes32)\n    {\n        return _proposals[_proposals.length - 1].challenged.hash;\n    }\n\n    function _setProposalChallengedHash(bytes32 _proposalChallengedHash)\n    public\n    {\n        uint256 index = _addProposalIfNone();\n        _proposals[index].challenged.hash = _proposalChallengedHash;\n    }\n\n    function proposalChallengedKind(address, MonetaryTypesLib.Currency)\n    public\n    view\n    returns (string)\n    {\n        return _proposals[_proposals.length - 1].challenged.kind;\n    }\n\n    function _setProposalChallengedKind(string _proposalChallengedKind)\n    public\n    {\n        uint256 index = _addProposalIfNone();\n        _proposals[index].challenged.kind = _proposalChallengedKind;\n    }\n\n    function proposalWalletInitiated(address, MonetaryTypesLib.Currency)\n    public\n    view\n    returns (bool)\n    {\n        return _proposals[_proposals.length - 1].walletInitiated;\n    }\n\n    function _setProposalWalletInitiated(bool _proposalWalletInitiated)\n    public\n    {\n        uint256 index = _addProposalIfNone();\n        _proposals[index].walletInitiated = _proposalWalletInitiated;\n    }\n\n    function proposalDisqualificationChallenger(address, MonetaryTypesLib.Currency)\n    public\n    view\n    returns (address)\n    {\n        return _proposals[_proposals.length - 1].disqualification.challenger;\n    }\n\n    function _setProposalDisqualificationChallenger(address _proposalDisqualificationChallenger)\n    public\n    {\n        uint256 index = _addProposalIfNone();\n        _proposals[index].disqualification.challenger = _proposalDisqualificationChallenger;\n    }\n\n    function proposalDisqualificationNonce(address, MonetaryTypesLib.Currency)\n    public\n    view\n    returns (uint256)\n    {\n        return _proposals[_proposals.length - 1].disqualification.nonce;\n    }\n\n    function _setProposalDisqualificationNonce(uint256 _proposalDisqualificationNonce)\n    public\n    {\n        uint256 index = _addProposalIfNone();\n        _proposals[index].disqualification.nonce = _proposalDisqualificationNonce;\n    }\n\n    function proposalDisqualificationBlockNumber(address, MonetaryTypesLib.Currency)\n    public\n    view\n    returns (uint256)\n    {\n        return _proposals[_proposals.length - 1].disqualification.blockNumber;\n    }\n\n    function _setProposalDisqualificationBlockNumber(uint256 _proposalDisqualificationBlockNumber)\n    public\n    {\n        uint256 index = _addProposalIfNone();\n        _proposals[index].disqualification.blockNumber = _proposalDisqualificationBlockNumber;\n    }\n\n    function proposalDisqualificationCandidateHash(address, MonetaryTypesLib.Currency)\n    public\n    view\n    returns (bytes32)\n    {\n        return _proposals[_proposals.length - 1].disqualification.candidate.hash;\n    }\n\n    function _setProposalDisqualificationCandidateHash(bytes32 _proposalDisqualificationCandidateHash)\n    public\n    {\n        uint256 index = _addProposalIfNone();\n        _proposals[index].disqualification.candidate.hash = _proposalDisqualificationCandidateHash;\n    }\n\n    function proposalDisqualificationCandidateKind(address, MonetaryTypesLib.Currency)\n    public\n    view\n    returns (string)\n    {\n        return _proposals[_proposals.length - 1].disqualification.candidate.kind;\n    }\n\n    function _setProposalDisqualificationCandidateKind(string _proposalDisqualificationCandidateKind)\n    public\n    {\n        uint256 index = _addProposalIfNone();\n        _proposals[index].disqualification.candidate.kind = _proposalDisqualificationCandidateKind;\n    }\n\n    function _addProposalIfNone()\n    public\n    returns (uint256)\n    {\n        return _proposals.length > 0 ? _proposals.length - 1 : _proposals.length++;\n    }\n}",
  "sourcePath": "/opt/buildagent/work/855e104608380c36/contracts/test/MockedDriipSettlementChallengeState.sol",
  "compiler": {
    "name": "solc",
    "version": "0.4.25+commit.59dbf8f1.Emscripten.clang"
  },
  "schemaVersion": "2.0.2",
  "updatedAt": "2019-04-17T19:44:57.856Z"
}