{
  "contractName": "MockedDriipSettlementState",
  "abi": [
    {
      "constant": true,
      "inputs": [
        {
          "name": "",
          "type": "uint256"
        }
      ],
      "name": "settlements",
      "outputs": [
        {
          "name": "settledKind",
          "type": "string"
        },
        {
          "name": "settledHash",
          "type": "bytes32"
        },
        {
          "components": [
            {
              "name": "nonce",
              "type": "uint256"
            },
            {
              "name": "wallet",
              "type": "address"
            },
            {
              "name": "done",
              "type": "bool"
            }
          ],
          "name": "origin",
          "type": "tuple"
        },
        {
          "components": [
            {
              "name": "nonce",
              "type": "uint256"
            },
            {
              "name": "wallet",
              "type": "address"
            },
            {
              "name": "done",
              "type": "bool"
            }
          ],
          "name": "target",
          "type": "tuple"
        }
      ],
      "payable": false,
      "stateMutability": "view",
      "type": "function"
    },
    {
      "constant": true,
      "inputs": [],
      "name": "_totalFee",
      "outputs": [
        {
          "name": "nonce",
          "type": "uint256"
        },
        {
          "name": "amount",
          "type": "int256"
        }
      ],
      "payable": false,
      "stateMutability": "view",
      "type": "function"
    },
    {
      "constant": true,
      "inputs": [],
      "name": "_maxNonceByWalletAndCurrency",
      "outputs": [
        {
          "name": "",
          "type": "uint256"
        }
      ],
      "payable": false,
      "stateMutability": "view",
      "type": "function"
    },
    {
      "constant": true,
      "inputs": [],
      "name": "maxDriipNonce",
      "outputs": [
        {
          "name": "",
          "type": "uint256"
        }
      ],
      "payable": false,
      "stateMutability": "view",
      "type": "function"
    },
    {
      "constant": false,
      "inputs": [],
      "name": "_reset",
      "outputs": [],
      "payable": false,
      "stateMutability": "nonpayable",
      "type": "function"
    },
    {
      "constant": false,
      "inputs": [
        {
          "name": "settledKind",
          "type": "string"
        },
        {
          "name": "settledHash",
          "type": "bytes32"
        },
        {
          "name": "originWallet",
          "type": "address"
        },
        {
          "name": "originNonce",
          "type": "uint256"
        },
        {
          "name": "targetWallet",
          "type": "address"
        },
        {
          "name": "targetNonce",
          "type": "uint256"
        }
      ],
      "name": "initSettlement",
      "outputs": [],
      "payable": false,
      "stateMutability": "nonpayable",
      "type": "function"
    },
    {
      "constant": true,
      "inputs": [],
      "name": "settlementsCount",
      "outputs": [
        {
          "name": "",
          "type": "uint256"
        }
      ],
      "payable": false,
      "stateMutability": "view",
      "type": "function"
    },
    {
      "constant": true,
      "inputs": [
        {
          "name": "",
          "type": "address"
        },
        {
          "name": "",
          "type": "uint256"
        },
        {
          "name": "settlementRole",
          "type": "uint8"
        }
      ],
      "name": "isSettlementRoleDone",
      "outputs": [
        {
          "name": "",
          "type": "bool"
        }
      ],
      "payable": false,
      "stateMutability": "view",
      "type": "function"
    },
    {
      "constant": false,
      "inputs": [
        {
          "name": "",
          "type": "address"
        },
        {
          "name": "",
          "type": "uint256"
        },
        {
          "name": "settlementRole",
          "type": "uint8"
        },
        {
          "name": "done",
          "type": "bool"
        }
      ],
      "name": "setSettlementRoleDone",
      "outputs": [],
      "payable": false,
      "stateMutability": "nonpayable",
      "type": "function"
    },
    {
      "constant": false,
      "inputs": [],
      "name": "_addSettlementIfNone",
      "outputs": [
        {
          "name": "",
          "type": "uint256"
        }
      ],
      "payable": false,
      "stateMutability": "nonpayable",
      "type": "function"
    },
    {
      "constant": true,
      "inputs": [
        {
          "name": "",
          "type": "address"
        },
        {
          "components": [
            {
              "name": "ct",
              "type": "address"
            },
            {
              "name": "id",
              "type": "uint256"
            }
          ],
          "name": "",
          "type": "tuple"
        }
      ],
      "name": "maxNonceByWalletAndCurrency",
      "outputs": [
        {
          "name": "",
          "type": "uint256"
        }
      ],
      "payable": false,
      "stateMutability": "view",
      "type": "function"
    },
    {
      "constant": false,
      "inputs": [
        {
          "name": "",
          "type": "address"
        },
        {
          "components": [
            {
              "name": "ct",
              "type": "address"
            },
            {
              "name": "id",
              "type": "uint256"
            }
          ],
          "name": "",
          "type": "tuple"
        },
        {
          "name": "maxNonce",
          "type": "uint256"
        }
      ],
      "name": "setMaxNonceByWalletAndCurrency",
      "outputs": [],
      "payable": false,
      "stateMutability": "nonpayable",
      "type": "function"
    },
    {
      "constant": false,
      "inputs": [
        {
          "name": "_maxDriipNonce",
          "type": "uint256"
        }
      ],
      "name": "setMaxDriipNonce",
      "outputs": [],
      "payable": false,
      "stateMutability": "nonpayable",
      "type": "function"
    },
    {
      "constant": true,
      "inputs": [
        {
          "name": "",
          "type": "address"
        },
        {
          "name": "",
          "type": "address"
        },
        {
          "name": "",
          "type": "address"
        },
        {
          "components": [
            {
              "name": "ct",
              "type": "address"
            },
            {
              "name": "id",
              "type": "uint256"
            }
          ],
          "name": "",
          "type": "tuple"
        }
      ],
      "name": "totalFee",
      "outputs": [
        {
          "components": [
            {
              "name": "nonce",
              "type": "uint256"
            },
            {
              "name": "amount",
              "type": "int256"
            }
          ],
          "name": "",
          "type": "tuple"
        }
      ],
      "payable": false,
      "stateMutability": "view",
      "type": "function"
    },
    {
      "constant": false,
      "inputs": [
        {
          "name": "",
          "type": "address"
        },
        {
          "name": "",
          "type": "address"
        },
        {
          "name": "",
          "type": "address"
        },
        {
          "components": [
            {
              "name": "ct",
              "type": "address"
            },
            {
              "name": "id",
              "type": "uint256"
            }
          ],
          "name": "",
          "type": "tuple"
        },
        {
          "components": [
            {
              "name": "nonce",
              "type": "uint256"
            },
            {
              "name": "amount",
              "type": "int256"
            }
          ],
          "name": "fee",
          "type": "tuple"
        }
      ],
      "name": "setTotalFee",
      "outputs": [],
      "payable": false,
      "stateMutability": "nonpayable",
      "type": "function"
    }
  ],
  "bytecode": "0x608060405234801561001057600080fd5b50610eaf806100206000396000f3006080604052600436106100c15763ffffffff60e060020a60003504166308df7dc881146100c65780631423ba38146100ff5780631592f0ab14610121578063283f7820146101365780633858654b1461015957806348fcb72c146101865780636b184dff146101a65780636e17226a146101d3578063741ee9a0146102005780637657768c146102155780638772531314610235578063897d36aa146102555780638c6913bc1461026a578063a3c9232c1461027f578063e86c7f8d14610294575b600080fd5b3480156100d257600080fd5b506100e66100e1366004610c51565b6102b4565b6040516100f69493929190610d3c565b60405180910390f35b34801561010b57600080fd5b5061011f61011a366004610acf565b6103d4565b005b34801561012d57600080fd5b5061011f6103db565b34801561014257600080fd5b5061014b6103fc565b6040516100f6929190610d9c565b34801561016557600080fd5b50610179610174366004610a95565b610405565b6040516100f69190610d8e565b34801561019257600080fd5b5061011f6101a1366004610c51565b61040f565b3480156101b257600080fd5b506101c66101c1366004610b1c565b610414565b6040516100f69190610d2e565b3480156101df57600080fd5b506101f36101ee3660046109bf565b6104ad565b6040516100f69190610d80565b34801561020c57600080fd5b506101796104d5565b34801561022157600080fd5b5061011f610230366004610a20565b6104db565b34801561024157600080fd5b5061011f610250366004610bb4565b6104ed565b34801561026157600080fd5b5061017961062e565b34801561027657600080fd5b50610179610634565b34801561028b57600080fd5b5061017961063b565b3480156102a057600080fd5b5061011f6102af366004610b5f565b610669565b60008054829081106102c257fe5b60009182526020918290206006919091020180546040805160026001841615610100026000190190931692909204601f81018590048502830185019091528082529193509183919083018282801561035b5780601f106103305761010080835404028352916020019161035b565b820191906000526020600020905b81548152906001019060200180831161033e57829003601f168201915b50505060018401546040805160608181018352600288015482526003880154600160a060020a0380821660208086019190915260ff60a060020a9384900481161515868801528651948501875260048c015485526005909b01549182169084015204909716151591870191909152939490939250905084565b6001555050565b6103e6600080610714565b6000600181905560028190556003819055600455565b60035460045482565b6001545b92915050565b600255565b600080548190151561042957600091506104a5565b506000546000190182600181111561043d57fe5b151561047657600080548290811061045157fe5b600091825260209091206006909102016003015460a060020a900460ff1691506104a5565b600080548290811061048457fe5b600091825260209091206006909102016005015460a060020a900460ff1691505b509392505050565b6104b5610738565b506040805180820190915260035481526004546020820152949350505050565b60015481565b80516003556020015160045550505050565b60006104f761063b565b90508660008281548110151561050957fe5b9060005260206000209060060201600001908051906020019061052d92919061074f565b508560008281548110151561053e57fe5b6000918252602082206001600690920201019190915580548591908390811061056357fe5b9060005260206000209060060201600201600001819055508460008281548110151561058b57fe5b600091825260208220600691909102016003018054600160a060020a031916600160a060020a0393909316929092179091558054839190839081106105cc57fe5b906000526020600020906006020160040160000181905550826000828154811015156105f457fe5b600091825260209091206006909102016005018054600160a060020a031916600160a060020a039290921691909117905550505050505050565b60025481565b6000545b90565b60008054811061065c57600080549061065790600183016107cd565b610664565b600054600019015b905090565b600061067361063b565b905082600181111561068157fe5b15156106cc578160008281548110151561069757fe5b60009182526020909120600360069092020101805491151560a060020a0260a060020a60ff021990921691909117905561070d565b816000828154811015156106dc57fe5b60009182526020909120600560069092020101805491151560a060020a0260a060020a60ff02199092169190911790555b5050505050565b508054600082556006029060005260206000209081019061073591906107fe565b50565b604080518082019091526000808252602082015290565b828054600181600116156101000203166002900490600052602060002090601f016020900481019282601f1061079057805160ff19168380011785556107bd565b828001600101855582156107bd579182015b828111156107bd5782518255916020019190600101906107a2565b506107c9929150610859565b5090565b8154818355818111156107f9576006028160060283600052602060002091820191016107f991906107fe565b505050565b61063891905b808211156107c95760006108188282610873565b5060006001820181905560028201819055600382018054600160a860020a031990811690915560048301919091556005820180549091169055600601610804565b61063891905b808211156107c9576000815560010161085f565b50805460018160011615610100020316600290046000825580601f106108995750610735565b601f0160209004906000526020600020908101906107359190610859565b60006108c38235610e08565b9392505050565b60006108c38235610e14565b60006108c38235610638565b60006108c38235610e19565b60006108c38235610e24565b6000601f8201831361090b57600080fd5b813561091e61091982610ddd565b610db7565b9150808252602083016020830185838301111561093a57600080fd5b610945838284610e33565b50505092915050565b60006040828403121561096057600080fd5b61096a6040610db7565b9050600061097884846108b7565b8252506020610989848483016108d6565b60208301525092915050565b6000604082840312156109a757600080fd5b6109b16040610db7565b9050600061097884846108d6565b60008060008060a085870312156109d557600080fd5b60006109e187876108b7565b94505060206109f2878288016108e2565b9350506040610a03878288016108b7565b9250506060610a148782880161094e565b91505092959194509250565b600080600080600060e08688031215610a3857600080fd5b6000610a4488886108b7565b9550506020610a55888289016108e2565b9450506040610a66888289016108b7565b9350506060610a778882890161094e565b92505060a0610a8888828901610995565b9150509295509295909350565b60008060608385031215610aa857600080fd5b6000610ab485856108b7565b9250506020610ac58582860161094e565b9150509250929050565b600080600060808486031215610ae457600080fd5b6000610af086866108b7565b9350506020610b018682870161094e565b9250506060610b12868287016108d6565b9150509250925092565b600080600060608486031215610b3157600080fd5b6000610b3d86866108b7565b9350506020610b4e868287016108d6565b9250506040610b12868287016108ee565b60008060008060808587031215610b7557600080fd5b6000610b8187876108b7565b9450506020610b92878288016108d6565b9350506040610ba3878288016108ee565b9250506060610a14878288016108ca565b60008060008060008060c08789031215610bcd57600080fd5b86356001604060020a03811115610be357600080fd5b610bef89828a016108fa565b9650506020610c0089828a016108d6565b9550506040610c1189828a016108b7565b9450506060610c2289828a016108d6565b9350506080610c3389828a016108b7565b92505060a0610c4489828a016108d6565b9150509295509295509295565b600060208284031215610c6357600080fd5b6000610c6f84846108d6565b949350505050565b610c8081610e08565b82525050565b610c8081610e14565b610c8081610638565b6000610ca382610e04565b808452610cb7816020860160208601610e3f565b610cc081610e6b565b9093016020019392505050565b80516040830190610cde8482610c8f565b506020820151610cf16020850182610c8f565b50505050565b80516060830190610d088482610c8f565b506020820151610d1b6020850182610c77565b506040820151610cf16040850182610c86565b602081016104098284610c86565b6101008082528101610d4e8187610c98565b9050610d5d6020830186610c8f565b610d6a6040830185610cf7565b610d7760a0830184610cf7565b95945050505050565b604081016104098284610ccd565b602081016104098284610c8f565b60408101610daa8285610c8f565b6108c36020830184610c8f565b6040518181016001604060020a0381118282101715610dd557600080fd5b604052919050565b60006001604060020a03821115610df357600080fd5b506020601f91909101601f19160190565b5190565b600160a060020a031690565b151590565b600061040982610e08565b6000600282106107c957600080fd5b82818337506000910152565b60005b83811015610e5a578181015183820152602001610e42565b83811115610cf15750506000910152565b601f01601f1916905600a265627a7a72305820b24596d05f13d6bae762276a8136ded116b1f43de24301d92bd13ff992ac30256c6578706572696d656e74616cf50037",
  "source": "/*\n * Hubii Nahmii\n *\n * Compliant with the Hubii Nahmii specification v0.12.\n *\n * Copyright (C) 2017-2018 Hubii AS\n */\n\npragma solidity ^0.4.25;\n\nimport {DriipSettlementTypesLib} from \"../DriipSettlementTypesLib.sol\";\nimport {MonetaryTypesLib} from \"../MonetaryTypesLib.sol\";\nimport \"../Beneficiary.sol\";\npragma experimental ABIEncoderV2;\n\n/**\n * @title MockedDriipSettlementState\n * @notice Mocked implementation of driip settlement state contract\n */\ncontract MockedDriipSettlementState {\n\n    DriipSettlementTypesLib.Settlement[] public settlements;\n    uint256 public _maxNonceByWalletAndCurrency;\n    uint256 public maxDriipNonce;\n    MonetaryTypesLib.NoncedAmount public _totalFee;\n\n    function _reset()\n    public\n    {\n        delete settlements;\n        delete _maxNonceByWalletAndCurrency;\n        delete maxDriipNonce;\n        delete _totalFee;\n    }\n\n    function initSettlement(string settledKind, bytes32 settledHash, address originWallet,\n        uint256 originNonce, address targetWallet, uint256 targetNonce)\n    public\n    {\n        uint256 index = _addSettlementIfNone();\n        settlements[index].settledKind = settledKind;\n        settlements[index].settledHash = settledHash;\n        settlements[index].origin.nonce = originNonce;\n        settlements[index].origin.wallet = originWallet;\n        settlements[index].target.nonce = targetNonce;\n        settlements[index].target.wallet = targetWallet;\n    }\n\n    function settlementsCount()\n    public\n    view\n    returns (uint256)\n    {\n        return settlements.length;\n    }\n\n    function isSettlementRoleDone(address, uint256,\n        DriipSettlementTypesLib.SettlementRole settlementRole)\n    public\n    view\n    returns (bool)\n    {\n        if (0 == settlements.length)\n            return false;\n\n        uint256 index = settlements.length - 1;\n\n        if (DriipSettlementTypesLib.SettlementRole.Origin == settlementRole)\n            return settlements[index].origin.done;\n        else\n            return settlements[index].target.done;\n    }\n\n    function setSettlementRoleDone(address, uint256,\n        DriipSettlementTypesLib.SettlementRole settlementRole,\n        bool done)\n    public\n    {\n        uint256 index = _addSettlementIfNone();\n\n        if (DriipSettlementTypesLib.SettlementRole.Origin == settlementRole)\n            settlements[index].origin.done = done;\n        else\n            settlements[index].target.done = done;\n    }\n\n    function _addSettlementIfNone()\n    public\n    returns (uint256)\n    {\n        return settlements.length > 0 ? settlements.length - 1 : settlements.length++;\n    }\n\n    function maxNonceByWalletAndCurrency(address, MonetaryTypesLib.Currency)\n    public\n    view\n    returns (uint256)\n    {\n        return _maxNonceByWalletAndCurrency;\n    }\n\n    function setMaxNonceByWalletAndCurrency(address, MonetaryTypesLib.Currency,\n        uint256 maxNonce)\n    public\n    {\n        _maxNonceByWalletAndCurrency = maxNonce;\n    }\n\n    function setMaxDriipNonce(uint256 _maxDriipNonce)\n    public\n    {\n        maxDriipNonce = _maxDriipNonce;\n    }\n\n    function totalFee(address, Beneficiary, address, MonetaryTypesLib.Currency)\n    public\n    view\n    returns (MonetaryTypesLib.NoncedAmount)\n    {\n        return _totalFee;\n    }\n\n    function setTotalFee(address, Beneficiary, address, MonetaryTypesLib.Currency,\n        MonetaryTypesLib.NoncedAmount fee)\n    public\n    {\n        _totalFee = fee;\n    }\n}",
  "sourcePath": "/opt/buildagent/work/855e104608380c36/contracts/test/MockedDriipSettlementState.sol",
  "compiler": {
    "name": "solc",
    "version": "0.4.25+commit.59dbf8f1.Emscripten.clang"
  },
  "schemaVersion": "2.0.2",
  "updatedAt": "2019-04-17T19:44:57.862Z"
}