{
  "contractName": "MockedSecurityBond",
  "abi": [
    {
      "constant": true,
      "inputs": [
        {
          "name": "",
          "type": "uint256"
        }
      ],
      "name": "absoluteRewards",
      "outputs": [
        {
          "name": "wallet",
          "type": "address"
        },
        {
          "name": "amount",
          "type": "int256"
        },
        {
          "components": [
            {
              "name": "ct",
              "type": "address"
            },
            {
              "name": "id",
              "type": "uint256"
            }
          ],
          "name": "currency",
          "type": "tuple"
        },
        {
          "name": "unlockTime",
          "type": "uint256"
        }
      ],
      "payable": false,
      "stateMutability": "view",
      "type": "function"
    },
    {
      "constant": true,
      "inputs": [
        {
          "name": "",
          "type": "uint256"
        }
      ],
      "name": "absoluteDeprivals",
      "outputs": [
        {
          "name": "wallet",
          "type": "address"
        },
        {
          "components": [
            {
              "name": "ct",
              "type": "address"
            },
            {
              "name": "id",
              "type": "uint256"
            }
          ],
          "name": "currency",
          "type": "tuple"
        }
      ],
      "payable": false,
      "stateMutability": "view",
      "type": "function"
    },
    {
      "constant": true,
      "inputs": [
        {
          "name": "",
          "type": "uint256"
        }
      ],
      "name": "fractionalRewards",
      "outputs": [
        {
          "name": "wallet",
          "type": "address"
        },
        {
          "name": "fraction",
          "type": "uint256"
        },
        {
          "name": "unlockTime",
          "type": "uint256"
        }
      ],
      "payable": false,
      "stateMutability": "view",
      "type": "function"
    },
    {
      "constant": true,
      "inputs": [
        {
          "name": "",
          "type": "uint256"
        }
      ],
      "name": "fractionalDeprivals",
      "outputs": [
        {
          "name": "",
          "type": "address"
        }
      ],
      "payable": false,
      "stateMutability": "view",
      "type": "function"
    },
    {
      "inputs": [],
      "payable": false,
      "stateMutability": "nonpayable",
      "type": "constructor"
    },
    {
      "anonymous": false,
      "inputs": [
        {
          "indexed": false,
          "name": "wallet",
          "type": "address"
        },
        {
          "indexed": false,
          "name": "fraction",
          "type": "uint256"
        },
        {
          "indexed": false,
          "name": "unlockTimeoutInSeconds",
          "type": "uint256"
        }
      ],
      "name": "RewardFractionalEvent",
      "type": "event"
    },
    {
      "anonymous": false,
      "inputs": [
        {
          "indexed": false,
          "name": "wallet",
          "type": "address"
        },
        {
          "indexed": false,
          "name": "amount",
          "type": "int256"
        },
        {
          "indexed": false,
          "name": "currencyCt",
          "type": "address"
        },
        {
          "indexed": false,
          "name": "currencyId",
          "type": "uint256"
        },
        {
          "indexed": false,
          "name": "unlockTimeoutInSeconds",
          "type": "uint256"
        }
      ],
      "name": "RewardAbsoluteEvent",
      "type": "event"
    },
    {
      "anonymous": false,
      "inputs": [
        {
          "indexed": false,
          "name": "wallet",
          "type": "address"
        }
      ],
      "name": "DepriveFractionalEvent",
      "type": "event"
    },
    {
      "anonymous": false,
      "inputs": [
        {
          "indexed": false,
          "name": "wallet",
          "type": "address"
        },
        {
          "indexed": false,
          "name": "currencyCt",
          "type": "address"
        },
        {
          "indexed": false,
          "name": "currencyId",
          "type": "uint256"
        }
      ],
      "name": "DepriveAbsoluteEvent",
      "type": "event"
    },
    {
      "constant": false,
      "inputs": [],
      "name": "_reset",
      "outputs": [],
      "payable": false,
      "stateMutability": "nonpayable",
      "type": "function"
    },
    {
      "constant": true,
      "inputs": [
        {
          "name": "",
          "type": "address"
        },
        {
          "name": "",
          "type": "uint256"
        }
      ],
      "name": "depositedBalance",
      "outputs": [
        {
          "name": "",
          "type": "int256"
        }
      ],
      "payable": false,
      "stateMutability": "view",
      "type": "function"
    },
    {
      "constant": false,
      "inputs": [
        {
          "name": "balance",
          "type": "int256"
        }
      ],
      "name": "_setDepositedBalance",
      "outputs": [
        {
          "name": "",
          "type": "int256"
        }
      ],
      "payable": false,
      "stateMutability": "nonpayable",
      "type": "function"
    },
    {
      "constant": true,
      "inputs": [
        {
          "name": "",
          "type": "address"
        },
        {
          "name": "",
          "type": "uint256"
        },
        {
          "name": "",
          "type": "uint256"
        }
      ],
      "name": "depositedFractionalBalance",
      "outputs": [
        {
          "name": "",
          "type": "int256"
        }
      ],
      "payable": false,
      "stateMutability": "view",
      "type": "function"
    },
    {
      "constant": false,
      "inputs": [
        {
          "name": "balance",
          "type": "int256"
        }
      ],
      "name": "_setDepositedFractionalBalance",
      "outputs": [
        {
          "name": "",
          "type": "int256"
        }
      ],
      "payable": false,
      "stateMutability": "nonpayable",
      "type": "function"
    },
    {
      "constant": true,
      "inputs": [],
      "name": "_fractionalRewardsCount",
      "outputs": [
        {
          "name": "",
          "type": "uint256"
        }
      ],
      "payable": false,
      "stateMutability": "view",
      "type": "function"
    },
    {
      "constant": true,
      "inputs": [],
      "name": "_absoluteRewardsCount",
      "outputs": [
        {
          "name": "",
          "type": "uint256"
        }
      ],
      "payable": false,
      "stateMutability": "view",
      "type": "function"
    },
    {
      "constant": true,
      "inputs": [],
      "name": "_fractionalDeprivalsCount",
      "outputs": [
        {
          "name": "",
          "type": "uint256"
        }
      ],
      "payable": false,
      "stateMutability": "view",
      "type": "function"
    },
    {
      "constant": true,
      "inputs": [],
      "name": "_absoluteDeprivalsCount",
      "outputs": [
        {
          "name": "",
          "type": "uint256"
        }
      ],
      "payable": false,
      "stateMutability": "view",
      "type": "function"
    },
    {
      "constant": false,
      "inputs": [
        {
          "name": "wallet",
          "type": "address"
        },
        {
          "name": "fraction",
          "type": "uint256"
        },
        {
          "name": "unlockTimeoutInSeconds",
          "type": "uint256"
        }
      ],
      "name": "rewardFractional",
      "outputs": [],
      "payable": false,
      "stateMutability": "nonpayable",
      "type": "function"
    },
    {
      "constant": false,
      "inputs": [
        {
          "name": "wallet",
          "type": "address"
        },
        {
          "name": "amount",
          "type": "int256"
        },
        {
          "name": "currencyCt",
          "type": "address"
        },
        {
          "name": "currencyId",
          "type": "uint256"
        },
        {
          "name": "unlockTimeoutInSeconds",
          "type": "uint256"
        }
      ],
      "name": "rewardAbsolute",
      "outputs": [],
      "payable": false,
      "stateMutability": "nonpayable",
      "type": "function"
    },
    {
      "constant": false,
      "inputs": [
        {
          "name": "wallet",
          "type": "address"
        }
      ],
      "name": "depriveFractional",
      "outputs": [],
      "payable": false,
      "stateMutability": "nonpayable",
      "type": "function"
    },
    {
      "constant": false,
      "inputs": [
        {
          "name": "wallet",
          "type": "address"
        },
        {
          "name": "currencyCt",
          "type": "address"
        },
        {
          "name": "currencyId",
          "type": "uint256"
        }
      ],
      "name": "depriveAbsolute",
      "outputs": [],
      "payable": false,
      "stateMutability": "nonpayable",
      "type": "function"
    }
  ],
  "bytecode": "0x608060405234801561001057600080fd5b50610d45806100206000396000f3006080604052600436106100d75763ffffffff60e060020a6000350416631592f0ab81146100dc5780631f5dc1d5146100f3578063204093b91461011e5780634e791e0d1461014e578063574c508c1461016e5780635b217ff21461018e5780636491b03c146101bc57806372e2565e146101d1578063760b8292146101e65780637bf791b414610206578063832f7832146102265780638e9a9fb414610246578063a72148eb1461025b578063abdb29471461027b578063b4373c12146102aa578063bb4b96e5146102d7578063d92e5650146102f7575b600080fd5b3480156100e857600080fd5b506100f1610317565b005b3480156100ff57600080fd5b50610108610359565b6040516101159190610cf1565b60405180910390f35b34801561012a57600080fd5b5061013e610139366004610b9b565b610360565b6040516101159493929190610c7d565b34801561015a57600080fd5b506100f1610169366004610a6d565b6103be565b34801561017a57600080fd5b506100f1610189366004610a47565b6104d9565b34801561019a57600080fd5b506101ae6101a9366004610b9b565b61055f565b604051610115929190610cbb565b3480156101c857600080fd5b506101086105af565b3480156101dd57600080fd5b506101086105b5565b3480156101f257600080fd5b506100f1610201366004610b69565b6105bb565b34801561021257600080fd5b50610108610221366004610b2f565b6106ab565b34801561023257600080fd5b506100f1610241366004610aba565b6106b5565b34801561025257600080fd5b5061010861082f565b34801561026757600080fd5b50610108610276366004610b69565b610835565b34801561028757600080fd5b5061029b610296366004610b9b565b610840565b60405161011593929190610cd6565b3480156102b657600080fd5b506102ca6102c5366004610b9b565b61087b565b6040516101159190610bfb565b3480156102e357600080fd5b506101086102f2366004610b9b565b6108a3565b34801561030357600080fd5b50610108610312366004610b9b565b6108ab565b6000808055600181905561032c6002826108b3565b50600061033a6003826108e4565b506000610348600482610910565b506000610356600582610934565b50565b6005545b90565b600380548290811061036e57fe5b600091825260209182902060059091020180546001820154604080518082019091526002840154600160a060020a0390811682526003850154958201959095526004909301549390911693509184565b604080518082018252600160a060020a038086168252825180840184528582168152602081810186905280840191825260058054600181018255600091909152935160039094027f036b6384b5eca791c62761152d0c79bb0604c104a5fb6f4eb0703f3154bb3db081018054958516600160a060020a0319968716179055915180517f036b6384b5eca791c62761152d0c79bb0604c104a5fb6f4eb0703f3154bb3db184018054919095169516949094179092559101517f036b6384b5eca791c62761152d0c79bb0604c104a5fb6f4eb0703f3154bb3db290910155517fbe279051278beb74b39439a6607e4c7b251434c6c56d816204362071d0316e31906104cc90339085908590610c09565b60405180910390a1505050565b600480546001810182556000919091527f8a35acfbc15ff81a39ae7d344fd709f28e8600b4aa8c65c6b64bfe7fe36bd19b018054600160a060020a031916600160a060020a0383161790556040517f5de82f16f836921738d3d8905f3dd390385d976108f5789e979d512b6587eba390610554903390610bfb565b60405180910390a150565b600580548290811061056d57fe5b60009182526020918290206003909102018054604080518082019091526001830154600160a060020a0390811682526002909301549381019390935216915082565b60035490565b60025490565b60408051606081018252600160a060020a038581168252602082018581528284018581526002805460018101825560009190915293517f405787fa12a823e0f2b7631cc41b3ba8828b3321ca811111fa75cd3aa3bb5ace60039095029485018054600160a060020a0319169190941617909255517f405787fa12a823e0f2b7631cc41b3ba8828b3321ca811111fa75cd3aa3bb5acf830155517f405787fa12a823e0f2b7631cc41b3ba8828b3321ca811111fa75cd3aa3bb5ad090910155517fa95044891f433f92149fc3220f83b1b5738ec70653e8941daab2d28eb5caa86f906104cc90339085908590610cd6565b6000545b92915050565b60408051608081018252600160a060020a03808816825260208083018881528451808601865288841681528083018890528486019081526060850187815260038054600181018255600091909152955160059096027fc2575a0e9e593c00f959f8c92f12db2869c3395a3b0502d05e2516446f71f85b81018054978716600160a060020a031998891617905592517fc2575a0e9e593c00f959f8c92f12db2869c3395a3b0502d05e2516446f71f85c840155905180517fc2575a0e9e593c00f959f8c92f12db2869c3395a3b0502d05e2516446f71f85d84018054919096169616959095179093559201517fc2575a0e9e593c00f959f8c92f12db2869c3395a3b0502d05e2516446f71f85e830155517fc2575a0e9e593c00f959f8c92f12db2869c3395a3b0502d05e2516446f71f85f90910155517ff03f792cc259b34ff6311e1e7cb37a37484181d96e25e23ab8700d7ddabdf4f4906108209033908790879087908790610c31565b60405180910390a15050505050565b60045490565b6001545b9392505050565b600280548290811061084e57fe5b6000918252602090912060039091020180546001820154600290920154600160a060020a03909116925083565b600480548290811061088957fe5b600091825260209091200154600160a060020a0316905081565b600155600090565b600090815590565b8154818355818111156108df576003028160030283600052602060002091820191016108df9190610960565b505050565b8154818355818111156108df576005028160050283600052602060002091820191016108df9190610996565b8154818355818111156108df576000838152602090206108df9181019083016109dd565b8154818355818111156108df576003028160030283600052602060002091820191016108df91906109f7565b61035d91905b80821115610992578054600160a060020a03191681556000600182018190556002820155600301610966565b5090565b61035d91905b80821115610992578054600160a060020a0319908116825560006001830181905560028301805490921690915560038201819055600482015560050161099c565b61035d91905b8082111561099257600081556001016109e3565b61035d91905b80821115610992578054600160a060020a031990811682556001820180549091169055600060028201556003016109fd565b60006108398235610cff565b6000610839823561035d565b600060208284031215610a5957600080fd5b6000610a658484610a2f565b949350505050565b600080600060608486031215610a8257600080fd5b6000610a8e8686610a2f565b9350506020610a9f86828701610a2f565b9250506040610ab086828701610a3b565b9150509250925092565b600080600080600060a08688031215610ad257600080fd5b6000610ade8888610a2f565b9550506020610aef88828901610a3b565b9450506040610b0088828901610a2f565b9350506060610b1188828901610a3b565b9250506080610b2288828901610a3b565b9150509295509295909350565b60008060408385031215610b4257600080fd5b6000610b4e8585610a2f565b9250506020610b5f85828601610a3b565b9150509250929050565b600080600060608486031215610b7e57600080fd5b6000610b8a8686610a2f565b9350506020610a9f86828701610a3b565b600060208284031215610bad57600080fd5b6000610a658484610a3b565b610bc281610cff565b82525050565b610bc28161035d565b80516040830190610be28482610bb9565b506020820151610bf56020850182610bc8565b50505050565b602081016106af8284610bb9565b60608101610c178286610bb9565b610c246020830185610bb9565b610a656040830184610bc8565b60a08101610c3f8288610bb9565b610c4c6020830187610bc8565b610c596040830186610bb9565b610c666060830185610bc8565b610c736080830184610bc8565b9695505050505050565b60a08101610c8b8287610bb9565b610c986020830186610bc8565b610ca56040830185610bd1565b610cb26080830184610bc8565b95945050505050565b60608101610cc98285610bb9565b6108396020830184610bd1565b60608101610ce48286610bb9565b610c246020830185610bc8565b602081016106af8284610bc8565b600160a060020a0316905600a265627a7a72305820eaad213ebee02e732af2b688fdabd6ecf6486bd2988e3f382bfd88a9541918136c6578706572696d656e74616cf50037",
  "source": "/*\n * Hubii Nahmii\n *\n * Compliant with the Hubii Nahmii specification v0.12.\n *\n * Copyright (C) 2017-2018 Hubii AS\n */\n\npragma solidity ^0.4.25;\n\npragma experimental ABIEncoderV2;\n\nimport {MonetaryTypesLib} from \"../MonetaryTypesLib.sol\";\n\n/**\n * @title MockedSecurityBond\n * @notice Mocked implementation of security bond contract\n */\ncontract MockedSecurityBond {\n    //\n    // Structures\n    // -----------------------------------------------------------------------------------------------------------------\n    struct FractionalReward {\n        address wallet;\n        uint256 fraction;\n        uint256 unlockTime;\n    }\n\n    struct AbsoluteReward {\n        address wallet;\n        int256 amount;\n        MonetaryTypesLib.Currency currency;\n        uint256 unlockTime;\n    }\n\n    struct AbsoluteDeprival {\n        address wallet;\n        MonetaryTypesLib.Currency currency;\n    }\n\n    //\n    // Variables\n    // -----------------------------------------------------------------------------------------------------------------\n    int256 _depositedBalance;\n    int256 _depositedFractionalBalance;\n\n    FractionalReward[] public fractionalRewards;\n    AbsoluteReward[] public absoluteRewards;\n    address[] public fractionalDeprivals;\n    AbsoluteDeprival[] public absoluteDeprivals;\n\n    //\n    // Events\n    // -----------------------------------------------------------------------------------------------------------------\n    event RewardFractionalEvent(address wallet, uint256 fraction, uint256 unlockTimeoutInSeconds);\n    event RewardAbsoluteEvent(address wallet, int256 amount, address currencyCt, uint256 currencyId,\n        uint256 unlockTimeoutInSeconds);\n    event DepriveFractionalEvent(address wallet);\n    event DepriveAbsoluteEvent(address wallet, address currencyCt, uint256 currencyId);\n\n    //\n    // Constructor\n    // -----------------------------------------------------------------------------------------------------------------\n    constructor() public {\n    }\n\n    //\n    // Functions\n    // -----------------------------------------------------------------------------------------------------------------\n    function _reset()\n    public\n    {\n        _depositedBalance = 0;\n        _depositedFractionalBalance = 0;\n        fractionalRewards.length = 0;\n        absoluteRewards.length = 0;\n        fractionalDeprivals.length = 0;\n        absoluteDeprivals.length = 0;\n    }\n\n    function depositedBalance(address, uint256)\n    public\n    view\n    returns (int256)\n    {\n        return _depositedBalance;\n    }\n\n    function _setDepositedBalance(int256 balance)\n    public\n    returns (int256)\n    {\n        _depositedBalance = balance;\n    }\n\n    function depositedFractionalBalance(address, uint256, uint256)\n    public\n    view\n    returns (int256)\n    {\n        return _depositedFractionalBalance;\n    }\n\n    function _setDepositedFractionalBalance(int256 balance)\n    public\n    returns (int256)\n    {\n        _depositedFractionalBalance = balance;\n    }\n\n    function _fractionalRewardsCount()\n    public\n    view\n    returns (uint256)\n    {\n        return fractionalRewards.length;\n    }\n\n    function _absoluteRewardsCount()\n    public\n    view\n    returns (uint256)\n    {\n        return absoluteRewards.length;\n    }\n\n    function _fractionalDeprivalsCount()\n    public\n    view\n    returns (uint256)\n    {\n        return fractionalDeprivals.length;\n    }\n\n    function _absoluteDeprivalsCount()\n    public\n    view\n    returns (uint256)\n    {\n        return absoluteDeprivals.length;\n    }\n\n    function rewardFractional(address wallet, uint256 fraction, uint256 unlockTimeoutInSeconds)\n    public\n    {\n        fractionalRewards.push(\n            FractionalReward(wallet, fraction, unlockTimeoutInSeconds)\n        );\n        emit RewardFractionalEvent(msg.sender, fraction, unlockTimeoutInSeconds);\n    }\n\n    function rewardAbsolute(address wallet, int256 amount, address currencyCt, uint256 currencyId,\n        uint256 unlockTimeoutInSeconds)\n    public\n    {\n        absoluteRewards.push(\n            AbsoluteReward(wallet, amount, MonetaryTypesLib.Currency(currencyCt, currencyId), unlockTimeoutInSeconds)\n        );\n        emit RewardAbsoluteEvent(msg.sender, amount, currencyCt, currencyId, unlockTimeoutInSeconds);\n    }\n\n    function depriveFractional(address wallet)\n    public\n    {\n        fractionalDeprivals.push(wallet);\n        emit DepriveFractionalEvent(msg.sender);\n    }\n\n    function depriveAbsolute(address wallet, address currencyCt, uint256 currencyId)\n    public\n    {\n        absoluteDeprivals.push(AbsoluteDeprival(wallet, MonetaryTypesLib.Currency(currencyCt, currencyId)));\n        emit DepriveAbsoluteEvent(msg.sender, currencyCt, currencyId);\n    }\n}",
  "sourcePath": "/opt/buildagent/work/855e104608380c36/contracts/test/MockedSecurityBond.sol",
  "compiler": {
    "name": "solc",
    "version": "0.4.25+commit.59dbf8f1.Emscripten.clang"
  },
  "schemaVersion": "2.0.2",
  "updatedAt": "2019-04-17T19:44:57.869Z"
}