{
  "contractName": "MockedNullSettlementChallengeState",
  "abi": [
    {
      "constant": true,
      "inputs": [
        {
          "name": "",
          "type": "uint256"
        }
      ],
      "name": "_proposals",
      "outputs": [
        {
          "name": "wallet",
          "type": "address"
        },
        {
          "name": "nonce",
          "type": "uint256"
        },
        {
          "name": "referenceBlockNumber",
          "type": "uint256"
        },
        {
          "name": "definitionBlockNumber",
          "type": "uint256"
        },
        {
          "name": "expirationTime",
          "type": "uint256"
        },
        {
          "name": "status",
          "type": "uint8"
        },
        {
          "components": [
            {
              "name": "cumulativeTransfer",
              "type": "int256"
            },
            {
              "name": "stage",
              "type": "int256"
            },
            {
              "name": "targetBalance",
              "type": "int256"
            }
          ],
          "name": "amounts",
          "type": "tuple"
        },
        {
          "components": [
            {
              "name": "ct",
              "type": "address"
            },
            {
              "name": "id",
              "type": "uint256"
            }
          ],
          "name": "currency",
          "type": "tuple"
        },
        {
          "components": [
            {
              "name": "kind",
              "type": "string"
            },
            {
              "name": "hash",
              "type": "bytes32"
            }
          ],
          "name": "challenged",
          "type": "tuple"
        },
        {
          "name": "walletInitiated",
          "type": "bool"
        },
        {
          "name": "terminated",
          "type": "bool"
        },
        {
          "components": [
            {
              "name": "challenger",
              "type": "address"
            },
            {
              "name": "nonce",
              "type": "uint256"
            },
            {
              "name": "blockNumber",
              "type": "uint256"
            },
            {
              "components": [
                {
                  "name": "kind",
                  "type": "string"
                },
                {
                  "name": "hash",
                  "type": "bytes32"
                }
              ],
              "name": "candidate",
              "type": "tuple"
            }
          ],
          "name": "disqualification",
          "type": "tuple"
        }
      ],
      "payable": false,
      "stateMutability": "view",
      "type": "function"
    },
    {
      "constant": true,
      "inputs": [],
      "name": "_proposalExpired",
      "outputs": [
        {
          "name": "",
          "type": "bool"
        }
      ],
      "payable": false,
      "stateMutability": "view",
      "type": "function"
    },
    {
      "constant": true,
      "inputs": [],
      "name": "_terminateProposalsCount",
      "outputs": [
        {
          "name": "",
          "type": "uint256"
        }
      ],
      "payable": false,
      "stateMutability": "view",
      "type": "function"
    },
    {
      "constant": true,
      "inputs": [],
      "name": "_proposalTerminated",
      "outputs": [
        {
          "name": "",
          "type": "bool"
        }
      ],
      "payable": false,
      "stateMutability": "view",
      "type": "function"
    },
    {
      "constant": true,
      "inputs": [],
      "name": "_initiateProposalsCount",
      "outputs": [
        {
          "name": "",
          "type": "uint256"
        }
      ],
      "payable": false,
      "stateMutability": "view",
      "type": "function"
    },
    {
      "constant": true,
      "inputs": [],
      "name": "_proposal",
      "outputs": [
        {
          "name": "",
          "type": "bool"
        }
      ],
      "payable": false,
      "stateMutability": "view",
      "type": "function"
    },
    {
      "constant": true,
      "inputs": [],
      "name": "_removeProposalsCount",
      "outputs": [
        {
          "name": "",
          "type": "uint256"
        }
      ],
      "payable": false,
      "stateMutability": "view",
      "type": "function"
    },
    {
      "constant": false,
      "inputs": [],
      "name": "_reset",
      "outputs": [],
      "payable": false,
      "stateMutability": "nonpayable",
      "type": "function"
    },
    {
      "constant": false,
      "inputs": [
        {
          "name": "wallet",
          "type": "address"
        },
        {
          "name": "nonce",
          "type": "uint256"
        },
        {
          "name": "stageAmount",
          "type": "int256"
        },
        {
          "name": "targetBalanceAmount",
          "type": "int256"
        },
        {
          "components": [
            {
              "name": "ct",
              "type": "address"
            },
            {
              "name": "id",
              "type": "uint256"
            }
          ],
          "name": "currency",
          "type": "tuple"
        },
        {
          "name": "referenceBlockNumber",
          "type": "uint256"
        },
        {
          "name": "walletInitiated",
          "type": "bool"
        }
      ],
      "name": "initiateProposal",
      "outputs": [],
      "payable": false,
      "stateMutability": "nonpayable",
      "type": "function"
    },
    {
      "constant": false,
      "inputs": [
        {
          "name": "wallet",
          "type": "address"
        },
        {
          "components": [
            {
              "name": "ct",
              "type": "address"
            },
            {
              "name": "id",
              "type": "uint256"
            }
          ],
          "name": "currency",
          "type": "tuple"
        },
        {
          "name": "walletTerminated",
          "type": "bool"
        }
      ],
      "name": "terminateProposal",
      "outputs": [],
      "payable": false,
      "stateMutability": "nonpayable",
      "type": "function"
    },
    {
      "constant": false,
      "inputs": [
        {
          "name": "wallet",
          "type": "address"
        },
        {
          "components": [
            {
              "name": "ct",
              "type": "address"
            },
            {
              "name": "id",
              "type": "uint256"
            }
          ],
          "name": "currency",
          "type": "tuple"
        }
      ],
      "name": "terminateProposal",
      "outputs": [],
      "payable": false,
      "stateMutability": "nonpayable",
      "type": "function"
    },
    {
      "constant": false,
      "inputs": [
        {
          "name": "wallet",
          "type": "address"
        },
        {
          "components": [
            {
              "name": "ct",
              "type": "address"
            },
            {
              "name": "id",
              "type": "uint256"
            }
          ],
          "name": "currency",
          "type": "tuple"
        },
        {
          "name": "walletTerminated",
          "type": "bool"
        }
      ],
      "name": "removeProposal",
      "outputs": [],
      "payable": false,
      "stateMutability": "nonpayable",
      "type": "function"
    },
    {
      "constant": false,
      "inputs": [
        {
          "name": "wallet",
          "type": "address"
        },
        {
          "components": [
            {
              "name": "ct",
              "type": "address"
            },
            {
              "name": "id",
              "type": "uint256"
            }
          ],
          "name": "currency",
          "type": "tuple"
        }
      ],
      "name": "removeProposal",
      "outputs": [],
      "payable": false,
      "stateMutability": "nonpayable",
      "type": "function"
    },
    {
      "constant": false,
      "inputs": [
        {
          "name": "challengedWallet",
          "type": "address"
        },
        {
          "components": [
            {
              "name": "ct",
              "type": "address"
            },
            {
              "name": "id",
              "type": "uint256"
            }
          ],
          "name": "currency",
          "type": "tuple"
        },
        {
          "name": "challengerWallet",
          "type": "address"
        },
        {
          "name": "blockNumber",
          "type": "uint256"
        },
        {
          "name": "candidateNonce",
          "type": "uint256"
        },
        {
          "name": "candidateHash",
          "type": "bytes32"
        },
        {
          "name": "candidateKind",
          "type": "string"
        }
      ],
      "name": "disqualifyProposal",
      "outputs": [],
      "payable": false,
      "stateMutability": "nonpayable",
      "type": "function"
    },
    {
      "constant": true,
      "inputs": [
        {
          "name": "",
          "type": "address"
        },
        {
          "components": [
            {
              "name": "ct",
              "type": "address"
            },
            {
              "name": "id",
              "type": "uint256"
            }
          ],
          "name": "",
          "type": "tuple"
        }
      ],
      "name": "hasProposal",
      "outputs": [
        {
          "name": "",
          "type": "bool"
        }
      ],
      "payable": false,
      "stateMutability": "view",
      "type": "function"
    },
    {
      "constant": false,
      "inputs": [
        {
          "name": "proposal",
          "type": "bool"
        }
      ],
      "name": "_setProposal",
      "outputs": [],
      "payable": false,
      "stateMutability": "nonpayable",
      "type": "function"
    },
    {
      "constant": true,
      "inputs": [
        {
          "name": "",
          "type": "address"
        },
        {
          "components": [
            {
              "name": "ct",
              "type": "address"
            },
            {
              "name": "id",
              "type": "uint256"
            }
          ],
          "name": "",
          "type": "tuple"
        }
      ],
      "name": "hasProposalTerminated",
      "outputs": [
        {
          "name": "",
          "type": "bool"
        }
      ],
      "payable": false,
      "stateMutability": "view",
      "type": "function"
    },
    {
      "constant": false,
      "inputs": [
        {
          "name": "proposalTerminated",
          "type": "bool"
        }
      ],
      "name": "_setProposalTerminated",
      "outputs": [],
      "payable": false,
      "stateMutability": "nonpayable",
      "type": "function"
    },
    {
      "constant": true,
      "inputs": [
        {
          "name": "",
          "type": "address"
        },
        {
          "components": [
            {
              "name": "ct",
              "type": "address"
            },
            {
              "name": "id",
              "type": "uint256"
            }
          ],
          "name": "",
          "type": "tuple"
        }
      ],
      "name": "hasProposalExpired",
      "outputs": [
        {
          "name": "",
          "type": "bool"
        }
      ],
      "payable": false,
      "stateMutability": "view",
      "type": "function"
    },
    {
      "constant": false,
      "inputs": [
        {
          "name": "proposalExpired",
          "type": "bool"
        }
      ],
      "name": "_setProposalExpired",
      "outputs": [],
      "payable": false,
      "stateMutability": "nonpayable",
      "type": "function"
    },
    {
      "constant": true,
      "inputs": [
        {
          "name": "",
          "type": "address"
        },
        {
          "components": [
            {
              "name": "ct",
              "type": "address"
            },
            {
              "name": "id",
              "type": "uint256"
            }
          ],
          "name": "",
          "type": "tuple"
        }
      ],
      "name": "proposalNonce",
      "outputs": [
        {
          "name": "",
          "type": "uint256"
        }
      ],
      "payable": false,
      "stateMutability": "view",
      "type": "function"
    },
    {
      "constant": false,
      "inputs": [
        {
          "name": "_proposalNonce",
          "type": "uint256"
        }
      ],
      "name": "_setProposalNonce",
      "outputs": [],
      "payable": false,
      "stateMutability": "nonpayable",
      "type": "function"
    },
    {
      "constant": true,
      "inputs": [
        {
          "name": "",
          "type": "address"
        },
        {
          "components": [
            {
              "name": "ct",
              "type": "address"
            },
            {
              "name": "id",
              "type": "uint256"
            }
          ],
          "name": "",
          "type": "tuple"
        }
      ],
      "name": "proposalReferenceBlockNumber",
      "outputs": [
        {
          "name": "",
          "type": "uint256"
        }
      ],
      "payable": false,
      "stateMutability": "view",
      "type": "function"
    },
    {
      "constant": false,
      "inputs": [
        {
          "name": "_proposalReferenceBlockNumber",
          "type": "uint256"
        }
      ],
      "name": "_setProposalReferenceBlockNumber",
      "outputs": [],
      "payable": false,
      "stateMutability": "nonpayable",
      "type": "function"
    },
    {
      "constant": true,
      "inputs": [
        {
          "name": "",
          "type": "address"
        },
        {
          "components": [
            {
              "name": "ct",
              "type": "address"
            },
            {
              "name": "id",
              "type": "uint256"
            }
          ],
          "name": "",
          "type": "tuple"
        }
      ],
      "name": "proposalDefinitionBlockNumber",
      "outputs": [
        {
          "name": "",
          "type": "uint256"
        }
      ],
      "payable": false,
      "stateMutability": "view",
      "type": "function"
    },
    {
      "constant": false,
      "inputs": [
        {
          "name": "_proposalDefinitionBlockNumber",
          "type": "uint256"
        }
      ],
      "name": "_setProposalDefinitionBlockNumber",
      "outputs": [],
      "payable": false,
      "stateMutability": "nonpayable",
      "type": "function"
    },
    {
      "constant": true,
      "inputs": [
        {
          "name": "",
          "type": "address"
        },
        {
          "components": [
            {
              "name": "ct",
              "type": "address"
            },
            {
              "name": "id",
              "type": "uint256"
            }
          ],
          "name": "",
          "type": "tuple"
        }
      ],
      "name": "proposalExpirationTime",
      "outputs": [
        {
          "name": "",
          "type": "uint256"
        }
      ],
      "payable": false,
      "stateMutability": "view",
      "type": "function"
    },
    {
      "constant": false,
      "inputs": [
        {
          "name": "_proposalExpirationTime",
          "type": "uint256"
        }
      ],
      "name": "_setProposalExpirationTime",
      "outputs": [],
      "payable": false,
      "stateMutability": "nonpayable",
      "type": "function"
    },
    {
      "constant": true,
      "inputs": [
        {
          "name": "",
          "type": "address"
        },
        {
          "components": [
            {
              "name": "ct",
              "type": "address"
            },
            {
              "name": "id",
              "type": "uint256"
            }
          ],
          "name": "",
          "type": "tuple"
        }
      ],
      "name": "proposalStatus",
      "outputs": [
        {
          "name": "",
          "type": "uint8"
        }
      ],
      "payable": false,
      "stateMutability": "view",
      "type": "function"
    },
    {
      "constant": false,
      "inputs": [
        {
          "name": "_proposalStatus",
          "type": "uint8"
        }
      ],
      "name": "_setProposalStatus",
      "outputs": [],
      "payable": false,
      "stateMutability": "nonpayable",
      "type": "function"
    },
    {
      "constant": true,
      "inputs": [
        {
          "name": "",
          "type": "address"
        },
        {
          "components": [
            {
              "name": "ct",
              "type": "address"
            },
            {
              "name": "id",
              "type": "uint256"
            }
          ],
          "name": "",
          "type": "tuple"
        }
      ],
      "name": "proposalStageAmount",
      "outputs": [
        {
          "name": "",
          "type": "int256"
        }
      ],
      "payable": false,
      "stateMutability": "view",
      "type": "function"
    },
    {
      "constant": false,
      "inputs": [
        {
          "name": "_proposalStageAmount",
          "type": "int256"
        }
      ],
      "name": "_setProposalStageAmount",
      "outputs": [],
      "payable": false,
      "stateMutability": "nonpayable",
      "type": "function"
    },
    {
      "constant": true,
      "inputs": [
        {
          "name": "",
          "type": "address"
        },
        {
          "components": [
            {
              "name": "ct",
              "type": "address"
            },
            {
              "name": "id",
              "type": "uint256"
            }
          ],
          "name": "",
          "type": "tuple"
        }
      ],
      "name": "proposalTargetBalanceAmount",
      "outputs": [
        {
          "name": "",
          "type": "int256"
        }
      ],
      "payable": false,
      "stateMutability": "view",
      "type": "function"
    },
    {
      "constant": false,
      "inputs": [
        {
          "name": "_proposalTargetBalanceAmount",
          "type": "int256"
        }
      ],
      "name": "_setProposalTargetBalanceAmount",
      "outputs": [],
      "payable": false,
      "stateMutability": "nonpayable",
      "type": "function"
    },
    {
      "constant": true,
      "inputs": [
        {
          "name": "",
          "type": "address"
        },
        {
          "components": [
            {
              "name": "ct",
              "type": "address"
            },
            {
              "name": "id",
              "type": "uint256"
            }
          ],
          "name": "",
          "type": "tuple"
        }
      ],
      "name": "proposalWalletInitiated",
      "outputs": [
        {
          "name": "",
          "type": "bool"
        }
      ],
      "payable": false,
      "stateMutability": "view",
      "type": "function"
    },
    {
      "constant": false,
      "inputs": [
        {
          "name": "_proposalWalletInitiated",
          "type": "bool"
        }
      ],
      "name": "_setProposalWalletInitiated",
      "outputs": [],
      "payable": false,
      "stateMutability": "nonpayable",
      "type": "function"
    },
    {
      "constant": true,
      "inputs": [
        {
          "name": "",
          "type": "address"
        },
        {
          "components": [
            {
              "name": "ct",
              "type": "address"
            },
            {
              "name": "id",
              "type": "uint256"
            }
          ],
          "name": "",
          "type": "tuple"
        }
      ],
      "name": "proposalDisqualificationChallenger",
      "outputs": [
        {
          "name": "",
          "type": "address"
        }
      ],
      "payable": false,
      "stateMutability": "view",
      "type": "function"
    },
    {
      "constant": false,
      "inputs": [
        {
          "name": "_proposalDisqualificationChallenger",
          "type": "address"
        }
      ],
      "name": "_setProposalDisqualificationChallenger",
      "outputs": [],
      "payable": false,
      "stateMutability": "nonpayable",
      "type": "function"
    },
    {
      "constant": true,
      "inputs": [
        {
          "name": "",
          "type": "address"
        },
        {
          "components": [
            {
              "name": "ct",
              "type": "address"
            },
            {
              "name": "id",
              "type": "uint256"
            }
          ],
          "name": "",
          "type": "tuple"
        }
      ],
      "name": "proposalDisqualificationNonce",
      "outputs": [
        {
          "name": "",
          "type": "uint256"
        }
      ],
      "payable": false,
      "stateMutability": "view",
      "type": "function"
    },
    {
      "constant": false,
      "inputs": [
        {
          "name": "_proposalDisqualificationNonce",
          "type": "uint256"
        }
      ],
      "name": "_setProposalDisqualificationNonce",
      "outputs": [],
      "payable": false,
      "stateMutability": "nonpayable",
      "type": "function"
    },
    {
      "constant": true,
      "inputs": [
        {
          "name": "",
          "type": "address"
        },
        {
          "components": [
            {
              "name": "ct",
              "type": "address"
            },
            {
              "name": "id",
              "type": "uint256"
            }
          ],
          "name": "",
          "type": "tuple"
        }
      ],
      "name": "proposalDisqualificationBlockNumber",
      "outputs": [
        {
          "name": "",
          "type": "uint256"
        }
      ],
      "payable": false,
      "stateMutability": "view",
      "type": "function"
    },
    {
      "constant": false,
      "inputs": [
        {
          "name": "_proposalDisqualificationBlockNumber",
          "type": "uint256"
        }
      ],
      "name": "_setProposalDisqualificationBlockNumber",
      "outputs": [],
      "payable": false,
      "stateMutability": "nonpayable",
      "type": "function"
    },
    {
      "constant": true,
      "inputs": [
        {
          "name": "",
          "type": "address"
        },
        {
          "components": [
            {
              "name": "ct",
              "type": "address"
            },
            {
              "name": "id",
              "type": "uint256"
            }
          ],
          "name": "",
          "type": "tuple"
        }
      ],
      "name": "proposalDisqualificationCandidateHash",
      "outputs": [
        {
          "name": "",
          "type": "bytes32"
        }
      ],
      "payable": false,
      "stateMutability": "view",
      "type": "function"
    },
    {
      "constant": false,
      "inputs": [
        {
          "name": "_proposalDisqualificationCandidateHash",
          "type": "bytes32"
        }
      ],
      "name": "_setProposalDisqualificationCandidateHash",
      "outputs": [],
      "payable": false,
      "stateMutability": "nonpayable",
      "type": "function"
    },
    {
      "constant": true,
      "inputs": [
        {
          "name": "",
          "type": "address"
        },
        {
          "components": [
            {
              "name": "ct",
              "type": "address"
            },
            {
              "name": "id",
              "type": "uint256"
            }
          ],
          "name": "",
          "type": "tuple"
        }
      ],
      "name": "proposalDisqualificationCandidateKind",
      "outputs": [
        {
          "name": "",
          "type": "string"
        }
      ],
      "payable": false,
      "stateMutability": "view",
      "type": "function"
    },
    {
      "constant": false,
      "inputs": [
        {
          "name": "_proposalDisqualificationCandidateKind",
          "type": "string"
        }
      ],
      "name": "_setProposalDisqualificationCandidateKind",
      "outputs": [],
      "payable": false,
      "stateMutability": "nonpayable",
      "type": "function"
    },
    {
      "constant": false,
      "inputs": [],
      "name": "_addProposalIfNone",
      "outputs": [
        {
          "name": "",
          "type": "uint256"
        }
      ],
      "payable": false,
      "stateMutability": "nonpayable",
      "type": "function"
    }
  ],
  "bytecode": "0x608060405234801561001057600080fd5b50612194806100206000396000f3006080604052600436106102215763ffffffff60e060020a6000350416630a49484081146102265780630e0648f1146102675780630ef73e8a146102895780631420b667146102ab5780631592f0ab146102cb5780631b90e3c1146102e057806321c588f61461030d5780632247d79b1461032d57806326885b541461034d5780632892705e1461036d5780632c1da19a1461038d5780632ee2ed25146103ba5780633b238528146103da57806352a0dd10146103fa5780635385f37b1461041a578063541ee0f81461043a5780635482c7351461045a578063553d90e91461047a578063565872291461049a57806356ec9075146104c75780635b91bdff146104e7578063600e461e14610507578063667666c81461052757806368bd4169146105475780636e90a5961461055c5780637ff81c371461057c57806384d3264b1461059c578063865253eb146105bc5780638b4ed4c2146105dc57806396f65e41146105fc578063a495a30614610611578063b3938a6c14610631578063b6e2fc3314610651578063ba5152881461067e578063c46fcd751461069e578063c79ec04d146106be578063cacf0617146106d3578063cbe1b090146106f3578063cf293aac14610708578063d97d9a9514610728578063dd2f35bb14610748578063dd6be5461461075d578063ddd11ba81461077d578063ec934c731461079d578063ed5e3a3e146107bd578063f70ed177146107dd578063fd2456d1146107f2575b600080fd5b34801561023257600080fd5b50610246610241366004611dc6565b610812565b60405161025e9c9b9a99989796959493929190611f94565b60405180910390f35b34801561027357600080fd5b50610287610282366004611de4565b610aa6565b005b34801561029557600080fd5b5061029e610af1565b60405161025e9190612055565b3480156102b757600080fd5b506102876102c6366004611dc6565b610b00565b3480156102d757600080fd5b50610287610b34565b3480156102ec57600080fd5b506103006102fb366004611bdf565b610b5d565b60405161025e9190612063565b34801561031957600080fd5b50610287610328366004611dc6565b610b90565b34801561033957600080fd5b50610287610348366004611dc6565b610bc5565b34801561035957600080fd5b50610287610368366004611bdf565b610bfa565b34801561037957600080fd5b50610287610388366004611bb9565b610ca8565b34801561039957600080fd5b506103ad6103a8366004611bdf565b610cf9565b60405161025e919061207f565b3480156103c657600080fd5b506103006103d5366004611bdf565b610db2565b3480156103e657600080fd5b5061029e6103f5366004611bdf565b610de2565b34801561040657600080fd5b50610287610415366004611ccd565b610ded565b34801561042657600080fd5b50610300610435366004611bdf565b610ecf565b34801561044657600080fd5b50610287610455366004611dc6565b610eff565b34801561046657600080fd5b5061029e610475366004611bdf565b610f33565b34801561048657600080fd5b50610300610495366004611bdf565b610f44565b3480156104a657600080fd5b506104ba6104b5366004611bdf565b610f77565b60405161025e9190611f86565b3480156104d357600080fd5b506103006104e2366004611bdf565b610fb1565b3480156104f357600080fd5b50610287610502366004611dc6565b610fe1565b34801561051357600080fd5b50610300610522366004611bdf565b611015565b34801561053357600080fd5b50610287610542366004611c19565b611048565b34801561055357600080fd5b50610300611221565b34801561056857600080fd5b50610300610577366004611bdf565b611227565b34801561058857600080fd5b5061029e610597366004611bdf565b611257565b3480156105a857600080fd5b506102876105b7366004611e02565b611267565b3480156105c857600080fd5b506102876105d7366004611dc6565b6112b2565b3480156105e857600080fd5b506103006105f7366004611bdf565b6112e7565b34801561060857600080fd5b5061030061131a565b34801561061d57600080fd5b5061028761062c366004611ccd565b61134b565b34801561063d57600080fd5b5061028761064c366004611bdf565b61146c565b34801561065d57600080fd5b5061067161066c366004611bdf565b611554565b60405161025e9190612071565b34801561068a57600080fd5b50610287610699366004611d1a565b611588565b3480156106aa57600080fd5b506103006106b9366004611bdf565b611730565b3480156106ca57600080fd5b5061029e611763565b3480156106df57600080fd5b506102876106ee366004611da8565b611771565b3480156106ff57600080fd5b506103006117b3565b34801561071457600080fd5b5061029e610723366004611bdf565b6117b9565b34801561073457600080fd5b50610287610743366004611da8565b6117ed565b34801561075457600080fd5b5061029e611809565b34801561076957600080fd5b50610287610778366004611dc6565b611812565b34801561078957600080fd5b50610287610798366004611da8565b611846565b3480156107a957600080fd5b506102876107b8366004611da8565b611860565b3480156107c957600080fd5b506102876107d8366004611dc6565b611873565b3480156107e957600080fd5b506103006118a7565b3480156107fe57600080fd5b5061028761080d366004611dc6565b6118ad565b600380548290811061082057fe5b90600052602060002090601302016000915090508060000160009054906101000a9004600160a060020a0316908060010154908060020154908060030154908060040154908060050160009054906101000a900460ff16908060060160606040519081016040529081600082015481526020016001820154815260200160028201548152505090806009016040805190810160405290816000820160009054906101000a9004600160a060020a0316600160a060020a0316600160a060020a031681526020016001820154815250509080600b01604080519081016040529081600082018054600181600116156101000203166002900480601f0160208091040260200160405190810160405280929190818152602001828054600181600116156101000203166002900480156109985780601f1061096d57610100808354040283529160200191610998565b820191906000526020600020905b81548152906001019060200180831161097b57829003601f168201915b5050509183525050600191820154602091820152600d84015460408051608081018252600e87018054600160a060020a03168252600f880154828601526010880154828401528251601189018054606060026000196101009b8416158c020190921691909104601f8101899004909802830181018652948201878152989960ff8088169a99909704909616979596939592948087019492939192849291849190840182828015610a895780601f10610a5e57610100808354040283529160200191610a89565b820191906000526020600020905b815481529060010190602001808311610a6c57829003601f168201915b50505091835250506001919091015460209091015290525090508c565b6000610ab061131a565b905081600382815481101515610ac257fe5b60009182526020909120600560139092020101805460ff191660018381811115610ae857fe5b02179055505050565b60045462010000900460ff1681565b6000610b0a61131a565b905081600382815481101515610b1c57fe5b60009182526020909120600760139092020101555050565b600080805560018190556002819055610b4f906003906118e2565b6004805462ffffff19169055565b60038054600091906000198101908110610b7357fe5b600091825260209091206012601390920201015490505b92915050565b6000610b9a61131a565b905081600382815481101515610bac57fe5b9060005260206000209060130201600401819055505050565b6000610bcf61131a565b905081600382815481101515610be157fe5b9060005260206000209060130201600201819055505050565b6000610c0461131a565b905082600382815481101515610c1657fe5b906000526020600020906013020160000160006101000a815481600160a060020a030219169083600160a060020a0316021790555081600382815481101515610c5b57fe5b6000918252602091829020835160139290920201600981018054600160a060020a031916600160a060020a0390931692909217909155910151600a90910155505060028054600101905550565b6000610cb261131a565b905081600382815481101515610cc457fe5b60009182526020909120601390910201600e018054600160a060020a031916600160a060020a03929092169190911790555050565b60038054606091906000198101908110610d0f57fe5b6000918252602091829020601160139092020101805460408051601f6002600019610100600187161502019094169390930492830185900485028101850190915281815292830182828015610da55780601f10610d7a57610100808354040283529160200191610da5565b820191906000526020600020905b815481529060010190602001808311610d8857829003601f168201915b5050505050905092915050565b60038054600091906000198101908110610dc857fe5b906000526020600020906013020160010154905092915050565b505060045460ff1690565b6000610df761131a565b905083600382815481101515610e0957fe5b906000526020600020906013020160000160006101000a815481600160a060020a030219169083600160a060020a0316021790555082600382815481101515610e4e57fe5b6000918252602091829020835160139290920201600981018054600160a060020a031916600160a060020a0390931692909217909155910151600a909101556003805483919083908110610e9e57fe5b60009182526020909120601390910201600d01805460ff191691151591909117905550506002805460010190555050565b60038054600091906000198101908110610ee557fe5b906000526020600020906013020160030154905092915050565b6000610f0961131a565b905081600382815481101515610f1b57fe5b60009182526020909120601260139092020101555050565b505060045462010000900460ff1690565b60038054600091906000198101908110610f5a57fe5b9060005260206000209060130201600e0160010154905092915050565b60038054600091906000198101908110610f8d57fe5b60009182526020909120601390910201600e0154600160a060020a03169392505050565b60038054600091906000198101908110610fc757fe5b906000526020600020906013020160040154905092915050565b6000610feb61131a565b905081600382815481101515610ffd57fe5b60009182526020909120600f60139092020101555050565b6003805460009190600019810190811061102b57fe5b906000526020600020906013020160060160010154905092915050565b600061105261131a565b90508760038281548110151561106457fe5b906000526020600020906013020160000160006101000a815481600160a060020a030219169083600160a060020a03160217905550866003828154811015156110a957fe5b6000918252602091829020835160139290920201600981018054600160a060020a031916600160a060020a0390931692909217909155910151600a909101556003805460019190839081106110fa57fe5b60009182526020909120600560139092020101805460ff19166001838181111561112057fe5b02179055508560038281548110151561113557fe5b9060005260206000209060130201600e0160000160006101000a815481600160a060020a030219169083600160a060020a031602179055508460038281548110151561117d57fe5b600091825260209091206010601390920201015560038054859190839081106111a257fe5b60009182526020909120600f601390920201015560038054849190839081106111c757fe5b600091825260209091206012601390920201015560038054839190839081106111ec57fe5b9060005260206000209060130201600e016003016000019080519060200190611216929190611906565b505050505050505050565b60015481565b6003805460009190600019810190811061123d57fe5b906000526020600020906013020160020154905092915050565b5050600454610100900460ff1690565b600061127161131a565b90508160038281548110151561128357fe5b9060005260206000209060130201600e0160030160000190805190602001906112ad929190611906565b505050565b60006112bc61131a565b9050816003828154811015156112ce57fe5b9060005260206000209060130201600101819055505050565b600380546000919060001981019081106112fd57fe5b9060005260206000209060130201600e0160020154905092915050565b600354600090811061133d5760038054906113389060018301611984565b611345565b600354600019015b90505b90565b600061135561131a565b90508360038281548110151561136757fe5b906000526020600020906013020160000160006101000a815481600160a060020a030219169083600160a060020a03160217905550826003828154811015156113ac57fe5b6000918252602091829020835160139290920201600981018054600160a060020a031916600160a060020a0390931692909217909155910151600a9091015560038054839190839081106113fc57fe5b9060005260206000209060130201600d0160006101000a81548160ff021916908315150217905550600160038281548110151561143557fe5b60009182526020909120600d6013909202010180549115156101000261ff0019909216919091179055505060018054810190555050565b600061147661131a565b90508260038281548110151561148857fe5b906000526020600020906013020160000160006101000a815481600160a060020a030219169083600160a060020a03160217905550816003828154811015156114cd57fe5b6000918252602091829020835160139290920201600981018054600160a060020a031916600160a060020a0390931692909217909155910151600a9091015560038054600191908390811061151e57fe5b60009182526020909120600d6013909202010180549115156101000261ff00199092169190911790555050600180548101905550565b6003805460009190600019810190811061156a57fe5b600091825260209091206013909102016005015460ff169392505050565b6003805460009161159c9060018301611984565b9050876003828154811015156115ae57fe5b906000526020600020906013020160000160006101000a815481600160a060020a030219169083600160a060020a03160217905550866003828154811015156115f357fe5b9060005260206000209060130201600101819055508560038281548110151561161857fe5b6000918252602090912060076013909202010155600380548691908390811061163d57fe5b6000918252602090912060086013909202010155600380548591908390811061166257fe5b6000918252602091829020835160139290920201600981018054600160a060020a031916600160a060020a0390931692909217909155910151600a9091015560038054849190839081106116b257fe5b906000526020600020906013020160020181905550436003828154811015156116d757fe5b906000526020600020906013020160030181905550816003828154811015156116fc57fe5b60009182526020822060139190910201600d01805460ff191692151592909217909155805460010190555050505050505050565b6003805460009190600019810190811061174657fe5b906000526020600020906013020160060160020154905092915050565b600454610100900460ff1681565b600061177b61131a565b90508160038281548110151561178d57fe5b60009182526020909120601390910201600d01805460ff19169115159190911790555050565b60005481565b600380546000919060001981019081106117cf57fe5b60009182526020909120601390910201600d015460ff169392505050565b60048054911515620100000262ff000019909216919091179055565b60045460ff1681565b600061181c61131a565b90508160038281548110151561182e57fe5b60009182526020909120601060139092020101555050565b600480549115156101000261ff0019909216919091179055565b6004805460ff1916911515919091179055565b600061187d61131a565b90508160038281548110151561188f57fe5b60009182526020909120600860139092020101555050565b60025481565b60006118b761131a565b9050816003828154811015156118c957fe5b9060005260206000209060130201600301819055505050565b508054600082556013029060005260206000209081019061190391906119ac565b50565b828054600181600116156101000203166002900490600052602060002090601f016020900481019282601f1061194757805160ff1916838001178555611974565b82800160010185558215611974579182015b82811115611974578251825591602001919060010190611959565b50611980929150611a89565b5090565b8154818355818111156112ad576013028160130283600052602060002091820191016112ad91905b61134891905b80821115611980578054600160a060020a0319908116825560006001830181905560028301819055600383018190556004830181905560058301805460ff19169055600683018190556007830181905560088301819055600983018054909216909155600a8201819055600b820181611a2b8282611aa3565b506000600191909101819055600d8301805461ffff19169055600e83018054600160a060020a0319168155600f840182905560108401829055906011840181611a748282611aa3565b600182016000905550505050506013016119b2565b61134891905b808211156119805760008155600101611a8f565b50805460018160011615610100020316600290046000825580601f10611ac95750611903565b601f0160209004906000526020600020908101906119039190611a89565b6000611af382356120e1565b9392505050565b6000611af382356120ed565b6000611af38235611348565b6000611af382356120fe565b6000601f82018313611b2f57600080fd5b8135611b42611b3d826120b6565b612090565b91508082526020830160208301858383011115611b5e57600080fd5b611b69838284612118565b50505092915050565b600060408284031215611b8457600080fd5b611b8e6040612090565b90506000611b9c8484611ae7565b8252506020611bad84848301611b06565b60208301525092915050565b600060208284031215611bcb57600080fd5b6000611bd78484611ae7565b949350505050565b60008060608385031215611bf257600080fd5b6000611bfe8585611ae7565b9250506020611c0f85828601611b72565b9150509250929050565b6000806000806000806000610100888a031215611c3557600080fd5b6000611c418a8a611ae7565b9750506020611c528a828b01611b72565b9650506060611c638a828b01611ae7565b9550506080611c748a828b01611b06565b94505060a0611c858a828b01611b06565b93505060c0611c968a828b01611b06565b92505060e08801356001604060020a03811115611cb257600080fd5b611cbe8a828b01611b1e565b91505092959891949750929550565b600080600060808486031215611ce257600080fd5b6000611cee8686611ae7565b9350506020611cff86828701611b72565b9250506060611d1086828701611afa565b9150509250925092565b6000806000806000806000610100888a031215611d3657600080fd5b6000611d428a8a611ae7565b9750506020611d538a828b01611b06565b9650506040611d648a828b01611b06565b9550506060611d758a828b01611b06565b9450506080611d868a828b01611b72565b93505060c0611d978a828b01611b06565b92505060e0611cbe8a828b01611afa565b600060208284031215611dba57600080fd5b6000611bd78484611afa565b600060208284031215611dd857600080fd5b6000611bd78484611b06565b600060208284031215611df657600080fd5b6000611bd78484611b12565b600060208284031215611e1457600080fd5b81356001604060020a03811115611e2a57600080fd5b611bd784828501611b1e565b611e3f816120e1565b82525050565b611e3f816120ed565b611e3f81611348565b611e3f8161210d565b6000611e6b826120dd565b808452611e7f816020860160208601612124565b611e8881612150565b9093016020019392505050565b80516060830190611ea68482611e4e565b506020820151611eb96020850182611e4e565b506040820151611ecc6040850182611e4e565b50505050565b80516040830190611ee38482611e36565b506020820151611ecc6020850182611e4e565b80516000906080840190611f0a8582611e36565b506020830151611f1d6020860182611e4e565b506040830151611f306040860182611e4e565b5060608301518482036060860152611f488282611f51565b95945050505050565b8051604080845260009190840190611f698282611e60565b9150506020830151611f7e6020860182611e4e565b509392505050565b60208101610b8a8284611e36565b6101e08101611fa3828f611e36565b611fb0602083018e611e4e565b611fbd604083018d611e4e565b611fca606083018c611e4e565b611fd7608083018b611e4e565b611fe460a083018a611e57565b611ff160c0830189611e95565b611fff610120830188611ed2565b8181036101608301526120128187611f51565b9050612022610180830186611e45565b6120306101a0830185611e45565b8181036101c08301526120438184611ef6565b9e9d5050505050505050505050505050565b60208101610b8a8284611e45565b60208101610b8a8284611e4e565b60208101610b8a8284611e57565b60208082528101611af38184611e60565b6040518181016001604060020a03811182821017156120ae57600080fd5b604052919050565b60006001604060020a038211156120cc57600080fd5b506020601f91909101601f19160190565b5190565b600160a060020a031690565b151590565b60006002821061198057fe5b60006002821061198057600080fd5b6000610b8a826120f2565b82818337506000910152565b60005b8381101561213f578181015183820152602001612127565b83811115611ecc5750506000910152565b601f01601f1916905600a265627a7a7230582073cc4fc9f260032431ac442ddfa3062d392601fe8bec6c07ed519e10837100056c6578706572696d656e74616cf50037",
  "source": "/*\n * Hubii Nahmii\n *\n * Compliant with the Hubii Nahmii specification v0.12.\n *\n * Copyright (C) 2017-2018 Hubii AS\n */\n\npragma solidity ^0.4.25;\npragma experimental ABIEncoderV2;\n\nimport {SettlementChallengeTypesLib} from \"../SettlementChallengeTypesLib.sol\";\nimport {MonetaryTypesLib} from \"../MonetaryTypesLib.sol\";\n\n/**\n * @title MockedNullSettlementChallengeState\n * @notice Mocked implementation of null settlement challenge state contract\n */\ncontract MockedNullSettlementChallengeState {\n\n    uint256 public _initiateProposalsCount;\n    uint256 public _terminateProposalsCount;\n    uint256 public _removeProposalsCount;\n    SettlementChallengeTypesLib.Proposal[] public _proposals;\n    bool public _proposal;\n    bool public _proposalTerminated;\n    bool public _proposalExpired;\n\n    function _reset()\n    public\n    {\n        delete _initiateProposalsCount;\n        delete _terminateProposalsCount;\n        delete _removeProposalsCount;\n        delete _proposals;\n        delete _proposal;\n        delete _proposalTerminated;\n        delete _proposalExpired;\n    }\n\n    function initiateProposal(address wallet, uint256 nonce, int256 stageAmount, int256 targetBalanceAmount,\n        MonetaryTypesLib.Currency currency, uint256 referenceBlockNumber, bool walletInitiated)\n    public\n    {\n        uint256 index = _proposals.length++;\n\n        _proposals[index].wallet = wallet;\n        _proposals[index].nonce = nonce;\n        _proposals[index].amounts.stage = stageAmount;\n        _proposals[index].amounts.targetBalance = targetBalanceAmount;\n        _proposals[index].currency = currency;\n        _proposals[index].referenceBlockNumber = referenceBlockNumber;\n        _proposals[index].definitionBlockNumber = block.number;\n        _proposals[index].walletInitiated = walletInitiated;\n\n        _initiateProposalsCount++;\n    }\n\n    function terminateProposal(address wallet, MonetaryTypesLib.Currency currency)\n    public\n    {\n        uint256 index = _addProposalIfNone();\n\n        _proposals[index].wallet = wallet;\n        _proposals[index].currency = currency;\n        _proposals[index].terminated = true;\n\n        _terminateProposalsCount++;\n    }\n\n    function terminateProposal(address wallet, MonetaryTypesLib.Currency currency, bool walletTerminated)\n    public\n    {\n        uint256 index = _addProposalIfNone();\n\n        _proposals[index].wallet = wallet;\n        _proposals[index].currency = currency;\n        _proposals[index].walletInitiated = walletTerminated;\n        _proposals[index].terminated = true;\n\n        _terminateProposalsCount++;\n    }\n\n    function removeProposal(address wallet, MonetaryTypesLib.Currency currency)\n    public\n    {\n        uint256 index = _addProposalIfNone();\n\n        _proposals[index].wallet = wallet;\n        _proposals[index].currency = currency;\n\n        _removeProposalsCount++;\n    }\n\n    function removeProposal(address wallet, MonetaryTypesLib.Currency currency, bool walletTerminated)\n    public\n    {\n        uint256 index = _addProposalIfNone();\n\n        _proposals[index].wallet = wallet;\n        _proposals[index].currency = currency;\n        _proposals[index].walletInitiated = walletTerminated;\n\n        _removeProposalsCount++;\n    }\n\n    function disqualifyProposal(address challengedWallet, MonetaryTypesLib.Currency currency, address challengerWallet,\n        uint256 blockNumber, uint256 candidateNonce, bytes32 candidateHash, string candidateKind)\n    public\n    {\n        uint256 index = _addProposalIfNone();\n\n        _proposals[index].wallet = challengedWallet;\n        _proposals[index].currency = currency;\n        _proposals[index].status = SettlementChallengeTypesLib.Status.Disqualified;\n        _proposals[index].disqualification.challenger = challengerWallet;\n        _proposals[index].disqualification.blockNumber = blockNumber;\n        _proposals[index].disqualification.nonce = candidateNonce;\n        _proposals[index].disqualification.candidate.hash = candidateHash;\n        _proposals[index].disqualification.candidate.kind = candidateKind;\n    }\n\n    function hasProposal(address, MonetaryTypesLib.Currency)\n    public\n    view\n    returns (bool)\n    {\n        return _proposal;\n    }\n\n    function _setProposal(bool proposal)\n    public\n    {\n        _proposal = proposal;\n    }\n\n    function hasProposalTerminated(address, MonetaryTypesLib.Currency)\n    public\n    view\n    returns (bool)\n    {\n        return _proposalTerminated;\n    }\n\n    function _setProposalTerminated(bool proposalTerminated)\n    public\n    {\n        _proposalTerminated = proposalTerminated;\n    }\n\n    function hasProposalExpired(address, MonetaryTypesLib.Currency)\n    public\n    view\n    returns (bool)\n    {\n        return _proposalExpired;\n    }\n\n    function _setProposalExpired(bool proposalExpired)\n    public\n    {\n        _proposalExpired = proposalExpired;\n    }\n\n    function proposalNonce(address, MonetaryTypesLib.Currency)\n    public\n    view\n    returns (uint256)\n    {\n        return _proposals[_proposals.length - 1].nonce;\n    }\n\n    function _setProposalNonce(uint256 _proposalNonce)\n    public\n    {\n        uint256 index = _addProposalIfNone();\n        _proposals[index].nonce = _proposalNonce;\n    }\n\n    function proposalReferenceBlockNumber(address, MonetaryTypesLib.Currency)\n    public\n    view\n    returns (uint256)\n    {\n        return _proposals[_proposals.length - 1].referenceBlockNumber;\n    }\n\n    function _setProposalReferenceBlockNumber(uint256 _proposalReferenceBlockNumber)\n    public\n    {\n        uint256 index = _addProposalIfNone();\n        _proposals[index].referenceBlockNumber = _proposalReferenceBlockNumber;\n    }\n\n    function proposalDefinitionBlockNumber(address, MonetaryTypesLib.Currency)\n    public\n    view\n    returns (uint256)\n    {\n        return _proposals[_proposals.length - 1].definitionBlockNumber;\n    }\n\n    function _setProposalDefinitionBlockNumber(uint256 _proposalDefinitionBlockNumber)\n    public\n    {\n        uint256 index = _addProposalIfNone();\n        _proposals[index].definitionBlockNumber = _proposalDefinitionBlockNumber;\n    }\n\n    function proposalExpirationTime(address, MonetaryTypesLib.Currency)\n    public\n    view\n    returns (uint256)\n    {\n        return _proposals[_proposals.length - 1].expirationTime;\n    }\n\n    function _setProposalExpirationTime(uint256 _proposalExpirationTime)\n    public\n    {\n        uint256 index = _addProposalIfNone();\n        _proposals[index].expirationTime = _proposalExpirationTime;\n    }\n\n    function proposalStatus(address, MonetaryTypesLib.Currency)\n    public\n    view\n    returns (SettlementChallengeTypesLib.Status)\n    {\n        return _proposals[_proposals.length - 1].status;\n    }\n\n    function _setProposalStatus(SettlementChallengeTypesLib.Status _proposalStatus)\n    public\n    {\n        uint256 index = _addProposalIfNone();\n        _proposals[index].status = _proposalStatus;\n    }\n\n    function proposalStageAmount(address, MonetaryTypesLib.Currency)\n    public\n    view\n    returns (int256)\n    {\n        return _proposals[_proposals.length - 1].amounts.stage;\n    }\n\n    function _setProposalStageAmount(int256 _proposalStageAmount)\n    public\n    {\n        uint256 index = _addProposalIfNone();\n        _proposals[index].amounts.stage = _proposalStageAmount;\n    }\n\n    function proposalTargetBalanceAmount(address, MonetaryTypesLib.Currency)\n    public\n    view\n    returns (int256)\n    {\n        return _proposals[_proposals.length - 1].amounts.targetBalance;\n    }\n\n    function _setProposalTargetBalanceAmount(int256 _proposalTargetBalanceAmount)\n    public\n    {\n        uint256 index = _addProposalIfNone();\n        _proposals[index].amounts.targetBalance = _proposalTargetBalanceAmount;\n    }\n\n    function proposalWalletInitiated(address, MonetaryTypesLib.Currency)\n    public\n    view\n    returns (bool)\n    {\n        return _proposals[_proposals.length - 1].walletInitiated;\n    }\n\n    function _setProposalWalletInitiated(bool _proposalWalletInitiated)\n    public\n    {\n        uint256 index = _addProposalIfNone();\n        _proposals[index].walletInitiated = _proposalWalletInitiated;\n    }\n\n    function proposalDisqualificationChallenger(address, MonetaryTypesLib.Currency)\n    public\n    view\n    returns (address)\n    {\n        return _proposals[_proposals.length - 1].disqualification.challenger;\n    }\n\n    function _setProposalDisqualificationChallenger(address _proposalDisqualificationChallenger)\n    public\n    {\n        uint256 index = _addProposalIfNone();\n        _proposals[index].disqualification.challenger = _proposalDisqualificationChallenger;\n    }\n\n    function proposalDisqualificationNonce(address, MonetaryTypesLib.Currency)\n    public\n    view\n    returns (uint256)\n    {\n        return _proposals[_proposals.length - 1].disqualification.nonce;\n    }\n\n    function _setProposalDisqualificationNonce(uint256 _proposalDisqualificationNonce)\n    public\n    {\n        uint256 index = _addProposalIfNone();\n        _proposals[index].disqualification.nonce = _proposalDisqualificationNonce;\n    }\n\n    function proposalDisqualificationBlockNumber(address, MonetaryTypesLib.Currency)\n    public\n    view\n    returns (uint256)\n    {\n        return _proposals[_proposals.length - 1].disqualification.blockNumber;\n    }\n\n    function _setProposalDisqualificationBlockNumber(uint256 _proposalDisqualificationBlockNumber)\n    public\n    {\n        uint256 index = _addProposalIfNone();\n        _proposals[index].disqualification.blockNumber = _proposalDisqualificationBlockNumber;\n    }\n\n    function proposalDisqualificationCandidateHash(address, MonetaryTypesLib.Currency)\n    public\n    view\n    returns (bytes32)\n    {\n        return _proposals[_proposals.length - 1].disqualification.candidate.hash;\n    }\n\n    function _setProposalDisqualificationCandidateHash(bytes32 _proposalDisqualificationCandidateHash)\n    public\n    {\n        uint256 index = _addProposalIfNone();\n        _proposals[index].disqualification.candidate.hash = _proposalDisqualificationCandidateHash;\n    }\n\n    function proposalDisqualificationCandidateKind(address, MonetaryTypesLib.Currency)\n    public\n    view\n    returns (string)\n    {\n        return _proposals[_proposals.length - 1].disqualification.candidate.kind;\n    }\n\n    function _setProposalDisqualificationCandidateKind(string _proposalDisqualificationCandidateKind)\n    public\n    {\n        uint256 index = _addProposalIfNone();\n        _proposals[index].disqualification.candidate.kind = _proposalDisqualificationCandidateKind;\n    }\n\n    function _addProposalIfNone()\n    public\n    returns (uint256)\n    {\n        return _proposals.length > 0 ? _proposals.length - 1 : _proposals.length++;\n    }\n}",
  "sourcePath": "/opt/buildagent/work/855e104608380c36/contracts/test/MockedNullSettlementChallengeState.sol",
  "compiler": {
    "name": "solc",
    "version": "0.4.25+commit.59dbf8f1.Emscripten.clang"
  },
  "schemaVersion": "2.0.2",
  "updatedAt": "2019-04-17T19:44:57.864Z"
}