{
  "contractName": "MockedRevenueToken",
  "abi": [
    {
      "constant": true,
      "inputs": [],
      "name": "_balanceBlocksIn",
      "outputs": [
        {
          "name": "",
          "type": "uint256"
        }
      ],
      "payable": false,
      "stateMutability": "view",
      "type": "function"
    },
    {
      "constant": false,
      "inputs": [],
      "name": "_reset",
      "outputs": [],
      "payable": false,
      "stateMutability": "nonpayable",
      "type": "function"
    },
    {
      "constant": true,
      "inputs": [
        {
          "name": "",
          "type": "address"
        },
        {
          "name": "",
          "type": "uint256"
        },
        {
          "name": "",
          "type": "uint256"
        }
      ],
      "name": "balanceBlocksIn",
      "outputs": [
        {
          "name": "",
          "type": "uint256"
        }
      ],
      "payable": false,
      "stateMutability": "view",
      "type": "function"
    },
    {
      "constant": false,
      "inputs": [
        {
          "name": "_bbIn",
          "type": "uint256"
        }
      ],
      "name": "_setBalanceBlocksIn",
      "outputs": [],
      "payable": false,
      "stateMutability": "nonpayable",
      "type": "function"
    }
  ],
  "bytecode": "0x608060405234801561001057600080fd5b506101e8806100206000396000f3006080604052600436106100485763ffffffff60e060020a6000350416631592f0ab811461004d57806355f729c81461006457806394c9446e1461008f578063a52079ea146100af575b600080fd5b34801561005957600080fd5b506100626100cf565b005b34801561007057600080fd5b506100796100d5565b604051610086919061018b565b60405180910390f35b34801561009b57600080fd5b506100626100aa366004610156565b6100db565b3480156100bb57600080fd5b506100796100ca366004610109565b6100e0565b60008055565b60005481565b600055565b6000549392505050565b60006100f682356101a2565b9392505050565b60006100f6823561019f565b60008060006060848603121561011e57600080fd5b600061012a86866100ea565b935050602061013b868287016100fd565b925050604061014c868287016100fd565b9150509250925092565b60006020828403121561016857600080fd5b600061017484846100fd565b949350505050565b6101858161019f565b82525050565b60208101610199828461017c565b92915050565b90565b600160a060020a0316905600a265627a7a72305820a69c4a6fb8a867da25cbe99a38d95e8cdeef384ff9ffcf8ba03d7970e415d5486c6578706572696d656e74616cf50037",
  "source": "/*\n * Hubii Nahmii\n *\n * Compliant with the Hubii Nahmii specification v0.12.\n *\n * Copyright (C) 2017-2018 Hubii AS\n */\n\npragma solidity ^0.4.25;\npragma experimental ABIEncoderV2;\n\n/**\n * @title MockedRevenueToken\n * @notice Mocked implementation of RevenueToken\n */\ncontract MockedRevenueToken {\n    //\n    // Variables\n    // -----------------------------------------------------------------------------------------------------------------\n    uint256 public _balanceBlocksIn;\n\n    //\n    // Functions\n    // -----------------------------------------------------------------------------------------------------------------\n    function _reset()\n    public\n    {\n        _balanceBlocksIn = 0;\n    }\n\n    function balanceBlocksIn(address, uint256, uint256)\n    public\n    view\n    returns (uint256)\n    {\n        return _balanceBlocksIn;\n    }\n\n    function _setBalanceBlocksIn(uint256 _bbIn)\n    public\n    {\n        _balanceBlocksIn = _bbIn;\n    }\n}\n",
  "sourcePath": "/opt/buildagent/work/855e104608380c36/contracts/test/MockedRevenueToken.sol",
  "compiler": {
    "name": "solc",
    "version": "0.4.25+commit.59dbf8f1.Emscripten.clang"
  },
  "schemaVersion": "2.0.2",
  "updatedAt": "2019-04-17T19:44:57.869Z"
}