{
  "contractName": "MockedBalanceTracker",
  "abi": [
    {
      "constant": true,
      "inputs": [],
      "name": "settledBalanceType",
      "outputs": [
        {
          "name": "",
          "type": "bytes32"
        }
      ],
      "payable": false,
      "stateMutability": "view",
      "type": "function"
    },
    {
      "constant": true,
      "inputs": [],
      "name": "DEPOSITED_BALANCE_TYPE",
      "outputs": [
        {
          "name": "",
          "type": "string"
        }
      ],
      "payable": false,
      "stateMutability": "view",
      "type": "function"
    },
    {
      "constant": true,
      "inputs": [],
      "name": "STAGED_BALANCE_TYPE",
      "outputs": [
        {
          "name": "",
          "type": "string"
        }
      ],
      "payable": false,
      "stateMutability": "view",
      "type": "function"
    },
    {
      "constant": true,
      "inputs": [],
      "name": "stagedBalanceType",
      "outputs": [
        {
          "name": "",
          "type": "bytes32"
        }
      ],
      "payable": false,
      "stateMutability": "view",
      "type": "function"
    },
    {
      "constant": true,
      "inputs": [],
      "name": "SETTLED_BALANCE_TYPE",
      "outputs": [
        {
          "name": "",
          "type": "string"
        }
      ],
      "payable": false,
      "stateMutability": "view",
      "type": "function"
    },
    {
      "constant": true,
      "inputs": [],
      "name": "depositedBalanceType",
      "outputs": [
        {
          "name": "",
          "type": "bytes32"
        }
      ],
      "payable": false,
      "stateMutability": "view",
      "type": "function"
    },
    {
      "inputs": [],
      "payable": false,
      "stateMutability": "nonpayable",
      "type": "constructor"
    },
    {
      "constant": false,
      "inputs": [],
      "name": "_reset",
      "outputs": [],
      "payable": false,
      "stateMutability": "nonpayable",
      "type": "function"
    },
    {
      "constant": false,
      "inputs": [
        {
          "name": "_type",
          "type": "bytes32"
        },
        {
          "name": "amount",
          "type": "int256"
        }
      ],
      "name": "_set",
      "outputs": [],
      "payable": false,
      "stateMutability": "nonpayable",
      "type": "function"
    },
    {
      "constant": true,
      "inputs": [
        {
          "name": "",
          "type": "address"
        },
        {
          "name": "_type",
          "type": "bytes32"
        },
        {
          "name": "",
          "type": "address"
        },
        {
          "name": "",
          "type": "uint256"
        }
      ],
      "name": "get",
      "outputs": [
        {
          "name": "",
          "type": "int256"
        }
      ],
      "payable": false,
      "stateMutability": "view",
      "type": "function"
    },
    {
      "constant": false,
      "inputs": [
        {
          "name": "_type",
          "type": "bytes32"
        },
        {
          "name": "size",
          "type": "uint256"
        }
      ],
      "name": "_setFungibleRecordsCount",
      "outputs": [],
      "payable": false,
      "stateMutability": "nonpayable",
      "type": "function"
    },
    {
      "constant": true,
      "inputs": [
        {
          "name": "",
          "type": "address"
        },
        {
          "name": "_type",
          "type": "bytes32"
        },
        {
          "name": "",
          "type": "address"
        },
        {
          "name": "",
          "type": "uint256"
        }
      ],
      "name": "fungibleRecordsCount",
      "outputs": [
        {
          "name": "",
          "type": "uint256"
        }
      ],
      "payable": false,
      "stateMutability": "view",
      "type": "function"
    },
    {
      "constant": false,
      "inputs": [
        {
          "name": "_type",
          "type": "bytes32"
        },
        {
          "name": "amount",
          "type": "int256"
        },
        {
          "name": "blockNumber",
          "type": "uint256"
        }
      ],
      "name": "_setFungibleRecord",
      "outputs": [],
      "payable": false,
      "stateMutability": "nonpayable",
      "type": "function"
    },
    {
      "constant": true,
      "inputs": [
        {
          "name": "",
          "type": "address"
        },
        {
          "name": "_type",
          "type": "bytes32"
        },
        {
          "name": "",
          "type": "address"
        },
        {
          "name": "",
          "type": "uint256"
        },
        {
          "name": "",
          "type": "uint256"
        }
      ],
      "name": "fungibleRecordByBlockNumber",
      "outputs": [
        {
          "name": "amount",
          "type": "int256"
        },
        {
          "name": "blockNumber",
          "type": "uint256"
        }
      ],
      "payable": false,
      "stateMutability": "view",
      "type": "function"
    },
    {
      "constant": true,
      "inputs": [
        {
          "name": "wallet",
          "type": "address"
        },
        {
          "name": "_type",
          "type": "bytes32"
        },
        {
          "name": "currencyCt",
          "type": "address"
        },
        {
          "name": "currencyId",
          "type": "uint256"
        }
      ],
      "name": "lastFungibleRecord",
      "outputs": [
        {
          "name": "amount",
          "type": "int256"
        },
        {
          "name": "blockNumber",
          "type": "uint256"
        }
      ],
      "payable": false,
      "stateMutability": "view",
      "type": "function"
    }
  ],
  "bytecode": "0x608060405234801561001057600080fd5b506040805190810160405280600981526020017f6465706f736974656400000000000000000000000000000000000000000000008152506040516020018082805190602001908083835b602083106100795780518252601f19909201916020918201910161005a565b6001836020036101000a0380198251168184511680821785525050505050509050019150506040516020818303038152906040526040518082805190602001908083835b602083106100dc5780518252601f1990920191602091820191016100bd565b51815160209384036101000a600019018019909216911617905260408051929094018290038220600055818401845260078083527f736574746c656400000000000000000000000000000000000000000000000000838301908152945192965091019350839291508083835b602083106101675780518252601f199092019160209182019101610148565b6001836020036101000a0380198251168184511680821785525050505050509050019150506040516020818303038152906040526040518082805190602001908083835b602083106101ca5780518252601f1990920191602091820191016101ab565b51815160209384036101000a600019018019909216911617905260408051929094018290038220600155818401845260068083527f7374616765640000000000000000000000000000000000000000000000000000838301908152945192965091019350839291508083835b602083106102555780518252601f199092019160209182019101610236565b6001836020036101000a0380198251168184511680821785525050505050509050019150506040516020818303038152906040526040518082805190602001908083835b602083106102b85780518252601f199092019160209182019101610299565b5181516000196020949094036101000a939093019283169219169190911790526040519201829003909120600255505050610781806102f86000396000f3006080604052600436106100b65763ffffffff60e060020a600035041663091a194b81146100bb5780631592f0ab146100fb57806345de4006146101125780634652ec741461012d5780635106c20314610142578063528162c2146101cc5780636f4a1815146101e157806371f4ec511461022857806379d6373c14610256578063a246138c1461026b578063c60c5b6c1461029c578063d22625bf146102b1578063ded11310146102cf578063e2fff48a146102e4575b600080fd5b3480156100c757600080fd5b506100e9600160a060020a0360043581169060243590604435166064356102ff565b60408051918252519081900360200190f35b34801561010757600080fd5b50610110610315565b005b34801561011e57600080fd5b506101106004356024356104de565b34801561013957600080fd5b506100e9610551565b34801561014e57600080fd5b50610157610557565b6040805160208082528351818301528351919283929083019185019080838360005b83811015610191578181015183820152602001610179565b50505050905090810190601f1680156101be5780820380516001836020036101000a031916815260200191505b509250505060405180910390f35b3480156101d857600080fd5b5061015761057d565b3480156101ed57600080fd5b5061020f600160a060020a0360043581169060243590604435166064356105a0565b6040805192835260208301919091528051918290030190f35b34801561023457600080fd5b506100e9600160a060020a0360043581169060243590604435166064356105be565b34801561026257600080fd5b506100e96105d4565b34801561027757600080fd5b5061020f600160a060020a0360043581169060243590604435166064356084356105da565b3480156102a857600080fd5b506101576105fa565b3480156102bd57600080fd5b5061011060043560243560443561061e565b3480156102db57600080fd5b506100e961069c565b3480156102f057600080fd5b506101106004356024356106a2565b5050600090815260066020526040902054919050565b60005b60045481101561039c5760006003600060048481548110151561033757fe5b600091825260208083209091015483528201929092526040018120919091556004805460059183918590811061036957fe5b60009182526020808320919091015483528201929092526040019020805460ff1916911515919091179055600101610318565b60006103a9600482610715565b50600090505b600754811015610433576000600660006007848154811015156103ce57fe5b600091825260208083209091015483528201929092526040018120919091556007805460089183918590811061040057fe5b60009182526020808320919091015483528201929092526040019020805460ff19169115159190911790556001016103af565b6000610440600782610715565b50600090505b600a548110156104cd5760096000600a8381548110151561046357fe5b600091825260208083209091015483528201929092526040018120818155600101819055600a8054600b9183918590811061049a57fe5b60009182526020808320919091015483528201929092526040019020805460ff1916911515919091179055600101610446565b60006104da600a82610715565b5050565b6000828152600360209081526040808320849055600590915290205460ff1615156104da57506000818152600560205260408120805460ff191660019081179091556004805491820181559091527f8a35acfbc15ff81a39ae7d344fd709f28e8600b4aa8c65c6b64bfe7fe36bd19b0155565b60015481565b604080518082019091526009815260ba60020a6819195c1bdcda5d195902602082015281565b604080518082019091526006815260d260020a651cdd1859d95902602082015281565b6000806105b18686868660006105da565b9150915094509492505050565b5050600090815260036020526040902054919050565b60025481565b505050600090815260096020526040902080546001909101549092909150565b604080518082019091526007815260ca60020a661cd95d1d1b195902602082015281565b6000838152600960209081526040808320858155600101849055600b90915290205460ff161515610697576000838152600b60205260408120805460ff19166001908117909155600a805491820181559091527fc65a7bb8d6351c1cf70c95a316cc6a92839c986682d98bc35f958f4883f9d2a8018390555b505050565b60005481565b6000828152600660209081526040808320849055600890915290205460ff1615156104da57506000818152600860205260408120805460ff191660019081179091556007805491820181559091527fa66cc928b5edb82af9bd49922954155ab7b0942694bea4ce44661d9a8736c6880155565b8154818355818111156106975760008381526020902061069791810190830161075291905b8082111561074e576000815560010161073a565b5090565b905600a165627a7a72305820d0e2837338f38b60953e0edfd89dc61f14b216dac8f46fe9961e380187edac340029",
  "source": "/*\n * Hubii Nahmii\n *\n * Compliant with the Hubii Nahmii specification v0.12.\n *\n * Copyright (C) 2017-2018 Hubii AS\n */\n\npragma solidity ^0.4.25;\n\n/**\n * @title MockedBalanceTracker\n * @notice Mocked implementation of balance tracker contract\n */\ncontract MockedBalanceTracker {\n    //\n    // Constants\n    // -----------------------------------------------------------------------------------------------------------------\n    string constant public DEPOSITED_BALANCE_TYPE = \"deposited\";\n    string constant public SETTLED_BALANCE_TYPE = \"settled\";\n    string constant public STAGED_BALANCE_TYPE = \"staged\";\n\n    //\n    // Types\n    // -----------------------------------------------------------------------------------------------------------------\n    struct FungibleRecord {\n        int256 amount;\n        uint256 blockNumber;\n    }\n\n    //\n    // Variables\n    // -----------------------------------------------------------------------------------------------------------------\n    bytes32 public depositedBalanceType;\n    bytes32 public settledBalanceType;\n    bytes32 public stagedBalanceType;\n\n    mapping(bytes32 => int256) private _fungibleBalanceAmountByType;\n    bytes32[] private _fungibleBalanceAmountTypes;\n    mapping(bytes32 => bool) private _fungibleBalanceAmountSet;\n\n    mapping(bytes32 => uint256) private _fungibleRecordsCountByType;\n    bytes32[] private _fungibleRecordsCountTypes;\n    mapping(bytes32 => bool) private _fungibleRecordsCountSet;\n\n    mapping(bytes32 => FungibleRecord) private _fungibleRecordByType;\n    bytes32[] private _fungibleRecordTypes;\n    mapping(bytes32 => bool) private _fungibleRecordTypeSet;\n\n    //\n    // Constructor\n    // -----------------------------------------------------------------------------------------------------------------\n    constructor()\n    public\n    {\n        depositedBalanceType = keccak256(abi.encodePacked(DEPOSITED_BALANCE_TYPE));\n        settledBalanceType = keccak256(abi.encodePacked(SETTLED_BALANCE_TYPE));\n        stagedBalanceType = keccak256(abi.encodePacked(STAGED_BALANCE_TYPE));\n    }\n\n    //\n    // Functions\n    // -----------------------------------------------------------------------------------------------------------------\n    function _reset()\n    public\n    {\n        uint256 i;\n\n        for (i = 0; i < _fungibleBalanceAmountTypes.length; i++) {\n            _fungibleBalanceAmountByType[_fungibleBalanceAmountTypes[i]] = 0;\n            _fungibleBalanceAmountSet[_fungibleBalanceAmountTypes[i]] = false;\n        }\n        _fungibleBalanceAmountTypes.length = 0;\n\n        for (i = 0; i < _fungibleRecordsCountTypes.length; i++) {\n            _fungibleRecordsCountByType[_fungibleRecordsCountTypes[i]] = 0;\n            _fungibleRecordsCountSet[_fungibleRecordsCountTypes[i]] = false;\n        }\n        _fungibleRecordsCountTypes.length = 0;\n\n        for (i = 0; i < _fungibleRecordTypes.length; i++) {\n            delete _fungibleRecordByType[_fungibleRecordTypes[i]];\n            _fungibleRecordTypeSet[_fungibleRecordTypes[i]] = false;\n        }\n        _fungibleRecordTypes.length = 0;\n    }\n\n    function _set(bytes32 _type, int256 amount)\n    public\n    {\n        _fungibleBalanceAmountByType[_type] = amount;\n\n        if (!_fungibleBalanceAmountSet[_type]) {\n            _fungibleBalanceAmountSet[_type] = true;\n            _fungibleBalanceAmountTypes.push(_type);\n        }\n    }\n\n    function get(address, bytes32 _type, address, uint256)\n    public\n    view\n    returns (int256)\n    {\n        return _fungibleBalanceAmountByType[_type];\n    }\n\n    function _setFungibleRecordsCount(bytes32 _type, uint256 size)\n    public\n    {\n        _fungibleRecordsCountByType[_type] = size;\n\n        if (!_fungibleRecordsCountSet[_type]) {\n            _fungibleRecordsCountSet[_type] = true;\n            _fungibleRecordsCountTypes.push(_type);\n        }\n    }\n\n    function fungibleRecordsCount(address, bytes32 _type, address, uint256)\n    public\n    view\n    returns (uint256)\n    {\n        return _fungibleRecordsCountByType[_type];\n    }\n\n    function _setFungibleRecord(bytes32 _type, int256 amount, uint256 blockNumber)\n    public\n    {\n        _fungibleRecordByType[_type].amount = amount;\n        _fungibleRecordByType[_type].blockNumber = blockNumber;\n\n        if (!_fungibleRecordTypeSet[_type]) {\n            _fungibleRecordTypeSet[_type] = true;\n            _fungibleRecordTypes.push(_type);\n        }\n    }\n\n    function fungibleRecordByBlockNumber(address, bytes32 _type, address, uint256, uint256)\n    public\n    view\n    returns (int256 amount, uint256 blockNumber)\n    {\n        amount = _fungibleRecordByType[_type].amount;\n        blockNumber = _fungibleRecordByType[_type].blockNumber;\n    }\n\n    function lastFungibleRecord(address wallet, bytes32 _type, address currencyCt, uint256 currencyId)\n    public\n    view\n    returns (int256 amount, uint256 blockNumber)\n    {\n        return fungibleRecordByBlockNumber(wallet, _type, currencyCt, currencyId, 0);\n    }\n}",
  "sourcePath": "/opt/buildagent/work/855e104608380c36/contracts/test/MockedBalanceTracker.sol",
  "compiler": {
    "name": "solc",
    "version": "0.4.25+commit.59dbf8f1.Emscripten.clang"
  },
  "schemaVersion": "2.0.2",
  "updatedAt": "2019-04-17T19:44:57.839Z"
}