{
  "contractName": "MockedBeneficiary",
  "abi": [
    {
      "constant": true,
      "inputs": [
        {
          "name": "",
          "type": "uint256"
        }
      ],
      "name": "_benefits",
      "outputs": [
        {
          "name": "wallet",
          "type": "address"
        },
        {
          "name": "balanceType",
          "type": "string"
        },
        {
          "components": [
            {
              "name": "amount",
              "type": "int256"
            },
            {
              "components": [
                {
                  "name": "ct",
                  "type": "address"
                },
                {
                  "name": "id",
                  "type": "uint256"
                }
              ],
              "name": "currency",
              "type": "tuple"
            }
          ],
          "name": "figure",
          "type": "tuple"
        },
        {
          "name": "standard",
          "type": "string"
        }
      ],
      "payable": false,
      "stateMutability": "view",
      "type": "function"
    },
    {
      "constant": false,
      "inputs": [],
      "name": "_reset",
      "outputs": [],
      "payable": false,
      "stateMutability": "nonpayable",
      "type": "function"
    },
    {
      "constant": false,
      "inputs": [
        {
          "name": "wallet",
          "type": "address"
        },
        {
          "name": "balanceType",
          "type": "string"
        }
      ],
      "name": "receiveEthersTo",
      "outputs": [],
      "payable": true,
      "stateMutability": "payable",
      "type": "function"
    },
    {
      "constant": false,
      "inputs": [
        {
          "name": "wallet",
          "type": "address"
        },
        {
          "name": "balanceType",
          "type": "string"
        },
        {
          "name": "amount",
          "type": "int256"
        },
        {
          "name": "currencyCt",
          "type": "address"
        },
        {
          "name": "currencyId",
          "type": "uint256"
        },
        {
          "name": "standard",
          "type": "string"
        }
      ],
      "name": "receiveTokensTo",
      "outputs": [],
      "payable": false,
      "stateMutability": "nonpayable",
      "type": "function"
    },
    {
      "constant": true,
      "inputs": [
        {
          "name": "index",
          "type": "uint256"
        }
      ],
      "name": "_getBenefit",
      "outputs": [
        {
          "name": "wallet",
          "type": "address"
        },
        {
          "name": "balanceType",
          "type": "string"
        },
        {
          "name": "amount",
          "type": "int256"
        },
        {
          "name": "currencyCt",
          "type": "address"
        },
        {
          "name": "currencyId",
          "type": "uint256"
        },
        {
          "name": "standard",
          "type": "string"
        }
      ],
      "payable": false,
      "stateMutability": "view",
      "type": "function"
    }
  ],
  "bytecode": "0x608060405234801561001057600080fd5b50610b8c806100206000396000f3006080604052600436106100535763ffffffff60e060020a6000350416631592f0ab81146100585780635f2896511461006f578063a7654a1f1461012f578063ab34a92c14610189578063d2c6a9b0146102bf575b600080fd5b34801561006457600080fd5b5061006d6103d5565b005b34801561007b57600080fd5b5060408051602060046024803582810135601f810185900485028601850190965285855261006d958335600160a060020a031695369560449491939091019190819084018382808284375050604080516020601f60608a01358b0180359182018390048302840183018552818452989b8a359b600160a060020a03848d0135169b958601359a9199509750608090940195509193509182019181908401838280828437509497506103e49650505050505050565b60408051602060046024803582810135601f810185900485028601850190965285855261006d958335600160a060020a03169536956044949193909101919081908401838280828437509497506104f19650505050505050565b34801561019557600080fd5b506101a1600435610607565b6040518087600160a060020a0316600160a060020a031681526020018060200186815260200185600160a060020a0316600160a060020a0316815260200184815260200180602001838103835288818151815260200191508051906020019080838360005b8381101561021e578181015183820152602001610206565b50505050905090810190601f16801561024b5780820380516001836020036101000a031916815260200191505b50838103825284518152845160209182019186019080838360005b8381101561027e578181015183820152602001610266565b50505050905090810190601f1680156102ab5780820380516001836020036101000a031916815260200191505b509850505050505050505060405180910390f35b3480156102cb57600080fd5b506102d760043561081b565b6040518085600160a060020a0316600160a060020a031681526020018060200184815260200180602001838103835286818151815260200191508051906020019080838360005b8381101561033657818101518382015260200161031e565b50505050905090810190601f1680156103635780820380516001836020036101000a031916815260200191505b50838103825284518152845160209182019186019080838360005b8381101561039657818101518382015260200161037e565b50505050905090810190601f1680156103c35780820380516001836020036101000a031916815260200191505b50965050505050505060405180910390f35b60006103e181806109ac565b50565b60408051608081018252600160a060020a03888116825260208083018981528451808601865289815285518087018752898516815280840189905281840152948401949094526060830185905260008054600181018083559180528451600080516020610b2183398151915260069092029182018054600160a060020a0319169190951617845594518051919561049093600080516020610b41833981519152909101929101906109dd565b506040820151805160028301556020908101518051600384018054600160a060020a031916600160a060020a039092169190911790558101516004830155606083015180516104e592600585019201906109dd565b50505050505050505050565b60408051608081018252600160a060020a0384811682526020808301858152845180860186523481528551808701875260008082528185018190528285019190915285870191909152855180840190965280865260608501959095528454600181018087559580528451600080516020610b2183398151915260069092029182018054600160a060020a03191691909516178455905180516105aa93600080516020610b418339815191529093019291909101906109dd565b506040820151805160028301556020908101518051600384018054600160a060020a031916600160a060020a039092169190911790558101516004830155606083015180516105ff92600585019201906109dd565b505050505050565b600060606000806000606060008781548110151561062157fe5b600091825260208220600690910201548154600160a060020a0390911697508890811061064a57fe5b90600052602060002090600602016001018054600181600116156101000203166002900480601f0160208091040260200160405190810160405280929190818152602001828054600181600116156101000203166002900480156106ef5780601f106106c4576101008083540402835291602001916106ef565b820191906000526020600020905b8154815290600101906020018083116106d257829003601f168201915b5050505050945060008781548110151561070557fe5b6000918252602082206002600690920201015481549095508890811061072757fe5b600091825260208220600360069092020101548154600160a060020a0390911694508890811061075357fe5b6000918252602082206004600690920201015481549093508890811061077557fe5b6000918252602091829020600560069092020101805460408051601f600260001961010060018716150201909416939093049283018590048502810185019091528181529283018282801561080b5780601f106107e05761010080835404028352916020019161080b565b820191906000526020600020905b8154815290600101906020018083116107ee57829003601f168201915b5050505050905091939550919395565b600080548290811061082957fe5b600091825260209182902060069091020180546001808301805460408051601f6002600019968516156101000296909601909316949094049182018790048702840187019052808352600160a060020a0390931695509293909291908301828280156108d65780601f106108ab576101008083540402835291602001916108d6565b820191906000526020600020905b8154815290600101906020018083116108b957829003601f168201915b50506040805180820182526002878101548252825180840184526003890154600160a060020a0316815260048901546020808301919091528084019190915260058901805485516101006001831615026000190190911693909304601f8101839004830284018301909552848352979892979296509094509092508301828280156109a25780601f10610977576101008083540402835291602001916109a2565b820191906000526020600020905b81548152906001019060200180831161098557829003601f168201915b5050505050905084565b8154818355818111156109d8576006028160060283600052602060002091820191016109d89190610a5b565b505050565b828054600181600116156101000203166002900490600052602060002090601f016020900481019282601f10610a1e57805160ff1916838001178555610a4b565b82800160010185558215610a4b579182015b82811115610a4b578251825591602001919060010190610a30565b50610a57929150610ac2565b5090565b610abf91905b80821115610a57578054600160a060020a03191681556000610a866001830182610adc565b600060028301819055600383018054600160a060020a031916905560048301819055610ab6906005840190610adc565b50600601610a61565b90565b610abf91905b80821115610a575760008155600101610ac8565b50805460018160011615610100020316600290046000825580601f10610b0257506103e1565b601f0160209004906000526020600020908101906103e19190610ac25600290decd9548b62a8d60345a988386fc84ba6bc95484008f6362f93160ef3e563290decd9548b62a8d60345a988386fc84ba6bc95484008f6362f93160ef3e564a165627a7a7230582051929606d7f0526e2dd7678de26fbb9a66b83adb24fe14cdb50321f2212dd5580029",
  "source": "/*\n * Hubii Nahmii\n *\n * Compliant with the Hubii Nahmii specification v0.12.\n *\n * Copyright (C) 2017-2018 Hubii AS\n */\n\npragma solidity ^0.4.25;\n\nimport {Beneficiary} from \"../Beneficiary.sol\";\nimport {MonetaryTypesLib} from \"../MonetaryTypesLib.sol\";\n\n/**\n * @title MockedBeneficiary\n * @notice Mocked implementation of beneficiary\n */\ncontract MockedBeneficiary is Beneficiary {\n    //\n    // Types\n    // -----------------------------------------------------------------------------------------------------------------\n    struct Benefit {\n        address wallet;\n        string balanceType;\n        MonetaryTypesLib.Figure figure;\n        string standard;\n    }\n\n    //\n    // Variables\n    // -----------------------------------------------------------------------------------------------------------------\n    Benefit[] public _benefits;\n\n    //\n    // Functions\n    // -----------------------------------------------------------------------------------------------------------------\n    function _reset()\n    public\n    {\n        _benefits.length = 0;\n    }\n\n    function receiveEthersTo(address wallet, string balanceType)\n    public\n    payable\n    {\n        _benefits.push(\n            Benefit(\n                wallet,\n                balanceType,\n                MonetaryTypesLib.Figure(\n                    int256(msg.value),\n                    MonetaryTypesLib.Currency(address(0), 0)\n                ),\n                \"\"\n            )\n        );\n    }\n\n    function receiveTokensTo(address wallet, string balanceType, int256 amount,\n        address currencyCt, uint256 currencyId, string standard)\n    public\n    {\n        _benefits.push(\n            Benefit(\n                wallet,\n                balanceType,\n                MonetaryTypesLib.Figure(\n                    amount,\n                    MonetaryTypesLib.Currency(currencyCt, currencyId)\n                ),\n                standard\n            )\n        );\n    }\n\n    function _getBenefit(uint256 index)\n    public\n    view\n    returns (address wallet, string balanceType, int256 amount, address currencyCt,\n        uint256 currencyId, string standard)\n    {\n        wallet = _benefits[index].wallet;\n        balanceType = _benefits[index].balanceType;\n        amount = _benefits[index].figure.amount;\n        currencyCt = _benefits[index].figure.currency.ct;\n        currencyId = _benefits[index].figure.currency.id;\n        standard = _benefits[index].standard;\n    }\n}",
  "sourcePath": "/opt/buildagent/work/855e104608380c36/contracts/test/MockedBeneficiary.sol",
  "compiler": {
    "name": "solc",
    "version": "0.4.25+commit.59dbf8f1.Emscripten.clang"
  },
  "schemaVersion": "2.0.2",
  "updatedAt": "2019-04-18T00:23:49.680Z"
}