{
  "contractName": "MockedFraudChallenge",
  "abi": [
    {
      "constant": true,
      "inputs": [],
      "name": "fraudulentOrderHashesCount",
      "outputs": [
        {
          "name": "",
          "type": "uint256"
        }
      ],
      "payable": false,
      "stateMutability": "view",
      "type": "function"
    },
    {
      "constant": true,
      "inputs": [
        {
          "name": "service",
          "type": "address"
        }
      ],
      "name": "isRegisteredActiveService",
      "outputs": [
        {
          "name": "",
          "type": "bool"
        }
      ],
      "payable": false,
      "stateMutability": "view",
      "type": "function"
    },
    {
      "constant": false,
      "inputs": [],
      "name": "triggerSelfDestruction",
      "outputs": [],
      "payable": false,
      "stateMutability": "nonpayable",
      "type": "function"
    },
    {
      "constant": false,
      "inputs": [
        {
          "name": "service",
          "type": "address"
        },
        {
          "name": "action",
          "type": "string"
        }
      ],
      "name": "enableServiceAction",
      "outputs": [],
      "payable": false,
      "stateMutability": "nonpayable",
      "type": "function"
    },
    {
      "constant": true,
      "inputs": [
        {
          "name": "service",
          "type": "address"
        }
      ],
      "name": "isRegisteredService",
      "outputs": [
        {
          "name": "",
          "type": "bool"
        }
      ],
      "payable": false,
      "stateMutability": "view",
      "type": "function"
    },
    {
      "constant": true,
      "inputs": [],
      "name": "selfDestructionDisabled",
      "outputs": [
        {
          "name": "",
          "type": "bool"
        }
      ],
      "payable": false,
      "stateMutability": "view",
      "type": "function"
    },
    {
      "constant": false,
      "inputs": [
        {
          "name": "service",
          "type": "address"
        },
        {
          "name": "action",
          "type": "string"
        }
      ],
      "name": "disableServiceAction",
      "outputs": [],
      "payable": false,
      "stateMutability": "nonpayable",
      "type": "function"
    },
    {
      "constant": true,
      "inputs": [],
      "name": "serviceActivationTimeout",
      "outputs": [
        {
          "name": "",
          "type": "uint256"
        }
      ],
      "payable": false,
      "stateMutability": "view",
      "type": "function"
    },
    {
      "constant": true,
      "inputs": [],
      "name": "destructor",
      "outputs": [
        {
          "name": "",
          "type": "address"
        }
      ],
      "payable": false,
      "stateMutability": "view",
      "type": "function"
    },
    {
      "constant": false,
      "inputs": [
        {
          "name": "service",
          "type": "address"
        }
      ],
      "name": "deregisterService",
      "outputs": [],
      "payable": false,
      "stateMutability": "nonpayable",
      "type": "function"
    },
    {
      "constant": true,
      "inputs": [],
      "name": "operator",
      "outputs": [
        {
          "name": "",
          "type": "address"
        }
      ],
      "payable": false,
      "stateMutability": "view",
      "type": "function"
    },
    {
      "constant": true,
      "inputs": [
        {
          "name": "service",
          "type": "address"
        },
        {
          "name": "action",
          "type": "string"
        }
      ],
      "name": "isEnabledServiceAction",
      "outputs": [
        {
          "name": "",
          "type": "bool"
        }
      ],
      "payable": false,
      "stateMutability": "view",
      "type": "function"
    },
    {
      "constant": true,
      "inputs": [],
      "name": "fraudulentPaymentHashesCount",
      "outputs": [
        {
          "name": "",
          "type": "uint256"
        }
      ],
      "payable": false,
      "stateMutability": "view",
      "type": "function"
    },
    {
      "constant": false,
      "inputs": [],
      "name": "disableSelfDestruction",
      "outputs": [],
      "payable": false,
      "stateMutability": "nonpayable",
      "type": "function"
    },
    {
      "constant": true,
      "inputs": [],
      "name": "ADD_FRAUDULENT_TRADE_ACTION",
      "outputs": [
        {
          "name": "",
          "type": "string"
        }
      ],
      "payable": false,
      "stateMutability": "view",
      "type": "function"
    },
    {
      "constant": true,
      "inputs": [],
      "name": "doubleSpenderWalletsCount",
      "outputs": [
        {
          "name": "",
          "type": "uint256"
        }
      ],
      "payable": false,
      "stateMutability": "view",
      "type": "function"
    },
    {
      "constant": false,
      "inputs": [
        {
          "name": "timeoutInSeconds",
          "type": "uint256"
        }
      ],
      "name": "setServiceActivationTimeout",
      "outputs": [],
      "payable": false,
      "stateMutability": "nonpayable",
      "type": "function"
    },
    {
      "constant": true,
      "inputs": [
        {
          "name": "",
          "type": "bytes32"
        }
      ],
      "name": "fraudulentByTradeHash",
      "outputs": [
        {
          "name": "",
          "type": "bool"
        }
      ],
      "payable": false,
      "stateMutability": "view",
      "type": "function"
    },
    {
      "constant": true,
      "inputs": [
        {
          "name": "hash",
          "type": "bytes32"
        }
      ],
      "name": "isFraudulentPaymentHash",
      "outputs": [
        {
          "name": "",
          "type": "bool"
        }
      ],
      "payable": false,
      "stateMutability": "view",
      "type": "function"
    },
    {
      "constant": false,
      "inputs": [
        {
          "name": "service",
          "type": "address"
        }
      ],
      "name": "registerServiceDeferred",
      "outputs": [],
      "payable": false,
      "stateMutability": "nonpayable",
      "type": "function"
    },
    {
      "constant": true,
      "inputs": [
        {
          "name": "wallet",
          "type": "address"
        }
      ],
      "name": "isDoubleSpenderWallet",
      "outputs": [
        {
          "name": "",
          "type": "bool"
        }
      ],
      "payable": false,
      "stateMutability": "view",
      "type": "function"
    },
    {
      "constant": true,
      "inputs": [],
      "name": "ADD_SEIZED_WALLET_ACTION",
      "outputs": [
        {
          "name": "",
          "type": "string"
        }
      ],
      "payable": false,
      "stateMutability": "view",
      "type": "function"
    },
    {
      "constant": false,
      "inputs": [
        {
          "name": "newDeployer",
          "type": "address"
        }
      ],
      "name": "setDeployer",
      "outputs": [],
      "payable": false,
      "stateMutability": "nonpayable",
      "type": "function"
    },
    {
      "constant": true,
      "inputs": [
        {
          "name": "",
          "type": "bytes32"
        }
      ],
      "name": "fraudulentByPaymentHash",
      "outputs": [
        {
          "name": "",
          "type": "bool"
        }
      ],
      "payable": false,
      "stateMutability": "view",
      "type": "function"
    },
    {
      "constant": true,
      "inputs": [
        {
          "name": "",
          "type": "uint256"
        }
      ],
      "name": "fraudulentOrderHashes",
      "outputs": [
        {
          "name": "",
          "type": "bytes32"
        }
      ],
      "payable": false,
      "stateMutability": "view",
      "type": "function"
    },
    {
      "constant": true,
      "inputs": [
        {
          "name": "hash",
          "type": "bytes32"
        }
      ],
      "name": "isFraudulentTradeHash",
      "outputs": [
        {
          "name": "",
          "type": "bool"
        }
      ],
      "payable": false,
      "stateMutability": "view",
      "type": "function"
    },
    {
      "constant": false,
      "inputs": [
        {
          "name": "newOperator",
          "type": "address"
        }
      ],
      "name": "setOperator",
      "outputs": [],
      "payable": false,
      "stateMutability": "nonpayable",
      "type": "function"
    },
    {
      "constant": true,
      "inputs": [],
      "name": "fraudulentTradeHashesCount",
      "outputs": [
        {
          "name": "",
          "type": "uint256"
        }
      ],
      "payable": false,
      "stateMutability": "view",
      "type": "function"
    },
    {
      "constant": true,
      "inputs": [],
      "name": "deployer",
      "outputs": [
        {
          "name": "",
          "type": "address"
        }
      ],
      "payable": false,
      "stateMutability": "view",
      "type": "function"
    },
    {
      "constant": true,
      "inputs": [
        {
          "name": "",
          "type": "uint256"
        }
      ],
      "name": "fraudulentTradeHashes",
      "outputs": [
        {
          "name": "",
          "type": "bytes32"
        }
      ],
      "payable": false,
      "stateMutability": "view",
      "type": "function"
    },
    {
      "constant": true,
      "inputs": [
        {
          "name": "",
          "type": "uint256"
        }
      ],
      "name": "doubleSpenderWallets",
      "outputs": [
        {
          "name": "",
          "type": "address"
        }
      ],
      "payable": false,
      "stateMutability": "view",
      "type": "function"
    },
    {
      "constant": true,
      "inputs": [
        {
          "name": "hash",
          "type": "bytes32"
        }
      ],
      "name": "isFraudulentOrderHash",
      "outputs": [
        {
          "name": "",
          "type": "bool"
        }
      ],
      "payable": false,
      "stateMutability": "view",
      "type": "function"
    },
    {
      "constant": true,
      "inputs": [
        {
          "name": "",
          "type": "uint256"
        }
      ],
      "name": "fraudulentPaymentHashes",
      "outputs": [
        {
          "name": "",
          "type": "bytes32"
        }
      ],
      "payable": false,
      "stateMutability": "view",
      "type": "function"
    },
    {
      "constant": true,
      "inputs": [],
      "name": "ADD_DOUBLE_SPENDER_WALLET_ACTION",
      "outputs": [
        {
          "name": "",
          "type": "string"
        }
      ],
      "payable": false,
      "stateMutability": "view",
      "type": "function"
    },
    {
      "constant": true,
      "inputs": [],
      "name": "ADD_FRAUDULENT_ORDER_ACTION",
      "outputs": [
        {
          "name": "",
          "type": "string"
        }
      ],
      "payable": false,
      "stateMutability": "view",
      "type": "function"
    },
    {
      "constant": true,
      "inputs": [
        {
          "name": "",
          "type": "address"
        }
      ],
      "name": "doubleSpenderByWallet",
      "outputs": [
        {
          "name": "",
          "type": "bool"
        }
      ],
      "payable": false,
      "stateMutability": "view",
      "type": "function"
    },
    {
      "constant": true,
      "inputs": [],
      "name": "ADD_FRAUDULENT_PAYMENT_ACTION",
      "outputs": [
        {
          "name": "",
          "type": "string"
        }
      ],
      "payable": false,
      "stateMutability": "view",
      "type": "function"
    },
    {
      "constant": true,
      "inputs": [
        {
          "name": "",
          "type": "bytes32"
        }
      ],
      "name": "fraudulentByOrderHash",
      "outputs": [
        {
          "name": "",
          "type": "bool"
        }
      ],
      "payable": false,
      "stateMutability": "view",
      "type": "function"
    },
    {
      "constant": false,
      "inputs": [
        {
          "name": "service",
          "type": "address"
        }
      ],
      "name": "registerService",
      "outputs": [],
      "payable": false,
      "stateMutability": "nonpayable",
      "type": "function"
    },
    {
      "inputs": [
        {
          "name": "owner",
          "type": "address"
        }
      ],
      "payable": false,
      "stateMutability": "nonpayable",
      "type": "constructor"
    },
    {
      "anonymous": false,
      "inputs": [
        {
          "indexed": false,
          "name": "wallet",
          "type": "address"
        }
      ],
      "name": "AddDoubleSpenderWalletEvent",
      "type": "event"
    },
    {
      "anonymous": false,
      "inputs": [
        {
          "indexed": false,
          "name": "hash",
          "type": "bytes32"
        }
      ],
      "name": "AddFraudulentOrderHashEvent",
      "type": "event"
    },
    {
      "anonymous": false,
      "inputs": [
        {
          "indexed": false,
          "name": "hash",
          "type": "bytes32"
        }
      ],
      "name": "AddFraudulentTradeHashEvent",
      "type": "event"
    },
    {
      "anonymous": false,
      "inputs": [
        {
          "indexed": false,
          "name": "hash",
          "type": "bytes32"
        }
      ],
      "name": "AddFraudulentPaymentHashEvent",
      "type": "event"
    },
    {
      "anonymous": false,
      "inputs": [
        {
          "indexed": false,
          "name": "timeoutInSeconds",
          "type": "uint256"
        }
      ],
      "name": "ServiceActivationTimeoutEvent",
      "type": "event"
    },
    {
      "anonymous": false,
      "inputs": [
        {
          "indexed": false,
          "name": "service",
          "type": "address"
        }
      ],
      "name": "RegisterServiceEvent",
      "type": "event"
    },
    {
      "anonymous": false,
      "inputs": [
        {
          "indexed": false,
          "name": "service",
          "type": "address"
        },
        {
          "indexed": false,
          "name": "timeout",
          "type": "uint256"
        }
      ],
      "name": "RegisterServiceDeferredEvent",
      "type": "event"
    },
    {
      "anonymous": false,
      "inputs": [
        {
          "indexed": false,
          "name": "service",
          "type": "address"
        }
      ],
      "name": "DeregisterServiceEvent",
      "type": "event"
    },
    {
      "anonymous": false,
      "inputs": [
        {
          "indexed": false,
          "name": "service",
          "type": "address"
        },
        {
          "indexed": false,
          "name": "action",
          "type": "string"
        }
      ],
      "name": "EnableServiceActionEvent",
      "type": "event"
    },
    {
      "anonymous": false,
      "inputs": [
        {
          "indexed": false,
          "name": "service",
          "type": "address"
        },
        {
          "indexed": false,
          "name": "action",
          "type": "string"
        }
      ],
      "name": "DisableServiceActionEvent",
      "type": "event"
    },
    {
      "anonymous": false,
      "inputs": [
        {
          "indexed": false,
          "name": "oldDeployer",
          "type": "address"
        },
        {
          "indexed": false,
          "name": "newDeployer",
          "type": "address"
        }
      ],
      "name": "SetDeployerEvent",
      "type": "event"
    },
    {
      "anonymous": false,
      "inputs": [
        {
          "indexed": false,
          "name": "oldOperator",
          "type": "address"
        },
        {
          "indexed": false,
          "name": "newOperator",
          "type": "address"
        }
      ],
      "name": "SetOperatorEvent",
      "type": "event"
    },
    {
      "anonymous": false,
      "inputs": [
        {
          "indexed": false,
          "name": "wallet",
          "type": "address"
        }
      ],
      "name": "SelfDestructionDisabledEvent",
      "type": "event"
    },
    {
      "anonymous": false,
      "inputs": [
        {
          "indexed": false,
          "name": "wallet",
          "type": "address"
        }
      ],
      "name": "TriggerSelfDestructionEvent",
      "type": "event"
    },
    {
      "constant": false,
      "inputs": [],
      "name": "_reset",
      "outputs": [],
      "payable": false,
      "stateMutability": "nonpayable",
      "type": "function"
    },
    {
      "constant": false,
      "inputs": [
        {
          "name": "hash",
          "type": "bytes32"
        }
      ],
      "name": "addFraudulentOrderHash",
      "outputs": [],
      "payable": false,
      "stateMutability": "nonpayable",
      "type": "function"
    },
    {
      "constant": false,
      "inputs": [
        {
          "name": "hash",
          "type": "bytes32"
        }
      ],
      "name": "addFraudulentTradeHash",
      "outputs": [],
      "payable": false,
      "stateMutability": "nonpayable",
      "type": "function"
    },
    {
      "constant": false,
      "inputs": [
        {
          "name": "hash",
          "type": "bytes32"
        }
      ],
      "name": "addFraudulentPaymentHash",
      "outputs": [],
      "payable": false,
      "stateMutability": "nonpayable",
      "type": "function"
    },
    {
      "constant": false,
      "inputs": [
        {
          "name": "wallet",
          "type": "address"
        }
      ],
      "name": "addDoubleSpenderWallet",
      "outputs": [],
      "payable": false,
      "stateMutability": "nonpayable",
      "type": "function"
    }
  ],
  "bytecode": "0x60806040523480156200001157600080fd5b50604051602080620019588339810180604052620000339190810190620000b9565b808080600160a060020a03811615156200004c57600080fd5b600160a060020a0381163014156200006357600080fd5b506000805461010060a860020a031916610100600160a060020a039390931692830217905560018054600160a060020a031916909117905550620000ee9050565b6000620000b28251620000e2565b9392505050565b600060208284031215620000cc57600080fd5b6000620000da8484620000a4565b949350505050565b600160a060020a031690565b61185a80620000fe6000396000f3006080604052600436106102005763ffffffff60e060020a6000350416631456b8f481146102055780631592f0ab1461023057806317ba3f90146102475780632738a112146102745780632b5672e3146102895780632b91e0a9146102a95780632f013a00146102c95780633b58c501146102de5780633b7bea6c146102fe5780634476d23b146103135780634a63a23a1461033557806350b08c0214610355578063536739e114610375578063570ca735146103955780635df1b0a3146103aa5780636e4a0c0f146103ca57806370327ea1146103df57806375d8655b146103f45780637ae3ee1c146104145780637c1aee3c146104365780637e15dd5c1461044b5780638080f0081461046b578063863d36081461048b57806388cb0a49146104ab5780638e8cef12146104cb5780639243c9db146104eb5780639537aa1a1461050b57806396214735146105205780639630db61146105405780639f641ea714610560578063a59129a214610580578063b3ab15fb146105a0578063b3ec529c146105c0578063d5f39488146105d5578063d9af20de146105ea578063d9fa4b8d1461060a578063e1f5828b1461062a578063e592f0f91461064a578063e64e353f1461066a578063ec696d321461067f578063f12aaaf514610694578063f3aefa8a146106b4578063f4bb924d146106c9578063fdd9ec7d146106e9575b600080fd5b34801561021157600080fd5b5061021a610709565b6040516102279190611759565b60405180910390f35b34801561023c57600080fd5b50610245610710565b005b34801561025357600080fd5b50610267610262366004611604565b6108ae565b604051610227919061174b565b34801561028057600080fd5b506102456108e6565b34801561029557600080fd5b506102456102a4366004611622565b61094c565b3480156102b557600080fd5b506102676102c4366004611604565b610a7a565b3480156102d557600080fd5b50610267610a98565b3480156102ea57600080fd5b506102456102f9366004611622565b610aa1565b34801561030a57600080fd5b5061021a610b81565b34801561031f57600080fd5b50610328610b87565b60405161022791906116e7565b34801561034157600080fd5b50610245610350366004611604565b610b9b565b34801561036157600080fd5b50610245610370366004611604565b610c3a565b34801561038157600080fd5b50610245610390366004611673565b610cfc565b3480156103a157600080fd5b50610328610d77565b3480156103b657600080fd5b506102676103c5366004611622565b610d86565b3480156103d657600080fd5b5061021a610dd6565b3480156103eb57600080fd5b50610245610ddc565b34801561040057600080fd5b5061024561040f366004611673565b610e3f565b34801561042057600080fd5b50610429610eba565b6040516102279190611767565b34801561044257600080fd5b5061021a610eeb565b34801561045757600080fd5b50610245610466366004611673565b610ef1565b34801561047757600080fd5b50610267610486366004611673565b610f39565b34801561049757600080fd5b506102676104a6366004611673565b610f4e565b3480156104b757600080fd5b506102456104c6366004611673565b610f63565b3480156104d757600080fd5b506102456104e6366004611604565b610fde565b3480156104f757600080fd5b50610267610506366004611604565b61105c565b34801561051757600080fd5b5061042961107a565b34801561052c57600080fd5b5061024561053b366004611604565b6110a8565b34801561054c57600080fd5b5061026761055b366004611673565b61116f565b34801561056c57600080fd5b5061021a61057b366004611673565b611184565b34801561058c57600080fd5b5061026761059b366004611673565b6111a3565b3480156105ac57600080fd5b506102456105bb366004611604565b6111b8565b3480156105cc57600080fd5b5061021a611262565b3480156105e157600080fd5b50610328611268565b3480156105f657600080fd5b5061021a610605366004611673565b61127c565b34801561061657600080fd5b50610328610625366004611673565b61128a565b34801561063657600080fd5b50610267610645366004611673565b6112b2565b34801561065657600080fd5b5061021a610665366004611673565b6112c7565b34801561067657600080fd5b506104296112d5565b34801561068b57600080fd5b5061042961130b565b3480156106a057600080fd5b506102676106af366004611604565b61133c565b3480156106c057600080fd5b50610429611351565b3480156106d557600080fd5b506102676106e4366004611673565b611384565b3480156106f557600080fd5b50610245610704366004611604565b611399565b6006545b90565b60005b6006548110156107655760006007600060068481548110151561073257fe5b60009182526020808320919091015483528201929092526040019020805460ff1916911515919091179055600101610713565b6000610772600682611554565b50600090505b6008548110156107ca5760006009600060088481548110151561079757fe5b60009182526020808320919091015483528201929092526040019020805460ff1916911515919091179055600101610778565b60006107d7600882611554565b50600090505b600a5481101561082f576000600b6000600a848154811015156107fc57fe5b60009182526020808320919091015483528201929092526040019020805460ff19169115159190911790556001016107dd565b600061083c600a82611554565b50600090505b60045481101561089d5760006005600060048481548110151561086157fe5b600091825260208083209190910154600160a060020a031683528201929092526040019020805460ff1916911515919091179055600101610842565b60006108aa600482611554565b5050565b60006108b982610a7a565b80156108e05750600160a060020a0382166000908152600260205260409020600101544210155b92915050565b336108ef610b87565b600160a060020a03161461090257600080fd5b60005460ff161561091257600080fd5b7f787a5d936e74f4b564b9153575886059829c78cd9927b1be5e0d976b317ef7363360405161094191906116e7565b60405180910390a133ff5b6000610956611412565b151561096157600080fd5b82600160a060020a038116151561097757600080fd5b600160a060020a03811630141561098d57600080fd5b600160a060020a03841660009081526002602052604090205460ff1615156109b457600080fd5b6109bd83611428565b600160a060020a0385166000908152600260208181526040808420858552909201905290205490925060ff16156109f357600080fd5b600160a060020a03841660009081526002602081815260408084208685528084018352818520805460ff19166001908117909155938352600301805493840181558452922001839055517fec1b982d69bfc1a6fd8becf191d9a633486c822d3bdedd52303ca81fa635750190610a6c9086908690611710565b60405180910390a150505050565b600160a060020a031660009081526002602052604090205460ff1690565b60005460ff1681565b6000610aab611412565b1515610ab657600080fd5b82600160a060020a0381161515610acc57600080fd5b600160a060020a038116301415610ae257600080fd5b610aeb83611428565b600160a060020a0385166000908152600260208181526040808420858552909201905290205490925060ff161515610b2257600080fd5b600160a060020a0384166000908152600260208181526040808420868552909201905290819020805460ff19169055517f92f4af6130f47c92f3899e06611c8c6ef191fb81207ad2675d134af619d2fe7d90610a6c9086908690611710565b60035481565b6000546101009004600160a060020a031690565b6004805460018082019092557f8a35acfbc15ff81a39ae7d344fd709f28e8600b4aa8c65c6b64bfe7fe36bd19b018054600160a060020a031916600160a060020a03841690811790915560009081526005602052604090819020805460ff1916909217909155517f7bdc3027f69aa28210c338755735fa13356565e45e57b4619f5daf6e8468651f90610c2f9083906116e7565b60405180910390a150565b610c42611412565b1515610c4d57600080fd5b80600160a060020a0381161515610c6357600080fd5b600160a060020a038116301415610c7957600080fd5b600160a060020a03821660009081526002602052604090205460ff161515610ca057600080fd5b600160a060020a03821660009081526002602052604090819020805460ff19169055517f777645c5437dfbf962f57a281ead25f3d513f2f8e938685bbfc1738e81c9880e90610cf09084906116e7565b60405180910390a15050565b6006805460018181019092557ff652222313e28459528d920b65115c16c04f3efc82aaedc97be59f3f377c0d3f0182905560008281526007602052604090819020805460ff1916909217909155517f58f26ba178664be60e092a2f3678dd4201d8067c10e39f0c21105829ff8921e090610c2f908390611759565b600154600160a060020a031681565b600080610d9283611428565b9050610d9d846108ae565b8015610dce5750600160a060020a0384166000908152600260208181526040808420858552909201905290205460ff165b949350505050565b600a5490565b33610de5610b87565b600160a060020a031614610df857600080fd5b6000805460ff191660011790556040517fd5a2a04a775c741c2ca0dc46ea7ce4835190e1aaf1ca018def0e82568ec3361690610e359033906116e7565b60405180910390a1565b6008805460018181019092557ff3f7a9fe364faab93b216da50a3214154f22a0a2b415b23a84c8169e8b636ee30182905560008281526009602052604090819020805460ff1916909217909155517f5bc657148f2e68c1efcbaaf372c06ca64e451c73e50a987542e0e1560378875790610c2f908390611759565b6040805180820190915260148152606060020a736164645f6672617564756c656e745f747261646502602082015281565b60045490565b610ef9611412565b1515610f0457600080fd5b60038190556040517f4f1d324a1cbffc352fb64f1d73d95e4b200d92f99ef39bf2d7f5b41f946909d690610c2f908390611759565b60096020526000908152604090205460ff1681565b6000908152600b602052604090205460ff1690565b600a805460018181019092557fc65a7bb8d6351c1cf70c95a316cc6a92839c986682d98bc35f958f4883f9d2a8018290556000828152600b602052604090819020805460ff1916909217909155517f33be9e400d3510c9b2034ebe5a128e2f0d3333b7813053c8aa7f4901a4861a8590610c2f908390611759565b610fe6611412565b1515610ff157600080fd5b80600160a060020a038116151561100757600080fd5b600160a060020a03811630141561101d57600080fd5b611029826003546114f2565b7f7f3a8349917003ed377f6e9ae1608b92edd893903f8983bd274b1f8373dd3b1182600354604051610cf0929190611730565b600160a060020a031660009081526005602052604090205460ff1690565b6040805180820190915260118152607a60020a7018591917dcd95a5e995917ddd85b1b195d02602082015281565b60006110b2611412565b15156110bd57600080fd5b81600160a060020a03811615156110d357600080fd5b600160a060020a0381163014156110e957600080fd5b600054600160a060020a03848116610100909204161461116a5760008054600160a060020a0385811661010090810261010060a860020a0319841617909355604051929091041692507f977e5fa58e458501775e0008d275006294c5249e3c08d1d0e3a9f3acad14f6e49061116190849086906116f5565b60405180910390a15b505050565b600b6020526000908152604090205460ff1681565b600680548290811061119257fe5b600091825260209091200154905081565b60009081526009602052604090205460ff1690565b60006111c2611543565b15156111cd57600080fd5b81600160a060020a03811615156111e357600080fd5b600160a060020a0381163014156111f957600080fd5b600154600160a060020a0384811691161461116a5760018054600160a060020a03858116600160a060020a0319831617909255604051911692507f9f611b789425d0d5b90b920f1b2852907dd865c80074a30b1629aaa041d1812c9061116190849086906116f5565b60085490565b6000546101009004600160a060020a031681565b600880548290811061119257fe5b600480548290811061129857fe5b600091825260209091200154600160a060020a0316905081565b60009081526007602052604090205460ff1690565b600a80548290811061119257fe5b6040805180820190915260198152603a60020a7818591917d91bdd589b1957dcdc195b99195c97ddd85b1b195d02602082015281565b6040805180820190915260148152606160020a7330b2322fb33930bab23ab632b73a2fb7b93232b902602082015281565b60056020526000908152604090205460ff1681565b6040805180820190915260168152605260020a7518591917d99c985d591d5b195b9d17dc185e5b595b9d02602082015281565b60076020526000908152604090205460ff1681565b6113a1611412565b15156113ac57600080fd5b80600160a060020a03811615156113c257600080fd5b600160a060020a0381163014156113d857600080fd5b6113e38260006114f2565b7fb619d545cb511bd5f02907a1eac4f4cb8dace7b1846852fb0bf5e553937481c182604051610cf091906116e7565b6000546101009004600160a060020a0316331490565b6000816040516020018082805190602001908083835b6020831061145d5780518252601f19909201916020918201910161143e565b6001836020036101000a0380198251168184511680821785525050505050509050019150506040516020818303038152906040526040518082805190602001908083835b602083106114c05780518252601f1990920191602091820191016114a1565b5181516020939093036101000a6000190180199091169216919091179052604051920182900390912095945050505050565b600160a060020a03821660009081526002602052604090205460ff1615156108aa57600160a060020a0382166000908152600260205260409020805460ff1916600190811782554283019101555050565b600154600160a060020a0316331490565b81548183558181111561116a5760008381526020902061116a91810190830161070d91905b8082111561158d5760008155600101611579565b5090565b600061159d82356117c9565b9392505050565b600061159d823561070d565b6000601f820183136115c157600080fd5b81356115d46115cf8261179e565b611778565b915080825260208301602083018583830111156115f057600080fd5b6115fb8382846117da565b50505092915050565b60006020828403121561161657600080fd5b6000610dce8484611591565b6000806040838503121561163557600080fd5b60006116418585611591565b92505060208301356001604060020a0381111561165d57600080fd5b611669858286016115b0565b9150509250929050565b60006020828403121561168557600080fd5b6000610dce84846115a4565b61169a816117c9565b82525050565b61169a816117d5565b61169a8161070d565b60006116bd826117c5565b8084526116d18160208601602086016117e6565b6116da81611816565b9093016020019392505050565b602081016108e08284611691565b604081016117038285611691565b61159d6020830184611691565b6040810161171e8285611691565b8181036020830152610dce81846116b2565b6040810161173e8285611691565b61159d60208301846116a9565b602081016108e082846116a0565b602081016108e082846116a9565b6020808252810161159d81846116b2565b6040518181016001604060020a038111828210171561179657600080fd5b604052919050565b60006001604060020a038211156117b457600080fd5b506020601f91909101601f19160190565b5190565b600160a060020a031690565b151590565b82818337506000910152565b60005b838110156118015781810151838201526020016117e9565b83811115611810576000848401525b50505050565b601f01601f1916905600a265627a7a72305820b1ca3fad40a4d622bf62f2d74690b323f3ef049dfcc4b4a2d4c0055ca3034a406c6578706572696d656e74616cf50037",
  "source": "/*\n * Hubii Nahmii\n *\n * Compliant with the Hubii Nahmii specification v0.12.\n *\n * Copyright (C) 2017-2018 Hubii AS\n */\n\npragma solidity ^0.4.25;\npragma experimental ABIEncoderV2;\n\nimport {FraudChallenge} from \"../FraudChallenge.sol\";\n\n/**\n * @title MockedFraudChallenge\n * @notice Mocked implementation of fraud challenge contract\n */\ncontract MockedFraudChallenge is FraudChallenge {\n    //\n    // Constructor\n    // -----------------------------------------------------------------------------------------------------------------\n    constructor(address owner) public FraudChallenge(owner) {\n    }\n\n    //\n    // Functions\n    // -----------------------------------------------------------------------------------------------------------------\n    function _reset()\n    public\n    {\n        uint256 i;\n        for (i = 0; i < fraudulentOrderHashes.length; i++)\n            fraudulentByOrderHash[fraudulentOrderHashes[i]] = false;\n        fraudulentOrderHashes.length = 0;\n        for (i = 0; i < fraudulentTradeHashes.length; i++)\n            fraudulentByTradeHash[fraudulentTradeHashes[i]] = false;\n        fraudulentTradeHashes.length = 0;\n        for (i = 0; i < fraudulentPaymentHashes.length; i++)\n            fraudulentByPaymentHash[fraudulentPaymentHashes[i]] = false;\n        fraudulentPaymentHashes.length = 0;\n        for (i = 0; i < doubleSpenderWallets.length; i++)\n            doubleSpenderByWallet[doubleSpenderWallets[i]] = false;\n        doubleSpenderWallets.length = 0;\n    }\n\n    function addFraudulentOrderHash(bytes32 hash)\n    public\n    {\n        fraudulentOrderHashes.push(hash);\n        fraudulentByOrderHash[hash] = true;\n        emit AddFraudulentOrderHashEvent(hash);\n    }\n\n    function addFraudulentTradeHash(bytes32 hash)\n    public\n    {\n        fraudulentTradeHashes.push(hash);\n        fraudulentByTradeHash[hash] = true;\n        emit AddFraudulentTradeHashEvent(hash);\n    }\n\n    function addFraudulentPaymentHash(bytes32 hash)\n    public\n    {\n        fraudulentPaymentHashes.push(hash);\n        fraudulentByPaymentHash[hash] = true;\n        emit AddFraudulentPaymentHashEvent(hash);\n    }\n\n    function addDoubleSpenderWallet(address wallet)\n    public\n    {\n        doubleSpenderWallets.push(wallet);\n        doubleSpenderByWallet[wallet] = true;\n        emit AddDoubleSpenderWalletEvent(wallet);\n    }\n}\n",
  "sourcePath": "/opt/buildagent/work/855e104608380c36/contracts/test/MockedFraudChallenge.sol",
  "compiler": {
    "name": "solc",
    "version": "0.4.25+commit.59dbf8f1.Emscripten.clang"
  },
  "schemaVersion": "2.0.2",
  "updatedAt": "2019-04-17T19:44:57.863Z"
}