{
  "contractName": "MockedWalletLocker",
  "abi": [
    {
      "constant": true,
      "inputs": [
        {
          "name": "",
          "type": "uint256"
        }
      ],
      "name": "fungibleLocks",
      "outputs": [
        {
          "name": "lockedWallet",
          "type": "address"
        },
        {
          "name": "lockerWallet",
          "type": "address"
        },
        {
          "name": "amount",
          "type": "int256"
        },
        {
          "name": "currencyCt",
          "type": "address"
        },
        {
          "name": "currencyId",
          "type": "uint256"
        },
        {
          "name": "visibleTimeout",
          "type": "uint256"
        }
      ],
      "payable": false,
      "stateMutability": "view",
      "type": "function"
    },
    {
      "constant": true,
      "inputs": [
        {
          "name": "",
          "type": "uint256"
        }
      ],
      "name": "nonFungibleUnlocks",
      "outputs": [
        {
          "name": "lockedWallet",
          "type": "address"
        },
        {
          "name": "lockerWallet",
          "type": "address"
        },
        {
          "name": "currencyCt",
          "type": "address"
        },
        {
          "name": "currencyId",
          "type": "uint256"
        }
      ],
      "payable": false,
      "stateMutability": "view",
      "type": "function"
    },
    {
      "constant": true,
      "inputs": [
        {
          "name": "",
          "type": "uint256"
        }
      ],
      "name": "nonFungibleLocks",
      "outputs": [
        {
          "name": "lockedWallet",
          "type": "address"
        },
        {
          "name": "lockerWallet",
          "type": "address"
        },
        {
          "name": "currencyCt",
          "type": "address"
        },
        {
          "name": "currencyId",
          "type": "uint256"
        },
        {
          "name": "visibleTimeout",
          "type": "uint256"
        }
      ],
      "payable": false,
      "stateMutability": "view",
      "type": "function"
    },
    {
      "constant": true,
      "inputs": [
        {
          "name": "",
          "type": "uint256"
        }
      ],
      "name": "fungibleUnlocks",
      "outputs": [
        {
          "name": "lockedWallet",
          "type": "address"
        },
        {
          "name": "lockerWallet",
          "type": "address"
        },
        {
          "name": "currencyCt",
          "type": "address"
        },
        {
          "name": "currencyId",
          "type": "uint256"
        }
      ],
      "payable": false,
      "stateMutability": "view",
      "type": "function"
    },
    {
      "constant": true,
      "inputs": [
        {
          "name": "",
          "type": "uint256"
        }
      ],
      "name": "unlockedWallets",
      "outputs": [
        {
          "name": "",
          "type": "address"
        }
      ],
      "payable": false,
      "stateMutability": "view",
      "type": "function"
    },
    {
      "constant": true,
      "inputs": [],
      "name": "_lockedAmount",
      "outputs": [
        {
          "name": "",
          "type": "int256"
        }
      ],
      "payable": false,
      "stateMutability": "view",
      "type": "function"
    },
    {
      "constant": true,
      "inputs": [],
      "name": "_lockedIdsCount",
      "outputs": [
        {
          "name": "",
          "type": "uint256"
        }
      ],
      "payable": false,
      "stateMutability": "view",
      "type": "function"
    },
    {
      "constant": true,
      "inputs": [
        {
          "name": "",
          "type": "uint256"
        }
      ],
      "name": "_lockedIdsByIndices",
      "outputs": [
        {
          "name": "",
          "type": "int256"
        }
      ],
      "payable": false,
      "stateMutability": "view",
      "type": "function"
    },
    {
      "constant": true,
      "inputs": [
        {
          "name": "",
          "type": "uint256"
        }
      ],
      "name": "lockedWallets",
      "outputs": [
        {
          "name": "",
          "type": "address"
        }
      ],
      "payable": false,
      "stateMutability": "view",
      "type": "function"
    },
    {
      "constant": true,
      "inputs": [],
      "name": "locked",
      "outputs": [
        {
          "name": "",
          "type": "bool"
        }
      ],
      "payable": false,
      "stateMutability": "view",
      "type": "function"
    },
    {
      "anonymous": false,
      "inputs": [
        {
          "indexed": false,
          "name": "lockedWallet",
          "type": "address"
        },
        {
          "indexed": false,
          "name": "lockerWallet",
          "type": "address"
        },
        {
          "indexed": false,
          "name": "amount",
          "type": "int256"
        },
        {
          "indexed": false,
          "name": "currencyCt",
          "type": "address"
        },
        {
          "indexed": false,
          "name": "currencyId",
          "type": "uint256"
        },
        {
          "indexed": false,
          "name": "visibleTimeoutInSeconds",
          "type": "uint256"
        }
      ],
      "name": "LockFungibleByProxyEvent",
      "type": "event"
    },
    {
      "anonymous": false,
      "inputs": [
        {
          "indexed": false,
          "name": "lockedWallet",
          "type": "address"
        },
        {
          "indexed": false,
          "name": "lockerWallet",
          "type": "address"
        },
        {
          "indexed": false,
          "name": "ids",
          "type": "int256[]"
        },
        {
          "indexed": false,
          "name": "currencyCt",
          "type": "address"
        },
        {
          "indexed": false,
          "name": "currencyId",
          "type": "uint256"
        },
        {
          "indexed": false,
          "name": "visibleTimeoutInSeconds",
          "type": "uint256"
        }
      ],
      "name": "LockNonFungibleByProxyEvent",
      "type": "event"
    },
    {
      "anonymous": false,
      "inputs": [
        {
          "indexed": false,
          "name": "lockedWallet",
          "type": "address"
        },
        {
          "indexed": false,
          "name": "lockerWallet",
          "type": "address"
        },
        {
          "indexed": false,
          "name": "currencyCt",
          "type": "address"
        },
        {
          "indexed": false,
          "name": "currencyId",
          "type": "uint256"
        }
      ],
      "name": "UnlockFungibleEvent",
      "type": "event"
    },
    {
      "anonymous": false,
      "inputs": [
        {
          "indexed": false,
          "name": "lockedWallet",
          "type": "address"
        },
        {
          "indexed": false,
          "name": "lockerWallet",
          "type": "address"
        },
        {
          "indexed": false,
          "name": "currencyCt",
          "type": "address"
        },
        {
          "indexed": false,
          "name": "currencyId",
          "type": "uint256"
        }
      ],
      "name": "UnlockFungibleByProxyEvent",
      "type": "event"
    },
    {
      "anonymous": false,
      "inputs": [
        {
          "indexed": false,
          "name": "lockedWallet",
          "type": "address"
        },
        {
          "indexed": false,
          "name": "lockerWallet",
          "type": "address"
        },
        {
          "indexed": false,
          "name": "currencyCt",
          "type": "address"
        },
        {
          "indexed": false,
          "name": "currencyId",
          "type": "uint256"
        }
      ],
      "name": "UnlockNonFungibleEvent",
      "type": "event"
    },
    {
      "anonymous": false,
      "inputs": [
        {
          "indexed": false,
          "name": "lockedWallet",
          "type": "address"
        },
        {
          "indexed": false,
          "name": "lockerWallet",
          "type": "address"
        },
        {
          "indexed": false,
          "name": "currencyCt",
          "type": "address"
        },
        {
          "indexed": false,
          "name": "currencyId",
          "type": "uint256"
        }
      ],
      "name": "UnlockNonFungibleByProxyEvent",
      "type": "event"
    },
    {
      "constant": false,
      "inputs": [],
      "name": "_reset",
      "outputs": [],
      "payable": false,
      "stateMutability": "nonpayable",
      "type": "function"
    },
    {
      "constant": false,
      "inputs": [
        {
          "name": "lockedWallet",
          "type": "address"
        },
        {
          "name": "lockerWallet",
          "type": "address"
        },
        {
          "name": "amount",
          "type": "int256"
        },
        {
          "name": "currencyCt",
          "type": "address"
        },
        {
          "name": "currencyId",
          "type": "uint256"
        },
        {
          "name": "visibleTimeoutInSeconds",
          "type": "uint256"
        }
      ],
      "name": "lockFungibleByProxy",
      "outputs": [],
      "payable": false,
      "stateMutability": "nonpayable",
      "type": "function"
    },
    {
      "constant": false,
      "inputs": [
        {
          "name": "lockedWallet",
          "type": "address"
        },
        {
          "name": "lockerWallet",
          "type": "address"
        },
        {
          "name": "ids",
          "type": "int256[]"
        },
        {
          "name": "currencyCt",
          "type": "address"
        },
        {
          "name": "currencyId",
          "type": "uint256"
        },
        {
          "name": "visibleTimeoutInSeconds",
          "type": "uint256"
        }
      ],
      "name": "lockNonFungibleByProxy",
      "outputs": [],
      "payable": false,
      "stateMutability": "nonpayable",
      "type": "function"
    },
    {
      "constant": false,
      "inputs": [
        {
          "name": "lockedWallet",
          "type": "address"
        },
        {
          "name": "lockerWallet",
          "type": "address"
        },
        {
          "name": "currencyCt",
          "type": "address"
        },
        {
          "name": "currencyId",
          "type": "uint256"
        }
      ],
      "name": "unlockFungible",
      "outputs": [],
      "payable": false,
      "stateMutability": "nonpayable",
      "type": "function"
    },
    {
      "constant": false,
      "inputs": [
        {
          "name": "lockedWallet",
          "type": "address"
        },
        {
          "name": "lockerWallet",
          "type": "address"
        },
        {
          "name": "currencyCt",
          "type": "address"
        },
        {
          "name": "currencyId",
          "type": "uint256"
        }
      ],
      "name": "unlockFungibleByProxy",
      "outputs": [],
      "payable": false,
      "stateMutability": "nonpayable",
      "type": "function"
    },
    {
      "constant": false,
      "inputs": [
        {
          "name": "lockedWallet",
          "type": "address"
        },
        {
          "name": "lockerWallet",
          "type": "address"
        },
        {
          "name": "currencyCt",
          "type": "address"
        },
        {
          "name": "currencyId",
          "type": "uint256"
        }
      ],
      "name": "unlockNonFungible",
      "outputs": [],
      "payable": false,
      "stateMutability": "nonpayable",
      "type": "function"
    },
    {
      "constant": false,
      "inputs": [
        {
          "name": "lockedWallet",
          "type": "address"
        },
        {
          "name": "lockerWallet",
          "type": "address"
        },
        {
          "name": "currencyCt",
          "type": "address"
        },
        {
          "name": "currencyId",
          "type": "uint256"
        }
      ],
      "name": "unlockNonFungibleByProxy",
      "outputs": [],
      "payable": false,
      "stateMutability": "nonpayable",
      "type": "function"
    },
    {
      "constant": true,
      "inputs": [],
      "name": "_lockedWalletsCount",
      "outputs": [
        {
          "name": "",
          "type": "uint256"
        }
      ],
      "payable": false,
      "stateMutability": "view",
      "type": "function"
    },
    {
      "constant": true,
      "inputs": [],
      "name": "_unlockedWalletsCount",
      "outputs": [
        {
          "name": "",
          "type": "uint256"
        }
      ],
      "payable": false,
      "stateMutability": "view",
      "type": "function"
    },
    {
      "constant": true,
      "inputs": [],
      "name": "_fungibleLocksCount",
      "outputs": [
        {
          "name": "",
          "type": "uint256"
        }
      ],
      "payable": false,
      "stateMutability": "view",
      "type": "function"
    },
    {
      "constant": true,
      "inputs": [],
      "name": "_fungibleUnlocksCount",
      "outputs": [
        {
          "name": "",
          "type": "uint256"
        }
      ],
      "payable": false,
      "stateMutability": "view",
      "type": "function"
    },
    {
      "constant": true,
      "inputs": [],
      "name": "_nonFungibleLocksCount",
      "outputs": [
        {
          "name": "",
          "type": "uint256"
        }
      ],
      "payable": false,
      "stateMutability": "view",
      "type": "function"
    },
    {
      "constant": true,
      "inputs": [],
      "name": "_nonFungibleUnlocksCount",
      "outputs": [
        {
          "name": "",
          "type": "uint256"
        }
      ],
      "payable": false,
      "stateMutability": "view",
      "type": "function"
    },
    {
      "constant": true,
      "inputs": [
        {
          "name": "",
          "type": "address"
        },
        {
          "name": "",
          "type": "address"
        },
        {
          "name": "",
          "type": "uint256"
        }
      ],
      "name": "isLocked",
      "outputs": [
        {
          "name": "",
          "type": "bool"
        }
      ],
      "payable": false,
      "stateMutability": "view",
      "type": "function"
    },
    {
      "constant": true,
      "inputs": [
        {
          "name": "",
          "type": "address"
        }
      ],
      "name": "isLocked",
      "outputs": [
        {
          "name": "",
          "type": "bool"
        }
      ],
      "payable": false,
      "stateMutability": "view",
      "type": "function"
    },
    {
      "constant": true,
      "inputs": [
        {
          "name": "",
          "type": "address"
        },
        {
          "name": "",
          "type": "address"
        },
        {
          "name": "",
          "type": "address"
        },
        {
          "name": "",
          "type": "uint256"
        }
      ],
      "name": "isLocked",
      "outputs": [
        {
          "name": "",
          "type": "bool"
        }
      ],
      "payable": false,
      "stateMutability": "view",
      "type": "function"
    },
    {
      "constant": false,
      "inputs": [
        {
          "name": "_locked",
          "type": "bool"
        }
      ],
      "name": "_setLocked",
      "outputs": [],
      "payable": false,
      "stateMutability": "nonpayable",
      "type": "function"
    },
    {
      "constant": true,
      "inputs": [
        {
          "name": "",
          "type": "address"
        },
        {
          "name": "",
          "type": "address"
        },
        {
          "name": "",
          "type": "address"
        },
        {
          "name": "",
          "type": "uint256"
        }
      ],
      "name": "lockedAmount",
      "outputs": [
        {
          "name": "",
          "type": "int256"
        }
      ],
      "payable": false,
      "stateMutability": "view",
      "type": "function"
    },
    {
      "constant": false,
      "inputs": [
        {
          "name": "amount",
          "type": "int256"
        }
      ],
      "name": "_setLockedAmount",
      "outputs": [],
      "payable": false,
      "stateMutability": "nonpayable",
      "type": "function"
    },
    {
      "constant": true,
      "inputs": [
        {
          "name": "",
          "type": "address"
        },
        {
          "name": "",
          "type": "address"
        },
        {
          "name": "",
          "type": "address"
        },
        {
          "name": "",
          "type": "uint256"
        }
      ],
      "name": "lockedIdsCount",
      "outputs": [
        {
          "name": "",
          "type": "uint256"
        }
      ],
      "payable": false,
      "stateMutability": "view",
      "type": "function"
    },
    {
      "constant": false,
      "inputs": [
        {
          "name": "count",
          "type": "uint256"
        }
      ],
      "name": "_setLockedIdsCount",
      "outputs": [],
      "payable": false,
      "stateMutability": "nonpayable",
      "type": "function"
    },
    {
      "constant": true,
      "inputs": [
        {
          "name": "",
          "type": "address"
        },
        {
          "name": "",
          "type": "address"
        },
        {
          "name": "",
          "type": "address"
        },
        {
          "name": "",
          "type": "uint256"
        },
        {
          "name": "",
          "type": "uint256"
        },
        {
          "name": "",
          "type": "uint256"
        }
      ],
      "name": "lockedIdsByIndices",
      "outputs": [
        {
          "name": "",
          "type": "int256[]"
        }
      ],
      "payable": false,
      "stateMutability": "view",
      "type": "function"
    },
    {
      "constant": false,
      "inputs": [
        {
          "name": "ids",
          "type": "int256[]"
        }
      ],
      "name": "_setLockedIdsByIndices",
      "outputs": [],
      "payable": false,
      "stateMutability": "nonpayable",
      "type": "function"
    }
  ],
  "bytecode": "0x608060405234801561001057600080fd5b506116c2806100206000396000f3006080604052600436106101875763ffffffff60e060020a6000350416630895b81f811461018c5780630d044085146101e95780630deca4d11461022b5780631592f0ab1461027857806318d49ba31461028f5780631fe7d534146102a75780632b879782146102c15780633143885d146102ff57806346c5c0231461032f5780634a4fbeec1461035f5780635c3d8ebc14610380578063626dd6c3146103b05780636c818cda146103e0578063738d8332146104325780637829eecf146104875780637e91b73a1461049c5780638fdafa14146104b45780638ff1642d146104e8578063905cb324146105685780639a17fbc21461057d5780639a545322146105925780639f45b2ab146105c9578063a13ff3c3146105f9578063a8ab409d1461060e578063ad56603914610623578063b0c60ff314610638578063b29f239f1461064d578063ba2b87c214610665578063c41570bd1461067d578063cf30901214610695578063d8a939f3146106aa578063e96e48ea146106bf578063fb31154d14610745575b600080fd5b34801561019857600080fd5b506101a4600435610775565b60408051600160a060020a039788168152958716602087015285810194909452919094166060840152608083019390935260a082019290925290519081900360c00190f35b3480156101f557600080fd5b50610219600160a060020a03600435811690602435811690604435166064356107c7565b60408051918252519081900360200190f35b34801561023757600080fd5b506102436004356107d2565b60408051600160a060020a03958616815293851660208501529190931682820152606082019290925290519081900360800190f35b34801561028457600080fd5b5061028d61081a565b005b34801561029b57600080fd5b5061028d600435610891565b3480156102b357600080fd5b5061028d6004351515610896565b3480156102cd57600080fd5b506102eb600160a060020a03600435811690602435166044356108a9565b604080519115158252519081900360200190f35b34801561030b57600080fd5b506102eb600160a060020a03600435811690602435811690604435166064356108b6565b34801561033b57600080fd5b5061028d600160a060020a03600435811690602435811690604435166064356108c4565b34801561036b57600080fd5b506102eb600160a060020a03600435166109fb565b34801561038c57600080fd5b5061028d600160a060020a0360043581169060243581169060443516606435610a05565b3480156103bc57600080fd5b5061028d600160a060020a0360043581169060243581169060443516606435610b3d565b3480156103ec57600080fd5b506103f8600435610c74565b60408051600160a060020a039687168152948616602086015292909416838301526060830152608082019290925290519081900360a00190f35b34801561043e57600080fd5b506040805160206004803580820135838102808601850190965280855261028d95369593946024949385019291829185019084908082843750949750610cc19650505050505050565b34801561049357600080fd5b50610219610cd8565b3480156104a857600080fd5b50610243600435610cdf565b3480156104c057600080fd5b506104cc600435610ced565b60408051600160a060020a039092168252519081900360200190f35b3480156104f457600080fd5b50604080516020600460443581810135838102808601850190965280855261028d958335600160a060020a03908116966024803590921696369695606495929493019282918501908490808284375094975050508335600160a060020a031694505050602082013591604001359050610d15565b34801561057457600080fd5b50610219610f44565b34801561058957600080fd5b50610219610f4a565b34801561059e57600080fd5b5061028d600160a060020a03600435811690602435811690604435906064351660843560a435610f50565b3480156105d557600080fd5b50610219600160a060020a0360043581169060243581169060443516606435611157565b34801561060557600080fd5b50610219611162565b34801561061a57600080fd5b50610219611168565b34801561062f57600080fd5b5061021961116e565b34801561064457600080fd5b50610219611174565b34801561065957600080fd5b5061028d60043561117a565b34801561067157600080fd5b5061021960043561117f565b34801561068957600080fd5b506104cc60043561119e565b3480156106a157600080fd5b506102eb6111ac565b3480156106b657600080fd5b506102196111b5565b3480156106cb57600080fd5b506106f5600160a060020a036004358116906024358116906044351660643560843560a4356111bb565b60408051602080825283518183015283519192839290830191858101910280838360005b83811015610731578181015183820152602001610719565b505050509050019250505060405180910390f35b34801561075157600080fd5b5061028d600160a060020a036004358116906024358116906044351660643561121a565b600080548290811061078357fe5b6000918252602090912060069091020180546001820154600283015460038401546004850154600590950154600160a060020a039485169650928416949193169186565b600754949350505050565b60038054829081106107e057fe5b60009182526020909120600490910201805460018201546002830154600390930154600160a060020a039283169450908216929091169084565b60006108268180611352565b506000610834600182611383565b5060006108426002826113af565b506000610850600382611383565b50600061085e6004826113db565b50600061086c6005826113db565b506006805460ff1916905560006007819055600881905561088e6009826113db565b50565b600755565b6006805460ff1916911515919091179055565b60065460ff169392505050565b60065460ff16949350505050565b6040805160808181018352600160a060020a0380881680845287821660208086018281528985168789018181526060808a018c815260018054808201825560008281529c51600490910260008051602061163783398151915281018054928d16600160a060020a0319938416179055965160008051602061165783398151915288018054918d1691831691909117905593516000805160206116178339815191528701805491909b169085161790995551600080516020611677833981519152909401939093556005805497880181559098526000805160206115978339815191529095018054909716841790965586519283528201528085019190915291820184905291517f3e85e14c08c49304e748a1e147fbbcefcb34dfedec73e807585482e3eb721869929181900390910190a150505050565b5060065460ff1690565b6040805160808181018352600160a060020a0380881680845287821660208086018281528985168789018181526060808a018c8152600380546001818101835560009283529c5160049091026000805160206115d783398151915281018054928d16600160a060020a031993841617905596516000805160206115b783398151915288018054918d1691831691909117905593516000805160206115f78339815191528701805491909b1690851617909955516000805160206115778339815191529094019390935560058054998a01815590965260008051602061159783398151915290970180549095168417909455865192835282015280850193909352820184905291517f356ea7385328d09a9a979fe4cc150558a482674bf362a75e11254d116f366e46929181900390910190a150505050565b6040805160808181018352600160a060020a0380881680845287821660208086018281528985168789018181526060808a018c815260018054808201825560008281529c51600490910260008051602061163783398151915281018054928d16600160a060020a0319938416179055965160008051602061165783398151915288018054918d1691831691909117905593516000805160206116178339815191528701805491909b169085161790995551600080516020611677833981519152909401939093556005805497880181559098526000805160206115978339815191529095018054909716841790965586519283528201528085019190915291820184905291517f20c0018a10fcad4bc21f3e0dd6115c1df8d3240288191b8649982f94909b85c7929181900390910190a150505050565b6002805482908110610c8257fe5b600091825260209091206006909102018054600182015460038301546004840154600590940154600160a060020a039384169550918316939216919085565b8051610cd49060099060208401906113ff565b5050565b6002545b90565b60018054829081106107e057fe5b6005805482908110610cfb57fe5b600091825260209091200154600160a060020a0316905081565b6040805160c081018252600160a060020a038089168252878116602080840191825293830188815287831660608501526080840187905260a084018690526002805460018101808355600092909252855160069091027f405787fa12a823e0f2b7631cc41b3ba8828b3321ca811111fa75cd3aa3bb5ace81018054928716600160a060020a031993841617815594517f405787fa12a823e0f2b7631cc41b3ba8828b3321ca811111fa75cd3aa3bb5acf82018054919097169216919091179094559051805191959293610e0f937f405787fa12a823e0f2b7631cc41b3ba8828b3321ca811111fa75cd3aa3bb5ad0909101929101906113ff565b50606082810151600383018054600160a060020a03928316600160a060020a03199182161790915560808086015160048087019190915560a096870151600590960195909555845460018101865560009586527f8a35acfbc15ff81a39ae7d344fd709f28e8600b4aa8c65c6b64bfe7fe36bd19b0180548e8516931683179055604080519283528c8416602084810191909152938b1694830194909452810188905293840186905260c091840182815289519285019290925288517f0b73766e6576880ed14eb7bf691d7a034b69058b7e51b422f9e3f4ec7fb1aecf95508b948b948b948b948b948b949360e08501928981019202908190849084905b83811015610f24578181015183820152602001610f0c565b5050505090500197505050505050505060405180910390a1505050505050565b60075481565b60035490565b600060c06040519081016040528088600160a060020a0316815260200187600160a060020a0316815260200186815260200185600160a060020a03168152602001848152602001838152509080600181540180825580915050906001820390600052602060002090600602016000909192909190915060008201518160000160006101000a815481600160a060020a030219169083600160a060020a0316021790555060208201518160010160006101000a815481600160a060020a030219169083600160a060020a031602179055506040820151816002015560608201518160030160006101000a815481600160a060020a030219169083600160a060020a031602179055506080820151816004015560a0820151816005015550505060048690806001815401808255809150509060018203906000526020600020016000909192909190916101000a815481600160a060020a030219169083600160a060020a03160217905550507f8f07c61a4e90ac86dd462d483c81e224183ac1eb573981c41e538769bffae0898686868686866040518087600160a060020a0316600160a060020a0316815260200186600160a060020a0316600160a060020a0316815260200185815260200184600160a060020a0316600160a060020a03168152602001838152602001828152602001965050505050505060405180910390a1505050505050565b600854949350505050565b60055490565b60045490565b60085481565b60005490565b600855565b600980548290811061118d57fe5b600091825260209091200154905081565b6004805482908110610cfb57fe5b60065460ff1681565b60015490565b6060600980548060200260200160405190810160405280929190818152602001828054801561120957602002820191906000526020600020905b8154815260200190600101908083116111f5575b505050505090509695505050505050565b6040805160808181018352600160a060020a0380881680845287821660208086018281528985168789018181526060808a018c8152600380546001818101835560009283529c5160049091026000805160206115d783398151915281018054928d16600160a060020a031993841617905596516000805160206115b783398151915288018054918d1691831691909117905593516000805160206115f78339815191528701805491909b1690851617909955516000805160206115778339815191529094019390935560058054998a01815590965260008051602061159783398151915290970180549095168417909455865192835282015280850193909352820184905291517f755c60ab47b3fc5fe06257d2fa5462ee3cf2e6146c6bd8383534da9fdd96c120929181900390910190a150505050565b81548183558181111561137e5760060281600602836000526020600020918201910161137e919061144a565b505050565b81548183558181111561137e5760040281600402836000526020600020918201910161137e919061149b565b81548183558181111561137e5760060281600602836000526020600020918201910161137e91906114dd565b81548183558181111561137e5760008381526020902061137e91810190830161153e565b82805482825590600052602060002090810192821561143a579160200282015b8281111561143a57825182559160200191906001019061141f565b5061144692915061153e565b5090565b610cdc91905b80821115611446578054600160a060020a0319908116825560018201805482169055600060028301819055600383018054909216909155600482018190556005820155600601611450565b610cdc91905b80821115611446578054600160a060020a03199081168255600182018054821690556002820180549091169055600060038201556004016114a1565b610cdc91905b80821115611446578054600160a060020a03199081168255600182018054909116905560006115156002830182611558565b50600381018054600160a060020a031916905560006004820181905560058201556006016114e3565b610cdc91905b808211156114465760008155600101611544565b508054600082559060005260206000209081019061088e919061153e5600c2575a0e9e593c00f959f8c92f12db2869c3395a3b0502d05e2516446f71f85e036b6384b5eca791c62761152d0c79bb0604c104a5fb6f4eb0703f3154bb3db0c2575a0e9e593c00f959f8c92f12db2869c3395a3b0502d05e2516446f71f85cc2575a0e9e593c00f959f8c92f12db2869c3395a3b0502d05e2516446f71f85bc2575a0e9e593c00f959f8c92f12db2869c3395a3b0502d05e2516446f71f85db10e2d527612073b26eecdfd717e6a320cf44b4afac2b0732d9fcbe2b7fa0cf8b10e2d527612073b26eecdfd717e6a320cf44b4afac2b0732d9fcbe2b7fa0cf6b10e2d527612073b26eecdfd717e6a320cf44b4afac2b0732d9fcbe2b7fa0cf7b10e2d527612073b26eecdfd717e6a320cf44b4afac2b0732d9fcbe2b7fa0cf9a165627a7a723058207d9ac7542628b79927eb9447332b2b9532c8e50f5d04a81a564b1b1f107786d50029",
  "source": "/*\n * Hubii Nahmii\n *\n * Compliant with the Hubii Nahmii specification v0.12.\n *\n * Copyright (C) 2017-2018 Hubii AS\n */\n\npragma solidity ^0.4.25;\n\n/**\n * @title MockedWalletLocker\n * @notice Mocked implementation of wallet locker contract\n */\ncontract MockedWalletLocker {\n    //\n    // Types\n    // -----------------------------------------------------------------------------------------------------------------\n    struct FungibleLock {\n        address lockedWallet;\n        address lockerWallet;\n        int256 amount;\n        address currencyCt;\n        uint256 currencyId;\n        uint256 visibleTimeout;\n    }\n\n    struct NonFungibleLock {\n        address lockedWallet;\n        address lockerWallet;\n        int256[] ids;\n        address currencyCt;\n        uint256 currencyId;\n        uint256 visibleTimeout;\n    }\n\n    struct Unlock {\n        address lockedWallet;\n        address lockerWallet;\n        address currencyCt;\n        uint256 currencyId;\n    }\n\n    //\n    // Variables\n    // -----------------------------------------------------------------------------------------------------------------\n    FungibleLock[] public fungibleLocks;\n    Unlock[] public fungibleUnlocks;\n    NonFungibleLock[] public nonFungibleLocks;\n    Unlock[] public nonFungibleUnlocks;\n\n    address[] public lockedWallets;\n    address[] public unlockedWallets;\n\n    bool public locked;\n    int256 public _lockedAmount;\n    uint256 public _lockedIdsCount;\n    int256[] public _lockedIdsByIndices;\n\n    //\n    // Events\n    // -----------------------------------------------------------------------------------------------------------------\n    event LockFungibleByProxyEvent(address lockedWallet, address lockerWallet, int256 amount,\n        address currencyCt, uint256 currencyId, uint256 visibleTimeoutInSeconds);\n    event LockNonFungibleByProxyEvent(address lockedWallet, address lockerWallet, int256[] ids,\n        address currencyCt, uint256 currencyId, uint256 visibleTimeoutInSeconds);\n    event UnlockFungibleEvent(address lockedWallet, address lockerWallet, address currencyCt,\n        uint256 currencyId);\n    event UnlockFungibleByProxyEvent(address lockedWallet, address lockerWallet, address currencyCt,\n        uint256 currencyId);\n    event UnlockNonFungibleEvent(address lockedWallet, address lockerWallet, address currencyCt,\n        uint256 currencyId);\n    event UnlockNonFungibleByProxyEvent(address lockedWallet, address lockerWallet, address currencyCt,\n        uint256 currencyId);\n\n    //\n    // Functions\n    // -----------------------------------------------------------------------------------------------------------------\n    function _reset()\n    public\n    {\n        fungibleLocks.length = 0;\n        fungibleUnlocks.length = 0;\n        nonFungibleLocks.length = 0;\n        nonFungibleUnlocks.length = 0;\n        lockedWallets.length = 0;\n        unlockedWallets.length = 0;\n        locked = false;\n        _lockedAmount = 0;\n        _lockedIdsCount = 0;\n        _lockedIdsByIndices.length = 0;\n    }\n\n    function lockFungibleByProxy(address lockedWallet, address lockerWallet, int256 amount,\n        address currencyCt, uint256 currencyId, uint256 visibleTimeoutInSeconds)\n    public\n    {\n        fungibleLocks.push(\n            FungibleLock(\n                lockedWallet, lockerWallet, amount, currencyCt, currencyId, visibleTimeoutInSeconds\n            )\n        );\n        lockedWallets.push(lockedWallet);\n        emit LockFungibleByProxyEvent(\n            lockedWallet, lockerWallet, amount, currencyCt, currencyId, visibleTimeoutInSeconds\n        );\n    }\n\n    function lockNonFungibleByProxy(address lockedWallet, address lockerWallet, int256[] ids,\n        address currencyCt, uint256 currencyId, uint256 visibleTimeoutInSeconds)\n    public\n    {\n        nonFungibleLocks.push(\n            NonFungibleLock(\n                lockedWallet, lockerWallet, ids, currencyCt, currencyId, visibleTimeoutInSeconds\n            )\n        );\n        lockedWallets.push(lockedWallet);\n        emit LockNonFungibleByProxyEvent(\n            lockedWallet, lockerWallet, ids, currencyCt, currencyId, visibleTimeoutInSeconds\n        );\n    }\n\n    function unlockFungible(address lockedWallet, address lockerWallet,\n        address currencyCt, uint256 currencyId)\n    public\n    {\n        fungibleUnlocks.push(Unlock(lockedWallet, lockerWallet, currencyCt, currencyId));\n        unlockedWallets.push(lockedWallet);\n        emit UnlockFungibleEvent(lockedWallet, lockerWallet, currencyCt, currencyId);\n    }\n\n    function unlockFungibleByProxy(address lockedWallet, address lockerWallet,\n        address currencyCt, uint256 currencyId)\n    public\n    {\n        fungibleUnlocks.push(Unlock(lockedWallet, lockerWallet, currencyCt, currencyId));\n        unlockedWallets.push(lockedWallet);\n        emit UnlockFungibleByProxyEvent(lockedWallet, lockerWallet, currencyCt, currencyId);\n    }\n\n    function unlockNonFungible(address lockedWallet, address lockerWallet,\n        address currencyCt, uint256 currencyId)\n    public\n    {\n        nonFungibleUnlocks.push(Unlock(lockedWallet, lockerWallet, currencyCt, currencyId));\n        unlockedWallets.push(lockedWallet);\n        emit UnlockNonFungibleEvent(lockedWallet, lockerWallet, currencyCt, currencyId);\n    }\n\n    function unlockNonFungibleByProxy(address lockedWallet, address lockerWallet,\n        address currencyCt, uint256 currencyId)\n    public\n    {\n        nonFungibleUnlocks.push(Unlock(lockedWallet, lockerWallet, currencyCt, currencyId));\n        unlockedWallets.push(lockedWallet);\n        emit UnlockNonFungibleByProxyEvent(lockedWallet, lockerWallet, currencyCt, currencyId);\n    }\n\n    function _lockedWalletsCount()\n    public\n    view\n    returns (uint256)\n    {\n        return lockedWallets.length;\n    }\n\n    function _unlockedWalletsCount()\n    public\n    view\n    returns (uint256)\n    {\n        return unlockedWallets.length;\n    }\n\n    function _fungibleLocksCount()\n    public\n    view\n    returns (uint256)\n    {\n        return fungibleLocks.length;\n    }\n\n    function _fungibleUnlocksCount()\n    public\n    view\n    returns (uint256)\n    {\n        return fungibleUnlocks.length;\n    }\n\n    function _nonFungibleLocksCount()\n    public\n    view\n    returns (uint256)\n    {\n        return nonFungibleLocks.length;\n    }\n\n    function _nonFungibleUnlocksCount()\n    public\n    view\n    returns (uint256)\n    {\n        return nonFungibleUnlocks.length;\n    }\n\n    function isLocked(address)\n    public\n    view\n    returns (bool)\n    {\n        return locked;\n    }\n\n    function isLocked(address, address, uint256)\n    public\n    view\n    returns (bool)\n    {\n        return locked;\n    }\n\n    function isLocked(address, address, address, uint256)\n    public\n    view\n    returns (bool)\n    {\n        return locked;\n    }\n\n    function _setLocked(bool _locked)\n    public\n    {\n        locked = _locked;\n    }\n\n    function lockedAmount(address, address, address, uint256)\n    public\n    view\n    returns (int256)\n    {\n        return _lockedAmount;\n    }\n\n    function _setLockedAmount(int256 amount)\n    public\n    {\n        _lockedAmount = amount;\n    }\n\n    function lockedIdsCount(address, address, address, uint256)\n    public\n    view\n    returns (uint256)\n    {\n        return _lockedIdsCount;\n    }\n\n    function _setLockedIdsCount(uint256 count)\n    public\n    {\n        _lockedIdsCount = count;\n    }\n\n    function lockedIdsByIndices(address, address, address, uint256, uint256, uint256)\n    public\n    view\n    returns (int256[])\n    {\n        return _lockedIdsByIndices;\n    }\n\n    function _setLockedIdsByIndices(int256[] ids)\n    public\n    {\n        _lockedIdsByIndices = ids;\n    }\n}",
  "sourcePath": "/opt/buildagent/work/855e104608380c36/contracts/test/MockedWalletLocker.sol",
  "compiler": {
    "name": "solc",
    "version": "0.4.25+commit.59dbf8f1.Emscripten.clang"
  },
  "schemaVersion": "2.0.2",
  "updatedAt": "2019-04-17T19:44:57.881Z"
}