{
  "contractName": "NullSettlementChallengeState",
  "abi": [
    {
      "constant": true,
      "inputs": [
        {
          "name": "",
          "type": "uint256"
        }
      ],
      "name": "proposals",
      "outputs": [
        {
          "name": "wallet",
          "type": "address"
        },
        {
          "name": "nonce",
          "type": "uint256"
        },
        {
          "name": "referenceBlockNumber",
          "type": "uint256"
        },
        {
          "name": "definitionBlockNumber",
          "type": "uint256"
        },
        {
          "name": "expirationTime",
          "type": "uint256"
        },
        {
          "name": "status",
          "type": "uint8"
        },
        {
          "components": [
            {
              "name": "cumulativeTransfer",
              "type": "int256"
            },
            {
              "name": "stage",
              "type": "int256"
            },
            {
              "name": "targetBalance",
              "type": "int256"
            }
          ],
          "name": "amounts",
          "type": "tuple"
        },
        {
          "components": [
            {
              "name": "ct",
              "type": "address"
            },
            {
              "name": "id",
              "type": "uint256"
            }
          ],
          "name": "currency",
          "type": "tuple"
        },
        {
          "components": [
            {
              "name": "kind",
              "type": "string"
            },
            {
              "name": "hash",
              "type": "bytes32"
            }
          ],
          "name": "challenged",
          "type": "tuple"
        },
        {
          "name": "walletInitiated",
          "type": "bool"
        },
        {
          "name": "terminated",
          "type": "bool"
        },
        {
          "components": [
            {
              "name": "challenger",
              "type": "address"
            },
            {
              "name": "nonce",
              "type": "uint256"
            },
            {
              "name": "blockNumber",
              "type": "uint256"
            },
            {
              "components": [
                {
                  "name": "kind",
                  "type": "string"
                },
                {
                  "name": "hash",
                  "type": "bytes32"
                }
              ],
              "name": "candidate",
              "type": "tuple"
            }
          ],
          "name": "disqualification",
          "type": "tuple"
        }
      ],
      "payable": false,
      "stateMutability": "view",
      "type": "function"
    },
    {
      "constant": true,
      "inputs": [
        {
          "name": "service",
          "type": "address"
        }
      ],
      "name": "isRegisteredActiveService",
      "outputs": [
        {
          "name": "",
          "type": "bool"
        }
      ],
      "payable": false,
      "stateMutability": "view",
      "type": "function"
    },
    {
      "constant": true,
      "inputs": [],
      "name": "balanceTracker",
      "outputs": [
        {
          "name": "",
          "type": "address"
        }
      ],
      "payable": false,
      "stateMutability": "view",
      "type": "function"
    },
    {
      "constant": false,
      "inputs": [],
      "name": "triggerSelfDestruction",
      "outputs": [],
      "payable": false,
      "stateMutability": "nonpayable",
      "type": "function"
    },
    {
      "constant": false,
      "inputs": [
        {
          "name": "service",
          "type": "address"
        },
        {
          "name": "action",
          "type": "string"
        }
      ],
      "name": "enableServiceAction",
      "outputs": [],
      "payable": false,
      "stateMutability": "nonpayable",
      "type": "function"
    },
    {
      "constant": true,
      "inputs": [
        {
          "name": "service",
          "type": "address"
        }
      ],
      "name": "isRegisteredService",
      "outputs": [
        {
          "name": "",
          "type": "bool"
        }
      ],
      "payable": false,
      "stateMutability": "view",
      "type": "function"
    },
    {
      "constant": true,
      "inputs": [],
      "name": "selfDestructionDisabled",
      "outputs": [
        {
          "name": "",
          "type": "bool"
        }
      ],
      "payable": false,
      "stateMutability": "view",
      "type": "function"
    },
    {
      "constant": false,
      "inputs": [
        {
          "name": "service",
          "type": "address"
        },
        {
          "name": "action",
          "type": "string"
        }
      ],
      "name": "disableServiceAction",
      "outputs": [],
      "payable": false,
      "stateMutability": "nonpayable",
      "type": "function"
    },
    {
      "constant": true,
      "inputs": [],
      "name": "serviceActivationTimeout",
      "outputs": [
        {
          "name": "",
          "type": "uint256"
        }
      ],
      "payable": false,
      "stateMutability": "view",
      "type": "function"
    },
    {
      "constant": true,
      "inputs": [],
      "name": "balanceTrackerFrozen",
      "outputs": [
        {
          "name": "",
          "type": "bool"
        }
      ],
      "payable": false,
      "stateMutability": "view",
      "type": "function"
    },
    {
      "constant": true,
      "inputs": [],
      "name": "destructor",
      "outputs": [
        {
          "name": "",
          "type": "address"
        }
      ],
      "payable": false,
      "stateMutability": "view",
      "type": "function"
    },
    {
      "constant": false,
      "inputs": [
        {
          "name": "service",
          "type": "address"
        }
      ],
      "name": "deregisterService",
      "outputs": [],
      "payable": false,
      "stateMutability": "nonpayable",
      "type": "function"
    },
    {
      "constant": true,
      "inputs": [],
      "name": "operator",
      "outputs": [
        {
          "name": "",
          "type": "address"
        }
      ],
      "payable": false,
      "stateMutability": "view",
      "type": "function"
    },
    {
      "constant": false,
      "inputs": [
        {
          "name": "newBalanceTracker",
          "type": "address"
        }
      ],
      "name": "setBalanceTracker",
      "outputs": [],
      "payable": false,
      "stateMutability": "nonpayable",
      "type": "function"
    },
    {
      "constant": true,
      "inputs": [
        {
          "name": "service",
          "type": "address"
        },
        {
          "name": "action",
          "type": "string"
        }
      ],
      "name": "isEnabledServiceAction",
      "outputs": [
        {
          "name": "",
          "type": "bool"
        }
      ],
      "payable": false,
      "stateMutability": "view",
      "type": "function"
    },
    {
      "constant": false,
      "inputs": [
        {
          "name": "newConfiguration",
          "type": "address"
        }
      ],
      "name": "setConfiguration",
      "outputs": [],
      "payable": false,
      "stateMutability": "nonpayable",
      "type": "function"
    },
    {
      "constant": true,
      "inputs": [
        {
          "name": "",
          "type": "address"
        },
        {
          "name": "",
          "type": "address"
        },
        {
          "name": "",
          "type": "uint256"
        }
      ],
      "name": "proposalIndexByWalletCurrency",
      "outputs": [
        {
          "name": "",
          "type": "uint256"
        }
      ],
      "payable": false,
      "stateMutability": "view",
      "type": "function"
    },
    {
      "constant": true,
      "inputs": [],
      "name": "configuration",
      "outputs": [
        {
          "name": "",
          "type": "address"
        }
      ],
      "payable": false,
      "stateMutability": "view",
      "type": "function"
    },
    {
      "constant": false,
      "inputs": [],
      "name": "disableSelfDestruction",
      "outputs": [],
      "payable": false,
      "stateMutability": "nonpayable",
      "type": "function"
    },
    {
      "constant": false,
      "inputs": [
        {
          "name": "timeoutInSeconds",
          "type": "uint256"
        }
      ],
      "name": "setServiceActivationTimeout",
      "outputs": [],
      "payable": false,
      "stateMutability": "nonpayable",
      "type": "function"
    },
    {
      "constant": true,
      "inputs": [],
      "name": "TERMINATE_PROPOSAL_ACTION",
      "outputs": [
        {
          "name": "",
          "type": "string"
        }
      ],
      "payable": false,
      "stateMutability": "view",
      "type": "function"
    },
    {
      "constant": false,
      "inputs": [
        {
          "name": "service",
          "type": "address"
        }
      ],
      "name": "registerServiceDeferred",
      "outputs": [],
      "payable": false,
      "stateMutability": "nonpayable",
      "type": "function"
    },
    {
      "constant": true,
      "inputs": [],
      "name": "REMOVE_PROPOSAL_ACTION",
      "outputs": [
        {
          "name": "",
          "type": "string"
        }
      ],
      "payable": false,
      "stateMutability": "view",
      "type": "function"
    },
    {
      "constant": false,
      "inputs": [
        {
          "name": "newDeployer",
          "type": "address"
        }
      ],
      "name": "setDeployer",
      "outputs": [],
      "payable": false,
      "stateMutability": "nonpayable",
      "type": "function"
    },
    {
      "constant": true,
      "inputs": [],
      "name": "INITIATE_PROPOSAL_ACTION",
      "outputs": [
        {
          "name": "",
          "type": "string"
        }
      ],
      "payable": false,
      "stateMutability": "view",
      "type": "function"
    },
    {
      "constant": false,
      "inputs": [
        {
          "name": "newOperator",
          "type": "address"
        }
      ],
      "name": "setOperator",
      "outputs": [],
      "payable": false,
      "stateMutability": "nonpayable",
      "type": "function"
    },
    {
      "constant": false,
      "inputs": [],
      "name": "freezeBalanceTracker",
      "outputs": [],
      "payable": false,
      "stateMutability": "nonpayable",
      "type": "function"
    },
    {
      "constant": true,
      "inputs": [],
      "name": "deployer",
      "outputs": [
        {
          "name": "",
          "type": "address"
        }
      ],
      "payable": false,
      "stateMutability": "view",
      "type": "function"
    },
    {
      "constant": true,
      "inputs": [],
      "name": "DISQUALIFY_PROPOSAL_ACTION",
      "outputs": [
        {
          "name": "",
          "type": "string"
        }
      ],
      "payable": false,
      "stateMutability": "view",
      "type": "function"
    },
    {
      "constant": false,
      "inputs": [
        {
          "name": "service",
          "type": "address"
        }
      ],
      "name": "registerService",
      "outputs": [],
      "payable": false,
      "stateMutability": "nonpayable",
      "type": "function"
    },
    {
      "inputs": [
        {
          "name": "deployer",
          "type": "address"
        }
      ],
      "payable": false,
      "stateMutability": "nonpayable",
      "type": "constructor"
    },
    {
      "anonymous": false,
      "inputs": [
        {
          "indexed": false,
          "name": "wallet",
          "type": "address"
        },
        {
          "indexed": false,
          "name": "nonce",
          "type": "uint256"
        },
        {
          "indexed": false,
          "name": "stageAmount",
          "type": "int256"
        },
        {
          "indexed": false,
          "name": "targetBalanceAmount",
          "type": "int256"
        },
        {
          "components": [
            {
              "name": "ct",
              "type": "address"
            },
            {
              "name": "id",
              "type": "uint256"
            }
          ],
          "indexed": false,
          "name": "currency",
          "type": "tuple"
        },
        {
          "indexed": false,
          "name": "blockNumber",
          "type": "uint256"
        },
        {
          "indexed": false,
          "name": "walletInitiated",
          "type": "bool"
        }
      ],
      "name": "InitiateProposalEvent",
      "type": "event"
    },
    {
      "anonymous": false,
      "inputs": [
        {
          "indexed": false,
          "name": "wallet",
          "type": "address"
        },
        {
          "indexed": false,
          "name": "nonce",
          "type": "uint256"
        },
        {
          "indexed": false,
          "name": "stageAmount",
          "type": "int256"
        },
        {
          "indexed": false,
          "name": "targetBalanceAmount",
          "type": "int256"
        },
        {
          "components": [
            {
              "name": "ct",
              "type": "address"
            },
            {
              "name": "id",
              "type": "uint256"
            }
          ],
          "indexed": false,
          "name": "currency",
          "type": "tuple"
        },
        {
          "indexed": false,
          "name": "blockNumber",
          "type": "uint256"
        },
        {
          "indexed": false,
          "name": "walletInitiated",
          "type": "bool"
        }
      ],
      "name": "TerminateProposalEvent",
      "type": "event"
    },
    {
      "anonymous": false,
      "inputs": [
        {
          "indexed": false,
          "name": "wallet",
          "type": "address"
        },
        {
          "indexed": false,
          "name": "nonce",
          "type": "uint256"
        },
        {
          "indexed": false,
          "name": "stageAmount",
          "type": "int256"
        },
        {
          "indexed": false,
          "name": "targetBalanceAmount",
          "type": "int256"
        },
        {
          "components": [
            {
              "name": "ct",
              "type": "address"
            },
            {
              "name": "id",
              "type": "uint256"
            }
          ],
          "indexed": false,
          "name": "currency",
          "type": "tuple"
        },
        {
          "indexed": false,
          "name": "blockNumber",
          "type": "uint256"
        },
        {
          "indexed": false,
          "name": "walletInitiated",
          "type": "bool"
        }
      ],
      "name": "RemoveProposalEvent",
      "type": "event"
    },
    {
      "anonymous": false,
      "inputs": [
        {
          "indexed": false,
          "name": "challengedWallet",
          "type": "address"
        },
        {
          "indexed": false,
          "name": "challangedNonce",
          "type": "uint256"
        },
        {
          "indexed": false,
          "name": "stageAmount",
          "type": "int256"
        },
        {
          "indexed": false,
          "name": "targetBalanceAmount",
          "type": "int256"
        },
        {
          "components": [
            {
              "name": "ct",
              "type": "address"
            },
            {
              "name": "id",
              "type": "uint256"
            }
          ],
          "indexed": false,
          "name": "currency",
          "type": "tuple"
        },
        {
          "indexed": false,
          "name": "blockNumber",
          "type": "uint256"
        },
        {
          "indexed": false,
          "name": "walletInitiated",
          "type": "bool"
        },
        {
          "indexed": false,
          "name": "challengerWallet",
          "type": "address"
        },
        {
          "indexed": false,
          "name": "candidateNonce",
          "type": "uint256"
        },
        {
          "indexed": false,
          "name": "candidateHash",
          "type": "bytes32"
        },
        {
          "indexed": false,
          "name": "candidateKind",
          "type": "string"
        }
      ],
      "name": "DisqualifyProposalEvent",
      "type": "event"
    },
    {
      "anonymous": false,
      "inputs": [
        {
          "indexed": false,
          "name": "oldBalanceTracker",
          "type": "address"
        },
        {
          "indexed": false,
          "name": "newBalanceTracker",
          "type": "address"
        }
      ],
      "name": "SetBalanceTrackerEvent",
      "type": "event"
    },
    {
      "anonymous": false,
      "inputs": [],
      "name": "FreezeBalanceTrackerEvent",
      "type": "event"
    },
    {
      "anonymous": false,
      "inputs": [
        {
          "indexed": false,
          "name": "oldConfiguration",
          "type": "address"
        },
        {
          "indexed": false,
          "name": "newConfiguration",
          "type": "address"
        }
      ],
      "name": "SetConfigurationEvent",
      "type": "event"
    },
    {
      "anonymous": false,
      "inputs": [
        {
          "indexed": false,
          "name": "timeoutInSeconds",
          "type": "uint256"
        }
      ],
      "name": "ServiceActivationTimeoutEvent",
      "type": "event"
    },
    {
      "anonymous": false,
      "inputs": [
        {
          "indexed": false,
          "name": "service",
          "type": "address"
        }
      ],
      "name": "RegisterServiceEvent",
      "type": "event"
    },
    {
      "anonymous": false,
      "inputs": [
        {
          "indexed": false,
          "name": "service",
          "type": "address"
        },
        {
          "indexed": false,
          "name": "timeout",
          "type": "uint256"
        }
      ],
      "name": "RegisterServiceDeferredEvent",
      "type": "event"
    },
    {
      "anonymous": false,
      "inputs": [
        {
          "indexed": false,
          "name": "service",
          "type": "address"
        }
      ],
      "name": "DeregisterServiceEvent",
      "type": "event"
    },
    {
      "anonymous": false,
      "inputs": [
        {
          "indexed": false,
          "name": "service",
          "type": "address"
        },
        {
          "indexed": false,
          "name": "action",
          "type": "string"
        }
      ],
      "name": "EnableServiceActionEvent",
      "type": "event"
    },
    {
      "anonymous": false,
      "inputs": [
        {
          "indexed": false,
          "name": "service",
          "type": "address"
        },
        {
          "indexed": false,
          "name": "action",
          "type": "string"
        }
      ],
      "name": "DisableServiceActionEvent",
      "type": "event"
    },
    {
      "anonymous": false,
      "inputs": [
        {
          "indexed": false,
          "name": "oldDeployer",
          "type": "address"
        },
        {
          "indexed": false,
          "name": "newDeployer",
          "type": "address"
        }
      ],
      "name": "SetDeployerEvent",
      "type": "event"
    },
    {
      "anonymous": false,
      "inputs": [
        {
          "indexed": false,
          "name": "oldOperator",
          "type": "address"
        },
        {
          "indexed": false,
          "name": "newOperator",
          "type": "address"
        }
      ],
      "name": "SetOperatorEvent",
      "type": "event"
    },
    {
      "anonymous": false,
      "inputs": [
        {
          "indexed": false,
          "name": "wallet",
          "type": "address"
        }
      ],
      "name": "SelfDestructionDisabledEvent",
      "type": "event"
    },
    {
      "anonymous": false,
      "inputs": [
        {
          "indexed": false,
          "name": "wallet",
          "type": "address"
        }
      ],
      "name": "TriggerSelfDestructionEvent",
      "type": "event"
    },
    {
      "constant": true,
      "inputs": [],
      "name": "proposalsCount",
      "outputs": [
        {
          "name": "",
          "type": "uint256"
        }
      ],
      "payable": false,
      "stateMutability": "view",
      "type": "function"
    },
    {
      "constant": false,
      "inputs": [
        {
          "name": "wallet",
          "type": "address"
        },
        {
          "name": "nonce",
          "type": "uint256"
        },
        {
          "name": "stageAmount",
          "type": "int256"
        },
        {
          "name": "targetBalanceAmount",
          "type": "int256"
        },
        {
          "components": [
            {
              "name": "ct",
              "type": "address"
            },
            {
              "name": "id",
              "type": "uint256"
            }
          ],
          "name": "currency",
          "type": "tuple"
        },
        {
          "name": "blockNumber",
          "type": "uint256"
        },
        {
          "name": "walletInitiated",
          "type": "bool"
        }
      ],
      "name": "initiateProposal",
      "outputs": [],
      "payable": false,
      "stateMutability": "nonpayable",
      "type": "function"
    },
    {
      "constant": false,
      "inputs": [
        {
          "name": "wallet",
          "type": "address"
        },
        {
          "components": [
            {
              "name": "ct",
              "type": "address"
            },
            {
              "name": "id",
              "type": "uint256"
            }
          ],
          "name": "currency",
          "type": "tuple"
        },
        {
          "name": "walletTerminated",
          "type": "bool"
        }
      ],
      "name": "terminateProposal",
      "outputs": [],
      "payable": false,
      "stateMutability": "nonpayable",
      "type": "function"
    },
    {
      "constant": false,
      "inputs": [
        {
          "name": "wallet",
          "type": "address"
        },
        {
          "components": [
            {
              "name": "ct",
              "type": "address"
            },
            {
              "name": "id",
              "type": "uint256"
            }
          ],
          "name": "currency",
          "type": "tuple"
        }
      ],
      "name": "terminateProposal",
      "outputs": [],
      "payable": false,
      "stateMutability": "nonpayable",
      "type": "function"
    },
    {
      "constant": false,
      "inputs": [
        {
          "name": "wallet",
          "type": "address"
        },
        {
          "components": [
            {
              "name": "ct",
              "type": "address"
            },
            {
              "name": "id",
              "type": "uint256"
            }
          ],
          "name": "currency",
          "type": "tuple"
        },
        {
          "name": "walletTerminated",
          "type": "bool"
        }
      ],
      "name": "removeProposal",
      "outputs": [],
      "payable": false,
      "stateMutability": "nonpayable",
      "type": "function"
    },
    {
      "constant": false,
      "inputs": [
        {
          "name": "wallet",
          "type": "address"
        },
        {
          "components": [
            {
              "name": "ct",
              "type": "address"
            },
            {
              "name": "id",
              "type": "uint256"
            }
          ],
          "name": "currency",
          "type": "tuple"
        }
      ],
      "name": "removeProposal",
      "outputs": [],
      "payable": false,
      "stateMutability": "nonpayable",
      "type": "function"
    },
    {
      "constant": false,
      "inputs": [
        {
          "name": "challengedWallet",
          "type": "address"
        },
        {
          "components": [
            {
              "name": "ct",
              "type": "address"
            },
            {
              "name": "id",
              "type": "uint256"
            }
          ],
          "name": "currency",
          "type": "tuple"
        },
        {
          "name": "challengerWallet",
          "type": "address"
        },
        {
          "name": "blockNumber",
          "type": "uint256"
        },
        {
          "name": "candidateNonce",
          "type": "uint256"
        },
        {
          "name": "candidateHash",
          "type": "bytes32"
        },
        {
          "name": "candidateKind",
          "type": "string"
        }
      ],
      "name": "disqualifyProposal",
      "outputs": [],
      "payable": false,
      "stateMutability": "nonpayable",
      "type": "function"
    },
    {
      "constant": true,
      "inputs": [
        {
          "name": "wallet",
          "type": "address"
        },
        {
          "components": [
            {
              "name": "ct",
              "type": "address"
            },
            {
              "name": "id",
              "type": "uint256"
            }
          ],
          "name": "currency",
          "type": "tuple"
        }
      ],
      "name": "hasProposal",
      "outputs": [
        {
          "name": "",
          "type": "bool"
        }
      ],
      "payable": false,
      "stateMutability": "view",
      "type": "function"
    },
    {
      "constant": true,
      "inputs": [
        {
          "name": "wallet",
          "type": "address"
        },
        {
          "components": [
            {
              "name": "ct",
              "type": "address"
            },
            {
              "name": "id",
              "type": "uint256"
            }
          ],
          "name": "currency",
          "type": "tuple"
        }
      ],
      "name": "hasProposalTerminated",
      "outputs": [
        {
          "name": "",
          "type": "bool"
        }
      ],
      "payable": false,
      "stateMutability": "view",
      "type": "function"
    },
    {
      "constant": true,
      "inputs": [
        {
          "name": "wallet",
          "type": "address"
        },
        {
          "components": [
            {
              "name": "ct",
              "type": "address"
            },
            {
              "name": "id",
              "type": "uint256"
            }
          ],
          "name": "currency",
          "type": "tuple"
        }
      ],
      "name": "hasProposalExpired",
      "outputs": [
        {
          "name": "",
          "type": "bool"
        }
      ],
      "payable": false,
      "stateMutability": "view",
      "type": "function"
    },
    {
      "constant": true,
      "inputs": [
        {
          "name": "wallet",
          "type": "address"
        },
        {
          "components": [
            {
              "name": "ct",
              "type": "address"
            },
            {
              "name": "id",
              "type": "uint256"
            }
          ],
          "name": "currency",
          "type": "tuple"
        }
      ],
      "name": "proposalNonce",
      "outputs": [
        {
          "name": "",
          "type": "uint256"
        }
      ],
      "payable": false,
      "stateMutability": "view",
      "type": "function"
    },
    {
      "constant": true,
      "inputs": [
        {
          "name": "wallet",
          "type": "address"
        },
        {
          "components": [
            {
              "name": "ct",
              "type": "address"
            },
            {
              "name": "id",
              "type": "uint256"
            }
          ],
          "name": "currency",
          "type": "tuple"
        }
      ],
      "name": "proposalReferenceBlockNumber",
      "outputs": [
        {
          "name": "",
          "type": "uint256"
        }
      ],
      "payable": false,
      "stateMutability": "view",
      "type": "function"
    },
    {
      "constant": true,
      "inputs": [
        {
          "name": "wallet",
          "type": "address"
        },
        {
          "components": [
            {
              "name": "ct",
              "type": "address"
            },
            {
              "name": "id",
              "type": "uint256"
            }
          ],
          "name": "currency",
          "type": "tuple"
        }
      ],
      "name": "proposalDefinitionBlockNumber",
      "outputs": [
        {
          "name": "",
          "type": "uint256"
        }
      ],
      "payable": false,
      "stateMutability": "view",
      "type": "function"
    },
    {
      "constant": true,
      "inputs": [
        {
          "name": "wallet",
          "type": "address"
        },
        {
          "components": [
            {
              "name": "ct",
              "type": "address"
            },
            {
              "name": "id",
              "type": "uint256"
            }
          ],
          "name": "currency",
          "type": "tuple"
        }
      ],
      "name": "proposalExpirationTime",
      "outputs": [
        {
          "name": "",
          "type": "uint256"
        }
      ],
      "payable": false,
      "stateMutability": "view",
      "type": "function"
    },
    {
      "constant": true,
      "inputs": [
        {
          "name": "wallet",
          "type": "address"
        },
        {
          "components": [
            {
              "name": "ct",
              "type": "address"
            },
            {
              "name": "id",
              "type": "uint256"
            }
          ],
          "name": "currency",
          "type": "tuple"
        }
      ],
      "name": "proposalStatus",
      "outputs": [
        {
          "name": "",
          "type": "uint8"
        }
      ],
      "payable": false,
      "stateMutability": "view",
      "type": "function"
    },
    {
      "constant": true,
      "inputs": [
        {
          "name": "wallet",
          "type": "address"
        },
        {
          "components": [
            {
              "name": "ct",
              "type": "address"
            },
            {
              "name": "id",
              "type": "uint256"
            }
          ],
          "name": "currency",
          "type": "tuple"
        }
      ],
      "name": "proposalStageAmount",
      "outputs": [
        {
          "name": "",
          "type": "int256"
        }
      ],
      "payable": false,
      "stateMutability": "view",
      "type": "function"
    },
    {
      "constant": true,
      "inputs": [
        {
          "name": "wallet",
          "type": "address"
        },
        {
          "components": [
            {
              "name": "ct",
              "type": "address"
            },
            {
              "name": "id",
              "type": "uint256"
            }
          ],
          "name": "currency",
          "type": "tuple"
        }
      ],
      "name": "proposalTargetBalanceAmount",
      "outputs": [
        {
          "name": "",
          "type": "int256"
        }
      ],
      "payable": false,
      "stateMutability": "view",
      "type": "function"
    },
    {
      "constant": true,
      "inputs": [
        {
          "name": "wallet",
          "type": "address"
        },
        {
          "components": [
            {
              "name": "ct",
              "type": "address"
            },
            {
              "name": "id",
              "type": "uint256"
            }
          ],
          "name": "currency",
          "type": "tuple"
        }
      ],
      "name": "proposalWalletInitiated",
      "outputs": [
        {
          "name": "",
          "type": "bool"
        }
      ],
      "payable": false,
      "stateMutability": "view",
      "type": "function"
    },
    {
      "constant": true,
      "inputs": [
        {
          "name": "wallet",
          "type": "address"
        },
        {
          "components": [
            {
              "name": "ct",
              "type": "address"
            },
            {
              "name": "id",
              "type": "uint256"
            }
          ],
          "name": "currency",
          "type": "tuple"
        }
      ],
      "name": "proposalDisqualificationChallenger",
      "outputs": [
        {
          "name": "",
          "type": "address"
        }
      ],
      "payable": false,
      "stateMutability": "view",
      "type": "function"
    },
    {
      "constant": true,
      "inputs": [
        {
          "name": "wallet",
          "type": "address"
        },
        {
          "components": [
            {
              "name": "ct",
              "type": "address"
            },
            {
              "name": "id",
              "type": "uint256"
            }
          ],
          "name": "currency",
          "type": "tuple"
        }
      ],
      "name": "proposalDisqualificationBlockNumber",
      "outputs": [
        {
          "name": "",
          "type": "uint256"
        }
      ],
      "payable": false,
      "stateMutability": "view",
      "type": "function"
    },
    {
      "constant": true,
      "inputs": [
        {
          "name": "wallet",
          "type": "address"
        },
        {
          "components": [
            {
              "name": "ct",
              "type": "address"
            },
            {
              "name": "id",
              "type": "uint256"
            }
          ],
          "name": "currency",
          "type": "tuple"
        }
      ],
      "name": "proposalDisqualificationNonce",
      "outputs": [
        {
          "name": "",
          "type": "uint256"
        }
      ],
      "payable": false,
      "stateMutability": "view",
      "type": "function"
    },
    {
      "constant": true,
      "inputs": [
        {
          "name": "wallet",
          "type": "address"
        },
        {
          "components": [
            {
              "name": "ct",
              "type": "address"
            },
            {
              "name": "id",
              "type": "uint256"
            }
          ],
          "name": "currency",
          "type": "tuple"
        }
      ],
      "name": "proposalDisqualificationCandidateHash",
      "outputs": [
        {
          "name": "",
          "type": "bytes32"
        }
      ],
      "payable": false,
      "stateMutability": "view",
      "type": "function"
    },
    {
      "constant": true,
      "inputs": [
        {
          "name": "wallet",
          "type": "address"
        },
        {
          "components": [
            {
              "name": "ct",
              "type": "address"
            },
            {
              "name": "id",
              "type": "uint256"
            }
          ],
          "name": "currency",
          "type": "tuple"
        }
      ],
      "name": "proposalDisqualificationCandidateKind",
      "outputs": [
        {
          "name": "",
          "type": "string"
        }
      ],
      "payable": false,
      "stateMutability": "view",
      "type": "function"
    }
  ],
  "bytecode": "0x60806040523480156200001157600080fd5b5060405160208062003d368339810180604052620000339190810190620000b6565b8080600160a060020a03811615156200004b57600080fd5b600160a060020a0381163014156200006257600080fd5b506000805461010060a860020a031916610100600160a060020a039390931692830217905560018054600160a060020a031916909117905550620000eb565b6000620000af8251620000df565b9392505050565b600060208284031215620000c957600080fd5b6000620000d78484620000a1565b949350505050565b600160a060020a031690565b613c3b80620000fb6000396000f3006080604052600436106102635763ffffffff60e060020a600035041663013cf08b81146102685780630a9f46ad146102a957806317ba3f90146102cb57806319139092146102f85780631b90e3c11461031a57806326885b541461033a5780632738a1121461035c5780632b5672e3146103715780632b91e0a9146103915780632c1da19a146103b15780632ee2ed25146103de5780632f013a00146103fe5780633b238528146104135780633b58c501146104335780633b7bea6c146104535780633e59b706146104685780634476d23b1461047d57806350b08c021461049f57806352a0dd10146104bf5780635385f37b146104df5780635482c735146104ff578063553d90e91461051f578063565872291461053f57806356ec90751461055f578063570ca7351461057f578063598b75ad146105945780635df1b0a3146105b4578063600e461e146105d4578063627f09c3146105f4578063667666c81461061457806366a6f36d146106345780636c70bee9146106545780636e90a5961461066957806370327ea1146106895780637e15dd5c1461069e5780637ff81c37146106be57806388845c95146106de5780638b4ed4c2146106f35780638e8cef121461071357806390cfe9991461073357806396214735146107485780639d25487e14610768578063a495a3061461077d578063b3938a6c1461079d578063b3ab15fb146107bd578063b52d470a146107dd578063b6e2fc33146107f2578063ba5152881461081f578063c46fcd751461083f578063cf293aac1461085f578063d5f394881461087f578063e58be02014610894578063fdd9ec7d146108a9575b600080fd5b34801561027457600080fd5b506102886102833660046136cf565b6108c9565b6040516102a09c9b9a999897969594939291906139d6565b60405180910390f35b3480156102b557600080fd5b506102be610b5d565b6040516102a09190613aa5565b3480156102d757600080fd5b506102eb6102e6366004613422565b610b64565b6040516102a09190613a97565b34801561030457600080fd5b5061030d610b9c565b6040516102a09190613ab3565b34801561032657600080fd5b506102be6103353660046134de565b610bab565b34801561034657600080fd5b5061035a6103553660046134de565b610c1a565b005b34801561036857600080fd5b5061035a610d99565b34801561037d57600080fd5b5061035a61038c36600461348d565b610dff565b34801561039d57600080fd5b506102eb6103ac366004613422565b610f2d565b3480156103bd57600080fd5b506103d16103cc3660046134de565b610f4b565b6040516102a09190613aea565b3480156103ea57600080fd5b506102be6103f93660046134de565b611043565b34801561040a57600080fd5b506102eb6110b1565b34801561041f57600080fd5b506102eb61042e3660046134de565b6110ba565b34801561043f57600080fd5b5061035a61044e36600461348d565b6110f4565b34801561045f57600080fd5b506102be6111d4565b34801561047457600080fd5b506102eb6111da565b34801561048957600080fd5b506104926111ea565b6040516102a0919061385e565b3480156104ab57600080fd5b5061035a6104ba366004613422565b6111fe565b3480156104cb57600080fd5b5061035a6104da3660046135c2565b6112c0565b3480156104eb57600080fd5b506102be6104fa3660046134de565b611477565b34801561050b57600080fd5b506102eb61051a3660046134de565b6114e5565b34801561052b57600080fd5b506102be61053a3660046134de565b611556565b34801561054b57600080fd5b5061049261055a3660046134de565b6115c7565b34801561056b57600080fd5b506102be61057a3660046134de565b61163f565b34801561058b57600080fd5b506104926116ad565b3480156105a057600080fd5b5061035a6105af3660046136b1565b6116bc565b3480156105c057600080fd5b506102eb6105cf36600461348d565b61177a565b3480156105e057600080fd5b506102be6105ef3660046134de565b6117ca565b34801561060057600080fd5b5061035a61060f3660046136b1565b61183b565b34801561062057600080fd5b5061035a61062f36600461350e565b6118d3565b34801561064057600080fd5b506102be61064f366004613440565b611c77565b34801561066057600080fd5b5061030d611c9a565b34801561067557600080fd5b506102be6106843660046134de565b611ca9565b34801561069557600080fd5b5061035a611d17565b3480156106aa57600080fd5b5061035a6106b93660046136cf565b611d7a565b3480156106ca57600080fd5b506102eb6106d93660046134de565b611dcd565b3480156106ea57600080fd5b506103d1611e44565b3480156106ff57600080fd5b506102be61070e3660046134de565b611e73565b34801561071f57600080fd5b5061035a61072e366004613422565b611ee4565b34801561073f57600080fd5b506103d1611f62565b34801561075457600080fd5b5061035a610763366004613422565b611f8e565b34801561077457600080fd5b506103d1612055565b34801561078957600080fd5b5061035a6107983660046135c2565b612083565b3480156107a957600080fd5b5061035a6107b83660046134de565b612260565b3480156107c957600080fd5b5061035a6107d8366004613422565b612405565b3480156107e957600080fd5b5061035a6124af565b3480156107fe57600080fd5b5061081261080d3660046134de565b612503565b6040516102a09190613adc565b34801561082b57600080fd5b5061035a61083a366004613605565b612575565b34801561084b57600080fd5b506102be61085a3660046134de565b612611565b34801561086b57600080fd5b506102eb61087a3660046134de565b612682565b34801561088b57600080fd5b506104926126f4565b3480156108a057600080fd5b506103d1612708565b3480156108b557600080fd5b5061035a6108c4366004613422565b612738565b60068054829081106108d757fe5b90600052602060002090601302016000915090508060000160009054906101000a9004600160a060020a0316908060010154908060020154908060030154908060040154908060050160009054906101000a900460ff16908060060160606040519081016040529081600082015481526020016001820154815260200160028201548152505090806009016040805190810160405290816000820160009054906101000a9004600160a060020a0316600160a060020a0316600160a060020a031681526020016001820154815250509080600b01604080519081016040529081600082018054600181600116156101000203166002900480601f016020809104026020016040519081016040528092919081815260200182805460018160011615610100020316600290048015610a4f5780601f10610a2457610100808354040283529160200191610a4f565b820191906000526020600020905b815481529060010190602001808311610a3257829003601f168201915b5050509183525050600191820154602091820152600d84015460408051608081018252600e87018054600160a060020a03168252600f880154828601526010880154828401528251601189018054606060026000196101009b8416158c020190921691909104601f8101899004909802830181018652948201878152989960ff8088169a99909704909616979596939592948087019492939192849291849190840182828015610b405780601f10610b1557610100808354040283529160200191610b40565b820191906000526020600020905b815481529060010190602001808311610b2357829003601f168201915b50505091835250506001919091015460209091015290525090508c565b6006545b90565b6000610b6f82610f2d565b8015610b965750600160a060020a0382166000908152600260205260409020600101544210155b92915050565b600554600160a060020a031681565b600160a060020a03808316600090815260076020908152604080832085519094168352928152828220848201518352905290812054801515610bec57600080fd5b600680546000198301908110610bfe57fe5b6000918252602090912060139091020160120154949350505050565b60006040805190810160405280600f8152602001608a60020a6e1c995b5bdd9957dc1c9bdc1bdcd85b02815250610c51338261177a565b1515610c5c57600080fd5b600160a060020a03808516600090815260076020908152604080832087519094168352928152828220868201518352905220549150811515610c9d57610d93565b600080516020613bc283398151915284600660018503815481101515610cbf57fe5b906000526020600020906013020160010154600660018603815481101515610ce357fe5b906000526020600020906013020160060160010154600660018703815481101515610d0a57fe5b90600052602060002090601302016006016002015487600660018903815481101515610d3257fe5b906000526020600020906013020160020154600660018a03815481101515610d5657fe5b60009182526020909120600d6013909202010154604051610d809796959493929160ff16906138c2565b60405180910390a1610d91826127b1565b505b50505050565b33610da26111ea565b600160a060020a031614610db557600080fd5b60005460ff1615610dc557600080fd5b7f787a5d936e74f4b564b9153575886059829c78cd9927b1be5e0d976b317ef73633604051610df4919061385e565b60405180910390a133ff5b6000610e09612b3b565b1515610e1457600080fd5b82600160a060020a0381161515610e2a57600080fd5b600160a060020a038116301415610e4057600080fd5b600160a060020a03841660009081526002602052604090205460ff161515610e6757600080fd5b610e7083612b51565b600160a060020a0385166000908152600260208181526040808420858552909201905290205490925060ff1615610ea657600080fd5b600160a060020a03841660009081526002602081815260408084208685528084018352818520805460ff19166001908117909155938352600301805493840181558452922001839055517fec1b982d69bfc1a6fd8becf191d9a633486c822d3bdedd52303ca81fa635750190610f1f9086908690613887565b60405180910390a150505050565b600160a060020a031660009081526002602052604090205460ff1690565b600160a060020a0380831660009081526007602090815260408083208551909416835292815282822084820151835290522054606090801515610f8d57600080fd5b600680546000198301908110610f9f57fe5b6000918252602091829020601160139092020101805460408051601f60026000196101006001871615020190941693909304928301859004850281018501909152818152928301828280156110355780601f1061100a57610100808354040283529160200191611035565b820191906000526020600020905b81548152906001019060200180831161101857829003601f168201915b505050505091505092915050565b600160a060020a0380831660009081526007602090815260408083208551909416835292815282822084820151835290529081205480151561108457600080fd5b60068054600019830190811061109657fe5b90600052602060002090601302016001015491505092915050565b60005460ff1681565b600160a060020a03918216600090815260076020908152604080832084519095168352938152838220928101518252919091522054151590565b60006110fe612b3b565b151561110957600080fd5b82600160a060020a038116151561111f57600080fd5b600160a060020a03811630141561113557600080fd5b61113e83612b51565b600160a060020a0385166000908152600260208181526040808420858552909201905290205490925060ff16151561117557600080fd5b600160a060020a0384166000908152600260208181526040808420868552909201905290819020805460ff19169055517f92f4af6130f47c92f3899e06611c8c6ef191fb81207ad2675d134af619d2fe7d90610f1f9086908690613887565b60035481565b60055460a060020a900460ff1681565b6000546101009004600160a060020a031690565b611206612b3b565b151561121157600080fd5b80600160a060020a038116151561122757600080fd5b600160a060020a03811630141561123d57600080fd5b600160a060020a03821660009081526002602052604090205460ff16151561126457600080fd5b600160a060020a03821660009081526002602052604090819020805460ff19169055517f777645c5437dfbf962f57a281ead25f3d513f2f8e938685bbfc1738e81c9880e906112b490849061385e565b60405180910390a15050565b60006040805190810160405280600f8152602001608a60020a6e1c995b5bdd9957dc1c9bdc1bdcd85b028152506112f7338261177a565b151561130257600080fd5b600160a060020a0380861660009081526007602090815260408083208851909416835292815282822087820151835290522054915081151561134357610d91565b60068054600019840190811061135557fe5b60009182526020909120601390910201600d015460ff1615158315151461137b57600080fd5b600080516020613bc28339815191528560066001850381548110151561139d57fe5b9060005260206000209060130201600101546006600186038154811015156113c157fe5b9060005260206000209060130201600601600101546006600187038154811015156113e857fe5b9060005260206000209060130201600601600201548860066001890381548110151561141057fe5b906000526020600020906013020160020154600660018a0381548110151561143457fe5b60009182526020909120600d601390920201015460405161145e9796959493929160ff16906138c2565b60405180910390a161146f826127b1565b505050505050565b600160a060020a038083166000908152600760209081526040808320855190941683529281528282208482015183529052908120548015156114b857600080fd5b6006805460001983019081106114ca57fe5b90600052602060002090601302016003015491505092915050565b600160a060020a0380831660009081526007602090815260408083208551909416835292815282822084820151835290529081205480151561152657600080fd5b60068054600019830190811061153857fe5b90600052602060002090601302016004015442101591505092915050565b600160a060020a0380831660009081526007602090815260408083208551909416835292815282822084820151835290529081205480151561159757600080fd5b6006805460001983019081106115a957fe5b9060005260206000209060130201600e016001015491505092915050565b600160a060020a0380831660009081526007602090815260408083208551909416835292815282822084820151835290529081205480151561160857600080fd5b60068054600019830190811061161a57fe5b60009182526020909120601390910201600e0154600160a060020a0316949350505050565b600160a060020a0380831660009081526007602090815260408083208551909416835292815282822084820151835290529081205480151561168057600080fd5b60068054600019830190811061169257fe5b90600052602060002090601302016004015491505092915050565b600154600160a060020a031681565b60006116c6612b3b565b15156116d157600080fd5b81600160a060020a03811615156116e757600080fd5b6005548390600160a060020a039081169082168114610d915760055460a060020a900460ff161561171757600080fd5b60058054600160a060020a03878116600160a060020a0319831617909255604051911694507fb2a91d3a71b0c5bc7c083153b3474378e489506ba98bd4ddb1b9056fdc594bb59061176b9086908890613ac1565b60405180910390a15050505050565b60008061178683612b51565b905061179184610b64565b80156117c25750600160a060020a0384166000908152600260208181526040808420858552909201905290205460ff165b949350505050565b600160a060020a0380831660009081526007602090815260408083208551909416835292815282822084820151835290529081205480151561180b57600080fd5b60068054600019830190811061181d57fe5b90600052602060002090601302016006016001015491505092915050565b6000611845612b3b565b151561185057600080fd5b81600160a060020a038116151561186657600080fd5b6004548390600160a060020a039081169082168114610d915760048054600160a060020a03878116600160a060020a0319831617909255604051911694507f634f61bf00e14adedce330c80c2823e16e184f189ebe853e1ddecc4a268477ff9061176b9086908890613ac1565b6000604080519081016040528060138152602001606a60020a72191a5cdc5d585b1a599e57dc1c9bdc1bdcd85b0281525061190e338261177a565b151561191957600080fd5b600160a060020a03808a1660009081526007602090815260408083208c5190941683529281528282208b820151835290522054915081151561195a57600080fd5b600160066001840381548110151561196e57fe5b60009182526020909120600560139092020101805460ff19166001838181111561199457fe5b0217905550611a34600460009054906101000a9004600160a060020a0316600160a060020a031663fbdfd8e76040518163ffffffff1660e060020a028152600401602060405180830381600087803b1580156119ef57600080fd5b505af1158015611a03573d6000803e3d6000fd5b505050506040513d601f19601f82011682018060405250611a2791908101906136ed565b429063ffffffff612c1b16565b600680546000198501908110611a4657fe5b90600052602060002090601302016004018190555086600660018403815481101515611a6e57fe5b9060005260206000209060130201600e0160000160006101000a815481600160a060020a030219169083600160a060020a0316021790555084600660018403815481101515611ab957fe5b60009182526020909120600f6013909202010155600680548791906000198501908110611ae257fe5b6000918252602090912060106013909202010155600680548591906000198501908110611b0b57fe5b6000918252602090912060126013909202010155600680548491906000198501908110611b3457fe5b9060005260206000209060130201600e016003016000019080519060200190611b5e9291906130e2565b507f8bacef72bf6455be1f2f376b412755609a1aa75badaa82dce17da01e07699e8689600660018503815481101515611b9357fe5b906000526020600020906013020160010154600660018603815481101515611bb757fe5b906000526020600020906013020160060160010154600660018703815481101515611bde57fe5b9060005260206000209060130201600601600201548c600660018903815481101515611c0657fe5b906000526020600020906013020160020154600660018a03815481101515611c2a57fe5b9060005260206000209060130201600d0160009054906101000a900460ff168e8d8d8d604051611c649b9a9998979695949392919061392b565b60405180910390a1505050505050505050565b600760209081526000938452604080852082529284528284209052825290205481565b600454600160a060020a031681565b600160a060020a03808316600090815260076020908152604080832085519094168352928152828220848201518352905290812054801515611cea57600080fd5b600680546000198301908110611cfc57fe5b90600052602060002090601302016002015491505092915050565b33611d206111ea565b600160a060020a031614611d3357600080fd5b6000805460ff191660011790556040517fd5a2a04a775c741c2ca0dc46ea7ce4835190e1aaf1ca018def0e82568ec3361690611d7090339061385e565b60405180910390a1565b611d82612b3b565b1515611d8d57600080fd5b60038190556040517f4f1d324a1cbffc352fb64f1d73d95e4b200d92f99ef39bf2d7f5b41f946909d690611dc2908390613aa5565b60405180910390a150565b600160a060020a03808316600090815260076020908152604080832085519094168352928152828220848201518352905290812054801515611e0e57600080fd5b600680546000198301908110611e2057fe5b60009182526020909120601390910201600d0154610100900460ff16949350505050565b6040805180820190915260128152607260020a711d195c9b5a5b985d1957dc1c9bdc1bdcd85b02602082015281565b600160a060020a03808316600090815260076020908152604080832085519094168352928152828220848201518352905290812054801515611eb457600080fd5b600680546000198301908110611ec657fe5b9060005260206000209060130201600e016002015491505092915050565b611eec612b3b565b1515611ef757600080fd5b80600160a060020a0381161515611f0d57600080fd5b600160a060020a038116301415611f2357600080fd5b611f2f82600354612c31565b7f7f3a8349917003ed377f6e9ae1608b92edd893903f8983bd274b1f8373dd3b11826003546040516112b49291906138a7565b60408051808201909152600f8152608a60020a6e1c995b5bdd9957dc1c9bdc1bdcd85b02602082015281565b6000611f98612b3b565b1515611fa357600080fd5b81600160a060020a0381161515611fb957600080fd5b600160a060020a038116301415611fcf57600080fd5b600054600160a060020a0384811661010090920416146120505760008054600160a060020a0385811661010090810261010060a860020a0319841617909355604051929091041692507f977e5fa58e458501775e0008d275006294c5249e3c08d1d0e3a9f3acad14f6e490612047908490869061386c565b60405180910390a15b505050565b6040805180820190915260118152607a60020a701a5b9a5d1a585d1957dc1c9bdc1bdcd85b02602082015281565b6000604080519081016040528060128152602001607260020a711d195c9b5a5b985d1957dc1c9bdc1bdcd85b028152506120bd338261177a565b15156120c857600080fd5b600160a060020a0380861660009081526007602090815260408083208851909416835292815282822087820151835290522054915081151561210957610d91565b60068054600019840190811061211b57fe5b60009182526020909120601390910201600d015460ff1615158315151461214157600080fd5b600160066001840381548110151561215557fe5b9060005260206000209060130201600d0160016101000a81548160ff021916908315150217905550600080516020613be28339815191528560066001850381548110151561219f57fe5b9060005260206000209060130201600101546006600186038154811015156121c357fe5b9060005260206000209060130201600601600101546006600187038154811015156121ea57fe5b9060005260206000209060130201600601600201548860066001890381548110151561221257fe5b906000526020600020906013020160020154600660018a0381548110151561223657fe5b60009182526020909120600d601390920201015460405161176b9796959493929160ff16906138c2565b6000604080519081016040528060128152602001607260020a711d195c9b5a5b985d1957dc1c9bdc1bdcd85b0281525061229a338261177a565b15156122a557600080fd5b600160a060020a038085166000908152600760209081526040808320875190941683529281528282208682015183529052205491508115156122e657610d93565b60016006600184038154811015156122fa57fe5b9060005260206000209060130201600d0160016101000a81548160ff021916908315150217905550600080516020613be28339815191528460066001850381548110151561234457fe5b90600052602060002090601302016001015460066001860381548110151561236857fe5b90600052602060002090601302016006016001015460066001870381548110151561238f57fe5b906000526020600020906013020160060160020154876006600189038154811015156123b757fe5b906000526020600020906013020160020154600660018a038154811015156123db57fe5b60009182526020909120600d6013909202010154604051610f1f9796959493929160ff16906138c2565b600061240f612c83565b151561241a57600080fd5b81600160a060020a038116151561243057600080fd5b600160a060020a03811630141561244657600080fd5b600154600160a060020a038481169116146120505760018054600160a060020a03858116600160a060020a0319831617909255604051911692507f9f611b789425d0d5b90b920f1b2852907dd865c80074a30b1629aaa041d1812c90612047908490869061386c565b6124b7612b3b565b15156124c257600080fd5b6005805460a060020a60ff02191660a060020a1790556040517f9c567b65fe8caab5ec7bc979a498a1322c1d4baf01a30727cbca137187560ea290600090a1565b600160a060020a0380831660009081526007602090815260408083208551909416835292815282822084820151835290529081205480151561254457600080fd5b60068054600019830190811061255657fe5b600091825260209091206013909102016005015460ff16949350505050565b6040805180820190915260118152607a60020a701a5b9a5d1a585d1957dc1c9bdc1bdcd85b0260208201526125aa338261177a565b15156125b557600080fd5b6125c488888888888888612c94565b7f4d1aefd530da064576e9da8db9b9c3e60ac26bf1e3253e950248171b13b14e7f888888888888886040516125ff97969594939291906138c2565b60405180910390a15050505050505050565b600160a060020a0380831660009081526007602090815260408083208551909416835292815282822084820151835290529081205480151561265257600080fd5b60068054600019830190811061266457fe5b90600052602060002090601302016006016002015491505092915050565b600160a060020a038083166000908152600760209081526040808320855190941683529281528282208482015183529052908120548015156126c357600080fd5b6006805460001983019081106126d557fe5b60009182526020909120601390910201600d015460ff16949350505050565b6000546101009004600160a060020a031681565b6040805180820190915260138152606a60020a72191a5cdc5d585b1a599e57dc1c9bdc1bdcd85b02602082015281565b612740612b3b565b151561274b57600080fd5b80600160a060020a038116151561276157600080fd5b600160a060020a03811630141561277757600080fd5b612782826000612c31565b7fb619d545cb511bd5f02907a1eac4f4cb8dace7b1846852fb0bf5e553937481c1826040516112b4919061385e565b600080600760006006600186038154811015156127ca57fe5b60009182526020808320601390920290910154600160a060020a03168352820192909252604001812060068054919291600019870190811061280857fe5b6000918252602080832060096013909302019190910154600160a060020a03168352820192909252604001812060068054919291600019870190811061284a57fe5b60009182526020808320600a60139093020191909101548352820192909252604001902055600654821015612b225760068054600019810190811061288b57fe5b90600052602060002090601302016006600184038154811015156128ab57fe5b6000918252602090912082546013909202018054600160a060020a031916600160a060020a0390921691909117815560018083015481830155600280840154908301556003808401549083015560048084015490830155600580840154908301805460ff90921692909160ff191690838181111561292557fe5b02179055506006828101549082015560078083015490820155600880830154908201556009808301549082018054600160a060020a031916600160a060020a03909216919091179055600a8083015490820155600b808301805490918301906129a4908290849060026001821615610100026000190190911604613160565b5060019182015490820155600d8381018054918401805460ff938416151560ff19909116178082559154610100908190049093161515830261ff0019909216919091179055600e80850180549185018054600160a060020a031916600160a060020a03909316929092178255600f8087015490860155601080870154908601556011808701805492959394909391870192612a519284928692600292811615909102600019011604613160565b5060019182015491015550506006805485935060079250600091906000198501908110612a7a57fe5b60009182526020808320601390920290910154600160a060020a031683528201929092526040018120600680549192916000198701908110612ab857fe5b6000918252602080832060096013909302019190910154600160a060020a031683528201929092526040018120600680549192916000198701908110612afa57fe5b9060005260206000209060130201600901600101548152602001908152602001600020819055505b6006805490612b359060001983016131d5565b50919050565b6000546101009004600160a060020a0316331490565b6000816040516020018082805190602001908083835b60208310612b865780518252601f199092019160209182019101612b67565b6001836020036101000a0380198251168184511680821785525050505050509050019150506040516020818303038152906040526040518082805190602001908083835b60208310612be95780518252601f199092019160209182019101612bca565b5181516020939093036101000a6000190180199091169216919091179052604051920182900390912095945050505050565b600082820183811015612c2a57fe5b9392505050565b600160a060020a03821660009081526002602052604090205460ff161515612c7f57600160a060020a0382166000908152600260205260409020805460ff1916600190811782554283019101555b5050565b600154600160a060020a0316331490565b60405160e060020a636b84d93102815260009073__SafeMathIntLib________________________90636b84d93190612cd1908990600401613aa5565b60206040518083038186803b158015612ce957600080fd5b505af4158015612cfd573d6000803e3d6000fd5b505050506040513d601f19601f82011682018060405250612d219190810190613693565b1515612d2c57600080fd5b60405160e060020a636b84d93102815273__SafeMathIntLib________________________90636b84d93190612d66908890600401613aa5565b60206040518083038186803b158015612d7e57600080fd5b505af4158015612d92573d6000803e3d6000fd5b505050506040513d601f19601f82011682018060405250612db69190810190613693565b1515612dc157600080fd5b50600160a060020a0380881660009081526007602090815260408083208751909416835292815282822086820151835290522054801515612e46576006805460010190612e0e90826131d5565b600160a060020a03808a1660009081526007602090815260408083208951909416835292815282822088820151835290522081905590505b87600660018303815481101515612e5957fe5b906000526020600020906013020160000160006101000a815481600160a060020a030219169083600160a060020a0316021790555086600660018303815481101515612ea157fe5b90600052602060002090601302016001018190555082600660018303815481101515612ec957fe5b90600052602060002090601302016002018190555043600660018303815481101515612ef157fe5b906000526020600020906013020160030181905550612f5c600460009054906101000a9004600160a060020a0316600160a060020a031663fbdfd8e76040518163ffffffff1660e060020a028152600401602060405180830381600087803b1580156119ef57600080fd5b600680546000198401908110612f6e57fe5b9060005260206000209060130201600401819055506000600660018303815481101515612f9757fe5b60009182526020909120600560139092020101805460ff191660018381811115612fbd57fe5b021790555083600660018303815481101515612fd557fe5b6000918252602091829020835160139290920201600981018054600160a060020a031916600160a060020a0390931692909217909155910151600a9091015560068054879190600019840190811061302957fe5b600091825260209091206007601390920201015560068054869190600019840190811061305257fe5b600091825260209091206008601390920201015560068054839190600019840190811061307b57fe5b60009182526020822060139190910201600d01805460ff1916921515929092179091556006805460001984019081106130b057fe5b9060005260206000209060130201600d0160016101000a81548160ff0219169083151502179055505050505050505050565b828054600181600116156101000203166002900490600052602060002090601f016020900481019282601f1061312357805160ff1916838001178555613150565b82800160010185558215613150579182015b82811115613150578251825591602001919060010190613135565b5061315c929150613201565b5090565b828054600181600116156101000203166002900490600052602060002090601f016020900481019282601f106131995780548555613150565b8280016001018555821561315057600052602060002091601f016020900482015b828111156131505782548255916001019190600101906131ba565b81548183558181111561205057601302816013028360005260206000209182019101612050919061321b565b610b6191905b8082111561315c5760008155600101613207565b610b6191905b8082111561315c578054600160a060020a0319908116825560006001830181905560028301819055600383018190556004830181905560058301805460ff19169055600683018190556007830181905560088301819055600983018054909216909155600a8201819055600b82018161329a82826132f8565b506000600191909101819055600d8301805461ffff19169055600e83018054600160a060020a0319168155600f8401829055601084018290559060118401816132e382826132f8565b60018201600090555050505050601301613221565b50805460018160011615610100020316600290046000825580601f1061331e575061333c565b601f01602090049060005260206000209081019061333c9190613201565b50565b6000612c2a8235613b4c565b6000612c2a8235613b58565b6000612c2a8251613b58565b6000612c2a8235610b61565b6000612c2a8235613b69565b6000601f8201831361338c57600080fd5b813561339f61339a82613b21565b613afb565b915080825260208301602083018583830111156133bb57600080fd5b6133c6838284613b7f565b50505092915050565b6000604082840312156133e157600080fd5b6133eb6040613afb565b905060006133f9848461333f565b825250602061340a84848301613363565b60208301525092915050565b6000612c2a8251610b61565b60006020828403121561343457600080fd5b60006117c2848461333f565b60008060006060848603121561345557600080fd5b6000613461868661333f565b93505060206134728682870161333f565b925050604061348386828701613363565b9150509250925092565b600080604083850312156134a057600080fd5b60006134ac858561333f565b92505060208301356001604060020a038111156134c857600080fd5b6134d48582860161337b565b9150509250929050565b600080606083850312156134f157600080fd5b60006134fd858561333f565b92505060206134d4858286016133cf565b6000806000806000806000610100888a03121561352a57600080fd5b60006135368a8a61333f565b97505060206135478a828b016133cf565b96505060606135588a828b0161333f565b95505060806135698a828b01613363565b94505060a061357a8a828b01613363565b93505060c061358b8a828b01613363565b92505060e08801356001604060020a038111156135a757600080fd5b6135b38a828b0161337b565b91505092959891949750929550565b6000806000608084860312156135d757600080fd5b60006135e3868661333f565b93505060206135f4868287016133cf565b92505060606134838682870161334b565b6000806000806000806000610100888a03121561362157600080fd5b600061362d8a8a61333f565b975050602061363e8a828b01613363565b965050604061364f8a828b01613363565b95505060606136608a828b01613363565b94505060806136718a828b016133cf565b93505060c06136828a828b01613363565b92505060e06135b38a828b0161334b565b6000602082840312156136a557600080fd5b60006117c28484613357565b6000602082840312156136c357600080fd5b60006117c2848461336f565b6000602082840312156136e157600080fd5b60006117c28484613363565b6000602082840312156136ff57600080fd5b60006117c28484613416565b61371481613b4c565b82525050565b61371481613b58565b61371481610b61565b61371481613b69565b61371481613b74565b600061374982613b48565b80845261375d816020860160208601613b8b565b61376681613bb7565b9093016020019392505050565b805160608301906137848482613723565b5060208201516137976020850182613723565b506040820151610d936040850182613723565b805160408301906137bb848261370b565b506020820151610d936020850182613723565b805160009060808401906137e2858261370b565b5060208301516137f56020860182613723565b5060408301516138086040860182613723565b50606083015184820360608601526138208282613829565b95945050505050565b8051604080845260009190840190613841828261373e565b91505060208301516138566020860182613723565b509392505050565b60208101610b96828461370b565b6040810161387a828561370b565b612c2a602083018461370b565b60408101613895828561370b565b81810360208301526117c2818461373e565b604081016138b5828561370b565b612c2a6020830184613723565b61010081016138d1828a61370b565b6138de6020830189613723565b6138eb6040830188613723565b6138f86060830187613723565b61390560808301866137aa565b61391260c0830185613723565b61391f60e083018461371a565b98975050505050505050565b610180810161393a828e61370b565b613947602083018d613723565b613954604083018c613723565b613961606083018b613723565b61396e608083018a6137aa565b61397b60c0830189613723565b61398860e083018861371a565b61399661010083018761370b565b6139a4610120830186613723565b6139b2610140830185613723565b8181036101608301526139c5818461373e565b9d9c50505050505050505050505050565b6101e081016139e5828f61370b565b6139f2602083018e613723565b6139ff604083018d613723565b613a0c606083018c613723565b613a19608083018b613723565b613a2660a083018a613735565b613a3360c0830189613773565b613a416101208301886137aa565b818103610160830152613a548187613829565b9050613a6461018083018661371a565b613a726101a083018561371a565b8181036101c0830152613a8581846137ce565b9e9d5050505050505050505050505050565b60208101610b96828461371a565b60208101610b968284613723565b60208101610b96828461372c565b60408101613acf828561372c565b612c2a602083018461372c565b60208101610b968284613735565b60208082528101612c2a818461373e565b6040518181016001604060020a0381118282101715613b1957600080fd5b604052919050565b60006001604060020a03821115613b3757600080fd5b506020601f91909101601f19160190565b5190565b600160a060020a031690565b151590565b60006002821061315c57fe5b6000610b9682613b4c565b6000610b9682613b5d565b82818337506000910152565b60005b83811015613ba6578181015183820152602001613b8e565b83811115610d935750506000910152565b601f01601f1916905600339eee9d150f0bc8955ebdbba0b1ba60f5882070d87f6c9c6d95b742a369534a79fdef6f6cf78a7287462299c9571d405670896215fe6a8577175cbceb3d95f9a265627a7a723058205b0d9c49185cc225ccfa9f534b400e91da1ae179d1b042693263d49910b242106c6578706572696d656e74616cf50037",
  "source": "/*\n * Hubii Nahmii\n *\n * Compliant with the Hubii Nahmii specification v0.12.\n *\n * Copyright (C) 2017-2018 Hubii AS\n */\n\npragma solidity ^0.4.25;\npragma experimental ABIEncoderV2;\n\nimport {Ownable} from \"./Ownable.sol\";\nimport {Servable} from \"./Servable.sol\";\nimport {Configurable} from \"./Configurable.sol\";\nimport {BalanceTrackable} from \"./BalanceTrackable.sol\";\nimport {SafeMathIntLib} from \"./SafeMathIntLib.sol\";\nimport {SafeMathUintLib} from \"./SafeMathUintLib.sol\";\nimport {MonetaryTypesLib} from \"./MonetaryTypesLib.sol\";\nimport {NahmiiTypesLib} from \"./NahmiiTypesLib.sol\";\nimport {SettlementChallengeTypesLib} from \"./SettlementChallengeTypesLib.sol\";\n\n/**\n * @title NullSettlementChallengeState\n * @notice Where null settlements challenge state is managed\n */\ncontract NullSettlementChallengeState is Ownable, Servable, Configurable, BalanceTrackable {\n    using SafeMathIntLib for int256;\n    using SafeMathUintLib for uint256;\n\n    //\n    // Constants\n    // -----------------------------------------------------------------------------------------------------------------\n    string constant public INITIATE_PROPOSAL_ACTION = \"initiate_proposal\";\n    string constant public TERMINATE_PROPOSAL_ACTION = \"terminate_proposal\";\n    string constant public REMOVE_PROPOSAL_ACTION = \"remove_proposal\";\n    string constant public DISQUALIFY_PROPOSAL_ACTION = \"disqualify_proposal\";\n\n    //\n    // Variables\n    // -----------------------------------------------------------------------------------------------------------------\n    SettlementChallengeTypesLib.Proposal[] public proposals;\n    mapping(address => mapping(address => mapping(uint256 => uint256))) public proposalIndexByWalletCurrency;\n\n    //\n    // Events\n    // -----------------------------------------------------------------------------------------------------------------\n    event InitiateProposalEvent(address wallet, uint256 nonce, int256 stageAmount, int256 targetBalanceAmount,\n        MonetaryTypesLib.Currency currency, uint256 blockNumber, bool walletInitiated);\n    event TerminateProposalEvent(address wallet, uint256 nonce, int256 stageAmount, int256 targetBalanceAmount,\n        MonetaryTypesLib.Currency currency, uint256 blockNumber, bool walletInitiated);\n    event RemoveProposalEvent(address wallet, uint256 nonce, int256 stageAmount, int256 targetBalanceAmount,\n        MonetaryTypesLib.Currency currency, uint256 blockNumber, bool walletInitiated);\n    event DisqualifyProposalEvent(address challengedWallet, uint256 challangedNonce, int256 stageAmount,\n        int256 targetBalanceAmount, MonetaryTypesLib.Currency currency, uint256 blockNumber, bool walletInitiated,\n        address challengerWallet, uint256 candidateNonce, bytes32 candidateHash, string candidateKind);\n\n    //\n    // Constructor\n    // -----------------------------------------------------------------------------------------------------------------\n    constructor(address deployer) Ownable(deployer) public {\n    }\n\n    //\n    // Functions\n    // -----------------------------------------------------------------------------------------------------------------\n    /// @notice Get the number of proposals\n    /// @return The number of proposals\n    function proposalsCount()\n    public\n    view\n    returns (uint256)\n    {\n        return proposals.length;\n    }\n\n    /// @notice Initiate a proposal\n    /// @param wallet The address of the concerned challenged wallet\n    /// @param nonce The wallet nonce\n    /// @param stageAmount The proposal stage amount\n    /// @param targetBalanceAmount The proposal target balance amount\n    /// @param currency The concerned currency\n    /// @param blockNumber The proposal block number\n    /// @param walletInitiated True if initiated by the concerned challenged wallet\n    function initiateProposal(address wallet, uint256 nonce, int256 stageAmount, int256 targetBalanceAmount,\n        MonetaryTypesLib.Currency currency, uint256 blockNumber, bool walletInitiated)\n    public\n    onlyEnabledServiceAction(INITIATE_PROPOSAL_ACTION)\n    {\n        // Initiate proposal\n        _initiateProposal(\n            wallet, nonce, stageAmount, targetBalanceAmount,\n            currency, blockNumber, walletInitiated\n        );\n\n        // Emit event\n        emit InitiateProposalEvent(\n            wallet, nonce, stageAmount, targetBalanceAmount, currency,\n            blockNumber, walletInitiated\n        );\n    }\n\n    /// @notice Terminate a proposal\n    /// @param wallet The address of the concerned challenged wallet\n    /// @param currency The concerned currency\n    function terminateProposal(address wallet, MonetaryTypesLib.Currency currency)\n    public\n    onlyEnabledServiceAction(TERMINATE_PROPOSAL_ACTION)\n    {\n        // Get the proposal index\n        uint256 index = proposalIndexByWalletCurrency[wallet][currency.ct][currency.id];\n\n        // Return gracefully if there is no proposal to terminate\n        if (0 == index)\n            return;\n\n        // Terminate proposal\n        proposals[index - 1].terminated = true;\n\n        // Emit event\n        emit TerminateProposalEvent(\n            wallet, proposals[index - 1].nonce, proposals[index - 1].amounts.stage,\n            proposals[index - 1].amounts.targetBalance, currency,\n            proposals[index - 1].referenceBlockNumber, proposals[index - 1].walletInitiated\n        );\n    }\n\n    /// @notice Terminate a proposal\n    /// @param wallet The address of the concerned challenged wallet\n    /// @param currency The concerned currency\n    /// @param walletTerminated True if wallet terminated\n    function terminateProposal(address wallet, MonetaryTypesLib.Currency currency, bool walletTerminated)\n    public\n    onlyEnabledServiceAction(TERMINATE_PROPOSAL_ACTION)\n    {\n        // Get the proposal index\n        uint256 index = proposalIndexByWalletCurrency[wallet][currency.ct][currency.id];\n\n        // Return gracefully if there is no proposal to terminate\n        if (0 == index)\n            return;\n\n        // Require that role that initialized (wallet or operator) can only cancel its own proposal\n        require(walletTerminated == proposals[index - 1].walletInitiated);\n\n        // Terminate proposal\n        proposals[index - 1].terminated = true;\n\n        // Emit event\n        emit TerminateProposalEvent(\n            wallet, proposals[index - 1].nonce, proposals[index - 1].amounts.stage,\n            proposals[index - 1].amounts.targetBalance, currency,\n            proposals[index - 1].referenceBlockNumber, proposals[index - 1].walletInitiated\n        );\n    }\n\n    /// @notice Remove a proposal\n    /// @param wallet The address of the concerned challenged wallet\n    /// @param currency The concerned currency\n    function removeProposal(address wallet, MonetaryTypesLib.Currency currency)\n    public\n    onlyEnabledServiceAction(REMOVE_PROPOSAL_ACTION)\n    {\n        // Get the proposal index\n        uint256 index = proposalIndexByWalletCurrency[wallet][currency.ct][currency.id];\n\n        // Return gracefully if there is no proposal to remove\n        if (0 == index)\n            return;\n\n        // Emit event\n        emit RemoveProposalEvent(\n            wallet, proposals[index - 1].nonce, proposals[index - 1].amounts.stage,\n            proposals[index - 1].amounts.targetBalance, currency,\n            proposals[index - 1].referenceBlockNumber, proposals[index - 1].walletInitiated\n        );\n\n        // Remove proposal\n        _removeProposal(index);\n    }\n\n    /// @notice Remove a proposal\n    /// @param wallet The address of the concerned challenged wallet\n    /// @param currency The concerned currency\n    /// @param walletTerminated True if wallet terminated\n    function removeProposal(address wallet, MonetaryTypesLib.Currency currency, bool walletTerminated)\n    public\n    onlyEnabledServiceAction(REMOVE_PROPOSAL_ACTION)\n    {\n        // Get the proposal index\n        uint256 index = proposalIndexByWalletCurrency[wallet][currency.ct][currency.id];\n\n        // Return gracefully if there is no proposal to remove\n        if (0 == index)\n            return;\n\n        // Require that role that initialized (wallet or operator) can only cancel its own proposal\n        require(walletTerminated == proposals[index - 1].walletInitiated);\n\n        // Emit event\n        emit RemoveProposalEvent(\n            wallet, proposals[index - 1].nonce, proposals[index - 1].amounts.stage,\n            proposals[index - 1].amounts.targetBalance, currency,\n            proposals[index - 1].referenceBlockNumber, proposals[index - 1].walletInitiated\n        );\n\n        // Remove proposal\n        _removeProposal(index);\n    }\n\n    /// @notice Disqualify a proposal\n    /// @dev A call to this function will intentionally override previous disqualifications if existent\n    /// @param challengedWallet The address of the concerned challenged wallet\n    /// @param currency The concerned currency\n    /// @param challengerWallet The address of the concerned challenger wallet\n    /// @param blockNumber The disqualification block number\n    /// @param candidateNonce The candidate nonce\n    /// @param candidateHash The candidate hash\n    /// @param candidateKind The candidate kind\n    function disqualifyProposal(address challengedWallet, MonetaryTypesLib.Currency currency, address challengerWallet,\n        uint256 blockNumber, uint256 candidateNonce, bytes32 candidateHash, string candidateKind)\n    public\n    onlyEnabledServiceAction(DISQUALIFY_PROPOSAL_ACTION)\n    {\n        // Get the proposal index\n        uint256 index = proposalIndexByWalletCurrency[challengedWallet][currency.ct][currency.id];\n        require(0 != index);\n\n        // Update proposal\n        proposals[index - 1].status = SettlementChallengeTypesLib.Status.Disqualified;\n        proposals[index - 1].expirationTime = block.timestamp.add(configuration.settlementChallengeTimeout());\n        proposals[index - 1].disqualification.challenger = challengerWallet;\n        proposals[index - 1].disqualification.nonce = candidateNonce;\n        proposals[index - 1].disqualification.blockNumber = blockNumber;\n        proposals[index - 1].disqualification.candidate.hash = candidateHash;\n        proposals[index - 1].disqualification.candidate.kind = candidateKind;\n\n        // Emit event\n        emit DisqualifyProposalEvent(\n            challengedWallet, proposals[index - 1].nonce, proposals[index - 1].amounts.stage,\n            proposals[index - 1].amounts.targetBalance, currency, proposals[index - 1].referenceBlockNumber,\n            proposals[index - 1].walletInitiated, challengerWallet, candidateNonce, candidateHash, candidateKind\n        );\n    }\n\n    /// @notice Gauge whether the proposal for the given wallet and currency has expired\n    /// @param wallet The address of the concerned wallet\n    /// @param currency The concerned currency\n    /// @return true if proposal has expired, else false\n    function hasProposal(address wallet, MonetaryTypesLib.Currency currency)\n    public\n    view\n    returns (bool)\n    {\n        // 1-based index\n        return 0 != proposalIndexByWalletCurrency[wallet][currency.ct][currency.id];\n    }\n\n    /// @notice Gauge whether the proposal for the given wallet and currency has terminated\n    /// @param wallet The address of the concerned wallet\n    /// @param currency The concerned currency\n    /// @return true if proposal has terminated, else false\n    function hasProposalTerminated(address wallet, MonetaryTypesLib.Currency currency)\n    public\n    view\n    returns (bool)\n    {\n        // 1-based index\n        uint256 index = proposalIndexByWalletCurrency[wallet][currency.ct][currency.id];\n        require(0 != index);\n        return proposals[index - 1].terminated;\n    }\n\n    /// @notice Gauge whether the proposal for the given wallet and currency has expired\n    /// @param wallet The address of the concerned wallet\n    /// @param currency The concerned currency\n    /// @return true if proposal has expired, else false\n    function hasProposalExpired(address wallet, MonetaryTypesLib.Currency currency)\n    public\n    view\n    returns (bool)\n    {\n        // 1-based index\n        uint256 index = proposalIndexByWalletCurrency[wallet][currency.ct][currency.id];\n        require(0 != index);\n        return block.timestamp >= proposals[index - 1].expirationTime;\n    }\n\n    /// @notice Get the settlement proposal challenge nonce of the given wallet and currency\n    /// @param wallet The address of the concerned wallet\n    /// @param currency The concerned currency\n    /// @return The settlement proposal nonce\n    function proposalNonce(address wallet, MonetaryTypesLib.Currency currency)\n    public\n    view\n    returns (uint256)\n    {\n        uint256 index = proposalIndexByWalletCurrency[wallet][currency.ct][currency.id];\n        require(0 != index);\n        return proposals[index - 1].nonce;\n    }\n\n    /// @notice Get the settlement proposal reference block number of the given wallet and currency\n    /// @param wallet The address of the concerned wallet\n    /// @param currency The concerned currency\n    /// @return The settlement proposal reference block number\n    function proposalReferenceBlockNumber(address wallet, MonetaryTypesLib.Currency currency)\n    public\n    view\n    returns (uint256)\n    {\n        uint256 index = proposalIndexByWalletCurrency[wallet][currency.ct][currency.id];\n        require(0 != index);\n        return proposals[index - 1].referenceBlockNumber;\n    }\n\n    /// @notice Get the settlement proposal definition block number of the given wallet and currency\n    /// @param wallet The address of the concerned wallet\n    /// @param currency The concerned currency\n    /// @return The settlement proposal reference block number\n    function proposalDefinitionBlockNumber(address wallet, MonetaryTypesLib.Currency currency)\n    public\n    view\n    returns (uint256)\n    {\n        uint256 index = proposalIndexByWalletCurrency[wallet][currency.ct][currency.id];\n        require(0 != index);\n        return proposals[index - 1].definitionBlockNumber;\n    }\n\n    /// @notice Get the settlement proposal expiration time of the given wallet and currency\n    /// @param wallet The address of the concerned wallet\n    /// @param currency The concerned currency\n    /// @return The settlement proposal expiration time\n    function proposalExpirationTime(address wallet, MonetaryTypesLib.Currency currency)\n    public\n    view\n    returns (uint256)\n    {\n        uint256 index = proposalIndexByWalletCurrency[wallet][currency.ct][currency.id];\n        require(0 != index);\n        return proposals[index - 1].expirationTime;\n    }\n\n    /// @notice Get the settlement proposal status of the given wallet and currency\n    /// @param wallet The address of the concerned wallet\n    /// @param currency The concerned currency\n    /// @return The settlement proposal status\n    function proposalStatus(address wallet, MonetaryTypesLib.Currency currency)\n    public\n    view\n    returns (SettlementChallengeTypesLib.Status)\n    {\n        uint256 index = proposalIndexByWalletCurrency[wallet][currency.ct][currency.id];\n        require(0 != index);\n        return proposals[index - 1].status;\n    }\n\n    /// @notice Get the settlement proposal stage amount of the given wallet and currency\n    /// @param wallet The address of the concerned wallet\n    /// @param currency The concerned currency\n    /// @return The settlement proposal stage amount\n    function proposalStageAmount(address wallet, MonetaryTypesLib.Currency currency)\n    public\n    view\n    returns (int256)\n    {\n        uint256 index = proposalIndexByWalletCurrency[wallet][currency.ct][currency.id];\n        require(0 != index);\n        return proposals[index - 1].amounts.stage;\n    }\n\n    /// @notice Get the settlement proposal target balance amount of the given wallet and currency\n    /// @param wallet The address of the concerned wallet\n    /// @param currency The concerned currency\n    /// @return The settlement proposal target balance amount\n    function proposalTargetBalanceAmount(address wallet, MonetaryTypesLib.Currency currency)\n    public\n    view\n    returns (int256)\n    {\n        uint256 index = proposalIndexByWalletCurrency[wallet][currency.ct][currency.id];\n        require(0 != index);\n        return proposals[index - 1].amounts.targetBalance;\n    }\n\n    /// @notice Get the settlement proposal balance reward of the given wallet and currency\n    /// @param wallet The address of the concerned wallet\n    /// @param currency The concerned currency\n    /// @return The settlement proposal balance reward\n    function proposalWalletInitiated(address wallet, MonetaryTypesLib.Currency currency)\n    public\n    view\n    returns (bool)\n    {\n        uint256 index = proposalIndexByWalletCurrency[wallet][currency.ct][currency.id];\n        require(0 != index);\n        return proposals[index - 1].walletInitiated;\n    }\n\n    /// @notice Get the settlement proposal disqualification challenger of the given wallet and currency\n    /// @param wallet The address of the concerned wallet\n    /// @param currency The concerned currency\n    /// @return The settlement proposal disqualification challenger\n    function proposalDisqualificationChallenger(address wallet, MonetaryTypesLib.Currency currency)\n    public\n    view\n    returns (address)\n    {\n        uint256 index = proposalIndexByWalletCurrency[wallet][currency.ct][currency.id];\n        require(0 != index);\n        return proposals[index - 1].disqualification.challenger;\n    }\n\n    /// @notice Get the settlement proposal disqualification block number of the given wallet and currency\n    /// @param wallet The address of the concerned wallet\n    /// @param currency The concerned currency\n    /// @return The settlement proposal disqualification block number\n    function proposalDisqualificationBlockNumber(address wallet, MonetaryTypesLib.Currency currency)\n    public\n    view\n    returns (uint256)\n    {\n        uint256 index = proposalIndexByWalletCurrency[wallet][currency.ct][currency.id];\n        require(0 != index);\n        return proposals[index - 1].disqualification.blockNumber;\n    }\n\n    /// @notice Get the settlement proposal disqualification nonce of the given wallet and currency\n    /// @param wallet The address of the concerned wallet\n    /// @param currency The concerned currency\n    /// @return The settlement proposal disqualification nonce\n    function proposalDisqualificationNonce(address wallet, MonetaryTypesLib.Currency currency)\n    public\n    view\n    returns (uint256)\n    {\n        uint256 index = proposalIndexByWalletCurrency[wallet][currency.ct][currency.id];\n        require(0 != index);\n        return proposals[index - 1].disqualification.nonce;\n    }\n\n    /// @notice Get the settlement proposal disqualification candidate hash of the given wallet and currency\n    /// @param wallet The address of the concerned wallet\n    /// @param currency The concerned currency\n    /// @return The settlement proposal disqualification candidate hash\n    function proposalDisqualificationCandidateHash(address wallet, MonetaryTypesLib.Currency currency)\n    public\n    view\n    returns (bytes32)\n    {\n        uint256 index = proposalIndexByWalletCurrency[wallet][currency.ct][currency.id];\n        require(0 != index);\n        return proposals[index - 1].disqualification.candidate.hash;\n    }\n\n    /// @notice Get the settlement proposal disqualification candidate kind of the given wallet and currency\n    /// @param wallet The address of the concerned wallet\n    /// @param currency The concerned currency\n    /// @return The settlement proposal disqualification candidate kind\n    function proposalDisqualificationCandidateKind(address wallet, MonetaryTypesLib.Currency currency)\n    public\n    view\n    returns (string)\n    {\n        uint256 index = proposalIndexByWalletCurrency[wallet][currency.ct][currency.id];\n        require(0 != index);\n        return proposals[index - 1].disqualification.candidate.kind;\n    }\n\n    //\n    // Private functions\n    // -----------------------------------------------------------------------------------------------------------------\n    function _initiateProposal(address wallet, uint256 nonce, int256 stageAmount, int256 targetBalanceAmount,\n        MonetaryTypesLib.Currency currency, uint256 referenceBlockNumber, bool walletInitiated)\n    private\n    {\n        // Require that stage and target balance amounts are positive\n        require(stageAmount.isPositiveInt256());\n        require(targetBalanceAmount.isPositiveInt256());\n\n        uint256 index = proposalIndexByWalletCurrency[wallet][currency.ct][currency.id];\n\n        // Create proposal if needed\n        if (0 == index) {\n            index = ++(proposals.length);\n            proposalIndexByWalletCurrency[wallet][currency.ct][currency.id] = index;\n        }\n\n        // Populate proposal\n        proposals[index - 1].wallet = wallet;\n        proposals[index - 1].nonce = nonce;\n        proposals[index - 1].referenceBlockNumber = referenceBlockNumber;\n        proposals[index - 1].definitionBlockNumber = block.number;\n        proposals[index - 1].expirationTime = block.timestamp.add(configuration.settlementChallengeTimeout());\n        proposals[index - 1].status = SettlementChallengeTypesLib.Status.Qualified;\n        proposals[index - 1].currency = currency;\n        proposals[index - 1].amounts.stage = stageAmount;\n        proposals[index - 1].amounts.targetBalance = targetBalanceAmount;\n        proposals[index - 1].walletInitiated = walletInitiated;\n        proposals[index - 1].terminated = false;\n    }\n\n    function _removeProposal(uint256 index)\n    private\n    returns (bool)\n    {\n        // Remove the proposal and clear references to it\n        proposalIndexByWalletCurrency[proposals[index - 1].wallet][proposals[index - 1].currency.ct][proposals[index - 1].currency.id] = 0;\n        if (index < proposals.length) {\n            proposals[index - 1] = proposals[proposals.length - 1];\n            proposalIndexByWalletCurrency[proposals[index - 1].wallet][proposals[index - 1].currency.ct][proposals[index - 1].currency.id] = index;\n        }\n        proposals.length--;\n    }\n\n    function _activeBalanceLogEntry(address wallet, address currencyCt, uint256 currencyId)\n    private\n    view\n    returns (int256 amount, uint256 blockNumber)\n    {\n        // Get last log record of deposited and settled balances\n        (int256 depositedAmount, uint256 depositedBlockNumber) = balanceTracker.lastFungibleRecord(\n            wallet, balanceTracker.depositedBalanceType(), currencyCt, currencyId\n        );\n        (int256 settledAmount, uint256 settledBlockNumber) = balanceTracker.lastFungibleRecord(\n            wallet, balanceTracker.settledBalanceType(), currencyCt, currencyId\n        );\n\n        // Set amount as the sum of deposited and settled\n        amount = depositedAmount.add(settledAmount);\n\n        // Set block number as the latest of deposited and settled\n        blockNumber = depositedBlockNumber > settledBlockNumber ? depositedBlockNumber : settledBlockNumber;\n    }\n}\n",
  "sourcePath": "/opt/buildagent/work/855e104608380c36/contracts/NullSettlementChallengeState.sol",
  "compiler": {
    "name": "solc",
    "version": "0.4.25+commit.59dbf8f1.Emscripten.clang"
  },
  "schemaVersion": "2.0.2",
  "updatedAt": "2019-04-18T00:23:49.793Z"
}