{
  "contractName": "NullSettlementChallengeByPayment",
  "abi": [
    {
      "constant": true,
      "inputs": [],
      "name": "balanceTracker",
      "outputs": [
        {
          "name": "",
          "type": "address"
        }
      ],
      "payable": false,
      "stateMutability": "view",
      "type": "function"
    },
    {
      "constant": true,
      "inputs": [],
      "name": "walletLockerFrozen",
      "outputs": [
        {
          "name": "",
          "type": "bool"
        }
      ],
      "payable": false,
      "stateMutability": "view",
      "type": "function"
    },
    {
      "constant": false,
      "inputs": [],
      "name": "triggerSelfDestruction",
      "outputs": [],
      "payable": false,
      "stateMutability": "nonpayable",
      "type": "function"
    },
    {
      "constant": true,
      "inputs": [],
      "name": "selfDestructionDisabled",
      "outputs": [
        {
          "name": "",
          "type": "bool"
        }
      ],
      "payable": false,
      "stateMutability": "view",
      "type": "function"
    },
    {
      "constant": true,
      "inputs": [],
      "name": "balanceTrackerFrozen",
      "outputs": [
        {
          "name": "",
          "type": "bool"
        }
      ],
      "payable": false,
      "stateMutability": "view",
      "type": "function"
    },
    {
      "constant": true,
      "inputs": [],
      "name": "nullSettlementDisputeByPayment",
      "outputs": [
        {
          "name": "",
          "type": "address"
        }
      ],
      "payable": false,
      "stateMutability": "view",
      "type": "function"
    },
    {
      "constant": true,
      "inputs": [],
      "name": "destructor",
      "outputs": [
        {
          "name": "",
          "type": "address"
        }
      ],
      "payable": false,
      "stateMutability": "view",
      "type": "function"
    },
    {
      "constant": true,
      "inputs": [],
      "name": "driipSettlementChallengeState",
      "outputs": [
        {
          "name": "",
          "type": "address"
        }
      ],
      "payable": false,
      "stateMutability": "view",
      "type": "function"
    },
    {
      "constant": true,
      "inputs": [],
      "name": "operator",
      "outputs": [
        {
          "name": "",
          "type": "address"
        }
      ],
      "payable": false,
      "stateMutability": "view",
      "type": "function"
    },
    {
      "constant": false,
      "inputs": [
        {
          "name": "newBalanceTracker",
          "type": "address"
        }
      ],
      "name": "setBalanceTracker",
      "outputs": [],
      "payable": false,
      "stateMutability": "nonpayable",
      "type": "function"
    },
    {
      "constant": false,
      "inputs": [],
      "name": "freezeWalletLocker",
      "outputs": [],
      "payable": false,
      "stateMutability": "nonpayable",
      "type": "function"
    },
    {
      "constant": false,
      "inputs": [
        {
          "name": "newConfiguration",
          "type": "address"
        }
      ],
      "name": "setConfiguration",
      "outputs": [],
      "payable": false,
      "stateMutability": "nonpayable",
      "type": "function"
    },
    {
      "constant": true,
      "inputs": [],
      "name": "configuration",
      "outputs": [
        {
          "name": "",
          "type": "address"
        }
      ],
      "payable": false,
      "stateMutability": "view",
      "type": "function"
    },
    {
      "constant": false,
      "inputs": [],
      "name": "disableSelfDestruction",
      "outputs": [],
      "payable": false,
      "stateMutability": "nonpayable",
      "type": "function"
    },
    {
      "constant": false,
      "inputs": [
        {
          "name": "newWalletLocker",
          "type": "address"
        }
      ],
      "name": "setWalletLocker",
      "outputs": [],
      "payable": false,
      "stateMutability": "nonpayable",
      "type": "function"
    },
    {
      "constant": false,
      "inputs": [
        {
          "name": "newDeployer",
          "type": "address"
        }
      ],
      "name": "setDeployer",
      "outputs": [],
      "payable": false,
      "stateMutability": "nonpayable",
      "type": "function"
    },
    {
      "constant": false,
      "inputs": [
        {
          "name": "newOperator",
          "type": "address"
        }
      ],
      "name": "setOperator",
      "outputs": [],
      "payable": false,
      "stateMutability": "nonpayable",
      "type": "function"
    },
    {
      "constant": false,
      "inputs": [],
      "name": "freezeBalanceTracker",
      "outputs": [],
      "payable": false,
      "stateMutability": "nonpayable",
      "type": "function"
    },
    {
      "constant": true,
      "inputs": [],
      "name": "deployer",
      "outputs": [
        {
          "name": "",
          "type": "address"
        }
      ],
      "payable": false,
      "stateMutability": "view",
      "type": "function"
    },
    {
      "constant": true,
      "inputs": [],
      "name": "walletLocker",
      "outputs": [
        {
          "name": "",
          "type": "address"
        }
      ],
      "payable": false,
      "stateMutability": "view",
      "type": "function"
    },
    {
      "constant": true,
      "inputs": [],
      "name": "nullSettlementChallengeState",
      "outputs": [
        {
          "name": "",
          "type": "address"
        }
      ],
      "payable": false,
      "stateMutability": "view",
      "type": "function"
    },
    {
      "inputs": [
        {
          "name": "deployer",
          "type": "address"
        }
      ],
      "payable": false,
      "stateMutability": "nonpayable",
      "type": "constructor"
    },
    {
      "anonymous": false,
      "inputs": [
        {
          "indexed": false,
          "name": "oldNullSettlementDisputeByPayment",
          "type": "address"
        },
        {
          "indexed": false,
          "name": "newNullSettlementDisputeByPayment",
          "type": "address"
        }
      ],
      "name": "SetNullSettlementDisputeByPaymentEvent",
      "type": "event"
    },
    {
      "anonymous": false,
      "inputs": [
        {
          "indexed": false,
          "name": "oldNullSettlementChallengeState",
          "type": "address"
        },
        {
          "indexed": false,
          "name": "newNullSettlementChallengeState",
          "type": "address"
        }
      ],
      "name": "SetNullSettlementChallengeStateEvent",
      "type": "event"
    },
    {
      "anonymous": false,
      "inputs": [
        {
          "indexed": false,
          "name": "oldDriipSettlementChallengeState",
          "type": "address"
        },
        {
          "indexed": false,
          "name": "newDriipSettlementChallengeState",
          "type": "address"
        }
      ],
      "name": "SetDriipSettlementChallengeStateEvent",
      "type": "event"
    },
    {
      "anonymous": false,
      "inputs": [
        {
          "indexed": false,
          "name": "wallet",
          "type": "address"
        },
        {
          "indexed": false,
          "name": "nonce",
          "type": "uint256"
        },
        {
          "indexed": false,
          "name": "stageAmount",
          "type": "int256"
        },
        {
          "indexed": false,
          "name": "targetBalanceAmount",
          "type": "int256"
        },
        {
          "indexed": false,
          "name": "currencyCt",
          "type": "address"
        },
        {
          "indexed": false,
          "name": "currencyId",
          "type": "uint256"
        }
      ],
      "name": "StartChallengeEvent",
      "type": "event"
    },
    {
      "anonymous": false,
      "inputs": [
        {
          "indexed": false,
          "name": "wallet",
          "type": "address"
        },
        {
          "indexed": false,
          "name": "nonce",
          "type": "uint256"
        },
        {
          "indexed": false,
          "name": "stageAmount",
          "type": "int256"
        },
        {
          "indexed": false,
          "name": "targetBalanceAmount",
          "type": "int256"
        },
        {
          "indexed": false,
          "name": "currencyCt",
          "type": "address"
        },
        {
          "indexed": false,
          "name": "currencyId",
          "type": "uint256"
        },
        {
          "indexed": false,
          "name": "proxy",
          "type": "address"
        }
      ],
      "name": "StartChallengeByProxyEvent",
      "type": "event"
    },
    {
      "anonymous": false,
      "inputs": [
        {
          "indexed": false,
          "name": "wallet",
          "type": "address"
        },
        {
          "indexed": false,
          "name": "nonce",
          "type": "uint256"
        },
        {
          "indexed": false,
          "name": "stageAmount",
          "type": "int256"
        },
        {
          "indexed": false,
          "name": "targetBalanceAmount",
          "type": "int256"
        },
        {
          "indexed": false,
          "name": "currencyCt",
          "type": "address"
        },
        {
          "indexed": false,
          "name": "currencyId",
          "type": "uint256"
        }
      ],
      "name": "StopChallengeEvent",
      "type": "event"
    },
    {
      "anonymous": false,
      "inputs": [
        {
          "indexed": false,
          "name": "wallet",
          "type": "address"
        },
        {
          "indexed": false,
          "name": "nonce",
          "type": "uint256"
        },
        {
          "indexed": false,
          "name": "stageAmount",
          "type": "int256"
        },
        {
          "indexed": false,
          "name": "targetBalanceAmount",
          "type": "int256"
        },
        {
          "indexed": false,
          "name": "currencyCt",
          "type": "address"
        },
        {
          "indexed": false,
          "name": "currencyId",
          "type": "uint256"
        },
        {
          "indexed": false,
          "name": "proxy",
          "type": "address"
        }
      ],
      "name": "StopChallengeByProxyEvent",
      "type": "event"
    },
    {
      "anonymous": false,
      "inputs": [
        {
          "indexed": false,
          "name": "challengedWallet",
          "type": "address"
        },
        {
          "indexed": false,
          "name": "nonce",
          "type": "uint256"
        },
        {
          "indexed": false,
          "name": "stageAmount",
          "type": "int256"
        },
        {
          "indexed": false,
          "name": "targetBalanceAmount",
          "type": "int256"
        },
        {
          "indexed": false,
          "name": "currencyCt",
          "type": "address"
        },
        {
          "indexed": false,
          "name": "currencyId",
          "type": "uint256"
        },
        {
          "indexed": false,
          "name": "challengerWallet",
          "type": "address"
        }
      ],
      "name": "ChallengeByPaymentEvent",
      "type": "event"
    },
    {
      "anonymous": false,
      "inputs": [
        {
          "indexed": false,
          "name": "oldWalletLocker",
          "type": "address"
        },
        {
          "indexed": false,
          "name": "newWalletLocker",
          "type": "address"
        }
      ],
      "name": "SetWalletLockerEvent",
      "type": "event"
    },
    {
      "anonymous": false,
      "inputs": [],
      "name": "FreezeWalletLockerEvent",
      "type": "event"
    },
    {
      "anonymous": false,
      "inputs": [
        {
          "indexed": false,
          "name": "oldBalanceTracker",
          "type": "address"
        },
        {
          "indexed": false,
          "name": "newBalanceTracker",
          "type": "address"
        }
      ],
      "name": "SetBalanceTrackerEvent",
      "type": "event"
    },
    {
      "anonymous": false,
      "inputs": [],
      "name": "FreezeBalanceTrackerEvent",
      "type": "event"
    },
    {
      "anonymous": false,
      "inputs": [
        {
          "indexed": false,
          "name": "oldConfiguration",
          "type": "address"
        },
        {
          "indexed": false,
          "name": "newConfiguration",
          "type": "address"
        }
      ],
      "name": "SetConfigurationEvent",
      "type": "event"
    },
    {
      "anonymous": false,
      "inputs": [
        {
          "indexed": false,
          "name": "oldDeployer",
          "type": "address"
        },
        {
          "indexed": false,
          "name": "newDeployer",
          "type": "address"
        }
      ],
      "name": "SetDeployerEvent",
      "type": "event"
    },
    {
      "anonymous": false,
      "inputs": [
        {
          "indexed": false,
          "name": "oldOperator",
          "type": "address"
        },
        {
          "indexed": false,
          "name": "newOperator",
          "type": "address"
        }
      ],
      "name": "SetOperatorEvent",
      "type": "event"
    },
    {
      "anonymous": false,
      "inputs": [
        {
          "indexed": false,
          "name": "wallet",
          "type": "address"
        }
      ],
      "name": "SelfDestructionDisabledEvent",
      "type": "event"
    },
    {
      "anonymous": false,
      "inputs": [
        {
          "indexed": false,
          "name": "wallet",
          "type": "address"
        }
      ],
      "name": "TriggerSelfDestructionEvent",
      "type": "event"
    },
    {
      "constant": false,
      "inputs": [
        {
          "name": "newNullSettlementDisputeByPayment",
          "type": "address"
        }
      ],
      "name": "setNullSettlementDisputeByPayment",
      "outputs": [],
      "payable": false,
      "stateMutability": "nonpayable",
      "type": "function"
    },
    {
      "constant": false,
      "inputs": [
        {
          "name": "newNullSettlementChallengeState",
          "type": "address"
        }
      ],
      "name": "setNullSettlementChallengeState",
      "outputs": [],
      "payable": false,
      "stateMutability": "nonpayable",
      "type": "function"
    },
    {
      "constant": false,
      "inputs": [
        {
          "name": "newDriipSettlementChallengeState",
          "type": "address"
        }
      ],
      "name": "setDriipSettlementChallengeState",
      "outputs": [],
      "payable": false,
      "stateMutability": "nonpayable",
      "type": "function"
    },
    {
      "constant": false,
      "inputs": [
        {
          "name": "amount",
          "type": "int256"
        },
        {
          "name": "currencyCt",
          "type": "address"
        },
        {
          "name": "currencyId",
          "type": "uint256"
        }
      ],
      "name": "startChallenge",
      "outputs": [],
      "payable": false,
      "stateMutability": "nonpayable",
      "type": "function"
    },
    {
      "constant": false,
      "inputs": [
        {
          "name": "wallet",
          "type": "address"
        },
        {
          "name": "amount",
          "type": "int256"
        },
        {
          "name": "currencyCt",
          "type": "address"
        },
        {
          "name": "currencyId",
          "type": "uint256"
        }
      ],
      "name": "startChallengeByProxy",
      "outputs": [],
      "payable": false,
      "stateMutability": "nonpayable",
      "type": "function"
    },
    {
      "constant": false,
      "inputs": [
        {
          "name": "currencyCt",
          "type": "address"
        },
        {
          "name": "currencyId",
          "type": "uint256"
        }
      ],
      "name": "stopChallenge",
      "outputs": [],
      "payable": false,
      "stateMutability": "nonpayable",
      "type": "function"
    },
    {
      "constant": false,
      "inputs": [
        {
          "name": "wallet",
          "type": "address"
        },
        {
          "name": "currencyCt",
          "type": "address"
        },
        {
          "name": "currencyId",
          "type": "uint256"
        }
      ],
      "name": "stopChallengeByProxy",
      "outputs": [],
      "payable": false,
      "stateMutability": "nonpayable",
      "type": "function"
    },
    {
      "constant": true,
      "inputs": [
        {
          "name": "wallet",
          "type": "address"
        },
        {
          "name": "currencyCt",
          "type": "address"
        },
        {
          "name": "currencyId",
          "type": "uint256"
        }
      ],
      "name": "hasProposal",
      "outputs": [
        {
          "name": "",
          "type": "bool"
        }
      ],
      "payable": false,
      "stateMutability": "view",
      "type": "function"
    },
    {
      "constant": true,
      "inputs": [
        {
          "name": "wallet",
          "type": "address"
        },
        {
          "name": "currencyCt",
          "type": "address"
        },
        {
          "name": "currencyId",
          "type": "uint256"
        }
      ],
      "name": "hasProposalTerminated",
      "outputs": [
        {
          "name": "",
          "type": "bool"
        }
      ],
      "payable": false,
      "stateMutability": "view",
      "type": "function"
    },
    {
      "constant": true,
      "inputs": [
        {
          "name": "wallet",
          "type": "address"
        },
        {
          "name": "currencyCt",
          "type": "address"
        },
        {
          "name": "currencyId",
          "type": "uint256"
        }
      ],
      "name": "hasProposalExpired",
      "outputs": [
        {
          "name": "",
          "type": "bool"
        }
      ],
      "payable": false,
      "stateMutability": "view",
      "type": "function"
    },
    {
      "constant": true,
      "inputs": [
        {
          "name": "wallet",
          "type": "address"
        },
        {
          "name": "currencyCt",
          "type": "address"
        },
        {
          "name": "currencyId",
          "type": "uint256"
        }
      ],
      "name": "proposalNonce",
      "outputs": [
        {
          "name": "",
          "type": "uint256"
        }
      ],
      "payable": false,
      "stateMutability": "view",
      "type": "function"
    },
    {
      "constant": true,
      "inputs": [
        {
          "name": "wallet",
          "type": "address"
        },
        {
          "name": "currencyCt",
          "type": "address"
        },
        {
          "name": "currencyId",
          "type": "uint256"
        }
      ],
      "name": "proposalReferenceBlockNumber",
      "outputs": [
        {
          "name": "",
          "type": "uint256"
        }
      ],
      "payable": false,
      "stateMutability": "view",
      "type": "function"
    },
    {
      "constant": true,
      "inputs": [
        {
          "name": "wallet",
          "type": "address"
        },
        {
          "name": "currencyCt",
          "type": "address"
        },
        {
          "name": "currencyId",
          "type": "uint256"
        }
      ],
      "name": "proposalExpirationTime",
      "outputs": [
        {
          "name": "",
          "type": "uint256"
        }
      ],
      "payable": false,
      "stateMutability": "view",
      "type": "function"
    },
    {
      "constant": true,
      "inputs": [
        {
          "name": "wallet",
          "type": "address"
        },
        {
          "name": "currencyCt",
          "type": "address"
        },
        {
          "name": "currencyId",
          "type": "uint256"
        }
      ],
      "name": "proposalStatus",
      "outputs": [
        {
          "name": "",
          "type": "uint8"
        }
      ],
      "payable": false,
      "stateMutability": "view",
      "type": "function"
    },
    {
      "constant": true,
      "inputs": [
        {
          "name": "wallet",
          "type": "address"
        },
        {
          "name": "currencyCt",
          "type": "address"
        },
        {
          "name": "currencyId",
          "type": "uint256"
        }
      ],
      "name": "proposalStageAmount",
      "outputs": [
        {
          "name": "",
          "type": "int256"
        }
      ],
      "payable": false,
      "stateMutability": "view",
      "type": "function"
    },
    {
      "constant": true,
      "inputs": [
        {
          "name": "wallet",
          "type": "address"
        },
        {
          "name": "currencyCt",
          "type": "address"
        },
        {
          "name": "currencyId",
          "type": "uint256"
        }
      ],
      "name": "proposalTargetBalanceAmount",
      "outputs": [
        {
          "name": "",
          "type": "int256"
        }
      ],
      "payable": false,
      "stateMutability": "view",
      "type": "function"
    },
    {
      "constant": true,
      "inputs": [
        {
          "name": "wallet",
          "type": "address"
        },
        {
          "name": "currencyCt",
          "type": "address"
        },
        {
          "name": "currencyId",
          "type": "uint256"
        }
      ],
      "name": "proposalWalletInitiated",
      "outputs": [
        {
          "name": "",
          "type": "bool"
        }
      ],
      "payable": false,
      "stateMutability": "view",
      "type": "function"
    },
    {
      "constant": true,
      "inputs": [
        {
          "name": "wallet",
          "type": "address"
        },
        {
          "name": "currencyCt",
          "type": "address"
        },
        {
          "name": "currencyId",
          "type": "uint256"
        }
      ],
      "name": "proposalDisqualificationChallenger",
      "outputs": [
        {
          "name": "",
          "type": "address"
        }
      ],
      "payable": false,
      "stateMutability": "view",
      "type": "function"
    },
    {
      "constant": true,
      "inputs": [
        {
          "name": "wallet",
          "type": "address"
        },
        {
          "name": "currencyCt",
          "type": "address"
        },
        {
          "name": "currencyId",
          "type": "uint256"
        }
      ],
      "name": "proposalDisqualificationBlockNumber",
      "outputs": [
        {
          "name": "",
          "type": "uint256"
        }
      ],
      "payable": false,
      "stateMutability": "view",
      "type": "function"
    },
    {
      "constant": true,
      "inputs": [
        {
          "name": "wallet",
          "type": "address"
        },
        {
          "name": "currencyCt",
          "type": "address"
        },
        {
          "name": "currencyId",
          "type": "uint256"
        }
      ],
      "name": "proposalDisqualificationCandidateKind",
      "outputs": [
        {
          "name": "",
          "type": "string"
        }
      ],
      "payable": false,
      "stateMutability": "view",
      "type": "function"
    },
    {
      "constant": true,
      "inputs": [
        {
          "name": "wallet",
          "type": "address"
        },
        {
          "name": "currencyCt",
          "type": "address"
        },
        {
          "name": "currencyId",
          "type": "uint256"
        }
      ],
      "name": "proposalDisqualificationCandidateHash",
      "outputs": [
        {
          "name": "",
          "type": "bytes32"
        }
      ],
      "payable": false,
      "stateMutability": "view",
      "type": "function"
    },
    {
      "constant": false,
      "inputs": [
        {
          "name": "wallet",
          "type": "address"
        },
        {
          "components": [
            {
              "name": "nonce",
              "type": "uint256"
            },
            {
              "name": "amount",
              "type": "int256"
            },
            {
              "components": [
                {
                  "name": "ct",
                  "type": "address"
                },
                {
                  "name": "id",
                  "type": "uint256"
                }
              ],
              "name": "currency",
              "type": "tuple"
            },
            {
              "components": [
                {
                  "name": "nonce",
                  "type": "uint256"
                },
                {
                  "name": "wallet",
                  "type": "address"
                },
                {
                  "components": [
                    {
                      "name": "current",
                      "type": "int256"
                    },
                    {
                      "name": "previous",
                      "type": "int256"
                    }
                  ],
                  "name": "balances",
                  "type": "tuple"
                },
                {
                  "components": [
                    {
                      "components": [
                        {
                          "name": "amount",
                          "type": "int256"
                        },
                        {
                          "components": [
                            {
                              "name": "ct",
                              "type": "address"
                            },
                            {
                              "name": "id",
                              "type": "uint256"
                            }
                          ],
                          "name": "currency",
                          "type": "tuple"
                        }
                      ],
                      "name": "single",
                      "type": "tuple"
                    },
                    {
                      "components": [
                        {
                          "name": "originId",
                          "type": "uint256"
                        },
                        {
                          "components": [
                            {
                              "name": "amount",
                              "type": "int256"
                            },
                            {
                              "components": [
                                {
                                  "name": "ct",
                                  "type": "address"
                                },
                                {
                                  "name": "id",
                                  "type": "uint256"
                                }
                              ],
                              "name": "currency",
                              "type": "tuple"
                            }
                          ],
                          "name": "figure",
                          "type": "tuple"
                        }
                      ],
                      "name": "total",
                      "type": "tuple[]"
                    }
                  ],
                  "name": "fees",
                  "type": "tuple"
                }
              ],
              "name": "sender",
              "type": "tuple"
            },
            {
              "components": [
                {
                  "name": "nonce",
                  "type": "uint256"
                },
                {
                  "name": "wallet",
                  "type": "address"
                },
                {
                  "components": [
                    {
                      "name": "current",
                      "type": "int256"
                    },
                    {
                      "name": "previous",
                      "type": "int256"
                    }
                  ],
                  "name": "balances",
                  "type": "tuple"
                },
                {
                  "components": [
                    {
                      "components": [
                        {
                          "name": "originId",
                          "type": "uint256"
                        },
                        {
                          "components": [
                            {
                              "name": "amount",
                              "type": "int256"
                            },
                            {
                              "components": [
                                {
                                  "name": "ct",
                                  "type": "address"
                                },
                                {
                                  "name": "id",
                                  "type": "uint256"
                                }
                              ],
                              "name": "currency",
                              "type": "tuple"
                            }
                          ],
                          "name": "figure",
                          "type": "tuple"
                        }
                      ],
                      "name": "total",
                      "type": "tuple[]"
                    }
                  ],
                  "name": "fees",
                  "type": "tuple"
                }
              ],
              "name": "recipient",
              "type": "tuple"
            },
            {
              "components": [
                {
                  "name": "single",
                  "type": "int256"
                },
                {
                  "name": "total",
                  "type": "int256"
                }
              ],
              "name": "transfers",
              "type": "tuple"
            },
            {
              "components": [
                {
                  "components": [
                    {
                      "name": "hash",
                      "type": "bytes32"
                    },
                    {
                      "components": [
                        {
                          "name": "r",
                          "type": "bytes32"
                        },
                        {
                          "name": "s",
                          "type": "bytes32"
                        },
                        {
                          "name": "v",
                          "type": "uint8"
                        }
                      ],
                      "name": "signature",
                      "type": "tuple"
                    }
                  ],
                  "name": "wallet",
                  "type": "tuple"
                },
                {
                  "components": [
                    {
                      "name": "hash",
                      "type": "bytes32"
                    },
                    {
                      "components": [
                        {
                          "name": "r",
                          "type": "bytes32"
                        },
                        {
                          "name": "s",
                          "type": "bytes32"
                        },
                        {
                          "name": "v",
                          "type": "uint8"
                        }
                      ],
                      "name": "signature",
                      "type": "tuple"
                    }
                  ],
                  "name": "operator",
                  "type": "tuple"
                }
              ],
              "name": "seals",
              "type": "tuple"
            },
            {
              "name": "blockNumber",
              "type": "uint256"
            },
            {
              "name": "operatorId",
              "type": "uint256"
            }
          ],
          "name": "payment",
          "type": "tuple"
        }
      ],
      "name": "challengeByPayment",
      "outputs": [],
      "payable": false,
      "stateMutability": "nonpayable",
      "type": "function"
    }
  ],
  "bytecode": "0x60806040523480156200001157600080fd5b5060405160208062003acd8339810180604052620000339190810190620000b6565b8080600160a060020a03811615156200004b57600080fd5b600160a060020a0381163014156200006257600080fd5b506000805461010060a860020a031916610100600160a060020a039390931692830217905560018054600160a060020a031916909117905550620000eb565b6000620000af8251620000df565b9392505050565b600060208284031215620000c957600080fd5b6000620000d78484620000a1565b949350505050565b600160a060020a031690565b6139d280620000fb6000396000f3006080604052600436106101f55763ffffffff60e060020a6000350416630712abb081146101fa5780631698792914610230578063191390921461025d578063240625d81461027f5780632738a112146102a15780632aa1c9d9146102b85780632f013a00146102d85780633a9a5169146102ed5780633bebdcb51461030d5780633e59b7061461032d57806342cb458714610342578063432737a9146103625780634476d23b1461037757806346d1d3c41461039957806351d7cd61146103b9578063570ca735146103ce578063598b75ad146103e35780635dc60def14610403578063627f09c3146104185780636c70bee9146104385780636ccb43c81461044d5780636de6a5d21461046d57806370327ea11461048d5780637da5b11c146104a2578063892860b2146104c257806396214735146104e2578063972fcee014610502578063adfb677814610522578063b3ab15fb14610542578063b52d470a14610562578063bb9357de14610577578063c19df1e414610597578063c1c68165146105b7578063ca7f47ed146105d7578063cdbf941914610604578063d5b68c6214610624578063d5f3948814610644578063e8ae41e314610659578063ed8a829d1461066e578063f7b876171461068e578063fa7424f2146106ae578063fb1a825e146106c3578063fcd30b02146106e3575b600080fd5b34801561020657600080fd5b5061021a610215366004613084565b610703565b6040516102279190613862565b60405180910390f35b34801561023c57600080fd5b5061025061024b366004613084565b6107ab565b604051610227919061382b565b34801561026957600080fd5b50610272610849565b6040516102279190613839565b34801561028b57600080fd5b50610294610858565b604051610227919061381d565b3480156102ad57600080fd5b506102b6610868565b005b3480156102c457600080fd5b506102b66102d33660046131ef565b6108ce565b3480156102e457600080fd5b5061029461095f565b3480156102f957600080fd5b506102b66103083660046131ef565b610968565b34801561031957600080fd5b50610294610328366004613084565b6109ec565b34801561033957600080fd5b50610294610a8a565b34801561034e57600080fd5b5061025061035d366004613084565b610a9a565b34801561036e57600080fd5b50610272610ae6565b34801561038357600080fd5b5061038c610af5565b604051610227919061362e565b3480156103a557600080fd5b506102946103b4366004613084565b610b09565b3480156103c557600080fd5b50610272610b55565b3480156103da57600080fd5b5061038c610b64565b3480156103ef57600080fd5b506102b66103fe3660046131ef565b610b73565b34801561040f57600080fd5b506102b6610c32565b34801561042457600080fd5b506102b66104333660046131ef565b610c86565b34801561044457600080fd5b50610272610d1e565b34801561045957600080fd5b506102b66104683660046131ef565b610d2d565b34801561047957600080fd5b50610250610488366004613084565b610db1565b34801561049957600080fd5b506102b6610dfd565b3480156104ae57600080fd5b506102946104bd366004613084565b610e60565b3480156104ce57600080fd5b506102b66104dd3660046131ef565b610eac565b3480156104ee57600080fd5b506102b66104fd366004613040565b610f5b565b34801561050e57600080fd5b506102b661051d366004613084565b611019565b34801561052e57600080fd5b5061025061053d366004613084565b61123b565b34801561054e57600080fd5b506102b661055d366004613040565b611287565b34801561056e57600080fd5b506102b6611331565b34801561058357600080fd5b50610294610592366004613084565b611385565b3480156105a357600080fd5b506102b66105b2366004613183565b6113d1565b3480156105c357600080fd5b506102b66105d236600461322b565b6115d0565b3480156105e357600080fd5b506105f76105f2366004613084565b6117d7565b6040516102279190613870565b34801561061057600080fd5b5061025061061f366004613084565b611879565b34801561063057600080fd5b5061025061063f366004613084565b6118c5565b34801561065057600080fd5b5061038c611911565b34801561066557600080fd5b50610272611925565b34801561067a57600080fd5b506102b6610689366004613132565b611934565b34801561069a57600080fd5b506102b66106a93660046130d1565b611c24565b3480156106ba57600080fd5b50610272611db2565b3480156106cf57600080fd5b506102506106de366004613084565b611dc1565b3480156106ef57600080fd5b5061038c6106fe366004613084565b611e0d565b600654604080518082018252600160a060020a03858116825260208201859052915160e060020a63b6e2fc33028152600093929092169163b6e2fc339161074f9188919060040161368c565b602060405180830381600087803b15801561076957600080fd5b505af115801561077d573d6000803e3d6000fd5b505050506040513d601f19601f820116820180604052506107a1919081019061320d565b90505b9392505050565b600654604080518082018252600160a060020a03858116825260208201859052915160e060020a63c46fcd75028152600093929092169163c46fcd75916107f79188919060040161368c565b602060405180830381600087803b15801561081157600080fd5b505af1158015610825573d6000803e3d6000fd5b505050506040513d601f19601f820116820180604052506107a191908101906131d1565b600354600160a060020a031681565b60045460a060020a900460ff1681565b33610871610af5565b600160a060020a03161461088457600080fd5b60005460ff161561089457600080fd5b7f787a5d936e74f4b564b9153575886059829c78cd9927b1be5e0d976b317ef736336040516108c3919061362e565b60405180910390a133ff5b60006108d8611eab565b15156108e357600080fd5b81600160a060020a03811615156108f957600080fd5b60078054600160a060020a03858116600160a060020a03198316179283905560405191811694507f4f7125332801996cdeaabf9cff1ac89ddf4b52c673558936affe853ab64a88da926109529286929190911690613847565b60405180910390a1505050565b60005460ff1681565b6000610972611eab565b151561097d57600080fd5b81600160a060020a038116151561099357600080fd5b60058054600160a060020a03858116600160a060020a03198316179283905560405191811694507fc6df38d22dc8a254e1252fc1b697f23c5120d8f4b93ee52e02c167913724e5a1926109529286929190911690613847565b600654604080518082018252600160a060020a03858116825260208201859052915160e060020a635482c7350281526000939290921691635482c73591610a389188919060040161368c565b602060405180830381600087803b158015610a5257600080fd5b505af1158015610a66573d6000803e3d6000fd5b505050506040513d601f19601f820116820180604052506107a191908101906131b3565b60035460a060020a900460ff1681565b600654604080518082018252600160a060020a03858116825260208201859052915160e160020a633007230f028152600093929092169163600e461e916107f79188919060040161368c565b600554600160a060020a031681565b6000546101009004600160a060020a031690565b600654604080518082018252600160a060020a03858116825260208201859052915160e060020a637ff81c370281526000939290921691637ff81c3791610a389188919060040161368c565b600754600160a060020a031681565b600154600160a060020a031681565b6000610b7d611eab565b1515610b8857600080fd5b81600160a060020a0381161515610b9e57600080fd5b6003548390600160a060020a039081169082168114610c2b5760035460a060020a900460ff1615610bce57600080fd5b60038054600160a060020a03878116600160a060020a0319831617909255604051911694507fb2a91d3a71b0c5bc7c083153b3474378e489506ba98bd4ddb1b9056fdc594bb590610c229086908890613847565b60405180910390a15b5050505050565b610c3a611eab565b1515610c4557600080fd5b6004805460a060020a60ff02191660a060020a1790556040517f56ec8900b9c4bf84f4b715a53068ca06961dd49084c07b481931e2c2045346e690600090a1565b6000610c90611eab565b1515610c9b57600080fd5b81600160a060020a0381161515610cb157600080fd5b6002548390600160a060020a039081169082168114610c2b5760028054600160a060020a03878116600160a060020a0319831617909255604051911694507f634f61bf00e14adedce330c80c2823e16e184f189ebe853e1ddecc4a268477ff90610c229086908890613847565b600254600160a060020a031681565b6000610d37611eab565b1515610d4257600080fd5b81600160a060020a0381161515610d5857600080fd5b60068054600160a060020a03858116600160a060020a03198316179283905560405191811694507ff21c127205310467822e10c64b2d9ffae588e019194d6af71f2bdddc0b7ef526926109529286929190911690613847565b600654604080518082018252600160a060020a03858116825260208201859052915160e160020a63374852cb0281526000939290921691636e90a596916107f79188919060040161368c565b33610e06610af5565b600160a060020a031614610e1957600080fd5b6000805460ff191660011790556040517fd5a2a04a775c741c2ca0dc46ea7ce4835190e1aaf1ca018def0e82568ec3361690610e5690339061362e565b60405180910390a1565b600654604080518082018252600160a060020a03858116825260208201859052915160e260020a6333ca4eab028152600093929092169163cf293aac91610a389188919060040161368c565b6000610eb6611eab565b1515610ec157600080fd5b81600160a060020a0381161515610ed757600080fd5b6004548390600160a060020a039081169082168114610c2b5760045460a060020a900460ff1615610f0757600080fd5b60048054600160a060020a03878116600160a060020a0319831617909255604051911694507fa44d361e26327b72a7ccbeae801b3c5cd7677ea4fa74168b289e273c46bfecfc90610c229086908890613847565b6000610f65611eab565b1515610f7057600080fd5b81600160a060020a0381161515610f8657600080fd5b600160a060020a038116301415610f9c57600080fd5b600054600160a060020a0384811661010090920416146110145760008054600160a060020a0385811661010090810261010060a860020a0319841617909355604051929091041692507f977e5fa58e458501775e0008d275006294c5249e3c08d1d0e3a9f3acad14f6e490610952908490869061363c565b505050565b611021612aa3565b611029611ec1565b151561103457600080fd5b5060408051808201909152600160a060020a03831681526020810182905261105e84826000611ed2565b60065460405160e060020a632ee2ed250281527f331a7a95f54f8fd2f704fc347c5fbc74dbe69df9d036ab5ab588141816c9ce71918691600160a060020a0390911690632ee2ed25906110b7908490879060040161368c565b602060405180830381600087803b1580156110d157600080fd5b505af11580156110e5573d6000803e3d6000fd5b505050506040513d601f19601f8201168201806040525061110991908101906131d1565b60065460405160e160020a633007230f028152600160a060020a039091169063600e461e9061113e908a90889060040161368c565b602060405180830381600087803b15801561115857600080fd5b505af115801561116c573d6000803e3d6000fd5b505050506040513d601f19601f8201168201806040525061119091908101906131d1565b60065460405160e060020a63c46fcd75028152600160a060020a039091169063c46fcd75906111c5908b90899060040161368c565b602060405180830381600087803b1580156111df57600080fd5b505af11580156111f3573d6000803e3d6000fd5b505050506040513d601f19601f8201168201806040525061121791908101906131d1565b87873360405161122d9796959493929190613758565b60405180910390a150505050565b600654604080518082018252600160a060020a03858116825260208201859052915160e060020a631b90e3c10281526000939290921691631b90e3c1916107f79188919060040161368c565b6000611291611ec1565b151561129c57600080fd5b81600160a060020a03811615156112b257600080fd5b600160a060020a0381163014156112c857600080fd5b600154600160a060020a038481169116146110145760018054600160a060020a03858116600160a060020a0319831617909255604051911692507f9f611b789425d0d5b90b920f1b2852907dd865c80074a30b1629aaa041d1812c90610952908490869061363c565b611339611eab565b151561134457600080fd5b6003805460a060020a60ff02191660a060020a1790556040517f9c567b65fe8caab5ec7bc979a498a1322c1d4baf01a30727cbca137187560ea290600090a1565b600654604080518082018252600160a060020a03858116825260208201859052915160e360020a63076470a50281526000939290921691633b23852891610a389188919060040161368c565b6113d9612aa3565b5060408051808201909152600160a060020a03831681526020810182905261140333826001611ed2565b60065460405160e060020a632ee2ed250281527f2f3367cd03f2b565585b46dd1847e4281e1da4344ee0951b37a4e3744429ee71913391600160a060020a0390911690632ee2ed259061145c908490879060040161368c565b602060405180830381600087803b15801561147657600080fd5b505af115801561148a573d6000803e3d6000fd5b505050506040513d601f19601f820116820180604052506114ae91908101906131d1565b60065460405160e160020a633007230f028152600160a060020a039091169063600e461e906114e3903390889060040161368c565b602060405180830381600087803b1580156114fd57600080fd5b505af1158015611511573d6000803e3d6000fd5b505050506040513d601f19601f8201168201806040525061153591908101906131d1565b60065460405160e060020a63c46fcd75028152600160a060020a039091169063c46fcd759061156a903390899060040161368c565b602060405180830381600087803b15801561158457600080fd5b505af1158015611598573d6000803e3d6000fd5b505050506040513d601f19601f820116820180604052506115bc91908101906131d1565b8787604051610952969594939291906136fe565b6115d8612aa3565b6004805460405160e260020a631293efbb028152600160a060020a0390911691634a4fbeec9161160a9133910161362e565b602060405180830381600087803b15801561162457600080fd5b505af1158015611638573d6000803e3d6000fd5b505050506040513d601f19601f8201168201806040525061165c91908101906131b3565b1561166657600080fd5b5060408051808201909152600160a060020a0383168152602081018290526116913385836001612062565b60065460405160e060020a632ee2ed250281527f9fd18f38c7e2276025a98cb5db3f31de60aafb2e54cc249475b00ed551204037913391600160a060020a0390911690632ee2ed25906116ea908490879060040161368c565b602060405180830381600087803b15801561170457600080fd5b505af1158015611718573d6000803e3d6000fd5b505050506040513d601f19601f8201168201806040525061173c91908101906131d1565b60065460405160e060020a63c46fcd750281528891600160a060020a03169063c46fcd7590611771903390899060040161368c565b602060405180830381600087803b15801561178b57600080fd5b505af115801561179f573d6000803e3d6000fd5b505050506040513d601f19601f820116820180604052506117c391908101906131d1565b878760405161122d969594939291906136fe565b600654604080518082018252600160a060020a03858116825260208201859052915160e160020a63160ed0cd0281526060939290921691632c1da19a916118239188919060040161368c565b600060405180830381600087803b15801561183d57600080fd5b505af1158015611851573d6000803e3d6000fd5b505050506040513d6000823e601f3d908101601f191682016040526107a1919081019061327c565b600654604080518082018252600160a060020a03858116825260208201859052915160e060020a632ee2ed250281526000939290921691632ee2ed25916107f79188919060040161368c565b600654604080518082018252600160a060020a03858116825260208201859052915160e160020a6345a76a610281526000939290921691638b4ed4c2916107f79188919060040161368c565b6000546101009004600160a060020a031681565b600454600160a060020a031681565b600260009054906101000a9004600160a060020a0316600160a060020a031663f71e860f6040518163ffffffff1660e060020a028152600401602060405180830381600087803b15801561198757600080fd5b505af115801561199b573d6000803e3d6000fd5b505050506040513d601f19601f820116820180604052506119bf91908101906131b3565b15156119ca57600080fd5b60055460405160e260020a631a49a0cb028152600160a060020a0390911690636926832c90611a01908590859033906004016136cf565b600060405180830381600087803b158015611a1b57600080fd5b505af1158015611a2f573d6000803e3d6000fd5b5050600654604080850151905160e060020a632ee2ed250281527f816c32add3b1eb6d7b4021fb065f85035aa258ad260c90b7d62dec06994e7d0d9450869350600160a060020a0390921691632ee2ed2591611a909185919060040161368c565b602060405180830381600087803b158015611aaa57600080fd5b505af1158015611abe573d6000803e3d6000fd5b505050506040513d601f19601f82011682018060405250611ae291908101906131d1565b600654604080860151905160e160020a633007230f028152600160a060020a039092169163600e461e91611b1b9189919060040161368c565b602060405180830381600087803b158015611b3557600080fd5b505af1158015611b49573d6000803e3d6000fd5b505050506040513d601f19601f82011682018060405250611b6d91908101906131d1565b600654604080870151905160e060020a63c46fcd75028152600160a060020a039092169163c46fcd7591611ba6918a919060040161368c565b602060405180830381600087803b158015611bc057600080fd5b505af1158015611bd4573d6000803e3d6000fd5b505050506040513d601f19601f82011682018060405250611bf891908101906131d1565b60408087015180516020909101519151611c189695949392903390613758565b60405180910390a15050565b611c2c612aa3565b611c34611ec1565b1515611c3f57600080fd5b5060408051808201909152600160a060020a038316815260208101829052611c6a8585836000612062565b60065460405160e060020a632ee2ed250281527f1c1550c804afba781c62ad68b7d90fa1fcbb95c8181a5cce15e5973c7ab0cfdc918791600160a060020a0390911690632ee2ed2590611cc3908490879060040161368c565b602060405180830381600087803b158015611cdd57600080fd5b505af1158015611cf1573d6000803e3d6000fd5b505050506040513d601f19601f82011682018060405250611d1591908101906131d1565b60065460405160e060020a63c46fcd750281528891600160a060020a03169063c46fcd7590611d4a908c90899060040161368c565b602060405180830381600087803b158015611d6457600080fd5b505af1158015611d78573d6000803e3d6000fd5b505050506040513d601f19601f82011682018060405250611d9c91908101906131d1565b878733604051610c229796959493929190613758565b600654600160a060020a031681565b600654604080518082018252600160a060020a03858116825260208201859052915160e060020a6356ec907502815260009392909216916356ec9075916107f79188919060040161368c565b600654604080518082018252600160a060020a03858116825260208201859052915160e060020a63565872290281526000939290921691635658722991611e599188919060040161368c565b602060405180830381600087803b158015611e7357600080fd5b505af1158015611e87573d6000803e3d6000fd5b505050506040513d601f19601f820116820180604052506107a19190810190613066565b6000546101009004600160a060020a0316331490565b600154600160a060020a0316331490565b60065460405160e360020a63076470a5028152600160a060020a0390911690633b23852890611f07908690869060040161368c565b602060405180830381600087803b158015611f2157600080fd5b505af1158015611f35573d6000803e3d6000fd5b505050506040513d601f19601f82011682018060405250611f5991908101906131b3565b8015611fe9575060065460405160e060020a637ff81c37028152600160a060020a0390911690637ff81c3790611f95908690869060040161368c565b602060405180830381600087803b158015611faf57600080fd5b505af1158015611fc3573d6000803e3d6000fd5b505050506040513d601f19601f82011682018060405250611fe791908101906131b3565b155b1515611ff457600080fd5b60065460405160e160020a63524ad183028152600160a060020a039091169063a495a3069061202b908690869086906004016136a7565b600060405180830381600087803b15801561204557600080fd5b505af1158015612059573d6000803e3d6000fd5b50505050505050565b6000806000806000600260009054906101000a9004600160a060020a0316600160a060020a031663b6bf41766040518163ffffffff1660e060020a028152600401602060405180830381600087803b1580156120bd57600080fd5b505af11580156120d1573d6000803e3d6000fd5b505050506040513d601f19601f820116820180604052506120f591908101906131d1565b43101561210157600080fd5b60065460405160e360020a63076470a5028152600160a060020a0390911690633b23852890612136908c908b9060040161368c565b602060405180830381600087803b15801561215057600080fd5b505af1158015612164573d6000803e3d6000fd5b505050506040513d601f19601f8201168201806040525061218891908101906131b3565b1580612216575060065460405160e060020a635482c735028152600160a060020a0390911690635482c735906121c4908c908b9060040161368c565b602060405180830381600087803b1580156121de57600080fd5b505af11580156121f2573d6000803e3d6000fd5b505050506040513d601f19601f8201168201806040525061221691908101906131b3565b151561222157600080fd5b61222b89886122e1565b60065494995092975090955093509150600160a060020a031663ba5152888a838b61227c61226f826122638b8b63ffffffff61276e16565b9063ffffffff61276e16565b8b9063ffffffff6127a316565b8c8a8d6040518863ffffffff1660e060020a0281526004016122a497969594939291906137c0565b600060405180830381600087803b1580156122be57600080fd5b505af11580156122d2573d6000803e3d6000fd5b50505050505050505050505050565b600354600090819081908190819061230990600160a060020a0316888863ffffffff6127e416565b60075460405160e360020a63076470a5028152929750909550600160a060020a031690633b23852890612342908a908a9060040161368c565b602060405180830381600087803b15801561235c57600080fd5b505af1158015612370573d6000803e3d6000fd5b505050506040513d601f19601f8201168201806040525061239491908101906131b3565b156125c25760075460405160e060020a637ff81c37028152600160a060020a0390911690637ff81c37906123ce908a908a9060040161368c565b602060405180830381600087803b1580156123e857600080fd5b505af11580156123fc573d6000803e3d6000fd5b505050506040513d601f19601f8201168201806040525061242091908101906131b3565b15156125385760075460405160e060020a638ab3e965028152600160a060020a0390911690638ab3e9659061245b908a908a9060040161368c565b602060405180830381600087803b15801561247557600080fd5b505af1158015612489573d6000803e3d6000fd5b505050506040513d601f19601f820116820180604052506124ad91908101906131d1565b60075460405160e160020a633007230f028152919450600160a060020a03169063600e461e906124e3908a908a9060040161368c565b602060405180830381600087803b1580156124fd57600080fd5b505af1158015612511573d6000803e3d6000fd5b505050506040513d601f19601f8201168201806040525061253591908101906131d1565b91505b60075460405160e060020a632ee2ed25028152600160a060020a0390911690632ee2ed259061256d908a908a9060040161368c565b602060405180830381600087803b15801561258757600080fd5b505af115801561259b573d6000803e3d6000fd5b505050506040513d601f19601f820116820180604052506125bf91908101906131d1565b90505b60065460405160e360020a63076470a5028152600160a060020a0390911690633b238528906125f7908a908a9060040161368c565b602060405180830381600087803b15801561261157600080fd5b505af1158015612625573d6000803e3d6000fd5b505050506040513d601f19601f8201168201806040525061264991908101906131b3565b156127645760065460405160e060020a632ee2ed2502815273__SafeMathUintLib_______________________9163a682d5ad918491600160a060020a031690632ee2ed259061269f908d908d9060040161368c565b602060405180830381600087803b1580156126b957600080fd5b505af11580156126cd573d6000803e3d6000fd5b505050506040513d601f19601f820116820180604052506126f191908101906131d1565b6040518363ffffffff1660e060020a028152600401612711929190613881565b60206040518083038186803b15801561272957600080fd5b505af415801561273d573d6000803e3d6000fd5b505050506040513d601f19601f8201168201806040525061276191908101906131d1565b90505b9295509295909350565b60008282018183128015906127835750838112155b80612798575060008312801561279857508381125b15156107a457600080fd5b60008082121580156127b757508282840313155b806127ce57506000821280156127ce575082828403135b15156127d957600080fd5b508082035b92915050565b60008060008060008088600160a060020a0316636f4a1815898b600160a060020a031663ded113106040518163ffffffff1660e060020a028152600401602060405180830381600087803b15801561283b57600080fd5b505af115801561284f573d6000803e3d6000fd5b505050506040513d601f19601f8201168201806040525061287391908101906131d1565b8a5160208c015160405160e060020a63ffffffff871602815261289c9493929190600401613657565b6040805180830381600087803b1580156128b557600080fd5b505af11580156128c9573d6000803e3d6000fd5b505050506040513d601f19601f820116820180604052506128ed919081019061324c565b9350935088600160a060020a0316636f4a1815898b600160a060020a0316634652ec746040518163ffffffff1660e060020a028152600401602060405180830381600087803b15801561293f57600080fd5b505af1158015612953573d6000803e3d6000fd5b505050506040513d601f19601f8201168201806040525061297791908101906131d1565b8a5160208c015160405160e060020a63ffffffff87160281526129a09493929190600401613657565b6040805180830381600087803b1580156129b957600080fd5b505af11580156129cd573d6000803e3d6000fd5b505050506040513d601f19601f820116820180604052506129f1919081019061324c565b9092509050612a06848363ffffffff61276e16565b60405160e060020a63a682d5ad02815290965073__SafeMathUintLib_______________________9063a682d5ad90612a459086908590600401613881565b60206040518083038186803b158015612a5d57600080fd5b505af4158015612a71573d6000803e3d6000fd5b505050506040513d601f19601f82011682018060405250612a9591908101906131d1565b945050505050935093915050565b604080518082019091526000808252602082015290565b60006107a48235613913565b60006107a48251613913565b6000601f82018313612ae357600080fd5b8135612af6612af1826138c2565b61389c565b91508181835260208401935060208101905083856080840282011115612b1b57600080fd5b60005b83811015612b495781612b318882612c8a565b84525060209092019160809190910190600101612b1e565b5050505092915050565b60006107a4825161391f565b60006107a48235613924565b60006107a48251613924565b60006107a4823561393d565b60006107a48251613948565b6000601f82018313612ba057600080fd5b8151612bae612af1826138e2565b91508082526020830160208301858383011115612bca57600080fd5b612bd5838284613962565b50505092915050565b600060408284031215612bf057600080fd5b612bfa604061389c565b90506000612c088484612aba565b8252506020612c1984848301612b5f565b60208301525092915050565b600060408284031215612c3757600080fd5b612c41604061389c565b90506000612c088484612b5f565b600060608284031215612c6157600080fd5b612c6b604061389c565b90506000612c798484612b5f565b8252506020612c1984848301612bde565b600060808284031215612c9c57600080fd5b612ca6604061389c565b90506000612cb48484612b5f565b8252506020612c1984848301612c4f565b600060a08284031215612cd757600080fd5b612ce1608061389c565b90506000612cef8484612b5f565b8252506020612d0084848301612aba565b6020830152506040612d1484828501612c25565b60408301525060808201356001604060020a03811115612d3357600080fd5b612d3f84828501612faf565b60608301525092915050565b600060a08284031215612d5d57600080fd5b612d67608061389c565b90506000612d758484612b5f565b8252506020612d8684848301612aba565b6020830152506040612d9a84828501612c25565b60408301525060808201356001604060020a03811115612db957600080fd5b612d3f84828501612f5d565b60006102408284031215612dd857600080fd5b612de361012061389c565b90506000612df18484612b5f565b8252506020612e0284848301612b5f565b6020830152506040612e1684828501612bde565b60408301525060808201356001604060020a03811115612e3557600080fd5b612e4184828501612d4b565b60608301525060a08201356001604060020a03811115612e6057600080fd5b612e6c84828501612cc5565b60808301525060c0612e8084828501612c25565b60a083015250610100612e9584828501612ff8565b60c083015250610200612eaa84828501612b5f565b60e083015250610220612ebf84828501612b5f565b6101008301525092915050565b600060808284031215612ede57600080fd5b612ee8604061389c565b90506000612ef68484612b5f565b8252506020612c1984848301600060608284031215612f1457600080fd5b612f1e606061389c565b90506000612f2c8484612b5f565b8252506020612f3d84848301612b5f565b6020830152506040612f5184828501613034565b60408301525092915050565b600060808284031215612f6f57600080fd5b612f79604061389c565b90506000612f878484612c4f565b82525060608201356001604060020a03811115612fa357600080fd5b612c1984828501612ad2565b600060208284031215612fc157600080fd5b612fcb602061389c565b905081356001604060020a03811115612fe357600080fd5b612fef84828501612ad2565b82525092915050565b6000610100828403121561300b57600080fd5b613015604061389c565b905060006130238484612ecc565b8252506080612c1984848301612ecc565b60006107a48235613937565b60006020828403121561305257600080fd5b600061305e8484612aba565b949350505050565b60006020828403121561307857600080fd5b600061305e8484612ac6565b60008060006060848603121561309957600080fd5b60006130a58686612aba565b93505060206130b686828701612aba565b92505060406130c786828701612b5f565b9150509250925092565b600080600080608085870312156130e757600080fd5b60006130f38787612aba565b945050602061310487828801612b5f565b935050604061311587828801612aba565b925050606061312687828801612b5f565b91505092959194509250565b6000806040838503121561314557600080fd5b60006131518585612aba565b92505060208301356001604060020a0381111561316d57600080fd5b61317985828601612dc5565b9150509250929050565b6000806040838503121561319657600080fd5b60006131a28585612aba565b925050602061317985828601612b5f565b6000602082840312156131c557600080fd5b600061305e8484612b53565b6000602082840312156131e357600080fd5b600061305e8484612b6b565b60006020828403121561320157600080fd5b600061305e8484612b77565b60006020828403121561321f57600080fd5b600061305e8484612b83565b60008060006060848603121561324057600080fd5b60006130a58686612b5f565b6000806040838503121561325f57600080fd5b600061326b8585612b6b565b925050602061317985828601612b6b565b60006020828403121561328e57600080fd5b81516001604060020a038111156132a457600080fd5b61305e84828501612b8f565b6132b981613913565b82525050565b60006132ca8261390f565b8084526020840193506132dc83613909565b60005b8281101561330c576132f28683516133ce565b6132fb82613909565b6080969096019591506001016132df565b5093949350505050565b6132b98161391f565b6132b981613924565b6132b98161393d565b6132b981613957565b60006133458261390f565b808452613359816020860160208601613962565b6133628161398e565b9093016020019392505050565b8051604083019061338084826132b0565b506020820151613393602085018261331f565b50505050565b80516040830190613380848261331f565b805160608301906133bb848261331f565b506020820151613393602085018261336f565b805160808301906133df848261331f565b50602082015161339360208501826133aa565b805160009060a0840190613406858261331f565b50602083015161341960208601826132b0565b50604083015161342c6040860182613399565b506060830151848203608086015261344482826135e8565b95945050505050565b805160009060a0840190613461858261331f565b50602083015161347460208601826132b0565b5060408301516134876040860182613399565b506060830151848203608086015261344482826135bc565b80516000906102408401906134b4858261331f565b5060208301516134c7602086018261331f565b5060408301516134da604086018261336f565b50606083015184820360808601526134f2828261344d565b915050608083015184820360a086015261350c82826133f2565b91505060a083015161352160c0860182613399565b5060c0830151613535610100860182613600565b5060e083015161354961020086018261331f565b5061010083015161355e61022086018261331f565b509392505050565b80516080830190613577848261331f565b506020820151613393602085018280516060830190613596848261331f565b5060208201516135a9602085018261331f565b5060408201516133936040850182613625565b805160009060808401906135d085826133aa565b506020830151848203606086015261344482826132bf565b805160208084526000919084019061344482826132bf565b80516101008301906136128482613566565b5060208201516133936080850182613566565b6132b981613937565b602081016127de82846132b0565b6040810161364a82856132b0565b6107a460208301846132b0565b6080810161366582876132b0565b613672602083018661331f565b61367f60408301856132b0565b613444606083018461331f565b6060810161369a82856132b0565b6107a4602083018461336f565b608081016136b582866132b0565b6136c2602083018561336f565b61305e6060830184613316565b606081016136dd82866132b0565b81810360208301526136ef818561349f565b905061305e60408301846132b0565b60c0810161370c82896132b0565b613719602083018861331f565b613726604083018761331f565b613733606083018661331f565b61374060808301856132b0565b61374d60a083018461331f565b979650505050505050565b60e08101613766828a6132b0565b613773602083018961331f565b613780604083018861331f565b61378d606083018761331f565b61379a60808301866132b0565b6137a760a083018561331f565b6137b460c08301846132b0565b98975050505050505050565b61010081016137cf828a6132b0565b6137dc602083018961331f565b6137e9604083018861331f565b6137f6606083018761331f565b613803608083018661336f565b61381060c083018561331f565b6137b460e0830184613316565b602081016127de8284613316565b602081016127de828461331f565b602081016127de8284613328565b604081016138558285613328565b6107a46020830184613328565b602081016127de8284613331565b602080825281016107a4818461333a565b6040810161388f828561331f565b6107a4602083018461331f565b6040518181016001604060020a03811182821017156138ba57600080fd5b604052919050565b60006001604060020a038211156138d857600080fd5b5060209081020190565b60006001604060020a038211156138f857600080fd5b506020601f91909101601f19160190565b60200190565b5190565b600160a060020a031690565b151590565b90565b60006002821061393357fe5b5090565b60ff1690565b60006127de82613913565b60006002821061393357600080fd5b60006127de82613927565b60005b8381101561397d578181015183820152602001613965565b838111156133935750506000910152565b601f01601f1916905600a265627a7a7230582084337c7ab0968922cb37bc516457e8ac320281292af94ba1b85ee4813bd447176c6578706572696d656e74616cf50037",
  "source": "/*\n * Hubii Nahmii\n *\n * Compliant with the Hubii Nahmii specification v0.12.\n *\n * Copyright (C) 2017-2018 Hubii AS\n */\n\npragma solidity ^0.4.25;\npragma experimental ABIEncoderV2;\n\nimport {Ownable} from \"./Ownable.sol\";\nimport {ConfigurableOperational} from \"./ConfigurableOperational.sol\";\nimport {BalanceTrackable} from \"./BalanceTrackable.sol\";\nimport {WalletLockable} from \"./WalletLockable.sol\";\nimport {SafeMathIntLib} from \"./SafeMathIntLib.sol\";\nimport {SafeMathUintLib} from \"./SafeMathUintLib.sol\";\nimport {NullSettlementDisputeByPayment} from \"./NullSettlementDisputeByPayment.sol\";\nimport {NullSettlementChallengeState} from \"./NullSettlementChallengeState.sol\";\nimport {DriipSettlementChallengeState} from \"./DriipSettlementChallengeState.sol\";\nimport {MonetaryTypesLib} from \"./MonetaryTypesLib.sol\";\nimport {PaymentTypesLib} from \"./PaymentTypesLib.sol\";\nimport {SettlementChallengeTypesLib} from \"./SettlementChallengeTypesLib.sol\";\nimport {BalanceTracker} from \"./BalanceTracker.sol\";\nimport {BalanceTrackerLib} from \"./BalanceTrackerLib.sol\";\n\n/**\n * @title NullSettlementChallengeByPayment\n * @notice Where null settlements pertaining to payments are started and disputed\n */\ncontract NullSettlementChallengeByPayment is Ownable, ConfigurableOperational, BalanceTrackable, WalletLockable {\n    using SafeMathIntLib for int256;\n    using SafeMathUintLib for uint256;\n    using BalanceTrackerLib for BalanceTracker;\n\n    //\n    // Variables\n    // -----------------------------------------------------------------------------------------------------------------\n    NullSettlementDisputeByPayment public nullSettlementDisputeByPayment;\n    NullSettlementChallengeState public nullSettlementChallengeState;\n    DriipSettlementChallengeState public driipSettlementChallengeState;\n\n    //\n    // Events\n    // -----------------------------------------------------------------------------------------------------------------\n    event SetNullSettlementDisputeByPaymentEvent(NullSettlementDisputeByPayment oldNullSettlementDisputeByPayment,\n        NullSettlementDisputeByPayment newNullSettlementDisputeByPayment);\n    event SetNullSettlementChallengeStateEvent(NullSettlementChallengeState oldNullSettlementChallengeState,\n        NullSettlementChallengeState newNullSettlementChallengeState);\n    event SetDriipSettlementChallengeStateEvent(DriipSettlementChallengeState oldDriipSettlementChallengeState,\n        DriipSettlementChallengeState newDriipSettlementChallengeState);\n    event StartChallengeEvent(address wallet, uint256 nonce, int256 stageAmount, int256 targetBalanceAmount,\n        address currencyCt, uint currencyId);\n    event StartChallengeByProxyEvent(address wallet, uint256 nonce, int256 stageAmount, int256 targetBalanceAmount,\n        address currencyCt, uint currencyId, address proxy);\n    event StopChallengeEvent(address wallet, uint256 nonce, int256 stageAmount, int256 targetBalanceAmount,\n        address currencyCt, uint256 currencyId);\n    event StopChallengeByProxyEvent(address wallet, uint256 nonce, int256 stageAmount, int256 targetBalanceAmount,\n        address currencyCt, uint256 currencyId, address proxy);\n    event ChallengeByPaymentEvent(address challengedWallet, uint256 nonce, int256 stageAmount, int256 targetBalanceAmount,\n        address currencyCt, uint256 currencyId, address challengerWallet);\n\n    //\n    // Constructor\n    // -----------------------------------------------------------------------------------------------------------------\n    constructor(address deployer) Ownable(deployer) public {\n    }\n\n    //\n    // Functions\n    // -----------------------------------------------------------------------------------------------------------------\n    /// @notice Set the settlement dispute contract\n    /// @param newNullSettlementDisputeByPayment The (address of) NullSettlementDisputeByPayment contract instance\n    function setNullSettlementDisputeByPayment(NullSettlementDisputeByPayment newNullSettlementDisputeByPayment)\n    public\n    onlyDeployer\n    notNullAddress(newNullSettlementDisputeByPayment)\n    {\n        NullSettlementDisputeByPayment oldNullSettlementDisputeByPayment = nullSettlementDisputeByPayment;\n        nullSettlementDisputeByPayment = newNullSettlementDisputeByPayment;\n        emit SetNullSettlementDisputeByPaymentEvent(oldNullSettlementDisputeByPayment, nullSettlementDisputeByPayment);\n    }\n\n    /// @notice Set the null settlement challenge state contract\n    /// @param newNullSettlementChallengeState The (address of) NullSettlementChallengeState contract instance\n    function setNullSettlementChallengeState(NullSettlementChallengeState newNullSettlementChallengeState)\n    public\n    onlyDeployer\n    notNullAddress(newNullSettlementChallengeState)\n    {\n        NullSettlementChallengeState oldNullSettlementChallengeState = nullSettlementChallengeState;\n        nullSettlementChallengeState = newNullSettlementChallengeState;\n        emit SetNullSettlementChallengeStateEvent(oldNullSettlementChallengeState, nullSettlementChallengeState);\n    }\n\n    /// @notice Set the driip settlement challenge state contract\n    /// @param newDriipSettlementChallengeState The (address of) DriipSettlementChallengeState contract instance\n    function setDriipSettlementChallengeState(DriipSettlementChallengeState newDriipSettlementChallengeState)\n    public\n    onlyDeployer\n    notNullAddress(newDriipSettlementChallengeState)\n    {\n        DriipSettlementChallengeState oldDriipSettlementChallengeState = driipSettlementChallengeState;\n        driipSettlementChallengeState = newDriipSettlementChallengeState;\n        emit SetDriipSettlementChallengeStateEvent(oldDriipSettlementChallengeState, driipSettlementChallengeState);\n    }\n\n    /// @notice Start settlement challenge\n    /// @param amount The concerned amount to stage\n    /// @param currencyCt The address of the concerned currency contract (address(0) == ETH)\n    /// @param currencyId The ID of the concerned currency (0 for ETH and ERC20)\n    function startChallenge(int256 amount, address currencyCt, uint256 currencyId)\n    public\n    {\n        // Require that wallet is not locked\n        require(!walletLocker.isLocked(msg.sender));\n\n        // Define currency\n        MonetaryTypesLib.Currency memory currency = MonetaryTypesLib.Currency(currencyCt, currencyId);\n\n        // Start challenge for wallet\n        _startChallenge(msg.sender, amount, currency, true);\n\n        // Emit event\n        emit StartChallengeEvent(\n            msg.sender,\n            nullSettlementChallengeState.proposalNonce(msg.sender, currency),\n            amount,\n            nullSettlementChallengeState.proposalTargetBalanceAmount(msg.sender, currency),\n            currencyCt, currencyId\n        );\n    }\n\n    /// @notice Start settlement challenge for the given wallet\n    /// @param wallet The address of the concerned wallet\n    /// @param amount The concerned amount to stage\n    /// @param currencyCt The address of the concerned currency contract (address(0) == ETH)\n    /// @param currencyId The ID of the concerned currency (0 for ETH and ERC20)\n    function startChallengeByProxy(address wallet, int256 amount, address currencyCt, uint256 currencyId)\n    public\n    onlyOperator\n    {\n        // Define currency\n        MonetaryTypesLib.Currency memory currency = MonetaryTypesLib.Currency(currencyCt, currencyId);\n\n        // Start challenge for wallet\n        _startChallenge(wallet, amount, currency, false);\n\n        // Emit event\n        emit StartChallengeByProxyEvent(\n            wallet,\n            nullSettlementChallengeState.proposalNonce(wallet, currency),\n            amount,\n            nullSettlementChallengeState.proposalTargetBalanceAmount(wallet, currency),\n            currencyCt, currencyId, msg.sender\n        );\n    }\n\n    /// @notice Stop settlement challenge\n    /// @param currencyCt The address of the concerned currency contract (address(0) == ETH)\n    /// @param currencyId The ID of the concerned currency (0 for ETH and ERC20)\n    function stopChallenge(address currencyCt, uint256 currencyId)\n    public\n    {\n        // Define currency\n        MonetaryTypesLib.Currency memory currency = MonetaryTypesLib.Currency(currencyCt, currencyId);\n\n        // Stop challenge\n        _stopChallenge(msg.sender, currency, true);\n\n        // Emit event\n        emit StopChallengeEvent(\n            msg.sender,\n            nullSettlementChallengeState.proposalNonce(msg.sender, currency),\n            nullSettlementChallengeState.proposalStageAmount(msg.sender, currency),\n            nullSettlementChallengeState.proposalTargetBalanceAmount(msg.sender, currency),\n            currencyCt, currencyId\n        );\n    }\n\n    /// @notice Stop settlement challenge\n    /// @param wallet The concerned wallet\n    /// @param currencyCt The address of the concerned currency contract (address(0) == ETH)\n    /// @param currencyId The ID of the concerned currency (0 for ETH and ERC20)\n    function stopChallengeByProxy(address wallet, address currencyCt, uint256 currencyId)\n    public\n    onlyOperator\n    {\n        // Define currency\n        MonetaryTypesLib.Currency memory currency = MonetaryTypesLib.Currency(currencyCt, currencyId);\n\n        // Stop challenge\n        _stopChallenge(wallet, currency, false);\n\n        // Emit event\n        emit StopChallengeByProxyEvent(\n            wallet,\n            nullSettlementChallengeState.proposalNonce(wallet, currency),\n            nullSettlementChallengeState.proposalStageAmount(wallet, currency),\n            nullSettlementChallengeState.proposalTargetBalanceAmount(wallet, currency),\n            currencyCt, currencyId, msg.sender\n        );\n    }\n\n    /// @notice Gauge whether the proposal for the given wallet and currency has been defined\n    /// @param wallet The address of the concerned wallet\n    /// @param currencyCt The address of the concerned currency contract (address(0) == ETH)\n    /// @param currencyId The ID of the concerned currency (0 for ETH and ERC20)\n    /// @return true if proposal has been initiated, else false\n    function hasProposal(address wallet, address currencyCt, uint256 currencyId)\n    public\n    view\n    returns (bool)\n    {\n        return nullSettlementChallengeState.hasProposal(\n            wallet, MonetaryTypesLib.Currency(currencyCt, currencyId)\n        );\n    }\n\n    /// @notice Gauge whether the proposal for the given wallet and currency has terminated\n    /// @param wallet The address of the concerned wallet\n    /// @param currencyCt The address of the concerned currency contract (address(0) == ETH)\n    /// @param currencyId The ID of the concerned currency (0 for ETH and ERC20)\n    /// @return true if proposal has terminated, else false\n    function hasProposalTerminated(address wallet, address currencyCt, uint256 currencyId)\n    public\n    view\n    returns (bool)\n    {\n        return nullSettlementChallengeState.hasProposalTerminated(\n            wallet, MonetaryTypesLib.Currency(currencyCt, currencyId)\n        );\n    }\n\n    /// @notice Gauge whether the proposal for the given wallet and currency has expired\n    /// @param wallet The address of the concerned wallet\n    /// @param currencyCt The address of the concerned currency contract (address(0) == ETH)\n    /// @param currencyId The ID of the concerned currency (0 for ETH and ERC20)\n    /// @return true if proposal has expired, else false\n    function hasProposalExpired(address wallet, address currencyCt, uint256 currencyId)\n    public\n    view\n    returns (bool)\n    {\n        return nullSettlementChallengeState.hasProposalExpired(\n            wallet, MonetaryTypesLib.Currency(currencyCt, currencyId)\n        );\n    }\n\n    /// @notice Get the challenge nonce of the given wallet\n    /// @param wallet The address of the concerned wallet\n    /// @param currencyCt The address of the concerned currency contract (address(0) == ETH)\n    /// @param currencyId The ID of the concerned currency (0 for ETH and ERC20)\n    /// @return The challenge nonce\n    function proposalNonce(address wallet, address currencyCt, uint256 currencyId)\n    public\n    view\n    returns (uint256)\n    {\n        return nullSettlementChallengeState.proposalNonce(\n            wallet, MonetaryTypesLib.Currency(currencyCt, currencyId)\n        );\n    }\n\n    /// @notice Get the settlement proposal block number of the given wallet\n    /// @param wallet The address of the concerned wallet\n    /// @param currencyCt The address of the concerned currency contract (address(0) == ETH)\n    /// @param currencyId The ID of the concerned currency (0 for ETH and ERC20)\n    /// @return The settlement proposal block number\n    function proposalReferenceBlockNumber(address wallet, address currencyCt, uint256 currencyId)\n    public\n    view\n    returns (uint256)\n    {\n        return nullSettlementChallengeState.proposalReferenceBlockNumber(\n            wallet, MonetaryTypesLib.Currency(currencyCt, currencyId)\n        );\n    }\n\n    /// @notice Get the settlement proposal end time of the given wallet\n    /// @param wallet The address of the concerned wallet\n    /// @param currencyCt The address of the concerned currency contract (address(0) == ETH)\n    /// @param currencyId The ID of the concerned currency (0 for ETH and ERC20)\n    /// @return The settlement proposal end time\n    function proposalExpirationTime(address wallet, address currencyCt, uint256 currencyId)\n    public\n    view\n    returns (uint256)\n    {\n        return nullSettlementChallengeState.proposalExpirationTime(\n            wallet, MonetaryTypesLib.Currency(currencyCt, currencyId)\n        );\n    }\n\n    /// @notice Get the challenge status of the given wallet\n    /// @param wallet The address of the concerned wallet\n    /// @param currencyCt The address of the concerned currency contract (address(0) == ETH)\n    /// @param currencyId The ID of the concerned currency (0 for ETH and ERC20)\n    /// @return The challenge status\n    function proposalStatus(address wallet, address currencyCt, uint256 currencyId)\n    public\n    view\n    returns (SettlementChallengeTypesLib.Status)\n    {\n        return nullSettlementChallengeState.proposalStatus(\n            wallet, MonetaryTypesLib.Currency(currencyCt, currencyId)\n        );\n    }\n\n    /// @notice Get the settlement proposal stage amount of the given wallet and currency\n    /// @param wallet The address of the concerned wallet\n    /// @param currencyCt The address of the concerned currency contract (address(0) == ETH)\n    /// @param currencyId The ID of the concerned currency (0 for ETH and ERC20)\n    /// @return The settlement proposal stage amount\n    function proposalStageAmount(address wallet, address currencyCt, uint256 currencyId)\n    public\n    view\n    returns (int256)\n    {\n        return nullSettlementChallengeState.proposalStageAmount(\n            wallet, MonetaryTypesLib.Currency(currencyCt, currencyId)\n        );\n    }\n\n    /// @notice Get the settlement proposal target balance amount of the given wallet and currency\n    /// @param wallet The address of the concerned wallet\n    /// @param currencyCt The address of the concerned currency contract (address(0) == ETH)\n    /// @param currencyId The ID of the concerned currency (0 for ETH and ERC20)\n    /// @return The settlement proposal target balance amount\n    function proposalTargetBalanceAmount(address wallet, address currencyCt, uint256 currencyId)\n    public\n    view\n    returns (int256)\n    {\n        return nullSettlementChallengeState.proposalTargetBalanceAmount(\n            wallet, MonetaryTypesLib.Currency(currencyCt, currencyId)\n        );\n    }\n\n    /// @notice Get the balance reward of the given wallet's settlement proposal\n    /// @param wallet The address of the concerned wallet\n    /// @param currencyCt The address of the concerned currency contract (address(0) == ETH)\n    /// @param currencyId The ID of the concerned currency (0 for ETH and ERC20)\n    /// @return The balance reward of the settlement proposal\n    function proposalWalletInitiated(address wallet, address currencyCt, uint256 currencyId)\n    public\n    view\n    returns (bool)\n    {\n        return nullSettlementChallengeState.proposalWalletInitiated(\n            wallet, MonetaryTypesLib.Currency(currencyCt, currencyId)\n        );\n    }\n\n    /// @notice Get the disqualification challenger of the given wallet and currency\n    /// @param wallet The address of the concerned wallet\n    /// @param currencyCt The address of the concerned currency contract (address(0) == ETH)\n    /// @param currencyId The ID of the concerned currency (0 for ETH and ERC20)\n    /// @return The challenger of the settlement disqualification\n    function proposalDisqualificationChallenger(address wallet, address currencyCt, uint256 currencyId)\n    public\n    view\n    returns (address)\n    {\n        return nullSettlementChallengeState.proposalDisqualificationChallenger(\n            wallet, MonetaryTypesLib.Currency(currencyCt, currencyId)\n        );\n    }\n\n    /// @notice Get the disqualification block number of the given wallet and currency\n    /// @param wallet The address of the concerned wallet\n    /// @param currencyCt The address of the concerned currency contract (address(0) == ETH)\n    /// @param currencyId The ID of the concerned currency (0 for ETH and ERC20)\n    /// @return The block number of the settlement disqualification\n    function proposalDisqualificationBlockNumber(address wallet, address currencyCt, uint256 currencyId)\n    public\n    view\n    returns (uint256)\n    {\n        return nullSettlementChallengeState.proposalDisqualificationBlockNumber(\n            wallet, MonetaryTypesLib.Currency(currencyCt, currencyId)\n        );\n    }\n\n    /// @notice Get the disqualification candidate kind of the given wallet and currency\n    /// @param wallet The address of the concerned wallet\n    /// @param currencyCt The address of the concerned currency contract (address(0) == ETH)\n    /// @param currencyId The ID of the concerned currency (0 for ETH and ERC20)\n    /// @return The candidate kind of the settlement disqualification\n    function proposalDisqualificationCandidateKind(address wallet, address currencyCt, uint256 currencyId)\n    public\n    view\n    returns (string)\n    {\n        return nullSettlementChallengeState.proposalDisqualificationCandidateKind(\n            wallet, MonetaryTypesLib.Currency(currencyCt, currencyId)\n        );\n    }\n\n    /// @notice Get the disqualification candidate hash of the given wallet and currency\n    /// @param wallet The address of the concerned wallet\n    /// @param currencyCt The address of the concerned currency contract (address(0) == ETH)\n    /// @param currencyId The ID of the concerned currency (0 for ETH and ERC20)\n    /// @return The candidate hash of the settlement disqualification\n    function proposalDisqualificationCandidateHash(address wallet, address currencyCt, uint256 currencyId)\n    public\n    view\n    returns (bytes32)\n    {\n        return nullSettlementChallengeState.proposalDisqualificationCandidateHash(\n            wallet, MonetaryTypesLib.Currency(currencyCt, currencyId)\n        );\n    }\n\n    /// @notice Challenge the settlement by providing payment candidate\n    /// @param wallet The wallet whose settlement is being challenged\n    /// @param payment The payment candidate that challenges the null\n    function challengeByPayment(address wallet, PaymentTypesLib.Payment payment)\n    public\n    onlyOperationalModeNormal\n    {\n        // Challenge by payment\n        nullSettlementDisputeByPayment.challengeByPayment(wallet, payment, msg.sender);\n\n        // Emit event\n        emit ChallengeByPaymentEvent(\n            wallet,\n            nullSettlementChallengeState.proposalNonce(wallet, payment.currency),\n            nullSettlementChallengeState.proposalStageAmount(wallet, payment.currency),\n            nullSettlementChallengeState.proposalTargetBalanceAmount(wallet, payment.currency),\n            payment.currency.ct, payment.currency.id, msg.sender\n        );\n    }\n\n    //\n    // Private functions\n    // -----------------------------------------------------------------------------------------------------------------\n    function _startChallenge(address wallet, int256 stageAmount, MonetaryTypesLib.Currency currency,\n        bool walletInitiated)\n    private\n    {\n        // Require that current block number is beyond the earliest settlement challenge block number\n        require(block.number >= configuration.earliestSettlementBlockNumber());\n\n        // Require that there is no ongoing overlapping null settlement challenge\n        require(\n            !nullSettlementChallengeState.hasProposal(wallet, currency) ||\n        nullSettlementChallengeState.hasProposalExpired(wallet, currency)\n        );\n\n        // Get the last logged active balance amount and block number, properties of overlapping DSC\n        // and the baseline nonce\n        (\n        int256 activeBalanceAmount, uint256 activeBalanceBlockNumber,\n        int256 dscCumulativeTransferAmount, int256 dscStageAmount,\n        uint256 nonce\n        ) = _externalProperties(\n            wallet, currency\n        );\n\n        // Initiate proposal, including assurance that there is no overlap with active proposal\n        // Target balance amount is calculated as current balance - DSC cumulativeTransferAmount - DSC stage amount - NSC stageAmount\n        nullSettlementChallengeState.initiateProposal(\n            wallet, nonce, stageAmount,\n            activeBalanceAmount.sub(\n                dscCumulativeTransferAmount.add(dscStageAmount).add(stageAmount)\n            ),\n            currency,\n            activeBalanceBlockNumber, walletInitiated\n        );\n    }\n\n    function _stopChallenge(address wallet, MonetaryTypesLib.Currency currency, bool walletTerminated)\n    private\n    {\n        // Require that there is an unterminated driip settlement challenge proposal\n        require(\n            nullSettlementChallengeState.hasProposal(wallet, currency) &&\n            !nullSettlementChallengeState.hasProposalTerminated(wallet, currency)\n        );\n\n        // Terminate driip settlement challenge proposal\n        nullSettlementChallengeState.terminateProposal(\n            wallet, currency, walletTerminated\n        );\n    }\n\n    function _externalProperties(address wallet, MonetaryTypesLib.Currency currency)\n    private\n    view\n    returns (\n        int256 activeBalanceAmount, uint256 activeBalanceBlockNumber,\n        int256 dscCumulativeTransferAmount, int256 dscStageAmount,\n        uint256 nonce\n    ) {\n        (activeBalanceAmount, activeBalanceBlockNumber) = balanceTracker.fungibleActiveRecord(\n            wallet, currency\n        );\n\n        if (driipSettlementChallengeState.hasProposal(wallet, currency)) {\n            if (!driipSettlementChallengeState.hasProposalTerminated(wallet, currency)) {\n                dscCumulativeTransferAmount = driipSettlementChallengeState.proposalCumulativeTransferAmount(wallet, currency);\n                dscStageAmount = driipSettlementChallengeState.proposalStageAmount(wallet, currency);\n            }\n\n            nonce = driipSettlementChallengeState.proposalNonce(wallet, currency);\n        }\n\n        if (nullSettlementChallengeState.hasProposal(wallet, currency))\n            nonce = nonce.clampMin(nullSettlementChallengeState.proposalNonce(wallet, currency));\n    }\n}\n",
  "sourcePath": "/opt/buildagent/work/855e104608380c36/contracts/NullSettlementChallengeByPayment.sol",
  "compiler": {
    "name": "solc",
    "version": "0.4.25+commit.59dbf8f1.Emscripten.clang"
  },
  "schemaVersion": "2.0.2",
  "updatedAt": "2019-04-18T00:23:49.741Z"
}