{
  "contractName": "NullSettlementDisputeByTrade",
  "abi": [
    {
      "constant": false,
      "inputs": [
        {
          "name": "newFraudChallenge",
          "type": "address"
        }
      ],
      "name": "setFraudChallenge",
      "outputs": [],
      "payable": false,
      "stateMutability": "nonpayable",
      "type": "function"
    },
    {
      "constant": true,
      "inputs": [],
      "name": "cancelOrdersChallenge",
      "outputs": [
        {
          "name": "",
          "type": "address"
        }
      ],
      "payable": false,
      "stateMutability": "view",
      "type": "function"
    },
    {
      "constant": true,
      "inputs": [],
      "name": "CHALLENGE_BY_TRADE_ACTION",
      "outputs": [
        {
          "name": "",
          "type": "string"
        }
      ],
      "payable": false,
      "stateMutability": "view",
      "type": "function"
    },
    {
      "constant": false,
      "inputs": [
        {
          "name": "newValidator",
          "type": "address"
        }
      ],
      "name": "setValidator",
      "outputs": [],
      "payable": false,
      "stateMutability": "nonpayable",
      "type": "function"
    },
    {
      "constant": true,
      "inputs": [],
      "name": "CHALLENGE_BY_ORDER_ACTION",
      "outputs": [
        {
          "name": "",
          "type": "string"
        }
      ],
      "payable": false,
      "stateMutability": "view",
      "type": "function"
    },
    {
      "constant": true,
      "inputs": [
        {
          "name": "service",
          "type": "address"
        }
      ],
      "name": "isRegisteredActiveService",
      "outputs": [
        {
          "name": "",
          "type": "bool"
        }
      ],
      "payable": false,
      "stateMutability": "view",
      "type": "function"
    },
    {
      "constant": true,
      "inputs": [],
      "name": "walletLockerFrozen",
      "outputs": [
        {
          "name": "",
          "type": "bool"
        }
      ],
      "payable": false,
      "stateMutability": "view",
      "type": "function"
    },
    {
      "constant": false,
      "inputs": [],
      "name": "triggerSelfDestruction",
      "outputs": [],
      "payable": false,
      "stateMutability": "nonpayable",
      "type": "function"
    },
    {
      "constant": false,
      "inputs": [
        {
          "name": "service",
          "type": "address"
        },
        {
          "name": "action",
          "type": "string"
        }
      ],
      "name": "enableServiceAction",
      "outputs": [],
      "payable": false,
      "stateMutability": "nonpayable",
      "type": "function"
    },
    {
      "constant": true,
      "inputs": [
        {
          "name": "service",
          "type": "address"
        }
      ],
      "name": "isRegisteredService",
      "outputs": [
        {
          "name": "",
          "type": "bool"
        }
      ],
      "payable": false,
      "stateMutability": "view",
      "type": "function"
    },
    {
      "constant": true,
      "inputs": [],
      "name": "selfDestructionDisabled",
      "outputs": [
        {
          "name": "",
          "type": "bool"
        }
      ],
      "payable": false,
      "stateMutability": "view",
      "type": "function"
    },
    {
      "constant": true,
      "inputs": [],
      "name": "validator",
      "outputs": [
        {
          "name": "",
          "type": "address"
        }
      ],
      "payable": false,
      "stateMutability": "view",
      "type": "function"
    },
    {
      "constant": false,
      "inputs": [
        {
          "name": "service",
          "type": "address"
        },
        {
          "name": "action",
          "type": "string"
        }
      ],
      "name": "disableServiceAction",
      "outputs": [],
      "payable": false,
      "stateMutability": "nonpayable",
      "type": "function"
    },
    {
      "constant": true,
      "inputs": [],
      "name": "serviceActivationTimeout",
      "outputs": [
        {
          "name": "",
          "type": "uint256"
        }
      ],
      "payable": false,
      "stateMutability": "view",
      "type": "function"
    },
    {
      "constant": true,
      "inputs": [],
      "name": "fraudChallenge",
      "outputs": [
        {
          "name": "",
          "type": "address"
        }
      ],
      "payable": false,
      "stateMutability": "view",
      "type": "function"
    },
    {
      "constant": false,
      "inputs": [
        {
          "name": "newCancelOrdersChallenge",
          "type": "address"
        }
      ],
      "name": "setCancelOrdersChallenge",
      "outputs": [],
      "payable": false,
      "stateMutability": "nonpayable",
      "type": "function"
    },
    {
      "constant": true,
      "inputs": [],
      "name": "destructor",
      "outputs": [
        {
          "name": "",
          "type": "address"
        }
      ],
      "payable": false,
      "stateMutability": "view",
      "type": "function"
    },
    {
      "constant": false,
      "inputs": [
        {
          "name": "service",
          "type": "address"
        }
      ],
      "name": "deregisterService",
      "outputs": [],
      "payable": false,
      "stateMutability": "nonpayable",
      "type": "function"
    },
    {
      "constant": true,
      "inputs": [],
      "name": "operator",
      "outputs": [
        {
          "name": "",
          "type": "address"
        }
      ],
      "payable": false,
      "stateMutability": "view",
      "type": "function"
    },
    {
      "constant": false,
      "inputs": [],
      "name": "freezeWalletLocker",
      "outputs": [],
      "payable": false,
      "stateMutability": "nonpayable",
      "type": "function"
    },
    {
      "constant": true,
      "inputs": [
        {
          "name": "service",
          "type": "address"
        },
        {
          "name": "action",
          "type": "string"
        }
      ],
      "name": "isEnabledServiceAction",
      "outputs": [
        {
          "name": "",
          "type": "bool"
        }
      ],
      "payable": false,
      "stateMutability": "view",
      "type": "function"
    },
    {
      "constant": false,
      "inputs": [
        {
          "name": "newConfiguration",
          "type": "address"
        }
      ],
      "name": "setConfiguration",
      "outputs": [],
      "payable": false,
      "stateMutability": "nonpayable",
      "type": "function"
    },
    {
      "constant": false,
      "inputs": [
        {
          "name": "newSecurityBond",
          "type": "address"
        }
      ],
      "name": "setSecurityBond",
      "outputs": [],
      "payable": false,
      "stateMutability": "nonpayable",
      "type": "function"
    },
    {
      "constant": true,
      "inputs": [],
      "name": "securityBond",
      "outputs": [
        {
          "name": "",
          "type": "address"
        }
      ],
      "payable": false,
      "stateMutability": "view",
      "type": "function"
    },
    {
      "constant": true,
      "inputs": [],
      "name": "configuration",
      "outputs": [
        {
          "name": "",
          "type": "address"
        }
      ],
      "payable": false,
      "stateMutability": "view",
      "type": "function"
    },
    {
      "constant": false,
      "inputs": [],
      "name": "disableSelfDestruction",
      "outputs": [],
      "payable": false,
      "stateMutability": "nonpayable",
      "type": "function"
    },
    {
      "constant": false,
      "inputs": [
        {
          "name": "timeoutInSeconds",
          "type": "uint256"
        }
      ],
      "name": "setServiceActivationTimeout",
      "outputs": [],
      "payable": false,
      "stateMutability": "nonpayable",
      "type": "function"
    },
    {
      "constant": false,
      "inputs": [
        {
          "name": "newWalletLocker",
          "type": "address"
        }
      ],
      "name": "setWalletLocker",
      "outputs": [],
      "payable": false,
      "stateMutability": "nonpayable",
      "type": "function"
    },
    {
      "constant": false,
      "inputs": [
        {
          "name": "service",
          "type": "address"
        }
      ],
      "name": "registerServiceDeferred",
      "outputs": [],
      "payable": false,
      "stateMutability": "nonpayable",
      "type": "function"
    },
    {
      "constant": false,
      "inputs": [
        {
          "name": "newDeployer",
          "type": "address"
        }
      ],
      "name": "setDeployer",
      "outputs": [],
      "payable": false,
      "stateMutability": "nonpayable",
      "type": "function"
    },
    {
      "constant": false,
      "inputs": [
        {
          "name": "newOperator",
          "type": "address"
        }
      ],
      "name": "setOperator",
      "outputs": [],
      "payable": false,
      "stateMutability": "nonpayable",
      "type": "function"
    },
    {
      "constant": true,
      "inputs": [],
      "name": "deployer",
      "outputs": [
        {
          "name": "",
          "type": "address"
        }
      ],
      "payable": false,
      "stateMutability": "view",
      "type": "function"
    },
    {
      "constant": true,
      "inputs": [],
      "name": "walletLocker",
      "outputs": [
        {
          "name": "",
          "type": "address"
        }
      ],
      "payable": false,
      "stateMutability": "view",
      "type": "function"
    },
    {
      "constant": true,
      "inputs": [],
      "name": "nullSettlementChallengeState",
      "outputs": [
        {
          "name": "",
          "type": "address"
        }
      ],
      "payable": false,
      "stateMutability": "view",
      "type": "function"
    },
    {
      "constant": false,
      "inputs": [
        {
          "name": "service",
          "type": "address"
        }
      ],
      "name": "registerService",
      "outputs": [],
      "payable": false,
      "stateMutability": "nonpayable",
      "type": "function"
    },
    {
      "inputs": [
        {
          "name": "deployer",
          "type": "address"
        }
      ],
      "payable": false,
      "stateMutability": "nonpayable",
      "type": "constructor"
    },
    {
      "anonymous": false,
      "inputs": [
        {
          "indexed": false,
          "name": "oldNullSettlementChallengeState",
          "type": "address"
        },
        {
          "indexed": false,
          "name": "newNullSettlementChallengeState",
          "type": "address"
        }
      ],
      "name": "SetNullSettlementChallengeStateEvent",
      "type": "event"
    },
    {
      "anonymous": false,
      "inputs": [
        {
          "indexed": false,
          "name": "nonce",
          "type": "uint256"
        },
        {
          "components": [
            {
              "name": "nonce",
              "type": "uint256"
            },
            {
              "name": "wallet",
              "type": "address"
            },
            {
              "components": [
                {
                  "name": "intention",
                  "type": "uint8"
                },
                {
                  "name": "amount",
                  "type": "int256"
                },
                {
                  "components": [
                    {
                      "components": [
                        {
                          "name": "ct",
                          "type": "address"
                        },
                        {
                          "name": "id",
                          "type": "uint256"
                        }
                      ],
                      "name": "intended",
                      "type": "tuple"
                    },
                    {
                      "components": [
                        {
                          "name": "ct",
                          "type": "address"
                        },
                        {
                          "name": "id",
                          "type": "uint256"
                        }
                      ],
                      "name": "conjugate",
                      "type": "tuple"
                    }
                  ],
                  "name": "currencies",
                  "type": "tuple"
                },
                {
                  "name": "rate",
                  "type": "int256"
                },
                {
                  "components": [
                    {
                      "name": "current",
                      "type": "int256"
                    },
                    {
                      "name": "previous",
                      "type": "int256"
                    }
                  ],
                  "name": "residuals",
                  "type": "tuple"
                }
              ],
              "name": "placement",
              "type": "tuple"
            },
            {
              "components": [
                {
                  "components": [
                    {
                      "name": "hash",
                      "type": "bytes32"
                    },
                    {
                      "components": [
                        {
                          "name": "r",
                          "type": "bytes32"
                        },
                        {
                          "name": "s",
                          "type": "bytes32"
                        },
                        {
                          "name": "v",
                          "type": "uint8"
                        }
                      ],
                      "name": "signature",
                      "type": "tuple"
                    }
                  ],
                  "name": "wallet",
                  "type": "tuple"
                },
                {
                  "components": [
                    {
                      "name": "hash",
                      "type": "bytes32"
                    },
                    {
                      "components": [
                        {
                          "name": "r",
                          "type": "bytes32"
                        },
                        {
                          "name": "s",
                          "type": "bytes32"
                        },
                        {
                          "name": "v",
                          "type": "uint8"
                        }
                      ],
                      "name": "signature",
                      "type": "tuple"
                    }
                  ],
                  "name": "operator",
                  "type": "tuple"
                }
              ],
              "name": "seals",
              "type": "tuple"
            },
            {
              "name": "blockNumber",
              "type": "uint256"
            },
            {
              "name": "operatorId",
              "type": "uint256"
            }
          ],
          "indexed": false,
          "name": "order",
          "type": "tuple"
        },
        {
          "indexed": false,
          "name": "challenger",
          "type": "address"
        }
      ],
      "name": "ChallengeByOrderEvent",
      "type": "event"
    },
    {
      "anonymous": false,
      "inputs": [
        {
          "indexed": false,
          "name": "wallet",
          "type": "address"
        },
        {
          "indexed": false,
          "name": "nonce",
          "type": "uint256"
        },
        {
          "components": [
            {
              "name": "nonce",
              "type": "uint256"
            },
            {
              "name": "amount",
              "type": "int256"
            },
            {
              "components": [
                {
                  "components": [
                    {
                      "name": "ct",
                      "type": "address"
                    },
                    {
                      "name": "id",
                      "type": "uint256"
                    }
                  ],
                  "name": "intended",
                  "type": "tuple"
                },
                {
                  "components": [
                    {
                      "name": "ct",
                      "type": "address"
                    },
                    {
                      "name": "id",
                      "type": "uint256"
                    }
                  ],
                  "name": "conjugate",
                  "type": "tuple"
                }
              ],
              "name": "currencies",
              "type": "tuple"
            },
            {
              "name": "rate",
              "type": "int256"
            },
            {
              "components": [
                {
                  "name": "nonce",
                  "type": "uint256"
                },
                {
                  "name": "wallet",
                  "type": "address"
                },
                {
                  "name": "rollingVolume",
                  "type": "uint256"
                },
                {
                  "name": "liquidityRole",
                  "type": "uint8"
                },
                {
                  "components": [
                    {
                      "name": "amount",
                      "type": "int256"
                    },
                    {
                      "components": [
                        {
                          "name": "wallet",
                          "type": "bytes32"
                        },
                        {
                          "name": "operator",
                          "type": "bytes32"
                        }
                      ],
                      "name": "hashes",
                      "type": "tuple"
                    },
                    {
                      "components": [
                        {
                          "name": "current",
                          "type": "int256"
                        },
                        {
                          "name": "previous",
                          "type": "int256"
                        }
                      ],
                      "name": "residuals",
                      "type": "tuple"
                    }
                  ],
                  "name": "order",
                  "type": "tuple"
                },
                {
                  "components": [
                    {
                      "components": [
                        {
                          "name": "current",
                          "type": "int256"
                        },
                        {
                          "name": "previous",
                          "type": "int256"
                        }
                      ],
                      "name": "intended",
                      "type": "tuple"
                    },
                    {
                      "components": [
                        {
                          "name": "current",
                          "type": "int256"
                        },
                        {
                          "name": "previous",
                          "type": "int256"
                        }
                      ],
                      "name": "conjugate",
                      "type": "tuple"
                    }
                  ],
                  "name": "balances",
                  "type": "tuple"
                },
                {
                  "components": [
                    {
                      "components": [
                        {
                          "name": "amount",
                          "type": "int256"
                        },
                        {
                          "components": [
                            {
                              "name": "ct",
                              "type": "address"
                            },
                            {
                              "name": "id",
                              "type": "uint256"
                            }
                          ],
                          "name": "currency",
                          "type": "tuple"
                        }
                      ],
                      "name": "single",
                      "type": "tuple"
                    },
                    {
                      "components": [
                        {
                          "name": "originId",
                          "type": "uint256"
                        },
                        {
                          "components": [
                            {
                              "name": "amount",
                              "type": "int256"
                            },
                            {
                              "components": [
                                {
                                  "name": "ct",
                                  "type": "address"
                                },
                                {
                                  "name": "id",
                                  "type": "uint256"
                                }
                              ],
                              "name": "currency",
                              "type": "tuple"
                            }
                          ],
                          "name": "figure",
                          "type": "tuple"
                        }
                      ],
                      "name": "total",
                      "type": "tuple[]"
                    }
                  ],
                  "name": "fees",
                  "type": "tuple"
                }
              ],
              "name": "buyer",
              "type": "tuple"
            },
            {
              "components": [
                {
                  "name": "nonce",
                  "type": "uint256"
                },
                {
                  "name": "wallet",
                  "type": "address"
                },
                {
                  "name": "rollingVolume",
                  "type": "uint256"
                },
                {
                  "name": "liquidityRole",
                  "type": "uint8"
                },
                {
                  "components": [
                    {
                      "name": "amount",
                      "type": "int256"
                    },
                    {
                      "components": [
                        {
                          "name": "wallet",
                          "type": "bytes32"
                        },
                        {
                          "name": "operator",
                          "type": "bytes32"
                        }
                      ],
                      "name": "hashes",
                      "type": "tuple"
                    },
                    {
                      "components": [
                        {
                          "name": "current",
                          "type": "int256"
                        },
                        {
                          "name": "previous",
                          "type": "int256"
                        }
                      ],
                      "name": "residuals",
                      "type": "tuple"
                    }
                  ],
                  "name": "order",
                  "type": "tuple"
                },
                {
                  "components": [
                    {
                      "components": [
                        {
                          "name": "current",
                          "type": "int256"
                        },
                        {
                          "name": "previous",
                          "type": "int256"
                        }
                      ],
                      "name": "intended",
                      "type": "tuple"
                    },
                    {
                      "components": [
                        {
                          "name": "current",
                          "type": "int256"
                        },
                        {
                          "name": "previous",
                          "type": "int256"
                        }
                      ],
                      "name": "conjugate",
                      "type": "tuple"
                    }
                  ],
                  "name": "balances",
                  "type": "tuple"
                },
                {
                  "components": [
                    {
                      "components": [
                        {
                          "name": "amount",
                          "type": "int256"
                        },
                        {
                          "components": [
                            {
                              "name": "ct",
                              "type": "address"
                            },
                            {
                              "name": "id",
                              "type": "uint256"
                            }
                          ],
                          "name": "currency",
                          "type": "tuple"
                        }
                      ],
                      "name": "single",
                      "type": "tuple"
                    },
                    {
                      "components": [
                        {
                          "name": "originId",
                          "type": "uint256"
                        },
                        {
                          "components": [
                            {
                              "name": "amount",
                              "type": "int256"
                            },
                            {
                              "components": [
                                {
                                  "name": "ct",
                                  "type": "address"
                                },
                                {
                                  "name": "id",
                                  "type": "uint256"
                                }
                              ],
                              "name": "currency",
                              "type": "tuple"
                            }
                          ],
                          "name": "figure",
                          "type": "tuple"
                        }
                      ],
                      "name": "total",
                      "type": "tuple[]"
                    }
                  ],
                  "name": "fees",
                  "type": "tuple"
                }
              ],
              "name": "seller",
              "type": "tuple"
            },
            {
              "components": [
                {
                  "components": [
                    {
                      "name": "single",
                      "type": "int256"
                    },
                    {
                      "name": "total",
                      "type": "int256"
                    }
                  ],
                  "name": "intended",
                  "type": "tuple"
                },
                {
                  "components": [
                    {
                      "name": "single",
                      "type": "int256"
                    },
                    {
                      "name": "total",
                      "type": "int256"
                    }
                  ],
                  "name": "conjugate",
                  "type": "tuple"
                }
              ],
              "name": "transfers",
              "type": "tuple"
            },
            {
              "components": [
                {
                  "name": "hash",
                  "type": "bytes32"
                },
                {
                  "components": [
                    {
                      "name": "r",
                      "type": "bytes32"
                    },
                    {
                      "name": "s",
                      "type": "bytes32"
                    },
                    {
                      "name": "v",
                      "type": "uint8"
                    }
                  ],
                  "name": "signature",
                  "type": "tuple"
                }
              ],
              "name": "seal",
              "type": "tuple"
            },
            {
              "name": "blockNumber",
              "type": "uint256"
            },
            {
              "name": "operatorId",
              "type": "uint256"
            }
          ],
          "indexed": false,
          "name": "trade",
          "type": "tuple"
        },
        {
          "indexed": false,
          "name": "challenger",
          "type": "address"
        }
      ],
      "name": "ChallengeByTradeEvent",
      "type": "event"
    },
    {
      "anonymous": false,
      "inputs": [
        {
          "indexed": false,
          "name": "timeoutInSeconds",
          "type": "uint256"
        }
      ],
      "name": "ServiceActivationTimeoutEvent",
      "type": "event"
    },
    {
      "anonymous": false,
      "inputs": [
        {
          "indexed": false,
          "name": "service",
          "type": "address"
        }
      ],
      "name": "RegisterServiceEvent",
      "type": "event"
    },
    {
      "anonymous": false,
      "inputs": [
        {
          "indexed": false,
          "name": "service",
          "type": "address"
        },
        {
          "indexed": false,
          "name": "timeout",
          "type": "uint256"
        }
      ],
      "name": "RegisterServiceDeferredEvent",
      "type": "event"
    },
    {
      "anonymous": false,
      "inputs": [
        {
          "indexed": false,
          "name": "service",
          "type": "address"
        }
      ],
      "name": "DeregisterServiceEvent",
      "type": "event"
    },
    {
      "anonymous": false,
      "inputs": [
        {
          "indexed": false,
          "name": "service",
          "type": "address"
        },
        {
          "indexed": false,
          "name": "action",
          "type": "string"
        }
      ],
      "name": "EnableServiceActionEvent",
      "type": "event"
    },
    {
      "anonymous": false,
      "inputs": [
        {
          "indexed": false,
          "name": "service",
          "type": "address"
        },
        {
          "indexed": false,
          "name": "action",
          "type": "string"
        }
      ],
      "name": "DisableServiceActionEvent",
      "type": "event"
    },
    {
      "anonymous": false,
      "inputs": [
        {
          "indexed": false,
          "name": "oldCancelOrdersChallenge",
          "type": "address"
        },
        {
          "indexed": false,
          "name": "newCancelOrdersChallenge",
          "type": "address"
        }
      ],
      "name": "SetCancelOrdersChallengeEvent",
      "type": "event"
    },
    {
      "anonymous": false,
      "inputs": [
        {
          "indexed": false,
          "name": "oldFraudChallenge",
          "type": "address"
        },
        {
          "indexed": false,
          "name": "newFraudChallenge",
          "type": "address"
        }
      ],
      "name": "SetFraudChallengeEvent",
      "type": "event"
    },
    {
      "anonymous": false,
      "inputs": [
        {
          "indexed": false,
          "name": "oldWalletLocker",
          "type": "address"
        },
        {
          "indexed": false,
          "name": "newWalletLocker",
          "type": "address"
        }
      ],
      "name": "SetWalletLockerEvent",
      "type": "event"
    },
    {
      "anonymous": false,
      "inputs": [],
      "name": "FreezeWalletLockerEvent",
      "type": "event"
    },
    {
      "anonymous": false,
      "inputs": [
        {
          "indexed": false,
          "name": "oldSecurityBond",
          "type": "address"
        },
        {
          "indexed": false,
          "name": "newSecurityBond",
          "type": "address"
        }
      ],
      "name": "SetSecurityBondEvent",
      "type": "event"
    },
    {
      "anonymous": false,
      "inputs": [
        {
          "indexed": false,
          "name": "oldValidator",
          "type": "address"
        },
        {
          "indexed": false,
          "name": "newValidator",
          "type": "address"
        }
      ],
      "name": "SetValidatorEvent",
      "type": "event"
    },
    {
      "anonymous": false,
      "inputs": [
        {
          "indexed": false,
          "name": "oldConfiguration",
          "type": "address"
        },
        {
          "indexed": false,
          "name": "newConfiguration",
          "type": "address"
        }
      ],
      "name": "SetConfigurationEvent",
      "type": "event"
    },
    {
      "anonymous": false,
      "inputs": [
        {
          "indexed": false,
          "name": "oldDeployer",
          "type": "address"
        },
        {
          "indexed": false,
          "name": "newDeployer",
          "type": "address"
        }
      ],
      "name": "SetDeployerEvent",
      "type": "event"
    },
    {
      "anonymous": false,
      "inputs": [
        {
          "indexed": false,
          "name": "oldOperator",
          "type": "address"
        },
        {
          "indexed": false,
          "name": "newOperator",
          "type": "address"
        }
      ],
      "name": "SetOperatorEvent",
      "type": "event"
    },
    {
      "anonymous": false,
      "inputs": [
        {
          "indexed": false,
          "name": "wallet",
          "type": "address"
        }
      ],
      "name": "SelfDestructionDisabledEvent",
      "type": "event"
    },
    {
      "anonymous": false,
      "inputs": [
        {
          "indexed": false,
          "name": "wallet",
          "type": "address"
        }
      ],
      "name": "TriggerSelfDestructionEvent",
      "type": "event"
    },
    {
      "constant": false,
      "inputs": [
        {
          "name": "newNullSettlementChallengeState",
          "type": "address"
        }
      ],
      "name": "setNullSettlementChallengeState",
      "outputs": [],
      "payable": false,
      "stateMutability": "nonpayable",
      "type": "function"
    },
    {
      "constant": false,
      "inputs": [
        {
          "components": [
            {
              "name": "nonce",
              "type": "uint256"
            },
            {
              "name": "wallet",
              "type": "address"
            },
            {
              "components": [
                {
                  "name": "intention",
                  "type": "uint8"
                },
                {
                  "name": "amount",
                  "type": "int256"
                },
                {
                  "components": [
                    {
                      "components": [
                        {
                          "name": "ct",
                          "type": "address"
                        },
                        {
                          "name": "id",
                          "type": "uint256"
                        }
                      ],
                      "name": "intended",
                      "type": "tuple"
                    },
                    {
                      "components": [
                        {
                          "name": "ct",
                          "type": "address"
                        },
                        {
                          "name": "id",
                          "type": "uint256"
                        }
                      ],
                      "name": "conjugate",
                      "type": "tuple"
                    }
                  ],
                  "name": "currencies",
                  "type": "tuple"
                },
                {
                  "name": "rate",
                  "type": "int256"
                },
                {
                  "components": [
                    {
                      "name": "current",
                      "type": "int256"
                    },
                    {
                      "name": "previous",
                      "type": "int256"
                    }
                  ],
                  "name": "residuals",
                  "type": "tuple"
                }
              ],
              "name": "placement",
              "type": "tuple"
            },
            {
              "components": [
                {
                  "components": [
                    {
                      "name": "hash",
                      "type": "bytes32"
                    },
                    {
                      "components": [
                        {
                          "name": "r",
                          "type": "bytes32"
                        },
                        {
                          "name": "s",
                          "type": "bytes32"
                        },
                        {
                          "name": "v",
                          "type": "uint8"
                        }
                      ],
                      "name": "signature",
                      "type": "tuple"
                    }
                  ],
                  "name": "wallet",
                  "type": "tuple"
                },
                {
                  "components": [
                    {
                      "name": "hash",
                      "type": "bytes32"
                    },
                    {
                      "components": [
                        {
                          "name": "r",
                          "type": "bytes32"
                        },
                        {
                          "name": "s",
                          "type": "bytes32"
                        },
                        {
                          "name": "v",
                          "type": "uint8"
                        }
                      ],
                      "name": "signature",
                      "type": "tuple"
                    }
                  ],
                  "name": "operator",
                  "type": "tuple"
                }
              ],
              "name": "seals",
              "type": "tuple"
            },
            {
              "name": "blockNumber",
              "type": "uint256"
            },
            {
              "name": "operatorId",
              "type": "uint256"
            }
          ],
          "name": "order",
          "type": "tuple"
        },
        {
          "name": "challenger",
          "type": "address"
        }
      ],
      "name": "challengeByOrder",
      "outputs": [],
      "payable": false,
      "stateMutability": "nonpayable",
      "type": "function"
    },
    {
      "constant": false,
      "inputs": [
        {
          "name": "wallet",
          "type": "address"
        },
        {
          "components": [
            {
              "name": "nonce",
              "type": "uint256"
            },
            {
              "name": "amount",
              "type": "int256"
            },
            {
              "components": [
                {
                  "components": [
                    {
                      "name": "ct",
                      "type": "address"
                    },
                    {
                      "name": "id",
                      "type": "uint256"
                    }
                  ],
                  "name": "intended",
                  "type": "tuple"
                },
                {
                  "components": [
                    {
                      "name": "ct",
                      "type": "address"
                    },
                    {
                      "name": "id",
                      "type": "uint256"
                    }
                  ],
                  "name": "conjugate",
                  "type": "tuple"
                }
              ],
              "name": "currencies",
              "type": "tuple"
            },
            {
              "name": "rate",
              "type": "int256"
            },
            {
              "components": [
                {
                  "name": "nonce",
                  "type": "uint256"
                },
                {
                  "name": "wallet",
                  "type": "address"
                },
                {
                  "name": "rollingVolume",
                  "type": "uint256"
                },
                {
                  "name": "liquidityRole",
                  "type": "uint8"
                },
                {
                  "components": [
                    {
                      "name": "amount",
                      "type": "int256"
                    },
                    {
                      "components": [
                        {
                          "name": "wallet",
                          "type": "bytes32"
                        },
                        {
                          "name": "operator",
                          "type": "bytes32"
                        }
                      ],
                      "name": "hashes",
                      "type": "tuple"
                    },
                    {
                      "components": [
                        {
                          "name": "current",
                          "type": "int256"
                        },
                        {
                          "name": "previous",
                          "type": "int256"
                        }
                      ],
                      "name": "residuals",
                      "type": "tuple"
                    }
                  ],
                  "name": "order",
                  "type": "tuple"
                },
                {
                  "components": [
                    {
                      "components": [
                        {
                          "name": "current",
                          "type": "int256"
                        },
                        {
                          "name": "previous",
                          "type": "int256"
                        }
                      ],
                      "name": "intended",
                      "type": "tuple"
                    },
                    {
                      "components": [
                        {
                          "name": "current",
                          "type": "int256"
                        },
                        {
                          "name": "previous",
                          "type": "int256"
                        }
                      ],
                      "name": "conjugate",
                      "type": "tuple"
                    }
                  ],
                  "name": "balances",
                  "type": "tuple"
                },
                {
                  "components": [
                    {
                      "components": [
                        {
                          "name": "amount",
                          "type": "int256"
                        },
                        {
                          "components": [
                            {
                              "name": "ct",
                              "type": "address"
                            },
                            {
                              "name": "id",
                              "type": "uint256"
                            }
                          ],
                          "name": "currency",
                          "type": "tuple"
                        }
                      ],
                      "name": "single",
                      "type": "tuple"
                    },
                    {
                      "components": [
                        {
                          "name": "originId",
                          "type": "uint256"
                        },
                        {
                          "components": [
                            {
                              "name": "amount",
                              "type": "int256"
                            },
                            {
                              "components": [
                                {
                                  "name": "ct",
                                  "type": "address"
                                },
                                {
                                  "name": "id",
                                  "type": "uint256"
                                }
                              ],
                              "name": "currency",
                              "type": "tuple"
                            }
                          ],
                          "name": "figure",
                          "type": "tuple"
                        }
                      ],
                      "name": "total",
                      "type": "tuple[]"
                    }
                  ],
                  "name": "fees",
                  "type": "tuple"
                }
              ],
              "name": "buyer",
              "type": "tuple"
            },
            {
              "components": [
                {
                  "name": "nonce",
                  "type": "uint256"
                },
                {
                  "name": "wallet",
                  "type": "address"
                },
                {
                  "name": "rollingVolume",
                  "type": "uint256"
                },
                {
                  "name": "liquidityRole",
                  "type": "uint8"
                },
                {
                  "components": [
                    {
                      "name": "amount",
                      "type": "int256"
                    },
                    {
                      "components": [
                        {
                          "name": "wallet",
                          "type": "bytes32"
                        },
                        {
                          "name": "operator",
                          "type": "bytes32"
                        }
                      ],
                      "name": "hashes",
                      "type": "tuple"
                    },
                    {
                      "components": [
                        {
                          "name": "current",
                          "type": "int256"
                        },
                        {
                          "name": "previous",
                          "type": "int256"
                        }
                      ],
                      "name": "residuals",
                      "type": "tuple"
                    }
                  ],
                  "name": "order",
                  "type": "tuple"
                },
                {
                  "components": [
                    {
                      "components": [
                        {
                          "name": "current",
                          "type": "int256"
                        },
                        {
                          "name": "previous",
                          "type": "int256"
                        }
                      ],
                      "name": "intended",
                      "type": "tuple"
                    },
                    {
                      "components": [
                        {
                          "name": "current",
                          "type": "int256"
                        },
                        {
                          "name": "previous",
                          "type": "int256"
                        }
                      ],
                      "name": "conjugate",
                      "type": "tuple"
                    }
                  ],
                  "name": "balances",
                  "type": "tuple"
                },
                {
                  "components": [
                    {
                      "components": [
                        {
                          "name": "amount",
                          "type": "int256"
                        },
                        {
                          "components": [
                            {
                              "name": "ct",
                              "type": "address"
                            },
                            {
                              "name": "id",
                              "type": "uint256"
                            }
                          ],
                          "name": "currency",
                          "type": "tuple"
                        }
                      ],
                      "name": "single",
                      "type": "tuple"
                    },
                    {
                      "components": [
                        {
                          "name": "originId",
                          "type": "uint256"
                        },
                        {
                          "components": [
                            {
                              "name": "amount",
                              "type": "int256"
                            },
                            {
                              "components": [
                                {
                                  "name": "ct",
                                  "type": "address"
                                },
                                {
                                  "name": "id",
                                  "type": "uint256"
                                }
                              ],
                              "name": "currency",
                              "type": "tuple"
                            }
                          ],
                          "name": "figure",
                          "type": "tuple"
                        }
                      ],
                      "name": "total",
                      "type": "tuple[]"
                    }
                  ],
                  "name": "fees",
                  "type": "tuple"
                }
              ],
              "name": "seller",
              "type": "tuple"
            },
            {
              "components": [
                {
                  "components": [
                    {
                      "name": "single",
                      "type": "int256"
                    },
                    {
                      "name": "total",
                      "type": "int256"
                    }
                  ],
                  "name": "intended",
                  "type": "tuple"
                },
                {
                  "components": [
                    {
                      "name": "single",
                      "type": "int256"
                    },
                    {
                      "name": "total",
                      "type": "int256"
                    }
                  ],
                  "name": "conjugate",
                  "type": "tuple"
                }
              ],
              "name": "transfers",
              "type": "tuple"
            },
            {
              "components": [
                {
                  "name": "hash",
                  "type": "bytes32"
                },
                {
                  "components": [
                    {
                      "name": "r",
                      "type": "bytes32"
                    },
                    {
                      "name": "s",
                      "type": "bytes32"
                    },
                    {
                      "name": "v",
                      "type": "uint8"
                    }
                  ],
                  "name": "signature",
                  "type": "tuple"
                }
              ],
              "name": "seal",
              "type": "tuple"
            },
            {
              "name": "blockNumber",
              "type": "uint256"
            },
            {
              "name": "operatorId",
              "type": "uint256"
            }
          ],
          "name": "trade",
          "type": "tuple"
        },
        {
          "name": "challenger",
          "type": "address"
        }
      ],
      "name": "challengeByTrade",
      "outputs": [],
      "payable": false,
      "stateMutability": "nonpayable",
      "type": "function"
    }
  ],
  "bytecode": "0x60806040523480156200001157600080fd5b50604051602080620043288339810180604052620000339190810190620000b6565b8080600160a060020a03811615156200004b57600080fd5b600160a060020a0381163014156200006257600080fd5b506000805461010060a860020a031916610100600160a060020a039390931692830217905560018054600160a060020a031916909117905550620000eb565b6000620000af8251620000df565b9392505050565b600060208284031215620000c957600080fd5b6000620000d78484620000a1565b949350505050565b600160a060020a031690565b61422d80620000fb6000396000f3006080604052600436106101be5763ffffffff60e060020a60003504166301370d0681146101c35780630cca956d146101e557806312255c94146102105780631327d3d81461023257806314f3a6331461025257806317ba3f9014610267578063240625d8146102945780632738a112146102a95780632b5672e3146102be5780632b91e0a9146102de5780632f013a00146102fe5780633a5381b5146103135780633b58c501146103285780633b7bea6c146103485780633bd7857f1461036a5780633dad7da41461037f5780634476d23b1461039f57806350b08c02146103c1578063570ca735146103e15780635dc60def146103f65780635df1b0a31461040b578063627f09c31461042b5780636792ce6e1461044b5780636b0570d01461046b5780636c70bee9146104805780636ccb43c81461049557806370327ea1146104b55780637e15dd5c146104ca578063892860b2146104ea5780638e8cef121461050a5780638eed83591461052a578063922726071461054a578063962147351461056a578063b3ab15fb1461058a578063d5f39488146105aa578063e8ae41e3146105bf578063fa7424f2146105d4578063fdd9ec7d146105e9575b600080fd5b3480156101cf57600080fd5b506101e36101de3660046137ef565b610609565b005b3480156101f157600080fd5b506101fa6106b1565b604051610207919061402e565b60405180910390f35b34801561021c57600080fd5b506102256106c0565b6040516102079190614065565b34801561023e57600080fd5b506101e361024d3660046137ef565b6106ef565b34801561025e57600080fd5b50610225610787565b34801561027357600080fd5b506102876102823660046136e0565b6107b6565b6040516102079190614012565b3480156102a057600080fd5b506102876107ee565b3480156102b557600080fd5b506101e36107fe565b3480156102ca57600080fd5b506101e36102d936600461371c565b610864565b3480156102ea57600080fd5b506102876102f93660046136e0565b610994565b34801561030a57600080fd5b506102876109b2565b34801561031f57600080fd5b506101fa6109bb565b34801561033457600080fd5b506101e361034336600461371c565b6109ca565b34801561035457600080fd5b5061035d610aac565b6040516102079190614020565b34801561037657600080fd5b506101fa610ab2565b34801561038b57600080fd5b506101e361039a3660046137ef565b610ac1565b3480156103ab57600080fd5b506103b4610b59565b6040516102079190613dca565b3480156103cd57600080fd5b506101e36103dc3660046136e0565b610b6d565b3480156103ed57600080fd5b506103b4610c2f565b34801561040257600080fd5b506101e3610c3e565b34801561041757600080fd5b5061028761042636600461371c565b610c92565b34801561043757600080fd5b506101e36104463660046137ef565b610ce3565b34801561045757600080fd5b506101e36104663660046137ef565b610d7b565b34801561047757600080fd5b506101fa610e13565b34801561048c57600080fd5b506101fa610e22565b3480156104a157600080fd5b506101e36104b03660046137ef565b610e31565b3480156104c157600080fd5b506101e3610ec2565b3480156104d657600080fd5b506101e36104e53660046138f2565b610f25565b3480156104f657600080fd5b506101e36105053660046137ef565b610f78565b34801561051657600080fd5b506101e36105253660046136e0565b611027565b34801561053657600080fd5b506101e36105453660046138c0565b6110a5565b34801561055657600080fd5b506101e361056536600461376d565b6117a4565b34801561057657600080fd5b506101e36105853660046136e0565b611fc6565b34801561059657600080fd5b506101e36105a53660046136e0565b612084565b3480156105b657600080fd5b506103b461212e565b3480156105cb57600080fd5b506101fa612142565b3480156105e057600080fd5b506101fa612151565b3480156105f557600080fd5b506101e36106043660046136e0565b612160565b60006106136121d9565b151561061e57600080fd5b81600160a060020a038116151561063457600080fd5b6006548390600160a060020a0390811690821681146106aa5760068054600160a060020a03878116600160a060020a0319831617909255604051911694507f07998fa7be97abe2427246ae4688298c89d6196bbffdf0997b9495a8d27bc673906106a1908690889061403c565b60405180910390a15b5050505050565b600754600160a060020a031681565b6040805180820190915260128152607060020a716368616c6c656e67655f62795f747261646502602082015281565b60006106f96121d9565b151561070457600080fd5b81600160a060020a038116151561071a57600080fd5b6003548390600160a060020a0390811690821681146106aa5760038054600160a060020a03878116600160a060020a0319831617909255604051911694507f1882af944a16549c3d4f60e3cd26f158b0c7aac3222cf32971fc21375ce05f60906106a1908690889061403c565b6040805180820190915260128152607160020a7131b430b63632b733b2afb13cafb7b93232b902602082015281565b60006107c182610994565b80156107e85750600160a060020a0382166000908152600860205260409020600101544210155b92915050565b60055460a060020a900460ff1681565b33610807610b59565b600160a060020a03161461081a57600080fd5b60005460ff161561082a57600080fd5b7f787a5d936e74f4b564b9153575886059829c78cd9927b1be5e0d976b317ef736336040516108599190613dca565b60405180910390a133ff5b600061086e6121d9565b151561087957600080fd5b82600160a060020a038116151561088f57600080fd5b600160a060020a0381163014156108a557600080fd5b600160a060020a03841660009081526008602052604090205460ff1615156108cc57600080fd5b6108d5836121ef565b600160a060020a038516600090815260086020908152604080832084845260020190915290205490925060ff161561090c57600080fd5b600160a060020a0384166000908152600860208181526040808420868552600281018352818520805460ff19166001908117909155938352600301805493840181558452922001839055517fec1b982d69bfc1a6fd8becf191d9a633486c822d3bdedd52303ca81fa6357501906109869086908690613f11565b60405180910390a150505050565b600160a060020a031660009081526008602052604090205460ff1690565b60005460ff1681565b600354600160a060020a031681565b60006109d46121d9565b15156109df57600080fd5b82600160a060020a03811615156109f557600080fd5b600160a060020a038116301415610a0b57600080fd5b610a14836121ef565b600160a060020a038516600090815260086020908152604080832084845260020190915290205490925060ff161515610a4c57600080fd5b600160a060020a038416600090815260086020908152604080832085845260020190915290819020805460ff19169055517f92f4af6130f47c92f3899e06611c8c6ef191fb81207ad2675d134af619d2fe7d906109869086908690613f11565b60095481565b600654600160a060020a031681565b6000610acb6121d9565b1515610ad657600080fd5b81600160a060020a0381161515610aec57600080fd5b6007548390600160a060020a0390811690821681146106aa5760078054600160a060020a03878116600160a060020a0319831617909255604051911694507fafe0f82771e36e01015c06151eff69190d6796b6359da2780a8dd89ded9b2205906106a1908690889061403c565b6000546101009004600160a060020a031690565b610b756121d9565b1515610b8057600080fd5b80600160a060020a0381161515610b9657600080fd5b600160a060020a038116301415610bac57600080fd5b600160a060020a03821660009081526008602052604090205460ff161515610bd357600080fd5b600160a060020a03821660009081526008602052604090819020805460ff19169055517f777645c5437dfbf962f57a281ead25f3d513f2f8e938685bbfc1738e81c9880e90610c23908490613dca565b60405180910390a15050565b600154600160a060020a031681565b610c466121d9565b1515610c5157600080fd5b6005805460a060020a60ff02191660a060020a1790556040517f56ec8900b9c4bf84f4b715a53068ca06961dd49084c07b481931e2c2045346e690600090a1565b600080610c9e836121ef565b9050610ca9846107b6565b8015610cdb5750600160a060020a038416600090815260086020908152604080832084845260020190915290205460ff165b949350505050565b6000610ced6121d9565b1515610cf857600080fd5b81600160a060020a0381161515610d0e57600080fd5b6002548390600160a060020a0390811690821681146106aa5760028054600160a060020a03878116600160a060020a0319831617909255604051911694507f634f61bf00e14adedce330c80c2823e16e184f189ebe853e1ddecc4a268477ff906106a1908690889061403c565b6000610d856121d9565b1515610d9057600080fd5b81600160a060020a0381161515610da657600080fd5b6004548390600160a060020a0390811690821681146106aa5760048054600160a060020a03878116600160a060020a0319831617909255604051911694507fc9f3f00c1760fe26985aeacb814a21c56ea289d680562e89b249681b08c30382906106a1908690889061403c565b600454600160a060020a031681565b600254600160a060020a031681565b6000610e3b6121d9565b1515610e4657600080fd5b81600160a060020a0381161515610e5c57600080fd5b600a8054600160a060020a03858116600160a060020a03198316179283905560405191811694507ff21c127205310467822e10c64b2d9ffae588e019194d6af71f2bdddc0b7ef52692610eb5928692919091169061403c565b60405180910390a1505050565b33610ecb610b59565b600160a060020a031614610ede57600080fd5b6000805460ff191660011790556040517fd5a2a04a775c741c2ca0dc46ea7ce4835190e1aaf1ca018def0e82568ec3361690610f1b903390613dca565b60405180910390a1565b610f2d6121d9565b1515610f3857600080fd5b60098190556040517f4f1d324a1cbffc352fb64f1d73d95e4b200d92f99ef39bf2d7f5b41f946909d690610f6d908390614020565b60405180910390a150565b6000610f826121d9565b1515610f8d57600080fd5b81600160a060020a0381161515610fa357600080fd5b6005548390600160a060020a0390811690821681146106aa5760055460a060020a900460ff1615610fd357600080fd5b60058054600160a060020a03878116600160a060020a0319831617909255604051911694507fa44d361e26327b72a7ccbeae801b3c5cd7677ea4fa74168b289e273c46bfecfc906106a1908690889061403c565b61102f6121d9565b151561103a57600080fd5b80600160a060020a038116151561105057600080fd5b600160a060020a03811630141561106657600080fd5b611072826009546122b9565b7f7f3a8349917003ed377f6e9ae1608b92edd893903f8983bd274b1f8373dd3b1182600954604051610c23929190613eaa565b6110ad612f5a565b6040805180820190915260128152607160020a7131b430b63632b733b2afb13cafb7b93232b90260208201526110e33382610c92565b15156110ee57600080fd5b60035460405160e060020a6331f2978b0281528591600160a060020a0316906331f2978b90611121908490600401614076565b602060405180830381600087803b15801561113b57600080fd5b505af115801561114f573d6000803e3d6000fd5b505050506040513d601f19601f8201168201806040525061117391908101906137d1565b151561117e57600080fd5b6006546060860151602001515160405160e060020a63e1f5828b028152600160a060020a039092169163e1f5828b916111b991600401614020565b602060405180830381600087803b1580156111d357600080fd5b505af11580156111e7573d6000803e3d6000fd5b505050506040513d601f19601f8201168201806040525061120b91908101906137d1565b1561121557600080fd5b6007546020808701516060880151909101515160405160e160020a634deaf58b028152600160a060020a0390931692639bd5eb1692611258929091600401613eaa565b602060405180830381600087803b15801561127257600080fd5b505af1158015611286573d6000803e3d6000fd5b505050506040513d601f19601f820116820180604052506112aa91908101906137d1565b156112b457600080fd5b6112bd8561230b565b600a54602087015160405160e360020a63076470a5028152929550600160a060020a0390911691633b238528916112f8918790600401613f31565b602060405180830381600087803b15801561131257600080fd5b505af1158015611326573d6000803e3d6000fd5b505050506040513d601f19601f8201168201806040525061134a91908101906137d1565b151561135557600080fd5b600a54602086015160405160e060020a635482c735028152600160a060020a0390921691635482c7359161138d918790600401613f31565b602060405180830381600087803b1580156113a757600080fd5b505af11580156113bb573d6000803e3d6000fd5b505050506040513d601f19601f820116820180604052506113df91908101906137d1565b156113e957600080fd5b600a54602086015160405160e060020a632ee2ed25028152600160a060020a0390921691632ee2ed2591611421918790600401613f31565b602060405180830381600087803b15801561143b57600080fd5b505af115801561144f573d6000803e3d6000fd5b505050506040513d601f19601f82011682018060405250611473919081019061382b565b85511161147f57600080fd5b600a54602086015160405160e060020a63553d90e9028152600160a060020a039092169163553d90e9916114b7918790600401613f31565b602060405180830381600087803b1580156114d157600080fd5b505af11580156114e5573d6000803e3d6000fd5b505050506040513d601f19601f82011682018060405250611509919081019061382b565b85511161151557600080fd5b600a54602086015160405160e060020a63c46fcd75028152600160a060020a039092169163c46fcd759161154d918790600401613f31565b602060405180830381600087803b15801561156757600080fd5b505af115801561157b573d6000803e3d6000fd5b505050506040513d601f19601f8201168201806040525061159f919081019061382b565b6115a88661234a565b136115b257600080fd5b6115ca85602001516115c38761234a565b8587612395565b600a60009054906101000a9004600160a060020a0316600160a060020a031663667666c88660200151858789608001518a600001518b60600151602001516000015173__TradeTypesLib_________________________63af75a2f76040518163ffffffff1660e060020a02815260040160006040518083038186803b15801561165357600080fd5b505af4158015611667573d6000803e3d6000fd5b505050506040513d6000823e601f3d908101601f1916820160405261168f919081019061388c565b6040518863ffffffff1660e060020a0281526004016116b49796959493929190613f4c565b600060405180830381600087803b1580156116ce57600080fd5b505af11580156116e2573d6000803e3d6000fd5b5050600a54602088015160405160e060020a632ee2ed250281527f692186b99bb015f5247f9db51faae16e52216ff8292cd97ddfd7777e69366e029450600160a060020a039092169250632ee2ed259161174191908890600401613f31565b602060405180830381600087803b15801561175b57600080fd5b505af115801561176f573d6000803e3d6000fd5b505050506040513d601f19601f82011682018060405250611793919081019061382b565b86866040516106a1939291906140b6565b6117ac612f5a565b6000604080519081016040528060128152602001607060020a716368616c6c656e67655f62795f7472616465028152506117e63382610c92565b15156117f157600080fd5b60035460405160e160020a637211c8c70281528691600160a060020a03169063e423918e90611824908490600401614085565b602060405180830381600087803b15801561183e57600080fd5b505af1158015611852573d6000803e3d6000fd5b505050506040513d601f19601f8201168201806040525061187691908101906137d1565b151561188157600080fd5b60035460405160e160020a6303e149c302815287918991600160a060020a03909116906307c29386906118ba9085908590600401614096565b602060405180830381600087803b1580156118d457600080fd5b505af11580156118e8573d6000803e3d6000fd5b505050506040513d601f19601f8201168201806040525061190c91908101906137d1565b151561191757600080fd5b60065460e08901515160405160e160020a6352c894d1028152600160a060020a039092169163a59129a29161194e91600401614020565b602060405180830381600087803b15801561196857600080fd5b505af115801561197c573d6000803e3d6000fd5b505050506040513d601f19601f820116820180604052506119a091908101906137d1565b156119aa57600080fd5b600654600160a060020a031663e1f5828b6119c58a8c612444565b6040518263ffffffff1660e060020a0281526004016119e49190614020565b602060405180830381600087803b1580156119fe57600080fd5b505af1158015611a12573d6000803e3d6000fd5b505050506040513d601f19601f82011682018060405250611a3691908101906137d1565b15611a4057600080fd5b600754600160a060020a0316639bd5eb168a611a5c8b82612444565b6040518363ffffffff1660e060020a028152600401611a7c929190613eaa565b602060405180830381600087803b158015611a9657600080fd5b505af1158015611aaa573d6000803e3d6000fd5b505050506040513d601f19601f82011682018060405250611ace91908101906137d1565b15611ad857600080fd5b611ae2888a6124ff565b600a5460405160e360020a63076470a5028152919750600160a060020a031690633b23852890611b18908c908a90600401613f31565b602060405180830381600087803b158015611b3257600080fd5b505af1158015611b46573d6000803e3d6000fd5b505050506040513d601f19601f82011682018060405250611b6a91908101906137d1565b1515611b7557600080fd5b600a5460405160e060020a635482c735028152600160a060020a0390911690635482c73590611baa908c908a90600401613f31565b602060405180830381600087803b158015611bc457600080fd5b505af1158015611bd8573d6000803e3d6000fd5b505050506040513d601f19601f82011682018060405250611bfc91908101906137d1565b15611c0657600080fd5b611c10888a6125aa565b600a5460405160e060020a632ee2ed25028152919650600160a060020a031690632ee2ed2590611c46908c908a90600401613f31565b602060405180830381600087803b158015611c6057600080fd5b505af1158015611c74573d6000803e3d6000fd5b505050506040513d601f19601f82011682018060405250611c98919081019061382b565b8511611ca357600080fd5b600a5460405160e060020a63553d90e9028152600160a060020a039091169063553d90e990611cd8908c908a90600401613f31565b602060405180830381600087803b158015611cf257600080fd5b505af1158015611d06573d6000803e3d6000fd5b505050506040513d601f19601f82011682018060405250611d2a919081019061382b565b8511611d3557600080fd5b600a5460405160e060020a63c46fcd75028152600160a060020a039091169063c46fcd7590611d6a908c908a90600401613f31565b602060405180830381600087803b158015611d8457600080fd5b505af1158015611d98573d6000803e3d6000fd5b505050506040513d601f19601f82011682018060405250611dbc919081019061382b565b611dc6898b61264b565b13611dd057600080fd5b611de589611dde8a8c6126f1565b888a612395565b600a60009054906101000a9004600160a060020a0316600160a060020a031663667666c88a888a8c61010001518a8e60e001516000015173__TradeTypesLib_________________________6332575cb66040518163ffffffff1660e060020a02815260040160006040518083038186803b158015611e6357600080fd5b505af4158015611e77573d6000803e3d6000fd5b505050506040513d6000823e601f3d908101601f19168201604052611e9f919081019061388c565b6040518863ffffffff1660e060020a028152600401611ec49796959493929190613f4c565b600060405180830381600087803b158015611ede57600080fd5b505af1158015611ef2573d6000803e3d6000fd5b5050600a5460405160e060020a632ee2ed250281527fb69fdc3af3abb19f37028d39f381743ca840cb47e6b36f7c0399810761c4387093508c9250600160a060020a0390911690632ee2ed2590611f4f9084908c90600401613f31565b602060405180830381600087803b158015611f6957600080fd5b505af1158015611f7d573d6000803e3d6000fd5b505050506040513d601f19601f82011682018060405250611fa1919081019061382b565b8a8a604051611fb39493929190613fbb565b60405180910390a1505050505050505050565b6000611fd06121d9565b1515611fdb57600080fd5b81600160a060020a0381161515611ff157600080fd5b600160a060020a03811630141561200757600080fd5b600054600160a060020a03848116610100909204161461207f5760008054600160a060020a0385811661010090810261010060a860020a0319841617909355604051929091041692507f977e5fa58e458501775e0008d275006294c5249e3c08d1d0e3a9f3acad14f6e490610eb59084908690613dd8565b505050565b600061208e61279e565b151561209957600080fd5b81600160a060020a03811615156120af57600080fd5b600160a060020a0381163014156120c557600080fd5b600154600160a060020a0384811691161461207f5760018054600160a060020a03858116600160a060020a0319831617909255604051911692507f9f611b789425d0d5b90b920f1b2852907dd865c80074a30b1629aaa041d1812c90610eb59084908690613dd8565b6000546101009004600160a060020a031681565b600554600160a060020a031681565b600a54600160a060020a031681565b6121686121d9565b151561217357600080fd5b80600160a060020a038116151561218957600080fd5b600160a060020a03811630141561219f57600080fd5b6121aa8260006122b9565b7fb619d545cb511bd5f02907a1eac4f4cb8dace7b1846852fb0bf5e553937481c182604051610c239190613dca565b6000546101009004600160a060020a0316331490565b6000816040516020018082805190602001908083835b602083106122245780518252601f199092019160209182019101612205565b6001836020036101000a0380198251168184511680821785525050505050509050019150506040516020818303038152906040526040518082805190602001908083835b602083106122875780518252601f199092019160209182019101612268565b5181516020939093036101000a6000190180199091169216919091179052604051920182900390912095945050505050565b600160a060020a03821660009081526008602052604090205460ff16151561230757600160a060020a0382166000908152600860205260409020805460ff1916600190811782554283019101555b5050565b612313612f5a565b604082015151600181111561232457fe5b60011461233d57816040015160400151602001516107e8565b5060409081015101515190565b604081015151600090600181111561235e57fe5b60011461238957604082015160608101516020909101516123849163ffffffff6127af16565b6107e8565b50604001516020015190565b600a5460405160e260020a6333ca4eab028152600160a060020a039091169063cf293aac906123ca9087908690600401613f31565b602060405180830381600087803b1580156123e457600080fd5b505af11580156123f8573d6000803e3d6000fd5b505050506040513d601f19601f8201168201806040525061241c91908101906137d1565b156124325761242d848484846127e4565b61243e565b61243e84848484612a68565b50505050565b60035460405160e060020a63059057d7028152600091600160a060020a03169063059057d79061247a9086908690600401614096565b602060405180830381600087803b15801561249457600080fd5b505af11580156124a8573d6000803e3d6000fd5b505050506040513d601f19601f820116820180604052506124cc91908101906137d1565b6124e6578260a001516080015160200151602001516124f8565b82608001516080015160200151602001515b9392505050565b612507612f5a565b60035460405160e060020a63059057d7028152600160a060020a039091169063059057d79061253c9086908690600401614096565b602060405180830381600087803b15801561255657600080fd5b505af115801561256a573d6000803e3d6000fd5b505050506040513d601f19601f8201168201806040525061258e91908101906137d1565b61259d576040830151516124f8565b5050604001516020015190565b60035460405160e060020a63059057d7028152600091600160a060020a03169063059057d7906125e09086908690600401614096565b602060405180830381600087803b1580156125fa57600080fd5b505af115801561260e573d6000803e3d6000fd5b505050506040513d601f19601f8201168201806040525061263291908101906137d1565b6126415760a0830151516124f8565b5050608001515190565b60035460405160e060020a63059057d7028152600091600160a060020a03169063059057d7906126819086908690600401614096565b602060405180830381600087803b15801561269b57600080fd5b505af11580156126af573d6000803e3d6000fd5b505050506040513d601f19601f820116820180604052506126d391908101906137d1565b6126e35760c083015151516124f8565b505060c00151602001515190565b60035460405160e060020a63059057d7028152600091600160a060020a03169063059057d7906127279086908690600401614096565b602060405180830381600087803b15801561274157600080fd5b505af1158015612755573d6000803e3d6000fd5b505050506040513d601f19601f8201168201806040525061277991908101906137d1565b61278c5760a080840151015151516124f8565b50506080015160a00151602001515190565b600154600160a060020a0316331490565b600060ff60020a831415806127c657508160001914155b15156127d157600080fd5b81838115156127dc57fe5b059392505050565b600a5460405160e060020a63b6e2fc33028152600160a060020a039091169063b6e2fc33906128199087908690600401613f31565b602060405180830381600087803b15801561283357600080fd5b505af1158015612847573d6000803e3d6000fd5b505050506040513d601f19601f8201168201806040525061286b919081019061380d565b600181111561287657fe5b6001141561296f57600554600a5460405160e060020a6356587229028152600160a060020a03928316926346c5c0239288929116906356587229906128c19084908990600401613f31565b602060405180830381600087803b1580156128db57600080fd5b505af11580156128ef573d6000803e3d6000fd5b505050506040513d601f19601f8201168201806040525061291391908101906136fe565b8551602087015160405160e060020a63ffffffff871602815261293c9493929190600401613df3565b600060405180830381600087803b15801561295657600080fd5b505af115801561296a573d6000803e3d6000fd5b505050505b60055482516020808501516002546040805160e060020a63fbdfd8e70281529051600160a060020a0396871696639a545322968c968a968d9692959094929093169263fbdfd8e792600480830193928290030181600087803b1580156129d457600080fd5b505af11580156129e8573d6000803e3d6000fd5b505050506040513d601f19601f82011682018060405250612a0c919081019061382b565b6040518763ffffffff1660e060020a028152600401612a3096959493929190613e28565b600060405180830381600087803b158015612a4a57600080fd5b505af1158015612a5e573d6000803e3d6000fd5b5050505050505050565b612a70612f71565b600a5460405160e060020a63b6e2fc33028152600091600160a060020a03169063b6e2fc3390612aa69089908890600401613f31565b602060405180830381600087803b158015612ac057600080fd5b505af1158015612ad4573d6000803e3d6000fd5b505050506040513d601f19601f82011682018060405250612af8919081019061380d565b6001811115612b0357fe5b60011415612bf95760048054600a5460405160e060020a6356587229028152600160a060020a0392831693634e791e0d9390921691635658722991612b4c918c918b9101613f31565b602060405180830381600087803b158015612b6657600080fd5b505af1158015612b7a573d6000803e3d6000fd5b505050506040513d601f19601f82011682018060405250612b9e91908101906136fe565b8651602088015160405160e060020a63ffffffff8616028152612bc693929190600401613e82565b600060405180830381600087803b158015612be057600080fd5b505af1158015612bf4573d6000803e3d6000fd5b505050505b612c01612e8d565b600480548251602080850151805191015160405160e160020a634197bc19028152959750600160a060020a039093169463832f783294612c4a948a949392909160009101613ec5565b600060405180830381600087803b158015612c6457600080fd5b505af1158015612c78573d6000803e3d6000fd5b50506004805487516020808a01516002546040805160e160020a63560069d9028152905173__SafeMathIntLib________________________995063755875b298508e97600160a060020a039788169763a72148eb979694169363ac00d3b293808301939192908290030181600087803b158015612cf557600080fd5b505af1158015612d09573d6000803e3d6000fd5b505050506040513d601f19601f82011682018060405250612d2d919081019061382b565b6040518463ffffffff1660e060020a028152600401612d4e93929190613ff7565b602060405180830381600087803b158015612d6857600080fd5b505af1158015612d7c573d6000803e3d6000fd5b505050506040513d601f19601f82011682018060405250612da0919081019061382b565b6040518363ffffffff1660e060020a028152600401612dc0929190614057565b60206040518083038186803b158015612dd857600080fd5b505af4158015612dec573d6000803e3d6000fd5b505050506040513d601f19601f82011682018060405250612e10919081019061382b565b600480548651602088015160405160e160020a634197bc19028152949550600160a060020a039092169363832f783293612e539389938893909260009101613ec5565b600060405180830381600087803b158015612e6d57600080fd5b505af1158015612e81573d6000803e3d6000fd5b50505050505050505050565b612e95612f71565b6000806000600260009054906101000a9004600160a060020a0316600160a060020a031663ccd03d2e6040518163ffffffff1660e060020a028152600401606060405180830381600087803b158015612eed57600080fd5b505af1158015612f01573d6000803e3d6000fd5b505050506040513d601f19601f82011682018060405250612f259190810190613849565b6040805180820182529384528051808201909152600160a060020a039092168252602082810191909152820152949350505050565b604080518082019091526000808252602082015290565b60606040519081016040528060008152602001612f8c612f5a565b905290565b60006124f88235614157565b60006124f88251614157565b6000601f82018313612fba57600080fd5b8135612fcd612fc882614106565b6140e0565b91508181835260208401935060208101905083856080840282011115612ff257600080fd5b60005b8381101561302057816130088882613348565b84525060209092019160809190910190600101612ff5565b5050505092915050565b60006124f88251614163565b60006124f88235614168565b60006124f88235614181565b60006124f8823561418c565b60006124f8825161418c565b60006124f88251614168565b6000601f8201831361308357600080fd5b8135613091612fc882614126565b915080825260208301602083018583830111156130ad57600080fd5b6130b88382846141b1565b50505092915050565b6000601f820183136130d257600080fd5b81516130e0612fc882614126565b915080825260208301602083018583830111156130fc57600080fd5b6130b88382846141bd565b60006040828403121561311957600080fd5b61312360406140e0565b905060006131318484612f91565b825250602061314284848301613036565b60208301525092915050565b60006040828403121561316057600080fd5b61316a60406140e0565b905060006131318484613036565b60006060828403121561318a57600080fd5b61319460406140e0565b905060006131a28484613036565b825250602061314284848301613107565b6000608082840312156131c557600080fd5b6131cf60406140e0565b905060006131dd8484613107565b825250604061314284848301613107565b60006080828403121561320057600080fd5b61320a60406140e0565b90506000613218848461314e565b82525060406131428484830161314e565b6000610120828403121561323c57600080fd5b61324660a06140e0565b90506000613254848461304e565b825250602061326584848301613036565b6020830152506040613279848285016131b3565b60408301525060c061328d84828501613036565b60608301525060e06132a18482850161314e565b60808301525092915050565b60006102a082840312156132c057600080fd5b6132ca60c06140e0565b905060006132d88484613036565b82525060206132e984848301612f91565b60208301525060406132fd84828501613229565b60408301525061016061331284828501613698565b60608301525061026061332784828501613036565b60808301525061028061333c84828501613036565b60a08301525092915050565b60006080828403121561335a57600080fd5b61336460406140e0565b905060006133728484613036565b825250602061314284848301613178565b60006080828403121561339557600080fd5b61339f60406140e0565b905060006133ad8484613036565b8252506020613142848483016000606082840312156133cb57600080fd5b6133d560606140e0565b905060006133e38484613036565b82525060206133f484848301613036565b6020830152506040613408848285016136d4565b60408301525092915050565b60006080828403121561342657600080fd5b61343060406140e0565b9050600061343e8484613178565b82525060608201356001604060020a0381111561345a57600080fd5b61314284828501612fa9565b600060a0828403121561347857600080fd5b61348260606140e0565b905060006134908484613036565b82525060206134a18484830161314e565b60208301525060606134088482850161314e565b60006101c082840312156134c857600080fd5b6134d260e06140e0565b905060006134e08484613036565b82525060206134f184848301612f91565b602083015250604061350584828501613036565b60408301525060606135198482850161304e565b606083015250608061352d84828501613466565b608083015250610120613542848285016131ee565b60a0830152506101a08201356001604060020a0381111561356257600080fd5b61356e84828501613414565b60c08301525092915050565b6000610260828403121561358d57600080fd5b6135986101406140e0565b905060006135a68484613036565b82525060206135b784848301613036565b60208301525060406135cb848285016131b3565b60408301525060c06135df84828501613036565b60608301525060e08201356001604060020a038111156135fe57600080fd5b61360a848285016134b5565b6080830152506101008201356001604060020a0381111561362a57600080fd5b613636848285016134b5565b60a08301525061012061364b848285016131ee565b60c0830152506101a061366084828501613383565b60e08301525061022061367584828501613036565b6101008301525061024061368b84828501613036565b6101208301525092915050565b600061010082840312156136ab57600080fd5b6136b560406140e0565b905060006136c38484613383565b825250608061314284848301613383565b60006124f8823561417b565b6000602082840312156136f257600080fd5b6000610cdb8484612f91565b60006020828403121561371057600080fd5b6000610cdb8484612f9d565b6000806040838503121561372f57600080fd5b600061373b8585612f91565b92505060208301356001604060020a0381111561375757600080fd5b61376385828601613072565b9150509250929050565b60008060006060848603121561378257600080fd5b600061378e8686612f91565b93505060208401356001604060020a038111156137aa57600080fd5b6137b68682870161357a565b92505060406137c786828701612f91565b9150509250925092565b6000602082840312156137e357600080fd5b6000610cdb848461302a565b60006020828403121561380157600080fd5b6000610cdb8484613042565b60006020828403121561381f57600080fd5b6000610cdb848461305a565b60006020828403121561383d57600080fd5b6000610cdb8484613066565b60008060006060848603121561385e57600080fd5b600061386a8686613066565b935050602061387b86828701612f9d565b92505060406137c786828701613066565b60006020828403121561389e57600080fd5b81516001604060020a038111156138b457600080fd5b610cdb848285016130c1565b6000806102c083850312156138d457600080fd5b60006138e085856132ad565b9250506102a061376385828601612f91565b60006020828403121561390457600080fd5b6000610cdb8484613036565b61391981614157565b82525050565b600061392a82614153565b80845260208401935061393c8361414d565b60005b8281101561396c57613952868351613b4b565b61395b8261414d565b60809690960195915060010161393f565b5093949350505050565b61391981614163565b61391981614168565b61391981614181565b6139198161419b565b613919816141a6565b60006139ae82614153565b8084526139c28160208601602086016141bd565b6139cb816141e9565b9093016020019392505050565b805160408301906139e98482613910565b50602082015161243e602085018261397f565b805160408301906139e9848261397f565b80516060830190613a1e848261397f565b50602082015161243e60208501826139d8565b80516080830190613a4284826139d8565b50602082015161243e60408501826139d8565b80516080830190613a6684826139fc565b50602082015161243e60408501826139fc565b8051610120830190613a8b8482613991565b506020820151613a9e602085018261397f565b506040820151613ab16040850182613a31565b506060820151613ac460c085018261397f565b50608082015161243e60e08501826139fc565b80516102a0830190613ae9848261397f565b506020820151613afc6020850182613910565b506040820151613b0f6040850182613a79565b506060820151613b23610160850182613d9c565b506080820151613b3761026085018261397f565b5060a082015161243e61028085018261397f565b80516080830190613b5c848261397f565b50602082015161243e6020850182613a0d565b80516080830190613b80848261397f565b50602082015161243e602085018280516060830190613b9f848261397f565b506020820151613bb2602085018261397f565b50604082015161243e6040850182613dc1565b80516000906080840190613bd98582613a0d565b5060208301518482036060860152613bf1828261391f565b95945050505050565b805160a0830190613c0b848261397f565b506020820151613c1e60208501826139fc565b50604082015161243e60608501826139fc565b80516000906101c0840190613c46858261397f565b506020830151613c596020860182613910565b506040830151613c6c604086018261397f565b506060830151613c7f6060860182613991565b506080830151613c926080860182613bfa565b5060a0830151613ca6610120860182613a55565b5060c08301518482036101a0860152613bf18282613bc5565b8051600090610260840190613cd4858261397f565b506020830151613ce7602086018261397f565b506040830151613cfa6040860182613a31565b506060830151613d0d60c086018261397f565b50608083015184820360e0860152613d258282613c31565b91505060a0830151848203610100860152613d408282613c31565b91505060c0830151613d56610120860182613a55565b5060e0830151613d6a6101a0860182613b6f565b50610100830151613d7f61022086018261397f565b50610120830151613d9461024086018261397f565b509392505050565b8051610100830190613dae8482613b6f565b50602082015161243e6080850182613b6f565b6139198161417b565b602081016107e88284613910565b60408101613de68285613910565b6124f86020830184613910565b60808101613e018287613910565b613e0e6020830186613910565b613e1b6040830185613910565b613bf1606083018461397f565b60c08101613e368289613910565b613e436020830188613910565b613e50604083018761397f565b613e5d6060830186613910565b613e6a608083018561397f565b613e7760a083018461397f565b979650505050505050565b60608101613e908286613910565b613e9d6020830185613910565b610cdb604083018461397f565b60408101613eb88285613910565b6124f8602083018461397f565b60a08101613ed38288613910565b613ee0602083018761397f565b613eed6040830186613910565b613efa606083018561397f565b613f07608083018461399a565b9695505050505050565b60408101613f1f8285613910565b8181036020830152610cdb81846139a3565b60608101613f3f8285613910565b6124f860208301846139d8565b6101008101613f5b828a613910565b613f6860208301896139d8565b613f756060830188613910565b613f82608083018761397f565b613f8f60a083018661397f565b613f9c60c083018561397f565b81810360e0830152613fae81846139a3565b9998505050505050505050565b60808101613fc98287613910565b613fd6602083018661397f565b8181036040830152613fe88185613cbf565b9050613bf16060830184613910565b606081016140058286613910565b613e9d602083018561397f565b602081016107e88284613976565b602081016107e8828461397f565b602081016107e88284613988565b6040810161404a8285613988565b6124f86020830184613988565b60408101613eb8828561397f565b602080825281016124f881846139a3565b6102a081016107e88284613ad7565b602080825281016124f88184613cbf565b604080825281016140a78185613cbf565b90506124f86020830184613910565b6102e081016140c5828661397f565b6140d26020830185613ad7565b610cdb6102c0830184613910565b6040518181016001604060020a03811182821017156140fe57600080fd5b604052919050565b60006001604060020a0382111561411c57600080fd5b5060209081020190565b60006001604060020a0382111561413c57600080fd5b506020601f91909101601f19160190565b60200190565b5190565b600160a060020a031690565b151590565b90565b60006002821061417757fe5b5090565b60ff1690565b60006107e882614157565b60006002821061417757600080fd5b60006107e88261416b565b60006107e882614168565b82818337506000910152565b60005b838110156141d85781810151838201526020016141c0565b8381111561243e5750506000910152565b601f01601f1916905600a265627a7a723058208ba022025178f164a7559e1333d71a1a4cc30fe8f0eb7014ef29d7ca66f9861a6c6578706572696d656e74616cf50037",
  "source": "/*\n * Hubii Nahmii\n *\n * Compliant with the Hubii Nahmii specification v0.12.\n *\n * Copyright (C) 2017-2018 Hubii AS\n */\n\npragma solidity ^0.4.25;\npragma experimental ABIEncoderV2;\n\nimport {Ownable} from \"./Ownable.sol\";\nimport {Configurable} from \"./Configurable.sol\";\nimport {ValidatableV2} from \"./ValidatableV2.sol\";\nimport {SecurityBondable} from \"./SecurityBondable.sol\";\nimport {WalletLockable} from \"./WalletLockable.sol\";\nimport {FraudChallengable} from \"./FraudChallengable.sol\";\nimport {CancelOrdersChallengable} from \"./CancelOrdersChallengable.sol\";\nimport {Servable} from \"./Servable.sol\";\nimport {SafeMathIntLib} from \"./SafeMathIntLib.sol\";\nimport {SafeMathUintLib} from \"./SafeMathUintLib.sol\";\nimport {MonetaryTypesLib} from \"./MonetaryTypesLib.sol\";\nimport {TradeTypesLib} from \"./TradeTypesLib.sol\";\nimport {SettlementChallengeTypesLib} from \"./SettlementChallengeTypesLib.sol\";\nimport {NullSettlementChallengeState} from \"./NullSettlementChallengeState.sol\";\n\n/**\n * @title NullSettlementDisputeByTrade\n * @notice The where trade related disputes of null settlement challenge happens\n */\ncontract NullSettlementDisputeByTrade is Ownable, Configurable, ValidatableV2, SecurityBondable, WalletLockable,\nFraudChallengable, CancelOrdersChallengable, Servable {\n    using SafeMathIntLib for int256;\n    using SafeMathUintLib for uint256;\n\n    //\n    // Constants\n    // -----------------------------------------------------------------------------------------------------------------\n    string constant public CHALLENGE_BY_ORDER_ACTION = \"challenge_by_order\";\n    string constant public CHALLENGE_BY_TRADE_ACTION = \"challenge_by_trade\";\n\n    //\n    // Variables\n    // -----------------------------------------------------------------------------------------------------------------\n    NullSettlementChallengeState public nullSettlementChallengeState;\n\n    //\n    // Events\n    // -----------------------------------------------------------------------------------------------------------------\n    event SetNullSettlementChallengeStateEvent(NullSettlementChallengeState oldNullSettlementChallengeState,\n        NullSettlementChallengeState newNullSettlementChallengeState);\n    event ChallengeByOrderEvent(uint256 nonce, TradeTypesLib.Order order, address challenger);\n    event ChallengeByTradeEvent(address wallet, uint256 nonce, TradeTypesLib.Trade trade,\n        address challenger);\n\n    //\n    // Constructor\n    // -----------------------------------------------------------------------------------------------------------------\n    constructor(address deployer) Ownable(deployer) public {\n    }\n\n    /// @notice Set the settlement challenge state contract\n    /// @param newNullSettlementChallengeState The (address of) NullSettlementChallengeState contract instance\n    function setNullSettlementChallengeState(NullSettlementChallengeState newNullSettlementChallengeState) public\n    onlyDeployer\n    notNullAddress(newNullSettlementChallengeState)\n    {\n        NullSettlementChallengeState oldNullSettlementChallengeState = nullSettlementChallengeState;\n        nullSettlementChallengeState = newNullSettlementChallengeState;\n        emit SetNullSettlementChallengeStateEvent(oldNullSettlementChallengeState, nullSettlementChallengeState);\n    }\n\n    /// @notice Challenge the settlement by providing order candidate\n    /// @param order The order candidate that challenges\n    /// @param challenger The address of the challenger\n    /// @dev If (candidate) order has buy intention consider _conjugate_ currency and amount, else\n    /// if (candidate) order has sell intention consider _intended_ currency and amount\n    function challengeByOrder(TradeTypesLib.Order order, address challenger)\n    public\n    onlyEnabledServiceAction(CHALLENGE_BY_ORDER_ACTION)\n    onlySealedOrder(order)\n    {\n        // Require that order candidate is not labelled fraudulent or cancelled\n        require(!fraudChallenge.isFraudulentOrderHash(order.seals.operator.hash));\n        require(!cancelOrdersChallenge.isOrderCancelled(order.wallet, order.seals.operator.hash));\n\n        // Get the relevant currency\n        MonetaryTypesLib.Currency memory currency = _orderCurrency(order);\n\n        // Require that proposal has been initiated\n        require(nullSettlementChallengeState.hasProposal(order.wallet, currency));\n\n        // Require that proposal has not expired\n        require(!nullSettlementChallengeState.hasProposalExpired(order.wallet, currency));\n\n        // Require that orders's nonce is strictly greater than proposal's nonce and its current\n        // disqualification nonce\n        require(order.nonce > nullSettlementChallengeState.proposalNonce(\n            order.wallet, currency\n        ));\n        require(order.nonce > nullSettlementChallengeState.proposalDisqualificationNonce(\n            order.wallet, currency\n        ));\n\n        // Require that transfer amount is strictly greater than the proposal's target balance amount\n        // for this order to be a valid challenge candidate\n        require(_orderTransferAmount(order) > nullSettlementChallengeState.proposalTargetBalanceAmount(\n            order.wallet, currency\n        ));\n\n        // Reward challenger\n        // TODO Need balance as part of order to replace transfer amount (_orderTransferAmount(order)) in call below\n        _settleRewards(order.wallet, _orderTransferAmount(order), currency, challenger);\n\n        // Disqualify proposal, effectively overriding any previous disqualification\n        nullSettlementChallengeState.disqualifyProposal(\n            order.wallet, currency, challenger, order.blockNumber,\n            order.nonce, order.seals.operator.hash, TradeTypesLib.ORDER_KIND()\n        );\n\n        // Emit event\n        emit ChallengeByOrderEvent(\n            nullSettlementChallengeState.proposalNonce(order.wallet, currency), order, challenger\n        );\n    }\n\n    /// @notice Challenge the settlement by providing trade candidate\n    /// @param wallet The wallet whose settlement is being challenged\n    /// @param trade The trade candidate that challenges\n    /// @param challenger The address of the challenger\n    /// @dev If wallet is buyer in (candidate) trade consider single _conjugate_ transfer in (candidate) trade. Else\n    /// if wallet is seller in (candidate) trade consider single _intended_ transfer in (candidate) trade\n    function challengeByTrade(address wallet, TradeTypesLib.Trade trade, address challenger)\n    public\n    onlyEnabledServiceAction(CHALLENGE_BY_TRADE_ACTION)\n    onlySealedTrade(trade)\n    onlyTradeParty(trade, wallet)\n    {\n        // Require that trade candidate is not labelled fraudulent\n        require(!fraudChallenge.isFraudulentTradeHash(trade.seal.hash));\n\n        // Require that wallet's order in trade is not labelled fraudulent or cancelled\n        require(!fraudChallenge.isFraudulentOrderHash(_tradeOrderHash(trade, wallet)));\n        require(!cancelOrdersChallenge.isOrderCancelled(wallet, _tradeOrderHash(trade, wallet)));\n\n        // Get the relevant currency\n        MonetaryTypesLib.Currency memory currency = _tradeCurrency(trade, wallet);\n\n        // Require that proposal has been initiated\n        require(nullSettlementChallengeState.hasProposal(wallet, currency));\n\n        // Require that proposal has not expired\n        require(!nullSettlementChallengeState.hasProposalExpired(wallet, currency));\n\n        // Get the relevant nonce\n        uint256 nonce = _tradeNonce(trade, wallet);\n\n        // Require that trade party's nonce is strictly greater than proposal's nonce and its current\n        // disqualification nonce\n        require(nonce > nullSettlementChallengeState.proposalNonce(\n            wallet, currency\n        ));\n        require(nonce > nullSettlementChallengeState.proposalDisqualificationNonce(\n            wallet, currency\n        ));\n\n        // Require that transfer amount is strictly greater than the proposal's target balance amount\n        // for this trade to be a valid challenge candidate\n        require(_tradeTransferAmount(trade, wallet) > nullSettlementChallengeState.proposalTargetBalanceAmount(\n            wallet, currency\n        ));\n\n        // Reward challenger\n        _settleRewards(wallet, _tradeBalanceAmount(trade, wallet), currency, challenger);\n\n        // Disqualify proposal, effectively overriding any previous disqualification\n        nullSettlementChallengeState.disqualifyProposal(\n            wallet, currency, challenger, trade.blockNumber,\n            nonce, trade.seal.hash, TradeTypesLib.TRADE_KIND()\n        );\n\n        // Emit event\n        emit ChallengeByTradeEvent(\n            wallet, nullSettlementChallengeState.proposalNonce(wallet, currency), trade, challenger\n        );\n    }\n\n    //\n    // Private functions\n    // -----------------------------------------------------------------------------------------------------------------\n    // Get the candidate order currency\n    // Buy order -> Conjugate currency\n    // Sell order -> Intended currency\n    function _orderCurrency(TradeTypesLib.Order order)\n    private\n    pure\n    returns (MonetaryTypesLib.Currency)\n    {\n        return TradeTypesLib.Intention.Sell == order.placement.intention ?\n        order.placement.currencies.intended :\n        order.placement.currencies.conjugate;\n    }\n\n    // Get the candidate order transfer\n    // Buy order -> Conjugate transfer\n    // Sell order -> Intended transfer\n    function _orderTransferAmount(TradeTypesLib.Order order)\n    private\n    pure\n    returns (int256)\n    {\n        return TradeTypesLib.Intention.Sell == order.placement.intention ?\n        order.placement.amount :\n        order.placement.amount.div(order.placement.rate);\n    }\n\n    function _tradeOrderHash(TradeTypesLib.Trade trade, address wallet)\n    private\n    view\n    returns (bytes32)\n    {\n        return validator.isTradeBuyer(trade, wallet) ?\n        trade.buyer.order.hashes.operator :\n        trade.seller.order.hashes.operator;\n    }\n\n    // Get the candidate trade currency\n    // Wallet is buyer in (candidate) trade -> Conjugate currency\n    // Wallet is seller in (candidate) trade -> Intended currency\n    function _tradeCurrency(TradeTypesLib.Trade trade, address wallet)\n    private\n    view\n    returns (MonetaryTypesLib.Currency)\n    {\n        return validator.isTradeBuyer(trade, wallet) ?\n        trade.currencies.conjugate :\n        trade.currencies.intended;\n    }\n\n    // Get the candidate trade nonce\n    // Wallet is buyer in (candidate) trade -> Buyer's nonce\n    // Wallet is seller in (candidate) trade -> Seller's nonce\n    function _tradeNonce(TradeTypesLib.Trade trade, address wallet)\n    private\n    view\n    returns (uint256)\n    {\n        return validator.isTradeBuyer(trade, wallet) ?\n        trade.buyer.nonce :\n        trade.seller.nonce;\n    }\n\n    // Get the candidate trade transfer amount\n    // Wallet is buyer in (candidate) trade -> Conjugate transfer\n    // Wallet is seller in (candidate) trade -> Intended transfer\n    function _tradeTransferAmount(TradeTypesLib.Trade trade, address wallet)\n    private\n    view\n    returns (int256)\n    {\n        return validator.isTradeBuyer(trade, wallet) ?\n        trade.transfers.conjugate.single :\n        trade.transfers.intended.single;\n    }\n\n    // Get the candidate trade balance amount\n    // Wallet is buyer in (candidate) trade -> Buyer's conjugate balance\n    // Wallet is seller in (candidate) trade -> Seller's intended balance\n    function _tradeBalanceAmount(TradeTypesLib.Trade trade, address wallet)\n    private\n    view\n    returns (int256)\n    {\n        return validator.isTradeBuyer(trade, wallet) ?\n        trade.buyer.balances.conjugate.current :\n        trade.seller.balances.intended.current;\n    }\n\n    function _settleRewards(address wallet, int256 walletAmount, MonetaryTypesLib.Currency currency,\n        address challenger)\n    private\n    {\n        if (nullSettlementChallengeState.proposalWalletInitiated(wallet, currency))\n            _settleBalanceReward(wallet, walletAmount, currency, challenger);\n\n        else\n            _settleSecurityBondReward(wallet, walletAmount, currency, challenger);\n    }\n\n    function _settleBalanceReward(address wallet, int256 walletAmount, MonetaryTypesLib.Currency currency,\n        address challenger)\n    private\n    {\n        // Unlock wallet/currency for existing challenger if previously locked\n        if (SettlementChallengeTypesLib.Status.Disqualified == nullSettlementChallengeState.proposalStatus(\n            wallet, currency\n        ))\n            walletLocker.unlockFungibleByProxy(\n                wallet,\n                nullSettlementChallengeState.proposalDisqualificationChallenger(\n                    wallet, currency\n                ),\n                currency.ct, currency.id\n            );\n\n        // Lock wallet for new challenger\n        walletLocker.lockFungibleByProxy(\n            wallet, challenger, walletAmount, currency.ct, currency.id, configuration.settlementChallengeTimeout()\n        );\n    }\n\n    // Settle the two-component reward from security bond.\n    // The first component is flat figure as obtained from Configuration\n    // The second component is progressive and calculated as\n    //    min(walletAmount, fraction of SecurityBond's deposited balance)\n    // both amounts for the given currency\n    function _settleSecurityBondReward(address wallet, int256 walletAmount, MonetaryTypesLib.Currency currency,\n        address challenger)\n    private\n    {\n        // Deprive existing challenger of reward if previously locked\n        if (SettlementChallengeTypesLib.Status.Disqualified == nullSettlementChallengeState.proposalStatus(\n            wallet, currency\n        ))\n            securityBond.depriveAbsolute(\n                nullSettlementChallengeState.proposalDisqualificationChallenger(\n                    wallet, currency\n                ),\n                currency.ct, currency.id\n            );\n\n        // Reward the flat component\n        MonetaryTypesLib.Figure memory flatReward = _flatReward();\n        securityBond.rewardAbsolute(\n            challenger, flatReward.amount, flatReward.currency.ct, flatReward.currency.id, 0\n        );\n\n        // Reward the progressive component\n        int256 progressiveRewardAmount = walletAmount.clampMax(\n            securityBond.depositedFractionalBalance(\n                currency.ct, currency.id, configuration.operatorSettlementStakeFraction()\n            )\n        );\n        securityBond.rewardAbsolute(\n            challenger, progressiveRewardAmount, currency.ct, currency.id, 0\n        );\n    }\n\n    function _flatReward()\n    private\n    view\n    returns (MonetaryTypesLib.Figure)\n    {\n        (int256 amount, address currencyCt, uint256 currencyId) = configuration.operatorSettlementStake();\n        return MonetaryTypesLib.Figure(amount, MonetaryTypesLib.Currency(currencyCt, currencyId));\n    }\n}",
  "sourcePath": "/opt/buildagent/work/855e104608380c36/contracts/NullSettlementDisputeByTrade.sol",
  "compiler": {
    "name": "solc",
    "version": "0.4.25+commit.59dbf8f1.Emscripten.clang"
  },
  "schemaVersion": "2.0.2",
  "updatedAt": "2019-04-18T00:23:49.776Z"
}