{
  "contractName": "NullSettlementDisputeByPayment",
  "abi": [
    {
      "constant": false,
      "inputs": [
        {
          "name": "newFraudChallenge",
          "type": "address"
        }
      ],
      "name": "setFraudChallenge",
      "outputs": [],
      "payable": false,
      "stateMutability": "nonpayable",
      "type": "function"
    },
    {
      "constant": false,
      "inputs": [
        {
          "name": "newValidator",
          "type": "address"
        }
      ],
      "name": "setValidator",
      "outputs": [],
      "payable": false,
      "stateMutability": "nonpayable",
      "type": "function"
    },
    {
      "constant": true,
      "inputs": [
        {
          "name": "service",
          "type": "address"
        }
      ],
      "name": "isRegisteredActiveService",
      "outputs": [
        {
          "name": "",
          "type": "bool"
        }
      ],
      "payable": false,
      "stateMutability": "view",
      "type": "function"
    },
    {
      "constant": true,
      "inputs": [],
      "name": "balanceTracker",
      "outputs": [
        {
          "name": "",
          "type": "address"
        }
      ],
      "payable": false,
      "stateMutability": "view",
      "type": "function"
    },
    {
      "constant": true,
      "inputs": [],
      "name": "walletLockerFrozen",
      "outputs": [
        {
          "name": "",
          "type": "bool"
        }
      ],
      "payable": false,
      "stateMutability": "view",
      "type": "function"
    },
    {
      "constant": false,
      "inputs": [],
      "name": "triggerSelfDestruction",
      "outputs": [],
      "payable": false,
      "stateMutability": "nonpayable",
      "type": "function"
    },
    {
      "constant": false,
      "inputs": [
        {
          "name": "service",
          "type": "address"
        },
        {
          "name": "action",
          "type": "string"
        }
      ],
      "name": "enableServiceAction",
      "outputs": [],
      "payable": false,
      "stateMutability": "nonpayable",
      "type": "function"
    },
    {
      "constant": true,
      "inputs": [
        {
          "name": "service",
          "type": "address"
        }
      ],
      "name": "isRegisteredService",
      "outputs": [
        {
          "name": "",
          "type": "bool"
        }
      ],
      "payable": false,
      "stateMutability": "view",
      "type": "function"
    },
    {
      "constant": true,
      "inputs": [],
      "name": "selfDestructionDisabled",
      "outputs": [
        {
          "name": "",
          "type": "bool"
        }
      ],
      "payable": false,
      "stateMutability": "view",
      "type": "function"
    },
    {
      "constant": true,
      "inputs": [],
      "name": "validator",
      "outputs": [
        {
          "name": "",
          "type": "address"
        }
      ],
      "payable": false,
      "stateMutability": "view",
      "type": "function"
    },
    {
      "constant": false,
      "inputs": [
        {
          "name": "service",
          "type": "address"
        },
        {
          "name": "action",
          "type": "string"
        }
      ],
      "name": "disableServiceAction",
      "outputs": [],
      "payable": false,
      "stateMutability": "nonpayable",
      "type": "function"
    },
    {
      "constant": true,
      "inputs": [],
      "name": "serviceActivationTimeout",
      "outputs": [
        {
          "name": "",
          "type": "uint256"
        }
      ],
      "payable": false,
      "stateMutability": "view",
      "type": "function"
    },
    {
      "constant": true,
      "inputs": [],
      "name": "fraudChallenge",
      "outputs": [
        {
          "name": "",
          "type": "address"
        }
      ],
      "payable": false,
      "stateMutability": "view",
      "type": "function"
    },
    {
      "constant": true,
      "inputs": [],
      "name": "balanceTrackerFrozen",
      "outputs": [
        {
          "name": "",
          "type": "bool"
        }
      ],
      "payable": false,
      "stateMutability": "view",
      "type": "function"
    },
    {
      "constant": true,
      "inputs": [],
      "name": "destructor",
      "outputs": [
        {
          "name": "",
          "type": "address"
        }
      ],
      "payable": false,
      "stateMutability": "view",
      "type": "function"
    },
    {
      "constant": false,
      "inputs": [
        {
          "name": "service",
          "type": "address"
        }
      ],
      "name": "deregisterService",
      "outputs": [],
      "payable": false,
      "stateMutability": "nonpayable",
      "type": "function"
    },
    {
      "constant": true,
      "inputs": [],
      "name": "operator",
      "outputs": [
        {
          "name": "",
          "type": "address"
        }
      ],
      "payable": false,
      "stateMutability": "view",
      "type": "function"
    },
    {
      "constant": false,
      "inputs": [
        {
          "name": "newBalanceTracker",
          "type": "address"
        }
      ],
      "name": "setBalanceTracker",
      "outputs": [],
      "payable": false,
      "stateMutability": "nonpayable",
      "type": "function"
    },
    {
      "constant": false,
      "inputs": [],
      "name": "freezeWalletLocker",
      "outputs": [],
      "payable": false,
      "stateMutability": "nonpayable",
      "type": "function"
    },
    {
      "constant": true,
      "inputs": [
        {
          "name": "service",
          "type": "address"
        },
        {
          "name": "action",
          "type": "string"
        }
      ],
      "name": "isEnabledServiceAction",
      "outputs": [
        {
          "name": "",
          "type": "bool"
        }
      ],
      "payable": false,
      "stateMutability": "view",
      "type": "function"
    },
    {
      "constant": false,
      "inputs": [
        {
          "name": "newConfiguration",
          "type": "address"
        }
      ],
      "name": "setConfiguration",
      "outputs": [],
      "payable": false,
      "stateMutability": "nonpayable",
      "type": "function"
    },
    {
      "constant": true,
      "inputs": [],
      "name": "CHALLENGE_BY_PAYMENT_ACTION",
      "outputs": [
        {
          "name": "",
          "type": "string"
        }
      ],
      "payable": false,
      "stateMutability": "view",
      "type": "function"
    },
    {
      "constant": false,
      "inputs": [
        {
          "name": "newSecurityBond",
          "type": "address"
        }
      ],
      "name": "setSecurityBond",
      "outputs": [],
      "payable": false,
      "stateMutability": "nonpayable",
      "type": "function"
    },
    {
      "constant": true,
      "inputs": [],
      "name": "securityBond",
      "outputs": [
        {
          "name": "",
          "type": "address"
        }
      ],
      "payable": false,
      "stateMutability": "view",
      "type": "function"
    },
    {
      "constant": true,
      "inputs": [],
      "name": "configuration",
      "outputs": [
        {
          "name": "",
          "type": "address"
        }
      ],
      "payable": false,
      "stateMutability": "view",
      "type": "function"
    },
    {
      "constant": false,
      "inputs": [],
      "name": "disableSelfDestruction",
      "outputs": [],
      "payable": false,
      "stateMutability": "nonpayable",
      "type": "function"
    },
    {
      "constant": false,
      "inputs": [
        {
          "name": "timeoutInSeconds",
          "type": "uint256"
        }
      ],
      "name": "setServiceActivationTimeout",
      "outputs": [],
      "payable": false,
      "stateMutability": "nonpayable",
      "type": "function"
    },
    {
      "constant": false,
      "inputs": [
        {
          "name": "newWalletLocker",
          "type": "address"
        }
      ],
      "name": "setWalletLocker",
      "outputs": [],
      "payable": false,
      "stateMutability": "nonpayable",
      "type": "function"
    },
    {
      "constant": false,
      "inputs": [
        {
          "name": "service",
          "type": "address"
        }
      ],
      "name": "registerServiceDeferred",
      "outputs": [],
      "payable": false,
      "stateMutability": "nonpayable",
      "type": "function"
    },
    {
      "constant": false,
      "inputs": [
        {
          "name": "newDeployer",
          "type": "address"
        }
      ],
      "name": "setDeployer",
      "outputs": [],
      "payable": false,
      "stateMutability": "nonpayable",
      "type": "function"
    },
    {
      "constant": false,
      "inputs": [
        {
          "name": "newOperator",
          "type": "address"
        }
      ],
      "name": "setOperator",
      "outputs": [],
      "payable": false,
      "stateMutability": "nonpayable",
      "type": "function"
    },
    {
      "constant": false,
      "inputs": [],
      "name": "freezeBalanceTracker",
      "outputs": [],
      "payable": false,
      "stateMutability": "nonpayable",
      "type": "function"
    },
    {
      "constant": true,
      "inputs": [],
      "name": "deployer",
      "outputs": [
        {
          "name": "",
          "type": "address"
        }
      ],
      "payable": false,
      "stateMutability": "view",
      "type": "function"
    },
    {
      "constant": true,
      "inputs": [],
      "name": "walletLocker",
      "outputs": [
        {
          "name": "",
          "type": "address"
        }
      ],
      "payable": false,
      "stateMutability": "view",
      "type": "function"
    },
    {
      "constant": true,
      "inputs": [],
      "name": "nullSettlementChallengeState",
      "outputs": [
        {
          "name": "",
          "type": "address"
        }
      ],
      "payable": false,
      "stateMutability": "view",
      "type": "function"
    },
    {
      "constant": false,
      "inputs": [
        {
          "name": "service",
          "type": "address"
        }
      ],
      "name": "registerService",
      "outputs": [],
      "payable": false,
      "stateMutability": "nonpayable",
      "type": "function"
    },
    {
      "inputs": [
        {
          "name": "deployer",
          "type": "address"
        }
      ],
      "payable": false,
      "stateMutability": "nonpayable",
      "type": "constructor"
    },
    {
      "anonymous": false,
      "inputs": [
        {
          "indexed": false,
          "name": "oldNullSettlementChallengeState",
          "type": "address"
        },
        {
          "indexed": false,
          "name": "newNullSettlementChallengeState",
          "type": "address"
        }
      ],
      "name": "SetNullSettlementChallengeStateEvent",
      "type": "event"
    },
    {
      "anonymous": false,
      "inputs": [
        {
          "indexed": false,
          "name": "wallet",
          "type": "address"
        },
        {
          "indexed": false,
          "name": "nonce",
          "type": "uint256"
        },
        {
          "components": [
            {
              "name": "nonce",
              "type": "uint256"
            },
            {
              "name": "amount",
              "type": "int256"
            },
            {
              "components": [
                {
                  "name": "ct",
                  "type": "address"
                },
                {
                  "name": "id",
                  "type": "uint256"
                }
              ],
              "name": "currency",
              "type": "tuple"
            },
            {
              "components": [
                {
                  "name": "nonce",
                  "type": "uint256"
                },
                {
                  "name": "wallet",
                  "type": "address"
                },
                {
                  "components": [
                    {
                      "name": "current",
                      "type": "int256"
                    },
                    {
                      "name": "previous",
                      "type": "int256"
                    }
                  ],
                  "name": "balances",
                  "type": "tuple"
                },
                {
                  "components": [
                    {
                      "components": [
                        {
                          "name": "amount",
                          "type": "int256"
                        },
                        {
                          "components": [
                            {
                              "name": "ct",
                              "type": "address"
                            },
                            {
                              "name": "id",
                              "type": "uint256"
                            }
                          ],
                          "name": "currency",
                          "type": "tuple"
                        }
                      ],
                      "name": "single",
                      "type": "tuple"
                    },
                    {
                      "components": [
                        {
                          "name": "originId",
                          "type": "uint256"
                        },
                        {
                          "components": [
                            {
                              "name": "amount",
                              "type": "int256"
                            },
                            {
                              "components": [
                                {
                                  "name": "ct",
                                  "type": "address"
                                },
                                {
                                  "name": "id",
                                  "type": "uint256"
                                }
                              ],
                              "name": "currency",
                              "type": "tuple"
                            }
                          ],
                          "name": "figure",
                          "type": "tuple"
                        }
                      ],
                      "name": "total",
                      "type": "tuple[]"
                    }
                  ],
                  "name": "fees",
                  "type": "tuple"
                }
              ],
              "name": "sender",
              "type": "tuple"
            },
            {
              "components": [
                {
                  "name": "nonce",
                  "type": "uint256"
                },
                {
                  "name": "wallet",
                  "type": "address"
                },
                {
                  "components": [
                    {
                      "name": "current",
                      "type": "int256"
                    },
                    {
                      "name": "previous",
                      "type": "int256"
                    }
                  ],
                  "name": "balances",
                  "type": "tuple"
                },
                {
                  "components": [
                    {
                      "components": [
                        {
                          "name": "originId",
                          "type": "uint256"
                        },
                        {
                          "components": [
                            {
                              "name": "amount",
                              "type": "int256"
                            },
                            {
                              "components": [
                                {
                                  "name": "ct",
                                  "type": "address"
                                },
                                {
                                  "name": "id",
                                  "type": "uint256"
                                }
                              ],
                              "name": "currency",
                              "type": "tuple"
                            }
                          ],
                          "name": "figure",
                          "type": "tuple"
                        }
                      ],
                      "name": "total",
                      "type": "tuple[]"
                    }
                  ],
                  "name": "fees",
                  "type": "tuple"
                }
              ],
              "name": "recipient",
              "type": "tuple"
            },
            {
              "components": [
                {
                  "name": "single",
                  "type": "int256"
                },
                {
                  "name": "total",
                  "type": "int256"
                }
              ],
              "name": "transfers",
              "type": "tuple"
            },
            {
              "components": [
                {
                  "components": [
                    {
                      "name": "hash",
                      "type": "bytes32"
                    },
                    {
                      "components": [
                        {
                          "name": "r",
                          "type": "bytes32"
                        },
                        {
                          "name": "s",
                          "type": "bytes32"
                        },
                        {
                          "name": "v",
                          "type": "uint8"
                        }
                      ],
                      "name": "signature",
                      "type": "tuple"
                    }
                  ],
                  "name": "wallet",
                  "type": "tuple"
                },
                {
                  "components": [
                    {
                      "name": "hash",
                      "type": "bytes32"
                    },
                    {
                      "components": [
                        {
                          "name": "r",
                          "type": "bytes32"
                        },
                        {
                          "name": "s",
                          "type": "bytes32"
                        },
                        {
                          "name": "v",
                          "type": "uint8"
                        }
                      ],
                      "name": "signature",
                      "type": "tuple"
                    }
                  ],
                  "name": "operator",
                  "type": "tuple"
                }
              ],
              "name": "seals",
              "type": "tuple"
            },
            {
              "name": "blockNumber",
              "type": "uint256"
            },
            {
              "name": "operatorId",
              "type": "uint256"
            }
          ],
          "indexed": false,
          "name": "payment",
          "type": "tuple"
        },
        {
          "indexed": false,
          "name": "challenger",
          "type": "address"
        }
      ],
      "name": "ChallengeByPaymentEvent",
      "type": "event"
    },
    {
      "anonymous": false,
      "inputs": [
        {
          "indexed": false,
          "name": "timeoutInSeconds",
          "type": "uint256"
        }
      ],
      "name": "ServiceActivationTimeoutEvent",
      "type": "event"
    },
    {
      "anonymous": false,
      "inputs": [
        {
          "indexed": false,
          "name": "service",
          "type": "address"
        }
      ],
      "name": "RegisterServiceEvent",
      "type": "event"
    },
    {
      "anonymous": false,
      "inputs": [
        {
          "indexed": false,
          "name": "service",
          "type": "address"
        },
        {
          "indexed": false,
          "name": "timeout",
          "type": "uint256"
        }
      ],
      "name": "RegisterServiceDeferredEvent",
      "type": "event"
    },
    {
      "anonymous": false,
      "inputs": [
        {
          "indexed": false,
          "name": "service",
          "type": "address"
        }
      ],
      "name": "DeregisterServiceEvent",
      "type": "event"
    },
    {
      "anonymous": false,
      "inputs": [
        {
          "indexed": false,
          "name": "service",
          "type": "address"
        },
        {
          "indexed": false,
          "name": "action",
          "type": "string"
        }
      ],
      "name": "EnableServiceActionEvent",
      "type": "event"
    },
    {
      "anonymous": false,
      "inputs": [
        {
          "indexed": false,
          "name": "service",
          "type": "address"
        },
        {
          "indexed": false,
          "name": "action",
          "type": "string"
        }
      ],
      "name": "DisableServiceActionEvent",
      "type": "event"
    },
    {
      "anonymous": false,
      "inputs": [
        {
          "indexed": false,
          "name": "oldFraudChallenge",
          "type": "address"
        },
        {
          "indexed": false,
          "name": "newFraudChallenge",
          "type": "address"
        }
      ],
      "name": "SetFraudChallengeEvent",
      "type": "event"
    },
    {
      "anonymous": false,
      "inputs": [
        {
          "indexed": false,
          "name": "oldBalanceTracker",
          "type": "address"
        },
        {
          "indexed": false,
          "name": "newBalanceTracker",
          "type": "address"
        }
      ],
      "name": "SetBalanceTrackerEvent",
      "type": "event"
    },
    {
      "anonymous": false,
      "inputs": [],
      "name": "FreezeBalanceTrackerEvent",
      "type": "event"
    },
    {
      "anonymous": false,
      "inputs": [
        {
          "indexed": false,
          "name": "oldWalletLocker",
          "type": "address"
        },
        {
          "indexed": false,
          "name": "newWalletLocker",
          "type": "address"
        }
      ],
      "name": "SetWalletLockerEvent",
      "type": "event"
    },
    {
      "anonymous": false,
      "inputs": [],
      "name": "FreezeWalletLockerEvent",
      "type": "event"
    },
    {
      "anonymous": false,
      "inputs": [
        {
          "indexed": false,
          "name": "oldSecurityBond",
          "type": "address"
        },
        {
          "indexed": false,
          "name": "newSecurityBond",
          "type": "address"
        }
      ],
      "name": "SetSecurityBondEvent",
      "type": "event"
    },
    {
      "anonymous": false,
      "inputs": [
        {
          "indexed": false,
          "name": "oldValidator",
          "type": "address"
        },
        {
          "indexed": false,
          "name": "newValidator",
          "type": "address"
        }
      ],
      "name": "SetValidatorEvent",
      "type": "event"
    },
    {
      "anonymous": false,
      "inputs": [
        {
          "indexed": false,
          "name": "oldConfiguration",
          "type": "address"
        },
        {
          "indexed": false,
          "name": "newConfiguration",
          "type": "address"
        }
      ],
      "name": "SetConfigurationEvent",
      "type": "event"
    },
    {
      "anonymous": false,
      "inputs": [
        {
          "indexed": false,
          "name": "oldDeployer",
          "type": "address"
        },
        {
          "indexed": false,
          "name": "newDeployer",
          "type": "address"
        }
      ],
      "name": "SetDeployerEvent",
      "type": "event"
    },
    {
      "anonymous": false,
      "inputs": [
        {
          "indexed": false,
          "name": "oldOperator",
          "type": "address"
        },
        {
          "indexed": false,
          "name": "newOperator",
          "type": "address"
        }
      ],
      "name": "SetOperatorEvent",
      "type": "event"
    },
    {
      "anonymous": false,
      "inputs": [
        {
          "indexed": false,
          "name": "wallet",
          "type": "address"
        }
      ],
      "name": "SelfDestructionDisabledEvent",
      "type": "event"
    },
    {
      "anonymous": false,
      "inputs": [
        {
          "indexed": false,
          "name": "wallet",
          "type": "address"
        }
      ],
      "name": "TriggerSelfDestructionEvent",
      "type": "event"
    },
    {
      "constant": false,
      "inputs": [
        {
          "name": "newNullSettlementChallengeState",
          "type": "address"
        }
      ],
      "name": "setNullSettlementChallengeState",
      "outputs": [],
      "payable": false,
      "stateMutability": "nonpayable",
      "type": "function"
    },
    {
      "constant": false,
      "inputs": [
        {
          "name": "wallet",
          "type": "address"
        },
        {
          "components": [
            {
              "name": "nonce",
              "type": "uint256"
            },
            {
              "name": "amount",
              "type": "int256"
            },
            {
              "components": [
                {
                  "name": "ct",
                  "type": "address"
                },
                {
                  "name": "id",
                  "type": "uint256"
                }
              ],
              "name": "currency",
              "type": "tuple"
            },
            {
              "components": [
                {
                  "name": "nonce",
                  "type": "uint256"
                },
                {
                  "name": "wallet",
                  "type": "address"
                },
                {
                  "components": [
                    {
                      "name": "current",
                      "type": "int256"
                    },
                    {
                      "name": "previous",
                      "type": "int256"
                    }
                  ],
                  "name": "balances",
                  "type": "tuple"
                },
                {
                  "components": [
                    {
                      "components": [
                        {
                          "name": "amount",
                          "type": "int256"
                        },
                        {
                          "components": [
                            {
                              "name": "ct",
                              "type": "address"
                            },
                            {
                              "name": "id",
                              "type": "uint256"
                            }
                          ],
                          "name": "currency",
                          "type": "tuple"
                        }
                      ],
                      "name": "single",
                      "type": "tuple"
                    },
                    {
                      "components": [
                        {
                          "name": "originId",
                          "type": "uint256"
                        },
                        {
                          "components": [
                            {
                              "name": "amount",
                              "type": "int256"
                            },
                            {
                              "components": [
                                {
                                  "name": "ct",
                                  "type": "address"
                                },
                                {
                                  "name": "id",
                                  "type": "uint256"
                                }
                              ],
                              "name": "currency",
                              "type": "tuple"
                            }
                          ],
                          "name": "figure",
                          "type": "tuple"
                        }
                      ],
                      "name": "total",
                      "type": "tuple[]"
                    }
                  ],
                  "name": "fees",
                  "type": "tuple"
                }
              ],
              "name": "sender",
              "type": "tuple"
            },
            {
              "components": [
                {
                  "name": "nonce",
                  "type": "uint256"
                },
                {
                  "name": "wallet",
                  "type": "address"
                },
                {
                  "components": [
                    {
                      "name": "current",
                      "type": "int256"
                    },
                    {
                      "name": "previous",
                      "type": "int256"
                    }
                  ],
                  "name": "balances",
                  "type": "tuple"
                },
                {
                  "components": [
                    {
                      "components": [
                        {
                          "name": "originId",
                          "type": "uint256"
                        },
                        {
                          "components": [
                            {
                              "name": "amount",
                              "type": "int256"
                            },
                            {
                              "components": [
                                {
                                  "name": "ct",
                                  "type": "address"
                                },
                                {
                                  "name": "id",
                                  "type": "uint256"
                                }
                              ],
                              "name": "currency",
                              "type": "tuple"
                            }
                          ],
                          "name": "figure",
                          "type": "tuple"
                        }
                      ],
                      "name": "total",
                      "type": "tuple[]"
                    }
                  ],
                  "name": "fees",
                  "type": "tuple"
                }
              ],
              "name": "recipient",
              "type": "tuple"
            },
            {
              "components": [
                {
                  "name": "single",
                  "type": "int256"
                },
                {
                  "name": "total",
                  "type": "int256"
                }
              ],
              "name": "transfers",
              "type": "tuple"
            },
            {
              "components": [
                {
                  "components": [
                    {
                      "name": "hash",
                      "type": "bytes32"
                    },
                    {
                      "components": [
                        {
                          "name": "r",
                          "type": "bytes32"
                        },
                        {
                          "name": "s",
                          "type": "bytes32"
                        },
                        {
                          "name": "v",
                          "type": "uint8"
                        }
                      ],
                      "name": "signature",
                      "type": "tuple"
                    }
                  ],
                  "name": "wallet",
                  "type": "tuple"
                },
                {
                  "components": [
                    {
                      "name": "hash",
                      "type": "bytes32"
                    },
                    {
                      "components": [
                        {
                          "name": "r",
                          "type": "bytes32"
                        },
                        {
                          "name": "s",
                          "type": "bytes32"
                        },
                        {
                          "name": "v",
                          "type": "uint8"
                        }
                      ],
                      "name": "signature",
                      "type": "tuple"
                    }
                  ],
                  "name": "operator",
                  "type": "tuple"
                }
              ],
              "name": "seals",
              "type": "tuple"
            },
            {
              "name": "blockNumber",
              "type": "uint256"
            },
            {
              "name": "operatorId",
              "type": "uint256"
            }
          ],
          "name": "payment",
          "type": "tuple"
        },
        {
          "name": "challenger",
          "type": "address"
        }
      ],
      "name": "challengeByPayment",
      "outputs": [],
      "payable": false,
      "stateMutability": "nonpayable",
      "type": "function"
    }
  ],
  "bytecode": "0x60806040523480156200001157600080fd5b5060405160208062003b318339810180604052620000339190810190620000b6565b8080600160a060020a03811615156200004b57600080fd5b600160a060020a0381163014156200006257600080fd5b506000805461010060a860020a031916610100600160a060020a039390931692830217905560018054600160a060020a031916909117905550620000eb565b6000620000af8251620000df565b9392505050565b600060208284031215620000c957600080fd5b6000620000d78484620000a1565b949350505050565b600160a060020a031690565b613a3680620000fb6000396000f3006080604052600436106101be5763ffffffff60e060020a60003504166301370d0681146101c35780631327d3d8146101e557806317ba3f9014610205578063191390921461023b578063240625d81461025d5780632738a112146102725780632b5672e3146102875780632b91e0a9146102a75780632f013a00146102c75780633a5381b5146102dc5780633b58c501146102f15780633b7bea6c146103115780633bd7857f146103335780633e59b706146103485780634476d23b1461035d57806350b08c021461037f578063570ca7351461039f578063598b75ad146103b45780635dc60def146103d45780635df1b0a3146103e9578063627f09c314610409578063635af94e146104295780636792ce6e1461044b5780636926832c1461046b5780636b0570d01461048b5780636c70bee9146104a05780636ccb43c8146104b557806370327ea1146104d55780637e15dd5c146104ea578063892860b21461050a5780638e8cef121461052a578063962147351461054a578063b3ab15fb1461056a578063b52d470a1461058a578063d5f394881461059f578063e8ae41e3146105b4578063fa7424f2146105c9578063fdd9ec7d146105de575b600080fd5b3480156101cf57600080fd5b506101e36101de36600461314d565b6105fe565b005b3480156101f157600080fd5b506101e361020036600461314d565b6106a6565b34801561021157600080fd5b50610225610220366004613020565b61073e565b604051610232919061386b565b60405180910390f35b34801561024757600080fd5b50610250610776565b6040516102329190613887565b34801561026957600080fd5b50610225610785565b34801561027e57600080fd5b506101e3610795565b34801561029357600080fd5b506101e36102a236600461305c565b6107fb565b3480156102b357600080fd5b506102256102c2366004613020565b61092b565b3480156102d357600080fd5b50610225610949565b3480156102e857600080fd5b50610250610952565b3480156102fd57600080fd5b506101e361030c36600461305c565b610961565b34801561031d57600080fd5b50610326610a43565b6040516102329190613879565b34801561033f57600080fd5b50610250610a49565b34801561035457600080fd5b50610225610a58565b34801561036957600080fd5b50610372610a68565b60405161023291906135c6565b34801561038b57600080fd5b506101e361039a366004613020565b610a7c565b3480156103ab57600080fd5b50610372610b3e565b3480156103c057600080fd5b506101e36103cf36600461314d565b610b4d565b3480156103e057600080fd5b506101e3610bfc565b3480156103f557600080fd5b5061022561040436600461305c565b610c50565b34801561041557600080fd5b506101e361042436600461314d565b610ca1565b34801561043557600080fd5b5061043e610d39565b60405161023291906138be565b34801561045757600080fd5b506101e361046636600461314d565b610d6a565b34801561047757600080fd5b506101e36104863660046130ad565b610e02565b34801561049757600080fd5b50610250611486565b3480156104ac57600080fd5b50610250611495565b3480156104c157600080fd5b506101e36104d036600461314d565b6114a4565b3480156104e157600080fd5b506101e3611535565b3480156104f657600080fd5b506101e3610505366004613230565b611598565b34801561051657600080fd5b506101e361052536600461314d565b6115eb565b34801561053657600080fd5b506101e3610545366004613020565b61169a565b34801561055657600080fd5b506101e3610565366004613020565b611718565b34801561057657600080fd5b506101e3610585366004613020565b6117d6565b34801561059657600080fd5b506101e3611880565b3480156105ab57600080fd5b506103726118d4565b3480156105c057600080fd5b506102506118e8565b3480156105d557600080fd5b506102506118f7565b3480156105ea57600080fd5b506101e36105f9366004613020565b611906565b600061060861197f565b151561061357600080fd5b81600160a060020a038116151561062957600080fd5b6007548390600160a060020a03908116908216811461069f5760078054600160a060020a03878116600160a060020a0319831617909255604051911694507f07998fa7be97abe2427246ae4688298c89d6196bbffdf0997b9495a8d27bc673906106969086908890613895565b60405180910390a15b5050505050565b60006106b061197f565b15156106bb57600080fd5b81600160a060020a03811615156106d157600080fd5b6003548390600160a060020a03908116908216811461069f5760038054600160a060020a03878116600160a060020a0319831617909255604051911694507f1882af944a16549c3d4f60e3cd26f158b0c7aac3222cf32971fc21375ce05f60906106969086908890613895565b60006107498261092b565b80156107705750600160a060020a0382166000908152600860205260409020600101544210155b92915050565b600654600160a060020a031681565b60055460a060020a900460ff1681565b3361079e610a68565b600160a060020a0316146107b157600080fd5b60005460ff16156107c157600080fd5b7f787a5d936e74f4b564b9153575886059829c78cd9927b1be5e0d976b317ef736336040516107f091906135c6565b60405180910390a133ff5b600061080561197f565b151561081057600080fd5b82600160a060020a038116151561082657600080fd5b600160a060020a03811630141561083c57600080fd5b600160a060020a03841660009081526008602052604090205460ff16151561086357600080fd5b61086c83611995565b600160a060020a038516600090815260086020908152604080832084845260020190915290205490925060ff16156108a357600080fd5b600160a060020a0384166000908152600860208181526040808420868552600281018352818520805460ff19166001908117909155938352600301805493840181558452922001839055517fec1b982d69bfc1a6fd8becf191d9a633486c822d3bdedd52303ca81fa63575019061091d908690869061374f565b60405180910390a150505050565b600160a060020a031660009081526008602052604090205460ff1690565b60005460ff1681565b600354600160a060020a031681565b600061096b61197f565b151561097657600080fd5b82600160a060020a038116151561098c57600080fd5b600160a060020a0381163014156109a257600080fd5b6109ab83611995565b600160a060020a038516600090815260086020908152604080832084845260020190915290205490925060ff1615156109e357600080fd5b600160a060020a038416600090815260086020908152604080832085845260020190915290819020805460ff19169055517f92f4af6130f47c92f3899e06611c8c6ef191fb81207ad2675d134af619d2fe7d9061091d908690869061374f565b60095481565b600754600160a060020a031681565b60065460a060020a900460ff1681565b6000546101009004600160a060020a031690565b610a8461197f565b1515610a8f57600080fd5b80600160a060020a0381161515610aa557600080fd5b600160a060020a038116301415610abb57600080fd5b600160a060020a03821660009081526008602052604090205460ff161515610ae257600080fd5b600160a060020a03821660009081526008602052604090819020805460ff19169055517f777645c5437dfbf962f57a281ead25f3d513f2f8e938685bbfc1738e81c9880e90610b329084906135c6565b60405180910390a15050565b600154600160a060020a031681565b6000610b5761197f565b1515610b6257600080fd5b81600160a060020a0381161515610b7857600080fd5b6006548390600160a060020a03908116908216811461069f5760065460a060020a900460ff1615610ba857600080fd5b60068054600160a060020a03878116600160a060020a0319831617909255604051911694507fb2a91d3a71b0c5bc7c083153b3474378e489506ba98bd4ddb1b9056fdc594bb5906106969086908890613895565b610c0461197f565b1515610c0f57600080fd5b6005805460a060020a60ff02191660a060020a1790556040517f56ec8900b9c4bf84f4b715a53068ca06961dd49084c07b481931e2c2045346e690600090a1565b600080610c5c83611995565b9050610c678461073e565b8015610c995750600160a060020a038416600090815260086020908152604080832084845260020190915290205460ff165b949350505050565b6000610cab61197f565b1515610cb657600080fd5b81600160a060020a0381161515610ccc57600080fd5b6002548390600160a060020a03908116908216811461069f5760028054600160a060020a03878116600160a060020a0319831617909255604051911694507f634f61bf00e14adedce330c80c2823e16e184f189ebe853e1ddecc4a268477ff906106969086908890613895565b6040805180820190915260148152606260020a7318da185b1b195b99d957d89e57dc185e5b595b9d02602082015281565b6000610d7461197f565b1515610d7f57600080fd5b81600160a060020a0381161515610d9557600080fd5b6004548390600160a060020a03908116908216811461069f5760048054600160a060020a03878116600160a060020a0319831617909255604051911694507fc9f3f00c1760fe26985aeacb814a21c56ea289d680562e89b249681b08c30382906106969086908890613895565b6040805180820190915260148152606260020a7318da185b1b195b99d957d89e57dc185e5b595b9d026020820152610e3a3382610c50565b1515610e4557600080fd5b60035460405160e060020a63a865476b0281528491600160a060020a03169063a865476b90610e789084906004016138cf565b602060405180830381600087803b158015610e9257600080fd5b505af1158015610ea6573d6000803e3d6000fd5b505050506040513d601f19601f82011682018060405250610eca9190810190613111565b1515610ed557600080fd5b60035460405160e060020a63ef04ec9502815285918791600160a060020a039091169063ef04ec9590610f0e90859085906004016138e0565b602060405180830381600087803b158015610f2857600080fd5b505af1158015610f3c573d6000803e3d6000fd5b505050506040513d601f19601f82011682018060405250610f609190810190613111565b1515610f6b57600080fd5b60075460c0870151602001515160405160e360020a6310c7a6c1028152600160a060020a039092169163863d360891610fa691600401613879565b602060405180830381600087803b158015610fc057600080fd5b505af1158015610fd4573d6000803e3d6000fd5b505050506040513d601f19601f82011682018060405250610ff89190810190613111565b1561100257600080fd5b600a54604080880151905160e360020a63076470a5028152600160a060020a0390921691633b2385289161103b918b919060040161376f565b602060405180830381600087803b15801561105557600080fd5b505af1158015611069573d6000803e3d6000fd5b505050506040513d601f19601f8201168201806040525061108d9190810190613111565b151561109857600080fd5b600a54604080880151905160e060020a635482c735028152600160a060020a0390921691635482c735916110d1918b919060040161376f565b602060405180830381600087803b1580156110eb57600080fd5b505af11580156110ff573d6000803e3d6000fd5b505050506040513d601f19601f820116820180604052506111239190810190613111565b1561112d57600080fd5b600a54604080880151905160e060020a632ee2ed25028152600160a060020a0390921691632ee2ed2591611166918b919060040161376f565b602060405180830381600087803b15801561118057600080fd5b505af1158015611194573d6000803e3d6000fd5b505050506040513d601f19601f820116820180604052506111b8919081019061312f565b606087015151116111c857600080fd5b600a54604080880151905160e060020a63553d90e9028152600160a060020a039092169163553d90e991611201918b919060040161376f565b602060405180830381600087803b15801561121b57600080fd5b505af115801561122f573d6000803e3d6000fd5b505050506040513d601f19601f82011682018060405250611253919081019061312f565b6060870151511161126357600080fd5b61126d8787611a5f565b151561127857600080fd5b6112948787606001516040015160000151886040015188611c32565b600a60009054906101000a9004600160a060020a0316600160a060020a031663667666c8888860400151888a60e001518b60600151600001518c60c00151602001516000015173__PaymentTypesLib_______________________635174abe96040518163ffffffff1660e060020a02815260040160006040518083038186803b15801561132157600080fd5b505af4158015611335573d6000803e3d6000fd5b505050506040513d6000823e601f3d908101601f1916820160405261135d91908101906131fc565b6040518863ffffffff1660e060020a028152600401611382979695949392919061378a565b600060405180830381600087803b15801561139c57600080fd5b505af11580156113b0573d6000803e3d6000fd5b5050600a546040808a0151905160e060020a632ee2ed250281527fd8d5bde9d752987d232cc8e9b1b2db3b12c3a339d7bc16524cfdf9aef99f65e494508b9350600160a060020a0390921691632ee2ed25916114119185919060040161376f565b602060405180830381600087803b15801561142b57600080fd5b505af115801561143f573d6000803e3d6000fd5b505050506040513d601f19601f82011682018060405250611463919081019061312f565b88886040516114759493929190613814565b60405180910390a150505050505050565b600454600160a060020a031681565b600254600160a060020a031681565b60006114ae61197f565b15156114b957600080fd5b81600160a060020a03811615156114cf57600080fd5b600a8054600160a060020a03858116600160a060020a03198316179283905560405191811694507ff21c127205310467822e10c64b2d9ffae588e019194d6af71f2bdddc0b7ef526926115289286929190911690613895565b60405180910390a1505050565b3361153e610a68565b600160a060020a03161461155157600080fd5b6000805460ff191660011790556040517fd5a2a04a775c741c2ca0dc46ea7ce4835190e1aaf1ca018def0e82568ec336169061158e9033906135c6565b60405180910390a1565b6115a061197f565b15156115ab57600080fd5b60098190556040517f4f1d324a1cbffc352fb64f1d73d95e4b200d92f99ef39bf2d7f5b41f946909d6906115e0908390613879565b60405180910390a150565b60006115f561197f565b151561160057600080fd5b81600160a060020a038116151561161657600080fd5b6005548390600160a060020a03908116908216811461069f5760055460a060020a900460ff161561164657600080fd5b60058054600160a060020a03878116600160a060020a0319831617909255604051911694507fa44d361e26327b72a7ccbeae801b3c5cd7677ea4fa74168b289e273c46bfecfc906106969086908890613895565b6116a261197f565b15156116ad57600080fd5b80600160a060020a03811615156116c357600080fd5b600160a060020a0381163014156116d957600080fd5b6116e582600954611ce1565b7f7f3a8349917003ed377f6e9ae1608b92edd893903f8983bd274b1f8373dd3b1182600954604051610b329291906137f9565b600061172261197f565b151561172d57600080fd5b81600160a060020a038116151561174357600080fd5b600160a060020a03811630141561175957600080fd5b600054600160a060020a0384811661010090920416146117d15760008054600160a060020a0385811661010090810261010060a860020a0319841617909355604051929091041692507f977e5fa58e458501775e0008d275006294c5249e3c08d1d0e3a9f3acad14f6e49061152890849086906135d4565b505050565b60006117e0611d33565b15156117eb57600080fd5b81600160a060020a038116151561180157600080fd5b600160a060020a03811630141561181757600080fd5b600154600160a060020a038481169116146117d15760018054600160a060020a03858116600160a060020a0319831617909255604051911692507f9f611b789425d0d5b90b920f1b2852907dd865c80074a30b1629aaa041d1812c9061152890849086906135d4565b61188861197f565b151561189357600080fd5b6006805460a060020a60ff02191660a060020a1790556040517f9c567b65fe8caab5ec7bc979a498a1322c1d4baf01a30727cbca137187560ea290600090a1565b6000546101009004600160a060020a031681565b600554600160a060020a031681565b600a54600160a060020a031681565b61190e61197f565b151561191957600080fd5b80600160a060020a038116151561192f57600080fd5b600160a060020a03811630141561194557600080fd5b611950826000611ce1565b7fb619d545cb511bd5f02907a1eac4f4cb8dace7b1846852fb0bf5e553937481c182604051610b3291906135c6565b6000546101009004600160a060020a0316331490565b6000816040516020018082805190602001908083835b602083106119ca5780518252601f1990920191602091820191016119ab565b6001836020036101000a0380198251168184511680821785525050505050509050019150506040516020818303038152906040526040518082805190602001908083835b60208310611a2d5780518252601f199092019160209182019101611a0e565b5181516020939093036101000a6000190180199091169216919091179052604051920182900390912095945050505050565b600a54604080830151905160e060020a63c46fcd75028152600092839283928392600160a060020a03169163c46fcd7591611a9e918a9160040161376f565b602060405180830381600087803b158015611ab857600080fd5b505af1158015611acc573d6000803e3d6000fd5b505050506040513d601f19601f82011682018060405250611af0919081019061312f565b604080870151600a54915160e160020a63374852cb028152929550611bd592611ba4928a9291600160a060020a0390911690636e90a59690611b38908590859060040161376f565b602060405180830381600087803b158015611b5257600080fd5b505af1158015611b66573d6000803e3d6000fd5b505050506040513d601f19601f82011682018060405250611b8a919081019061312f565b600654600160a060020a031692919063ffffffff611d4416565b6040870151600654611bc991600160a060020a03909116908a9063ffffffff611d5e16565b9063ffffffff611f7b16565b6060860151604090810151519087015160e0880151600654939550611c1293611bc992600160a060020a03909116918b919063ffffffff611d4416565b905080611c25848463ffffffff611fb716565b1293505b50505092915050565b600a5460405160e260020a6333ca4eab028152600160a060020a039091169063cf293aac90611c67908790869060040161376f565b602060405180830381600087803b158015611c8157600080fd5b505af1158015611c95573d6000803e3d6000fd5b505050506040513d601f19601f82011682018060405250611cb99190810190613111565b15611ccf57611cca84848484611fec565b611cdb565b611cdb84848484612270565b50505050565b600160a060020a03821660009081526008602052604090205460ff161515611d2f57600160a060020a0382166000908152600860205260409020805460ff1916600190811782554283019101555b5050565b600154600160a060020a0316331490565b600080611d5386868686612695565b509695505050505050565b6000611f7184600160a060020a03166371f4ec518587600160a060020a0316634652ec746040518163ffffffff1660e060020a028152600401602060405180830381600087803b158015611db157600080fd5b505af1158015611dc5573d6000803e3d6000fd5b505050506040513d601f19601f82011682018060405250611de9919081019061312f565b8651602088015160405160e060020a63ffffffff8716028152611e1294939291906004016136a6565b602060405180830381600087803b158015611e2c57600080fd5b505af1158015611e40573d6000803e3d6000fd5b505050506040513d601f19601f82011682018060405250611e64919081019061312f565b85600160a060020a03166371f4ec518688600160a060020a031663ded113106040518163ffffffff1660e060020a028152600401602060405180830381600087803b158015611eb257600080fd5b505af1158015611ec6573d6000803e3d6000fd5b505050506040513d601f19601f82011682018060405250611eea919081019061312f565b8751602089015160405160e060020a63ffffffff8716028152611f1394939291906004016136a6565b602060405180830381600087803b158015611f2d57600080fd5b505af1158015611f41573d6000803e3d6000fd5b505050506040513d601f19601f82011682018060405250611f65919081019061312f565b9063ffffffff611fb716565b90505b9392505050565b6000808212158015611f8f57508282840313155b80611fa65750600082128015611fa6575082828403135b1515611fb157600080fd5b50900390565b6000828201818312801590611fcc5750838112155b80611fe15750600083128015611fe157508381125b1515611f7457600080fd5b600a5460405160e060020a63b6e2fc33028152600160a060020a039091169063b6e2fc3390612021908790869060040161376f565b602060405180830381600087803b15801561203b57600080fd5b505af115801561204f573d6000803e3d6000fd5b505050506040513d601f19601f82011682018060405250612073919081019061316b565b600181111561207e57fe5b6001141561217757600554600a5460405160e060020a6356587229028152600160a060020a03928316926346c5c0239288929116906356587229906120c9908490899060040161376f565b602060405180830381600087803b1580156120e357600080fd5b505af11580156120f7573d6000803e3d6000fd5b505050506040513d601f19601f8201168201806040525061211b919081019061303e565b8551602087015160405160e060020a63ffffffff871602815261214494939291906004016135ef565b600060405180830381600087803b15801561215e57600080fd5b505af1158015612172573d6000803e3d6000fd5b505050505b60055482516020808501516002546040805160e060020a63fbdfd8e70281529051600160a060020a0396871696639a545322968c968a968d9692959094929093169263fbdfd8e792600480830193928290030181600087803b1580156121dc57600080fd5b505af11580156121f0573d6000803e3d6000fd5b505050506040513d601f19601f82011682018060405250612214919081019061312f565b6040518763ffffffff1660e060020a02815260040161223896959493929190613624565b600060405180830381600087803b15801561225257600080fd5b505af1158015612266573d6000803e3d6000fd5b5050505050505050565b612278612a26565b600a5460405160e060020a63b6e2fc33028152600091600160a060020a03169063b6e2fc33906122ae908990889060040161376f565b602060405180830381600087803b1580156122c857600080fd5b505af11580156122dc573d6000803e3d6000fd5b505050506040513d601f19601f82011682018060405250612300919081019061316b565b600181111561230b57fe5b600114156124015760048054600a5460405160e060020a6356587229028152600160a060020a0392831693634e791e0d9390921691635658722991612354918c918b910161376f565b602060405180830381600087803b15801561236e57600080fd5b505af1158015612382573d6000803e3d6000fd5b505050506040513d601f19601f820116820180604052506123a6919081019061303e565b8651602088015160405160e060020a63ffffffff86160281526123ce9392919060040161367e565b600060405180830381600087803b1580156123e857600080fd5b505af11580156123fc573d6000803e3d6000fd5b505050505b612409612959565b600480548251602080850151805191015160405160e160020a634197bc19028152959750600160a060020a039093169463832f783294612452948a94939290916000910161370d565b600060405180830381600087803b15801561246c57600080fd5b505af1158015612480573d6000803e3d6000fd5b50506004805487516020808a01516002546040805160e160020a63560069d9028152905173__SafeMathIntLib________________________995063755875b298508e97600160a060020a039788169763a72148eb979694169363ac00d3b293808301939192908290030181600087803b1580156124fd57600080fd5b505af1158015612511573d6000803e3d6000fd5b505050506040513d601f19601f82011682018060405250612535919081019061312f565b6040518463ffffffff1660e060020a02815260040161255693929190613850565b602060405180830381600087803b15801561257057600080fd5b505af1158015612584573d6000803e3d6000fd5b505050506040513d601f19601f820116820180604052506125a8919081019061312f565b6040518363ffffffff1660e060020a0281526004016125c89291906138b0565b60206040518083038186803b1580156125e057600080fd5b505af41580156125f4573d6000803e3d6000fd5b505050506040513d601f19601f82011682018060405250612618919081019061312f565b600480548651602088015160405160e160020a634197bc19028152949550600160a060020a039092169363832f78329361265b938993889390926000910161370d565b600060405180830381600087803b15801561267557600080fd5b505af1158015612689573d6000803e3d6000fd5b50505050505050505050565b60008060008060008089600160a060020a031663a246138c8a8c600160a060020a031663ded113106040518163ffffffff1660e060020a028152600401602060405180830381600087803b1580156126ec57600080fd5b505af1158015612700573d6000803e3d6000fd5b505050506040513d601f19601f82011682018060405250612724919081019061312f565b8b5160208d015160405160e060020a63ffffffff871602815261274f94939291908e906004016136c1565b6040805180830381600087803b15801561276857600080fd5b505af115801561277c573d6000803e3d6000fd5b505050506040513d601f19601f820116820180604052506127a091908101906131cc565b9350935089600160a060020a031663a246138c8a8c600160a060020a0316634652ec746040518163ffffffff1660e060020a028152600401602060405180830381600087803b1580156127f257600080fd5b505af1158015612806573d6000803e3d6000fd5b505050506040513d601f19601f8201168201806040525061282a919081019061312f565b8b5160208d015160405160e060020a63ffffffff871602815261285594939291908e906004016136c1565b6040805180830381600087803b15801561286e57600080fd5b505af1158015612882573d6000803e3d6000fd5b505050506040513d601f19601f820116820180604052506128a691908101906131cc565b90925090506128bb848363ffffffff611fb716565b60405160e060020a63a682d5ad02815290965073__SafeMathUintLib_______________________9063a682d5ad906128fa90869085906004016138b0565b60206040518083038186803b15801561291257600080fd5b505af4158015612926573d6000803e3d6000fd5b505050506040513d601f19601f8201168201806040525061294a919081019061312f565b94505050505094509492505050565b612961612a26565b6000806000600260009054906101000a9004600160a060020a0316600160a060020a031663ccd03d2e6040518163ffffffff1660e060020a028152600401606060405180830381600087803b1580156129b957600080fd5b505af11580156129cd573d6000803e3d6000fd5b505050506040513d601f19601f820116820180604052506129f19190810190613189565b6040805180820182529384528051808201909152600160a060020a039092168252602082810191909152820152949350505050565b60606040519081016040528060008152602001612a41612a46565b905290565b604080518082019091526000808252602082015290565b6000611f748235613977565b6000611f748251613977565b6000601f82018313612a8657600080fd5b8135612a99612a9482613926565b613900565b91508181835260208401935060208101905083856080840282011115612abe57600080fd5b60005b83811015612aec5781612ad48882612c6a565b84525060209092019160809190910190600101612ac1565b5050505092915050565b6000611f748251613983565b6000611f748235613988565b6000611f748251613988565b6000611f748235613991565b6000611f74825161399c565b6000601f82018313612b4357600080fd5b8135612b51612a9482613946565b91508082526020830160208301858383011115612b6d57600080fd5b611c298382846139ba565b6000601f82018313612b8957600080fd5b8151612b97612a9482613946565b91508082526020830160208301858383011115612bb357600080fd5b611c298382846139c6565b600060408284031215612bd057600080fd5b612bda6040613900565b90506000612be88484612a5d565b8252506020612bf984848301612b02565b60208301525092915050565b600060408284031215612c1757600080fd5b612c216040613900565b90506000612be88484612b02565b600060608284031215612c4157600080fd5b612c4b6040613900565b90506000612c598484612b02565b8252506020612bf984848301612bbe565b600060808284031215612c7c57600080fd5b612c866040613900565b90506000612c948484612b02565b8252506020612bf984848301612c2f565b600060a08284031215612cb757600080fd5b612cc16080613900565b90506000612ccf8484612b02565b8252506020612ce084848301612a5d565b6020830152506040612cf484828501612c05565b60408301525060808201356001604060020a03811115612d1357600080fd5b612d1f84828501612f8f565b60608301525092915050565b600060a08284031215612d3d57600080fd5b612d476080613900565b90506000612d558484612b02565b8252506020612d6684848301612a5d565b6020830152506040612d7a84828501612c05565b60408301525060808201356001604060020a03811115612d9957600080fd5b612d1f84828501612f3d565b60006102408284031215612db857600080fd5b612dc3610120613900565b90506000612dd18484612b02565b8252506020612de284848301612b02565b6020830152506040612df684828501612bbe565b60408301525060808201356001604060020a03811115612e1557600080fd5b612e2184828501612d2b565b60608301525060a08201356001604060020a03811115612e4057600080fd5b612e4c84828501612ca5565b60808301525060c0612e6084828501612c05565b60a083015250610100612e7584828501612fd8565b60c083015250610200612e8a84828501612b02565b60e083015250610220612e9f84828501612b02565b6101008301525092915050565b600060808284031215612ebe57600080fd5b612ec86040613900565b90506000612ed68484612b02565b8252506020612bf984848301600060608284031215612ef457600080fd5b612efe6060613900565b90506000612f0c8484612b02565b8252506020612f1d84848301612b02565b6020830152506040612f3184828501613014565b60408301525092915050565b600060808284031215612f4f57600080fd5b612f596040613900565b90506000612f678484612c2f565b82525060608201356001604060020a03811115612f8357600080fd5b612bf984828501612a75565b600060208284031215612fa157600080fd5b612fab6020613900565b905081356001604060020a03811115612fc357600080fd5b612fcf84828501612a75565b82525092915050565b60006101008284031215612feb57600080fd5b612ff56040613900565b905060006130038484612eac565b8252506080612bf984848301612eac565b6000611f74823561398b565b60006020828403121561303257600080fd5b6000610c998484612a5d565b60006020828403121561305057600080fd5b6000610c998484612a69565b6000806040838503121561306f57600080fd5b600061307b8585612a5d565b92505060208301356001604060020a0381111561309757600080fd5b6130a385828601612b32565b9150509250929050565b6000806000606084860312156130c257600080fd5b60006130ce8686612a5d565b93505060208401356001604060020a038111156130ea57600080fd5b6130f686828701612da5565b925050604061310786828701612a5d565b9150509250925092565b60006020828403121561312357600080fd5b6000610c998484612af6565b60006020828403121561314157600080fd5b6000610c998484612b0e565b60006020828403121561315f57600080fd5b6000610c998484612b1a565b60006020828403121561317d57600080fd5b6000610c998484612b26565b60008060006060848603121561319e57600080fd5b60006131aa8686612b0e565b93505060206131bb86828701612a69565b925050604061310786828701612b0e565b600080604083850312156131df57600080fd5b60006131eb8585612b0e565b92505060206130a385828601612b0e565b60006020828403121561320e57600080fd5b81516001604060020a0381111561322457600080fd5b610c9984828501612b78565b60006020828403121561324257600080fd5b6000610c998484612b02565b61325781613977565b82525050565b600061326882613973565b80845260208401935061327a8361396d565b60005b828110156132aa57613290868351613366565b6132998261396d565b60809690960195915060010161327d565b5093949350505050565b61325781613983565b61325781613988565b61325781613991565b613257816139af565b60006132e382613973565b8084526132f78160208601602086016139c6565b613300816139f2565b9093016020019392505050565b8051604083019061331e848261324e565b506020820151611cdb60208501826132bd565b8051604083019061331e84826132bd565b8051606083019061335384826132bd565b506020820151611cdb602085018261330d565b8051608083019061337784826132bd565b506020820151611cdb6020850182613342565b805160009060a084019061339e85826132bd565b5060208301516133b1602086018261324e565b5060408301516133c46040860182613331565b50606083015184820360808601526133dc8282613580565b95945050505050565b805160009060a08401906133f985826132bd565b50602083015161340c602086018261324e565b50604083015161341f6040860182613331565b50606083015184820360808601526133dc8282613554565b805160009061024084019061344c85826132bd565b50602083015161345f60208601826132bd565b506040830151613472604086018261330d565b506060830151848203608086015261348a82826133e5565b915050608083015184820360a08601526134a4828261338a565b91505060a08301516134b960c0860182613331565b5060c08301516134cd610100860182613598565b5060e08301516134e16102008601826132bd565b506101008301516134f66102208601826132bd565b509392505050565b8051608083019061350f84826132bd565b506020820151611cdb60208501828051606083019061352e84826132bd565b50602082015161354160208501826132bd565b506040820151611cdb60408501826135bd565b805160009060808401906135688582613342565b50602083015184820360608601526133dc828261325d565b80516020808452600091908401906133dc828261325d565b80516101008301906135aa84826134fe565b506020820151611cdb60808501826134fe565b6132578161398b565b60208101610770828461324e565b604081016135e2828561324e565b611f74602083018461324e565b608081016135fd828761324e565b61360a602083018661324e565b613617604083018561324e565b6133dc60608301846132bd565b60c08101613632828961324e565b61363f602083018861324e565b61364c60408301876132bd565b613659606083018661324e565b61366660808301856132bd565b61367360a08301846132bd565b979650505050505050565b6060810161368c828661324e565b613699602083018561324e565b610c9960408301846132bd565b608081016136b4828761324e565b61360a60208301866132bd565b60a081016136cf828861324e565b6136dc60208301876132bd565b6136e9604083018661324e565b6136f660608301856132bd565b61370360808301846132bd565b9695505050505050565b60a0810161371b828861324e565b61372860208301876132bd565b613735604083018661324e565b61374260608301856132bd565b61370360808301846132cf565b6040810161375d828561324e565b8181036020830152611f7181846132d8565b6060810161377d828561324e565b611f74602083018461330d565b6101008101613799828a61324e565b6137a6602083018961330d565b6137b3606083018861324e565b6137c060808301876132bd565b6137cd60a08301866132bd565b6137da60c08301856132bd565b81810360e08301526137ec81846132d8565b9998505050505050505050565b60408101613807828561324e565b611f7460208301846132bd565b60808101613822828761324e565b61382f60208301866132bd565b81810360408301526138418185613437565b90506133dc606083018461324e565b6060810161385e828661324e565b61369960208301856132bd565b6020810161077082846132b4565b6020810161077082846132bd565b6020810161077082846132c6565b604081016138a382856132c6565b611f7460208301846132c6565b6040810161380782856132bd565b60208082528101611f7481846132d8565b60208082528101611f748184613437565b604080825281016138f18185613437565b9050611f74602083018461324e565b6040518181016001604060020a038111828210171561391e57600080fd5b604052919050565b60006001604060020a0382111561393c57600080fd5b5060209081020190565b60006001604060020a0382111561395c57600080fd5b506020601f91909101601f19160190565b60200190565b5190565b600160a060020a031690565b151590565b90565b60ff1690565b600061077082613977565b6000600282106139ab57600080fd5b5090565b600061077082613988565b82818337506000910152565b60005b838110156139e15781810151838201526020016139c9565b83811115611cdb5750506000910152565b601f01601f1916905600a265627a7a723058202db67d4e37adce964df1ec543a768bda364e81289f3dab6096c985ce956d7b6d6c6578706572696d656e74616cf50037",
  "source": "/*\n * Hubii Nahmii\n *\n * Compliant with the Hubii Nahmii specification v0.12.\n *\n * Copyright (C) 2017-2018 Hubii AS\n */\n\npragma solidity ^0.4.25;\npragma experimental ABIEncoderV2;\n\nimport {Ownable} from \"./Ownable.sol\";\nimport {Configurable} from \"./Configurable.sol\";\nimport {Validatable} from \"./Validatable.sol\";\nimport {SecurityBondable} from \"./SecurityBondable.sol\";\nimport {WalletLockable} from \"./WalletLockable.sol\";\nimport {BalanceTrackable} from \"./BalanceTrackable.sol\";\nimport {FraudChallengable} from \"./FraudChallengable.sol\";\nimport {Servable} from \"./Servable.sol\";\nimport {SafeMathIntLib} from \"./SafeMathIntLib.sol\";\nimport {SafeMathUintLib} from \"./SafeMathUintLib.sol\";\nimport {MonetaryTypesLib} from \"./MonetaryTypesLib.sol\";\nimport {PaymentTypesLib} from \"./PaymentTypesLib.sol\";\nimport {SettlementChallengeTypesLib} from \"./SettlementChallengeTypesLib.sol\";\nimport {NullSettlementChallengeState} from \"./NullSettlementChallengeState.sol\";\nimport {BalanceTracker} from \"./BalanceTracker.sol\";\nimport {BalanceTrackerLib} from \"./BalanceTrackerLib.sol\";\n\n/**\n * @title NullSettlementDisputeByPayment\n * @notice The where payment related disputes of null settlement challenge happens\n */\ncontract NullSettlementDisputeByPayment is Ownable, Configurable, Validatable, SecurityBondable, WalletLockable,\nBalanceTrackable, FraudChallengable, Servable {\n    using SafeMathIntLib for int256;\n    using SafeMathUintLib for uint256;\n    using BalanceTrackerLib for BalanceTracker;\n\n    //\n    // Constants\n    // -----------------------------------------------------------------------------------------------------------------\n    string constant public CHALLENGE_BY_PAYMENT_ACTION = \"challenge_by_payment\";\n\n    //\n    // Variables\n    // -----------------------------------------------------------------------------------------------------------------\n    NullSettlementChallengeState public nullSettlementChallengeState;\n\n    //\n    // Events\n    // -----------------------------------------------------------------------------------------------------------------\n    event SetNullSettlementChallengeStateEvent(NullSettlementChallengeState oldNullSettlementChallengeState,\n        NullSettlementChallengeState newNullSettlementChallengeState);\n    event ChallengeByPaymentEvent(address wallet, uint256 nonce, PaymentTypesLib.Payment payment,\n        address challenger);\n\n    //\n    // Constructor\n    // -----------------------------------------------------------------------------------------------------------------\n    constructor(address deployer) Ownable(deployer) public {\n    }\n\n    /// @notice Set the settlement challenge state contract\n    /// @param newNullSettlementChallengeState The (address of) NullSettlementChallengeState contract instance\n    function setNullSettlementChallengeState(NullSettlementChallengeState newNullSettlementChallengeState) public\n    onlyDeployer\n    notNullAddress(newNullSettlementChallengeState)\n    {\n        NullSettlementChallengeState oldNullSettlementChallengeState = nullSettlementChallengeState;\n        nullSettlementChallengeState = newNullSettlementChallengeState;\n        emit SetNullSettlementChallengeStateEvent(oldNullSettlementChallengeState, nullSettlementChallengeState);\n    }\n\n    /// @notice Challenge the settlement by providing payment candidate\n    /// @dev This challenges the payment sender's side of things\n    /// @param wallet The wallet whose settlement is being challenged\n    /// @param payment The payment candidate that challenges\n    /// @param challenger The address of the challenger\n    function challengeByPayment(address wallet, PaymentTypesLib.Payment payment, address challenger)\n    public\n    onlyEnabledServiceAction(CHALLENGE_BY_PAYMENT_ACTION)\n    onlySealedPayment(payment)\n    onlyPaymentSender(payment, wallet)\n    {\n        // Require that payment candidate is not labelled fraudulent\n        require(!fraudChallenge.isFraudulentPaymentHash(payment.seals.operator.hash));\n\n        // Require that proposal has been initiated\n        require(nullSettlementChallengeState.hasProposal(wallet, payment.currency));\n\n        // Require that proposal has not expired\n        require(!nullSettlementChallengeState.hasProposalExpired(wallet, payment.currency));\n\n        // Require that payment party's nonce is strictly greater than proposal's nonce and its current\n        // disqualification nonce\n        require(payment.sender.nonce > nullSettlementChallengeState.proposalNonce(\n            wallet, payment.currency\n        ));\n        require(payment.sender.nonce > nullSettlementChallengeState.proposalDisqualificationNonce(\n            wallet, payment.currency\n        ));\n\n        // Require overrun for this payment to be a valid challenge candidate\n        require(_overrun(wallet, payment));\n\n        // Reward challenger\n        _settleRewards(wallet, payment.sender.balances.current, payment.currency, challenger);\n\n        // Disqualify proposal, effectively overriding any previous disqualification\n        nullSettlementChallengeState.disqualifyProposal(\n            wallet, payment.currency, challenger, payment.blockNumber,\n            payment.sender.nonce, payment.seals.operator.hash, PaymentTypesLib.PAYMENT_KIND()\n        );\n\n        // Emit event\n        emit ChallengeByPaymentEvent(\n            wallet, nullSettlementChallengeState.proposalNonce(wallet, payment.currency), payment, challenger\n        );\n    }\n\n    //\n    // Private functions\n    // -----------------------------------------------------------------------------------------------------------------\n    function _overrun(address wallet, PaymentTypesLib.Payment payment)\n    private\n    view\n    returns (bool)\n    {\n        // Get the target balance amount from the proposal\n        int targetBalanceAmount = nullSettlementChallengeState.proposalTargetBalanceAmount(\n            wallet, payment.currency\n        );\n\n        // Get the change in active balance since the start of the challenge\n        int256 deltaBalanceSinceStart = balanceTracker.fungibleActiveBalanceAmount(\n            wallet, payment.currency\n        ).sub(\n            balanceTracker.fungibleActiveBalanceAmountByBlockNumber(\n                wallet, payment.currency,\n                nullSettlementChallengeState.proposalReferenceBlockNumber(wallet, payment.currency)\n            )\n        );\n\n        // Get the cumulative transfer of the payment\n        int256 cumulativeTransfer = balanceTracker.fungibleActiveBalanceAmountByBlockNumber(\n            wallet, payment.currency, payment.blockNumber\n        ).sub(payment.sender.balances.current);\n\n        return targetBalanceAmount.add(deltaBalanceSinceStart) < cumulativeTransfer;\n    }\n\n    // Lock wallet's balances or reward challenger by stake fraction\n    function _settleRewards(address wallet, int256 walletAmount, MonetaryTypesLib.Currency currency,\n        address challenger)\n    private\n    {\n        if (nullSettlementChallengeState.proposalWalletInitiated(wallet, currency))\n            _settleBalanceReward(wallet, walletAmount, currency, challenger);\n\n        else\n            _settleSecurityBondReward(wallet, walletAmount, currency, challenger);\n    }\n\n    function _settleBalanceReward(address wallet, int256 walletAmount, MonetaryTypesLib.Currency currency,\n        address challenger)\n    private\n    {\n        // Unlock wallet/currency for existing challenger if previously locked\n        if (SettlementChallengeTypesLib.Status.Disqualified == nullSettlementChallengeState.proposalStatus(\n            wallet, currency\n        ))\n            walletLocker.unlockFungibleByProxy(\n                wallet,\n                nullSettlementChallengeState.proposalDisqualificationChallenger(\n                    wallet, currency\n                ),\n                currency.ct, currency.id\n            );\n\n        // Lock wallet for new challenger\n        walletLocker.lockFungibleByProxy(\n            wallet, challenger, walletAmount, currency.ct, currency.id, configuration.settlementChallengeTimeout()\n        );\n    }\n\n    // Settle the two-component reward from security bond.\n    // The first component is flat figure as obtained from Configuration\n    // The second component is progressive and calculated as\n    //    min(walletAmount, fraction of SecurityBond's deposited balance)\n    // both amounts for the given currency\n    function _settleSecurityBondReward(address wallet, int256 walletAmount, MonetaryTypesLib.Currency currency,\n        address challenger)\n    private\n    {\n        // Deprive existing challenger of reward if previously locked\n        if (SettlementChallengeTypesLib.Status.Disqualified == nullSettlementChallengeState.proposalStatus(\n            wallet, currency\n        ))\n            securityBond.depriveAbsolute(\n                nullSettlementChallengeState.proposalDisqualificationChallenger(\n                    wallet, currency\n                ),\n                currency.ct, currency.id\n            );\n\n        // Reward the flat component\n        MonetaryTypesLib.Figure memory flatReward = _flatReward();\n        securityBond.rewardAbsolute(\n            challenger, flatReward.amount, flatReward.currency.ct, flatReward.currency.id, 0\n        );\n\n        // Reward the progressive component\n        int256 progressiveRewardAmount = walletAmount.clampMax(\n            securityBond.depositedFractionalBalance(\n                currency.ct, currency.id, configuration.operatorSettlementStakeFraction()\n            )\n        );\n        securityBond.rewardAbsolute(\n            challenger, progressiveRewardAmount, currency.ct, currency.id, 0\n        );\n    }\n\n    function _flatReward()\n    private\n    view\n    returns (MonetaryTypesLib.Figure)\n    {\n        (int256 amount, address currencyCt, uint256 currencyId) = configuration.operatorSettlementStake();\n        return MonetaryTypesLib.Figure(amount, MonetaryTypesLib.Currency(currencyCt, currencyId));\n    }\n}",
  "sourcePath": "/opt/buildagent/work/855e104608380c36/contracts/NullSettlementDisputeByPayment.sol",
  "compiler": {
    "name": "solc",
    "version": "0.4.25+commit.59dbf8f1.Emscripten.clang"
  },
  "schemaVersion": "2.0.2",
  "updatedAt": "2019-04-18T00:23:49.763Z"
}