{
  "contractName": "PaymentHasher",
  "abi": [
    {
      "constant": false,
      "inputs": [],
      "name": "triggerSelfDestruction",
      "outputs": [],
      "payable": false,
      "stateMutability": "nonpayable",
      "type": "function"
    },
    {
      "constant": true,
      "inputs": [],
      "name": "selfDestructionDisabled",
      "outputs": [
        {
          "name": "",
          "type": "bool"
        }
      ],
      "payable": false,
      "stateMutability": "view",
      "type": "function"
    },
    {
      "constant": true,
      "inputs": [],
      "name": "destructor",
      "outputs": [
        {
          "name": "",
          "type": "address"
        }
      ],
      "payable": false,
      "stateMutability": "view",
      "type": "function"
    },
    {
      "constant": true,
      "inputs": [],
      "name": "operator",
      "outputs": [
        {
          "name": "",
          "type": "address"
        }
      ],
      "payable": false,
      "stateMutability": "view",
      "type": "function"
    },
    {
      "constant": false,
      "inputs": [],
      "name": "disableSelfDestruction",
      "outputs": [],
      "payable": false,
      "stateMutability": "nonpayable",
      "type": "function"
    },
    {
      "constant": false,
      "inputs": [
        {
          "name": "newDeployer",
          "type": "address"
        }
      ],
      "name": "setDeployer",
      "outputs": [],
      "payable": false,
      "stateMutability": "nonpayable",
      "type": "function"
    },
    {
      "constant": false,
      "inputs": [
        {
          "name": "newOperator",
          "type": "address"
        }
      ],
      "name": "setOperator",
      "outputs": [],
      "payable": false,
      "stateMutability": "nonpayable",
      "type": "function"
    },
    {
      "constant": true,
      "inputs": [],
      "name": "deployer",
      "outputs": [
        {
          "name": "",
          "type": "address"
        }
      ],
      "payable": false,
      "stateMutability": "view",
      "type": "function"
    },
    {
      "inputs": [
        {
          "name": "deployer",
          "type": "address"
        }
      ],
      "payable": false,
      "stateMutability": "nonpayable",
      "type": "constructor"
    },
    {
      "anonymous": false,
      "inputs": [
        {
          "indexed": false,
          "name": "oldDeployer",
          "type": "address"
        },
        {
          "indexed": false,
          "name": "newDeployer",
          "type": "address"
        }
      ],
      "name": "SetDeployerEvent",
      "type": "event"
    },
    {
      "anonymous": false,
      "inputs": [
        {
          "indexed": false,
          "name": "oldOperator",
          "type": "address"
        },
        {
          "indexed": false,
          "name": "newOperator",
          "type": "address"
        }
      ],
      "name": "SetOperatorEvent",
      "type": "event"
    },
    {
      "anonymous": false,
      "inputs": [
        {
          "indexed": false,
          "name": "wallet",
          "type": "address"
        }
      ],
      "name": "SelfDestructionDisabledEvent",
      "type": "event"
    },
    {
      "anonymous": false,
      "inputs": [
        {
          "indexed": false,
          "name": "wallet",
          "type": "address"
        }
      ],
      "name": "TriggerSelfDestructionEvent",
      "type": "event"
    },
    {
      "constant": true,
      "inputs": [
        {
          "components": [
            {
              "name": "amount",
              "type": "int256"
            },
            {
              "components": [
                {
                  "name": "ct",
                  "type": "address"
                },
                {
                  "name": "id",
                  "type": "uint256"
                }
              ],
              "name": "currency",
              "type": "tuple"
            },
            {
              "components": [
                {
                  "name": "nonce",
                  "type": "uint256"
                },
                {
                  "name": "wallet",
                  "type": "address"
                },
                {
                  "components": [
                    {
                      "name": "current",
                      "type": "int256"
                    },
                    {
                      "name": "previous",
                      "type": "int256"
                    }
                  ],
                  "name": "balances",
                  "type": "tuple"
                },
                {
                  "components": [
                    {
                      "components": [
                        {
                          "name": "amount",
                          "type": "int256"
                        },
                        {
                          "components": [
                            {
                              "name": "ct",
                              "type": "address"
                            },
                            {
                              "name": "id",
                              "type": "uint256"
                            }
                          ],
                          "name": "currency",
                          "type": "tuple"
                        }
                      ],
                      "name": "single",
                      "type": "tuple"
                    },
                    {
                      "components": [
                        {
                          "name": "originId",
                          "type": "uint256"
                        },
                        {
                          "components": [
                            {
                              "name": "amount",
                              "type": "int256"
                            },
                            {
                              "components": [
                                {
                                  "name": "ct",
                                  "type": "address"
                                },
                                {
                                  "name": "id",
                                  "type": "uint256"
                                }
                              ],
                              "name": "currency",
                              "type": "tuple"
                            }
                          ],
                          "name": "figure",
                          "type": "tuple"
                        }
                      ],
                      "name": "total",
                      "type": "tuple[]"
                    }
                  ],
                  "name": "fees",
                  "type": "tuple"
                },
                {
                  "name": "data",
                  "type": "string"
                }
              ],
              "name": "sender",
              "type": "tuple"
            },
            {
              "components": [
                {
                  "name": "nonce",
                  "type": "uint256"
                },
                {
                  "name": "wallet",
                  "type": "address"
                },
                {
                  "components": [
                    {
                      "name": "current",
                      "type": "int256"
                    },
                    {
                      "name": "previous",
                      "type": "int256"
                    }
                  ],
                  "name": "balances",
                  "type": "tuple"
                },
                {
                  "components": [
                    {
                      "components": [
                        {
                          "name": "originId",
                          "type": "uint256"
                        },
                        {
                          "components": [
                            {
                              "name": "amount",
                              "type": "int256"
                            },
                            {
                              "components": [
                                {
                                  "name": "ct",
                                  "type": "address"
                                },
                                {
                                  "name": "id",
                                  "type": "uint256"
                                }
                              ],
                              "name": "currency",
                              "type": "tuple"
                            }
                          ],
                          "name": "figure",
                          "type": "tuple"
                        }
                      ],
                      "name": "total",
                      "type": "tuple[]"
                    }
                  ],
                  "name": "fees",
                  "type": "tuple"
                }
              ],
              "name": "recipient",
              "type": "tuple"
            },
            {
              "components": [
                {
                  "name": "single",
                  "type": "int256"
                },
                {
                  "name": "total",
                  "type": "int256"
                }
              ],
              "name": "transfers",
              "type": "tuple"
            },
            {
              "components": [
                {
                  "components": [
                    {
                      "name": "hash",
                      "type": "bytes32"
                    },
                    {
                      "components": [
                        {
                          "name": "r",
                          "type": "bytes32"
                        },
                        {
                          "name": "s",
                          "type": "bytes32"
                        },
                        {
                          "name": "v",
                          "type": "uint8"
                        }
                      ],
                      "name": "signature",
                      "type": "tuple"
                    }
                  ],
                  "name": "wallet",
                  "type": "tuple"
                },
                {
                  "components": [
                    {
                      "name": "hash",
                      "type": "bytes32"
                    },
                    {
                      "components": [
                        {
                          "name": "r",
                          "type": "bytes32"
                        },
                        {
                          "name": "s",
                          "type": "bytes32"
                        },
                        {
                          "name": "v",
                          "type": "uint8"
                        }
                      ],
                      "name": "signature",
                      "type": "tuple"
                    }
                  ],
                  "name": "operator",
                  "type": "tuple"
                }
              ],
              "name": "seals",
              "type": "tuple"
            },
            {
              "name": "blockNumber",
              "type": "uint256"
            },
            {
              "components": [
                {
                  "name": "id",
                  "type": "uint256"
                },
                {
                  "name": "data",
                  "type": "string"
                }
              ],
              "name": "operator",
              "type": "tuple"
            }
          ],
          "name": "payment",
          "type": "tuple"
        }
      ],
      "name": "hashPaymentAsWallet",
      "outputs": [
        {
          "name": "",
          "type": "bytes32"
        }
      ],
      "payable": false,
      "stateMutability": "pure",
      "type": "function"
    },
    {
      "constant": true,
      "inputs": [
        {
          "components": [
            {
              "name": "amount",
              "type": "int256"
            },
            {
              "components": [
                {
                  "name": "ct",
                  "type": "address"
                },
                {
                  "name": "id",
                  "type": "uint256"
                }
              ],
              "name": "currency",
              "type": "tuple"
            },
            {
              "components": [
                {
                  "name": "nonce",
                  "type": "uint256"
                },
                {
                  "name": "wallet",
                  "type": "address"
                },
                {
                  "components": [
                    {
                      "name": "current",
                      "type": "int256"
                    },
                    {
                      "name": "previous",
                      "type": "int256"
                    }
                  ],
                  "name": "balances",
                  "type": "tuple"
                },
                {
                  "components": [
                    {
                      "components": [
                        {
                          "name": "amount",
                          "type": "int256"
                        },
                        {
                          "components": [
                            {
                              "name": "ct",
                              "type": "address"
                            },
                            {
                              "name": "id",
                              "type": "uint256"
                            }
                          ],
                          "name": "currency",
                          "type": "tuple"
                        }
                      ],
                      "name": "single",
                      "type": "tuple"
                    },
                    {
                      "components": [
                        {
                          "name": "originId",
                          "type": "uint256"
                        },
                        {
                          "components": [
                            {
                              "name": "amount",
                              "type": "int256"
                            },
                            {
                              "components": [
                                {
                                  "name": "ct",
                                  "type": "address"
                                },
                                {
                                  "name": "id",
                                  "type": "uint256"
                                }
                              ],
                              "name": "currency",
                              "type": "tuple"
                            }
                          ],
                          "name": "figure",
                          "type": "tuple"
                        }
                      ],
                      "name": "total",
                      "type": "tuple[]"
                    }
                  ],
                  "name": "fees",
                  "type": "tuple"
                },
                {
                  "name": "data",
                  "type": "string"
                }
              ],
              "name": "sender",
              "type": "tuple"
            },
            {
              "components": [
                {
                  "name": "nonce",
                  "type": "uint256"
                },
                {
                  "name": "wallet",
                  "type": "address"
                },
                {
                  "components": [
                    {
                      "name": "current",
                      "type": "int256"
                    },
                    {
                      "name": "previous",
                      "type": "int256"
                    }
                  ],
                  "name": "balances",
                  "type": "tuple"
                },
                {
                  "components": [
                    {
                      "components": [
                        {
                          "name": "originId",
                          "type": "uint256"
                        },
                        {
                          "components": [
                            {
                              "name": "amount",
                              "type": "int256"
                            },
                            {
                              "components": [
                                {
                                  "name": "ct",
                                  "type": "address"
                                },
                                {
                                  "name": "id",
                                  "type": "uint256"
                                }
                              ],
                              "name": "currency",
                              "type": "tuple"
                            }
                          ],
                          "name": "figure",
                          "type": "tuple"
                        }
                      ],
                      "name": "total",
                      "type": "tuple[]"
                    }
                  ],
                  "name": "fees",
                  "type": "tuple"
                }
              ],
              "name": "recipient",
              "type": "tuple"
            },
            {
              "components": [
                {
                  "name": "single",
                  "type": "int256"
                },
                {
                  "name": "total",
                  "type": "int256"
                }
              ],
              "name": "transfers",
              "type": "tuple"
            },
            {
              "components": [
                {
                  "components": [
                    {
                      "name": "hash",
                      "type": "bytes32"
                    },
                    {
                      "components": [
                        {
                          "name": "r",
                          "type": "bytes32"
                        },
                        {
                          "name": "s",
                          "type": "bytes32"
                        },
                        {
                          "name": "v",
                          "type": "uint8"
                        }
                      ],
                      "name": "signature",
                      "type": "tuple"
                    }
                  ],
                  "name": "wallet",
                  "type": "tuple"
                },
                {
                  "components": [
                    {
                      "name": "hash",
                      "type": "bytes32"
                    },
                    {
                      "components": [
                        {
                          "name": "r",
                          "type": "bytes32"
                        },
                        {
                          "name": "s",
                          "type": "bytes32"
                        },
                        {
                          "name": "v",
                          "type": "uint8"
                        }
                      ],
                      "name": "signature",
                      "type": "tuple"
                    }
                  ],
                  "name": "operator",
                  "type": "tuple"
                }
              ],
              "name": "seals",
              "type": "tuple"
            },
            {
              "name": "blockNumber",
              "type": "uint256"
            },
            {
              "components": [
                {
                  "name": "id",
                  "type": "uint256"
                },
                {
                  "name": "data",
                  "type": "string"
                }
              ],
              "name": "operator",
              "type": "tuple"
            }
          ],
          "name": "payment",
          "type": "tuple"
        }
      ],
      "name": "hashPaymentAsOperator",
      "outputs": [
        {
          "name": "",
          "type": "bytes32"
        }
      ],
      "payable": false,
      "stateMutability": "pure",
      "type": "function"
    },
    {
      "constant": true,
      "inputs": [
        {
          "components": [
            {
              "name": "amount",
              "type": "int256"
            },
            {
              "components": [
                {
                  "name": "ct",
                  "type": "address"
                },
                {
                  "name": "id",
                  "type": "uint256"
                }
              ],
              "name": "currency",
              "type": "tuple"
            },
            {
              "components": [
                {
                  "name": "nonce",
                  "type": "uint256"
                },
                {
                  "name": "wallet",
                  "type": "address"
                },
                {
                  "components": [
                    {
                      "name": "current",
                      "type": "int256"
                    },
                    {
                      "name": "previous",
                      "type": "int256"
                    }
                  ],
                  "name": "balances",
                  "type": "tuple"
                },
                {
                  "components": [
                    {
                      "components": [
                        {
                          "name": "amount",
                          "type": "int256"
                        },
                        {
                          "components": [
                            {
                              "name": "ct",
                              "type": "address"
                            },
                            {
                              "name": "id",
                              "type": "uint256"
                            }
                          ],
                          "name": "currency",
                          "type": "tuple"
                        }
                      ],
                      "name": "single",
                      "type": "tuple"
                    },
                    {
                      "components": [
                        {
                          "name": "originId",
                          "type": "uint256"
                        },
                        {
                          "components": [
                            {
                              "name": "amount",
                              "type": "int256"
                            },
                            {
                              "components": [
                                {
                                  "name": "ct",
                                  "type": "address"
                                },
                                {
                                  "name": "id",
                                  "type": "uint256"
                                }
                              ],
                              "name": "currency",
                              "type": "tuple"
                            }
                          ],
                          "name": "figure",
                          "type": "tuple"
                        }
                      ],
                      "name": "total",
                      "type": "tuple[]"
                    }
                  ],
                  "name": "fees",
                  "type": "tuple"
                },
                {
                  "name": "data",
                  "type": "string"
                }
              ],
              "name": "sender",
              "type": "tuple"
            },
            {
              "components": [
                {
                  "name": "nonce",
                  "type": "uint256"
                },
                {
                  "name": "wallet",
                  "type": "address"
                },
                {
                  "components": [
                    {
                      "name": "current",
                      "type": "int256"
                    },
                    {
                      "name": "previous",
                      "type": "int256"
                    }
                  ],
                  "name": "balances",
                  "type": "tuple"
                },
                {
                  "components": [
                    {
                      "components": [
                        {
                          "name": "originId",
                          "type": "uint256"
                        },
                        {
                          "components": [
                            {
                              "name": "amount",
                              "type": "int256"
                            },
                            {
                              "components": [
                                {
                                  "name": "ct",
                                  "type": "address"
                                },
                                {
                                  "name": "id",
                                  "type": "uint256"
                                }
                              ],
                              "name": "currency",
                              "type": "tuple"
                            }
                          ],
                          "name": "figure",
                          "type": "tuple"
                        }
                      ],
                      "name": "total",
                      "type": "tuple[]"
                    }
                  ],
                  "name": "fees",
                  "type": "tuple"
                }
              ],
              "name": "recipient",
              "type": "tuple"
            },
            {
              "components": [
                {
                  "name": "single",
                  "type": "int256"
                },
                {
                  "name": "total",
                  "type": "int256"
                }
              ],
              "name": "transfers",
              "type": "tuple"
            },
            {
              "components": [
                {
                  "components": [
                    {
                      "name": "hash",
                      "type": "bytes32"
                    },
                    {
                      "components": [
                        {
                          "name": "r",
                          "type": "bytes32"
                        },
                        {
                          "name": "s",
                          "type": "bytes32"
                        },
                        {
                          "name": "v",
                          "type": "uint8"
                        }
                      ],
                      "name": "signature",
                      "type": "tuple"
                    }
                  ],
                  "name": "wallet",
                  "type": "tuple"
                },
                {
                  "components": [
                    {
                      "name": "hash",
                      "type": "bytes32"
                    },
                    {
                      "components": [
                        {
                          "name": "r",
                          "type": "bytes32"
                        },
                        {
                          "name": "s",
                          "type": "bytes32"
                        },
                        {
                          "name": "v",
                          "type": "uint8"
                        }
                      ],
                      "name": "signature",
                      "type": "tuple"
                    }
                  ],
                  "name": "operator",
                  "type": "tuple"
                }
              ],
              "name": "seals",
              "type": "tuple"
            },
            {
              "name": "blockNumber",
              "type": "uint256"
            },
            {
              "components": [
                {
                  "name": "id",
                  "type": "uint256"
                },
                {
                  "name": "data",
                  "type": "string"
                }
              ],
              "name": "operator",
              "type": "tuple"
            }
          ],
          "name": "payment",
          "type": "tuple"
        }
      ],
      "name": "hashPaymentAmountCurrency",
      "outputs": [
        {
          "name": "",
          "type": "bytes32"
        }
      ],
      "payable": false,
      "stateMutability": "pure",
      "type": "function"
    },
    {
      "constant": true,
      "inputs": [
        {
          "components": [
            {
              "name": "nonce",
              "type": "uint256"
            },
            {
              "name": "wallet",
              "type": "address"
            },
            {
              "components": [
                {
                  "name": "current",
                  "type": "int256"
                },
                {
                  "name": "previous",
                  "type": "int256"
                }
              ],
              "name": "balances",
              "type": "tuple"
            },
            {
              "components": [
                {
                  "components": [
                    {
                      "name": "amount",
                      "type": "int256"
                    },
                    {
                      "components": [
                        {
                          "name": "ct",
                          "type": "address"
                        },
                        {
                          "name": "id",
                          "type": "uint256"
                        }
                      ],
                      "name": "currency",
                      "type": "tuple"
                    }
                  ],
                  "name": "single",
                  "type": "tuple"
                },
                {
                  "components": [
                    {
                      "name": "originId",
                      "type": "uint256"
                    },
                    {
                      "components": [
                        {
                          "name": "amount",
                          "type": "int256"
                        },
                        {
                          "components": [
                            {
                              "name": "ct",
                              "type": "address"
                            },
                            {
                              "name": "id",
                              "type": "uint256"
                            }
                          ],
                          "name": "currency",
                          "type": "tuple"
                        }
                      ],
                      "name": "figure",
                      "type": "tuple"
                    }
                  ],
                  "name": "total",
                  "type": "tuple[]"
                }
              ],
              "name": "fees",
              "type": "tuple"
            },
            {
              "name": "data",
              "type": "string"
            }
          ],
          "name": "paymentSenderParty",
          "type": "tuple"
        }
      ],
      "name": "hashPaymentSenderPartyAsWallet",
      "outputs": [
        {
          "name": "",
          "type": "bytes32"
        }
      ],
      "payable": false,
      "stateMutability": "pure",
      "type": "function"
    },
    {
      "constant": true,
      "inputs": [
        {
          "components": [
            {
              "name": "nonce",
              "type": "uint256"
            },
            {
              "name": "wallet",
              "type": "address"
            },
            {
              "components": [
                {
                  "name": "current",
                  "type": "int256"
                },
                {
                  "name": "previous",
                  "type": "int256"
                }
              ],
              "name": "balances",
              "type": "tuple"
            },
            {
              "components": [
                {
                  "components": [
                    {
                      "name": "amount",
                      "type": "int256"
                    },
                    {
                      "components": [
                        {
                          "name": "ct",
                          "type": "address"
                        },
                        {
                          "name": "id",
                          "type": "uint256"
                        }
                      ],
                      "name": "currency",
                      "type": "tuple"
                    }
                  ],
                  "name": "single",
                  "type": "tuple"
                },
                {
                  "components": [
                    {
                      "name": "originId",
                      "type": "uint256"
                    },
                    {
                      "components": [
                        {
                          "name": "amount",
                          "type": "int256"
                        },
                        {
                          "components": [
                            {
                              "name": "ct",
                              "type": "address"
                            },
                            {
                              "name": "id",
                              "type": "uint256"
                            }
                          ],
                          "name": "currency",
                          "type": "tuple"
                        }
                      ],
                      "name": "figure",
                      "type": "tuple"
                    }
                  ],
                  "name": "total",
                  "type": "tuple[]"
                }
              ],
              "name": "fees",
              "type": "tuple"
            },
            {
              "name": "data",
              "type": "string"
            }
          ],
          "name": "paymentSenderParty",
          "type": "tuple"
        }
      ],
      "name": "hashPaymentSenderPartyAsOperator",
      "outputs": [
        {
          "name": "",
          "type": "bytes32"
        }
      ],
      "payable": false,
      "stateMutability": "pure",
      "type": "function"
    },
    {
      "constant": true,
      "inputs": [
        {
          "components": [
            {
              "name": "nonce",
              "type": "uint256"
            },
            {
              "name": "wallet",
              "type": "address"
            },
            {
              "components": [
                {
                  "name": "current",
                  "type": "int256"
                },
                {
                  "name": "previous",
                  "type": "int256"
                }
              ],
              "name": "balances",
              "type": "tuple"
            },
            {
              "components": [
                {
                  "components": [
                    {
                      "name": "originId",
                      "type": "uint256"
                    },
                    {
                      "components": [
                        {
                          "name": "amount",
                          "type": "int256"
                        },
                        {
                          "components": [
                            {
                              "name": "ct",
                              "type": "address"
                            },
                            {
                              "name": "id",
                              "type": "uint256"
                            }
                          ],
                          "name": "currency",
                          "type": "tuple"
                        }
                      ],
                      "name": "figure",
                      "type": "tuple"
                    }
                  ],
                  "name": "total",
                  "type": "tuple[]"
                }
              ],
              "name": "fees",
              "type": "tuple"
            }
          ],
          "name": "paymentRecipientParty",
          "type": "tuple"
        }
      ],
      "name": "hashPaymentRecipientPartyAsOperator",
      "outputs": [
        {
          "name": "",
          "type": "bytes32"
        }
      ],
      "payable": false,
      "stateMutability": "pure",
      "type": "function"
    },
    {
      "constant": true,
      "inputs": [
        {
          "components": [
            {
              "name": "current",
              "type": "int256"
            },
            {
              "name": "previous",
              "type": "int256"
            }
          ],
          "name": "currentPreviousInt256",
          "type": "tuple"
        }
      ],
      "name": "hashCurrentPreviousInt256",
      "outputs": [
        {
          "name": "",
          "type": "bytes32"
        }
      ],
      "payable": false,
      "stateMutability": "pure",
      "type": "function"
    },
    {
      "constant": true,
      "inputs": [
        {
          "components": [
            {
              "name": "single",
              "type": "int256"
            },
            {
              "name": "total",
              "type": "int256"
            }
          ],
          "name": "singleTotalInt256",
          "type": "tuple"
        }
      ],
      "name": "hashSingleTotalInt256",
      "outputs": [
        {
          "name": "",
          "type": "bytes32"
        }
      ],
      "payable": false,
      "stateMutability": "pure",
      "type": "function"
    },
    {
      "constant": true,
      "inputs": [
        {
          "components": [
            {
              "name": "amount",
              "type": "int256"
            },
            {
              "components": [
                {
                  "name": "ct",
                  "type": "address"
                },
                {
                  "name": "id",
                  "type": "uint256"
                }
              ],
              "name": "currency",
              "type": "tuple"
            }
          ],
          "name": "figure",
          "type": "tuple"
        }
      ],
      "name": "hashFigure",
      "outputs": [
        {
          "name": "",
          "type": "bytes32"
        }
      ],
      "payable": false,
      "stateMutability": "pure",
      "type": "function"
    },
    {
      "constant": true,
      "inputs": [
        {
          "components": [
            {
              "name": "originId",
              "type": "uint256"
            },
            {
              "components": [
                {
                  "name": "amount",
                  "type": "int256"
                },
                {
                  "components": [
                    {
                      "name": "ct",
                      "type": "address"
                    },
                    {
                      "name": "id",
                      "type": "uint256"
                    }
                  ],
                  "name": "currency",
                  "type": "tuple"
                }
              ],
              "name": "figure",
              "type": "tuple"
            }
          ],
          "name": "originFigures",
          "type": "tuple[]"
        }
      ],
      "name": "hashOriginFigures",
      "outputs": [
        {
          "name": "",
          "type": "bytes32"
        }
      ],
      "payable": false,
      "stateMutability": "pure",
      "type": "function"
    },
    {
      "constant": true,
      "inputs": [
        {
          "name": "_uint256",
          "type": "uint256"
        }
      ],
      "name": "hashUint256",
      "outputs": [
        {
          "name": "",
          "type": "bytes32"
        }
      ],
      "payable": false,
      "stateMutability": "pure",
      "type": "function"
    },
    {
      "constant": true,
      "inputs": [
        {
          "name": "_string",
          "type": "string"
        }
      ],
      "name": "hashString",
      "outputs": [
        {
          "name": "",
          "type": "bytes32"
        }
      ],
      "payable": false,
      "stateMutability": "pure",
      "type": "function"
    },
    {
      "constant": true,
      "inputs": [
        {
          "name": "_address",
          "type": "address"
        }
      ],
      "name": "hashAddress",
      "outputs": [
        {
          "name": "",
          "type": "bytes32"
        }
      ],
      "payable": false,
      "stateMutability": "pure",
      "type": "function"
    },
    {
      "constant": true,
      "inputs": [
        {
          "components": [
            {
              "name": "r",
              "type": "bytes32"
            },
            {
              "name": "s",
              "type": "bytes32"
            },
            {
              "name": "v",
              "type": "uint8"
            }
          ],
          "name": "signature",
          "type": "tuple"
        }
      ],
      "name": "hashSignature",
      "outputs": [
        {
          "name": "",
          "type": "bytes32"
        }
      ],
      "payable": false,
      "stateMutability": "pure",
      "type": "function"
    }
  ],
  "bytecode": "0x60806040523480156200001157600080fd5b50604051620015bf380380620015bf8339810160408190526200003491620000b3565b80806001600160a01b0381166200004a57600080fd5b6001600160a01b0381163014156200006157600080fd5b5060008054610100600160a81b0319166101006001600160a01b0393909316928302179055600180546001600160a01b03191690911790555062000108565b8051620000ad81620000ee565b92915050565b600060208284031215620000c657600080fd5b6000620000d48484620000a0565b949350505050565b60006001600160a01b038216620000ad565b620000f981620000dc565b81146200010557600080fd5b50565b6114a780620001186000396000f3fe608060405234801561001057600080fd5b50600436106101125760003560e01c806303b381a41461011757806315c74fe71461014057806320838c66146101535780632738a112146101665780632f013a0014610170578063312aa825146101855780633aa5fe59146101985780634476d23b146101ab578063570ca735146101c057806370327ea1146101c8578063766954b4146101d057806396214735146101e3578063a2724843146101f6578063b3ab15fb14610209578063bb10d1791461021c578063d39d31741461022f578063d5f3948814610242578063dc072b951461024a578063dd27efe21461024a578063f988ea121461025d578063fd9292ea14610270578063fff4bcc61461027e575b600080fd5b61012a610125366004610fc2565b610291565b6040516101379190611322565b60405180910390f35b61012a61014e366004610f70565b610316565b61012a610161366004610fc2565b610355565b61016e610372565b005b6101786103d8565b6040516101379190611314565b61012a61019336600461102a565b6103e1565b61012a6101a6366004610ec4565b610404565b6101b3610417565b60405161013791906112dd565b6101b361042b565b61016e61043a565b61012a6101de366004610f1e565b61049d565b61016e6101f1366004610ec4565b6104b0565b61012a610204366004610ff6565b610570565b61016e610217366004610ec4565b6105d9565b61012a61022a366004610ff6565b61067c565b61012a61023d366004611048565b610719565b6101b361072c565b61012a610258366004610f52565b610740565b61012a61026b366004610eea565b61075d565b61012a61014e366004610ff6565b61012a61028c366004610f8e565b61081d565b6000806102a18360000151610719565b905060006102b28460400151610740565b905060006102c7856060015160000151610316565b905060006102dc86606001516020015161075d565b9050838383836040516020016102f5949392919061115a565b60405160208183030381529060405280519060200120945050505050919050565b8051602080830151805190820151604051600094610338949093929101611247565b604051602081830303815290604052805190602001209050919050565b600081602001518260800151604051602001610338929190611107565b3361037b610417565b6001600160a01b03161461038e57600080fd5b60005460ff161561039e57600080fd5b7f787a5d936e74f4b564b9153575886059829c78cd9927b1be5e0d976b317ef736336040516103cd91906112eb565b60405180910390a133ff5b60005460ff1681565b6000816040015182600001518360200151604051602001610338939291906112c1565b60008160405160200161033891906110f2565b60005461010090046001600160a01b031690565b6001546001600160a01b031681565b33610443610417565b6001600160a01b03161461045657600080fd5b6000805460ff191660011790556040517fd5a2a04a775c741c2ca0dc46ea7ce4835190e1aaf1ca018def0e82568ec33616906104939033906112eb565b60405180910390a1565b6000816040516020016103389190611299565b6104b8610853565b6104c157600080fd5b806001600160a01b0381166104d557600080fd5b6001600160a01b0381163014156104eb57600080fd5b6000546001600160a01b03838116610100909204161461056c57600080546001600160a01b03848116610100908102610100600160a81b03198416179093556040519290910416907f977e5fa58e458501775e0008d275006294c5249e3c08d1d0e3a9f3acad14f6e49061056290839086906112f9565b60405180910390a1505b5050565b60008061057c83610316565b9050600061058d8460400151610355565b905060006105a2856060015160200151610404565b90508282826040516020016105b993929190611123565b604051602081830303815290604052805190602001209350505050919050565b6105e1610869565b6105ea57600080fd5b806001600160a01b0381166105fe57600080fd5b6001600160a01b03811630141561061457600080fd5b6001546001600160a01b0383811691161461056c57600180546001600160a01b038481166001600160a01b03198316179092556040519116907f9f611b789425d0d5b90b920f1b2852907dd865c80074a30b1629aaa041d1812c9061056290839086906112f9565b6000806106948360a0015160000151602001516103e1565b905060006106a58460400151610291565b905060006106b6856060015161081d565b905060006106c78660800151610740565b905060006106dc8760e001516020015161049d565b905084848484846040516020016106f79594939291906111a2565b6040516020818303038152906040528051906020012095505050505050919050565b60008160405160200161033891906112ac565b60005461010090046001600160a01b031681565b600081600001518260200151604051602001610338929190611273565b600080805b8351811015610816578184828151811061077857fe5b60200260200101516000015185838151811061079057fe5b602002602001015160200151600001518684815181106107ac57fe5b60200260200101516020015160200151600001518785815181106107cc57fe5b60200260200101516020015160200151602001516040516020016107f49594939291906111fb565b60408051601f1981840301815291905280516020909101209150600101610762565b5092915050565b60008061082d8360000151610719565b9050600061083e8460400151610740565b905060006105a285606001516000015161075d565b60005461010090046001600160a01b0316331490565b6001546001600160a01b0316331490565b80356108858161143b565b92915050565b600082601f83011261089c57600080fd5b81356108af6108aa82611356565b611330565b915081818352602084019350602081019050838560808402820111156108d457600080fd5b60005b8381101561090257816108ea8882610ad6565b845250602090920191608091909101906001016108d7565b5050505092915050565b600082601f83011261091d57600080fd5b813561092b6108aa82611356565b9150818183526020840193506020810190508385608084028201111561095057600080fd5b60005b8381101561090257816109668882610ad6565b84525060209092019160809190910190600101610953565b803561088581611452565b600082601f83011261099a57600080fd5b81356109a86108aa82611376565b915080825260208301602083018583830111156109c457600080fd5b6109cf8382846113dc565b50505092915050565b6000604082840312156109ea57600080fd5b6109f46040611330565b90506000610a02848461087a565b8252506020610a138484830161097e565b60208301525092915050565b600060408284031215610a3157600080fd5b610a3b6040611330565b90506000610a02848461097e565b600060608284031215610a5b57600080fd5b610a656040611330565b90506000610a73848461097e565b8252506020610a13848483016109d8565b600060408284031215610a9657600080fd5b610aa06040611330565b90506000610aae848461097e565b82525060208201356001600160401b03811115610aca57600080fd5b610a1384828501610989565b600060808284031215610ae857600080fd5b610af26040611330565b90506000610b00848461097e565b8252506020610a1384848301610a49565b600060a08284031215610b2357600080fd5b610b2d6080611330565b90506000610b3b848461097e565b8252506020610b4c8484830161087a565b6020830152506040610b6084828501610a1f565b60408301525060808201356001600160401b03811115610b7f57600080fd5b610b8b84828501610e34565b60608301525092915050565b600060c08284031215610ba957600080fd5b610bb360a0611330565b90506000610bc1848461097e565b8252506020610bd28484830161087a565b6020830152506040610be684828501610a1f565b60408301525060808201356001600160401b03811115610c0557600080fd5b610c1184828501610de2565b60608301525060a08201356001600160401b03811115610c3057600080fd5b610c3c84828501610989565b60808301525092915050565b60006102208284031215610c5b57600080fd5b610c66610100611330565b90506000610c74848461097e565b8252506020610c85848483016109d8565b60208301525060608201356001600160401b03811115610ca457600080fd5b610cb084828501610b97565b60408301525060808201356001600160401b03811115610ccf57600080fd5b610cdb84828501610b11565b60608301525060a0610cef84828501610a1f565b60808301525060e0610d0384828501610e7d565b60a0830152506101e0610d188482850161097e565b60c0830152506102008201356001600160401b03811115610d3857600080fd5b610d4484828501610a84565b60e08301525092915050565b600060808284031215610d6257600080fd5b610d6c6040611330565b90506000610d7a848461097e565b8252506020610a13848483015b600060608284031215610d9957600080fd5b610da36060611330565b90506000610db1848461097e565b8252506020610dc28484830161097e565b6020830152506040610dd684828501610eb9565b60408301525092915050565b600060808284031215610df457600080fd5b610dfe6040611330565b90506000610e0c8484610a49565b82525060608201356001600160401b03811115610e2857600080fd5b610a138482850161088b565b600060208284031215610e4657600080fd5b610e506020611330565b905081356001600160401b03811115610e6857600080fd5b610e748482850161088b565b82525092915050565b60006101008284031215610e9057600080fd5b610e9a6040611330565b90506000610ea88484610d50565b8252506080610a1384848301610d50565b80356108858161145b565b600060208284031215610ed657600080fd5b6000610ee2848461087a565b949350505050565b600060208284031215610efc57600080fd5b81356001600160401b03811115610f1257600080fd5b610ee28482850161090c565b600060208284031215610f3057600080fd5b81356001600160401b03811115610f4657600080fd5b610ee284828501610989565b600060408284031215610f6457600080fd5b6000610ee28484610a1f565b600060608284031215610f8257600080fd5b6000610ee28484610a49565b600060208284031215610fa057600080fd5b81356001600160401b03811115610fb657600080fd5b610ee284828501610b11565b600060208284031215610fd457600080fd5b81356001600160401b03811115610fea57600080fd5b610ee284828501610b97565b60006020828403121561100857600080fd5b81356001600160401b0381111561101e57600080fd5b610ee284828501610c48565b60006060828403121561103c57600080fd5b6000610ee28484610d87565b60006020828403121561105a57600080fd5b6000610ee2848461097e565b61106f816113cb565b82525050565b61106f816113a6565b61106f61108a826113a6565b611418565b61106f816113b1565b61106f816113b6565b61106f6110ad826113b6565b6113b6565b60006110bd8261139d565b6110c781856113a1565b93506110d78185602086016113e8565b9290920192915050565b61106f6110ed826113c5565b611429565b60006110fe828461107e565b50601401919050565b6000611113828561107e565b601482019150610ee282846110b2565b600061112f82866110a1565b60208201915061113f82856110a1565b60208201915061114f82846110a1565b506020019392505050565b600061116682876110a1565b60208201915061117682866110a1565b60208201915061118682856110a1565b60208201915061119682846110a1565b50602001949350505050565b60006111ae82886110a1565b6020820191506111be82876110a1565b6020820191506111ce82866110a1565b6020820191506111de82856110a1565b6020820191506111ee82846110a1565b5060200195945050505050565b600061120782886110a1565b60208201915061121782876110a1565b60208201915061122782866110a1565b602082019150611237828561107e565b6014820191506111ee82846110a1565b600061125382866110a1565b602082019150611263828561107e565b60148201915061114f82846110a1565b600061127f82856110a1565b60208201915061128f82846110a1565b5060200192915050565b60006112a582846110b2565b9392505050565b60006112b882846110a1565b50602001919050565b60006112cd82866110e1565b60018201915061113f82856110a1565b602081016108858284611075565b602081016108858284611066565b604081016113078285611075565b6112a56020830184611075565b60208101610885828461108f565b602081016108858284611098565b6040518181016001600160401b038111828210171561134e57600080fd5b604052919050565b60006001600160401b0382111561136c57600080fd5b5060209081020190565b60006001600160401b0382111561138c57600080fd5b506020601f91909101601f19160190565b5190565b919050565b6000610885826113b9565b151590565b90565b6001600160a01b031690565b60ff1690565b6000610885826000610885826113a6565b82818337506000910152565b60005b838110156114035781810151838201526020016113eb565b83811115611412576000848401525b50505050565b600061088582600061088582611435565b60006108858260f81b90565b60601b90565b611444816113a6565b811461144f57600080fd5b50565b611444816113b6565b611444816113c556fea365627a7a72305820af9a34f8b026db7e8fd67fcfc4dd4ec69ffc8ce49cec62662120fdf620f4156b6c6578706572696d656e74616cf564736f6c63430005090040",
  "source": "/*\n * Hubii Nahmii\n *\n * Compliant with the Hubii Nahmii specification v0.12.\n *\n * Copyright (C) 2017-2018 Hubii AS\n */\n\npragma solidity >=0.4.25 <0.6.0;\npragma experimental ABIEncoderV2;\n\nimport {Ownable} from \"./Ownable.sol\";\nimport {MonetaryTypesLib} from \"./MonetaryTypesLib.sol\";\nimport {NahmiiTypesLib} from \"./NahmiiTypesLib.sol\";\nimport {PaymentTypesLib} from \"./PaymentTypesLib.sol\";\n\n/**\n * @title PaymentHasher\n * @notice Contract that hashes types related to payment\n */\ncontract PaymentHasher is Ownable {\n    //\n    // Constructor\n    // -----------------------------------------------------------------------------------------------------------------\n    constructor(address deployer) Ownable(deployer) public {\n    }\n\n    //\n    // Functions\n    // -----------------------------------------------------------------------------------------------------------------\n    function hashPaymentAsWallet(PaymentTypesLib.Payment memory payment)\n    public\n    pure\n    returns (bytes32)\n    {\n        bytes32 amountCurrencyHash = hashPaymentAmountCurrency(payment);\n        bytes32 senderHash = hashPaymentSenderPartyAsWallet(payment.sender);\n        bytes32 recipientHash = hashAddress(payment.recipient.wallet);\n\n        return keccak256(abi.encodePacked(amountCurrencyHash, senderHash, recipientHash));\n    }\n\n    function hashPaymentAsOperator(PaymentTypesLib.Payment memory payment)\n    public\n    pure\n    returns (bytes32)\n    {\n        bytes32 walletSignatureHash = hashSignature(payment.seals.wallet.signature);\n        bytes32 senderHash = hashPaymentSenderPartyAsOperator(payment.sender);\n        bytes32 recipientHash = hashPaymentRecipientPartyAsOperator(payment.recipient);\n        bytes32 transfersHash = hashSingleTotalInt256(payment.transfers);\n        bytes32 operatorHash = hashString(payment.operator.data);\n\n        return keccak256(abi.encodePacked(\n                walletSignatureHash, senderHash, recipientHash, transfersHash, operatorHash\n            ));\n    }\n\n    function hashPaymentAmountCurrency(PaymentTypesLib.Payment memory payment)\n    public\n    pure\n    returns (bytes32)\n    {\n        return keccak256(abi.encodePacked(\n                payment.amount,\n                payment.currency.ct,\n                payment.currency.id\n            ));\n    }\n\n    function hashPaymentSenderPartyAsWallet(\n        PaymentTypesLib.PaymentSenderParty memory paymentSenderParty)\n    public\n    pure\n    returns (bytes32)\n    {\n        return keccak256(abi.encodePacked(\n                paymentSenderParty.wallet,\n                paymentSenderParty.data\n            ));\n    }\n\n    function hashPaymentSenderPartyAsOperator(\n        PaymentTypesLib.PaymentSenderParty memory paymentSenderParty)\n    public\n    pure\n    returns (bytes32)\n    {\n        bytes32 rootHash = hashUint256(paymentSenderParty.nonce);\n        bytes32 balancesHash = hashCurrentPreviousInt256(paymentSenderParty.balances);\n        bytes32 singleFeeHash = hashFigure(paymentSenderParty.fees.single);\n        bytes32 totalFeesHash = hashOriginFigures(paymentSenderParty.fees.total);\n\n        return keccak256(abi.encodePacked(\n                rootHash, balancesHash, singleFeeHash, totalFeesHash\n            ));\n    }\n\n    function hashPaymentRecipientPartyAsOperator(\n        PaymentTypesLib.PaymentRecipientParty memory paymentRecipientParty)\n    public\n    pure\n    returns (bytes32)\n    {\n        bytes32 rootHash = hashUint256(paymentRecipientParty.nonce);\n        bytes32 balancesHash = hashCurrentPreviousInt256(paymentRecipientParty.balances);\n        bytes32 totalFeesHash = hashOriginFigures(paymentRecipientParty.fees.total);\n\n        return keccak256(abi.encodePacked(\n                rootHash, balancesHash, totalFeesHash\n            ));\n    }\n\n    function hashCurrentPreviousInt256(\n        NahmiiTypesLib.CurrentPreviousInt256 memory currentPreviousInt256)\n    public\n    pure\n    returns (bytes32)\n    {\n        return keccak256(abi.encodePacked(\n                currentPreviousInt256.current,\n                currentPreviousInt256.previous\n            ));\n    }\n\n    function hashSingleTotalInt256(\n        NahmiiTypesLib.SingleTotalInt256 memory singleTotalInt256)\n    public\n    pure\n    returns (bytes32)\n    {\n        return keccak256(abi.encodePacked(\n                singleTotalInt256.single,\n                singleTotalInt256.total\n            ));\n    }\n\n    function hashFigure(MonetaryTypesLib.Figure memory figure)\n    public\n    pure\n    returns (bytes32)\n    {\n        return keccak256(abi.encodePacked(\n                figure.amount,\n                figure.currency.ct,\n                figure.currency.id\n            ));\n    }\n\n    function hashOriginFigures(NahmiiTypesLib.OriginFigure[] memory originFigures)\n    public\n    pure\n    returns (bytes32)\n    {\n        bytes32 hash;\n        for (uint256 i = 0; i < originFigures.length; i++) {\n            hash = keccak256(abi.encodePacked(\n                    hash,\n                    originFigures[i].originId,\n                    originFigures[i].figure.amount,\n                    originFigures[i].figure.currency.ct,\n                    originFigures[i].figure.currency.id\n                )\n            );\n        }\n        return hash;\n    }\n\n    function hashUint256(uint256 _uint256)\n    public\n    pure\n    returns (bytes32)\n    {\n        return keccak256(abi.encodePacked(_uint256));\n    }\n\n    function hashString(string memory _string)\n    public\n    pure\n    returns (bytes32)\n    {\n        return keccak256(abi.encodePacked(_string));\n    }\n\n    function hashAddress(address _address)\n    public\n    pure\n    returns (bytes32)\n    {\n        return keccak256(abi.encodePacked(_address));\n    }\n\n    function hashSignature(NahmiiTypesLib.Signature memory signature)\n    public\n    pure\n    returns (bytes32)\n    {\n        return keccak256(abi.encodePacked(\n                signature.v,\n                signature.r,\n                signature.s\n            ));\n    }\n}",
  "sourcePath": "/opt/buildagent/work/855e104608380c36/contracts/PaymentHasher.sol",
  "compiler": {
    "name": "solc",
    "version": "0.5.9+commit.e560f70d.Emscripten.clang"
  },
  "schemaVersion": "2.0.2",
  "updatedAt": "2019-06-15T22:15:57.157Z"
}