{
  "contractName": "PaymentTypesLib",
  "abi": [
    {
      "constant": true,
      "inputs": [],
      "name": "PAYMENT_KIND",
      "outputs": [
        {
          "name": "",
          "type": "string"
        }
      ],
      "payable": false,
      "stateMutability": "pure",
      "type": "function"
    }
  ],
  "bytecode": "0x610109610030600b82828239805160001a6073146000811461002057610022565bfe5b5030600052607381538281f3007300000000000000000000000000000000000000003014608060405260043610603c5763ffffffff60e060020a6000350416635174abe981146041575b600080fd5b604760b9565b6040805160208082528351818301528351919283929083019185019080838360005b83811015607f5781810151838201526020016069565b50505050905090810190601f16801560ab5780820380516001836020036101000a031916815260200191505b509250505060405180910390f35b604080518082019091526007815260ca60020a661c185e5b595b9d026020820152905600a165627a7a7230582070e0fbbf74e5762a782189f5b28b36de882f99ec7c6d8b2d76c0d2f1e420e5ed0029",
  "source": "/*\n * Hubii Nahmii\n *\n * Compliant with the Hubii Nahmii specification v0.12.\n *\n * Copyright (C) 2017-2018 Hubii AS\n */\n\npragma solidity ^0.4.25;\n\nimport {MonetaryTypesLib} from \"./MonetaryTypesLib.sol\";\nimport {NahmiiTypesLib} from \"./NahmiiTypesLib.sol\";\n\n/**\n * @title     PaymentTypesLib\n * @dev       Data types centered around payment\n */\nlibrary PaymentTypesLib {\n    //\n    // Enums\n    // -----------------------------------------------------------------------------------------------------------------\n    enum PaymentPartyRole {Sender, Recipient}\n\n    //\n    // Structures\n    // -----------------------------------------------------------------------------------------------------------------\n    struct PaymentSenderParty {\n        uint256 nonce;\n        address wallet;\n\n        NahmiiTypesLib.CurrentPreviousInt256 balances;\n\n        NahmiiTypesLib.SingleFigureTotalOriginFigures fees;\n    }\n\n    struct PaymentRecipientParty {\n        uint256 nonce;\n        address wallet;\n\n        NahmiiTypesLib.CurrentPreviousInt256 balances;\n\n        NahmiiTypesLib.TotalOriginFigures fees;\n    }\n\n    struct Payment {\n        uint256 nonce;\n\n        int256 amount;\n        MonetaryTypesLib.Currency currency;\n\n        PaymentSenderParty sender;\n        PaymentRecipientParty recipient;\n\n        // Positive transfer is always in direction from sender to recipient\n        NahmiiTypesLib.SingleTotalInt256 transfers;\n\n        NahmiiTypesLib.WalletOperatorSeal seals;\n        uint256 blockNumber;\n        uint256 operatorId;\n    }\n\n    //\n    // Functions\n    // -----------------------------------------------------------------------------------------------------------------\n    function PAYMENT_KIND()\n    public\n    pure\n    returns (string)\n    {\n        return \"payment\";\n    }\n}",
  "sourcePath": "/opt/buildagent/work/855e104608380c36/contracts/PaymentTypesLib.sol",
  "compiler": {
    "name": "solc",
    "version": "0.4.25+commit.59dbf8f1.Emscripten.clang"
  },
  "schemaVersion": "2.0.2",
  "updatedAt": "2019-04-18T00:23:49.807Z"
}