{
  "contractName": "RevenueFund",
  "abi": [
    {
      "constant": true,
      "inputs": [],
      "name": "totalBeneficiaryFraction",
      "outputs": [
        {
          "name": "",
          "type": "int256"
        }
      ],
      "payable": false,
      "stateMutability": "view",
      "type": "function"
    },
    {
      "constant": true,
      "inputs": [
        {
          "name": "beneficiary",
          "type": "address"
        }
      ],
      "name": "isRegisteredBeneficiary",
      "outputs": [
        {
          "name": "",
          "type": "bool"
        }
      ],
      "payable": false,
      "stateMutability": "view",
      "type": "function"
    },
    {
      "constant": false,
      "inputs": [
        {
          "name": "beneficiary",
          "type": "address"
        }
      ],
      "name": "deregisterBeneficiary",
      "outputs": [
        {
          "name": "",
          "type": "bool"
        }
      ],
      "payable": false,
      "stateMutability": "nonpayable",
      "type": "function"
    },
    {
      "constant": false,
      "inputs": [],
      "name": "triggerSelfDestruction",
      "outputs": [],
      "payable": false,
      "stateMutability": "nonpayable",
      "type": "function"
    },
    {
      "constant": true,
      "inputs": [],
      "name": "selfDestructionDisabled",
      "outputs": [
        {
          "name": "",
          "type": "bool"
        }
      ],
      "payable": false,
      "stateMutability": "view",
      "type": "function"
    },
    {
      "constant": false,
      "inputs": [
        {
          "name": "beneficiary",
          "type": "address"
        },
        {
          "name": "fraction",
          "type": "int256"
        }
      ],
      "name": "registerFractionalBeneficiary",
      "outputs": [
        {
          "name": "",
          "type": "bool"
        }
      ],
      "payable": false,
      "stateMutability": "nonpayable",
      "type": "function"
    },
    {
      "constant": true,
      "inputs": [],
      "name": "destructor",
      "outputs": [
        {
          "name": "",
          "type": "address"
        }
      ],
      "payable": false,
      "stateMutability": "view",
      "type": "function"
    },
    {
      "constant": true,
      "inputs": [],
      "name": "operator",
      "outputs": [
        {
          "name": "",
          "type": "address"
        }
      ],
      "payable": false,
      "stateMutability": "view",
      "type": "function"
    },
    {
      "constant": true,
      "inputs": [],
      "name": "registeredBeneficiariesCount",
      "outputs": [
        {
          "name": "",
          "type": "uint256"
        }
      ],
      "payable": false,
      "stateMutability": "view",
      "type": "function"
    },
    {
      "constant": false,
      "inputs": [],
      "name": "disableSelfDestruction",
      "outputs": [],
      "payable": false,
      "stateMutability": "nonpayable",
      "type": "function"
    },
    {
      "constant": true,
      "inputs": [
        {
          "name": "beneficiary",
          "type": "address"
        }
      ],
      "name": "beneficiaryFraction",
      "outputs": [
        {
          "name": "",
          "type": "int256"
        }
      ],
      "payable": false,
      "stateMutability": "view",
      "type": "function"
    },
    {
      "constant": false,
      "inputs": [
        {
          "name": "newDeployer",
          "type": "address"
        }
      ],
      "name": "setDeployer",
      "outputs": [],
      "payable": false,
      "stateMutability": "nonpayable",
      "type": "function"
    },
    {
      "constant": true,
      "inputs": [],
      "name": "transferControllerManager",
      "outputs": [
        {
          "name": "",
          "type": "address"
        }
      ],
      "payable": false,
      "stateMutability": "view",
      "type": "function"
    },
    {
      "constant": false,
      "inputs": [
        {
          "name": "newOperator",
          "type": "address"
        }
      ],
      "name": "setOperator",
      "outputs": [],
      "payable": false,
      "stateMutability": "nonpayable",
      "type": "function"
    },
    {
      "constant": false,
      "inputs": [
        {
          "name": "beneficiary",
          "type": "address"
        }
      ],
      "name": "registerBeneficiary",
      "outputs": [
        {
          "name": "",
          "type": "bool"
        }
      ],
      "payable": false,
      "stateMutability": "nonpayable",
      "type": "function"
    },
    {
      "constant": false,
      "inputs": [
        {
          "name": "newTransferControllerManager",
          "type": "address"
        }
      ],
      "name": "setTransferControllerManager",
      "outputs": [],
      "payable": false,
      "stateMutability": "nonpayable",
      "type": "function"
    },
    {
      "constant": true,
      "inputs": [],
      "name": "deployer",
      "outputs": [
        {
          "name": "",
          "type": "address"
        }
      ],
      "payable": false,
      "stateMutability": "view",
      "type": "function"
    },
    {
      "inputs": [
        {
          "name": "deployer",
          "type": "address"
        }
      ],
      "payable": false,
      "stateMutability": "nonpayable",
      "type": "constructor"
    },
    {
      "payable": true,
      "stateMutability": "payable",
      "type": "fallback"
    },
    {
      "anonymous": false,
      "inputs": [
        {
          "indexed": false,
          "name": "from",
          "type": "address"
        },
        {
          "indexed": false,
          "name": "amount",
          "type": "int256"
        },
        {
          "indexed": false,
          "name": "currencyCt",
          "type": "address"
        },
        {
          "indexed": false,
          "name": "currencyId",
          "type": "uint256"
        }
      ],
      "name": "ReceiveEvent",
      "type": "event"
    },
    {
      "anonymous": false,
      "inputs": [],
      "name": "CloseAccrualPeriodEvent",
      "type": "event"
    },
    {
      "anonymous": false,
      "inputs": [
        {
          "indexed": false,
          "name": "service",
          "type": "address"
        }
      ],
      "name": "RegisterServiceEvent",
      "type": "event"
    },
    {
      "anonymous": false,
      "inputs": [
        {
          "indexed": false,
          "name": "service",
          "type": "address"
        }
      ],
      "name": "DeregisterServiceEvent",
      "type": "event"
    },
    {
      "anonymous": false,
      "inputs": [
        {
          "indexed": false,
          "name": "oldTransferControllerManager",
          "type": "address"
        },
        {
          "indexed": false,
          "name": "newTransferControllerManager",
          "type": "address"
        }
      ],
      "name": "SetTransferControllerManagerEvent",
      "type": "event"
    },
    {
      "anonymous": false,
      "inputs": [
        {
          "indexed": false,
          "name": "beneficiary",
          "type": "address"
        },
        {
          "indexed": false,
          "name": "fraction",
          "type": "int256"
        }
      ],
      "name": "RegisterAccrualBeneficiaryEvent",
      "type": "event"
    },
    {
      "anonymous": false,
      "inputs": [
        {
          "indexed": false,
          "name": "beneficiary",
          "type": "address"
        }
      ],
      "name": "DeregisterAccrualBeneficiaryEvent",
      "type": "event"
    },
    {
      "anonymous": false,
      "inputs": [
        {
          "indexed": false,
          "name": "beneficiary",
          "type": "address"
        }
      ],
      "name": "RegisterBeneficiaryEvent",
      "type": "event"
    },
    {
      "anonymous": false,
      "inputs": [
        {
          "indexed": false,
          "name": "beneficiary",
          "type": "address"
        }
      ],
      "name": "DeregisterBeneficiaryEvent",
      "type": "event"
    },
    {
      "anonymous": false,
      "inputs": [
        {
          "indexed": false,
          "name": "oldDeployer",
          "type": "address"
        },
        {
          "indexed": false,
          "name": "newDeployer",
          "type": "address"
        }
      ],
      "name": "SetDeployerEvent",
      "type": "event"
    },
    {
      "anonymous": false,
      "inputs": [
        {
          "indexed": false,
          "name": "oldOperator",
          "type": "address"
        },
        {
          "indexed": false,
          "name": "newOperator",
          "type": "address"
        }
      ],
      "name": "SetOperatorEvent",
      "type": "event"
    },
    {
      "anonymous": false,
      "inputs": [
        {
          "indexed": false,
          "name": "wallet",
          "type": "address"
        }
      ],
      "name": "SelfDestructionDisabledEvent",
      "type": "event"
    },
    {
      "anonymous": false,
      "inputs": [
        {
          "indexed": false,
          "name": "wallet",
          "type": "address"
        }
      ],
      "name": "TriggerSelfDestructionEvent",
      "type": "event"
    },
    {
      "constant": false,
      "inputs": [
        {
          "name": "wallet",
          "type": "address"
        },
        {
          "name": "",
          "type": "string"
        }
      ],
      "name": "receiveEthersTo",
      "outputs": [],
      "payable": true,
      "stateMutability": "payable",
      "type": "function"
    },
    {
      "constant": false,
      "inputs": [
        {
          "name": "balanceType",
          "type": "string"
        },
        {
          "name": "amount",
          "type": "int256"
        },
        {
          "name": "currencyCt",
          "type": "address"
        },
        {
          "name": "currencyId",
          "type": "uint256"
        },
        {
          "name": "standard",
          "type": "string"
        }
      ],
      "name": "receiveTokens",
      "outputs": [],
      "payable": false,
      "stateMutability": "nonpayable",
      "type": "function"
    },
    {
      "constant": false,
      "inputs": [
        {
          "name": "wallet",
          "type": "address"
        },
        {
          "name": "",
          "type": "string"
        },
        {
          "name": "amount",
          "type": "int256"
        },
        {
          "name": "currencyCt",
          "type": "address"
        },
        {
          "name": "currencyId",
          "type": "uint256"
        },
        {
          "name": "standard",
          "type": "string"
        }
      ],
      "name": "receiveTokensTo",
      "outputs": [],
      "payable": false,
      "stateMutability": "nonpayable",
      "type": "function"
    },
    {
      "constant": true,
      "inputs": [
        {
          "name": "currencyCt",
          "type": "address"
        },
        {
          "name": "currencyId",
          "type": "uint256"
        }
      ],
      "name": "periodAccrualBalance",
      "outputs": [
        {
          "name": "",
          "type": "int256"
        }
      ],
      "payable": false,
      "stateMutability": "view",
      "type": "function"
    },
    {
      "constant": true,
      "inputs": [
        {
          "name": "currencyCt",
          "type": "address"
        },
        {
          "name": "currencyId",
          "type": "uint256"
        }
      ],
      "name": "aggregateAccrualBalance",
      "outputs": [
        {
          "name": "",
          "type": "int256"
        }
      ],
      "payable": false,
      "stateMutability": "view",
      "type": "function"
    },
    {
      "constant": true,
      "inputs": [],
      "name": "periodCurrenciesCount",
      "outputs": [
        {
          "name": "",
          "type": "uint256"
        }
      ],
      "payable": false,
      "stateMutability": "view",
      "type": "function"
    },
    {
      "constant": true,
      "inputs": [
        {
          "name": "low",
          "type": "uint256"
        },
        {
          "name": "up",
          "type": "uint256"
        }
      ],
      "name": "periodCurrenciesByIndices",
      "outputs": [
        {
          "components": [
            {
              "name": "ct",
              "type": "address"
            },
            {
              "name": "id",
              "type": "uint256"
            }
          ],
          "name": "",
          "type": "tuple[]"
        }
      ],
      "payable": false,
      "stateMutability": "view",
      "type": "function"
    },
    {
      "constant": true,
      "inputs": [],
      "name": "aggregateCurrenciesCount",
      "outputs": [
        {
          "name": "",
          "type": "uint256"
        }
      ],
      "payable": false,
      "stateMutability": "view",
      "type": "function"
    },
    {
      "constant": true,
      "inputs": [
        {
          "name": "low",
          "type": "uint256"
        },
        {
          "name": "up",
          "type": "uint256"
        }
      ],
      "name": "aggregateCurrenciesByIndices",
      "outputs": [
        {
          "components": [
            {
              "name": "ct",
              "type": "address"
            },
            {
              "name": "id",
              "type": "uint256"
            }
          ],
          "name": "",
          "type": "tuple[]"
        }
      ],
      "payable": false,
      "stateMutability": "view",
      "type": "function"
    },
    {
      "constant": true,
      "inputs": [],
      "name": "depositsCount",
      "outputs": [
        {
          "name": "",
          "type": "uint256"
        }
      ],
      "payable": false,
      "stateMutability": "view",
      "type": "function"
    },
    {
      "constant": true,
      "inputs": [
        {
          "name": "index",
          "type": "uint256"
        }
      ],
      "name": "deposit",
      "outputs": [
        {
          "name": "amount",
          "type": "int256"
        },
        {
          "name": "blockNumber",
          "type": "uint256"
        },
        {
          "name": "currencyCt",
          "type": "address"
        },
        {
          "name": "currencyId",
          "type": "uint256"
        }
      ],
      "payable": false,
      "stateMutability": "view",
      "type": "function"
    },
    {
      "constant": false,
      "inputs": [
        {
          "components": [
            {
              "name": "ct",
              "type": "address"
            },
            {
              "name": "id",
              "type": "uint256"
            }
          ],
          "name": "currencies",
          "type": "tuple[]"
        }
      ],
      "name": "closeAccrualPeriod",
      "outputs": [],
      "payable": false,
      "stateMutability": "nonpayable",
      "type": "function"
    }
  ],
  "bytecode": "0x60806040523480156200001157600080fd5b5060405160208062002a6d8339810180604052620000339190810190620000b6565b8080600160a060020a03811615156200004b57600080fd5b600160a060020a0381163014156200006257600080fd5b506000805461010060a860020a031916610100600160a060020a039390931692830217905560018054600160a060020a031916909117905550620000eb565b6000620000af8251620000df565b9392505050565b600060208284031215620000c957600080fd5b6000620000d78484620000a1565b949350505050565b600160a060020a031690565b61297280620000fb6000396000f30060806040526004361061015b5763ffffffff60e060020a60003504166303aa458f811461017757806304fd3130146101a25780631caf1d6d146101cf5780632738a112146101ef5780632f013a00146102045780632f044523146102195780633242bf97146102395780634476d23b146102595780634506e9351461027b578063477fbc3914610290578063570ca735146102b05780635f289651146102c557806367299f36146102e557806369ac566d146102fa57806370327ea11461030f5780638ee18c43146103245780639621473514610344578063962c85a214610364578063a7654a1f14610391578063af30b312146103a4578063b3ab15fb146103c6578063b6b55f25146103e6578063bb4e34ea14610416578063c45a9a7f1461042b578063cb9bd04c1461044b578063cdd8b2b21461046b578063d3b41bd21461048b578063d5f39488146104ab578063f50358e7146104c0575b6101753360206040519081016040528060008152506104e0565b005b34801561018357600080fd5b5061018c610602565b6040516101999190612801565b60405180910390f35b3480156101ae57600080fd5b506101c26101bd36600461226e565b610608565b60405161019991906127ca565b3480156101db57600080fd5b506101c26101ea36600461226e565b610624565b3480156101fb57600080fd5b506101756106f3565b34801561021057600080fd5b506101c2610759565b34801561022557600080fd5b5061018c610234366004612294565b610762565b34801561024557600080fd5b506101c2610254366004612294565b61077f565b34801561026557600080fd5b5061026e6108e2565b6040516101999190612660565b34801561028757600080fd5b5061018c6108f7565b34801561029c57600080fd5b506101756102ab3660046123ca565b610908565b3480156102bc57600080fd5b5061026e610e59565b3480156102d157600080fd5b506101756102e0366004612315565b610e68565b3480156102f157600080fd5b5061018c611083565b34801561030657600080fd5b5061018c611089565b34801561031b57600080fd5b50610175611095565b34801561033057600080fd5b5061018c61033f36600461226e565b6110f8565b34801561035057600080fd5b5061017561035f36600461226e565b611113565b34801561037057600080fd5b5061038461037f366004612554565b6111d1565b60405161019991906127b9565b61017561039f3660046122ce565b6104e0565b3480156103b057600080fd5b506103b96111e5565b60405161019991906127d8565b3480156103d257600080fd5b506101756103e136600461226e565b6111f4565b3480156103f257600080fd5b50610406610401366004612536565b61129e565b604051610199949392919061280f565b34801561042257600080fd5b5061018c6112c3565b34801561043757600080fd5b50610175610446366004612494565b6112cf565b34801561045757600080fd5b50610384610466366004612554565b6112e4565b34801561047757600080fd5b506101c261048636600461226e565b6112f8565b34801561049757600080fd5b506101756104a636600461243a565b6113ac565b3480156104b757600080fd5b5061026e611453565b3480156104cc57600080fd5b5061018c6104db366004612294565b611467565b60405160e060020a63802d10af02815260009073__SafeMathIntLib________________________9063802d10af9061051d903490600401612801565b60206040518083038186803b15801561053557600080fd5b505af4158015610549573d6000803e3d6000fd5b505050506040513d601f19601f8201168201806040525061056d9190810190612476565b905061058360078260008063ffffffff61147b16565b610597600f8260008063ffffffff61147b16565b6105aa600d60008063ffffffff61152c16565b6105bd601560008063ffffffff61152c16565b6105d160178260008063ffffffff6115ca16565b60008051602061291983398151915283826000806040516105f594939291906126a4565b60405180910390a1505050565b60055481565b600160a060020a03166000908152600360205260408120541190565b600061062e611697565b151561063957600080fd5b81600160a060020a038116151561064f57600080fd5b610658836116ad565b151561066757600091506106ed565b600160a060020a0383166000908152600460205260409020546005546106929163ffffffff61184316565b600555600160a060020a03831660009081526004602052604080822091909155517fe70cf8f1ea3c38a40b085d1b441630ee0dff68ced3acf214db32e69e7d89d5ce906106e0908590612660565b60405180910390a1600191505b50919050565b336106fc6108e2565b600160a060020a03161461070f57600080fd5b60005460ff161561071f57600080fd5b7f787a5d936e74f4b564b9153575886059829c78cd9927b1be5e0d976b317ef7363360405161074e9190612660565b60405180910390a133ff5b60005460ff1681565b60006107766007848463ffffffff61187f16565b90505b92915050565b6000610789611697565b151561079457600080fd5b82600160a060020a03811615156107aa57600080fd5b600083136107b757600080fd5b73__ConstantsLib__________________________62a123336040518163ffffffff1660e060020a02815260040160206040518083038186803b1580156107fd57600080fd5b505af4158015610811573d6000803e3d6000fd5b505050506040513d601f19601f820116820180604052506108359190810190612476565b600554610848908563ffffffff6118a716565b131561085357600080fd5b61085c846118dc565b151561086b57600091506108db565b600160a060020a0384166000908152600460205260409020839055600554610899908463ffffffff6118a716565b6005556040517f837d28097a914e8775b13b7106c076d44aee13240028d50318ede90f3c4beb0d906108ce9086908690612689565b60405180910390a1600191505b5092915050565b6000546101009004600160a060020a03165b90565b600061090360176119b8565b905090565b6000610912612021565b60008060008060006109226119bc565b151561092d57600080fd5b60055473__ConstantsLib__________________________62a123336040518163ffffffff1660e060020a02815260040160206040518083038186803b15801561097657600080fd5b505af415801561098a573d6000803e3d6000fd5b505050506040513d601f19601f820116820180604052506109ae9190810190612476565b146109b857600080fd5b600096505b8751871015610d705787878151811015156109d457fe5b60209081029091018101518051918101519097506109fa9160079163ffffffff61187f16565b945060008513610a0957610d65565b600093505b600254841015610d49576002805485908110610a2657fe5b6000918252602082200154600160a060020a03169350610a45846110f8565b1315610d3e57610b0973__ConstantsLib__________________________62a123336040518163ffffffff1660e060020a02815260040160206040518083038186803b158015610a9457600080fd5b505af4158015610aa8573d6000803e3d6000fd5b505050506040513d601f19601f82011682018060405250610acc9190810190612476565b610afd610ad8866110f8565b895160208b0151610af19160079163ffffffff61187f16565b9063ffffffff6119cd16565b9063ffffffff611a3316565b915084821315610b17578491505b6000821315610d3e578551600160a060020a03161515610b9a5760405160e060020a63a7654a1f028152600160a060020a0384169063a7654a1f908490610b6390600090600401612737565b6000604051808303818588803b158015610b7c57600080fd5b505af1158015610b90573d6000803e3d6000fd5b5050505050610d2b565b8551604080516020810190915260008152610bb59190611a68565b905080600160a060020a031681600160a060020a0316631711a8946040518163ffffffff1660e060020a028152600401602060405180830381600087803b158015610bff57600080fd5b505af1158015610c13573d6000803e3d6000fd5b505050506040513d601f19601f82011682018060405250610c37919081019061241c565b60e060020a9004848489600001518a602001516040518563ffffffff1660e060020a0281526004018085600160a060020a0316600160a060020a0316815260200184815260200183600160a060020a0316600160a060020a03168152602001828152602001945050505050600060405180830381865af4925050501515610cbd57600080fd5b8551602087015160405160e060020a635f289651028152600160a060020a03861692635f28965192610cf89260009288929091600401612756565b600060405180830381600087803b158015610d1257600080fd5b505af1158015610d26573d6000803e3d6000fd5b505050505b610d3b858363ffffffff61184316565b94505b600190930192610a0e565b85516020870151610d659160079188919063ffffffff611af016565b6001909601956109bd565b600093505b600254841015610e26576002805485908110610d8d57fe5b600091825260209091200154600160a060020a03169250610dad836110f8565b600012610db957610e1b565b60405160e060020a63477fbc39028152600160a060020a0384169063477fbc3990610de8908b906004016127b9565b600060405180830381600087803b158015610e0257600080fd5b505af1158015610e16573d6000803e3d6000fd5b505050505b600190930192610d75565b6040517f189e8b5b22089b707bd455f7287f001b48cc48a2d698ccfed993f34eff92dfdb90600090a15050505050505050565b600154600160a060020a031681565b60405160e160020a6351750e5302815260009073__SafeMathIntLib________________________9063a2ea1ca690610ea5908890600401612801565b60206040518083038186803b158015610ebd57600080fd5b505af4158015610ed1573d6000803e3d6000fd5b505050506040513d601f19601f82011682018060405250610ef591908101906123fe565b1515610f0057600080fd5b610f0a8483611a68565b905080600160a060020a031681600160a060020a031663ad502f576040518163ffffffff1660e060020a028152600401602060405180830381600087803b158015610f5457600080fd5b505af1158015610f68573d6000803e3d6000fd5b505050506040513d601f19601f82011682018060405250610f8c919081019061241c565b6040805160e060020a9283900463ffffffff8116909302815233600482015230602482015260448101899052600160a060020a038816606482015260848101879052905160a48083019260009291908290030181865af4925050501515610ff257600080fd5b611005600786868663ffffffff61147b16565b611018600f86868663ffffffff61147b16565b61102a600d858563ffffffff61152c16565b61103c6015858563ffffffff61152c16565b61104f601786868663ffffffff6115ca16565b6000805160206129198339815191528786868660405161107294939291906126e2565b60405180910390a150505050505050565b60025490565b6000610903600d6119b8565b3361109e6108e2565b600160a060020a0316146110b157600080fd5b6000805460ff191660011790556040517fd5a2a04a775c741c2ca0dc46ea7ce4835190e1aaf1ca018def0e82568ec33616906110ee903390612660565b60405180910390a1565b600160a060020a031660009081526004602052604090205490565b600061111d611697565b151561112857600080fd5b81600160a060020a038116151561113e57600080fd5b600160a060020a03811630141561115457600080fd5b600054600160a060020a0384811661010090920416146111cc5760008054600160a060020a0385811661010090810261010060a860020a0319841617909355604051929091041692507f977e5fa58e458501775e0008d275006294c5249e3c08d1d0e3a9f3acad14f6e4906105f5908490869061266e565b505050565b60606107766015848463ffffffff611b6716565b600654600160a060020a031681565b60006111fe6119bc565b151561120957600080fd5b81600160a060020a038116151561121f57600080fd5b600160a060020a03811630141561123557600080fd5b600154600160a060020a038481169116146111cc5760018054600160a060020a03858116600160a060020a0319831617909255604051911692507f9f611b789425d0d5b90b920f1b2852907dd865c80074a30b1629aaa041d1812c906105f5908490869061266e565b60008080806112b460178663ffffffff611cd716565b93509350935093509193509193565b600061090360156119b8565b6112dd338686868686610e68565b5050505050565b6060610776600d848463ffffffff611b6716565b6000611302611697565b151561130d57600080fd5b81600160a060020a038116151561132357600080fd5b6113a58373__ConstantsLib__________________________62a123336040518163ffffffff1660e060020a02815260040160206040518083038186803b15801561136d57600080fd5b505af4158015611381573d6000803e3d6000fd5b505050506040513d601f19601f820116820180604052506102549190810190612476565b9392505050565b60006113b6611697565b15156113c157600080fd5b81600160a060020a03811615156113d757600080fd5b6006548390600160a060020a0390811690821681146112dd5760068054600160a060020a03878116600160a060020a0319831617909255604051911694507fee9ef6d53e152e48b1ebc1c23943fb2b96e847465ed779a0e2121a388ea83d2f9061144490869088906127e6565b60405180910390a15050505050565b6000546101009004600160a060020a031681565b6000610776600f848463ffffffff61187f16565b600160a060020a0382166000908152602085815260408083208484529091529020546114ad908463ffffffff6118a716565b600160a060020a0383166000818152602087815260408083208684528083528184208690559383526001808a018352818420878552835281842082518084019093529483529481524381830190815284548087018655948452919092209151600290930290910191825551910155611526848383611d91565b50505050565b600160a060020a0382166000908152600184016020908152604080832084845290915290205415156111cc57604080518082018252600160a060020a039384168082526020808301858152875460018082018a5560008a8152848120965160029093029096018054600160a060020a031916929099169190911788559051968101969096558654918352949095018452818120928152919092522055565b6115d2612038565b5060408051608081018252938452436020808601918252600160a060020a0394851686840181815260608801868152895460018181018c5560008c81528681208c516004948502909101908155885181840155855160028083018054928f16600160a060020a031993841617905586516003938401559783529d830188528982209a8252998752978820805480830182559089529590972099519402909801928355925193820193909355905191810180549290941691909516179091559051910155565b6000546101009004600160a060020a0316331490565b6000806116b8611697565b15156116c357600080fd5b82600160a060020a03811615156116d957600080fd5b600160a060020a0384166000908152600360205260409020541515611701576000925061183c565b600160a060020a0384166000908152600360205260409020546002546000199182019350018210156117d05760028054600019810190811061173f57fe5b60009182526020909120015460028054600160a060020a03909216918490811061176557fe5b9060005260206000200160006101000a815481600160a060020a030219169083600160a060020a0316021790555081600101600360006002858154811015156117aa57fe5b6000918252602080832090910154600160a060020a031683528201929092526040019020555b60028054906117e390600019830161206a565b50600160a060020a03841660009081526003602052604080822091909155517f33f51cf787669db5b5aff6ba597298fd010748de93aaadef29aae876cef4a8c39061182f908690612660565b60405180910390a1600192505b5050919050565b600080821215801561185757508282840313155b8061186e575060008212801561186e575082828403135b151561187957600080fd5b50900390565b600160a060020a03919091166000908152602092835260408082209282529190925290205490565b60008282018183128015906118bc5750838112155b806118d157506000831280156118d157508381125b15156113a557600080fd5b60006118e6611697565b15156118f157600080fd5b81600160a060020a038116151561190757600080fd5b600160a060020a038316600090815260036020526040812054111561192f57600091506106ed565b600280546001810182557f405787fa12a823e0f2b7631cc41b3ba8828b3321ca811111fa75cd3aa3bb5ace018054600160a060020a031916600160a060020a03861690811790915590546000918252600360205260409182902055517fdd62ff6d9c23793871e7d4796bde6c5dfb2bf8bcbd4186411cee3eb9f6189521906106e0908590612660565b5490565b600154600160a060020a0316331490565b600080836000191415806119e5575060ff60020a8314155b15156119f057600080fd5b82600019141580611a05575060ff60020a8414155b1515611a1057600080fd5b508282028215806118d15750838382811515611a2857fe5b05146113a557600080fd5b600060ff60020a83141580611a4a57508160001914155b1515611a5557600080fd5b8183811515611a6057fe5b059392505050565b60065460405160e460020a630c8a483b028152600091600160a060020a03169063c8a483b090611a9e9086908690600401612717565b602060405180830381600087803b158015611ab857600080fd5b505af1158015611acc573d6000803e3d6000fd5b505050506040513d601f19601f820116820180604052506107769190810190612458565b600160a060020a0382166000818152602086815260408083208584528083528184208890559383526001808901835281842086855283528184208251808401909352948352878252438284019081528554808301875595855292909320905160029094020192835551910155611526848383611d91565b825460609081906000908110611b7c57600080fd5b83851115611b8957600080fd5b855460405160e060020a63700f1a7702815273__SafeMathUintLib_______________________9163700f1a7791611bcc9188916000199091019060040161281d565b60206040518083038186803b158015611be457600080fd5b505af4158015611bf8573d6000803e3d6000fd5b505050506040513d601f19601f82011682018060405250611c1c9190810190612476565b9350848403600101604051908082528060200260200182016040528015611c5d57816020015b611c4a612021565b815260200190600190039081611c425790505b5091508490505b838111611cce578554869082908110611c7957fe5b6000918252602091829020604080518082019091526002909202018054600160a060020a03168252600101549181019190915282518390878403908110611cbc57fe5b60209081029091010152600101611c64565b50949350505050565b81546000908190819081908510611ced57600080fd5b8554869086908110611cfb57fe5b90600052602060002090600402016000015493508560000185815481101515611d2057fe5b90600052602060002090600402016001015492508560000185815481101515611d4557fe5b60009182526020909120600260049092020101548654600160a060020a039091169250869086908110611d7457fe5b906000526020600020906004020160030154905092959194509250565b600160a060020a038216600090815260208481526040808320848452909152902054158015611dcf5750611dcf60028401838363ffffffff611e2f16565b15611ded57611de860028401838363ffffffff611e5e16565b6111cc565b611e0160028401838363ffffffff611e2f16565b15156111cc57611e1b60028401838363ffffffff61152c16565b6111cc60048401838363ffffffff61152c16565b600160a060020a0382166000908152600184016020908152604080832084845290915290205415159392505050565b600160a060020a0382166000908152600184016020908152604080832084845290915281205490811115611526576115268460018303815460009081908310611ea657600080fd5b8354849084908110611eb457fe5b60009182526020909120600290910201548454600160a060020a039091169250849084908110611ee057fe5b6000918252602090912060016002909202010154845490915060001901831015611fe257835484906000198101908110611f1657fe5b90600052602060002090600202018460000184815481101515611f3557fe5b60009182526020822083546002909202018054600160a060020a031916600160a060020a039092169190911781556001928301549083015585548583019287019190879087908110611f8357fe5b60009182526020808320600290920290910154600160a060020a0316835282019290925260400181208654909190879087908110611fbd57fe5b9060005260206000209060020201600101548152602001908152602001600020819055505b8354611ff285600019830161208e565b50600160a060020a03909116600090815260019093016020908152604080852092855291905282209190915550565b604080518082019091526000808252602082015290565b60806040519081016040528060008152602001600081526020016000600160a060020a03168152602001600081525090565b8154818355818111156111cc576000838152602090206111cc9181019083016120ba565b8154818355818111156111cc576002028160020283600052602060002091820191016111cc91906120d8565b6108f491905b808211156120d457600081556001016120c0565b5090565b6108f491905b808211156120d4578054600160a060020a0319168155600060018201556002016120de565b600061077682356128a2565b6000601f8201831361212057600080fd5b813561213361212e82612851565b61282b565b9150818183526020840193506020810190508385604084028201111561215857600080fd5b60005b83811015612186578161216e8882612227565b8452506020909201916040919091019060010161215b565b5050505092915050565b600061077682516128ae565b600061077682516128b3565b600061077682356128c0565b600061077682516128c0565b600061077682356108f4565b600061077682516108f4565b6000601f820183136121e957600080fd5b81356121f761212e82612871565b9150808252602083016020830185838301111561221357600080fd5b61221e8382846128d6565b50505092915050565b60006040828403121561223957600080fd5b612243604061282b565b905060006122518484612103565b8252506020612262848483016121c0565b60208301525092915050565b60006020828403121561228057600080fd5b600061228c8484612103565b949350505050565b600080604083850312156122a757600080fd5b60006122b38585612103565b92505060206122c4858286016121c0565b9150509250929050565b600080604083850312156122e157600080fd5b60006122ed8585612103565b92505060208301356001604060020a0381111561230957600080fd5b6122c4858286016121d8565b60008060008060008060c0878903121561232e57600080fd5b600061233a8989612103565b96505060208701356001604060020a0381111561235657600080fd5b61236289828a016121d8565b955050604061237389828a016121c0565b945050606061238489828a01612103565b935050608061239589828a016121c0565b92505060a08701356001604060020a038111156123b157600080fd5b6123bd89828a016121d8565b9150509295509295509295565b6000602082840312156123dc57600080fd5b81356001604060020a038111156123f257600080fd5b61228c8482850161210f565b60006020828403121561241057600080fd5b600061228c8484612190565b60006020828403121561242e57600080fd5b600061228c848461219c565b60006020828403121561244c57600080fd5b600061228c84846121a8565b60006020828403121561246a57600080fd5b600061228c84846121b4565b60006020828403121561248857600080fd5b600061228c84846121cc565b600080600080600060a086880312156124ac57600080fd5b85356001604060020a038111156124c257600080fd5b6124ce888289016121d8565b95505060206124df888289016121c0565b94505060406124f088828901612103565b9350506060612501888289016121c0565b92505060808601356001604060020a0381111561251d57600080fd5b612529888289016121d8565b9150509295509295909350565b60006020828403121561254857600080fd5b600061228c84846121c0565b6000806040838503121561256757600080fd5b60006122b385856121c0565b61257c816128a2565b82525050565b600061258d8261289e565b80845260208401935061259f83612898565b60005b828110156125cf576125b586835161263c565b6125be82612898565b6040969096019591506001016125a2565b5093949350505050565b61257c816128ae565b61257c816128c0565b61257c816108f4565b61257c816128cb565b60006126088261289e565b80845261261c8160208601602086016128e2565b6126258161290e565b9093016020019392505050565b6000815260200190565b8051604083019061264d8482612573565b50602082015161152660208501826125eb565b602081016107798284612573565b6040810161267c8285612573565b6113a56020830184612573565b604081016126978285612573565b6113a560208301846125eb565b608081016126b28287612573565b6126bf60208301866125eb565b6126cc6040830185612573565b6126d960608301846125f4565b95945050505050565b608081016126f08287612573565b6126fd60208301866125eb565b61270a6040830185612573565b6126d960608301846125eb565b604081016127258285612573565b818103602083015261228c81846125fd565b604081016127458284612573565b818103602083015261077681612632565b60c081016127648287612573565b818103602083015261277581612632565b905061278460408301866125eb565b6127916060830185612573565b61279e60808301846125eb565b81810360a08301526127af81612632565b9695505050505050565b602080825281016107768184612582565b6020810161077982846125d9565b6020810161077982846125e2565b604081016127f482856125e2565b6113a560208301846125e2565b6020810161077982846125eb565b608081016126f082876125eb565b6040810161269782856125eb565b6040518181016001604060020a038111828210171561284957600080fd5b604052919050565b60006001604060020a0382111561286757600080fd5b5060209081020190565b60006001604060020a0382111561288757600080fd5b506020601f91909101601f19160190565b60200190565b5190565b600160a060020a031690565b151590565b600160e060020a03191690565b6000610779826128a2565b6000610779826108f4565b82818337506000910152565b60005b838110156128fd5781810151838201526020016128e5565b838111156115265750506000910152565b601f01601f19169056006d20076dccc9a1dd1722d0739c60065c999d4137e9683cbe4d752527539d9f74a265627a7a7230582049b447ffcad87dcdc0ac14feb16e23fffbe58b1b4df6b1cb4d98d80a691de7596c6578706572696d656e74616cf50037",
  "source": "/*\n * Hubii Nahmii\n *\n * Compliant with the Hubii Nahmii specification v0.12.\n *\n * Copyright (C) 2017-2018 Hubii AS\n */\n\npragma solidity ^0.4.25;\npragma experimental ABIEncoderV2;\n\nimport {Ownable} from \"./Ownable.sol\";\nimport {AccrualBeneficiary} from \"./AccrualBeneficiary.sol\";\nimport {AccrualBenefactor} from \"./AccrualBenefactor.sol\";\nimport {TransferControllerManageable} from \"./TransferControllerManageable.sol\";\nimport {SafeMathIntLib} from \"./SafeMathIntLib.sol\";\nimport {SafeMathUintLib} from \"./SafeMathUintLib.sol\";\nimport {TransferController} from \"./TransferController.sol\";\nimport {FungibleBalanceLib} from \"./FungibleBalanceLib.sol\";\nimport {TxHistoryLib} from \"./TxHistoryLib.sol\";\nimport {CurrenciesLib} from \"./CurrenciesLib.sol\";\nimport {MonetaryTypesLib} from \"./MonetaryTypesLib.sol\";\nimport {ConstantsLib} from \"./ConstantsLib.sol\";\n\n/**\n * @title RevenueFund\n * @notice The target of all revenue earned in driip settlements and from which accrued revenue is split amongst\n *   accrual beneficiaries.\n */\ncontract RevenueFund is Ownable, AccrualBeneficiary, AccrualBenefactor, TransferControllerManageable {\n    using FungibleBalanceLib for FungibleBalanceLib.Balance;\n    using TxHistoryLib for TxHistoryLib.TxHistory;\n    using SafeMathIntLib for int256;\n    using SafeMathUintLib for uint256;\n    using CurrenciesLib for CurrenciesLib.Currencies;\n\n    //\n    // Variables\n    // -----------------------------------------------------------------------------------------------------------------\n    FungibleBalanceLib.Balance periodAccrual;\n    CurrenciesLib.Currencies periodCurrencies;\n\n    FungibleBalanceLib.Balance aggregateAccrual;\n    CurrenciesLib.Currencies aggregateCurrencies;\n\n    TxHistoryLib.TxHistory private txHistory;\n\n    //\n    // Events\n    // -----------------------------------------------------------------------------------------------------------------\n    event ReceiveEvent(address from, int256 amount, address currencyCt, uint256 currencyId);\n    event CloseAccrualPeriodEvent();\n    event RegisterServiceEvent(address service);\n    event DeregisterServiceEvent(address service);\n\n    //\n    // Constructor\n    // -----------------------------------------------------------------------------------------------------------------\n    constructor(address deployer) Ownable(deployer) public {\n    }\n\n    //\n    // Functions\n    // -----------------------------------------------------------------------------------------------------------------\n    /// @notice Fallback function that deposits ethers\n    function() public payable {\n        receiveEthersTo(msg.sender, \"\");\n    }\n\n    /// @notice Receive ethers to\n    /// @param wallet The concerned wallet address\n    function receiveEthersTo(address wallet, string)\n    public\n    payable\n    {\n        int256 amount = SafeMathIntLib.toNonZeroInt256(msg.value);\n\n        // Add to balances\n        periodAccrual.add(amount, address(0), 0);\n        aggregateAccrual.add(amount, address(0), 0);\n\n        // Add currency to stores of currencies\n        periodCurrencies.add(address(0), 0);\n        aggregateCurrencies.add(address(0), 0);\n\n        // Add to transaction history\n        txHistory.addDeposit(amount, address(0), 0);\n\n        // Emit event\n        emit ReceiveEvent(wallet, amount, address(0), 0);\n    }\n\n    /// @notice Receive tokens\n    /// @param amount The concerned amount\n    /// @param currencyCt The address of the concerned currency contract (address(0) == ETH)\n    /// @param currencyId The ID of the concerned currency (0 for ETH and ERC20)\n    /// @param standard The standard of token (\"ERC20\", \"ERC721\")\n    function receiveTokens(string balanceType, int256 amount, address currencyCt,\n        uint256 currencyId, string standard)\n    public\n    {\n        receiveTokensTo(msg.sender, balanceType, amount, currencyCt, currencyId, standard);\n    }\n\n    /// @notice Receive tokens to\n    /// @param wallet The address of the concerned wallet\n    /// @param amount The concerned amount\n    /// @param currencyCt The address of the concerned currency contract (address(0) == ETH)\n    /// @param currencyId The ID of the concerned currency (0 for ETH and ERC20)\n    /// @param standard The standard of token (\"ERC20\", \"ERC721\")\n    function receiveTokensTo(address wallet, string, int256 amount,\n        address currencyCt, uint256 currencyId, string standard)\n    public\n    {\n        require(amount.isNonZeroPositiveInt256());\n\n        // Execute transfer\n        TransferController controller = transferController(currencyCt, standard);\n        require(\n            address(controller).delegatecall(\n                controller.getReceiveSignature(), msg.sender, this, uint256(amount), currencyCt, currencyId\n            )\n        );\n\n        // Add to balances\n        periodAccrual.add(amount, currencyCt, currencyId);\n        aggregateAccrual.add(amount, currencyCt, currencyId);\n\n        // Add currency to stores of currencies\n        periodCurrencies.add(currencyCt, currencyId);\n        aggregateCurrencies.add(currencyCt, currencyId);\n\n        // Add to transaction history\n        txHistory.addDeposit(amount, currencyCt, currencyId);\n\n        // Emit event\n        emit ReceiveEvent(wallet, amount, currencyCt, currencyId);\n    }\n\n    /// @notice Get the period accrual balance of the given currency\n    /// @param currencyCt The address of the concerned currency contract (address(0) == ETH)\n    /// @param currencyId The ID of the concerned currency (0 for ETH and ERC20)\n    /// @return The current period's accrual balance\n    function periodAccrualBalance(address currencyCt, uint256 currencyId)\n    public\n    view\n    returns (int256)\n    {\n        return periodAccrual.get(currencyCt, currencyId);\n    }\n\n    /// @notice Get the aggregate accrual balance of the given currency, including contribution from the\n    /// current accrual period\n    /// @param currencyCt The address of the concerned currency contract (address(0) == ETH)\n    /// @param currencyId The ID of the concerned currency (0 for ETH and ERC20)\n    /// @return The aggregate accrual balance\n    function aggregateAccrualBalance(address currencyCt, uint256 currencyId)\n    public\n    view\n    returns (int256)\n    {\n        return aggregateAccrual.get(currencyCt, currencyId);\n    }\n\n    /// @notice Get the count of currencies recorded in the accrual period\n    /// @return The number of currencies in the current accrual period\n    function periodCurrenciesCount()\n    public\n    view\n    returns (uint256)\n    {\n        return periodCurrencies.count();\n    }\n\n    /// @notice Get the currencies with indices in the given range that have been recorded in the current accrual period\n    /// @param low The lower currency index\n    /// @param up The upper currency index\n    /// @return The currencies of the given index range in the current accrual period\n    function periodCurrenciesByIndices(uint256 low, uint256 up)\n    public\n    view\n    returns (MonetaryTypesLib.Currency[])\n    {\n        return periodCurrencies.getByIndices(low, up);\n    }\n\n    /// @notice Get the count of currencies ever recorded\n    /// @return The number of currencies ever recorded\n    function aggregateCurrenciesCount()\n    public\n    view\n    returns (uint256)\n    {\n        return aggregateCurrencies.count();\n    }\n\n    /// @notice Get the currencies with indices in the given range that have ever been recorded\n    /// @param low The lower currency index\n    /// @param up The upper currency index\n    /// @return The currencies of the given index range ever recorded\n    function aggregateCurrenciesByIndices(uint256 low, uint256 up)\n    public\n    view\n    returns (MonetaryTypesLib.Currency[])\n    {\n        return aggregateCurrencies.getByIndices(low, up);\n    }\n\n    /// @notice Get the count of deposits\n    /// @return The count of deposits\n    function depositsCount()\n    public\n    view\n    returns (uint256)\n    {\n        return txHistory.depositsCount();\n    }\n\n    /// @notice Get the deposit at the given index\n    /// @return The deposit at the given index\n    function deposit(uint index)\n    public\n    view\n    returns (int256 amount, uint256 blockNumber, address currencyCt, uint256 currencyId)\n    {\n        return txHistory.deposit(index);\n    }\n\n    /// @notice Close the current accrual period of the given currencies\n    /// @param currencies The concerned currencies\n    function closeAccrualPeriod(MonetaryTypesLib.Currency[] currencies)\n    public\n    onlyOperator\n    {\n        require(ConstantsLib.PARTS_PER() == totalBeneficiaryFraction);\n\n        // Execute transfer\n        for (uint256 i = 0; i < currencies.length; i++) {\n            MonetaryTypesLib.Currency memory currency = currencies[i];\n\n            int256 remaining = periodAccrual.get(currency.ct, currency.id);\n\n            if (0 >= remaining)\n                continue;\n\n            for (uint256 j = 0; j < beneficiaries.length; j++) {\n                address beneficiaryAddress = beneficiaries[j];\n\n                if (beneficiaryFraction(beneficiaryAddress) > 0) {\n                    int256 transferable = periodAccrual.get(currency.ct, currency.id)\n                    .mul(beneficiaryFraction(beneficiaryAddress))\n                    .div(ConstantsLib.PARTS_PER());\n\n                    if (transferable > remaining)\n                        transferable = remaining;\n\n                    if (transferable > 0) {\n                        // Transfer ETH to the beneficiary\n                        if (currency.ct == address(0))\n                            AccrualBeneficiary(beneficiaryAddress).receiveEthersTo.value(uint256(transferable))(address(0), \"\");\n\n                        // Transfer token to the beneficiary\n                        else {\n                            TransferController controller = transferController(currency.ct, \"\");\n                            require(\n                                address(controller).delegatecall(\n                                    controller.getApproveSignature(), beneficiaryAddress, uint256(transferable), currency.ct, currency.id\n                                )\n                            );\n\n                            AccrualBeneficiary(beneficiaryAddress).receiveTokensTo(address(0), \"\", transferable, currency.ct, currency.id, \"\");\n                        }\n\n                        remaining = remaining.sub(transferable);\n                    }\n                }\n            }\n\n            // Roll over remaining to next accrual period\n            periodAccrual.set(remaining, currency.ct, currency.id);\n        }\n\n        // Close accrual period of accrual beneficiaries\n        for (j = 0; j < beneficiaries.length; j++) {\n            beneficiaryAddress = beneficiaries[j];\n\n            // Require that beneficiary fraction is strictly positive\n            if (0 >= beneficiaryFraction(beneficiaryAddress))\n                continue;\n\n            // Close accrual period\n            AccrualBeneficiary(beneficiaryAddress).closeAccrualPeriod(currencies);\n        }\n\n        // Emit event\n        emit CloseAccrualPeriodEvent();\n    }\n}",
  "sourcePath": "/opt/buildagent/work/855e104608380c36/contracts/RevenueFund.sol",
  "compiler": {
    "name": "solc",
    "version": "0.4.25+commit.59dbf8f1.Emscripten.clang"
  },
  "schemaVersion": "2.0.2",
  "updatedAt": "2019-04-17T19:44:57.763Z"
}