{
  "contractName": "RevenueToken",
  "abi": [
    {
      "constant": true,
      "inputs": [
        {
          "name": "",
          "type": "address"
        }
      ],
      "name": "holdersMap",
      "outputs": [
        {
          "name": "",
          "type": "bool"
        }
      ],
      "payable": false,
      "stateMutability": "view",
      "type": "function"
    },
    {
      "constant": true,
      "inputs": [
        {
          "name": "",
          "type": "address"
        },
        {
          "name": "",
          "type": "uint256"
        }
      ],
      "name": "balanceBlockNumbers",
      "outputs": [
        {
          "name": "",
          "type": "uint256"
        }
      ],
      "payable": false,
      "stateMutability": "view",
      "type": "function"
    },
    {
      "constant": true,
      "inputs": [],
      "name": "totalSupply",
      "outputs": [
        {
          "name": "",
          "type": "uint256"
        }
      ],
      "payable": false,
      "stateMutability": "view",
      "type": "function"
    },
    {
      "constant": true,
      "inputs": [],
      "name": "mintingDisabled",
      "outputs": [
        {
          "name": "",
          "type": "bool"
        }
      ],
      "payable": false,
      "stateMutability": "view",
      "type": "function"
    },
    {
      "constant": true,
      "inputs": [
        {
          "name": "",
          "type": "uint256"
        }
      ],
      "name": "holders",
      "outputs": [
        {
          "name": "",
          "type": "address"
        }
      ],
      "payable": false,
      "stateMutability": "view",
      "type": "function"
    },
    {
      "constant": false,
      "inputs": [
        {
          "name": "spender",
          "type": "address"
        },
        {
          "name": "addedValue",
          "type": "uint256"
        }
      ],
      "name": "increaseAllowance",
      "outputs": [
        {
          "name": "",
          "type": "bool"
        }
      ],
      "payable": false,
      "stateMutability": "nonpayable",
      "type": "function"
    },
    {
      "constant": true,
      "inputs": [
        {
          "name": "owner",
          "type": "address"
        }
      ],
      "name": "balanceOf",
      "outputs": [
        {
          "name": "",
          "type": "uint256"
        }
      ],
      "payable": false,
      "stateMutability": "view",
      "type": "function"
    },
    {
      "constant": true,
      "inputs": [
        {
          "name": "",
          "type": "address"
        },
        {
          "name": "",
          "type": "uint256"
        }
      ],
      "name": "balanceBlocks",
      "outputs": [
        {
          "name": "",
          "type": "uint256"
        }
      ],
      "payable": false,
      "stateMutability": "view",
      "type": "function"
    },
    {
      "constant": false,
      "inputs": [
        {
          "name": "account",
          "type": "address"
        }
      ],
      "name": "addMinter",
      "outputs": [],
      "payable": false,
      "stateMutability": "nonpayable",
      "type": "function"
    },
    {
      "constant": false,
      "inputs": [],
      "name": "renounceMinter",
      "outputs": [],
      "payable": false,
      "stateMutability": "nonpayable",
      "type": "function"
    },
    {
      "constant": false,
      "inputs": [
        {
          "name": "spender",
          "type": "address"
        },
        {
          "name": "subtractedValue",
          "type": "uint256"
        }
      ],
      "name": "decreaseAllowance",
      "outputs": [
        {
          "name": "",
          "type": "bool"
        }
      ],
      "payable": false,
      "stateMutability": "nonpayable",
      "type": "function"
    },
    {
      "constant": true,
      "inputs": [
        {
          "name": "account",
          "type": "address"
        }
      ],
      "name": "isMinter",
      "outputs": [
        {
          "name": "",
          "type": "bool"
        }
      ],
      "payable": false,
      "stateMutability": "view",
      "type": "function"
    },
    {
      "constant": true,
      "inputs": [
        {
          "name": "",
          "type": "address"
        },
        {
          "name": "",
          "type": "uint256"
        }
      ],
      "name": "balances",
      "outputs": [
        {
          "name": "",
          "type": "uint256"
        }
      ],
      "payable": false,
      "stateMutability": "view",
      "type": "function"
    },
    {
      "constant": true,
      "inputs": [
        {
          "name": "owner",
          "type": "address"
        },
        {
          "name": "spender",
          "type": "address"
        }
      ],
      "name": "allowance",
      "outputs": [
        {
          "name": "",
          "type": "uint256"
        }
      ],
      "payable": false,
      "stateMutability": "view",
      "type": "function"
    },
    {
      "anonymous": false,
      "inputs": [],
      "name": "DisableMinting",
      "type": "event"
    },
    {
      "anonymous": false,
      "inputs": [
        {
          "indexed": true,
          "name": "account",
          "type": "address"
        }
      ],
      "name": "MinterAdded",
      "type": "event"
    },
    {
      "anonymous": false,
      "inputs": [
        {
          "indexed": true,
          "name": "account",
          "type": "address"
        }
      ],
      "name": "MinterRemoved",
      "type": "event"
    },
    {
      "anonymous": false,
      "inputs": [
        {
          "indexed": true,
          "name": "from",
          "type": "address"
        },
        {
          "indexed": true,
          "name": "to",
          "type": "address"
        },
        {
          "indexed": false,
          "name": "value",
          "type": "uint256"
        }
      ],
      "name": "Transfer",
      "type": "event"
    },
    {
      "anonymous": false,
      "inputs": [
        {
          "indexed": true,
          "name": "owner",
          "type": "address"
        },
        {
          "indexed": true,
          "name": "spender",
          "type": "address"
        },
        {
          "indexed": false,
          "name": "value",
          "type": "uint256"
        }
      ],
      "name": "Approval",
      "type": "event"
    },
    {
      "constant": false,
      "inputs": [],
      "name": "disableMinting",
      "outputs": [],
      "payable": false,
      "stateMutability": "nonpayable",
      "type": "function"
    },
    {
      "constant": false,
      "inputs": [
        {
          "name": "to",
          "type": "address"
        },
        {
          "name": "value",
          "type": "uint256"
        }
      ],
      "name": "mint",
      "outputs": [
        {
          "name": "",
          "type": "bool"
        }
      ],
      "payable": false,
      "stateMutability": "nonpayable",
      "type": "function"
    },
    {
      "constant": false,
      "inputs": [
        {
          "name": "to",
          "type": "address"
        },
        {
          "name": "value",
          "type": "uint256"
        }
      ],
      "name": "transfer",
      "outputs": [
        {
          "name": "",
          "type": "bool"
        }
      ],
      "payable": false,
      "stateMutability": "nonpayable",
      "type": "function"
    },
    {
      "constant": false,
      "inputs": [
        {
          "name": "spender",
          "type": "address"
        },
        {
          "name": "value",
          "type": "uint256"
        }
      ],
      "name": "approve",
      "outputs": [
        {
          "name": "",
          "type": "bool"
        }
      ],
      "payable": false,
      "stateMutability": "nonpayable",
      "type": "function"
    },
    {
      "constant": false,
      "inputs": [
        {
          "name": "from",
          "type": "address"
        },
        {
          "name": "to",
          "type": "address"
        },
        {
          "name": "value",
          "type": "uint256"
        }
      ],
      "name": "transferFrom",
      "outputs": [
        {
          "name": "",
          "type": "bool"
        }
      ],
      "payable": false,
      "stateMutability": "nonpayable",
      "type": "function"
    },
    {
      "constant": true,
      "inputs": [
        {
          "name": "account",
          "type": "address"
        },
        {
          "name": "startBlock",
          "type": "uint256"
        },
        {
          "name": "endBlock",
          "type": "uint256"
        }
      ],
      "name": "balanceBlocksIn",
      "outputs": [
        {
          "name": "",
          "type": "uint256"
        }
      ],
      "payable": false,
      "stateMutability": "view",
      "type": "function"
    },
    {
      "constant": true,
      "inputs": [
        {
          "name": "account",
          "type": "address"
        }
      ],
      "name": "balanceUpdatesCount",
      "outputs": [
        {
          "name": "",
          "type": "uint256"
        }
      ],
      "payable": false,
      "stateMutability": "view",
      "type": "function"
    },
    {
      "constant": true,
      "inputs": [],
      "name": "holdersCount",
      "outputs": [
        {
          "name": "",
          "type": "uint256"
        }
      ],
      "payable": false,
      "stateMutability": "view",
      "type": "function"
    },
    {
      "constant": true,
      "inputs": [
        {
          "name": "low",
          "type": "uint256"
        },
        {
          "name": "up",
          "type": "uint256"
        },
        {
          "name": "posOnly",
          "type": "bool"
        }
      ],
      "name": "holdersByIndices",
      "outputs": [
        {
          "name": "",
          "type": "address[]"
        }
      ],
      "payable": false,
      "stateMutability": "view",
      "type": "function"
    }
  ],
  "bytecode": "0x60806040526100163364010000000061001b810204565b6100f8565b61003360038264010000000061148e61006a82021704565b604051600160a060020a038216907f6ae172837ea30b801fbfcdd4108aa1d5bf8ff775444fd70256b44e6bf3dfc3f690600090a250565b600160a060020a038116151561007f57600080fd5b61009282826401000000006100c1810204565b1561009c57600080fd5b600160a060020a0316600090815260209190915260409020805460ff19166001179055565b6000600160a060020a03821615156100d857600080fd5b50600160a060020a03166000908152602091909152604090205460ff1690565b6115b480620001086000396000f3006080604052600436106101195763ffffffff60e060020a600035041663095ea7b3811461011e5780630e5cb57c14610156578063133a49001461017757806318160ddd146101ad57806321afb5ee146101c257806323b872dd146101d75780632a11ced014610201578063395093511461023557806340c10f19146102595780636b4ed21b1461027d57806370a082311461029257806378c27d7e146102b35780637e5cd5c1146102d7578063983b2d56146102ee578063986502751461030f578063a457c2d714610324578063a52079ea14610348578063a9059cbb1461036f578063aa271e1a14610393578063b46801c2146103b4578063cb990457146103d5578063cbf1304d14610445578063dd62ed3e14610469575b600080fd5b34801561012a57600080fd5b50610142600160a060020a0360043516602435610490565b604080519115158252519081900360200190f35b34801561016257600080fd5b50610142600160a060020a03600435166104c2565b34801561018357600080fd5b5061019b600160a060020a03600435166024356104d7565b60408051918252519081900360200190f35b3480156101b957600080fd5b5061019b610507565b3480156101ce57600080fd5b5061014261050d565b3480156101e357600080fd5b50610142600160a060020a0360043581169060243516604435610516565b34801561020d57600080fd5b506102196004356105bc565b60408051600160a060020a039092168252519081900360200190f35b34801561024157600080fd5b50610142600160a060020a03600435166024356105e4565b34801561026557600080fd5b50610142600160a060020a0360043516602435610682565b34801561028957600080fd5b5061019b610745565b34801561029e57600080fd5b5061019b600160a060020a036004351661074b565b3480156102bf57600080fd5b5061019b600160a060020a0360043516602435610766565b3480156102e357600080fd5b506102ec610781565b005b3480156102fa57600080fd5b506102ec600160a060020a03600435166107cd565b34801561031b57600080fd5b506102ec6107ed565b34801561033057600080fd5b50610142600160a060020a03600435166024356107f8565b34801561035457600080fd5b5061019b600160a060020a0360043516602435604435610843565b34801561037b57600080fd5b50610142600160a060020a0360043516602435610d60565b34801561039f57600080fd5b50610142600160a060020a0360043516610d87565b3480156103c057600080fd5b5061019b600160a060020a0360043516610da0565b3480156103e157600080fd5b506103f56004356024356044351515610dbb565b60408051602080825283518183015283519192839290830191858101910280838360005b83811015610431578181015183820152602001610419565b505050509050019250505060405180910390f35b34801561045157600080fd5b5061019b600160a060020a0360043516602435610f19565b34801561047557600080fd5b5061019b600160a060020a0360043581169060243516610f34565b60008115806104a657506104a43384610f34565b155b15156104b157600080fd5b6104bb8383610f5f565b9392505050565b60066020526000908152604090205460ff1681565b6009602052816000526040600020818154811015156104f257fe5b90600052602060002001600091509150505481565b60025490565b60045460ff1681565b600080610524858585610fcb565b905080156105b45761053585611068565b61053e84611068565b600160a060020a03841660009081526006602052604090205460ff1615156105b457600160a060020a0384166000818152600660205260408120805460ff19166001908117909155600580549182018155909152600080516020611529833981519152018054600160a060020a03191690911790555b949350505050565b60058054829081106105ca57fe5b600091825260209091200154600160a060020a0316905081565b6000600160a060020a03831615156105fb57600080fd5b336000908152600160209081526040808320600160a060020a038716845290915290205461062f908363ffffffff61119f16565b336000818152600160209081526040808320600160a060020a038916808552908352928190208590558051948552519193600080516020611569833981519152929081900390910190a350600192915050565b60008061068e33610d87565b151561069957600080fd5b60045460ff16156106a957600080fd5b6106b384846111b1565b9050801561073a576106c484611068565b600160a060020a03841660009081526006602052604090205460ff16151561073a57600160a060020a0384166000818152600660205260408120805460ff19166001908117909155600580549182018155909152600080516020611529833981519152018054600160a060020a03191690911790555b8091505b5092915050565b60055490565b600160a060020a031660009081526020819052604090205490565b6008602052816000526040600020818154811015156104f257fe5b61078a33610d87565b151561079557600080fd5b6004805460ff191660011790556040517f2d86df2e5d84b22790939c34e14094e95a52090fbf291a1fa69b9b4e837c635390600090a1565b6107d633610d87565b15156107e157600080fd5b6107ea816111da565b50565b6107f633611222565b565b6000600160a060020a038316151561080f57600080fd5b336000908152600160209081526040808320600160a060020a038716845290915290205461062f908363ffffffff61126a16565b60008080808085871061085557600080fd5b600160a060020a038816151561086a57600080fd5b600160a060020a03881660009081526009602052604090205415806108bd5750600160a060020a0388166000908152600960205260408120805490919081106108af57fe5b906000526020600020015486105b156108cb5760009450610d55565b600093505b600160a060020a038816600090815260096020526040902054841080156109265750600160a060020a038816600090815260096020526040902080548891908690811061091957fe5b9060005260206000200154105b15610936576001909301926108d0565b600160a060020a03881660009081526009602052604090205484106109bd576109b6610968878963ffffffff61126a16565b600160a060020a038a166000908152600760209081526040808320600990925290912054815460001990910190811061099d57fe5b906000526020600020015461128190919063ffffffff16565b9250610d51565b83156109fb57600160a060020a0388166000908152600960205260409020805460001986019081106109eb57fe5b90600052602060002001546109fd565b865b600160a060020a038916600090815260096020526040902080549193509085908110610a2557fe5b9060005260206000200154905085811115610a3d5750845b610a4d818863ffffffff61126a16565b90508015610ad857600160a060020a03881660009081526009602052604090208054610ad391610a9d9185919088908110610a8457fe5b906000526020600020015461126a90919063ffffffff16565b600160a060020a038a1660009081526008602052604090208054610ac79185918990811061099d57fe5b9063ffffffff6112af16565b610adb565b60005b60019094019392505b600160a060020a03881660009081526009602052604090205484108015610b3a5750600160a060020a0388166000908152600960205260409020805487919086908110610b2d57fe5b9060005260206000200154105b15610b8f57600160a060020a03881660009081526008602052604090208054610b82919086908110610b6857fe5b90600052602060002001548461119f90919063ffffffff16565b6001909401939250610ae4565b600160a060020a0388166000908152600960205260409020548410610c3f57600160a060020a038816600090815260096020526040902080546109b691610c3291610bfd91906000198101908110610be357fe5b90600052602060002001548961126a90919063ffffffff16565b600160a060020a038b166000908152600760209081526040808320600990925290912054815460001990910190811061099d57fe5b849063ffffffff61119f16565b600160a060020a038816600090815260096020526040902080548791906000198701908110610c6a57fe5b90600052602060002001541015610d5157600160a060020a03881660009081526009602052604090208054610d4e91610c3291610ce091906000198901908110610cb057fe5b6000918252602080832090910154600160a060020a038e16835260099091526040909120805489908110610a8457fe5b600160a060020a038b1660009081526009602052604090208054610ac791610d2a916000198b01908110610d1057fe5b90600052602060002001548b61126a90919063ffffffff16565b600160a060020a038d16600090815260086020526040902080548a90811061099d57fe5b92505b8294505b505050509392505050565b600080610d6d84846112d2565b9050801561073a57610d7e33611068565b6106c484611068565b6000610d9a60038363ffffffff6112df16565b92915050565b600160a060020a031660009081526008602052604090205490565b6060600080828186881115610dcf57600080fd5b600554600019018711610de25786610dea565b600554600019015b9650600093508515610e4c578792505b868311610e4757610e2d600584815481101515610e1357fe5b600091825260209091200154600160a060020a031661074b565b60001015610e3c576001909301925b600190920191610dfa565b610e55565b87870360010193505b83604051908082528060200260200182016040528015610e7f578160200160208202803883390190505b509150600090508792505b868311610f0e57851580610eaf5750610eab600584815481101515610e1357fe5b6000105b15610f03576005805484908110610ec257fe5b60009182526020909120015482516001830192600160a060020a039092169184918110610eeb57fe5b600160a060020a039092166020928302909101909101525b600190920191610e8a565b509695505050505050565b6007602052816000526040600020818154811015156104f257fe5b600160a060020a03918216600090815260016020908152604080832093909416825291909152205490565b6000600160a060020a0383161515610f7657600080fd5b336000818152600160209081526040808320600160a060020a0388168085529083529281902086905580518681529051929392600080516020611569833981519152929181900390910190a350600192915050565b600160a060020a0383166000908152600160209081526040808320338452909152812054821115610ffb57600080fd5b600160a060020a038416600090815260016020908152604080832033845290915290205461102f908363ffffffff61126a16565b600160a060020a038516600090815260016020908152604080832033845290915290205561105e848484611316565b5060019392505050565b600160a060020a03811660009081526009602090815260408083205460079092529091206110958361074b565b8154600181018355600092835260208320015581111561114757600160a060020a03821660009081526008602090815260408083206009909252909120805461112c916111049160001986019081106110ea57fe5b90600052602060002001544361126a90919063ffffffff16565b600160a060020a03851660009081526007602052604090208054600019860190811061099d57fe5b81546001810183556000928352602090922090910155611172565b600160a060020a03821660009081526008602090815260408220805460018101825590835290822001555b50600160a060020a0316600090815260096020908152604082208054600181018255908352912043910155565b60008282018381101561073a57600080fd5b60006111bc33610d87565b15156111c757600080fd5b6111d183836113f6565b50600192915050565b6111eb60038263ffffffff61148e16565b604051600160a060020a038216907f6ae172837ea30b801fbfcdd4108aa1d5bf8ff775444fd70256b44e6bf3dfc3f690600090a250565b61123360038263ffffffff6114dc16565b604051600160a060020a038216907fe94479a9f7e1952cc78f2d6baab678adc1b772d936c6583def489e524cb6669290600090a250565b6000808383111561127a57600080fd5b5050900390565b600080831515611294576000915061073e565b508282028284828115156112a457fe5b041461073a57600080fd5b6000808083116112be57600080fd5b82848115156112c957fe5b04949350505050565b60006111d1338484611316565b6000600160a060020a03821615156112f657600080fd5b50600160a060020a03166000908152602091909152604090205460ff1690565b600160a060020a03831660009081526020819052604090205481111561133b57600080fd5b600160a060020a038216151561135057600080fd5b600160a060020a038316600090815260208190526040902054611379908263ffffffff61126a16565b600160a060020a0380851660009081526020819052604080822093909355908416815220546113ae908263ffffffff61119f16565b600160a060020a0380841660008181526020818152604091829020949094558051858152905191939287169260008051602061154983398151915292918290030190a3505050565b600160a060020a038216151561140b57600080fd5b60025461141e908263ffffffff61119f16565b600255600160a060020a03821660009081526020819052604090205461144a908263ffffffff61119f16565b600160a060020a0383166000818152602081815260408083209490945583518581529351929391926000805160206115498339815191529281900390910190a35050565b600160a060020a03811615156114a357600080fd5b6114ad82826112df565b156114b757600080fd5b600160a060020a0316600090815260209190915260409020805460ff19166001179055565b600160a060020a03811615156114f157600080fd5b6114fb82826112df565b151561150657600080fd5b600160a060020a0316600090815260209190915260409020805460ff191690555600036b6384b5eca791c62761152d0c79bb0604c104a5fb6f4eb0703f3154bb3db0ddf252ad1be2c89b69c2b068fc378daa952ba7f163c4a11628f55a4df523b3ef8c5be1e5ebec7d5bd14f71427d1e84f3dd0314c0f7b2291e5b200ac8c7c3b925a165627a7a723058200fe467b316e446c17123270731593a03545639cd6408e1424f52906f1d67b6290029",
  "source": "/*\n * Hubii Nahmii\n *\n * Compliant with the Hubii Nahmii specification v0.12.\n *\n * Copyright (C) 2017-2018 Hubii AS\n */\n\npragma solidity ^0.4.25;\n\nimport 'openzeppelin-solidity/contracts/token/ERC20/ERC20Mintable.sol';\nimport 'openzeppelin-solidity/contracts/math/SafeMath.sol';\n\n/**\n * @title RevenueToken\n * @dev Implementation of the EIP20 standard token (also known as ERC20 token) with added\n * calculation of balance blocks at every transfer.\n */\ncontract RevenueToken is ERC20Mintable {\n    using SafeMath for uint256;\n\n    bool public mintingDisabled;\n\n    address[] public holders;\n\n    mapping(address => bool) public holdersMap;\n\n    mapping(address => uint256[]) public balances;\n\n    mapping(address => uint256[]) public balanceBlocks;\n\n    mapping(address => uint256[]) public balanceBlockNumbers;\n\n    event DisableMinting();\n\n    /**\n     * @notice Disable further minting\n     * @dev This operation can not be undone\n     */\n    function disableMinting()\n    public\n    onlyMinter\n    {\n        mintingDisabled = true;\n\n        emit DisableMinting();\n    }\n\n    /**\n     * @notice Mint tokens\n     * @param to The address that will receive the minted tokens.\n     * @param value The amount of tokens to mint.\n     * @return A boolean that indicates if the operation was successful.\n     */\n    function mint(address to, uint256 value)\n    public\n    onlyMinter\n    returns (bool)\n    {\n        require(!mintingDisabled);\n\n        // Call super's mint, including event emission\n        bool minted = super.mint(to, value);\n\n        if (minted) {\n            // Adjust balance blocks\n            addBalanceBlocks(to);\n\n            // Add to the token holders list\n            if (!holdersMap[to]) {\n                holdersMap[to] = true;\n                holders.push(to);\n            }\n        }\n\n        return minted;\n    }\n\n    /**\n     * @notice Transfer token for a specified address\n     * @param to The address to transfer to.\n     * @param value The amount to be transferred.\n     * @return A boolean that indicates if the operation was successful.\n     */\n    function transfer(address to, uint256 value)\n    public\n    returns (bool)\n    {\n        // Call super's transfer, including event emission\n        bool transferred = super.transfer(to, value);\n\n        if (transferred) {\n            // Adjust balance blocks\n            addBalanceBlocks(msg.sender);\n            addBalanceBlocks(to);\n\n            // Add to the token holders list\n            if (!holdersMap[to]) {\n                holdersMap[to] = true;\n                holders.push(to);\n            }\n        }\n\n        return transferred;\n    }\n\n    /**\n     * @notice Approve the passed address to spend the specified amount of tokens on behalf of msg.sender.\n     * @dev Beware that to change the approve amount you first have to reduce the addresses'\n     * allowance to zero by calling `approve(spender, 0)` if it is not already 0 to mitigate the race\n     * condition described here:\n     * https://github.com/ethereum/EIPs/issues/20#issuecomment-263524729\n     * @param spender The address which will spend the funds.\n     * @param value The amount of tokens to be spent.\n     */\n    function approve(address spender, uint256 value)\n    public\n    returns (bool)\n    {\n        // Prevent the update of non-zero allowance\n        require(0 == value || 0 == allowance(msg.sender, spender));\n\n        // Call super's approve, including event emission\n        return super.approve(spender, value);\n    }\n\n    /**\n     * @dev Transfer tokens from one address to another\n     * @param from address The address which you want to send tokens from\n     * @param to address The address which you want to transfer to\n     * @param value uint256 the amount of tokens to be transferred\n     * @return A boolean that indicates if the operation was successful.\n     */\n    function transferFrom(address from, address to, uint256 value)\n    public\n    returns (bool)\n    {\n        // Call super's transferFrom, including event emission\n        bool transferred = super.transferFrom(from, to, value);\n\n        if (transferred) {\n            // Adjust balance blocks\n            addBalanceBlocks(from);\n            addBalanceBlocks(to);\n\n            // Add to the token holders list\n            if (!holdersMap[to]) {\n                holdersMap[to] = true;\n                holders.push(to);\n            }\n        }\n\n        return transferred;\n    }\n\n    /**\n     * @notice Calculate the amount of balance blocks, i.e. the area under the curve (AUC) of\n     * balance as function of block number\n     * @dev The AUC is used as weight for the share of revenue that a token holder may claim\n     * @param account The account address for which calculation is done\n     * @param startBlock The start block number considered\n     * @param endBlock The end block number considered\n     * @return The calculated AUC\n     */\n    function balanceBlocksIn(address account, uint256 startBlock, uint256 endBlock)\n    public\n    view\n    returns (uint256)\n    {\n        require(startBlock < endBlock);\n        require(account != address(0));\n\n        if (balanceBlockNumbers[account].length == 0 || endBlock < balanceBlockNumbers[account][0])\n            return 0;\n\n        uint256 i = 0;\n        while (i < balanceBlockNumbers[account].length && balanceBlockNumbers[account][i] < startBlock)\n            i++;\n\n        uint256 r;\n        if (i >= balanceBlockNumbers[account].length)\n            r = balances[account][balanceBlockNumbers[account].length - 1].mul(endBlock.sub(startBlock));\n\n        else {\n            uint256 l = (i == 0) ? startBlock : balanceBlockNumbers[account][i - 1];\n\n            uint256 h = balanceBlockNumbers[account][i];\n            if (h > endBlock)\n                h = endBlock;\n\n            h = h.sub(startBlock);\n            r = (h == 0) ? 0 : balanceBlocks[account][i].mul(h).div(balanceBlockNumbers[account][i].sub(l));\n            i++;\n\n            while (i < balanceBlockNumbers[account].length && balanceBlockNumbers[account][i] < endBlock) {\n                r = r.add(balanceBlocks[account][i]);\n                i++;\n            }\n\n            if (i >= balanceBlockNumbers[account].length)\n                r = r.add(\n                    balances[account][balanceBlockNumbers[account].length - 1].mul(\n                        endBlock.sub(balanceBlockNumbers[account][balanceBlockNumbers[account].length - 1])\n                    )\n                );\n\n            else if (balanceBlockNumbers[account][i - 1] < endBlock)\n                r = r.add(\n                    balanceBlocks[account][i].mul(\n                        endBlock.sub(balanceBlockNumbers[account][i - 1])\n                    ).div(\n                        balanceBlockNumbers[account][i].sub(balanceBlockNumbers[account][i - 1])\n                    )\n                );\n        }\n\n        return r;\n    }\n\n    /**\n     * @notice Get the count of balance updates for the given account\n     * @return The count of balance updates\n     */\n    function balanceUpdatesCount(address account)\n    public\n    view\n    returns (uint256)\n    {\n        return balanceBlocks[account].length;\n    }\n\n    /**\n     * @notice Get the count of holders\n     * @return The count of holders\n     */\n    function holdersCount()\n    public\n    view\n    returns (uint256)\n    {\n        return holders.length;\n    }\n\n    /**\n     * @notice Get the subset of holders (optionally with positive balance only) in the given 0 based index range\n     * @param low The lower inclusive index\n     * @param up The upper inclusive index\n     * @param posOnly List only positive balance holders\n     * @return The subset of positive balance registered holders in the given range\n     */\n    function holdersByIndices(uint256 low, uint256 up, bool posOnly)\n    public\n    view\n    returns (address[])\n    {\n        require(low <= up);\n\n        up = up > holders.length - 1 ? holders.length - 1 : up;\n\n        uint256 length = 0;\n        if (posOnly) {\n            for (uint256 i = low; i <= up; i++)\n                if (0 < balanceOf(holders[i]))\n                    length++;\n        } else\n            length = up - low + 1;\n\n        address[] memory _holders = new address[](length);\n\n        uint256 j = 0;\n        for (i = low; i <= up; i++)\n            if (!posOnly || 0 < balanceOf(holders[i]))\n                _holders[j++] = holders[i];\n\n        return _holders;\n    }\n\n    function addBalanceBlocks(address account)\n    private\n    {\n        uint256 length = balanceBlockNumbers[account].length;\n        balances[account].push(balanceOf(account));\n        if (0 < length)\n            balanceBlocks[account].push(\n                balances[account][length - 1].mul(\n                    block.number.sub(balanceBlockNumbers[account][length - 1])\n                )\n            );\n        else\n            balanceBlocks[account].push(0);\n        balanceBlockNumbers[account].push(block.number);\n    }\n}",
  "sourcePath": "/opt/buildagent/work/855e104608380c36/contracts/RevenueToken.sol",
  "compiler": {
    "name": "solc",
    "version": "0.4.25+commit.59dbf8f1.Emscripten.clang"
  },
  "schemaVersion": "2.0.2",
  "updatedAt": "2019-04-17T19:44:57.776Z"
}