{
  "contractName": "SafeMathUintLib",
  "abi": [
    {
      "constant": true,
      "inputs": [
        {
          "name": "a",
          "type": "uint256"
        },
        {
          "name": "min",
          "type": "uint256"
        },
        {
          "name": "max",
          "type": "uint256"
        }
      ],
      "name": "clamp",
      "outputs": [
        {
          "name": "",
          "type": "uint256"
        }
      ],
      "payable": false,
      "stateMutability": "pure",
      "type": "function"
    },
    {
      "constant": true,
      "inputs": [
        {
          "name": "a",
          "type": "uint256"
        },
        {
          "name": "min",
          "type": "uint256"
        }
      ],
      "name": "clampMin",
      "outputs": [
        {
          "name": "",
          "type": "uint256"
        }
      ],
      "payable": false,
      "stateMutability": "pure",
      "type": "function"
    },
    {
      "constant": true,
      "inputs": [
        {
          "name": "a",
          "type": "uint256"
        },
        {
          "name": "max",
          "type": "uint256"
        }
      ],
      "name": "clampMax",
      "outputs": [
        {
          "name": "",
          "type": "uint256"
        }
      ],
      "payable": false,
      "stateMutability": "pure",
      "type": "function"
    }
  ],
  "bytecode": "0x610100610030600b82828239805160001a6073146000811461002057610022565bfe5b5030600052607381538281f300730000000000000000000000000000000000000000301460806040526004361060505763ffffffff60e060020a600035041663700f1a77811460555780639e422447146073578063a682d5ad146082575b600080fd5b6061600435602435608e565b60408051918252519081900360200190f35b606160043560243560443560a4565b606160043560243560c7565b6000818311609b5782609d565b815b9392505050565b600081841160bd5782841060b7578360b9565b825b60bf565b815b949350505050565b6000818310609b5782609d5600a165627a7a72305820b54387d8906be647143edaef5788af3cb8dff8cb6d4e2905c34e19667e4f8c470029",
  "source": "/*\n * Hubii Nahmii\n *\n * Compliant with the Hubii Nahmii specification v0.12.\n *\n * Copyright (C) 2017-2018 Hubii AS based on Open-Zeppelin's SafeMath library\n */\n\npragma solidity ^0.4.25;\n\n/**\n * @title     SafeMathUintLib\n * @dev       Math operations with safety checks that throw on error\n */\nlibrary SafeMathUintLib {\n    function mul(uint256 a, uint256 b)\n    internal\n    pure\n    returns (uint256)\n    {\n        uint256 c = a * b;\n        assert(a == 0 || c / a == b);\n        return c;\n    }\n\n    function div(uint256 a, uint256 b)\n    internal\n    pure\n    returns (uint256)\n    {\n        // assert(b > 0); // Solidity automatically throws when dividing by 0\n        uint256 c = a / b;\n        // assert(a == b * c + a % b); // There is no case in which this doesn't hold\n        return c;\n    }\n\n    function sub(uint256 a, uint256 b)\n    internal\n    pure\n    returns (uint256)\n    {\n        assert(b <= a);\n        return a - b;\n    }\n\n    function add(uint256 a, uint256 b)\n    internal\n    pure\n    returns (uint256)\n    {\n        uint256 c = a + b;\n        assert(c >= a);\n        return c;\n    }\n\n    //\n    //Clamping functions.\n    //\n    function clamp(uint256 a, uint256 min, uint256 max)\n    public\n    pure\n    returns (uint256)\n    {\n        return (a > max) ? max : ((a < min) ? min : a);\n    }\n\n    function clampMin(uint256 a, uint256 min)\n    public\n    pure\n    returns (uint256)\n    {\n        return (a < min) ? min : a;\n    }\n\n    function clampMax(uint256 a, uint256 max)\n    public\n    pure\n    returns (uint256)\n    {\n        return (a > max) ? max : a;\n    }\n}\n",
  "sourcePath": "/opt/buildagent/work/855e104608380c36/contracts/SafeMathUintLib.sol",
  "compiler": {
    "name": "solc",
    "version": "0.4.25+commit.59dbf8f1.Emscripten.clang"
  },
  "schemaVersion": "2.0.1",
  "updatedAt": "2018-12-20T16:25:35.513Z"
}