{
  "contractName": "SafeMathIntLib",
  "abi": [
    {
      "constant": true,
      "inputs": [
        {
          "name": "a",
          "type": "int256"
        }
      ],
      "name": "abs",
      "outputs": [
        {
          "name": "",
          "type": "int256"
        }
      ],
      "payable": false,
      "stateMutability": "pure",
      "type": "function"
    },
    {
      "constant": true,
      "inputs": [
        {
          "name": "a",
          "type": "int256"
        }
      ],
      "name": "neg",
      "outputs": [
        {
          "name": "",
          "type": "int256"
        }
      ],
      "payable": false,
      "stateMutability": "pure",
      "type": "function"
    },
    {
      "constant": true,
      "inputs": [
        {
          "name": "a",
          "type": "uint256"
        }
      ],
      "name": "toNonZeroInt256",
      "outputs": [
        {
          "name": "",
          "type": "int256"
        }
      ],
      "payable": false,
      "stateMutability": "pure",
      "type": "function"
    },
    {
      "constant": true,
      "inputs": [
        {
          "name": "a",
          "type": "uint256"
        }
      ],
      "name": "toInt256",
      "outputs": [
        {
          "name": "",
          "type": "int256"
        }
      ],
      "payable": false,
      "stateMutability": "pure",
      "type": "function"
    },
    {
      "constant": true,
      "inputs": [
        {
          "name": "a",
          "type": "int256"
        }
      ],
      "name": "toUInt256",
      "outputs": [
        {
          "name": "",
          "type": "uint256"
        }
      ],
      "payable": false,
      "stateMutability": "pure",
      "type": "function"
    },
    {
      "constant": true,
      "inputs": [
        {
          "name": "a",
          "type": "int256"
        }
      ],
      "name": "isNonZeroPositiveInt256",
      "outputs": [
        {
          "name": "",
          "type": "bool"
        }
      ],
      "payable": false,
      "stateMutability": "pure",
      "type": "function"
    },
    {
      "constant": true,
      "inputs": [
        {
          "name": "a",
          "type": "int256"
        }
      ],
      "name": "isPositiveInt256",
      "outputs": [
        {
          "name": "",
          "type": "bool"
        }
      ],
      "payable": false,
      "stateMutability": "pure",
      "type": "function"
    },
    {
      "constant": true,
      "inputs": [
        {
          "name": "a",
          "type": "int256"
        }
      ],
      "name": "isNonZeroNegativeInt256",
      "outputs": [
        {
          "name": "",
          "type": "bool"
        }
      ],
      "payable": false,
      "stateMutability": "pure",
      "type": "function"
    },
    {
      "constant": true,
      "inputs": [
        {
          "name": "a",
          "type": "int256"
        }
      ],
      "name": "isNegativeInt256",
      "outputs": [
        {
          "name": "",
          "type": "bool"
        }
      ],
      "payable": false,
      "stateMutability": "pure",
      "type": "function"
    },
    {
      "constant": true,
      "inputs": [
        {
          "name": "a",
          "type": "int256"
        },
        {
          "name": "min",
          "type": "int256"
        },
        {
          "name": "max",
          "type": "int256"
        }
      ],
      "name": "clamp",
      "outputs": [
        {
          "name": "",
          "type": "int256"
        }
      ],
      "payable": false,
      "stateMutability": "pure",
      "type": "function"
    },
    {
      "constant": true,
      "inputs": [
        {
          "name": "a",
          "type": "int256"
        },
        {
          "name": "min",
          "type": "int256"
        }
      ],
      "name": "clampMin",
      "outputs": [
        {
          "name": "",
          "type": "int256"
        }
      ],
      "payable": false,
      "stateMutability": "pure",
      "type": "function"
    },
    {
      "constant": true,
      "inputs": [
        {
          "name": "a",
          "type": "int256"
        },
        {
          "name": "max",
          "type": "int256"
        }
      ],
      "name": "clampMax",
      "outputs": [
        {
          "name": "",
          "type": "int256"
        }
      ],
      "payable": false,
      "stateMutability": "pure",
      "type": "function"
    }
  ],
  "bytecode": "0x6102eb610030600b82828239805160001a6073146000811461002057610022565bfe5b5030600052607381538281f30073000000000000000000000000000000000000000030146080604052600436106100b75763ffffffff60e060020a600035041663148f78c381146100bc5780631b5ac4b5146100d957806354a53dc1146100e4578063562e3267146100ef5780636b82c6c0146100fd5780636b84d9311461011c578063755875b2146101275780637b8d0f0c14610135578063802d10af146101465780638690390314610151578063a2ea1ca61461015c578063dfbe873b14610167575b600080fd5b6100c7600435610172565b60408051918252519081900360200190f35b6100c7600435610185565b6100c76004356101a3565b6100c76004356024356101b1565b6101086004356101c9565b604080519115158252519081900360200190f35b6101086004356101d0565b6100c76004356024356101d7565b6100c76004356024356044356101e6565b6100c760043561020e565b61010860043561022d565b610108600435610233565b6100c7600435610239565b60008082121561018157600080fd5b5090565b6000808212610194578161019d565b61019d826101a3565b92915050565b600061019d82600019610256565b60008183126101c057826101c2565b815b9392505050565b6000121590565b6000131590565b60008183136101c057826101c2565b6000828412156101f75750816101c2565b8184136102045783610206565b815b949350505050565b60008082118015610222575060ff60020a82105b151561018157600080fd5b60001390565b60001290565b6000808210158015610222575060ff60020a821061018157600080fd5b6000808360001914158061026e575060ff60020a8314155b151561027957600080fd5b8260001914158061028e575060ff60020a8414155b151561029957600080fd5b508282028215806102b457508383828115156102b157fe5b05145b15156101c257600080fd00a165627a7a72305820a612f898584097df64aba23ddfc2eda58ad5b64d50ee8d72e93572d588d20e870029",
  "source": "/*\n * Hubii Nahmii\n *\n * Compliant with the Hubii Nahmii specification v0.12.\n *\n * Copyright (C) 2017-2018 Hubii AS based on Open-Zeppelin's SafeMath library\n */\n\npragma solidity ^0.4.25;\n\n/**\n * @title     SafeMathIntLib\n * @dev       Math operations with safety checks that throw on error\n */\nlibrary SafeMathIntLib {\n    int256 constant INT256_MIN = int256((uint256(1) << 255));\n    int256 constant INT256_MAX = int256(~((uint256(1) << 255)));\n\n    //\n    //Functions below accept positive and negative integers and result must not overflow.\n    //\n    function div(int256 a, int256 b)\n    internal\n    pure\n    returns (int256)\n    {\n        require(a != INT256_MIN || b != - 1);\n        return a / b;\n    }\n\n    function mul(int256 a, int256 b)\n    internal\n    pure\n    returns (int256)\n    {\n        require(a != - 1 || b != INT256_MIN);\n        // overflow\n        require(b != - 1 || a != INT256_MIN);\n        // overflow\n        int256 c = a * b;\n        require((b == 0) || (c / b == a));\n        return c;\n    }\n\n    function sub(int256 a, int256 b)\n    internal\n    pure\n    returns (int256)\n    {\n        require((b >= 0 && a - b <= a) || (b < 0 && a - b > a));\n        return a - b;\n    }\n\n    function add(int256 a, int256 b)\n    internal\n    pure\n    returns (int256)\n    {\n        int256 c = a + b;\n        require((b >= 0 && c >= a) || (b < 0 && c < a));\n        return c;\n    }\n\n    //\n    //Functions below only accept positive integers and result must be greater or equal to zero too.\n    //\n    function div_nn(int256 a, int256 b)\n    internal\n    pure\n    returns (int256)\n    {\n        require(a >= 0 && b > 0);\n        return a / b;\n    }\n\n    function mul_nn(int256 a, int256 b)\n    internal\n    pure\n    returns (int256)\n    {\n        require(a >= 0 && b >= 0);\n        int256 c = a * b;\n        require(a == 0 || c / a == b);\n        require(c >= 0);\n        return c;\n    }\n\n    function sub_nn(int256 a, int256 b)\n    internal\n    pure\n    returns (int256)\n    {\n        require(a >= 0 && b >= 0 && b <= a);\n        return a - b;\n    }\n\n    function add_nn(int256 a, int256 b)\n    internal\n    pure\n    returns (int256)\n    {\n        require(a >= 0 && b >= 0);\n        int256 c = a + b;\n        require(c >= a);\n        return c;\n    }\n\n    //\n    //Conversion and validation functions.\n    //\n    function abs(int256 a)\n    public\n    pure\n    returns (int256)\n    {\n        return a < 0 ? neg(a) : a;\n    }\n\n    function neg(int256 a)\n    public\n    pure\n    returns (int256)\n    {\n        return mul(a, - 1);\n    }\n\n    function toNonZeroInt256(uint256 a)\n    public\n    pure\n    returns (int256)\n    {\n        require(a > 0 && a < (uint256(1) << 255));\n        return int256(a);\n    }\n\n    function toInt256(uint256 a)\n    public\n    pure\n    returns (int256)\n    {\n        require(a >= 0 && a < (uint256(1) << 255));\n        return int256(a);\n    }\n\n    function toUInt256(int256 a)\n    public\n    pure\n    returns (uint256)\n    {\n        require(a >= 0);\n        return uint256(a);\n    }\n\n    function isNonZeroPositiveInt256(int256 a)\n    public\n    pure\n    returns (bool)\n    {\n        return (a > 0);\n    }\n\n    function isPositiveInt256(int256 a)\n    public\n    pure\n    returns (bool)\n    {\n        return (a >= 0);\n    }\n\n    function isNonZeroNegativeInt256(int256 a)\n    public\n    pure\n    returns (bool)\n    {\n        return (a < 0);\n    }\n\n    function isNegativeInt256(int256 a)\n    public\n    pure\n    returns (bool)\n    {\n        return (a <= 0);\n    }\n\n    //\n    //Clamping functions.\n    //\n    function clamp(int256 a, int256 min, int256 max)\n    public\n    pure\n    returns (int256)\n    {\n        if (a < min)\n            return min;\n        return (a > max) ? max : a;\n    }\n\n    function clampMin(int256 a, int256 min)\n    public\n    pure\n    returns (int256)\n    {\n        return (a < min) ? min : a;\n    }\n\n    function clampMax(int256 a, int256 max)\n    public\n    pure\n    returns (int256)\n    {\n        return (a > max) ? max : a;\n    }\n}\n",
  "sourcePath": "/opt/buildagent/work/855e104608380c36/contracts/SafeMathIntLib.sol",
  "compiler": {
    "name": "solc",
    "version": "0.4.25+commit.59dbf8f1.Emscripten.clang"
  },
  "schemaVersion": "2.0.2",
  "updatedAt": "2019-04-18T00:23:49.824Z"
}