{
  "contractName": "TokenHolderRevenueFund",
  "abi": [
    {
      "inputs": [
        {
          "internalType": "address",
          "name": "deployer",
          "type": "address"
        }
      ],
      "payable": false,
      "stateMutability": "nonpayable",
      "type": "constructor"
    },
    {
      "anonymous": false,
      "inputs": [
        {
          "indexed": false,
          "internalType": "address",
          "name": "from",
          "type": "address"
        },
        {
          "indexed": false,
          "internalType": "int256",
          "name": "amount",
          "type": "int256"
        },
        {
          "indexed": false,
          "internalType": "address",
          "name": "currencyCt",
          "type": "address"
        },
        {
          "indexed": false,
          "internalType": "uint256",
          "name": "currencyId",
          "type": "uint256"
        },
        {
          "indexed": false,
          "internalType": "uint256",
          "name": "startAccrualIndex",
          "type": "uint256"
        },
        {
          "indexed": false,
          "internalType": "uint256",
          "name": "endAccrualIndex",
          "type": "uint256"
        }
      ],
      "name": "ClaimAndStageByAccrualsEvent",
      "type": "event"
    },
    {
      "anonymous": false,
      "inputs": [
        {
          "indexed": false,
          "internalType": "address",
          "name": "from",
          "type": "address"
        },
        {
          "indexed": false,
          "internalType": "int256",
          "name": "amount",
          "type": "int256"
        },
        {
          "indexed": false,
          "internalType": "address",
          "name": "currencyCt",
          "type": "address"
        },
        {
          "indexed": false,
          "internalType": "uint256",
          "name": "currencyId",
          "type": "uint256"
        },
        {
          "indexed": false,
          "internalType": "uint256",
          "name": "startBlock",
          "type": "uint256"
        },
        {
          "indexed": false,
          "internalType": "uint256",
          "name": "endBlock",
          "type": "uint256"
        }
      ],
      "name": "ClaimAndStageByBlockNumbersEvent",
      "type": "event"
    },
    {
      "anonymous": false,
      "inputs": [
        {
          "indexed": false,
          "internalType": "address",
          "name": "wallet",
          "type": "address"
        },
        {
          "indexed": false,
          "internalType": "string",
          "name": "balanceType",
          "type": "string"
        },
        {
          "indexed": false,
          "internalType": "int256",
          "name": "amount",
          "type": "int256"
        },
        {
          "indexed": false,
          "internalType": "address",
          "name": "currencyCt",
          "type": "address"
        },
        {
          "indexed": false,
          "internalType": "uint256",
          "name": "currencyId",
          "type": "uint256"
        },
        {
          "indexed": false,
          "internalType": "uint256",
          "name": "startAccrualIndex",
          "type": "uint256"
        },
        {
          "indexed": false,
          "internalType": "uint256",
          "name": "endAccrualIndex",
          "type": "uint256"
        },
        {
          "indexed": false,
          "internalType": "string",
          "name": "standard",
          "type": "string"
        }
      ],
      "name": "ClaimAndTransferToBeneficiaryByAccrualsEvent",
      "type": "event"
    },
    {
      "anonymous": false,
      "inputs": [
        {
          "indexed": false,
          "internalType": "address",
          "name": "wallet",
          "type": "address"
        },
        {
          "indexed": false,
          "internalType": "string",
          "name": "balanceType",
          "type": "string"
        },
        {
          "indexed": false,
          "internalType": "int256",
          "name": "amount",
          "type": "int256"
        },
        {
          "indexed": false,
          "internalType": "address",
          "name": "currencyCt",
          "type": "address"
        },
        {
          "indexed": false,
          "internalType": "uint256",
          "name": "currencyId",
          "type": "uint256"
        },
        {
          "indexed": false,
          "internalType": "uint256",
          "name": "startBlock",
          "type": "uint256"
        },
        {
          "indexed": false,
          "internalType": "uint256",
          "name": "endBlock",
          "type": "uint256"
        },
        {
          "indexed": false,
          "internalType": "string",
          "name": "standard",
          "type": "string"
        }
      ],
      "name": "ClaimAndTransferToBeneficiaryByBlockNumbersEvent",
      "type": "event"
    },
    {
      "anonymous": false,
      "inputs": [
        {
          "indexed": false,
          "internalType": "int256",
          "name": "periodAmount",
          "type": "int256"
        },
        {
          "indexed": false,
          "internalType": "int256",
          "name": "aggregateAmount",
          "type": "int256"
        },
        {
          "indexed": false,
          "internalType": "address",
          "name": "currencyCt",
          "type": "address"
        },
        {
          "indexed": false,
          "internalType": "uint256",
          "name": "currencyId",
          "type": "uint256"
        }
      ],
      "name": "CloseAccrualPeriodEvent",
      "type": "event"
    },
    {
      "anonymous": false,
      "inputs": [],
      "name": "CloseAccrualPeriodEvent",
      "type": "event"
    },
    {
      "anonymous": false,
      "inputs": [
        {
          "indexed": false,
          "internalType": "address",
          "name": "wallet",
          "type": "address"
        }
      ],
      "name": "DeregisterNonClaimerEvent",
      "type": "event"
    },
    {
      "anonymous": false,
      "inputs": [
        {
          "indexed": false,
          "internalType": "address",
          "name": "service",
          "type": "address"
        }
      ],
      "name": "DeregisterServiceEvent",
      "type": "event"
    },
    {
      "anonymous": false,
      "inputs": [
        {
          "indexed": false,
          "internalType": "address",
          "name": "service",
          "type": "address"
        },
        {
          "indexed": false,
          "internalType": "string",
          "name": "action",
          "type": "string"
        }
      ],
      "name": "DisableServiceActionEvent",
      "type": "event"
    },
    {
      "anonymous": false,
      "inputs": [
        {
          "indexed": false,
          "internalType": "address",
          "name": "service",
          "type": "address"
        },
        {
          "indexed": false,
          "internalType": "string",
          "name": "action",
          "type": "string"
        }
      ],
      "name": "EnableServiceActionEvent",
      "type": "event"
    },
    {
      "anonymous": false,
      "inputs": [
        {
          "indexed": false,
          "internalType": "address",
          "name": "wallet",
          "type": "address"
        },
        {
          "indexed": false,
          "internalType": "int256",
          "name": "amount",
          "type": "int256"
        },
        {
          "indexed": false,
          "internalType": "address",
          "name": "currencyCt",
          "type": "address"
        },
        {
          "indexed": false,
          "internalType": "uint256",
          "name": "currencyId",
          "type": "uint256"
        }
      ],
      "name": "ReceiveEvent",
      "type": "event"
    },
    {
      "anonymous": false,
      "inputs": [
        {
          "indexed": false,
          "internalType": "address",
          "name": "wallet",
          "type": "address"
        }
      ],
      "name": "RegisterNonClaimerEvent",
      "type": "event"
    },
    {
      "anonymous": false,
      "inputs": [
        {
          "indexed": false,
          "internalType": "address",
          "name": "service",
          "type": "address"
        },
        {
          "indexed": false,
          "internalType": "uint256",
          "name": "timeout",
          "type": "uint256"
        }
      ],
      "name": "RegisterServiceDeferredEvent",
      "type": "event"
    },
    {
      "anonymous": false,
      "inputs": [
        {
          "indexed": false,
          "internalType": "address",
          "name": "service",
          "type": "address"
        }
      ],
      "name": "RegisterServiceEvent",
      "type": "event"
    },
    {
      "anonymous": false,
      "inputs": [
        {
          "indexed": false,
          "internalType": "address",
          "name": "wallet",
          "type": "address"
        }
      ],
      "name": "SelfDestructionDisabledEvent",
      "type": "event"
    },
    {
      "anonymous": false,
      "inputs": [
        {
          "indexed": false,
          "internalType": "uint256",
          "name": "timeoutInSeconds",
          "type": "uint256"
        }
      ],
      "name": "ServiceActivationTimeoutEvent",
      "type": "event"
    },
    {
      "anonymous": false,
      "inputs": [
        {
          "indexed": false,
          "internalType": "contract BalanceAucCalculator",
          "name": "calculator",
          "type": "address"
        }
      ],
      "name": "SetBalanceBlocksCalculatorEvent",
      "type": "event"
    },
    {
      "anonymous": false,
      "inputs": [
        {
          "indexed": false,
          "internalType": "uint256",
          "name": "batchSize",
          "type": "uint256"
        }
      ],
      "name": "SetClaimBlockNumberBatchSizeEvent",
      "type": "event"
    },
    {
      "anonymous": false,
      "inputs": [
        {
          "indexed": false,
          "internalType": "address",
          "name": "oldDeployer",
          "type": "address"
        },
        {
          "indexed": false,
          "internalType": "address",
          "name": "newDeployer",
          "type": "address"
        }
      ],
      "name": "SetDeployerEvent",
      "type": "event"
    },
    {
      "anonymous": false,
      "inputs": [
        {
          "indexed": false,
          "internalType": "address",
          "name": "oldOperator",
          "type": "address"
        },
        {
          "indexed": false,
          "internalType": "address",
          "name": "newOperator",
          "type": "address"
        }
      ],
      "name": "SetOperatorEvent",
      "type": "event"
    },
    {
      "anonymous": false,
      "inputs": [
        {
          "indexed": false,
          "internalType": "contract BalanceAucCalculator",
          "name": "calculator",
          "type": "address"
        }
      ],
      "name": "SetReleasedAmountBlocksCalculatorEvent",
      "type": "event"
    },
    {
      "anonymous": false,
      "inputs": [
        {
          "indexed": false,
          "internalType": "contract RevenueTokenManager",
          "name": "manager",
          "type": "address"
        }
      ],
      "name": "SetRevenueTokenManagerEvent",
      "type": "event"
    },
    {
      "anonymous": false,
      "inputs": [
        {
          "indexed": false,
          "internalType": "contract TransferControllerManager",
          "name": "oldTransferControllerManager",
          "type": "address"
        },
        {
          "indexed": false,
          "internalType": "contract TransferControllerManager",
          "name": "newTransferControllerManager",
          "type": "address"
        }
      ],
      "name": "SetTransferControllerManagerEvent",
      "type": "event"
    },
    {
      "anonymous": false,
      "inputs": [
        {
          "indexed": false,
          "internalType": "address",
          "name": "wallet",
          "type": "address"
        }
      ],
      "name": "TriggerSelfDestructionEvent",
      "type": "event"
    },
    {
      "anonymous": false,
      "inputs": [
        {
          "indexed": false,
          "internalType": "address",
          "name": "to",
          "type": "address"
        },
        {
          "indexed": false,
          "internalType": "int256",
          "name": "amount",
          "type": "int256"
        },
        {
          "indexed": false,
          "internalType": "address",
          "name": "currencyCt",
          "type": "address"
        },
        {
          "indexed": false,
          "internalType": "uint256",
          "name": "currencyId",
          "type": "uint256"
        }
      ],
      "name": "WithdrawEvent",
      "type": "event"
    },
    {
      "anonymous": false,
      "inputs": [
        {
          "indexed": false,
          "internalType": "address",
          "name": "from",
          "type": "address"
        },
        {
          "indexed": false,
          "internalType": "int256",
          "name": "amount",
          "type": "int256"
        },
        {
          "indexed": false,
          "internalType": "address",
          "name": "currencyCt",
          "type": "address"
        },
        {
          "indexed": false,
          "internalType": "uint256",
          "name": "currencyId",
          "type": "uint256"
        },
        {
          "indexed": false,
          "internalType": "string",
          "name": "standard",
          "type": "string"
        }
      ],
      "name": "WithdrawEvent",
      "type": "event"
    },
    {
      "payable": true,
      "stateMutability": "payable",
      "type": "fallback"
    },
    {
      "constant": true,
      "inputs": [],
      "name": "CLOSE_ACCRUAL_PERIOD_ACTION",
      "outputs": [
        {
          "internalType": "string",
          "name": "",
          "type": "string"
        }
      ],
      "payable": false,
      "stateMutability": "view",
      "type": "function"
    },
    {
      "constant": true,
      "inputs": [
        {
          "internalType": "address",
          "name": "",
          "type": "address"
        },
        {
          "internalType": "address",
          "name": "",
          "type": "address"
        },
        {
          "internalType": "uint256",
          "name": "",
          "type": "uint256"
        },
        {
          "internalType": "uint256",
          "name": "",
          "type": "uint256"
        }
      ],
      "name": "accrualClaimedByWalletCurrencyAccrual",
      "outputs": [
        {
          "internalType": "bool",
          "name": "",
          "type": "bool"
        }
      ],
      "payable": false,
      "stateMutability": "view",
      "type": "function"
    },
    {
      "constant": true,
      "inputs": [
        {
          "internalType": "address",
          "name": "",
          "type": "address"
        },
        {
          "internalType": "uint256",
          "name": "",
          "type": "uint256"
        },
        {
          "internalType": "uint256",
          "name": "",
          "type": "uint256"
        }
      ],
      "name": "aggregateAccrualAmountByCurrencyBlockNumber",
      "outputs": [
        {
          "internalType": "int256",
          "name": "",
          "type": "int256"
        }
      ],
      "payable": false,
      "stateMutability": "view",
      "type": "function"
    },
    {
      "constant": true,
      "inputs": [],
      "name": "balanceBlocksCalculator",
      "outputs": [
        {
          "internalType": "contract BalanceAucCalculator",
          "name": "",
          "type": "address"
        }
      ],
      "payable": false,
      "stateMutability": "view",
      "type": "function"
    },
    {
      "constant": true,
      "inputs": [],
      "name": "claimBlockNumberBatchSize",
      "outputs": [
        {
          "internalType": "uint256",
          "name": "",
          "type": "uint256"
        }
      ],
      "payable": false,
      "stateMutability": "view",
      "type": "function"
    },
    {
      "constant": true,
      "inputs": [
        {
          "internalType": "address",
          "name": "",
          "type": "address"
        },
        {
          "internalType": "address",
          "name": "",
          "type": "address"
        },
        {
          "internalType": "uint256",
          "name": "",
          "type": "uint256"
        },
        {
          "internalType": "uint256",
          "name": "",
          "type": "uint256"
        }
      ],
      "name": "claimedAccrualIndicesByWalletCurrency",
      "outputs": [
        {
          "internalType": "uint256",
          "name": "",
          "type": "uint256"
        }
      ],
      "payable": false,
      "stateMutability": "view",
      "type": "function"
    },
    {
      "constant": true,
      "inputs": [
        {
          "internalType": "address",
          "name": "",
          "type": "address"
        },
        {
          "internalType": "uint256",
          "name": "",
          "type": "uint256"
        },
        {
          "internalType": "uint256",
          "name": "",
          "type": "uint256"
        }
      ],
      "name": "closedAccrualsByCurrency",
      "outputs": [
        {
          "internalType": "uint256",
          "name": "startBlock",
          "type": "uint256"
        },
        {
          "internalType": "uint256",
          "name": "endBlock",
          "type": "uint256"
        },
        {
          "internalType": "int256",
          "name": "amount",
          "type": "int256"
        }
      ],
      "payable": false,
      "stateMutability": "view",
      "type": "function"
    },
    {
      "constant": true,
      "inputs": [],
      "name": "deployer",
      "outputs": [
        {
          "internalType": "address",
          "name": "",
          "type": "address"
        }
      ],
      "payable": false,
      "stateMutability": "view",
      "type": "function"
    },
    {
      "constant": false,
      "inputs": [
        {
          "internalType": "address",
          "name": "service",
          "type": "address"
        }
      ],
      "name": "deregisterService",
      "outputs": [],
      "payable": false,
      "stateMutability": "nonpayable",
      "type": "function"
    },
    {
      "constant": true,
      "inputs": [],
      "name": "destructor",
      "outputs": [
        {
          "internalType": "address",
          "name": "",
          "type": "address"
        }
      ],
      "payable": false,
      "stateMutability": "view",
      "type": "function"
    },
    {
      "constant": false,
      "inputs": [],
      "name": "disableSelfDestruction",
      "outputs": [],
      "payable": false,
      "stateMutability": "nonpayable",
      "type": "function"
    },
    {
      "constant": false,
      "inputs": [
        {
          "internalType": "address",
          "name": "service",
          "type": "address"
        },
        {
          "internalType": "string",
          "name": "action",
          "type": "string"
        }
      ],
      "name": "disableServiceAction",
      "outputs": [],
      "payable": false,
      "stateMutability": "nonpayable",
      "type": "function"
    },
    {
      "constant": false,
      "inputs": [
        {
          "internalType": "address",
          "name": "service",
          "type": "address"
        },
        {
          "internalType": "string",
          "name": "action",
          "type": "string"
        }
      ],
      "name": "enableServiceAction",
      "outputs": [],
      "payable": false,
      "stateMutability": "nonpayable",
      "type": "function"
    },
    {
      "constant": true,
      "inputs": [
        {
          "internalType": "address",
          "name": "service",
          "type": "address"
        },
        {
          "internalType": "string",
          "name": "action",
          "type": "string"
        }
      ],
      "name": "isEnabledServiceAction",
      "outputs": [
        {
          "internalType": "bool",
          "name": "",
          "type": "bool"
        }
      ],
      "payable": false,
      "stateMutability": "view",
      "type": "function"
    },
    {
      "constant": true,
      "inputs": [
        {
          "internalType": "address",
          "name": "service",
          "type": "address"
        }
      ],
      "name": "isRegisteredActiveService",
      "outputs": [
        {
          "internalType": "bool",
          "name": "",
          "type": "bool"
        }
      ],
      "payable": false,
      "stateMutability": "view",
      "type": "function"
    },
    {
      "constant": true,
      "inputs": [
        {
          "internalType": "address",
          "name": "service",
          "type": "address"
        }
      ],
      "name": "isRegisteredService",
      "outputs": [
        {
          "internalType": "bool",
          "name": "",
          "type": "bool"
        }
      ],
      "payable": false,
      "stateMutability": "view",
      "type": "function"
    },
    {
      "constant": true,
      "inputs": [
        {
          "internalType": "address",
          "name": "",
          "type": "address"
        },
        {
          "internalType": "address",
          "name": "",
          "type": "address"
        },
        {
          "internalType": "uint256",
          "name": "",
          "type": "uint256"
        },
        {
          "internalType": "uint256",
          "name": "",
          "type": "uint256"
        }
      ],
      "name": "maxClaimedBlockNumberByWalletCurrencyAccrual",
      "outputs": [
        {
          "internalType": "uint256",
          "name": "",
          "type": "uint256"
        }
      ],
      "payable": false,
      "stateMutability": "view",
      "type": "function"
    },
    {
      "constant": true,
      "inputs": [
        {
          "internalType": "address",
          "name": "",
          "type": "address"
        }
      ],
      "name": "nonClaimerIndicesByWallet",
      "outputs": [
        {
          "internalType": "uint256",
          "name": "",
          "type": "uint256"
        }
      ],
      "payable": false,
      "stateMutability": "view",
      "type": "function"
    },
    {
      "constant": true,
      "inputs": [
        {
          "internalType": "uint256",
          "name": "",
          "type": "uint256"
        }
      ],
      "name": "nonClaimers",
      "outputs": [
        {
          "internalType": "address",
          "name": "",
          "type": "address"
        }
      ],
      "payable": false,
      "stateMutability": "view",
      "type": "function"
    },
    {
      "constant": true,
      "inputs": [],
      "name": "operator",
      "outputs": [
        {
          "internalType": "address",
          "name": "",
          "type": "address"
        }
      ],
      "payable": false,
      "stateMutability": "view",
      "type": "function"
    },
    {
      "constant": false,
      "inputs": [
        {
          "internalType": "address",
          "name": "service",
          "type": "address"
        }
      ],
      "name": "registerService",
      "outputs": [],
      "payable": false,
      "stateMutability": "nonpayable",
      "type": "function"
    },
    {
      "constant": false,
      "inputs": [
        {
          "internalType": "address",
          "name": "service",
          "type": "address"
        }
      ],
      "name": "registerServiceDeferred",
      "outputs": [],
      "payable": false,
      "stateMutability": "nonpayable",
      "type": "function"
    },
    {
      "constant": true,
      "inputs": [],
      "name": "releasedAmountBlocksCalculator",
      "outputs": [
        {
          "internalType": "contract BalanceAucCalculator",
          "name": "",
          "type": "address"
        }
      ],
      "payable": false,
      "stateMutability": "view",
      "type": "function"
    },
    {
      "constant": true,
      "inputs": [],
      "name": "revenueTokenManager",
      "outputs": [
        {
          "internalType": "contract RevenueTokenManager",
          "name": "",
          "type": "address"
        }
      ],
      "payable": false,
      "stateMutability": "view",
      "type": "function"
    },
    {
      "constant": true,
      "inputs": [],
      "name": "selfDestructionDisabled",
      "outputs": [
        {
          "internalType": "bool",
          "name": "",
          "type": "bool"
        }
      ],
      "payable": false,
      "stateMutability": "view",
      "type": "function"
    },
    {
      "constant": true,
      "inputs": [],
      "name": "serviceActivationTimeout",
      "outputs": [
        {
          "internalType": "uint256",
          "name": "",
          "type": "uint256"
        }
      ],
      "payable": false,
      "stateMutability": "view",
      "type": "function"
    },
    {
      "constant": false,
      "inputs": [
        {
          "internalType": "address",
          "name": "newDeployer",
          "type": "address"
        }
      ],
      "name": "setDeployer",
      "outputs": [],
      "payable": false,
      "stateMutability": "nonpayable",
      "type": "function"
    },
    {
      "constant": false,
      "inputs": [
        {
          "internalType": "address",
          "name": "newOperator",
          "type": "address"
        }
      ],
      "name": "setOperator",
      "outputs": [],
      "payable": false,
      "stateMutability": "nonpayable",
      "type": "function"
    },
    {
      "constant": false,
      "inputs": [
        {
          "internalType": "uint256",
          "name": "timeoutInSeconds",
          "type": "uint256"
        }
      ],
      "name": "setServiceActivationTimeout",
      "outputs": [],
      "payable": false,
      "stateMutability": "nonpayable",
      "type": "function"
    },
    {
      "constant": false,
      "inputs": [
        {
          "internalType": "contract TransferControllerManager",
          "name": "newTransferControllerManager",
          "type": "address"
        }
      ],
      "name": "setTransferControllerManager",
      "outputs": [],
      "payable": false,
      "stateMutability": "nonpayable",
      "type": "function"
    },
    {
      "constant": true,
      "inputs": [],
      "name": "transferControllerManager",
      "outputs": [
        {
          "internalType": "contract TransferControllerManager",
          "name": "",
          "type": "address"
        }
      ],
      "payable": false,
      "stateMutability": "view",
      "type": "function"
    },
    {
      "constant": false,
      "inputs": [],
      "name": "triggerSelfDestruction",
      "outputs": [],
      "payable": false,
      "stateMutability": "nonpayable",
      "type": "function"
    },
    {
      "constant": false,
      "inputs": [
        {
          "internalType": "contract RevenueTokenManager",
          "name": "manager",
          "type": "address"
        }
      ],
      "name": "setRevenueTokenManager",
      "outputs": [],
      "payable": false,
      "stateMutability": "nonpayable",
      "type": "function"
    },
    {
      "constant": false,
      "inputs": [
        {
          "internalType": "contract BalanceAucCalculator",
          "name": "calculator",
          "type": "address"
        }
      ],
      "name": "setBalanceBlocksCalculator",
      "outputs": [],
      "payable": false,
      "stateMutability": "nonpayable",
      "type": "function"
    },
    {
      "constant": false,
      "inputs": [
        {
          "internalType": "contract BalanceAucCalculator",
          "name": "calculator",
          "type": "address"
        }
      ],
      "name": "setReleasedAmountBlocksCalculator",
      "outputs": [],
      "payable": false,
      "stateMutability": "nonpayable",
      "type": "function"
    },
    {
      "constant": false,
      "inputs": [
        {
          "internalType": "uint256",
          "name": "batchSize",
          "type": "uint256"
        }
      ],
      "name": "setClaimBlockNumberBatchSize",
      "outputs": [],
      "payable": false,
      "stateMutability": "nonpayable",
      "type": "function"
    },
    {
      "constant": true,
      "inputs": [],
      "name": "nonClaimersCount",
      "outputs": [
        {
          "internalType": "uint256",
          "name": "",
          "type": "uint256"
        }
      ],
      "payable": false,
      "stateMutability": "view",
      "type": "function"
    },
    {
      "constant": true,
      "inputs": [
        {
          "internalType": "address",
          "name": "wallet",
          "type": "address"
        }
      ],
      "name": "isNonClaimer",
      "outputs": [
        {
          "internalType": "bool",
          "name": "",
          "type": "bool"
        }
      ],
      "payable": false,
      "stateMutability": "view",
      "type": "function"
    },
    {
      "constant": false,
      "inputs": [
        {
          "internalType": "address",
          "name": "wallet",
          "type": "address"
        }
      ],
      "name": "registerNonClaimer",
      "outputs": [],
      "payable": false,
      "stateMutability": "nonpayable",
      "type": "function"
    },
    {
      "constant": false,
      "inputs": [
        {
          "internalType": "address",
          "name": "wallet",
          "type": "address"
        }
      ],
      "name": "deregisterNonClaimer",
      "outputs": [],
      "payable": false,
      "stateMutability": "nonpayable",
      "type": "function"
    },
    {
      "constant": false,
      "inputs": [
        {
          "internalType": "address",
          "name": "wallet",
          "type": "address"
        },
        {
          "internalType": "string",
          "name": "",
          "type": "string"
        }
      ],
      "name": "receiveEthersTo",
      "outputs": [],
      "payable": true,
      "stateMutability": "payable",
      "type": "function"
    },
    {
      "constant": false,
      "inputs": [
        {
          "internalType": "string",
          "name": "",
          "type": "string"
        },
        {
          "internalType": "int256",
          "name": "amount",
          "type": "int256"
        },
        {
          "internalType": "address",
          "name": "currencyCt",
          "type": "address"
        },
        {
          "internalType": "uint256",
          "name": "currencyId",
          "type": "uint256"
        },
        {
          "internalType": "string",
          "name": "standard",
          "type": "string"
        }
      ],
      "name": "receiveTokens",
      "outputs": [],
      "payable": false,
      "stateMutability": "nonpayable",
      "type": "function"
    },
    {
      "constant": false,
      "inputs": [
        {
          "internalType": "address",
          "name": "wallet",
          "type": "address"
        },
        {
          "internalType": "string",
          "name": "",
          "type": "string"
        },
        {
          "internalType": "int256",
          "name": "amount",
          "type": "int256"
        },
        {
          "internalType": "address",
          "name": "currencyCt",
          "type": "address"
        },
        {
          "internalType": "uint256",
          "name": "currencyId",
          "type": "uint256"
        },
        {
          "internalType": "string",
          "name": "standard",
          "type": "string"
        }
      ],
      "name": "receiveTokensTo",
      "outputs": [],
      "payable": false,
      "stateMutability": "nonpayable",
      "type": "function"
    },
    {
      "constant": true,
      "inputs": [
        {
          "internalType": "address",
          "name": "currencyCt",
          "type": "address"
        },
        {
          "internalType": "uint256",
          "name": "currencyId",
          "type": "uint256"
        }
      ],
      "name": "periodAccrualBalance",
      "outputs": [
        {
          "internalType": "int256",
          "name": "",
          "type": "int256"
        }
      ],
      "payable": false,
      "stateMutability": "view",
      "type": "function"
    },
    {
      "constant": true,
      "inputs": [
        {
          "internalType": "address",
          "name": "currencyCt",
          "type": "address"
        },
        {
          "internalType": "uint256",
          "name": "currencyId",
          "type": "uint256"
        }
      ],
      "name": "aggregateAccrualBalance",
      "outputs": [
        {
          "internalType": "int256",
          "name": "",
          "type": "int256"
        }
      ],
      "payable": false,
      "stateMutability": "view",
      "type": "function"
    },
    {
      "constant": true,
      "inputs": [],
      "name": "periodCurrenciesCount",
      "outputs": [
        {
          "internalType": "uint256",
          "name": "",
          "type": "uint256"
        }
      ],
      "payable": false,
      "stateMutability": "view",
      "type": "function"
    },
    {
      "constant": true,
      "inputs": [
        {
          "internalType": "uint256",
          "name": "low",
          "type": "uint256"
        },
        {
          "internalType": "uint256",
          "name": "up",
          "type": "uint256"
        }
      ],
      "name": "periodCurrenciesByIndices",
      "outputs": [
        {
          "components": [
            {
              "internalType": "address",
              "name": "ct",
              "type": "address"
            },
            {
              "internalType": "uint256",
              "name": "id",
              "type": "uint256"
            }
          ],
          "internalType": "struct MonetaryTypesLib.Currency[]",
          "name": "",
          "type": "tuple[]"
        }
      ],
      "payable": false,
      "stateMutability": "view",
      "type": "function"
    },
    {
      "constant": true,
      "inputs": [],
      "name": "aggregateCurrenciesCount",
      "outputs": [
        {
          "internalType": "uint256",
          "name": "",
          "type": "uint256"
        }
      ],
      "payable": false,
      "stateMutability": "view",
      "type": "function"
    },
    {
      "constant": true,
      "inputs": [
        {
          "internalType": "uint256",
          "name": "low",
          "type": "uint256"
        },
        {
          "internalType": "uint256",
          "name": "up",
          "type": "uint256"
        }
      ],
      "name": "aggregateCurrenciesByIndices",
      "outputs": [
        {
          "components": [
            {
              "internalType": "address",
              "name": "ct",
              "type": "address"
            },
            {
              "internalType": "uint256",
              "name": "id",
              "type": "uint256"
            }
          ],
          "internalType": "struct MonetaryTypesLib.Currency[]",
          "name": "",
          "type": "tuple[]"
        }
      ],
      "payable": false,
      "stateMutability": "view",
      "type": "function"
    },
    {
      "constant": true,
      "inputs": [
        {
          "internalType": "address",
          "name": "wallet",
          "type": "address"
        },
        {
          "internalType": "address",
          "name": "currencyCt",
          "type": "address"
        },
        {
          "internalType": "uint256",
          "name": "currencyId",
          "type": "uint256"
        }
      ],
      "name": "stagedBalance",
      "outputs": [
        {
          "internalType": "int256",
          "name": "",
          "type": "int256"
        }
      ],
      "payable": false,
      "stateMutability": "view",
      "type": "function"
    },
    {
      "constant": true,
      "inputs": [
        {
          "internalType": "address",
          "name": "currencyCt",
          "type": "address"
        },
        {
          "internalType": "uint256",
          "name": "currencyId",
          "type": "uint256"
        }
      ],
      "name": "closedAccrualsCount",
      "outputs": [
        {
          "internalType": "uint256",
          "name": "",
          "type": "uint256"
        }
      ],
      "payable": false,
      "stateMutability": "view",
      "type": "function"
    },
    {
      "constant": false,
      "inputs": [
        {
          "components": [
            {
              "internalType": "address",
              "name": "ct",
              "type": "address"
            },
            {
              "internalType": "uint256",
              "name": "id",
              "type": "uint256"
            }
          ],
          "internalType": "struct MonetaryTypesLib.Currency[]",
          "name": "currencies",
          "type": "tuple[]"
        }
      ],
      "name": "closeAccrualPeriod",
      "outputs": [],
      "payable": false,
      "stateMutability": "nonpayable",
      "type": "function"
    },
    {
      "constant": true,
      "inputs": [
        {
          "internalType": "address",
          "name": "currencyCt",
          "type": "address"
        },
        {
          "internalType": "uint256",
          "name": "currencyId",
          "type": "uint256"
        },
        {
          "internalType": "uint256",
          "name": "blockNumber",
          "type": "uint256"
        }
      ],
      "name": "closedAccrualIndexByBlockNumber",
      "outputs": [
        {
          "internalType": "uint256",
          "name": "",
          "type": "uint256"
        }
      ],
      "payable": false,
      "stateMutability": "view",
      "type": "function"
    },
    {
      "constant": true,
      "inputs": [
        {
          "internalType": "address",
          "name": "wallet",
          "type": "address"
        },
        {
          "internalType": "address",
          "name": "currencyCt",
          "type": "address"
        },
        {
          "internalType": "uint256",
          "name": "currencyId",
          "type": "uint256"
        },
        {
          "internalType": "uint256",
          "name": "startAccrualIndex",
          "type": "uint256"
        },
        {
          "internalType": "uint256",
          "name": "endAccrualIndex",
          "type": "uint256"
        }
      ],
      "name": "claimableAmountByAccruals",
      "outputs": [
        {
          "internalType": "int256",
          "name": "",
          "type": "int256"
        }
      ],
      "payable": false,
      "stateMutability": "view",
      "type": "function"
    },
    {
      "constant": true,
      "inputs": [
        {
          "internalType": "address",
          "name": "wallet",
          "type": "address"
        },
        {
          "internalType": "address",
          "name": "currencyCt",
          "type": "address"
        },
        {
          "internalType": "uint256",
          "name": "currencyId",
          "type": "uint256"
        },
        {
          "internalType": "uint256",
          "name": "startBlock",
          "type": "uint256"
        },
        {
          "internalType": "uint256",
          "name": "endBlock",
          "type": "uint256"
        }
      ],
      "name": "claimableAmountByBlockNumbers",
      "outputs": [
        {
          "internalType": "int256",
          "name": "",
          "type": "int256"
        }
      ],
      "payable": false,
      "stateMutability": "view",
      "type": "function"
    },
    {
      "constant": false,
      "inputs": [
        {
          "internalType": "contract Beneficiary",
          "name": "beneficiary",
          "type": "address"
        },
        {
          "internalType": "address",
          "name": "destWallet",
          "type": "address"
        },
        {
          "internalType": "string",
          "name": "balanceType",
          "type": "string"
        },
        {
          "internalType": "address",
          "name": "currencyCt",
          "type": "address"
        },
        {
          "internalType": "uint256",
          "name": "currencyId",
          "type": "uint256"
        },
        {
          "internalType": "uint256",
          "name": "startAccrualIndex",
          "type": "uint256"
        },
        {
          "internalType": "uint256",
          "name": "endAccrualIndex",
          "type": "uint256"
        },
        {
          "internalType": "string",
          "name": "standard",
          "type": "string"
        }
      ],
      "name": "claimAndTransferToBeneficiaryByAccruals",
      "outputs": [],
      "payable": false,
      "stateMutability": "nonpayable",
      "type": "function"
    },
    {
      "constant": false,
      "inputs": [
        {
          "internalType": "contract Beneficiary",
          "name": "beneficiary",
          "type": "address"
        },
        {
          "internalType": "address",
          "name": "destWallet",
          "type": "address"
        },
        {
          "internalType": "string",
          "name": "balanceType",
          "type": "string"
        },
        {
          "internalType": "address",
          "name": "currencyCt",
          "type": "address"
        },
        {
          "internalType": "uint256",
          "name": "currencyId",
          "type": "uint256"
        },
        {
          "internalType": "uint256",
          "name": "startBlock",
          "type": "uint256"
        },
        {
          "internalType": "uint256",
          "name": "endBlock",
          "type": "uint256"
        },
        {
          "internalType": "string",
          "name": "standard",
          "type": "string"
        }
      ],
      "name": "claimAndTransferToBeneficiaryByBlockNumbers",
      "outputs": [],
      "payable": false,
      "stateMutability": "nonpayable",
      "type": "function"
    },
    {
      "constant": false,
      "inputs": [
        {
          "internalType": "contract Beneficiary",
          "name": "beneficiary",
          "type": "address"
        },
        {
          "internalType": "address",
          "name": "destWallet",
          "type": "address"
        },
        {
          "internalType": "string",
          "name": "balanceType",
          "type": "string"
        },
        {
          "internalType": "address",
          "name": "currencyCt",
          "type": "address"
        },
        {
          "internalType": "uint256",
          "name": "currencyId",
          "type": "uint256"
        },
        {
          "internalType": "string",
          "name": "standard",
          "type": "string"
        }
      ],
      "name": "claimAndTransferToBeneficiary",
      "outputs": [],
      "payable": false,
      "stateMutability": "nonpayable",
      "type": "function"
    },
    {
      "constant": false,
      "inputs": [
        {
          "internalType": "address",
          "name": "currencyCt",
          "type": "address"
        },
        {
          "internalType": "uint256",
          "name": "currencyId",
          "type": "uint256"
        },
        {
          "internalType": "uint256",
          "name": "startAccrualIndex",
          "type": "uint256"
        },
        {
          "internalType": "uint256",
          "name": "endAccrualIndex",
          "type": "uint256"
        }
      ],
      "name": "claimAndStageByAccruals",
      "outputs": [],
      "payable": false,
      "stateMutability": "nonpayable",
      "type": "function"
    },
    {
      "constant": false,
      "inputs": [
        {
          "internalType": "address",
          "name": "currencyCt",
          "type": "address"
        },
        {
          "internalType": "uint256",
          "name": "currencyId",
          "type": "uint256"
        },
        {
          "internalType": "uint256",
          "name": "startBlock",
          "type": "uint256"
        },
        {
          "internalType": "uint256",
          "name": "endBlock",
          "type": "uint256"
        }
      ],
      "name": "claimAndStageByBlockNumbers",
      "outputs": [],
      "payable": false,
      "stateMutability": "nonpayable",
      "type": "function"
    },
    {
      "constant": true,
      "inputs": [
        {
          "internalType": "address",
          "name": "wallet",
          "type": "address"
        },
        {
          "internalType": "address",
          "name": "currencyCt",
          "type": "address"
        },
        {
          "internalType": "uint256",
          "name": "currencyId",
          "type": "uint256"
        },
        {
          "internalType": "uint256",
          "name": "accrualIndex",
          "type": "uint256"
        }
      ],
      "name": "fullyClaimed",
      "outputs": [
        {
          "internalType": "bool",
          "name": "",
          "type": "bool"
        }
      ],
      "payable": false,
      "stateMutability": "view",
      "type": "function"
    },
    {
      "constant": true,
      "inputs": [
        {
          "internalType": "address",
          "name": "wallet",
          "type": "address"
        },
        {
          "internalType": "address",
          "name": "currencyCt",
          "type": "address"
        },
        {
          "internalType": "uint256",
          "name": "currencyId",
          "type": "uint256"
        },
        {
          "internalType": "uint256",
          "name": "accrualIndex",
          "type": "uint256"
        }
      ],
      "name": "partiallyClaimed",
      "outputs": [
        {
          "internalType": "bool",
          "name": "",
          "type": "bool"
        }
      ],
      "payable": false,
      "stateMutability": "view",
      "type": "function"
    },
    {
      "constant": true,
      "inputs": [
        {
          "internalType": "address",
          "name": "wallet",
          "type": "address"
        },
        {
          "internalType": "address",
          "name": "currencyCt",
          "type": "address"
        },
        {
          "internalType": "uint256",
          "name": "currencyId",
          "type": "uint256"
        },
        {
          "internalType": "uint256",
          "name": "accrualIndex",
          "type": "uint256"
        }
      ],
      "name": "claimedBlockSpans",
      "outputs": [
        {
          "components": [
            {
              "internalType": "uint256",
              "name": "startBlock",
              "type": "uint256"
            },
            {
              "internalType": "uint256",
              "name": "endBlock",
              "type": "uint256"
            }
          ],
          "internalType": "struct TokenHolderRevenueFund.BlockSpan[]",
          "name": "",
          "type": "tuple[]"
        }
      ],
      "payable": false,
      "stateMutability": "view",
      "type": "function"
    },
    {
      "constant": false,
      "inputs": [
        {
          "internalType": "int256",
          "name": "amount",
          "type": "int256"
        },
        {
          "internalType": "address",
          "name": "currencyCt",
          "type": "address"
        },
        {
          "internalType": "uint256",
          "name": "currencyId",
          "type": "uint256"
        },
        {
          "internalType": "string",
          "name": "standard",
          "type": "string"
        }
      ],
      "name": "withdraw",
      "outputs": [],
      "payable": false,
      "stateMutability": "nonpayable",
      "type": "function"
    }
  ],
  "bytecode": "0x60806040523480156200001157600080fd5b5060405162005ea538038062005ea58339810160408190526200003491620000b3565b80806001600160a01b0381166200004a57600080fd5b6001600160a01b0381163014156200006157600080fd5b5060008054610100600160a81b0319166101006001600160a01b0393909316928302179055600180546001600160a01b03191690911790555062000108565b8051620000ad81620000ee565b92915050565b600060208284031215620000c657600080fd5b6000620000d48484620000a0565b949350505050565b60006001600160a01b038216620000ad565b620000f981620000dc565b81146200010557600080fd5b50565b615d8d80620001186000396000f3fe6080604052600436106102d35760003560e01c8063070693f1146102ee578063090735e5146103245780630f200f9b1461034657806312e94dda1461036657806317ba3f90146103935780631e6df71d146103b35780632738a112146103e057806327c3a296146103f55780632b5672e3146104155780632b91e0a9146104355780632f013a00146104555780632f0445231461046a578063382e80231461048a5780633b58c501146104aa5780633b7bea6c146104ca57806342be33ab146104df5780634476d23b146104ff578063477fbc39146105215780634c83d8eb1461054157806350b08c0214610561578063570ca7351461058157806357823a45146105965780635af36995146105b65780635df1b0a3146105d85780635eb05538146105f85780635f28965114610618578063610f22981461063857806366f8fd001461065857806369ac566d1461067857806370327ea11461068d5780637c8cf970146106a25780637e15dd5c146106b75780638bc4644d146106d75780638e0615b2146106f75780638e8cef121461070c5780639114574d1461072c57806393b728f91461074c578063962147351461076c578063962c85a21461078c5780639caffcbd146107b95780639fea020a146107ce578063a7654a1f146107ee578063af30b31214610801578063b3ab15fb14610816578063ba06820c14610836578063bb4e34ea14610856578063bc48b6491461086b578063c45a9a7f1461088b578063cb9bd04c146108ab578063cc67be7e146108cb578063ce256213146108eb578063d0f166581461090b578063d3b41bd21461092b578063d4cf33181461094b578063d5f394881461096b578063e5a52a3b14610980578063e82c7518146109a0578063e8aa22ba146109c0578063f50358e7146109e0578063f70fce0414610a00578063f736cc9d14610a15578063f8e5908314610a35578063f971f7c114610a55578063fdd9ec7d14610a84575b6102ec3360405180602001604052806000815250610aa4565b005b3480156102fa57600080fd5b5061030e61030936600461494c565b610baf565b60405161031b9190615981565b60405180910390f35b34801561033057600080fd5b50610339610c43565b60405161031b919061598f565b34801561035257600080fd5b506102ec610361366004614dc3565b610c52565b34801561037257600080fd5b506103866103813660046148ff565b610fa3565b60405161031b91906159fb565b34801561039f57600080fd5b5061030e6103ae3660046148e1565b610fd5565b3480156103bf57600080fd5b506103d36103ce36600461494c565b61100d565b60405161031b919061595f565b3480156103ec57600080fd5b506102ec61113a565b34801561040157600080fd5b506102ec6104103660046148e1565b6111a0565b34801561042157600080fd5b506102ec610430366004614a22565b611278565b34801561044157600080fd5b5061030e6104503660046148e1565b611392565b34801561046157600080fd5b5061030e6113b0565b34801561047657600080fd5b50610386610485366004614b28565b6113b9565b34801561049657600080fd5b506102ec6104a5366004614c2d565b6113cd565b3480156104b657600080fd5b506102ec6104c5366004614a22565b611459565b3480156104d657600080fd5b50610386611533565b3480156104eb57600080fd5b506103866104fa3660046149ad565b611539565b34801561050b57600080fd5b5061051461165d565b60405161031b919061569e565b34801561052d57600080fd5b506102ec61053c366004614bbd565b611672565b34801561054d57600080fd5b5061038661055c3660046148e1565b61191f565b34801561056d57600080fd5b506102ec61057c3660046148e1565b611931565b34801561058d57600080fd5b506105146119e1565b3480156105a257600080fd5b506103866105b1366004614b58565b6119f0565b3480156105c257600080fd5b506105cb611a8e565b60405161031b9190615a25565b3480156105e457600080fd5b5061030e6105f3366004614a22565b611abe565b34801561060457600080fd5b506102ec610613366004614c2d565b611b0d565b34801561062457600080fd5b506102ec610633366004614a73565b611b99565b34801561064457600080fd5b5061038661065336600461494c565b611dfe565b34801561066457600080fd5b5061030e61067336600461494c565b611e46565b34801561068457600080fd5b50610386611e75565b34801561069957600080fd5b506102ec611e86565b3480156106ae57600080fd5b50610339611ee9565b3480156106c357600080fd5b506102ec6106d2366004614ec4565b611ef8565b3480156106e357600080fd5b506103866106f23660046149ad565b611f49565b34801561070357600080fd5b506103396122fa565b34801561071857600080fd5b506102ec6107273660046148e1565b612309565b34801561073857600080fd5b5061030e61074736600461494c565b612383565b34801561075857600080fd5b506102ec610767366004614ca9565b612417565b34801561077857600080fd5b506102ec6107873660046148e1565b6124ad565b34801561079857600080fd5b506107ac6107a7366004614ee2565b61255f565b60405161031b9190615970565b3480156107c557600080fd5b50610386612573565b3480156107da57600080fd5b506102ec6107e9366004614b8a565b612579565b6102ec6107fc366004614a22565b610aa4565b34801561080d57600080fd5b50610339612622565b34801561082257600080fd5b506102ec6108313660046148e1565b612631565b34801561084257600080fd5b506102ec610851366004614c2d565b6126d4565b34801561086257600080fd5b50610386612744565b34801561087757600080fd5b506102ec610886366004614ec4565b612750565b34801561089757600080fd5b506102ec6108a6366004614e2f565b612796565b3480156108b757600080fd5b506107ac6108c6366004614ee2565b6127b3565b3480156108d757600080fd5b506105146108e6366004614ec4565b6127c7565b3480156108f757600080fd5b506102ec610906366004614c4b565b6127ee565b34801561091757600080fd5b506102ec610926366004614ca9565b612ae3565b34801561093757600080fd5b506102ec610946366004614c2d565b612b66565b34801561095757600080fd5b506102ec6109663660046148e1565b612bfd565b34801561097757600080fd5b50610514612da2565b34801561098c57600080fd5b5061030e61099b3660046148e1565b612db6565b3480156109ac57600080fd5b506103866109bb366004614b58565b612dd3565b3480156109cc57600080fd5b506102ec6109db366004614b8a565b612df6565b3480156109ec57600080fd5b506103866109fb366004614b28565b612e8f565b348015610a0c57600080fd5b50610386612ea3565b348015610a2157600080fd5b50610386610a3036600461494c565b612ea9565b348015610a4157600080fd5b50610386610a50366004614b28565b612ed5565b348015610a6157600080fd5b50610a75610a70366004614b58565b612efd565b60405161031b93929190615b56565b348015610a9057600080fd5b506102ec610a9f3660046148e1565b612f4a565b60405163802d10af60e01b815260009073__SafeMathIntLib________________________9063802d10af90610ade9034906004016159fb565b60206040518083038186803b158015610af657600080fd5b505af4158015610b0a573d6000803e3d6000fd5b505050506040513d601f19601f82011682018060405250610b2e9190810190614da5565b9050610b4460088260008063ffffffff612fbf16565b610b5860108260008063ffffffff612fbf16565b610b6b600e60008063ffffffff61306a16565b610b7e601660008063ffffffff61306a16565b600080516020615d2b8339815191528382600080604051610ba29493929190615853565b60405180910390a1505050565b6001600160a01b038316600090815260186020908152604080832085845290915281205482108015610c3857506001600160a01b03841660009081526018602090815260408083208684529091529020805483908110610c0b57fe5b600091825260208083206001600160a01b03891684526003600490930201919091019052604090205460ff165b90505b949350505050565b6007546001600160a01b031681565b6040516351750e5360e11b815273__SafeMathIntLib________________________9063a2ea1ca690610c899087906004016159fb565b60206040518083038186803b158015610ca157600080fd5b505af4158015610cb5573d6000803e3d6000fd5b505050506040513d601f19601f82011682018060405250610cd99190810190614bf1565b610cfe5760405162461bcd60e51b8152600401610cf590615a66565b60405180910390fd5b336000908152602080526040902073__SafeMathIntLib________________________9063755875b2908690610d3b90878763ffffffff61310616565b6040518363ffffffff1660e01b8152600401610d58929190615a09565b60206040518083038186803b158015610d7057600080fd5b505af4158015610d84573d6000803e3d6000fd5b505050506040513d601f19601f82011682018060405250610da89190810190614da5565b3360009081526020805260409020909450610dcb9085858563ffffffff61312e16565b6001600160a01b038316158015610de0575081155b15610e1857604051339085156108fc029086906000818181858888f19350505050158015610e12573d6000803e3d6000fd5b50610f5e565b6000610e248483613160565b90506000816001600160a01b0316826001600160a01b0316637228941f6040518163ffffffff1660e01b815260040160206040518083038186803b158015610e6b57600080fd5b505afa158015610e7f573d6000803e3d6000fd5b505050506040513d601f19601f82011682018060405250610ea39190810190614c0f565b3033898989604051602401610ebc9594939291906156ba565b60408051601f198184030181529181526020820180516001600160e01b03166001600160e01b0319909416939093179092529051610efa9190615692565b600060405180830381855af49150503d8060008114610f35576040519150601f19603f3d011682016040523d82523d6000602084013e610f3a565b606091505b5050905080610f5b5760405162461bcd60e51b8152600401610cf590615aa6565b50505b7f8e0adde15ffb742f47e7888277a26cea416253fcb63186dc4949fe493e92b77c3385858585604051610f95959493929190615721565b60405180910390a150505050565b6001600160a01b03831660009081526020805260408120610fcb90848463ffffffff61310616565b90505b9392505050565b6000610fe082611392565b801561100757506001600160a01b0382166000908152600260205260409020600101544210155b92915050565b6001600160a01b0383166000908152601860209081526040808320858452909152902054606090821061107357604080516000808252602082019092529061106b565b611058614667565b8152602001906001900390816110505790505b509050610c3b565b6001600160a01b038416600090815260186020908152604080832086845290915290208054839081106110a257fe5b600091825260208083206001600160a01b03891684526003600490930201919091018152604080832060010180548251818502810185019093528083529193909284015b8282101561112c578382906000526020600020906002020160405180604001604052908160008201548152602001600182015481525050815260200190600101906110e6565b505050509050949350505050565b3361114361165d565b6001600160a01b03161461115657600080fd5b60005460ff161561116657600080fd5b7f787a5d936e74f4b564b9153575886059829c78cd9927b1be5e0d976b317ef7363360405161119591906156ac565b60405180910390a133ff5b6111a86131e4565b6111b157600080fd5b806001600160a01b0381166111c557600080fd5b6001600160a01b0382166000908152601a602052604090205461127457601980546001810182557f944998273e477b495144fb8794c914197f3ccb46be2900f4698fd0ef743c96950180546001600160a01b0319166001600160a01b03851690811790915590546000918252601a60205260409182902055517fe4396169e2643cb77e01f1e59496fbc0a3c47e69b33035cb6dbb29143f80b7799061126b90849061569e565b60405180910390a15b5050565b6112806131e4565b61128957600080fd5b816001600160a01b03811661129d57600080fd5b6001600160a01b0381163014156112b357600080fd5b6001600160a01b03831660009081526002602052604090205460ff166112d857600080fd5b60006112e3836131fa565b6001600160a01b0385166000908152600260208181526040808420858552909201905290205490915060ff161561131957600080fd5b6001600160a01b03841660009081526002602081815260408084208585528084018352818520805460ff19166001908117909155938352600301805493840181558452922001829055517fec1b982d69bfc1a6fd8becf191d9a633486c822d3bdedd52303ca81fa635750190610f9590869086906158bd565b6001600160a01b031660009081526002602052604090205460ff1690565b60005460ff1681565b6000610fce6008848463ffffffff61310616565b6113d56131e4565b6113de57600080fd5b806001600160a01b0381166113f257600080fd5b6001600160a01b03811630141561140857600080fd5b600680546001600160a01b0319166001600160a01b0384811691909117918290556040517f49edb64497e12c80343b51bfe18170a760a1152336abe904047a2a81244ea5dd9261126b92169061598f565b6114616131e4565b61146a57600080fd5b816001600160a01b03811661147e57600080fd5b6001600160a01b03811630141561149457600080fd5b600061149f836131fa565b6001600160a01b0385166000908152600260208181526040808420858552909201905290205490915060ff166114d457600080fd5b6001600160a01b0384166000908152600260208181526040808420858552909201905290819020805460ff19169055517f92f4af6130f47c92f3899e06611c8c6ef191fb81207ad2675d134af619d2fe7d90610f9590869086906158bd565b60035481565b600061154486612db6565b1561155157506000611654565b6001600160a01b038516600090815260186020908152604080832087845290915290205461158157506000611654565b818311156115a15760405162461bcd60e51b8152600401610cf590615b46565b6000835b8381111580156115d757506001600160a01b038716600090815260186020908152604080832089845290915290205481105b15611650576001600160a01b03871660009081526018602090815260408083208984529091529020805461163691611629918b91908590811061161657fe5b906000526020600020906004020161322a565b839063ffffffff6132a516565b915061164981600163ffffffff6132d816565b90506115a5565b5090505b95945050505050565b60005461010090046001600160a01b03165b90565b6040518060400160405280601481526020017318db1bdcd957d858d8dc9d585b17dc195c9a5bd960621b8152506116a93382611abe565b6116b257600080fd5b60005b825181101561191a576116c6614681565b8382815181106116d257fe5b6020026020010151905060006116fc8260000151836020015160086131069092919063ffffffff16565b82516001600160a01b03166000908152601860209081526040808320828701518452909152812054919250901561179a5782516001600160a01b039081166000908152601860208181526040808420828901805186529083528185208951909616855292825280842092518452919052902054815460001990910190811061178057fe5b90600052602060002090600402016001015460010161179d565b60005b83516001600160a01b031660009081526018602090815260408083208288018051855290835281842082516060810184528681524381860190815293810189815282546001818101855593885295909620905160049095020193845591519183019190915591516002909101558451905191925061181a91612e8f565b83516001600160a01b03166000908152601f60209081526040808320828801518452825280832043845290915281209190915582131561188a5782516020840151611871916008916000919063ffffffff6132e716565b8251602084015161188a91600e9163ffffffff61335e16565b82516001600160a01b03166000908152601f602090815260408083208287018051855290835281842043855290925291829020548551915192517f0a770107c3c8295a15ff19c83dec676996da3dc1f5ab3cb7a931bd2658643c90936118f593879392909190615a17565b60405180910390a1506119139150829050600163ffffffff6132d816565b90506116b5565b505050565b601a6020526000908152604090205481565b6119396131e4565b61194257600080fd5b806001600160a01b03811661195657600080fd5b6001600160a01b03811630141561196c57600080fd5b6001600160a01b03821660009081526002602052604090205460ff1661199157600080fd5b6001600160a01b03821660009081526002602052604090819020805460ff19169055517f777645c5437dfbf962f57a281ead25f3d513f2f8e938685bbfc1738e81c9880e9061126b90849061569e565b6001546001600160a01b031681565b6001600160a01b03831660009081526018602090815260408083208584529091528120545b8015611a8357611a2c81600163ffffffff61339716565b6001600160a01b038616600090815260186020908152604080832088845290915290208054919250849183908110611a6057fe5b90600052602060002090600402016000015411611a7e579050610fce565b611a15565b506000949350505050565b6040518060400160405280601481526020017318db1bdcd957d858d8dc9d585b17dc195c9a5bd960621b81525081565b600080611aca836131fa565b9050611ad584610fd5565b8015610c3b57506001600160a01b0384166000908152600260208181526040808420858552909201905290205460ff16949350505050565b611b156131e4565b611b1e57600080fd5b806001600160a01b038116611b3257600080fd5b6001600160a01b038116301415611b4857600080fd5b600780546001600160a01b0319166001600160a01b0384811691909117918290556040517f745dbbb080f77d19f28fe88197e1ff57bfb2e9a748b0da9843d721fbdef4f3139261126b92169061598f565b6040516351750e5360e11b815273__SafeMathIntLib________________________9063a2ea1ca690611bd09087906004016159fb565b60206040518083038186803b158015611be857600080fd5b505af4158015611bfc573d6000803e3d6000fd5b505050506040513d601f19601f82011682018060405250611c209190810190614bf1565b611c3c5760405162461bcd60e51b8152600401610cf590615af6565b6000611c488483613160565b90506000816001600160a01b0316826001600160a01b031663ad502f576040518163ffffffff1660e01b815260040160206040518083038186803b158015611c8f57600080fd5b505afa158015611ca3573d6000803e3d6000fd5b505050506040513d601f19601f82011682018060405250611cc79190810190614c0f565b3330898989604051602401611ce0959493929190615706565b60408051601f198184030181529181526020820180516001600160e01b03166001600160e01b0319909416939093179092529051611d1e9190615692565b600060405180830381855af49150503d8060008114611d59576040519150601f19603f3d011682016040523d82523d6000602084013e611d5e565b606091505b5050905080611d7f5760405162461bcd60e51b8152600401610cf590615b36565b611d92600887878763ffffffff612fbf16565b611da5601087878763ffffffff612fbf16565b611db7600e868663ffffffff61306a16565b611dc96016868663ffffffff61306a16565b600080516020615d2b83398151915288878787604051611dec9493929190615888565b60405180910390a15050505050505050565b601b6020528360005260406000206020528260005260406000206020528160005260406000208181548110611e2f57fe5b906000526020600020016000935093505050505481565b601c60209081526000948552604080862082529385528385208152918452828420909152825290205460ff1681565b6000611e81600e6133a9565b905090565b33611e8f61165d565b6001600160a01b031614611ea257600080fd5b6000805460ff191660011790556040517fd5a2a04a775c741c2ca0dc46ea7ce4835190e1aaf1ca018def0e82568ec3361690611edf9033906156ac565b60405180910390a1565b6005546001600160a01b031681565b611f006131e4565b611f0957600080fd5b60038190556040517f4f1d324a1cbffc352fb64f1d73d95e4b200d92f99ef39bf2d7f5b41f946909d690611f3e9083906159fb565b60405180910390a150565b6000611f5486612db6565b15611f6157506000611654565b6001600160a01b0385166000908152601860209081526040808320878452909152902054611f9157506000611654565b81831115611fb15760405162461bcd60e51b8152600401610cf590615ab6565b6000611fbe8686866119f0565b90506000611fcd8787866119f0565b6001600160a01b03881660009081526018602090815260408083208a84529091528120805492935090918390811061200157fe5b9060005260206000209060040201905080600001548510156120295760009350505050611654565b60008284101561219b576001600160a01b03891660009081526018602090815260408083208b8452909152812080548690811061206257fe5b906000526020600020906004020190506121978b828a73__SafeMathUintLib_______________________63a682d5ad909186600001546040518363ffffffff1660e01b81526004016120b6929190615a09565b60206040518083038186803b1580156120ce57600080fd5b505af41580156120e2573d6000803e3d6000fd5b505050506040513d601f19601f820116820180604052506121069190810190614da5565b600185015460405163700f1a7760e01b815273__SafeMathUintLib_______________________9163700f1a7791612142918f91600401615a09565b60206040518083038186803b15801561215a57600080fd5b505af415801561216e573d6000803e3d6000fd5b505050506040513d601f19601f820116820180604052506121929190810190614da5565b6133ad565b9150505b60006121ae85600163ffffffff6132d816565b90505b8381101561220d576001600160a01b038a1660009081526018602090815260408083208c8452909152902080546121f391611629918e91908590811061161657fe5b915061220681600163ffffffff6132d816565b90506121b1565b50815460405163a682d5ad60e01b81526122ec916122df918d91869173__SafeMathUintLib_______________________9163a682d5ad91612253918f91600401615a09565b60206040518083038186803b15801561226b57600080fd5b505af415801561227f573d6000803e3d6000fd5b505050506040513d601f19601f820116820180604052506122a39190810190614da5565b600187015460405163700f1a7760e01b815273__SafeMathUintLib_______________________9163700f1a7791612142918f91600401615a09565b829063ffffffff6132a516565b9a9950505050505050505050565b6006546001600160a01b031681565b6123116131e4565b61231a57600080fd5b806001600160a01b03811661232e57600080fd5b6001600160a01b03811630141561234457600080fd5b61235082600354613483565b7f7f3a8349917003ed377f6e9ae1608b92edd893903f8983bd274b1f8373dd3b118260035460405161126b929190615944565b6001600160a01b038316600090815260186020908152604080832085845290915281205482108015610c3857506001600160a01b038416600090815260186020908152604080832086845290915290208054839081106123df57fe5b600091825260208083206001600160a01b03891684526003600490930201919091019052604090206001015415159050949350505050565b61242033612db6565b1561243d5760405162461bcd60e51b8152600401610cf590615a36565b600061244c33878787876134d2565b905061245d898989848a8a886135eb565b7fce88ffecbf04ad50f9da2b905ad4da84bc6624eed1c0a11fb67f51674efa46f3338883898989898960405161249a9897969594939291906157c2565b60405180910390a1505050505050505050565b6124b56131e4565b6124be57600080fd5b806001600160a01b0381166124d257600080fd5b6001600160a01b0381163014156124e857600080fd5b6000546001600160a01b03838116610100909204161461127457600080546001600160a01b03848116610100908102610100600160a81b03198416179093556040519290910416907f977e5fa58e458501775e0008d275006294c5249e3c08d1d0e3a9f3acad14f6e490610ba29083908690615838565b6060610fce6016848463ffffffff61382016565b60195490565b61258233612db6565b1561259f5760405162461bcd60e51b8152600401610cf590615a46565b60006125ae33868686866139ae565b9050806000121561261b5733600090815260208052604090206125d99082878763ffffffff612fbf16565b7fe92e3be0a2d22d0361a111058b5c672043df42105c60fc3e0f1f8d84e849e05633828787878760405161261296959493929190615773565b60405180910390a15b5050505050565b6004546001600160a01b031681565b612639613de5565b61264257600080fd5b806001600160a01b03811661265657600080fd5b6001600160a01b03811630141561266c57600080fd5b6001546001600160a01b0383811691161461127457600180546001600160a01b038481166001600160a01b03198316179092556040519116907f9f611b789425d0d5b90b920f1b2852907dd865c80074a30b1629aaa041d1812c90610ba29083908690615838565b6126dc6131e4565b6126e557600080fd5b806001600160a01b0381166126f957600080fd5b600580546001600160a01b0319166001600160a01b0384161790556040517f32647f34ccf7e02c0ef66ee2d9998df35b42b616ae075c3be114800b8dddbc419061126b90849061598f565b6000611e8160166133a9565b6127586131e4565b61276157600080fd5b601e8190556040517f9de1336180f4984abb5a1a0183d1d8a742512be83189e4631dc759e1c93a6b6b90611f3e9083906159fb565b61261b336040518060200160405280600081525086868686611b99565b6060610fce600e848463ffffffff61382016565b601981815481106127d457fe5b6000918252602090912001546001600160a01b0316905081565b336000908152601b602090815260408083206001600160a01b038716845282528083208584529091528120541561286d57336000908152601b602090815260408083206001600160a01b0388168452825280832086845290915290208054600019810190811061285a57fe5b9060005260206000200154600101612870565b60005b9050601e546000141561289e5761288933858584613df6565b6128998787878787868789612417565b612ada565b6001600160a01b038416600090815260186020908152604080832086845290915281208054839081106128cd57fe5b60009182526020808320338452601d825260408085206001600160a01b038b168652835280852089865283528085208786529092529083205460049092020192501561294f57336000908152601d602090815260408083206001600160a01b038a16845282528083208884528252808320868452909152902054600101612952565b81545b600183015460405163700f1a7760e01b815273__SafeMathUintLib_______________________9263700f1a779261298c92600401615a09565b60206040518083038186803b1580156129a457600080fd5b505af41580156129b8573d6000803e3d6000fd5b505050506040513d601f19601f820116820180604052506129dc9190810190614da5565b905060006001601e5483010373__SafeMathUintLib_______________________63700f1a77909185600101546040518363ffffffff1660e01b8152600401612a26929190615a09565b60206040518083038186803b158015612a3e57600080fd5b505af4158015612a52573d6000803e3d6000fd5b505050506040513d601f19601f82011682018060405250612a769190810190614da5565b90508260010154811415612a9057612a9033888887613df6565b336000908152601d602090815260408083206001600160a01b038b168452825280832089845282528083208784529091529020819055612ad68a8a8a8a8a87878c612ae3565b5050505b50505050505050565b612aec33612db6565b15612b095760405162461bcd60e51b8152600401610cf590615ad6565b6000612b1833878787876139ae565b9050612b29898989848a8a886135eb565b7ff0140aac68586fdb33446f8a71aa5687615f62c1eeed72ad0998dd19123d84d2338883898989898960405161249a9897969594939291906157c2565b612b6e6131e4565b612b7757600080fd5b806001600160a01b038116612b8b57600080fd5b60045482906001600160a01b039081169082168114612bf757600480546001600160a01b038681166001600160a01b03198316179092556040519116907fee9ef6d53e152e48b1ebc1c23943fb2b96e847465ed779a0e2121a388ea83d2f9061261290839088906159e0565b50505050565b612c056131e4565b612c0e57600080fd5b806001600160a01b038116612c2257600080fd5b6001600160a01b0382166000908152601a602052604090205415611274576019546001600160a01b0383166000908152601a60205260409020541015612d435760198054612c7790600163ffffffff61339716565b81548110612c8157fe5b60009182526020808320909101546001600160a01b038581168452601a909252604090922054911690601990612cbe90600163ffffffff61339716565b81548110612cc857fe5b600091825260208083209190910180546001600160a01b0319166001600160a01b039485161790559184168152601a9182905260408120546019805491939291612d13906001613397565b81548110612d1d57fe5b60009182526020808320909101546001600160a01b031683528201929092526040019020555b6019805490612d56906000198301614698565b506001600160a01b0382166000908152601a602052604080822091909155517f0d8be6a18e0ad39c992d101c73d1113eeedbcbf4fa39bdba05b84db5213e76829061126b90849061569e565b60005461010090046001600160a01b031681565b6001600160a01b03166000908152601a6020526040902054151590565b601f60209081526000938452604080852082529284528284209052825290205481565b612dff33612db6565b15612e1c5760405162461bcd60e51b8152600401610cf590615b16565b6000612e2b33868686866134d2565b9050806000121561261b573360009081526020805260409020612e569082878763ffffffff612fbf16565b7fc7b8188bfd955fd62781820d9b39b616d9e20a8f2747deb30510202108e3575c33828787878760405161261296959493929190615773565b6000610fce6010848463ffffffff61310616565b601e5481565b601d60209081526000948552604080862082529385528385208152918452828420909152825290205481565b6001600160a01b03919091166000908152601860209081526040808320938352929052205490565b60186020528260005260406000206020528160005260406000208181548110612f2257fe5b6000918252602090912060049091020180546001820154600290920154909450909250905083565b612f526131e4565b612f5b57600080fd5b806001600160a01b038116612f6f57600080fd5b6001600160a01b038116301415612f8557600080fd5b612f90826000613483565b7fb619d545cb511bd5f02907a1eac4f4cb8dace7b1846852fb0bf5e553937481c18260405161126b919061569e565b6001600160a01b038216600090815260208581526040808320848452909152902054612ff1908463ffffffff6132a516565b6001600160a01b0383166000818152602087815260408083208684528083528184208690559383526001808a018352818420878552835281842082518084019093529483529481524381830190815284548087018655948452919092209151600290930290910191825551910155612bf7848383613ea9565b6001600160a01b0382166000908152600184016020908152604080832084845290915290205461191a576040805180820182526001600160a01b039384168082526020808301858152875460018082018a5560008a81528481209651600290930290960180546001600160a01b031916929099169190911788559051968101969096558654918352949095018452818120928152919092522055565b6001600160a01b03919091166000908152602092835260408082209282529190925290205490565b6001600160a01b038216600090815260208581526040808320848452909152902054612ff1908463ffffffff613f4516565b60048054604051630c8a483b60e41b81526000926001600160a01b039092169163c8a483b0916131949187918791016158bd565b60206040518083038186803b1580156131ac57600080fd5b505afa1580156131c0573d6000803e3d6000fd5b505050506040513d601f19601f82011682018060405250610fce9190810190614d87565b60005461010090046001600160a01b0316331490565b60008160405160200161320d9190615692565b604051602081830303815290604052805190602001209050919050565b60006132368383613f79565b61324257506000611007565b600061325683600001548460010154613fd8565b905080613267576000915050611007565b600061327c85856000015486600101546140d3565b9050611654826132998387600201546141d190919063ffffffff16565b9063ffffffff61421c16565b60008282018183128015906132ba5750838112155b806132cf57506000831280156132cf57508381125b610fce57600080fd5b600082820183811015610fce57fe5b6001600160a01b0382166000818152602086815260408083208584528083528184208890559383526001808901835281842086855283528184208251808401909352948352878252438284019081528554808301875595855292909320905160029094020192835551910155612bf7848383613ea9565b6001600160a01b038216600090815260018401602090815260408083208484529091529020548015612bf757612bf78460018303614248565b6000828211156133a357fe5b50900390565b5490565b60006133bb858585856143e3565b6133c757506000610c3b565b60006133d38484613fd8565b9050806133e4576000915050610c3b565b60006133f18786866140d3565b90506000613416600161340a878963ffffffff61339716565b9063ffffffff6132d816565b9050600061343a600161340a8a600001548b6001015461339790919063ffffffff16565b905061347661344f858363ffffffff6141d116565b6132998461346a878d600201546141d190919063ffffffff16565b9063ffffffff6141d116565b9998505050505050505050565b6001600160a01b03821660009081526002602052604090205460ff16611274576001600160a01b0382166000908152600260205260409020805460ff1916600190811782554283019101555050565b6001600160a01b03841660009081526018602090815260408083208684529091528120546135125760405162461bcd60e51b8152600401610cf590615b26565b818311156135325760405162461bcd60e51b8152600401610cf590615ae6565b6000835b83811115801561356857506001600160a01b038716600090815260186020908152604080832089845290915290205481105b15611650576001600160a01b0387166000908152601860209081526040808320898452909152812080548390811061359c57fe5b906000526020600020906004020190506135c66135b98a8361322a565b849063ffffffff6132a516565b92506135d2898261458c565b506135e481600163ffffffff6132d816565b9050613536565b6001600160a01b038316158015613600575081155b1561366c5760405163a7654a1f60e01b81526001600160a01b0388169063a7654a1f908690613635908a908a906004016158bd565b6000604051808303818588803b15801561364e57600080fd5b505af1158015613662573d6000803e3d6000fd5b5050505050612ada565b60006136788483613160565b90506000816001600160a01b0316826001600160a01b0316631711a8946040518163ffffffff1660e01b815260040160206040518083038186803b1580156136bf57600080fd5b505afa1580156136d3573d6000803e3d6000fd5b505050506040513d601f19601f820116820180604052506136f79190810190614c0f565b8a88888860405160240161370e9493929190615888565b60408051601f198184030181529181526020820180516001600160e01b03166001600160e01b031990941693909317909252905161374c9190615692565b600060405180830381855af49150503d8060008114613787576040519150601f19603f3d011682016040523d82523d6000602084013e61378c565b606091505b50509050806137ad5760405162461bcd60e51b8152600401610cf590615a86565b604051635f28965160e01b81526001600160a01b038a1690635f289651906137e3908b908b908b908b908b908b906004016158dd565b600060405180830381600087803b1580156137fd57600080fd5b505af1158015613811573d6000803e3d6000fd5b50505050505050505050505050565b82546060906138415760405162461bcd60e51b8152600401610cf590615a96565b818311156138615760405162461bcd60e51b8152600401610cf590615a76565b835460405163700f1a7760e01b815273__SafeMathUintLib_______________________9163700f1a77916138a191869160001990910190600401615a09565b60206040518083038186803b1580156138b957600080fd5b505af41580156138cd573d6000803e3d6000fd5b505050506040513d601f19601f820116820180604052506138f19190810190614da5565b9150606083830360010160405190808252806020026020018201604052801561393457816020015b613921614681565b8152602001906001900390816139195790505b509050835b8381116139a55785600001818154811061394f57fe5b60009182526020918290206040805180820190915260029092020180546001600160a01b0316825260010154918101919091528251839087840390811061399257fe5b6020908102919091010152600101613939565b50949350505050565b6001600160a01b03841660009081526018602090815260408083208684529091528120546139ee5760405162461bcd60e51b8152600401610cf590615ac6565b81831115613a0e5760405162461bcd60e51b8152600401610cf590615a56565b6000613a1b8686866119f0565b90506000613a2a8787866119f0565b90506000808083851015613bb1576001600160a01b038a1660009081526018602090815260408083208c84529091528120805487908110613a6757fe5b60009182526020909120600491820201805460405163a682d5ad60e01b815291935073__SafeMathUintLib_______________________9263a682d5ad92613ab3928e92909101615a09565b60206040518083038186803b158015613acb57600080fd5b505af4158015613adf573d6000803e3d6000fd5b505050506040513d601f19601f82011682018060405250613b039190810190614da5565b600182015460405163700f1a7760e01b815291945073__SafeMathUintLib_______________________9163700f1a7791613b43918c9190600401615a09565b60206040518083038186803b158015613b5b57600080fd5b505af4158015613b6f573d6000803e3d6000fd5b505050506040513d601f19601f82011682018060405250613b939190810190614da5565b9150613ba18c8285856133ad565b9350613baf8c8285856145e1565b505b6000613bc486600163ffffffff6132d816565b90505b84811015613c4d576001600160a01b038b1660009081526018602090815260408083208d84529091528120805483908110613bfe57fe5b90600052602060002090600402019050613c28613c1b8e8361322a565b869063ffffffff6132a516565b9450613c348d8261458c565b50613c4681600163ffffffff6132d816565b9050613bc7565b506001600160a01b038a1660009081526018602090815260408083208c84529091528120805486908110613c7d57fe5b60009182526020909120600491820201805460405163a682d5ad60e01b815291935073__SafeMathUintLib_______________________9263a682d5ad92613cc9928e92909101615a09565b60206040518083038186803b158015613ce157600080fd5b505af4158015613cf5573d6000803e3d6000fd5b505050506040513d601f19601f82011682018060405250613d199190810190614da5565b600182015460405163700f1a7760e01b815291945073__SafeMathUintLib_______________________9163700f1a7791613d59918c9190600401615a09565b60206040518083038186803b158015613d7157600080fd5b505af4158015613d85573d6000803e3d6000fd5b505050506040513d601f19601f82011682018060405250613da99190810190614da5565b9150613dc7613dba8d8386866133ad565b859063ffffffff6132a516565b9350613dd58c8285856145e1565b50919a9950505050505050505050565b6001546001600160a01b0316331490565b6001600160a01b038085166000908152601c60209081526040808320938716835292815282822085835281528282208483529052205460ff16612bf7576001600160a01b039384166000818152601b6020908152604080832096909716808352958152868220858352815286822080546001808201835591845282842001859055928252601c8152868220958252948552858120938152928452848320918352925291909120805460ff19169091179055565b6001600160a01b038216600090815260208481526040808320848452909152902054158015613ee75750613ee760028401838363ffffffff61463816565b15613f0557613f0060028401838363ffffffff61335e16565b61191a565b613f1960028401838363ffffffff61463816565b61191a57613f3160028401838363ffffffff61306a16565b61191a60048401838363ffffffff61306a16565b6000808212158015613f5957508282840313155b80613f705750600082128015613f70575082828403135b6133a357600080fd5b600081600201546000128015613faa57506001600160a01b038316600090815260038301602052604090205460ff16155b8015610fce57506001600160a01b038316600090815260038301602052604090206001015415905092915050565b60075460055460405163dac70dcb60e01b815260009283926001600160a01b039182169263dac70dcb9261401692169085908990899060040161599d565b60206040518083038186803b15801561402e57600080fd5b505afa158015614042573d6000803e3d6000fd5b505050506040513d601f19601f820116820180604052506140669190810190614da5565b905060005b6019548110156140cb576140b16140a46019838154811061408857fe5b6000918252602090912001546001600160a01b031687876140d3565b839063ffffffff613f4516565b91506140c481600163ffffffff6132d816565b905061406b565b509392505050565b60065460055460408051637e062a3560e11b815290516000936001600160a01b039081169363dac70dcb9391169163fc0c546a91600480820192602092909190829003018186803b15801561412757600080fd5b505afa15801561413b573d6000803e3d6000fd5b505050506040513d601f19601f8201168201806040525061415f9190810190614d87565b8686866040518563ffffffff1660e01b815260040161418194939291906159c5565b60206040518083038186803b15801561419957600080fd5b505afa1580156141ad573d6000803e3d6000fd5b505050506040513d601f19601f82011682018060405250610fcb9190810190614da5565b60008083121580156141e4575060008212155b6141ed57600080fd5b82820283158061420557508284828161420257fe5b05145b61420e57600080fd5b6000811215610fce57600080fd5b600080831215801561422e5750600082135b61423757600080fd5b81838161424057fe5b059392505050565b815481106142685760405162461bcd60e51b8152600401610cf590615b06565b600082600001828154811061427957fe5b6000918252602082206002909102015484546001600160a01b0390911692508490849081106142a457fe5b60009182526020909120600160029092020101548454909150600019018310156143a4578354849060001981019081106142da57fe5b90600052602060002090600202018460000184815481106142f757fe5b600091825260208220835460029092020180546001600160a01b0319166001600160a01b03909216919091178155600192830154908301558554858301928701919087908790811061434557fe5b600091825260208083206002909202909101546001600160a01b031683528201929092526040018120865490919087908790811061437f57fe5b9060005260206000209060020201600101548152602001908152602001600020819055505b83546143b48560001983016146bc565b506001600160a01b03909116600090815260019093016020908152604080852092855291905282209190915550565b600083600201546000148061441257506001600160a01b038516600090815260038501602052604090205460ff165b1561441f57506000610c3b565b60005b6001600160a01b0386166000908152600386016020526040902060010154811015614580576001600160a01b0386166000908152600386016020526040902060010180548591908390811061447357fe5b906000526020600020906002020160000154111580156144cd57506001600160a01b038616600090815260038601602052604090206001018054829081106144b757fe5b9060005260206000209060020201600101548411155b8061455957506001600160a01b038616600090815260038601602052604090206001018054849190839081106144ff57fe5b9060005260206000209060020201600001541115801561455957506001600160a01b0386166000908152600386016020526040902060010180548290811061454357fe5b9060005260206000209060020201600101548311155b15614568576000915050610c3b565b61457981600163ffffffff6132d816565b9050614422565b50600195945050505050565b6001600160a01b03821660009081526003820160205260409020805460ff191660019081178255015415611274576001600160a01b0382166000908152600382016020526040812061191a90600101826146e8565b6001600160a01b039093166000908152600390920160209081526040808420815180830190925292815280820194855260019283018054808501825590855291909320925160029091029092019182559151910155565b6001600160a01b0382166000908152600184016020908152604080832084845290915290205415159392505050565b604051806040016040528060008152602001600081525090565b604080518082019091526000808252602082015290565b81548183558181111561191a5760008381526020902061191a918101908301614714565b81548183558181111561191a5760020281600202836000526020600020918201910161191a9190614732565b81548183558181111561191a5760020281600202836000526020600020918201910161191a919061475d565b61166f91905b8082111561472e576000815560010161471a565b5090565b61166f91905b8082111561472e5780546001600160a01b031916815560006001820155600201614738565b61166f91905b8082111561472e5760008082556001820155600201614763565b803561100781615c8f565b600082601f83011261479957600080fd5b81356147ac6147a782615ba4565b615b7e565b915081818352602084019350602081019050838560408402820111156147d157600080fd5b60005b838110156147ff57816147e7888261489a565b845250602090920191604091909101906001016147d4565b5050505092915050565b805161100781615ca6565b805161100781615caf565b803561100781615cb8565b805161100781615cb8565b803561100781615cc1565b805161100781615cc1565b600082601f83011261485c57600080fd5b813561486a6147a782615bc4565b9150808252602083016020830185838301111561488657600080fd5b614891838284615c4d565b50505092915050565b6000604082840312156148ac57600080fd5b6148b66040615b7e565b905060006148c4848461477d565b82525060206148d584848301614835565b60208301525092915050565b6000602082840312156148f357600080fd5b6000610c3b848461477d565b60008060006060848603121561491457600080fd5b6000614920868661477d565b93505060206149318682870161477d565b925050604061494286828701614835565b9150509250925092565b6000806000806080858703121561496257600080fd5b600061496e878761477d565b945050602061497f8782880161477d565b935050604061499087828801614835565b92505060606149a187828801614835565b91505092959194509250565b600080600080600060a086880312156149c557600080fd5b60006149d1888861477d565b95505060206149e28882890161477d565b94505060406149f388828901614835565b9350506060614a0488828901614835565b9250506080614a1588828901614835565b9150509295509295909350565b60008060408385031215614a3557600080fd5b6000614a41858561477d565b92505060208301356001600160401b03811115614a5d57600080fd5b614a698582860161484b565b9150509250929050565b60008060008060008060c08789031215614a8c57600080fd5b6000614a98898961477d565b96505060208701356001600160401b03811115614ab457600080fd5b614ac089828a0161484b565b9550506040614ad189828a01614835565b9450506060614ae289828a0161477d565b9350506080614af389828a01614835565b92505060a08701356001600160401b03811115614b0f57600080fd5b614b1b89828a0161484b565b9150509295509295509295565b60008060408385031215614b3b57600080fd5b6000614b47858561477d565b9250506020614a6985828601614835565b600080600060608486031215614b6d57600080fd5b6000614b79868661477d565b935050602061493186828701614835565b60008060008060808587031215614ba057600080fd5b6000614bac878761477d565b945050602061497f87828801614835565b600060208284031215614bcf57600080fd5b81356001600160401b03811115614be557600080fd5b610c3b84828501614788565b600060208284031215614c0357600080fd5b6000610c3b8484614809565b600060208284031215614c2157600080fd5b6000610c3b8484614814565b600060208284031215614c3f57600080fd5b6000610c3b848461481f565b60008060008060008060c08789031215614c6457600080fd5b6000614c70898961481f565b9650506020614c8189828a0161477d565b95505060408701356001600160401b03811115614c9d57600080fd5b614ad189828a0161484b565b600080600080600080600080610100898b031215614cc657600080fd5b6000614cd28b8b61481f565b9850506020614ce38b828c0161477d565b97505060408901356001600160401b03811115614cff57600080fd5b614d0b8b828c0161484b565b9650506060614d1c8b828c0161477d565b9550506080614d2d8b828c01614835565b94505060a0614d3e8b828c01614835565b93505060c0614d4f8b828c01614835565b92505060e08901356001600160401b03811115614d6b57600080fd5b614d778b828c0161484b565b9150509295985092959890939650565b600060208284031215614d9957600080fd5b6000610c3b848461482a565b600060208284031215614db757600080fd5b6000610c3b8484614840565b60008060008060808587031215614dd957600080fd5b6000614de58787614835565b9450506020614df68782880161477d565b9350506040614e0787828801614835565b92505060608501356001600160401b03811115614e2357600080fd5b6149a18782880161484b565b600080600080600060a08688031215614e4757600080fd5b85356001600160401b03811115614e5d57600080fd5b614e698882890161484b565b9550506020614e7a88828901614835565b9450506040614e8b8882890161477d565b9350506060614e9c88828901614835565b92505060808601356001600160401b03811115614eb857600080fd5b614a158882890161484b565b600060208284031215614ed657600080fd5b6000610c3b8484614835565b60008060408385031215614ef557600080fd5b6000614b478585614835565b6000614f0d838361565d565b505060400190565b6000614f0d8383615681565b614f2a81615c37565b82525050565b614f2a81615c03565b6000614f4482615bf1565b614f4e8185615bf5565b9350614f5983615beb565b8060005b83811015614f87578151614f718882614f01565b9750614f7c83615beb565b925050600101614f5d565b509495945050505050565b6000614f9d82615bf1565b614fa78185615bf5565b9350614fb283615beb565b8060005b83811015614f87578151614fca8882614f15565b9750614fd583615beb565b925050600101614fb6565b614f2a81615c0e565b6000614ff482615bf1565b614ffe8185615bfe565b935061500e818560208601615c59565b9290920192915050565b614f2a81615c20565b614f2a8161166f565b614f2a81615c42565b600061503e82615bf1565b6150488185615bf5565b9350615058818560208601615c59565b61506181615c85565b9093019392505050565b6000615078603e83615bf5565b600080516020615ceb83398151915281527f6f6b656e486f6c646572526576656e756546756e642e736f6c3a3630355d0000602082015260400192915050565b60006150c5603e83615bf5565b600080516020615ceb83398151915281527f6f6b656e486f6c646572526576656e756546756e642e736f6c3a3734345d0000602082015260400192915050565b6000615112603683615bf5565b7f426c6f636b206e756d626572206d69736d61746368205b546f6b656e486f6c648152756572526576656e756546756e642e736f6c3a3839355d60501b602082015260400192915050565b600061516a603d83615bf5565b600080516020615ccb83398151915281527f6b656e486f6c646572526576656e756546756e642e736f6c3a3832335d000000602082015260400192915050565b60006151b7603183615bf5565b7f426f756e647320706172616d6574657273206d69736d61746368205b43757272815270656e636965734c69622e736f6c3a39355d60781b602082015260400192915050565b600061520a603e83615bf5565b7f417070726f76616c20627920636f6e74726f6c6c6572206661696c6564205b5481527f6f6b656e486f6c646572526576656e756546756e642e736f6c3a3936395d0000602082015260400192915050565b6000615269602a83615bf5565b7f4e6f2063757272656e6369657320666f756e64205b43757272656e636965734c81526969622e736f6c3a39345d60b01b602082015260400192915050565b60006152b5603e83615bf5565b7f446973706174636820627920636f6e74726f6c6c6572206661696c6564205b5481527f6f6b656e486f6c646572526576656e756546756e642e736f6c3a3834325d0000602082015260400192915050565b6000615314604183615bf5565b7f426c6f636b206e756d626572206f7264696e616c697479206d69736d6174636881527f205b546f6b656e486f6c646572526576656e756546756e642e736f6c3a3534306020820152605d60f81b604082015260600192915050565b600061537d603c83615bf5565b600080516020615d0b83398151915281527b656e486f6c646572526576656e756546756e642e736f6c3a3839325d60201b602082015260400192915050565b60006153c9603e83615bf5565b600080516020615ceb83398151915281527f6f6b656e486f6c646572526576656e756546756e642e736f6c3a3633345d0000602082015260400192915050565b6000615416603783615bf5565b7f4163637275616c20696e646578206d69736d61746368205b546f6b656e486f6c815276646572526576656e756546756e642e736f6c3a3836315d60481b602082015260400192915050565b600061546f603d83615bf5565b600080516020615ccb83398151915281527f6b656e486f6c646572526576656e756546756e642e736f6c3a3239335d000000602082015260400192915050565b60006154bc602a83615bf5565b7f496e646578206f7574206f6620626f756e6473205b43757272656e636965734c81526969622e736f6c3a35315d60b01b602082015260400192915050565b6000615508603e83615bf5565b600080516020615ceb83398151915281527f6f6b656e486f6c646572526576656e756546756e642e736f6c3a3731395d0000602082015260400192915050565b6000615555603c83615bf5565b600080516020615d0b83398151915281527b656e486f6c646572526576656e756546756e642e736f6c3a3835385d60201b602082015260400192915050565b60006155a1603f83615bf5565b7f526563657074696f6e20627920636f6e74726f6c6c6572206661696c6564205b81527f546f6b656e486f6c646572526576656e756546756e642e736f6c3a3330325d00602082015260400192915050565b6000615600604283615bf5565b7f4163637275616c20696e646578206f7264696e616c697479206d69736d61746381527f68205b546f6b656e486f6c646572526576656e756546756e642e736f6c3a3439602082015261365d60f01b604082015260600192915050565b8051604083019061566e8482615021565b506020820151612bf76020850182615021565b8051604083019061566e8482614f30565b6000610fce8284614fe9565b602081016110078284614f30565b602081016110078284614f21565b60a081016156c88288614f30565b6156d56020830187614f30565b6156e26040830186615021565b6156ef6060830185614f30565b6156fc6080830184615021565b9695505050505050565b60a081016157148288614f30565b6156d56020830187615018565b60a0810161572f8288614f21565b61573c6020830187615021565b6157496040830186614f30565b6157566060830185615021565b81810360808301526157688184615033565b979650505050505050565b60c081016157818289614f21565b61578e6020830188615021565b61579b6040830187614f30565b6157a86060830186615021565b6157b56080830185615021565b61576860a0830184615021565b61010081016157d1828b614f21565b81810360208301526157e3818a615033565b90506157f26040830189615021565b6157ff6060830188614f30565b61580c6080830187615021565b61581960a0830186615021565b61582660c0830185615021565b81810360e08301526122ec8184615033565b604081016158468285614f30565b610fce6020830184614f30565b608081016158618287614f30565b61586e6020830186615021565b61587b6040830185614f21565b611654606083018461502a565b608081016158968287614f30565b6158a36020830186615021565b6158b06040830185614f30565b6116546060830184615021565b604081016158cb8285614f30565b8181036020830152610fcb8184615033565b60c081016158eb8289614f30565b81810360208301526158fd8188615033565b905061590c6040830187615021565b6159196060830186614f30565b6159266080830185615021565b81810360a08301526159388184615033565b98975050505050505050565b604081016159528285614f30565b610fce6020830184615021565b60208082528101610fce8184614f39565b60208082528101610fce8184614f92565b602081016110078284614fe0565b602081016110078284615018565b608081016159ab8287615018565b6159b86020830186614f21565b6158b06040830185615021565b608081016159d38287615018565b6159b86020830186614f30565b604081016159ee8285615018565b610fce6020830184615018565b602081016110078284615021565b604081016159528285615021565b608081016158968287615021565b60208082528101610fce8184615033565b602080825281016110078161506b565b60208082528101611007816150b8565b6020808252810161100781615105565b602080825281016110078161515d565b60208082528101611007816151aa565b60208082528101611007816151fd565b602080825281016110078161525c565b60208082528101611007816152a8565b6020808252810161100781615307565b6020808252810161100781615370565b60208082528101611007816153bc565b6020808252810161100781615409565b6020808252810161100781615462565b60208082528101611007816154af565b60208082528101611007816154fb565b6020808252810161100781615548565b6020808252810161100781615594565b60208082528101611007816155f3565b60608101615b648286615021565b615b716020830185615021565b610c3b6040830184615021565b6040518181016001600160401b0381118282101715615b9c57600080fd5b604052919050565b60006001600160401b03821115615bba57600080fd5b5060209081020190565b60006001600160401b03821115615bda57600080fd5b506020601f91909101601f19160190565b60200190565b5190565b90815260200190565b919050565b600061100782615c2b565b151590565b6001600160e01b03191690565b600061100782615c03565b6001600160a01b031690565b600061100782615c20565b60006110078261166f565b82818337506000910152565b60005b83811015615c74578181015183820152602001615c5c565b83811115612bf75750506000910152565b601f01601f191690565b615c9881615c03565b8114615ca357600080fd5b50565b615c9881615c0e565b615c9881615c13565b615c9881615c20565b615c988161166f56fe416d6f756e74206e6f74207374726963746c7920706f736974697665205b546f4d6573736167652073656e646572206973206e6f6e2d636c61696d6572205b544e6f207465726d696e61746564206163637275616c20666f756e64205b546f6b6d20076dccc9a1dd1722d0739c60065c999d4137e9683cbe4d752527539d9f74a365627a7a7231582089a86031841d33946909353d05bc3f626301d391acad812a2b71032a85df419e6c6578706572696d656e74616cf564736f6c634300050d0040",
  "source": "/*\n * Hubii Nahmii\n *\n * Compliant with the Hubii Nahmii specification v0.12.\n *\n * Copyright (C) 2017-2019 Hubii AS\n */\n\npragma solidity >=0.4.25 <0.6.0;\npragma experimental ABIEncoderV2;\n\nimport {Ownable} from \"./Ownable.sol\";\nimport {AccrualBeneficiary} from \"./AccrualBeneficiary.sol\";\nimport {Servable} from \"./Servable.sol\";\nimport {TransferControllerManageable} from \"./TransferControllerManageable.sol\";\nimport {SafeMathIntLib} from \"./SafeMathIntLib.sol\";\nimport {SafeMathUintLib} from \"./SafeMathUintLib.sol\";\nimport {FungibleBalanceLib} from \"./FungibleBalanceLib.sol\";\nimport {MonetaryTypesLib} from \"./MonetaryTypesLib.sol\";\nimport {CurrenciesLib} from \"./CurrenciesLib.sol\";\nimport {RevenueToken} from \"./RevenueToken.sol\";\nimport {RevenueTokenManager} from \"./RevenueTokenManager.sol\";\nimport {TransferController} from \"./TransferController.sol\";\nimport {Beneficiary} from \"./Beneficiary.sol\";\nimport {BalanceAucCalculator} from \"./BalanceAucCalculator.sol\";\nimport {BalanceRecordable} from \"./BalanceRecordable.sol\";\n\n/**\n * @title TokenHolderRevenueFund\n * @notice Fund that manages the revenue earned by revenue token holders.\n */\ncontract TokenHolderRevenueFund is Ownable, AccrualBeneficiary, Servable, TransferControllerManageable {\n    using SafeMathIntLib for int256;\n    using SafeMathUintLib for uint256;\n    using FungibleBalanceLib for FungibleBalanceLib.Balance;\n    using CurrenciesLib for CurrenciesLib.Currencies;\n\n    //\n    // Constants\n    // -----------------------------------------------------------------------------------------------------------------\n    string constant public CLOSE_ACCRUAL_PERIOD_ACTION = \"close_accrual_period\";\n\n    //\n    // Types\n    // -----------------------------------------------------------------------------------------------------------------\n    struct Accrual {\n        uint256 startBlock;\n        uint256 endBlock;\n        int256 amount;\n\n        mapping(address => ClaimRecord) claimRecordsByWallet;\n    }\n\n    struct ClaimRecord {\n        bool completed;\n        BlockSpan[] completedSpans;\n    }\n\n    struct BlockSpan {\n        uint256 startBlock;\n        uint256 endBlock;\n    }\n\n    //\n    // Variables\n    // -----------------------------------------------------------------------------------------------------------------\n    RevenueTokenManager public revenueTokenManager;\n    BalanceAucCalculator public balanceBlocksCalculator;\n    BalanceAucCalculator public releasedAmountBlocksCalculator;\n\n    FungibleBalanceLib.Balance private periodAccrual;\n    CurrenciesLib.Currencies private periodCurrencies;\n\n    FungibleBalanceLib.Balance private aggregateAccrual;\n    CurrenciesLib.Currencies private aggregateCurrencies;\n\n    mapping(address => mapping(uint256 => Accrual[])) public closedAccrualsByCurrency;\n\n    address[] public nonClaimers;\n    mapping(address => uint256) public nonClaimerIndicesByWallet;\n\n    mapping(address => mapping(address => mapping(uint256 => uint256[]))) public claimedAccrualIndicesByWalletCurrency;\n    mapping(address => mapping(address => mapping(uint256 => mapping(uint256 => bool)))) public accrualClaimedByWalletCurrencyAccrual;\n\n    mapping(address => mapping(address => mapping(uint256 => mapping(uint256 => uint256)))) public maxClaimedBlockNumberByWalletCurrencyAccrual;\n    uint256 public claimBlockNumberBatchSize;\n\n    mapping(address => mapping(uint256 => mapping(uint256 => int256))) public aggregateAccrualAmountByCurrencyBlockNumber;\n\n    mapping(address => FungibleBalanceLib.Balance) private stagedByWallet;\n\n    //\n    // Events\n    // -----------------------------------------------------------------------------------------------------------------\n    event SetRevenueTokenManagerEvent(RevenueTokenManager manager);\n    event SetBalanceBlocksCalculatorEvent(BalanceAucCalculator calculator);\n    event SetReleasedAmountBlocksCalculatorEvent(BalanceAucCalculator calculator);\n    event SetClaimBlockNumberBatchSizeEvent(uint256 batchSize);\n    event RegisterNonClaimerEvent(address wallet);\n    event DeregisterNonClaimerEvent(address wallet);\n    event ReceiveEvent(address wallet, int256 amount, address currencyCt,\n        uint256 currencyId);\n    event WithdrawEvent(address to, int256 amount, address currencyCt, uint256 currencyId);\n    event CloseAccrualPeriodEvent(int256 periodAmount, int256 aggregateAmount, address currencyCt,\n        uint256 currencyId);\n    event ClaimAndTransferToBeneficiaryByAccrualsEvent(address wallet, string balanceType, int256 amount,\n        address currencyCt, uint256 currencyId, uint256 startAccrualIndex, uint256 endAccrualIndex,\n        string standard);\n    event ClaimAndTransferToBeneficiaryByBlockNumbersEvent(address wallet, string balanceType, int256 amount,\n        address currencyCt, uint256 currencyId, uint256 startBlock, uint256 endBlock,\n        string standard);\n    event ClaimAndStageByAccrualsEvent(address from, int256 amount, address currencyCt,\n        uint256 currencyId, uint256 startAccrualIndex, uint256 endAccrualIndex);\n    event ClaimAndStageByBlockNumbersEvent(address from, int256 amount, address currencyCt,\n        uint256 currencyId, uint256 startBlock, uint256 endBlock);\n    event WithdrawEvent(address from, int256 amount, address currencyCt, uint256 currencyId,\n        string standard);\n\n    //\n    // Constructor\n    // -----------------------------------------------------------------------------------------------------------------\n    constructor(address deployer) Ownable(deployer) public {\n    }\n\n    //\n    // Functions\n    // -----------------------------------------------------------------------------------------------------------------\n    /// @notice Set the revenue token manager contract\n    /// @param manager The (address of) RevenueTokenManager contract instance\n    function setRevenueTokenManager(RevenueTokenManager manager)\n    public\n    onlyDeployer\n    notNullAddress(address(manager))\n    {\n        // Set new revenue token manager\n        revenueTokenManager = manager;\n\n        // Emit event\n        emit SetRevenueTokenManagerEvent(manager);\n    }\n\n    /// @notice Set the balance AUC calculator for calculation of revenue token balance blocks\n    /// @param calculator The balance AUC calculator\n    function setBalanceBlocksCalculator(BalanceAucCalculator calculator)\n    public\n    onlyDeployer\n    notNullOrThisAddress(address(calculator))\n    {\n        // Set the calculator\n        balanceBlocksCalculator = calculator;\n\n        // Emit event\n        emit SetBalanceBlocksCalculatorEvent(balanceBlocksCalculator);\n    }\n\n    /// @notice Set the balance AUC calculator for calculation of revenue token balance blocks\n    /// @param calculator The balance AUC calculator\n    function setReleasedAmountBlocksCalculator(BalanceAucCalculator calculator)\n    public\n    onlyDeployer\n    notNullOrThisAddress(address(calculator))\n    {\n        // Set the calculator\n        releasedAmountBlocksCalculator = calculator;\n\n        // Emit event\n        emit SetReleasedAmountBlocksCalculatorEvent(releasedAmountBlocksCalculator);\n    }\n\n    /// @notice Set the block number batch size for claims with function\n    /// claimAndTransferToBeneficiary(Beneficiary beneficiary, address destWallet, string memory balanceType,\n    ///     address currencyCt, uint256 currencyId, string memory standard)\n    /// @param batchSize The batch size\n    function setClaimBlockNumberBatchSize(uint256 batchSize)\n    public\n    onlyDeployer\n    {\n        // Update claim by block number batch size\n        claimBlockNumberBatchSize = batchSize;\n\n        // Emit event\n        emit SetClaimBlockNumberBatchSizeEvent(batchSize);\n    }\n\n    /// @notice Get the number of registered non-claimers\n    /// @return The number of registered non-claimers\n    function nonClaimersCount()\n    public\n    view\n    returns (uint256)\n    {\n        return nonClaimers.length;\n    }\n\n    /// @notice Gauge whether the given wallet is a registered non-claimer, i.e. prevented from claiming\n    /// @param wallet The address of the concerned wallet\n    /// @return true if wallet is non-claimer\n    function isNonClaimer(address wallet)\n    public\n    view\n    returns (bool)\n    {\n        return 0 < nonClaimerIndicesByWallet[wallet];\n    }\n\n    /// @notice Register the given wallet as a non-claimer that is prevented from claiming\n    /// @param wallet The address of the concerned wallet\n    function registerNonClaimer(address wallet)\n    public\n    onlyDeployer\n    notNullAddress(wallet)\n    {\n        // If non-claimer has not been added already...\n        if (0 == nonClaimerIndicesByWallet[wallet]) {\n            // Add non-claimer\n            nonClaimers.push(wallet);\n            nonClaimerIndicesByWallet[wallet] = nonClaimers.length;\n\n            // Emit event\n            emit RegisterNonClaimerEvent(wallet);\n        }\n    }\n\n    /// @notice Deregister the given wallet as a non-claimer that is prevented from claiming\n    /// @param wallet The address of the concerned wallet\n    function deregisterNonClaimer(address wallet)\n    public\n    onlyDeployer\n    notNullAddress(wallet)\n    {\n        // If non-claimer has been added previously...\n        if (0 < nonClaimerIndicesByWallet[wallet]) {\n            // Remove non-claimer\n            if (nonClaimerIndicesByWallet[wallet] < nonClaimers.length) {\n                nonClaimers[nonClaimerIndicesByWallet[wallet].sub(1)] = nonClaimers[nonClaimers.length.sub(1)];\n                nonClaimerIndicesByWallet[nonClaimers[nonClaimers.length.sub(1)]] = nonClaimerIndicesByWallet[wallet];\n            }\n            nonClaimers.length--;\n            nonClaimerIndicesByWallet[wallet] = 0;\n\n            // Emit event\n            emit DeregisterNonClaimerEvent(wallet);\n        }\n    }\n\n    /// @notice Fallback function that deposits ethers\n    function() external payable {\n        receiveEthersTo(msg.sender, \"\");\n    }\n\n    /// @notice Receive ethers to\n    /// @param wallet The concerned wallet address\n    function receiveEthersTo(address wallet, string memory)\n    public\n    payable\n    {\n        int256 amount = SafeMathIntLib.toNonZeroInt256(msg.value);\n\n        // Add to balances\n        periodAccrual.add(amount, address(0), 0);\n        aggregateAccrual.add(amount, address(0), 0);\n\n        // Add currency to in-use lists\n        periodCurrencies.add(address(0), 0);\n        aggregateCurrencies.add(address(0), 0);\n\n        // Emit event\n        emit ReceiveEvent(wallet, amount, address(0), 0);\n    }\n\n    /// @notice Receive tokens\n    /// @param amount The concerned amount\n    /// @param currencyCt The address of the concerned currency contract (address(0) == ETH)\n    /// @param currencyId The ID of the concerned currency (0 for ETH and ERC20)\n    /// @param standard The standard of token (\"ERC20\", \"ERC721\")\n    function receiveTokens(string memory, int256 amount, address currencyCt, uint256 currencyId,\n        string memory standard)\n    public\n    {\n        receiveTokensTo(msg.sender, \"\", amount, currencyCt, currencyId, standard);\n    }\n\n    /// @notice Receive tokens to\n    /// @param wallet The address of the concerned wallet\n    /// @param amount The concerned amount\n    /// @param currencyCt The address of the concerned currency contract (address(0) == ETH)\n    /// @param currencyId The ID of the concerned currency (0 for ETH and ERC20)\n    /// @param standard The standard of token (\"ERC20\", \"ERC721\")\n    function receiveTokensTo(address wallet, string memory, int256 amount, address currencyCt,\n        uint256 currencyId, string memory standard)\n    public\n    {\n        require(amount.isNonZeroPositiveInt256(), \"Amount not strictly positive [TokenHolderRevenueFund.sol:293]\");\n\n        // Execute transfer\n        TransferController controller = transferController(currencyCt, standard);\n        (bool success,) = address(controller).delegatecall(\n            abi.encodeWithSelector(\n                controller.getReceiveSignature(), msg.sender, this, uint256(amount), currencyCt, currencyId\n            )\n        );\n        require(success, \"Reception by controller failed [TokenHolderRevenueFund.sol:302]\");\n\n        // Add to balances\n        periodAccrual.add(amount, currencyCt, currencyId);\n        aggregateAccrual.add(amount, currencyCt, currencyId);\n\n        // Add currency to in-use lists\n        periodCurrencies.add(currencyCt, currencyId);\n        aggregateCurrencies.add(currencyCt, currencyId);\n\n        // Emit event\n        emit ReceiveEvent(wallet, amount, currencyCt, currencyId);\n    }\n\n    /// @notice Get the period accrual balance of the given currency\n    /// @param currencyCt The address of the concerned currency contract (address(0) == ETH)\n    /// @param currencyId The ID of the concerned currency (0 for ETH and ERC20)\n    /// @return The current period's accrual balance\n    function periodAccrualBalance(address currencyCt, uint256 currencyId)\n    public\n    view\n    returns (int256)\n    {\n        return periodAccrual.get(currencyCt, currencyId);\n    }\n\n    /// @notice Get the aggregate accrual balance of the given currency, including contribution from the\n    /// current accrual period\n    /// @param currencyCt The address of the concerned currency contract (address(0) == ETH)\n    /// @param currencyId The ID of the concerned currency (0 for ETH and ERC20)\n    /// @return The aggregate accrual balance\n    function aggregateAccrualBalance(address currencyCt, uint256 currencyId)\n    public\n    view\n    returns (int256)\n    {\n        return aggregateAccrual.get(currencyCt, currencyId);\n    }\n\n    /// @notice Get the count of currencies recorded in the accrual period\n    /// @return The number of currencies in the current accrual period\n    function periodCurrenciesCount()\n    public\n    view\n    returns (uint256)\n    {\n        return periodCurrencies.count();\n    }\n\n    /// @notice Get the currencies with indices in the given range that have been recorded in the current accrual period\n    /// @param low The lower currency index\n    /// @param up The upper currency index\n    /// @return The currencies of the given index range in the current accrual period\n    function periodCurrenciesByIndices(uint256 low, uint256 up)\n    public\n    view\n    returns (MonetaryTypesLib.Currency[] memory)\n    {\n        return periodCurrencies.getByIndices(low, up);\n    }\n\n    /// @notice Get the count of currencies ever recorded\n    /// @return The number of currencies ever recorded\n    function aggregateCurrenciesCount()\n    public\n    view\n    returns (uint256)\n    {\n        return aggregateCurrencies.count();\n    }\n\n    /// @notice Get the currencies with indices in the given range that have ever been recorded\n    /// @param low The lower currency index\n    /// @param up The upper currency index\n    /// @return The currencies of the given index range ever recorded\n    function aggregateCurrenciesByIndices(uint256 low, uint256 up)\n    public\n    view\n    returns (MonetaryTypesLib.Currency[] memory)\n    {\n        return aggregateCurrencies.getByIndices(low, up);\n    }\n\n    /// @notice Get the staged balance of the given wallet and currency\n    /// @param wallet The address of the concerned wallet\n    /// @param currencyCt The address of the concerned currency contract (address(0) == ETH)\n    /// @param currencyId The ID of the concerned currency (0 for ETH and ERC20)\n    /// @return The staged balance\n    function stagedBalance(address wallet, address currencyCt, uint256 currencyId)\n    public\n    view\n    returns (int256)\n    {\n        return stagedByWallet[wallet].get(currencyCt, currencyId);\n    }\n\n    /// @notice Get the number of closed accruals for the given currency\n    /// @param currencyCt The address of the concerned currency contract (address(0) == ETH)\n    /// @param currencyId The ID of the concerned currency (0 for ETH and ERC20)\n    /// @return The number of closed accruals\n    function closedAccrualsCount(address currencyCt, uint256 currencyId)\n    public\n    view\n    returns (uint256)\n    {\n        return closedAccrualsByCurrency[currencyCt][currencyId].length;\n    }\n\n    /// @notice Close the current accrual period of the given currencies\n    /// @param currencies The concerned currencies\n    function closeAccrualPeriod(MonetaryTypesLib.Currency[] memory currencies)\n    public\n    onlyEnabledServiceAction(CLOSE_ACCRUAL_PERIOD_ACTION)\n    {\n        // Clear period accrual stats\n        for (uint256 i = 0; i < currencies.length; i = i.add(1)) {\n            MonetaryTypesLib.Currency memory currency = currencies[i];\n\n            // Get the amount of the accrual period\n            int256 periodAmount = periodAccrual.get(currency.ct, currency.id);\n\n            // Define start block of the completed accrual, as (if existent) previous period end block + 1, else 0\n            uint256 startBlock = (\n            0 == closedAccrualsByCurrency[currency.ct][currency.id].length ?\n            0 :\n            closedAccrualsByCurrency[currency.ct][currency.id][closedAccrualsByCurrency[currency.ct][currency.id].length - 1].endBlock + 1\n            );\n\n            // Add new accrual to closed accruals\n            closedAccrualsByCurrency[currency.ct][currency.id].push(Accrual(startBlock, block.number, periodAmount));\n\n            // Store the aggregate accrual balance of currency at this block number\n            aggregateAccrualAmountByCurrencyBlockNumber[currency.ct][currency.id][block.number] = aggregateAccrualBalance(\n                currency.ct, currency.id\n            );\n\n            if (periodAmount > 0) {\n                // Reset period accrual of currency\n                periodAccrual.set(0, currency.ct, currency.id);\n\n                // Remove currency from period in-use list\n                periodCurrencies.removeByCurrency(currency.ct, currency.id);\n            }\n\n            // Emit event\n            emit CloseAccrualPeriodEvent(\n                periodAmount,\n                aggregateAccrualAmountByCurrencyBlockNumber[currency.ct][currency.id][block.number],\n                currency.ct, currency.id\n            );\n        }\n    }\n\n    /// @notice Get the index of closed accrual for the given currency and block number\n    /// @param currencyCt The address of the concerned currency contract (address(0) == ETH)\n    /// @param currencyId The ID of the concerned currency (0 for ETH and ERC20)\n    /// @param blockNumber The concerned block number\n    /// @return The accrual index\n    function closedAccrualIndexByBlockNumber(address currencyCt, uint256 currencyId, uint256 blockNumber)\n    public\n    view\n    returns (uint256)\n    {\n        for (uint256 i = closedAccrualsByCurrency[currencyCt][currencyId].length; i > 0;) {\n            i = i.sub(1);\n            if (closedAccrualsByCurrency[currencyCt][currencyId][i].startBlock <= blockNumber)\n                return i;\n        }\n        return 0;\n    }\n\n    /// @notice Get the claimable amount for the given wallet-currency pair in the given\n    /// range of accrual indices\n    /// @param wallet The address of the concerned wallet\n    /// @param currencyCt The address of the concerned currency contract (address(0) == ETH)\n    /// @param currencyId The ID of the concerned currency (0 for ETH and ERC20)\n    /// @param startAccrualIndex The index of the first accrual in the range, clamped to the max accrual index\n    /// @param endAccrualIndex The index of the last accrual in the range, clamped to the max accrual index\n    /// @return The claimable amount\n    function claimableAmountByAccruals(address wallet, address currencyCt, uint256 currencyId,\n        uint256 startAccrualIndex, uint256 endAccrualIndex)\n    public\n    view\n    returns (int256)\n    {\n        // Return 0 if wallet is non-claimer\n        if (isNonClaimer(wallet))\n            return 0;\n\n        // Return 0 if no accrual has terminated\n        if (0 == closedAccrualsByCurrency[currencyCt][currencyId].length)\n            return 0;\n\n        // Impose ordinality constraint\n        require(startAccrualIndex <= endAccrualIndex, \"Accrual index ordinality mismatch [TokenHolderRevenueFund.sol:496]\");\n\n        // Declare claimable amount\n        int256 claimableAmount = 0;\n\n        // For each accrual index in range...\n        for (\n            uint256 i = startAccrualIndex;\n            i <= endAccrualIndex && i < closedAccrualsByCurrency[currencyCt][currencyId].length;\n            i = i.add(1)\n        ) {\n            // Add to claimable amount\n            claimableAmount = claimableAmount.add(\n                _claimableAmount(wallet, closedAccrualsByCurrency[currencyCt][currencyId][i])\n            );\n        }\n\n        // Return the claimable amount\n        return claimableAmount;\n    }\n\n    /// @notice Get the claimable amount for the given wallet-currency pair in the given\n    /// range of block numbers\n    /// @param wallet The address of the concerned wallet\n    /// @param currencyCt The address of the concerned currency contract (address(0) == ETH)\n    /// @param currencyId The ID of the concerned currency (0 for ETH and ERC20)\n    /// @param startBlock The first block number in the range\n    /// @param endBlock The last block number in the range\n    /// @return The claimable amount\n    function claimableAmountByBlockNumbers(address wallet, address currencyCt, uint256 currencyId,\n        uint256 startBlock, uint256 endBlock)\n    public\n    view\n    returns (int256)\n    {\n        // Return 0 if wallet is non-claimer\n        if (isNonClaimer(wallet))\n            return 0;\n\n        // Return 0 if no accrual has terminated\n        if (0 == closedAccrualsByCurrency[currencyCt][currencyId].length)\n            return 0;\n\n        // Impose ordinality constraint\n        require(startBlock <= endBlock, \"Block number ordinality mismatch [TokenHolderRevenueFund.sol:540]\");\n\n        // Obtain accrual indices corresponding to block number boundaries\n        uint256 startAccrualIndex = closedAccrualIndexByBlockNumber(currencyCt, currencyId, startBlock);\n        uint256 endAccrualIndex = closedAccrualIndexByBlockNumber(currencyCt, currencyId, endBlock);\n\n        // Obtain accrual\n        Accrual storage endAccrual = closedAccrualsByCurrency[currencyCt][currencyId][endAccrualIndex];\n\n        // Return 0 if end block is before the end accrual's start block\n        if (endBlock < endAccrual.startBlock)\n            return 0;\n\n        // Declare claimable amount\n        int256 claimableAmount = 0;\n\n        // If start accrual index is strictly smaller than end accrual index...\n        if (startAccrualIndex < endAccrualIndex) {\n            // Obtain accrual\n            Accrual storage startAccrual = closedAccrualsByCurrency[currencyCt][currencyId][startAccrualIndex];\n\n            // Add to claimable amount for first (potentially partial) accrual\n            claimableAmount = _claimableAmount(\n                wallet, startAccrual,\n                startBlock.clampMin(startAccrual.startBlock),\n                endBlock.clampMax(startAccrual.endBlock)\n            );\n        }\n\n        // For each accrual between first and last accrual\n        for (uint256 i = startAccrualIndex.add(1); i < endAccrualIndex; i = i.add(1)) {\n            // Add to claimable amount\n            claimableAmount = claimableAmount.add(\n                _claimableAmount(wallet, closedAccrualsByCurrency[currencyCt][currencyId][i])\n            );\n        }\n\n        // Add to claimable amount for last (potentially partial) accrual\n        claimableAmount = claimableAmount.add(\n            _claimableAmount(\n                wallet, endAccrual,\n                startBlock.clampMin(endAccrual.startBlock),\n                endBlock.clampMax(endAccrual.endBlock)\n            )\n        );\n\n        // Return the claimable amount\n        return claimableAmount;\n    }\n\n    /// @notice Claim accrual amounts and transfer to beneficiary by accrual index bounds\n    /// @param beneficiary The concerned beneficiary\n    /// @param destWallet The concerned destination wallet of the transfer\n    /// @param balanceType The target balance type\n    /// @param currencyCt The address of the concerned currency contract (address(0) == ETH)\n    /// @param currencyId The ID of the concerned currency (0 for ETH and ERC20)\n    /// @param startAccrualIndex The index of the first accrual in the range, clamped to the max accrual index\n    /// @param endAccrualIndex The index of the last accrual in the range, clamped to the max accrual index\n    /// @param standard The standard of the token (\"\" for default registered, \"ERC20\", \"ERC721\")\n    function claimAndTransferToBeneficiaryByAccruals(Beneficiary beneficiary, address destWallet, string memory balanceType,\n        address currencyCt, uint256 currencyId, uint256 startAccrualIndex, uint256 endAccrualIndex,\n        string memory standard)\n    public\n    {\n        // Require that message sender is non-claimer\n        require(!isNonClaimer(msg.sender), \"Message sender is non-claimer [TokenHolderRevenueFund.sol:605]\");\n\n        // Claim accrual and obtain the claimed amount\n        int256 claimedAmount = _claimByAccruals(msg.sender, currencyCt, currencyId, startAccrualIndex, endAccrualIndex);\n\n        // Transfer to beneficiary\n        _transferToBeneficiary(beneficiary, destWallet, balanceType, claimedAmount,\n            currencyCt, currencyId, standard);\n\n        // Emit event\n        emit ClaimAndTransferToBeneficiaryByAccrualsEvent(msg.sender, balanceType, claimedAmount, currencyCt, currencyId,\n            startAccrualIndex, endAccrualIndex, standard);\n    }\n\n    /// @notice Claim accrual amounts and transfer to beneficiary by block number bounds\n    /// @param beneficiary The concerned beneficiary\n    /// @param destWallet The concerned destination wallet of the transfer\n    /// @param balanceType The target balance type\n    /// @param currencyCt The address of the concerned currency contract (address(0) == ETH)\n    /// @param currencyId The ID of the concerned currency (0 for ETH and ERC20)\n    /// @param startBlock The first block number in the range\n    /// @param endBlock The last block number in the range\n    /// @param standard The standard of the token (\"\" for default registered, \"ERC20\", \"ERC721\")\n    function claimAndTransferToBeneficiaryByBlockNumbers(Beneficiary beneficiary, address destWallet,\n        string memory balanceType, address currencyCt, uint256 currencyId, uint256 startBlock,\n        uint256 endBlock, string memory standard)\n    public\n    {\n        // Require that message sender is non-claimer\n        require(!isNonClaimer(msg.sender), \"Message sender is non-claimer [TokenHolderRevenueFund.sol:634]\");\n\n        // Claim accrual and obtain the claimed amount\n        int256 claimedAmount = _claimByBlockNumbers(msg.sender, currencyCt, currencyId, startBlock, endBlock);\n\n        // Transfer to beneficiary\n        _transferToBeneficiary(beneficiary, destWallet, balanceType, claimedAmount,\n            currencyCt, currencyId, standard);\n\n        // Emit event\n        emit ClaimAndTransferToBeneficiaryByBlockNumbersEvent(msg.sender, balanceType, claimedAmount, currencyCt,\n            currencyId, startBlock, endBlock, standard);\n    }\n\n    /// @notice Claim last unclaimed accrual's amount and transfer to beneficiary\n    /// @param beneficiary The concerned beneficiary\n    /// @param destWallet The concerned destination wallet of the transfer\n    /// @param balanceType The target balance type\n    /// @param currencyCt The address of the concerned currency contract (address(0) == ETH)\n    /// @param currencyId The ID of the concerned currency (0 for ETH and ERC20)\n    /// @param standard The standard of the token (\"\" for default registered, \"ERC20\", \"ERC721\")\n    function claimAndTransferToBeneficiary(Beneficiary beneficiary, address destWallet, string memory balanceType,\n        address currencyCt, uint256 currencyId, string memory standard)\n    public\n    {\n        // Determine the last accrual index that was fully claimed, or 0 if the message sender has not previously\n        // claimed the currency\n        uint256 accrualIndex = (\n        0 == claimedAccrualIndicesByWalletCurrency[msg.sender][currencyCt][currencyId].length ?\n        0 :\n        claimedAccrualIndicesByWalletCurrency[msg.sender][currencyCt][currencyId][\n        claimedAccrualIndicesByWalletCurrency[msg.sender][currencyCt][currencyId].length - 1\n        ] + 1\n        );\n\n        // If no block number batch size has been set then claim and transfer by accrual index\n        if (0 == claimBlockNumberBatchSize) {\n            // Add accrual index to claimed indices\n            _updateClaimedAccruals(msg.sender, currencyCt, currencyId, accrualIndex);\n\n            // Claim and transfer\n            claimAndTransferToBeneficiaryByAccruals(\n                beneficiary, destWallet, balanceType, currencyCt, currencyId,\n                accrualIndex, accrualIndex, standard\n            );\n        }\n\n        // Else claim and transfer by block numbers\n        else {\n            // Obtain accrual\n            Accrual storage accrual = closedAccrualsByCurrency[currencyCt][currencyId][accrualIndex];\n\n            // Obtain the block number bounds\n            uint256 startBlock = (\n            0 == maxClaimedBlockNumberByWalletCurrencyAccrual[msg.sender][currencyCt][currencyId][accrualIndex] ?\n            accrual.startBlock :\n            maxClaimedBlockNumberByWalletCurrencyAccrual[msg.sender][currencyCt][currencyId][accrualIndex] + 1\n            ).clampMax(accrual.endBlock);\n            uint256 endBlock = (startBlock + claimBlockNumberBatchSize - 1).clampMax(accrual.endBlock);\n\n            // Add accrual index to claimed indices if this is the last block number span\n            if (endBlock == accrual.endBlock)\n                _updateClaimedAccruals(msg.sender, currencyCt, currencyId, accrualIndex);\n\n            // Update max claimed block number\n            maxClaimedBlockNumberByWalletCurrencyAccrual[msg.sender][currencyCt][currencyId][accrualIndex] = endBlock;\n\n            // Claim and transfer\n            claimAndTransferToBeneficiaryByBlockNumbers(\n                beneficiary, destWallet, balanceType, currencyCt, currencyId,\n                startBlock, endBlock, standard\n            );\n        }\n    }\n\n    /// @notice Claim accrual amount and stage for later withdrawal by accrual index bounds\n    /// @param currencyCt The address of the concerned currency contract (address(0) == ETH)\n    /// @param currencyId The ID of the concerned currency (0 for ETH and ERC20)\n    /// @param startAccrualIndex The index of the first accrual in the range, clamped to the max accrual index\n    /// @param endAccrualIndex The index of the last accrual in the range, clamped to the max accrual index\n    function claimAndStageByAccruals(address currencyCt, uint256 currencyId,\n        uint256 startAccrualIndex, uint256 endAccrualIndex)\n    public\n    {\n        // Require that message sender is non-claimer\n        require(!isNonClaimer(msg.sender), \"Message sender is non-claimer [TokenHolderRevenueFund.sol:719]\");\n\n        // Claim accrual and obtain the claimed amount\n        int256 claimedAmount = _claimByAccruals(msg.sender, currencyCt, currencyId, startAccrualIndex, endAccrualIndex);\n\n        // If the claimed amount is strictly positive...\n        if (0 < claimedAmount) {\n            // Update staged balance\n            stagedByWallet[msg.sender].add(claimedAmount, currencyCt, currencyId);\n\n            // Emit event\n            emit ClaimAndStageByAccrualsEvent(msg.sender, claimedAmount, currencyCt, currencyId, startAccrualIndex, endAccrualIndex);\n        }\n    }\n\n    /// @notice Claim accrual amount and stage for later withdrawal by block number bounds\n    /// @param currencyCt The address of the concerned currency contract (address(0) == ETH)\n    /// @param currencyId The ID of the concerned currency (0 for ETH and ERC20)\n    /// @param startBlock The first block number in the range\n    /// @param endBlock The last block number in the range\n    function claimAndStageByBlockNumbers(address currencyCt, uint256 currencyId,\n        uint256 startBlock, uint256 endBlock)\n    public\n    {\n        // Require that message sender is non-claimer\n        require(!isNonClaimer(msg.sender), \"Message sender is non-claimer [TokenHolderRevenueFund.sol:744]\");\n\n        // Claim accrual and obtain the claimed amount\n        int256 claimedAmount = _claimByBlockNumbers(msg.sender, currencyCt, currencyId, startBlock, endBlock);\n\n        // If the claimed amount is strictly positive...\n        if (0 < claimedAmount) {\n            // Update staged balance\n            stagedByWallet[msg.sender].add(claimedAmount, currencyCt, currencyId);\n\n            // Emit event\n            emit ClaimAndStageByBlockNumbersEvent(msg.sender, claimedAmount, currencyCt, currencyId, startBlock, endBlock);\n        }\n    }\n\n    /// @notice Gauge whether the accrual by the given accrual index has previously been fully\n    /// claimed for the given wallet-currency pair\n    /// @param wallet The address of the concerned wallet\n    /// @param currencyCt The address of the concerned currency contract (address(0) == ETH)\n    /// @param currencyId The ID of the concerned currency (0 for ETH and ERC20)\n    /// @param accrualIndex The index of the concerned accrual\n    /// @return true if fully claimed\n    function fullyClaimed(address wallet, address currencyCt, uint256 currencyId, uint256 accrualIndex)\n    public\n    view\n    returns (bool)\n    {\n        // Return true if the given accrual has been closed and fully claimed by the wallet\n        return (\n        accrualIndex < closedAccrualsByCurrency[currencyCt][currencyId].length &&\n        closedAccrualsByCurrency[currencyCt][currencyId][accrualIndex].claimRecordsByWallet[wallet].completed\n        );\n    }\n\n    /// @notice Gauge whether the accrual by the given accrual index has previously been partially\n    /// claimed for the given wallet-currency pair\n    /// @param wallet The address of the concerned wallet\n    /// @param currencyCt The address of the concerned currency contract (address(0) == ETH)\n    /// @param currencyId The ID of the concerned currency (0 for ETH and ERC20)\n    /// @param accrualIndex The index of the concerned accrual\n    /// @return true if partially claimed\n    function partiallyClaimed(address wallet, address currencyCt, uint256 currencyId, uint256 accrualIndex)\n    public\n    view\n    returns (bool)\n    {\n        // Return true if the given accrual has been closed and partially claimed by the wallet\n        return (\n        accrualIndex < closedAccrualsByCurrency[currencyCt][currencyId].length &&\n        0 < closedAccrualsByCurrency[currencyCt][currencyId][accrualIndex].claimRecordsByWallet[wallet].completedSpans.length\n        );\n    }\n\n    /// @notice Get the block spans of partial claims executed on the given accrual index and wallet-currency pair\n    /// @param wallet The address of the concerned wallet\n    /// @param currencyCt The address of the concerned currency contract (address(0) == ETH)\n    /// @param currencyId The ID of the concerned currency (0 for ETH and ERC20)\n    /// @param accrualIndex The index of the concerned accrual\n    /// @return The claimed block spans\n    function claimedBlockSpans(address wallet, address currencyCt, uint256 currencyId, uint256 accrualIndex)\n    public\n    view\n    returns (BlockSpan[] memory)\n    {\n        if (closedAccrualsByCurrency[currencyCt][currencyId].length <= accrualIndex)\n            return new BlockSpan[](0);\n\n        return closedAccrualsByCurrency[currencyCt][currencyId][accrualIndex].claimRecordsByWallet[wallet].completedSpans;\n    }\n\n    /// @notice Withdraw from staged balance of msg.sender\n    /// @param amount The concerned amount\n    /// @param currencyCt The address of the concerned currency contract (address(0) == ETH)\n    /// @param currencyId The ID of the concerned currency (0 for ETH and ERC20)\n    /// @param standard The standard of the token (\"\" for default registered, \"ERC20\", \"ERC721\")\n    function withdraw(int256 amount, address currencyCt, uint256 currencyId, string memory standard)\n    public\n    {\n        // Require that amount is strictly positive\n        require(amount.isNonZeroPositiveInt256(), \"Amount not strictly positive [TokenHolderRevenueFund.sol:823]\");\n\n        // Clamp amount to the max given by staged balance\n        amount = amount.clampMax(stagedByWallet[msg.sender].get(currencyCt, currencyId));\n\n        // Subtract to per-wallet staged balance\n        stagedByWallet[msg.sender].sub(amount, currencyCt, currencyId);\n\n        // Execute transfer\n        if (address(0) == currencyCt && 0 == currencyId)\n            msg.sender.transfer(uint256(amount));\n\n        else {\n            TransferController controller = transferController(currencyCt, standard);\n            (bool success,) = address(controller).delegatecall(\n                abi.encodeWithSelector(\n                    controller.getDispatchSignature(), address(this), msg.sender, uint256(amount), currencyCt, currencyId\n                )\n            );\n            require(success, \"Dispatch by controller failed [TokenHolderRevenueFund.sol:842]\");\n        }\n\n        // Emit event\n        emit WithdrawEvent(msg.sender, amount, currencyCt, currencyId, standard);\n    }\n\n    //\n    // Private functions\n    // -----------------------------------------------------------------------------------------------------------------\n    function _claimByAccruals(address wallet, address currencyCt, uint256 currencyId,\n        uint256 startAccrualIndex, uint256 endAccrualIndex)\n    private\n    returns (int256)\n    {\n        // Require that at least one accrual has terminated\n        require(0 < closedAccrualsByCurrency[currencyCt][currencyId].length, \"No terminated accrual found [TokenHolderRevenueFund.sol:858]\");\n\n        // Impose ordinality constraint\n        require(startAccrualIndex <= endAccrualIndex, \"Accrual index mismatch [TokenHolderRevenueFund.sol:861]\");\n\n        // Declare claimed amount\n        int256 claimedAmount = 0;\n\n        // For each accrual index in range...\n        for (\n            uint256 i = startAccrualIndex;\n            i <= endAccrualIndex && i < closedAccrualsByCurrency[currencyCt][currencyId].length;\n            i = i.add(1)\n        ) {\n            // Obtain accrual\n            Accrual storage accrual = closedAccrualsByCurrency[currencyCt][currencyId][i];\n\n            // Add to claimable amount for accrual\n            claimedAmount = claimedAmount.add(_claimableAmount(wallet, accrual));\n\n            // Update claim record\n            _updateClaimRecord(wallet, accrual);\n        }\n\n        // Return the claimed amount\n        return claimedAmount;\n    }\n\n    function _claimByBlockNumbers(address wallet, address currencyCt, uint256 currencyId,\n        uint256 startBlock, uint256 endBlock)\n    private\n    returns (int256)\n    {\n        // Require that at least one accrual has terminated\n        require(0 < closedAccrualsByCurrency[currencyCt][currencyId].length, \"No terminated accrual found [TokenHolderRevenueFund.sol:892]\");\n\n        // Impose ordinality constraint\n        require(startBlock <= endBlock, \"Block number mismatch [TokenHolderRevenueFund.sol:895]\");\n\n        // Obtain accrual indices corresponding to block number boundaries\n        uint256 startAccrualIndex = closedAccrualIndexByBlockNumber(currencyCt, currencyId, startBlock);\n        uint256 endAccrualIndex = closedAccrualIndexByBlockNumber(currencyCt, currencyId, endBlock);\n\n        // Declare claimed amount and clamped blocks\n        int256 claimedAmount = 0;\n        uint256 clampedStartBlock = 0;\n        uint256 clampedEndBlock = 0;\n\n        // If start accrual index is strictly smaller than end accrual index...\n        if (startAccrualIndex < endAccrualIndex) {\n            // Obtain start accrual\n            Accrual storage accrual = closedAccrualsByCurrency[currencyCt][currencyId][startAccrualIndex];\n\n            // Clamp start and end blocks\n            clampedStartBlock = startBlock.clampMin(accrual.startBlock);\n            clampedEndBlock = endBlock.clampMax(accrual.endBlock);\n\n            // Add to claimable amount for first (potentially partial) accrual\n            claimedAmount = _claimableAmount(wallet, accrual, clampedStartBlock, clampedEndBlock);\n\n            // Update claim record\n            _updateClaimRecord(wallet, accrual, clampedStartBlock, clampedEndBlock);\n        }\n\n        // For each accrual index in range...\n        for (uint256 i = startAccrualIndex.add(1); i < endAccrualIndex; i = i.add(1)) {\n            // Obtain accrual\n            Accrual storage accrual = closedAccrualsByCurrency[currencyCt][currencyId][i];\n\n            // Add to claimable amount for accrual\n            claimedAmount = claimedAmount.add(_claimableAmount(wallet, accrual));\n\n            // Update claim record\n            _updateClaimRecord(wallet, accrual);\n        }\n\n        // Obtain end accrual\n        Accrual storage accrual = closedAccrualsByCurrency[currencyCt][currencyId][endAccrualIndex];\n\n        // Clamp start and end blocks\n        clampedStartBlock = startBlock.clampMin(accrual.startBlock);\n        clampedEndBlock = endBlock.clampMax(accrual.endBlock);\n\n        // Add to claimable amount for last (potentially partial) accrual\n        claimedAmount = claimedAmount.add(\n            _claimableAmount(wallet, accrual, clampedStartBlock, clampedEndBlock)\n        );\n\n        // Update claim record\n        _updateClaimRecord(wallet, accrual, clampedStartBlock, clampedEndBlock);\n\n        // Return the claimed amount\n        return claimedAmount;\n    }\n\n    function _transferToBeneficiary(Beneficiary beneficiary, address destWallet, string memory balanceType,\n        int256 amount, address currencyCt, uint256 currencyId, string memory standard)\n    private\n    {\n        // Transfer ETH to the beneficiary\n        if (address(0) == currencyCt && 0 == currencyId)\n            beneficiary.receiveEthersTo.value(uint256(amount))(destWallet, balanceType);\n\n        else {\n            // Approve of beneficiary\n            TransferController controller = transferController(currencyCt, standard);\n            (bool success,) = address(controller).delegatecall(\n                abi.encodeWithSelector(\n                    controller.getApproveSignature(), address(beneficiary), uint256(amount), currencyCt, currencyId\n                )\n            );\n            require(success, \"Approval by controller failed [TokenHolderRevenueFund.sol:969]\");\n\n            // Transfer tokens to the beneficiary\n            beneficiary.receiveTokensTo(destWallet, balanceType, amount, currencyCt, currencyId, standard);\n        }\n    }\n\n    function _updateClaimRecord(address wallet, Accrual storage accrual)\n    private\n    {\n        // Set the completed flag to true\n        accrual.claimRecordsByWallet[wallet].completed = true;\n\n        // Clear completed block number spans if existent\n        if (0 < accrual.claimRecordsByWallet[wallet].completedSpans.length)\n            accrual.claimRecordsByWallet[wallet].completedSpans.length = 0;\n    }\n\n    function _updateClaimRecord(address wallet, Accrual storage accrual,\n        uint256 startBlock, uint256 endBlock)\n    private\n    {\n        // Add completed block span\n        accrual.claimRecordsByWallet[wallet].completedSpans.push(\n            BlockSpan(startBlock, endBlock)\n        );\n    }\n\n    function _updateClaimedAccruals(address wallet, address currencyCt, uint256 currencyId, uint256 accrualIndex)\n    private\n    {\n        if (!accrualClaimedByWalletCurrencyAccrual[wallet][currencyCt][currencyId][accrualIndex]) {\n            claimedAccrualIndicesByWalletCurrency[wallet][currencyCt][currencyId].push(accrualIndex);\n            accrualClaimedByWalletCurrencyAccrual[wallet][currencyCt][currencyId][accrualIndex] = true;\n        }\n    }\n\n    /// @dev Return false if the wallet's claim record is either completed or its number of completed block\n    /// number spans is non-zero\n    function _isClaimable(address wallet, Accrual storage accrual)\n    private\n    view\n    returns (bool)\n    {\n        // Return false if accrual amount is non-zero and no claim of accrual has been executed\n        return (\n        0 < accrual.amount &&\n        !accrual.claimRecordsByWallet[wallet].completed &&\n        0 == accrual.claimRecordsByWallet[wallet].completedSpans.length\n        );\n    }\n\n    function _isClaimable(address wallet, Accrual storage accrual,\n        uint256 startBlock, uint256 endBlock)\n    private\n    view\n    returns (bool)\n    {\n        // Return false if accrual amount is zero or the claim is fully completed\n        if (\n            0 == accrual.amount ||\n        accrual.claimRecordsByWallet[wallet].completed\n        )\n            return false;\n\n        // Return false if start or end block is within any of the completed block spans\n        for (uint256 i = 0;\n            i < accrual.claimRecordsByWallet[wallet].completedSpans.length;\n            i = i.add(1)) {\n            if (\n                (\n                accrual.claimRecordsByWallet[wallet].completedSpans[i].startBlock <= startBlock &&\n                startBlock <= accrual.claimRecordsByWallet[wallet].completedSpans[i].endBlock\n                ) ||\n                (\n                accrual.claimRecordsByWallet[wallet].completedSpans[i].startBlock <= endBlock &&\n                endBlock <= accrual.claimRecordsByWallet[wallet].completedSpans[i].endBlock\n                )\n            )\n                return false;\n        }\n\n        return true;\n    }\n\n    function _claimableAmount(address wallet, Accrual storage accrual)\n    private\n    view\n    returns (int256)\n    {\n        // Return 0 if not claimable\n        if (!_isClaimable(wallet, accrual))\n            return 0;\n\n        // Retrieve the released amount blocks\n        int256 _releasedAmountBlocks = _correctedReleasedAmountBlocks(\n            accrual.startBlock, accrual.endBlock\n        );\n\n        // Return 0 if no revenue tokens were released\n        if (0 == _releasedAmountBlocks)\n            return 0;\n\n        // Retrieve the balance blocks of wallet\n        int256 _walletBalanceBlocks = _balanceBlocks(\n            wallet, accrual.startBlock, accrual.endBlock\n        );\n\n        // Calculate the claimed amount\n        return accrual.amount\n        .mul_nn(_walletBalanceBlocks)\n        .div_nn(_releasedAmountBlocks);\n    }\n\n    function _claimableAmount(address wallet, Accrual storage accrual,\n        uint256 startBlock, uint256 endBlock)\n    private\n    view\n    returns (int256)\n    {\n        // Return 0 if not claimable\n        if (!_isClaimable(wallet, accrual, startBlock, endBlock))\n            return 0;\n\n        // Retrieve the released amount blocks\n        int256 _releasedAmountBlocks = _correctedReleasedAmountBlocks(\n            startBlock, endBlock\n        );\n\n        // Return 0 if no revenue tokens were released\n        if (0 == _releasedAmountBlocks)\n            return 0;\n\n        // Retrieve the balance blocks of wallet\n        int256 _walletBalanceBlocks = _balanceBlocks(\n            wallet, startBlock, endBlock\n        );\n\n        // Calculate scaling factor numerator and denominator to account for partial concerned span of accrual\n        int256 _accrualNumerator = int256(endBlock.sub(startBlock).add(1));\n        int256 _accrualDenominator = int256(accrual.endBlock.sub(accrual.startBlock).add(1));\n\n        // Calculate the scaled claimable amount\n        return accrual.amount\n        .mul_nn(_walletBalanceBlocks)\n        .mul_nn(_accrualNumerator)\n        .div_nn(_releasedAmountBlocks.mul_nn(_accrualDenominator));\n    }\n\n    function _balanceBlocks(address wallet, uint256 startBlock, uint256 endBlock)\n    private\n    view\n    returns (int256)\n    {\n        return int256(balanceBlocksCalculator.calculate(\n                BalanceRecordable(address(revenueTokenManager.token())), wallet, startBlock, endBlock\n            ));\n    }\n\n    function _correctedReleasedAmountBlocks(uint256 startBlock, uint256 endBlock)\n    private\n    view\n    returns (int256)\n    {\n        // Obtain the released amount blocks\n        int256 amountBlocks = int256(releasedAmountBlocksCalculator.calculate(\n                BalanceRecordable(address(revenueTokenManager)), address(0), startBlock, endBlock\n            ));\n\n        // Correct the amount blocks by subtracting the contributions from contracts that may not claim\n        for (uint256 i = 0; i < nonClaimers.length; i = i.add(1))\n            amountBlocks = amountBlocks.sub(_balanceBlocks(nonClaimers[i], startBlock, endBlock));\n\n        // Return corrected amount blocks\n        return amountBlocks;\n    }\n}",
  "sourcePath": "/opt/buildagent/work/855e104608380c36/contracts/TokenHolderRevenueFund.sol",
  "compiler": {
    "name": "solc",
    "version": "0.5.13+commit.5b0b510c.Emscripten.clang"
  },
  "schemaVersion": "2.0.3",
  "updatedAt": "2020-02-02T20:23:21.213Z"
}