{
  "contractName": "TransactionTracker",
  "abi": [
    {
      "constant": true,
      "inputs": [
        {
          "name": "service",
          "type": "address"
        }
      ],
      "name": "isRegisteredActiveService",
      "outputs": [
        {
          "name": "",
          "type": "bool"
        }
      ],
      "payable": false,
      "stateMutability": "view",
      "type": "function"
    },
    {
      "constant": false,
      "inputs": [],
      "name": "triggerSelfDestruction",
      "outputs": [],
      "payable": false,
      "stateMutability": "nonpayable",
      "type": "function"
    },
    {
      "constant": false,
      "inputs": [
        {
          "name": "service",
          "type": "address"
        },
        {
          "name": "action",
          "type": "string"
        }
      ],
      "name": "enableServiceAction",
      "outputs": [],
      "payable": false,
      "stateMutability": "nonpayable",
      "type": "function"
    },
    {
      "constant": true,
      "inputs": [
        {
          "name": "service",
          "type": "address"
        }
      ],
      "name": "isRegisteredService",
      "outputs": [
        {
          "name": "",
          "type": "bool"
        }
      ],
      "payable": false,
      "stateMutability": "view",
      "type": "function"
    },
    {
      "constant": true,
      "inputs": [],
      "name": "selfDestructionDisabled",
      "outputs": [
        {
          "name": "",
          "type": "bool"
        }
      ],
      "payable": false,
      "stateMutability": "view",
      "type": "function"
    },
    {
      "constant": true,
      "inputs": [],
      "name": "depositTransactionType",
      "outputs": [
        {
          "name": "",
          "type": "bytes32"
        }
      ],
      "payable": false,
      "stateMutability": "view",
      "type": "function"
    },
    {
      "constant": false,
      "inputs": [
        {
          "name": "service",
          "type": "address"
        },
        {
          "name": "action",
          "type": "string"
        }
      ],
      "name": "disableServiceAction",
      "outputs": [],
      "payable": false,
      "stateMutability": "nonpayable",
      "type": "function"
    },
    {
      "constant": true,
      "inputs": [],
      "name": "serviceActivationTimeout",
      "outputs": [
        {
          "name": "",
          "type": "uint256"
        }
      ],
      "payable": false,
      "stateMutability": "view",
      "type": "function"
    },
    {
      "constant": true,
      "inputs": [],
      "name": "destructor",
      "outputs": [
        {
          "name": "",
          "type": "address"
        }
      ],
      "payable": false,
      "stateMutability": "view",
      "type": "function"
    },
    {
      "constant": false,
      "inputs": [
        {
          "name": "service",
          "type": "address"
        }
      ],
      "name": "deregisterService",
      "outputs": [],
      "payable": false,
      "stateMutability": "nonpayable",
      "type": "function"
    },
    {
      "constant": true,
      "inputs": [],
      "name": "operator",
      "outputs": [
        {
          "name": "",
          "type": "address"
        }
      ],
      "payable": false,
      "stateMutability": "view",
      "type": "function"
    },
    {
      "constant": true,
      "inputs": [
        {
          "name": "service",
          "type": "address"
        },
        {
          "name": "action",
          "type": "string"
        }
      ],
      "name": "isEnabledServiceAction",
      "outputs": [
        {
          "name": "",
          "type": "bool"
        }
      ],
      "payable": false,
      "stateMutability": "view",
      "type": "function"
    },
    {
      "constant": true,
      "inputs": [],
      "name": "DEPOSIT_TRANSACTION_TYPE",
      "outputs": [
        {
          "name": "",
          "type": "string"
        }
      ],
      "payable": false,
      "stateMutability": "view",
      "type": "function"
    },
    {
      "constant": false,
      "inputs": [],
      "name": "disableSelfDestruction",
      "outputs": [],
      "payable": false,
      "stateMutability": "nonpayable",
      "type": "function"
    },
    {
      "constant": false,
      "inputs": [
        {
          "name": "timeoutInSeconds",
          "type": "uint256"
        }
      ],
      "name": "setServiceActivationTimeout",
      "outputs": [],
      "payable": false,
      "stateMutability": "nonpayable",
      "type": "function"
    },
    {
      "constant": false,
      "inputs": [
        {
          "name": "service",
          "type": "address"
        }
      ],
      "name": "registerServiceDeferred",
      "outputs": [],
      "payable": false,
      "stateMutability": "nonpayable",
      "type": "function"
    },
    {
      "constant": false,
      "inputs": [
        {
          "name": "newDeployer",
          "type": "address"
        }
      ],
      "name": "setDeployer",
      "outputs": [],
      "payable": false,
      "stateMutability": "nonpayable",
      "type": "function"
    },
    {
      "constant": false,
      "inputs": [
        {
          "name": "newOperator",
          "type": "address"
        }
      ],
      "name": "setOperator",
      "outputs": [],
      "payable": false,
      "stateMutability": "nonpayable",
      "type": "function"
    },
    {
      "constant": true,
      "inputs": [],
      "name": "WITHDRAWAL_TRANSACTION_TYPE",
      "outputs": [
        {
          "name": "",
          "type": "string"
        }
      ],
      "payable": false,
      "stateMutability": "view",
      "type": "function"
    },
    {
      "constant": true,
      "inputs": [],
      "name": "withdrawalTransactionType",
      "outputs": [
        {
          "name": "",
          "type": "bytes32"
        }
      ],
      "payable": false,
      "stateMutability": "view",
      "type": "function"
    },
    {
      "constant": true,
      "inputs": [],
      "name": "deployer",
      "outputs": [
        {
          "name": "",
          "type": "address"
        }
      ],
      "payable": false,
      "stateMutability": "view",
      "type": "function"
    },
    {
      "constant": false,
      "inputs": [
        {
          "name": "service",
          "type": "address"
        }
      ],
      "name": "registerService",
      "outputs": [],
      "payable": false,
      "stateMutability": "nonpayable",
      "type": "function"
    },
    {
      "inputs": [
        {
          "name": "deployer",
          "type": "address"
        }
      ],
      "payable": false,
      "stateMutability": "nonpayable",
      "type": "constructor"
    },
    {
      "anonymous": false,
      "inputs": [
        {
          "indexed": false,
          "name": "timeoutInSeconds",
          "type": "uint256"
        }
      ],
      "name": "ServiceActivationTimeoutEvent",
      "type": "event"
    },
    {
      "anonymous": false,
      "inputs": [
        {
          "indexed": false,
          "name": "service",
          "type": "address"
        }
      ],
      "name": "RegisterServiceEvent",
      "type": "event"
    },
    {
      "anonymous": false,
      "inputs": [
        {
          "indexed": false,
          "name": "service",
          "type": "address"
        },
        {
          "indexed": false,
          "name": "timeout",
          "type": "uint256"
        }
      ],
      "name": "RegisterServiceDeferredEvent",
      "type": "event"
    },
    {
      "anonymous": false,
      "inputs": [
        {
          "indexed": false,
          "name": "service",
          "type": "address"
        }
      ],
      "name": "DeregisterServiceEvent",
      "type": "event"
    },
    {
      "anonymous": false,
      "inputs": [
        {
          "indexed": false,
          "name": "service",
          "type": "address"
        },
        {
          "indexed": false,
          "name": "action",
          "type": "string"
        }
      ],
      "name": "EnableServiceActionEvent",
      "type": "event"
    },
    {
      "anonymous": false,
      "inputs": [
        {
          "indexed": false,
          "name": "service",
          "type": "address"
        },
        {
          "indexed": false,
          "name": "action",
          "type": "string"
        }
      ],
      "name": "DisableServiceActionEvent",
      "type": "event"
    },
    {
      "anonymous": false,
      "inputs": [
        {
          "indexed": false,
          "name": "oldDeployer",
          "type": "address"
        },
        {
          "indexed": false,
          "name": "newDeployer",
          "type": "address"
        }
      ],
      "name": "SetDeployerEvent",
      "type": "event"
    },
    {
      "anonymous": false,
      "inputs": [
        {
          "indexed": false,
          "name": "oldOperator",
          "type": "address"
        },
        {
          "indexed": false,
          "name": "newOperator",
          "type": "address"
        }
      ],
      "name": "SetOperatorEvent",
      "type": "event"
    },
    {
      "anonymous": false,
      "inputs": [
        {
          "indexed": false,
          "name": "wallet",
          "type": "address"
        }
      ],
      "name": "SelfDestructionDisabledEvent",
      "type": "event"
    },
    {
      "anonymous": false,
      "inputs": [
        {
          "indexed": false,
          "name": "wallet",
          "type": "address"
        }
      ],
      "name": "TriggerSelfDestructionEvent",
      "type": "event"
    },
    {
      "constant": false,
      "inputs": [
        {
          "name": "wallet",
          "type": "address"
        },
        {
          "name": "_type",
          "type": "bytes32"
        },
        {
          "name": "value",
          "type": "int256"
        },
        {
          "name": "currencyCt",
          "type": "address"
        },
        {
          "name": "currencyId",
          "type": "uint256"
        }
      ],
      "name": "add",
      "outputs": [],
      "payable": false,
      "stateMutability": "nonpayable",
      "type": "function"
    },
    {
      "constant": true,
      "inputs": [
        {
          "name": "wallet",
          "type": "address"
        },
        {
          "name": "_type",
          "type": "bytes32"
        }
      ],
      "name": "count",
      "outputs": [
        {
          "name": "",
          "type": "uint256"
        }
      ],
      "payable": false,
      "stateMutability": "view",
      "type": "function"
    },
    {
      "constant": true,
      "inputs": [
        {
          "name": "wallet",
          "type": "address"
        },
        {
          "name": "_type",
          "type": "bytes32"
        },
        {
          "name": "index",
          "type": "uint256"
        }
      ],
      "name": "getByIndex",
      "outputs": [
        {
          "name": "value",
          "type": "int256"
        },
        {
          "name": "blockNumber",
          "type": "uint256"
        },
        {
          "name": "currencyCt",
          "type": "address"
        },
        {
          "name": "currencyId",
          "type": "uint256"
        }
      ],
      "payable": false,
      "stateMutability": "view",
      "type": "function"
    },
    {
      "constant": true,
      "inputs": [
        {
          "name": "wallet",
          "type": "address"
        },
        {
          "name": "_type",
          "type": "bytes32"
        },
        {
          "name": "_blockNumber",
          "type": "uint256"
        }
      ],
      "name": "getByBlockNumber",
      "outputs": [
        {
          "name": "value",
          "type": "int256"
        },
        {
          "name": "blockNumber",
          "type": "uint256"
        },
        {
          "name": "currencyCt",
          "type": "address"
        },
        {
          "name": "currencyId",
          "type": "uint256"
        }
      ],
      "payable": false,
      "stateMutability": "view",
      "type": "function"
    },
    {
      "constant": true,
      "inputs": [
        {
          "name": "wallet",
          "type": "address"
        },
        {
          "name": "_type",
          "type": "bytes32"
        },
        {
          "name": "currencyCt",
          "type": "address"
        },
        {
          "name": "currencyId",
          "type": "uint256"
        }
      ],
      "name": "countByCurrency",
      "outputs": [
        {
          "name": "",
          "type": "uint256"
        }
      ],
      "payable": false,
      "stateMutability": "view",
      "type": "function"
    },
    {
      "constant": true,
      "inputs": [
        {
          "name": "wallet",
          "type": "address"
        },
        {
          "name": "_type",
          "type": "bytes32"
        },
        {
          "name": "currencyCt",
          "type": "address"
        },
        {
          "name": "currencyId",
          "type": "uint256"
        },
        {
          "name": "index",
          "type": "uint256"
        }
      ],
      "name": "getByCurrencyIndex",
      "outputs": [
        {
          "name": "value",
          "type": "int256"
        },
        {
          "name": "blockNumber",
          "type": "uint256"
        }
      ],
      "payable": false,
      "stateMutability": "view",
      "type": "function"
    },
    {
      "constant": true,
      "inputs": [
        {
          "name": "wallet",
          "type": "address"
        },
        {
          "name": "_type",
          "type": "bytes32"
        },
        {
          "name": "currencyCt",
          "type": "address"
        },
        {
          "name": "currencyId",
          "type": "uint256"
        },
        {
          "name": "_blockNumber",
          "type": "uint256"
        }
      ],
      "name": "getByCurrencyBlockNumber",
      "outputs": [
        {
          "name": "value",
          "type": "int256"
        },
        {
          "name": "blockNumber",
          "type": "uint256"
        }
      ],
      "payable": false,
      "stateMutability": "view",
      "type": "function"
    }
  ],
  "bytecode": "0x60806040523480156200001157600080fd5b506040516020806200192e83398101604052518080600160a060020a03811615156200003c57600080fd5b600160a060020a0381163014156200005357600080fd5b506000805461010060a860020a031916610100600160a060020a039390931692830217905560018054600160a060020a031916909117905560408051808201825260078082527f6465706f73697400000000000000000000000000000000000000000000000000602080840191825293519293929092019182918083835b60208310620000f25780518252601f199092019160209182019101620000d1565b6001836020036101000a0380198251168184511680821785525050505050509050019150506040516020818303038152906040526040518082805190602001908083835b60208310620001575780518252601f19909201916020918201910162000136565b51815160209384036101000a6000190180199092169116179052604080519290940182900382206004558184018452600a8083527f7769746864726177616c00000000000000000000000000000000000000000000838301908152945192965091019350839291508083835b60208310620001e45780518252601f199092019160209182019101620001c3565b6001836020036101000a0380198251168184511680821785525050505050509050019150506040516020818303038152906040526040518082805190602001908083835b60208310620002495780518252601f19909201916020918201910162000228565b5181516000196020949094036101000a939093019283169219169190911790526040519201829003909120600555505050506116a3806200028b6000396000f30060806040526004361061015b5763ffffffff60e060020a6000350416630545cae4811461016057806317ba3f90146101aa5780632738a112146101df5780632b5672e3146101f65780632b91e0a91461025d5780632f013a001461027e578063313004a9146102935780633b58c501146102ba5780633b7bea6c146103215780634476d23b146103365780634aa068421461036757806350b08c02146103bc578063570ca735146103dd5780635df1b0a3146103f25780636cc56e5a1461045957806370327ea1146104e35780637e15dd5c146104f85780638e8cef1214610510578063962147351461053157806397bb0bc9146105525780639cab96d6146105805780639de6301d146105b2578063ac0fc3ef146105e3578063b3ab15fb1461060a578063bb6be2211461062b578063bde440cb14610640578063d185dd4e14610655578063d5f3948814610679578063fdd9ec7d1461068e575b600080fd5b34801561016c57600080fd5b50610191600160a060020a0360043581169060243590604435166064356084356106af565b6040805192835260208301919091528051918290030190f35b3480156101b657600080fd5b506101cb600160a060020a03600435166106d9565b604080519115158252519081900360200190f35b3480156101eb57600080fd5b506101f4610711565b005b34801561020257600080fd5b5060408051602060046024803582810135601f81018590048502860185019096528585526101f4958335600160a060020a03169536956044949193909101919081908401838280828437509497506107739650505050505050565b34801561026957600080fd5b506101cb600160a060020a036004351661090e565b34801561028a57600080fd5b506101cb61092c565b34801561029f57600080fd5b506102a8610935565b60408051918252519081900360200190f35b3480156102c657600080fd5b5060408051602060046024803582810135601f81018590048502860185019096528585526101f4958335600160a060020a031695369560449491939091019190819084018382808284375094975061093b9650505050505050565b34801561032d57600080fd5b506102a8610a50565b34801561034257600080fd5b5061034b610a56565b60408051600160a060020a039092168252519081900360200190f35b34801561037357600080fd5b5061038e600160a060020a0360043516602435604435610a6b565b604080519485526020850193909352600160a060020a03909116838301526060830152519081900360800190f35b3480156103c857600080fd5b506101f4600160a060020a0360043516610a97565b3480156103e957600080fd5b5061034b610b56565b3480156103fe57600080fd5b5060408051602060046024803582810135601f81018590048502860185019096528585526101cb958335600160a060020a0316953695604494919390910191908190840183828082843750949750610b659650505050505050565b34801561046557600080fd5b5061046e610bb5565b6040805160208082528351818301528351919283929083019185019080838360005b838110156104a8578181015183820152602001610490565b50505050905090810190601f1680156104d55780820380516001836020036101000a031916815260200191505b509250505060405180910390f35b3480156104ef57600080fd5b506101f4610bd9565b34801561050457600080fd5b506101f4600435610c37565b34801561051c57600080fd5b506101f4600160a060020a0360043516610c85565b34801561053d57600080fd5b506101f4600160a060020a0360043516610d1b565b34801561055e57600080fd5b506102a8600160a060020a036004358116906024359060443516606435610de7565b34801561058c57600080fd5b506101f4600160a060020a03600435811690602435906044359060643516608435610e28565b3480156105be57600080fd5b50610191600160a060020a036004358116906024359060443516606435608435610fe9565b3480156105ef57600080fd5b5061038e600160a060020a036004351660243560443561109c565b34801561061657600080fd5b506101f4600160a060020a0360043516611111565b34801561063757600080fd5b5061046e6111ce565b34801561064c57600080fd5b506102a86111f5565b34801561066157600080fd5b506102a8600160a060020a03600435166024356111fb565b34801561068557600080fd5b5061034b611223565b34801561069a57600080fd5b506101f4600160a060020a0360043516611237565b6000806106cb878787876106c68c8c8c8c8c6112c1565b610fe9565b915091509550959350505050565b60006106e48261090e565b801561070b5750600160a060020a0382166000908152600260205260409020600101544210155b92915050565b3361071a610a56565b600160a060020a03161461072d57600080fd5b60005460ff161561073d57600080fd5b6040805133815290517f787a5d936e74f4b564b9153575886059829c78cd9927b1be5e0d976b317ef7369181900360200190a133ff5b600061077d61140e565b151561078857600080fd5b82600160a060020a038116151561079e57600080fd5b600160a060020a0381163014156107b457600080fd5b600160a060020a03841660009081526002602052604090205460ff1615156107db57600080fd5b6107e483611424565b600160a060020a0385166000908152600260208181526040808420858552909201905290205490925060ff161561081a57600080fd5b600160a060020a03841660008181526002602081815260408084208785528084018352818520805460ff19166001908117909155938352600301805493840181558452818420909201869055815193845283810182815287519285019290925286517fec1b982d69bfc1a6fd8becf191d9a633486c822d3bdedd52303ca81fa635750194899489949193919260608501928601918190849084905b838110156108cd5781810151838201526020016108b5565b50505050905090810190601f1680156108fa5780820380516001836020036101000a031916815260200191505b50935050505060405180910390a150505050565b600160a060020a031660009081526002602052604090205460ff1690565b60005460ff1681565b60045481565b600061094561140e565b151561095057600080fd5b82600160a060020a038116151561096657600080fd5b600160a060020a03811630141561097c57600080fd5b61098583611424565b600160a060020a0385166000908152600260208181526040808420858552909201905290205490925060ff1615156109bc57600080fd5b600160a060020a03841660008181526002602081815260408084208785529092018152818320805460ff19169055815193845283810182815287519285019290925286517f92f4af6130f47c92f3899e06611c8c6ef191fb81207ad2675d134af619d2fe7d9489948994919391926060850192860191819084908490838110156108cd5781810151838201526020016108b5565b60035481565b6000546101009004600160a060020a03165b90565b600080600080610a868787610a818a8a8a6114ee565b61109c565b935093509350935093509350935093565b610a9f61140e565b1515610aaa57600080fd5b80600160a060020a0381161515610ac057600080fd5b600160a060020a038116301415610ad657600080fd5b600160a060020a03821660009081526002602052604090205460ff161515610afd57600080fd5b600160a060020a038216600081815260026020908152604091829020805460ff19169055815192835290517f777645c5437dfbf962f57a281ead25f3d513f2f8e938685bbfc1738e81c9880e9281900390910190a15050565b600154600160a060020a031681565b600080610b7183611424565b9050610b7c846106d9565b8015610bad5750600160a060020a0384166000908152600260208181526040808420858552909201905290205460ff165b949350505050565b604080518082019091526007815260ca60020a6619195c1bdcda5d02602082015281565b33610be2610a56565b600160a060020a031614610bf557600080fd5b6000805460ff191660011790556040805133815290517fd5a2a04a775c741c2ca0dc46ea7ce4835190e1aaf1ca018def0e82568ec336169181900360200190a1565b610c3f61140e565b1515610c4a57600080fd5b60038190556040805182815290517f4f1d324a1cbffc352fb64f1d73d95e4b200d92f99ef39bf2d7f5b41f946909d69181900360200190a150565b610c8d61140e565b1515610c9857600080fd5b80600160a060020a0381161515610cae57600080fd5b600160a060020a038116301415610cc457600080fd5b610cd0826003546115b3565b60035460408051600160a060020a0385168152602081019290925280517f7f3a8349917003ed377f6e9ae1608b92edd893903f8983bd274b1f8373dd3b119281900390910190a15050565b6000610d2561140e565b1515610d3057600080fd5b81600160a060020a0381161515610d4657600080fd5b600160a060020a038116301415610d5c57600080fd5b600054600160a060020a038481166101009092041614610de25760008054600160a060020a0385811661010081810261010060a860020a0319851617909455604080519490930491909116808452602084019190915281519094507f977e5fa58e458501775e0008d275006294c5249e3c08d1d0e3a9f3acad14f6e49281900390910190a15b505050565b600160a060020a0393841660009081526006602090815260408083209583529481528482209390951681526001909201845282822090825290925290205490565b6000610e33336106d9565b1515610e3e57600080fd5b600160a060020a03861660009081526006602090815260408083208884529091529020805490610e719060018301611616565b5050600160a060020a038516600090815260066020908152604080832087845290915290208054600019810191859183908110610eaa57fe5b60009182526020808320600490920290910192909255600160a060020a038816815260068252604080822088835290925220805443919083908110610eeb57fe5b6000918252602080832060016004909302019190910192909255600160a060020a038816815260068252604080822088835290925220805484919083908110610f3057fe5b600091825260208083206004929092029091016002018054600160a060020a031916600160a060020a03948516179055918816815260068252604080822088835290925220805483919083908110610f8457fe5b6000918252602080832060036004909302019190910192909255600160a060020a039788168152600682526040808220978252968252868120949097168752600193840181528587209287529182529385208054928301815585529093209092015550565b600160a060020a038086166000908152600660209081526040808320888452825280832093871683526001909301815282822085835290529081208054829182918291908690811061103757fe5b6000918252602080832090910154600160a060020a038c1683526006825260408084208c855290925291208054919350908390811061107257fe5b90600052602060002090600402019050806000015493508060010154925050509550959350505050565b600160a060020a0383166000908152600660209081526040808320858452909152812080548291829182918291879081106110d357fe5b60009182526020909120600490910201805460018201546002830154600390930154919b909a50600160a060020a0390921698509650945050505050565b600061111b611605565b151561112657600080fd5b81600160a060020a038116151561113c57600080fd5b600160a060020a03811630141561115257600080fd5b600154600160a060020a03848116911614610de25760018054600160a060020a03858116600160a060020a0319831681179093556040805191909216808252602082019390935281519294507f9f611b789425d0d5b90b920f1b2852907dd865c80074a30b1629aaa041d1812c929081900390910190a1505050565b60408051808201909152600a815260b260020a691dda5d1a191c985dd85b02602082015281565b60055481565b600160a060020a03919091166000908152600660209081526040808320938352929052205490565b6000546101009004600160a060020a031681565b61123f61140e565b151561124a57600080fd5b80600160a060020a038116151561126057600080fd5b600160a060020a03811630141561127657600080fd5b6112818260006115b3565b60408051600160a060020a038416815290517fb619d545cb511bd5f02907a1eac4f4cb8dace7b1846852fb0bf5e553937481c19181900360200190a15050565b600160a060020a038086166000908152600660209081526040808320888452825280832093871683526001909301815282822085835290529081205481908190811061130c57600080fd5b600160a060020a0388811660009081526006602090815260408083208b84528252808320938a16835260019093018152828220888352905220546000190191505b6000821061015b57600160a060020a0380891660009081526006602090815260408083208b84528252808320938a1683526001909301815282822088835290522080548390811061139a57fe5b6000918252602080832090910154600160a060020a038b1683526006825260408084208b85529092529120805491925090829081106113d557fe5b906000526020600020906004020160010154841015156113f757809250611403565b6000199091019061134d565b505095945050505050565b6000546101009004600160a060020a0316331490565b6000816040516020018082805190602001908083835b602083106114595780518252601f19909201916020918201910161143a565b6001836020036101000a0380198251168184511680821785525050505050509050019150506040516020818303038152906040526040518082805190602001908083835b602083106114bc5780518252601f19909201916020918201910161149d565b5181516020939093036101000a6000190180199091169216919091179052604051920182900390912095945050505050565b600160a060020a03831660009081526006602090815260408083208584529091528120548190811061151f57600080fd5b50600160a060020a0384166000908152600660209081526040808320868452909152902054600019015b6000811061015b57600160a060020a0385166000908152600660209081526040808320878452909152902080548290811061158057fe5b906000526020600020906004020160010154831015156115a2578091506115ab565b60001901611549565b509392505050565b600160a060020a03821660009081526002602052604090205460ff16151561160157600160a060020a0382166000908152600260205260409020805460ff1916600190811782554283019101555b5050565b600154600160a060020a0316331490565b815481835581811115610de257600083815260209020610de291610a689160049182028101918502015b8082111561167357600080825560018201819055600282018054600160a060020a03191690556003820155600401611640565b50905600a165627a7a72305820ae54f0932d893b5fdd8fefbdbe09853515701d34b33260eb8385f33c795eb7a90029",
  "source": "/*\n * Hubii Nahmii\n *\n * Compliant with the Hubii Nahmii specification v0.12.\n *\n * Copyright (C) 2017-2018 Hubii AS\n */\n\npragma solidity ^0.4.25;\n\nimport {Ownable} from \"./Ownable.sol\";\nimport {Servable} from \"./Servable.sol\";\n\n/**\n * @title Transaction tracker\n * @notice An ownable to track transactions of generic types\n */\ncontract TransactionTracker is Ownable, Servable {\n\n    //\n    // Structures\n    // -----------------------------------------------------------------------------------------------------------------\n    struct TransactionRecord {\n        int256 value;\n        uint256 blockNumber;\n        address currencyCt;\n        uint256 currencyId;\n    }\n\n    struct TransactionLog {\n        TransactionRecord[] records;\n        mapping(address => mapping(uint256 => uint256[])) recordIndicesByCurrency;\n    }\n\n    //\n    // Constants\n    // -----------------------------------------------------------------------------------------------------------------\n    string constant public DEPOSIT_TRANSACTION_TYPE = \"deposit\";\n    string constant public WITHDRAWAL_TRANSACTION_TYPE = \"withdrawal\";\n\n    //\n    // Variables\n    // -----------------------------------------------------------------------------------------------------------------\n    bytes32 public depositTransactionType;\n    bytes32 public withdrawalTransactionType;\n\n    mapping(address => mapping(bytes32 => TransactionLog)) private transactionLogByWalletType;\n\n    //\n    // Constructor\n    // -----------------------------------------------------------------------------------------------------------------\n    constructor(address deployer) Ownable(deployer)\n    public\n    {\n        depositTransactionType = keccak256(abi.encodePacked(DEPOSIT_TRANSACTION_TYPE));\n        withdrawalTransactionType = keccak256(abi.encodePacked(WITHDRAWAL_TRANSACTION_TYPE));\n    }\n\n    //\n    // Functions\n    // -----------------------------------------------------------------------------------------------------------------\n    /// @notice Add a transaction record of the given wallet, type, value and currency\n    /// @param wallet The address of the concerned wallet\n    /// @param _type The transaction type\n    /// @param value The concerned value (amount of fungible, id of non-fungible)\n    /// @param currencyCt The address of the concerned currency contract (address(0) == ETH)\n    /// @param currencyId The ID of the concerned currency (0 for ETH and ERC20)\n    function add(address wallet, bytes32 _type, int256 value, address currencyCt,\n        uint256 currencyId)\n    public\n    onlyActiveService\n    {\n        transactionLogByWalletType[wallet][_type].records.length++;\n\n        uint256 index = transactionLogByWalletType[wallet][_type].records.length - 1;\n\n        transactionLogByWalletType[wallet][_type].records[index].value = value;\n        transactionLogByWalletType[wallet][_type].records[index].blockNumber = block.number;\n        transactionLogByWalletType[wallet][_type].records[index].currencyCt = currencyCt;\n        transactionLogByWalletType[wallet][_type].records[index].currencyId = currencyId;\n\n        transactionLogByWalletType[wallet][_type].recordIndicesByCurrency[currencyCt][currencyId].push(index);\n    }\n\n    /// @notice Get the number of transaction records for the given wallet and type\n    /// @param wallet The address of the concerned wallet\n    /// @param _type The transaction type\n    /// @return The count of transaction records\n    function count(address wallet, bytes32 _type)\n    public\n    view\n    returns (uint256)\n    {\n        return transactionLogByWalletType[wallet][_type].records.length;\n    }\n\n    /// @notice Get the transaction record for the given wallet and type by the given index\n    /// @param wallet The address of the concerned wallet\n    /// @param _type The transaction type\n    /// @param index The concerned log index\n    /// @return The transaction record\n    function getByIndex(address wallet, bytes32 _type, uint256 index)\n    public\n    view\n    returns (int256 value, uint256 blockNumber, address currencyCt, uint256 currencyId)\n    {\n        TransactionRecord storage entry = transactionLogByWalletType[wallet][_type].records[index];\n        value = entry.value;\n        blockNumber = entry.blockNumber;\n        currencyCt = entry.currencyCt;\n        currencyId = entry.currencyId;\n    }\n\n    /// @notice Get the transaction record for the given wallet and type by the given block number\n    /// @param wallet The address of the concerned wallet\n    /// @param _type The transaction type\n    /// @param _blockNumber The concerned block number\n    /// @return The transaction record\n    function getByBlockNumber(address wallet, bytes32 _type, uint256 _blockNumber)\n    public\n    view\n    returns (int256 value, uint256 blockNumber, address currencyCt, uint256 currencyId)\n    {\n        return getByIndex(wallet, _type, _indexByBlockNumber(wallet, _type, _blockNumber));\n    }\n\n    /// @notice Get the number of transaction records for the given wallet, type and currency\n    /// @param wallet The address of the concerned wallet\n    /// @param _type The transaction type\n    /// @param currencyCt The address of the concerned currency contract (address(0) == ETH)\n    /// @param currencyId The ID of the concerned currency (0 for ETH and ERC20)\n    /// @return The count of transaction records\n    function countByCurrency(address wallet, bytes32 _type, address currencyCt,\n        uint256 currencyId)\n    public\n    view\n    returns (uint256)\n    {\n        return transactionLogByWalletType[wallet][_type].recordIndicesByCurrency[currencyCt][currencyId].length;\n    }\n\n    /// @notice Get the transaction record for the given wallet, type and currency by the given index\n    /// @param wallet The address of the concerned wallet\n    /// @param _type The transaction type\n    /// @param index The concerned log index\n    /// @return The transaction record\n    function getByCurrencyIndex(address wallet, bytes32 _type, address currencyCt,\n        uint256 currencyId, uint256 index)\n    public\n    view\n    returns (int256 value, uint256 blockNumber)\n    {\n        uint256 entryIndex = transactionLogByWalletType[wallet][_type].recordIndicesByCurrency[currencyCt][currencyId][index];\n\n        TransactionRecord storage entry = transactionLogByWalletType[wallet][_type].records[entryIndex];\n        value = entry.value;\n        blockNumber = entry.blockNumber;\n    }\n\n    /// @notice Get the transaction record for the given wallet, type and currency by the given block number\n    /// @param wallet The address of the concerned wallet\n    /// @param _type The transaction type\n    /// @param _blockNumber The concerned block number\n    /// @return The transaction record\n    function getByCurrencyBlockNumber(address wallet, bytes32 _type, address currencyCt,\n        uint256 currencyId, uint256 _blockNumber)\n    public\n    view\n    returns (int256 value, uint256 blockNumber)\n    {\n        return getByCurrencyIndex(\n            wallet, _type, currencyCt, currencyId,\n            _indexByCurrencyBlockNumber(\n                wallet, _type, currencyCt, currencyId, _blockNumber\n            )\n        );\n    }\n\n    //\n    // Private functions\n    // -----------------------------------------------------------------------------------------------------------------\n    function _indexByBlockNumber(address wallet, bytes32 _type, uint256 blockNumber)\n    private\n    view\n    returns (uint256)\n    {\n        require(0 < transactionLogByWalletType[wallet][_type].records.length);\n        for (uint256 i = transactionLogByWalletType[wallet][_type].records.length - 1; i >= 0; i--)\n            if (blockNumber >= transactionLogByWalletType[wallet][_type].records[i].blockNumber)\n                return i;\n        revert();\n    }\n\n    function _indexByCurrencyBlockNumber(address wallet, bytes32 _type, address currencyCt,\n        uint256 currencyId, uint256 blockNumber)\n    private\n    view\n    returns (uint256)\n    {\n        require(0 < transactionLogByWalletType[wallet][_type].recordIndicesByCurrency[currencyCt][currencyId].length);\n        for (uint256 i = transactionLogByWalletType[wallet][_type].recordIndicesByCurrency[currencyCt][currencyId].length - 1; i >= 0; i--) {\n            uint256 j = transactionLogByWalletType[wallet][_type].recordIndicesByCurrency[currencyCt][currencyId][i];\n            if (blockNumber >= transactionLogByWalletType[wallet][_type].records[j].blockNumber)\n                return j;\n        }\n        revert();\n    }\n}",
  "sourcePath": "/opt/buildagent/work/855e104608380c36/contracts/TransactionTracker.sol",
  "compiler": {
    "name": "solc",
    "version": "0.4.25+commit.59dbf8f1.Emscripten.clang"
  },
  "schemaVersion": "2.0.2",
  "updatedAt": "2019-04-18T00:23:49.991Z"
}