{
  "contractName": "TransferControllerManager",
  "abi": [
    {
      "constant": false,
      "inputs": [],
      "name": "triggerSelfDestruction",
      "outputs": [],
      "payable": false,
      "stateMutability": "nonpayable",
      "type": "function"
    },
    {
      "constant": true,
      "inputs": [],
      "name": "selfDestructionDisabled",
      "outputs": [
        {
          "name": "",
          "type": "bool"
        }
      ],
      "payable": false,
      "stateMutability": "view",
      "type": "function"
    },
    {
      "constant": true,
      "inputs": [],
      "name": "destructor",
      "outputs": [
        {
          "name": "",
          "type": "address"
        }
      ],
      "payable": false,
      "stateMutability": "view",
      "type": "function"
    },
    {
      "constant": true,
      "inputs": [],
      "name": "operator",
      "outputs": [
        {
          "name": "",
          "type": "address"
        }
      ],
      "payable": false,
      "stateMutability": "view",
      "type": "function"
    },
    {
      "constant": false,
      "inputs": [],
      "name": "disableSelfDestruction",
      "outputs": [],
      "payable": false,
      "stateMutability": "nonpayable",
      "type": "function"
    },
    {
      "constant": false,
      "inputs": [
        {
          "name": "newDeployer",
          "type": "address"
        }
      ],
      "name": "setDeployer",
      "outputs": [],
      "payable": false,
      "stateMutability": "nonpayable",
      "type": "function"
    },
    {
      "constant": false,
      "inputs": [
        {
          "name": "newOperator",
          "type": "address"
        }
      ],
      "name": "setOperator",
      "outputs": [],
      "payable": false,
      "stateMutability": "nonpayable",
      "type": "function"
    },
    {
      "constant": true,
      "inputs": [],
      "name": "deployer",
      "outputs": [
        {
          "name": "",
          "type": "address"
        }
      ],
      "payable": false,
      "stateMutability": "view",
      "type": "function"
    },
    {
      "inputs": [
        {
          "name": "deployer",
          "type": "address"
        }
      ],
      "payable": false,
      "stateMutability": "nonpayable",
      "type": "constructor"
    },
    {
      "anonymous": false,
      "inputs": [
        {
          "indexed": false,
          "name": "standard",
          "type": "string"
        },
        {
          "indexed": false,
          "name": "controller",
          "type": "address"
        }
      ],
      "name": "RegisterTransferControllerEvent",
      "type": "event"
    },
    {
      "anonymous": false,
      "inputs": [
        {
          "indexed": false,
          "name": "oldStandard",
          "type": "string"
        },
        {
          "indexed": false,
          "name": "newStandard",
          "type": "string"
        },
        {
          "indexed": false,
          "name": "controller",
          "type": "address"
        }
      ],
      "name": "ReassociateTransferControllerEvent",
      "type": "event"
    },
    {
      "anonymous": false,
      "inputs": [
        {
          "indexed": false,
          "name": "currencyCt",
          "type": "address"
        },
        {
          "indexed": false,
          "name": "standard",
          "type": "string"
        }
      ],
      "name": "RegisterCurrencyEvent",
      "type": "event"
    },
    {
      "anonymous": false,
      "inputs": [
        {
          "indexed": false,
          "name": "currencyCt",
          "type": "address"
        }
      ],
      "name": "DeregisterCurrencyEvent",
      "type": "event"
    },
    {
      "anonymous": false,
      "inputs": [
        {
          "indexed": false,
          "name": "currencyCt",
          "type": "address"
        }
      ],
      "name": "BlacklistCurrencyEvent",
      "type": "event"
    },
    {
      "anonymous": false,
      "inputs": [
        {
          "indexed": false,
          "name": "currencyCt",
          "type": "address"
        }
      ],
      "name": "WhitelistCurrencyEvent",
      "type": "event"
    },
    {
      "anonymous": false,
      "inputs": [
        {
          "indexed": false,
          "name": "oldDeployer",
          "type": "address"
        },
        {
          "indexed": false,
          "name": "newDeployer",
          "type": "address"
        }
      ],
      "name": "SetDeployerEvent",
      "type": "event"
    },
    {
      "anonymous": false,
      "inputs": [
        {
          "indexed": false,
          "name": "oldOperator",
          "type": "address"
        },
        {
          "indexed": false,
          "name": "newOperator",
          "type": "address"
        }
      ],
      "name": "SetOperatorEvent",
      "type": "event"
    },
    {
      "anonymous": false,
      "inputs": [
        {
          "indexed": false,
          "name": "wallet",
          "type": "address"
        }
      ],
      "name": "SelfDestructionDisabledEvent",
      "type": "event"
    },
    {
      "anonymous": false,
      "inputs": [
        {
          "indexed": false,
          "name": "wallet",
          "type": "address"
        }
      ],
      "name": "TriggerSelfDestructionEvent",
      "type": "event"
    },
    {
      "constant": false,
      "inputs": [
        {
          "name": "standard",
          "type": "string"
        },
        {
          "name": "controller",
          "type": "address"
        }
      ],
      "name": "registerTransferController",
      "outputs": [],
      "payable": false,
      "stateMutability": "nonpayable",
      "type": "function"
    },
    {
      "constant": false,
      "inputs": [
        {
          "name": "oldStandard",
          "type": "string"
        },
        {
          "name": "newStandard",
          "type": "string"
        },
        {
          "name": "controller",
          "type": "address"
        }
      ],
      "name": "reassociateTransferController",
      "outputs": [],
      "payable": false,
      "stateMutability": "nonpayable",
      "type": "function"
    },
    {
      "constant": false,
      "inputs": [
        {
          "name": "currencyCt",
          "type": "address"
        },
        {
          "name": "standard",
          "type": "string"
        }
      ],
      "name": "registerCurrency",
      "outputs": [],
      "payable": false,
      "stateMutability": "nonpayable",
      "type": "function"
    },
    {
      "constant": false,
      "inputs": [
        {
          "name": "currencyCt",
          "type": "address"
        }
      ],
      "name": "deregisterCurrency",
      "outputs": [],
      "payable": false,
      "stateMutability": "nonpayable",
      "type": "function"
    },
    {
      "constant": false,
      "inputs": [
        {
          "name": "currencyCt",
          "type": "address"
        }
      ],
      "name": "blacklistCurrency",
      "outputs": [],
      "payable": false,
      "stateMutability": "nonpayable",
      "type": "function"
    },
    {
      "constant": false,
      "inputs": [
        {
          "name": "currencyCt",
          "type": "address"
        }
      ],
      "name": "whitelistCurrency",
      "outputs": [],
      "payable": false,
      "stateMutability": "nonpayable",
      "type": "function"
    },
    {
      "constant": true,
      "inputs": [
        {
          "name": "currencyCt",
          "type": "address"
        },
        {
          "name": "standard",
          "type": "string"
        }
      ],
      "name": "transferController",
      "outputs": [
        {
          "name": "",
          "type": "address"
        }
      ],
      "payable": false,
      "stateMutability": "view",
      "type": "function"
    }
  ],
  "bytecode": "0x608060405234801561001057600080fd5b50604051602080610efa83398101604052518080600160a060020a038116151561003957600080fd5b600160a060020a03811630141561004f57600080fd5b5060008054600160a060020a03909216610100810261010060a860020a031990931692909217905560018054600160a060020a031916909117905550610e608061009a6000396000f3006080604052600436106100c15763ffffffff60e060020a600035041663037d5c6081146100c65780632738a112146100e95780632f013a00146100fe5780634476d23b1461012757806352defbd014610158578063570ca7351461017957806370327ea11461018e57806382d0f069146101a357806396214735146101c4578063b09fea02146101e5578063b3ab15fb1461021d578063c8a483b01461023e578063d5b2ebc4146102a5578063d5f39488146102d2578063fae04401146102e7575b600080fd5b3480156100d257600080fd5b506100e7600160a060020a0360043516610315565b005b3480156100f557600080fd5b506100e76103ab565b34801561010a57600080fd5b5061011361040d565b604080519115158252519081900360200190f35b34801561013357600080fd5b5061013c610416565b60408051600160a060020a039092168252519081900360200190f35b34801561016457600080fd5b506100e7600160a060020a036004351661042a565b34801561018557600080fd5b5061013c6104c1565b34801561019a57600080fd5b506100e76104d0565b3480156101af57600080fd5b506100e7600160a060020a036004351661052e565b3480156101d057600080fd5b506100e7600160a060020a03600435166105c0565b3480156101f157600080fd5b506100e76024600480358281019290820135918135918201910135600160a060020a036044351661068c565b34801561022957600080fd5b506100e7600160a060020a03600435166108d7565b34801561024a57600080fd5b5060408051602060046024803582810135601f810185900485028601850190965285855261013c958335600160a060020a03169536956044949193909101919081908401838280828437509497506109949650505050505050565b3480156102b157600080fd5b506100e760048035600160a060020a03169060248035908101910135610b37565b3480156102de57600080fd5b5061013c610c91565b3480156102f357600080fd5b506100e76024600480358281019291013590600160a060020a03903516610ca5565b61031d610e0d565b151561032857600080fd5b600160a060020a038116600090815260036020526040902054151561034c57600080fd5b600160a060020a03811660008181526003602090815260408083209283556001909201805460ff19169055815192835290517f48bde37183b81e5182954496619e672d00f52ae5fd01664d5032348c4676f65c9281900390910190a150565b336103b4610416565b600160a060020a0316146103c757600080fd5b60005460ff16156103d757600080fd5b6040805133815290517f787a5d936e74f4b564b9153575886059829c78cd9927b1be5e0d976b317ef7369181900360200190a133ff5b60005460ff1681565b6000546101009004600160a060020a031690565b610432610e0d565b151561043d57600080fd5b600160a060020a038116600090815260036020526040902054151561046157600080fd5b600160a060020a0381166000818152600360209081526040918290206001908101805460ff19169091179055815192835290517f2a86530fc01f27be3297b162029c6ccfce22c9706f37a5560dc3ab0b5f20b5829281900390910190a150565b600154600160a060020a031681565b336104d9610416565b600160a060020a0316146104ec57600080fd5b6000805460ff191660011790556040805133815290517fd5a2a04a775c741c2ca0dc46ea7ce4835190e1aaf1ca018def0e82568ec336169181900360200190a1565b610536610e0d565b151561054157600080fd5b600160a060020a038116600090815260036020526040902054151561056557600080fd5b600160a060020a038116600081815260036020908152604091829020600101805460ff19169055815192835290517f30fd9df155e90b8c1828017bc5530775e53ea9ccb99fd698227d9c34ec6434989281900390910190a150565b60006105ca610e1e565b15156105d557600080fd5b81600160a060020a03811615156105eb57600080fd5b600160a060020a03811630141561060157600080fd5b600054600160a060020a0384811661010090920416146106875760008054600160a060020a0385811661010081810261010060a860020a0319851617909455604080519490930491909116808452602084019190915281519094507f977e5fa58e458501775e0008d275006294c5249e3c08d1d0e3a9f3acad14f6e49281900390910190a15b505050565b600080610697610e1e565b15156106a257600080fd5b82600160a060020a03811615156106b857600080fd5b600085116106c557600080fd5b8787604051602001808383808284378201915050925050506040516020818303038152906040526040518082805190602001908083835b6020831061071b5780518252601f1990920191602091820191016106fc565b6001836020036101000a038019825116818451168082178552505050505050905001915050604051809103902092508585604051602001808383808284378201915050925050506040516020818303038152906040526040518082805190602001908083835b602083106107a05780518252601f199092019160209182019101610781565b51815160209384036101000a60001901801990921691161790526040805192909401829003909120600089815260029092529290205491955050600160a060020a0316151591506107f2905057600080fd5b600082815260026020526040902054600160a060020a03161561081457600080fd5b600083815260026020908152604080832080548685528285208054600160a060020a0319908116600160a060020a03938416179091559488905281549094169055805192871690830152606080835282018990527ffecb70674913cca083a8c17c9a210e37eb4c0260f9089a90181f6310fe9c98c7918a918a918a918a918a918190810160808201888880828437909101848103835286815260200190508686808284376040519201829003995090975050505050505050a15050505050505050565b60006108e1610e0d565b15156108ec57600080fd5b81600160a060020a038116151561090257600080fd5b600160a060020a03811630141561091857600080fd5b600154600160a060020a038481169116146106875760018054600160a060020a03858116600160a060020a0319831681179093556040805191909216808252602082019390935281519294507f9f611b789425d0d5b90b920f1b2852907dd865c80074a30b1629aaa041d1812c929081900390910190a1505050565b60008060008084511115610aa957836040516020018082805190602001908083835b602083106109d55780518252601f1990920191602091820191016109b6565b6001836020036101000a0380198251168184511680821785525050505050509050019150506040516020818303038152906040526040518082805190602001908083835b60208310610a385780518252601f199092019160209182019101610a19565b51815160209384036101000a60001901801990921691161790526040805192909401829003909120600081815260029092529290205491955050600160a060020a031615159150610a8a905057600080fd5b600082815260026020526040902054600160a060020a03169250610b2f565b600160a060020a0385166000908152600360205260409020541515610acd57600080fd5b600160a060020a03851660009081526003602052604090206001015460ff1615610af657600080fd5b50600160a060020a038085166000908152600360209081526040808320548352600290915290205416801515610b2b57600080fd5b8092505b505092915050565b6000610b41610e0d565b1515610b4c57600080fd5b83600160a060020a0381161515610b6257600080fd5b60008311610b6f57600080fd5b8383604051602001808383808284378201915050925050506040516020818303038152906040526040518082805190602001908083835b60208310610bc55780518252601f199092019160209182019101610ba6565b51815160209384036101000a60001901801990921691161790526040805192909401829003909120600160a060020a038b16600090815260039092529290205491955050159150610c17905057600080fd5b600160a060020a038516600081815260036020908152604091829020859055815192835282018181529082018590527f2c811bfac64873f4d1624d4f8dc6beaa8bf88eeb4983a0d9a806811ac157695891879187918791606082018484808284376040519201829003965090945050505050a15050505050565b6000546101009004600160a060020a031681565b6000610caf610e1e565b1515610cba57600080fd5b81600160a060020a0381161515610cd057600080fd5b60008411610cdd57600080fd5b8484604051602001808383808284378201915050925050506040516020818303038152906040526040518082805190602001908083835b60208310610d335780518252601f199092019160209182019101610d14565b51815160209384036101000a60001901801990921691161790526040805192909401829003909120600081815260029092529290205491955050600160a060020a0316159150610d84905057600080fd5b6000828152600260209081526040918290208054600160a060020a031916600160a060020a0387169081179091558251918201528181529081018590527f8aef53601a525034374debb888df9d39b9f9e4c16a8aa4ea1728cbf264719c149086908690869080606081018585808284376040519201829003965090945050505050a15050505050565b600154600160a060020a0316331490565b6000546101009004600160a060020a03163314905600a165627a7a72305820c97b9b4ecab94daa9159fa8b42453d196c821380b0da072086da68b975203af40029",
  "source": "/*\n * Hubii Nahmii\n *\n * Compliant with the Hubii Nahmii specification v0.12.\n *\n * Copyright (C) 2017-2018 Hubii AS\n */\n\npragma solidity ^0.4.25;\n\nimport {Ownable} from \"./Ownable.sol\";\nimport {TransferController} from \"./TransferController.sol\";\n\n/**\n * @title TransferControllerManager\n * @notice Handles the management of transfer controllers\n */\ncontract TransferControllerManager is Ownable {\n    //\n    // Constants\n    // -----------------------------------------------------------------------------------------------------------------\n    struct CurrencyInfo {\n        bytes32 standard;\n        bool blacklisted;\n    }\n\n    //\n    // Variables\n    // -----------------------------------------------------------------------------------------------------------------\n    mapping(bytes32 => address) registeredTransferControllers;\n    mapping(address => CurrencyInfo) registeredCurrencies;\n\n    //\n    // Events\n    // -----------------------------------------------------------------------------------------------------------------\n    event RegisterTransferControllerEvent(string standard, address controller);\n    event ReassociateTransferControllerEvent(string oldStandard, string newStandard, address controller);\n\n    event RegisterCurrencyEvent(address currencyCt, string standard);\n    event DeregisterCurrencyEvent(address currencyCt);\n    event BlacklistCurrencyEvent(address currencyCt);\n    event WhitelistCurrencyEvent(address currencyCt);\n\n    //\n    // Constructor\n    // -----------------------------------------------------------------------------------------------------------------\n    constructor(address deployer) Ownable(deployer) public {\n    }\n\n    //\n    // Functions\n    // -----------------------------------------------------------------------------------------------------------------\n    function registerTransferController(string standard, address controller)\n    external\n    onlyDeployer\n    notNullAddress(controller)\n    {\n        require(bytes(standard).length > 0);\n        bytes32 standardHash = keccak256(abi.encodePacked(standard));\n\n        require(registeredTransferControllers[standardHash] == address(0));\n\n        registeredTransferControllers[standardHash] = controller;\n\n        // Emit event\n        emit RegisterTransferControllerEvent(standard, controller);\n    }\n\n    function reassociateTransferController(string oldStandard, string newStandard, address controller)\n    external\n    onlyDeployer\n    notNullAddress(controller)\n    {\n        require(bytes(newStandard).length > 0);\n        bytes32 oldStandardHash = keccak256(abi.encodePacked(oldStandard));\n        bytes32 newStandardHash = keccak256(abi.encodePacked(newStandard));\n\n        require(registeredTransferControllers[oldStandardHash] != address(0));\n        require(registeredTransferControllers[newStandardHash] == address(0));\n\n        registeredTransferControllers[newStandardHash] = registeredTransferControllers[oldStandardHash];\n        registeredTransferControllers[oldStandardHash] = address(0);\n\n        // Emit event\n        emit ReassociateTransferControllerEvent(oldStandard, newStandard, controller);\n    }\n\n    function registerCurrency(address currencyCt, string standard)\n    external\n    onlyOperator\n    notNullAddress(currencyCt)\n    {\n        require(bytes(standard).length > 0);\n        bytes32 standardHash = keccak256(abi.encodePacked(standard));\n\n        require(registeredCurrencies[currencyCt].standard == bytes32(0));\n\n        registeredCurrencies[currencyCt].standard = standardHash;\n\n        // Emit event\n        emit RegisterCurrencyEvent(currencyCt, standard);\n    }\n\n    function deregisterCurrency(address currencyCt)\n    external\n    onlyOperator\n    {\n        require(registeredCurrencies[currencyCt].standard != 0);\n\n        registeredCurrencies[currencyCt].standard = bytes32(0);\n        registeredCurrencies[currencyCt].blacklisted = false;\n\n        // Emit event\n        emit DeregisterCurrencyEvent(currencyCt);\n    }\n\n    function blacklistCurrency(address currencyCt)\n    external\n    onlyOperator\n    {\n        require(registeredCurrencies[currencyCt].standard != bytes32(0));\n\n        registeredCurrencies[currencyCt].blacklisted = true;\n\n        // Emit event\n        emit BlacklistCurrencyEvent(currencyCt);\n    }\n\n    function whitelistCurrency(address currencyCt)\n    external\n    onlyOperator\n    {\n        require(registeredCurrencies[currencyCt].standard != bytes32(0));\n\n        registeredCurrencies[currencyCt].blacklisted = false;\n\n        // Emit event\n        emit WhitelistCurrencyEvent(currencyCt);\n    }\n\n    /**\n    @notice The provided standard takes priority over assigned interface to currency\n    */\n    function transferController(address currencyCt, string standard)\n    public\n    view\n    returns (TransferController)\n    {\n        if (bytes(standard).length > 0) {\n            bytes32 standardHash = keccak256(abi.encodePacked(standard));\n\n            require(registeredTransferControllers[standardHash] != address(0));\n            return TransferController(registeredTransferControllers[standardHash]);\n        }\n\n        require(registeredCurrencies[currencyCt].standard != bytes32(0));\n        require(!registeredCurrencies[currencyCt].blacklisted);\n\n        address controllerAddress = registeredTransferControllers[registeredCurrencies[currencyCt].standard];\n        require(controllerAddress != address(0));\n\n        return TransferController(controllerAddress);\n    }\n}\n",
  "sourcePath": "/opt/buildagent/work/855e104608380c36/contracts/TransferControllerManager.sol",
  "compiler": {
    "name": "solc",
    "version": "0.4.25+commit.59dbf8f1.Emscripten.clang"
  },
  "schemaVersion": "2.0.1",
  "updatedAt": "2018-12-20T16:25:35.552Z"
}