{
  "contractName": "TransferControllerManager",
  "abi": [
    {
      "constant": false,
      "inputs": [],
      "name": "triggerSelfDestruction",
      "outputs": [],
      "payable": false,
      "stateMutability": "nonpayable",
      "type": "function"
    },
    {
      "constant": true,
      "inputs": [],
      "name": "selfDestructionDisabled",
      "outputs": [
        {
          "name": "",
          "type": "bool"
        }
      ],
      "payable": false,
      "stateMutability": "view",
      "type": "function"
    },
    {
      "constant": true,
      "inputs": [],
      "name": "destructor",
      "outputs": [
        {
          "name": "",
          "type": "address"
        }
      ],
      "payable": false,
      "stateMutability": "view",
      "type": "function"
    },
    {
      "constant": true,
      "inputs": [
        {
          "name": "",
          "type": "bytes32"
        }
      ],
      "name": "registeredTransferControllers",
      "outputs": [
        {
          "name": "",
          "type": "address"
        }
      ],
      "payable": false,
      "stateMutability": "view",
      "type": "function"
    },
    {
      "constant": true,
      "inputs": [],
      "name": "operator",
      "outputs": [
        {
          "name": "",
          "type": "address"
        }
      ],
      "payable": false,
      "stateMutability": "view",
      "type": "function"
    },
    {
      "constant": false,
      "inputs": [],
      "name": "disableSelfDestruction",
      "outputs": [],
      "payable": false,
      "stateMutability": "nonpayable",
      "type": "function"
    },
    {
      "constant": false,
      "inputs": [
        {
          "name": "newDeployer",
          "type": "address"
        }
      ],
      "name": "setDeployer",
      "outputs": [],
      "payable": false,
      "stateMutability": "nonpayable",
      "type": "function"
    },
    {
      "constant": false,
      "inputs": [
        {
          "name": "newOperator",
          "type": "address"
        }
      ],
      "name": "setOperator",
      "outputs": [],
      "payable": false,
      "stateMutability": "nonpayable",
      "type": "function"
    },
    {
      "constant": true,
      "inputs": [
        {
          "name": "",
          "type": "address"
        }
      ],
      "name": "registeredCurrencies",
      "outputs": [
        {
          "name": "standard",
          "type": "bytes32"
        },
        {
          "name": "blacklisted",
          "type": "bool"
        }
      ],
      "payable": false,
      "stateMutability": "view",
      "type": "function"
    },
    {
      "constant": true,
      "inputs": [],
      "name": "deployer",
      "outputs": [
        {
          "name": "",
          "type": "address"
        }
      ],
      "payable": false,
      "stateMutability": "view",
      "type": "function"
    },
    {
      "inputs": [
        {
          "name": "deployer",
          "type": "address"
        }
      ],
      "payable": false,
      "stateMutability": "nonpayable",
      "type": "constructor"
    },
    {
      "anonymous": false,
      "inputs": [
        {
          "indexed": false,
          "name": "standard",
          "type": "string"
        },
        {
          "indexed": false,
          "name": "controller",
          "type": "address"
        }
      ],
      "name": "RegisterTransferControllerEvent",
      "type": "event"
    },
    {
      "anonymous": false,
      "inputs": [
        {
          "indexed": false,
          "name": "oldStandard",
          "type": "string"
        },
        {
          "indexed": false,
          "name": "newStandard",
          "type": "string"
        },
        {
          "indexed": false,
          "name": "controller",
          "type": "address"
        }
      ],
      "name": "ReassociateTransferControllerEvent",
      "type": "event"
    },
    {
      "anonymous": false,
      "inputs": [
        {
          "indexed": false,
          "name": "currencyCt",
          "type": "address"
        },
        {
          "indexed": false,
          "name": "standard",
          "type": "string"
        }
      ],
      "name": "RegisterCurrencyEvent",
      "type": "event"
    },
    {
      "anonymous": false,
      "inputs": [
        {
          "indexed": false,
          "name": "currencyCt",
          "type": "address"
        }
      ],
      "name": "DeregisterCurrencyEvent",
      "type": "event"
    },
    {
      "anonymous": false,
      "inputs": [
        {
          "indexed": false,
          "name": "currencyCt",
          "type": "address"
        }
      ],
      "name": "BlacklistCurrencyEvent",
      "type": "event"
    },
    {
      "anonymous": false,
      "inputs": [
        {
          "indexed": false,
          "name": "currencyCt",
          "type": "address"
        }
      ],
      "name": "WhitelistCurrencyEvent",
      "type": "event"
    },
    {
      "anonymous": false,
      "inputs": [
        {
          "indexed": false,
          "name": "oldDeployer",
          "type": "address"
        },
        {
          "indexed": false,
          "name": "newDeployer",
          "type": "address"
        }
      ],
      "name": "SetDeployerEvent",
      "type": "event"
    },
    {
      "anonymous": false,
      "inputs": [
        {
          "indexed": false,
          "name": "oldOperator",
          "type": "address"
        },
        {
          "indexed": false,
          "name": "newOperator",
          "type": "address"
        }
      ],
      "name": "SetOperatorEvent",
      "type": "event"
    },
    {
      "anonymous": false,
      "inputs": [
        {
          "indexed": false,
          "name": "wallet",
          "type": "address"
        }
      ],
      "name": "SelfDestructionDisabledEvent",
      "type": "event"
    },
    {
      "anonymous": false,
      "inputs": [
        {
          "indexed": false,
          "name": "wallet",
          "type": "address"
        }
      ],
      "name": "TriggerSelfDestructionEvent",
      "type": "event"
    },
    {
      "constant": false,
      "inputs": [
        {
          "name": "standard",
          "type": "string"
        },
        {
          "name": "controller",
          "type": "address"
        }
      ],
      "name": "registerTransferController",
      "outputs": [],
      "payable": false,
      "stateMutability": "nonpayable",
      "type": "function"
    },
    {
      "constant": false,
      "inputs": [
        {
          "name": "oldStandard",
          "type": "string"
        },
        {
          "name": "newStandard",
          "type": "string"
        },
        {
          "name": "controller",
          "type": "address"
        }
      ],
      "name": "reassociateTransferController",
      "outputs": [],
      "payable": false,
      "stateMutability": "nonpayable",
      "type": "function"
    },
    {
      "constant": false,
      "inputs": [
        {
          "name": "currencyCt",
          "type": "address"
        },
        {
          "name": "standard",
          "type": "string"
        }
      ],
      "name": "registerCurrency",
      "outputs": [],
      "payable": false,
      "stateMutability": "nonpayable",
      "type": "function"
    },
    {
      "constant": false,
      "inputs": [
        {
          "name": "currencyCt",
          "type": "address"
        }
      ],
      "name": "deregisterCurrency",
      "outputs": [],
      "payable": false,
      "stateMutability": "nonpayable",
      "type": "function"
    },
    {
      "constant": false,
      "inputs": [
        {
          "name": "currencyCt",
          "type": "address"
        }
      ],
      "name": "blacklistCurrency",
      "outputs": [],
      "payable": false,
      "stateMutability": "nonpayable",
      "type": "function"
    },
    {
      "constant": false,
      "inputs": [
        {
          "name": "currencyCt",
          "type": "address"
        }
      ],
      "name": "whitelistCurrency",
      "outputs": [],
      "payable": false,
      "stateMutability": "nonpayable",
      "type": "function"
    },
    {
      "constant": true,
      "inputs": [
        {
          "name": "currencyCt",
          "type": "address"
        },
        {
          "name": "standard",
          "type": "string"
        }
      ],
      "name": "transferController",
      "outputs": [
        {
          "name": "",
          "type": "address"
        }
      ],
      "payable": false,
      "stateMutability": "view",
      "type": "function"
    }
  ],
  "bytecode": "0x608060405234801561001057600080fd5b50604051602080610f9983398101604052518080600160a060020a038116151561003957600080fd5b600160a060020a03811630141561004f57600080fd5b5060008054600160a060020a03909216610100810261010060a860020a031990931692909217905560018054600160a060020a031916909117905550610eff8061009a6000396000f3006080604052600436106100d75763ffffffff60e060020a600035041663037d5c6081146100dc5780632738a112146100ff5780632f013a00146101145780634476d23b1461013d57806352defbd01461016e5780635694012c1461018f578063570ca735146101a757806370327ea1146101bc57806382d0f069146101d157806396214735146101f2578063b09fea0214610213578063b3ab15fb1461024b578063c8a483b01461026c578063ca9f15cc146102d3578063d5b2ebc41461030d578063d5f394881461033a578063fae044011461034f575b600080fd5b3480156100e857600080fd5b506100fd600160a060020a036004351661037d565b005b34801561010b57600080fd5b506100fd610413565b34801561012057600080fd5b50610129610475565b604080519115158252519081900360200190f35b34801561014957600080fd5b5061015261047e565b60408051600160a060020a039092168252519081900360200190f35b34801561017a57600080fd5b506100fd600160a060020a0360043516610492565b34801561019b57600080fd5b50610152600435610529565b3480156101b357600080fd5b50610152610544565b3480156101c857600080fd5b506100fd610553565b3480156101dd57600080fd5b506100fd600160a060020a03600435166105b1565b3480156101fe57600080fd5b506100fd600160a060020a0360043516610643565b34801561021f57600080fd5b506100fd6024600480358281019290820135918135918201910135600160a060020a036044351661070f565b34801561025757600080fd5b506100fd600160a060020a036004351661095a565b34801561027857600080fd5b5060408051602060046024803582810135601f8101859004850286018501909652858552610152958335600160a060020a0316953695604494919390910191908190840183828082843750949750610a179650505050505050565b3480156102df57600080fd5b506102f4600160a060020a0360043516610bba565b6040805192835290151560208301528051918290030190f35b34801561031957600080fd5b506100fd60048035600160a060020a03169060248035908101910135610bd6565b34801561034657600080fd5b50610152610d30565b34801561035b57600080fd5b506100fd6024600480358281019291013590600160a060020a03903516610d44565b610385610eac565b151561039057600080fd5b600160a060020a03811660009081526003602052604090205415156103b457600080fd5b600160a060020a03811660008181526003602090815260408083209283556001909201805460ff19169055815192835290517f48bde37183b81e5182954496619e672d00f52ae5fd01664d5032348c4676f65c9281900390910190a150565b3361041c61047e565b600160a060020a03161461042f57600080fd5b60005460ff161561043f57600080fd5b6040805133815290517f787a5d936e74f4b564b9153575886059829c78cd9927b1be5e0d976b317ef7369181900360200190a133ff5b60005460ff1681565b6000546101009004600160a060020a031690565b61049a610eac565b15156104a557600080fd5b600160a060020a03811660009081526003602052604090205415156104c957600080fd5b600160a060020a0381166000818152600360209081526040918290206001908101805460ff19169091179055815192835290517f2a86530fc01f27be3297b162029c6ccfce22c9706f37a5560dc3ab0b5f20b5829281900390910190a150565b600260205260009081526040902054600160a060020a031681565b600154600160a060020a031681565b3361055c61047e565b600160a060020a03161461056f57600080fd5b6000805460ff191660011790556040805133815290517fd5a2a04a775c741c2ca0dc46ea7ce4835190e1aaf1ca018def0e82568ec336169181900360200190a1565b6105b9610eac565b15156105c457600080fd5b600160a060020a03811660009081526003602052604090205415156105e857600080fd5b600160a060020a038116600081815260036020908152604091829020600101805460ff19169055815192835290517f30fd9df155e90b8c1828017bc5530775e53ea9ccb99fd698227d9c34ec6434989281900390910190a150565b600061064d610ebd565b151561065857600080fd5b81600160a060020a038116151561066e57600080fd5b600160a060020a03811630141561068457600080fd5b600054600160a060020a03848116610100909204161461070a5760008054600160a060020a0385811661010081810261010060a860020a0319851617909455604080519490930491909116808452602084019190915281519094507f977e5fa58e458501775e0008d275006294c5249e3c08d1d0e3a9f3acad14f6e49281900390910190a15b505050565b60008061071a610ebd565b151561072557600080fd5b82600160a060020a038116151561073b57600080fd5b6000851161074857600080fd5b8787604051602001808383808284378201915050925050506040516020818303038152906040526040518082805190602001908083835b6020831061079e5780518252601f19909201916020918201910161077f565b6001836020036101000a038019825116818451168082178552505050505050905001915050604051809103902092508585604051602001808383808284378201915050925050506040516020818303038152906040526040518082805190602001908083835b602083106108235780518252601f199092019160209182019101610804565b51815160209384036101000a60001901801990921691161790526040805192909401829003909120600089815260029092529290205491955050600160a060020a031615159150610875905057600080fd5b600082815260026020526040902054600160a060020a03161561089757600080fd5b600083815260026020908152604080832080548685528285208054600160a060020a0319908116600160a060020a03938416179091559488905281549094169055805192871690830152606080835282018990527ffecb70674913cca083a8c17c9a210e37eb4c0260f9089a90181f6310fe9c98c7918a918a918a918a918a918190810160808201888880828437909101848103835286815260200190508686808284376040519201829003995090975050505050505050a15050505050505050565b6000610964610eac565b151561096f57600080fd5b81600160a060020a038116151561098557600080fd5b600160a060020a03811630141561099b57600080fd5b600154600160a060020a0384811691161461070a5760018054600160a060020a03858116600160a060020a0319831681179093556040805191909216808252602082019390935281519294507f9f611b789425d0d5b90b920f1b2852907dd865c80074a30b1629aaa041d1812c929081900390910190a1505050565b60008060008084511115610b2c57836040516020018082805190602001908083835b60208310610a585780518252601f199092019160209182019101610a39565b6001836020036101000a0380198251168184511680821785525050505050509050019150506040516020818303038152906040526040518082805190602001908083835b60208310610abb5780518252601f199092019160209182019101610a9c565b51815160209384036101000a60001901801990921691161790526040805192909401829003909120600081815260029092529290205491955050600160a060020a031615159150610b0d905057600080fd5b600082815260026020526040902054600160a060020a03169250610bb2565b600160a060020a0385166000908152600360205260409020541515610b5057600080fd5b600160a060020a03851660009081526003602052604090206001015460ff1615610b7957600080fd5b50600160a060020a038085166000908152600360209081526040808320548352600290915290205416801515610bae57600080fd5b8092505b505092915050565b6003602052600090815260409020805460019091015460ff1682565b6000610be0610eac565b1515610beb57600080fd5b83600160a060020a0381161515610c0157600080fd5b60008311610c0e57600080fd5b8383604051602001808383808284378201915050925050506040516020818303038152906040526040518082805190602001908083835b60208310610c645780518252601f199092019160209182019101610c45565b51815160209384036101000a60001901801990921691161790526040805192909401829003909120600160a060020a038b16600090815260039092529290205491955050159150610cb6905057600080fd5b600160a060020a038516600081815260036020908152604091829020859055815192835282018181529082018590527f2c811bfac64873f4d1624d4f8dc6beaa8bf88eeb4983a0d9a806811ac157695891879187918791606082018484808284376040519201829003965090945050505050a15050505050565b6000546101009004600160a060020a031681565b6000610d4e610ebd565b1515610d5957600080fd5b81600160a060020a0381161515610d6f57600080fd5b60008411610d7c57600080fd5b8484604051602001808383808284378201915050925050506040516020818303038152906040526040518082805190602001908083835b60208310610dd25780518252601f199092019160209182019101610db3565b51815160209384036101000a60001901801990921691161790526040805192909401829003909120600081815260029092529290205491955050600160a060020a0316159150610e23905057600080fd5b6000828152600260209081526040918290208054600160a060020a031916600160a060020a0387169081179091558251918201528181529081018590527f8aef53601a525034374debb888df9d39b9f9e4c16a8aa4ea1728cbf264719c149086908690869080606081018585808284376040519201829003965090945050505050a15050505050565b600154600160a060020a0316331490565b6000546101009004600160a060020a03163314905600a165627a7a72305820e78f61fa765346466d8b20bcfbe5664130afe15fc0b95f2225aa4d43ecd71df90029",
  "source": "/*\n * Hubii Nahmii\n *\n * Compliant with the Hubii Nahmii specification v0.12.\n *\n * Copyright (C) 2017-2018 Hubii AS\n */\n\npragma solidity ^0.4.25;\n\nimport {Ownable} from \"./Ownable.sol\";\nimport {TransferController} from \"./TransferController.sol\";\n\n/**\n * @title TransferControllerManager\n * @notice Handles the management of transfer controllers\n */\ncontract TransferControllerManager is Ownable {\n    //\n    // Constants\n    // -----------------------------------------------------------------------------------------------------------------\n    struct CurrencyInfo {\n        bytes32 standard;\n        bool blacklisted;\n    }\n\n    //\n    // Variables\n    // -----------------------------------------------------------------------------------------------------------------\n    mapping(bytes32 => address) public registeredTransferControllers;\n    mapping(address => CurrencyInfo) public registeredCurrencies;\n\n    //\n    // Events\n    // -----------------------------------------------------------------------------------------------------------------\n    event RegisterTransferControllerEvent(string standard, address controller);\n    event ReassociateTransferControllerEvent(string oldStandard, string newStandard, address controller);\n\n    event RegisterCurrencyEvent(address currencyCt, string standard);\n    event DeregisterCurrencyEvent(address currencyCt);\n    event BlacklistCurrencyEvent(address currencyCt);\n    event WhitelistCurrencyEvent(address currencyCt);\n\n    //\n    // Constructor\n    // -----------------------------------------------------------------------------------------------------------------\n    constructor(address deployer) Ownable(deployer) public {\n    }\n\n    //\n    // Functions\n    // -----------------------------------------------------------------------------------------------------------------\n    function registerTransferController(string standard, address controller)\n    external\n    onlyDeployer\n    notNullAddress(controller)\n    {\n        require(bytes(standard).length > 0);\n        bytes32 standardHash = keccak256(abi.encodePacked(standard));\n\n        require(registeredTransferControllers[standardHash] == address(0));\n\n        registeredTransferControllers[standardHash] = controller;\n\n        // Emit event\n        emit RegisterTransferControllerEvent(standard, controller);\n    }\n\n    function reassociateTransferController(string oldStandard, string newStandard, address controller)\n    external\n    onlyDeployer\n    notNullAddress(controller)\n    {\n        require(bytes(newStandard).length > 0);\n        bytes32 oldStandardHash = keccak256(abi.encodePacked(oldStandard));\n        bytes32 newStandardHash = keccak256(abi.encodePacked(newStandard));\n\n        require(registeredTransferControllers[oldStandardHash] != address(0));\n        require(registeredTransferControllers[newStandardHash] == address(0));\n\n        registeredTransferControllers[newStandardHash] = registeredTransferControllers[oldStandardHash];\n        registeredTransferControllers[oldStandardHash] = address(0);\n\n        // Emit event\n        emit ReassociateTransferControllerEvent(oldStandard, newStandard, controller);\n    }\n\n    function registerCurrency(address currencyCt, string standard)\n    external\n    onlyOperator\n    notNullAddress(currencyCt)\n    {\n        require(bytes(standard).length > 0);\n        bytes32 standardHash = keccak256(abi.encodePacked(standard));\n\n        require(registeredCurrencies[currencyCt].standard == bytes32(0));\n\n        registeredCurrencies[currencyCt].standard = standardHash;\n\n        // Emit event\n        emit RegisterCurrencyEvent(currencyCt, standard);\n    }\n\n    function deregisterCurrency(address currencyCt)\n    external\n    onlyOperator\n    {\n        require(registeredCurrencies[currencyCt].standard != 0);\n\n        registeredCurrencies[currencyCt].standard = bytes32(0);\n        registeredCurrencies[currencyCt].blacklisted = false;\n\n        // Emit event\n        emit DeregisterCurrencyEvent(currencyCt);\n    }\n\n    function blacklistCurrency(address currencyCt)\n    external\n    onlyOperator\n    {\n        require(registeredCurrencies[currencyCt].standard != bytes32(0));\n\n        registeredCurrencies[currencyCt].blacklisted = true;\n\n        // Emit event\n        emit BlacklistCurrencyEvent(currencyCt);\n    }\n\n    function whitelistCurrency(address currencyCt)\n    external\n    onlyOperator\n    {\n        require(registeredCurrencies[currencyCt].standard != bytes32(0));\n\n        registeredCurrencies[currencyCt].blacklisted = false;\n\n        // Emit event\n        emit WhitelistCurrencyEvent(currencyCt);\n    }\n\n    /**\n    @notice The provided standard takes priority over assigned interface to currency\n    */\n    function transferController(address currencyCt, string standard)\n    public\n    view\n    returns (TransferController)\n    {\n        if (bytes(standard).length > 0) {\n            bytes32 standardHash = keccak256(abi.encodePacked(standard));\n\n            require(registeredTransferControllers[standardHash] != address(0));\n            return TransferController(registeredTransferControllers[standardHash]);\n        }\n\n        require(registeredCurrencies[currencyCt].standard != bytes32(0));\n        require(!registeredCurrencies[currencyCt].blacklisted);\n\n        address controllerAddress = registeredTransferControllers[registeredCurrencies[currencyCt].standard];\n        require(controllerAddress != address(0));\n\n        return TransferController(controllerAddress);\n    }\n}\n",
  "sourcePath": "/opt/buildagent/work/855e104608380c36/contracts/TransferControllerManager.sol",
  "compiler": {
    "name": "solc",
    "version": "0.4.25+commit.59dbf8f1.Emscripten.clang"
  },
  "schemaVersion": "2.0.2",
  "updatedAt": "2019-04-18T00:23:49.927Z"
}